{
	"AUCA.sol": {
		"WrappedAUC": {
			"abi": [
				{
					"inputs": [
						{
							"internalType": "uint16",
							"name": "_lzChainId",
							"type": "uint16"
						},
						{
							"internalType": "address",
							"name": "_endpoint",
							"type": "address"
						},
						{
							"internalType": "string",
							"name": "_name",
							"type": "string"
						},
						{
							"internalType": "string",
							"name": "_symbol",
							"type": "string"
						}
					],
					"stateMutability": "nonpayable",
					"type": "constructor"
				},
				{
					"inputs": [
						{
							"internalType": "address",
							"name": "spender",
							"type": "address"
						},
						{
							"internalType": "uint256",
							"name": "allowance",
							"type": "uint256"
						},
						{
							"internalType": "uint256",
							"name": "needed",
							"type": "uint256"
						}
					],
					"name": "ERC20InsufficientAllowance",
					"type": "error"
				},
				{
					"inputs": [
						{
							"internalType": "address",
							"name": "sender",
							"type": "address"
						},
						{
							"internalType": "uint256",
							"name": "balance",
							"type": "uint256"
						},
						{
							"internalType": "uint256",
							"name": "needed",
							"type": "uint256"
						}
					],
					"name": "ERC20InsufficientBalance",
					"type": "error"
				},
				{
					"inputs": [
						{
							"internalType": "address",
							"name": "approver",
							"type": "address"
						}
					],
					"name": "ERC20InvalidApprover",
					"type": "error"
				},
				{
					"inputs": [
						{
							"internalType": "address",
							"name": "receiver",
							"type": "address"
						}
					],
					"name": "ERC20InvalidReceiver",
					"type": "error"
				},
				{
					"inputs": [
						{
							"internalType": "address",
							"name": "sender",
							"type": "address"
						}
					],
					"name": "ERC20InvalidSender",
					"type": "error"
				},
				{
					"inputs": [
						{
							"internalType": "address",
							"name": "spender",
							"type": "address"
						}
					],
					"name": "ERC20InvalidSpender",
					"type": "error"
				},
				{
					"inputs": [
						{
							"internalType": "address",
							"name": "owner",
							"type": "address"
						}
					],
					"name": "OwnableInvalidOwner",
					"type": "error"
				},
				{
					"inputs": [
						{
							"internalType": "address",
							"name": "account",
							"type": "address"
						}
					],
					"name": "OwnableUnauthorizedAccount",
					"type": "error"
				},
				{
					"anonymous": false,
					"inputs": [
						{
							"indexed": true,
							"internalType": "address",
							"name": "owner",
							"type": "address"
						},
						{
							"indexed": true,
							"internalType": "address",
							"name": "spender",
							"type": "address"
						},
						{
							"indexed": false,
							"internalType": "uint256",
							"name": "value",
							"type": "uint256"
						}
					],
					"name": "Approval",
					"type": "event"
				},
				{
					"anonymous": false,
					"inputs": [
						{
							"indexed": false,
							"internalType": "uint16",
							"name": "srcChainId",
							"type": "uint16"
						},
						{
							"indexed": false,
							"internalType": "uint16",
							"name": "dstChainId",
							"type": "uint16"
						},
						{
							"indexed": false,
							"internalType": "uint256",
							"name": "srcTxIndex",
							"type": "uint256"
						},
						{
							"indexed": true,
							"internalType": "address",
							"name": "receiver",
							"type": "address"
						},
						{
							"indexed": false,
							"internalType": "uint256",
							"name": "amount",
							"type": "uint256"
						}
					],
					"name": "BridgingCompleted",
					"type": "event"
				},
				{
					"anonymous": false,
					"inputs": [
						{
							"indexed": false,
							"internalType": "uint16",
							"name": "srcChainId",
							"type": "uint16"
						},
						{
							"indexed": false,
							"internalType": "uint16",
							"name": "dstChainId",
							"type": "uint16"
						},
						{
							"indexed": false,
							"internalType": "uint256",
							"name": "srcTxIndex",
							"type": "uint256"
						},
						{
							"indexed": true,
							"internalType": "address",
							"name": "receiver",
							"type": "address"
						},
						{
							"indexed": false,
							"internalType": "uint256",
							"name": "amount",
							"type": "uint256"
						},
						{
							"indexed": false,
							"internalType": "uint256",
							"name": "fees",
							"type": "uint256"
						}
					],
					"name": "BridgingInitiated",
					"type": "event"
				},
				{
					"anonymous": false,
					"inputs": [
						{
							"indexed": true,
							"internalType": "address",
							"name": "oldEndpoint",
							"type": "address"
						},
						{
							"indexed": true,
							"internalType": "address",
							"name": "newEndpoint",
							"type": "address"
						}
					],
					"name": "EndpointUpdated",
					"type": "event"
				},
				{
					"anonymous": false,
					"inputs": [
						{
							"indexed": true,
							"internalType": "address",
							"name": "previousOwner",
							"type": "address"
						},
						{
							"indexed": true,
							"internalType": "address",
							"name": "newOwner",
							"type": "address"
						}
					],
					"name": "OwnershipTransferred",
					"type": "event"
				},
				{
					"anonymous": false,
					"inputs": [
						{
							"indexed": true,
							"internalType": "address",
							"name": "from",
							"type": "address"
						},
						{
							"indexed": true,
							"internalType": "address",
							"name": "to",
							"type": "address"
						},
						{
							"indexed": false,
							"internalType": "uint256",
							"name": "value",
							"type": "uint256"
						}
					],
					"name": "Transfer",
					"type": "event"
				},
				{
					"anonymous": false,
					"inputs": [
						{
							"indexed": false,
							"internalType": "uint256",
							"name": "oldFees",
							"type": "uint256"
						},
						{
							"indexed": false,
							"internalType": "uint256",
							"name": "newFees",
							"type": "uint256"
						}
					],
					"name": "TransferFeeUpdated",
					"type": "event"
				},
				{
					"anonymous": false,
					"inputs": [
						{
							"indexed": true,
							"internalType": "uint16",
							"name": "dstChainId",
							"type": "uint16"
						},
						{
							"indexed": false,
							"internalType": "bytes",
							"name": "trustedRemote",
							"type": "bytes"
						}
					],
					"name": "TrustedRemoteUpdated",
					"type": "event"
				},
				{
					"inputs": [],
					"name": "LZ_CHAIN_ID",
					"outputs": [
						{
							"internalType": "uint16",
							"name": "",
							"type": "uint16"
						}
					],
					"stateMutability": "view",
					"type": "function"
				},
				{
					"inputs": [
						{
							"internalType": "address",
							"name": "owner",
							"type": "address"
						},
						{
							"internalType": "address",
							"name": "spender",
							"type": "address"
						}
					],
					"name": "allowance",
					"outputs": [
						{
							"internalType": "uint256",
							"name": "",
							"type": "uint256"
						}
					],
					"stateMutability": "view",
					"type": "function"
				},
				{
					"inputs": [
						{
							"internalType": "address",
							"name": "spender",
							"type": "address"
						},
						{
							"internalType": "uint256",
							"name": "value",
							"type": "uint256"
						}
					],
					"name": "approve",
					"outputs": [
						{
							"internalType": "bool",
							"name": "",
							"type": "bool"
						}
					],
					"stateMutability": "nonpayable",
					"type": "function"
				},
				{
					"inputs": [
						{
							"internalType": "address",
							"name": "account",
							"type": "address"
						}
					],
					"name": "balanceOf",
					"outputs": [
						{
							"internalType": "uint256",
							"name": "",
							"type": "uint256"
						}
					],
					"stateMutability": "view",
					"type": "function"
				},
				{
					"inputs": [],
					"name": "decimals",
					"outputs": [
						{
							"internalType": "uint8",
							"name": "",
							"type": "uint8"
						}
					],
					"stateMutability": "view",
					"type": "function"
				},
				{
					"inputs": [],
					"name": "endpoint",
					"outputs": [
						{
							"internalType": "contract ILayerZeroEndpoint",
							"name": "",
							"type": "address"
						}
					],
					"stateMutability": "view",
					"type": "function"
				},
				{
					"inputs": [
						{
							"internalType": "address",
							"name": "_receiver",
							"type": "address"
						},
						{
							"internalType": "uint256",
							"name": "_amount",
							"type": "uint256"
						},
						{
							"internalType": "uint16",
							"name": "_dstChainId",
							"type": "uint16"
						},
						{
							"internalType": "bytes",
							"name": "_adapterParams",
							"type": "bytes"
						}
					],
					"name": "estimateFees",
					"outputs": [
						{
							"internalType": "uint256",
							"name": "",
							"type": "uint256"
						}
					],
					"stateMutability": "view",
					"type": "function"
				},
				{
					"inputs": [
						{
							"internalType": "uint16",
							"name": "_srcChainId",
							"type": "uint16"
						},
						{
							"internalType": "bytes",
							"name": "_srcAddress",
							"type": "bytes"
						}
					],
					"name": "forceResumeReceive",
					"outputs": [],
					"stateMutability": "nonpayable",
					"type": "function"
				},
				{
					"inputs": [
						{
							"internalType": "uint16",
							"name": "_srcChainId",
							"type": "uint16"
						},
						{
							"internalType": "bytes",
							"name": "_srcAddress",
							"type": "bytes"
						},
						{
							"internalType": "uint64",
							"name": "_nonce",
							"type": "uint64"
						},
						{
							"internalType": "bytes",
							"name": "_payload",
							"type": "bytes"
						}
					],
					"name": "lzReceive",
					"outputs": [],
					"stateMutability": "nonpayable",
					"type": "function"
				},
				{
					"inputs": [],
					"name": "name",
					"outputs": [
						{
							"internalType": "string",
							"name": "",
							"type": "string"
						}
					],
					"stateMutability": "view",
					"type": "function"
				},
				{
					"inputs": [
						{
							"internalType": "bytes",
							"name": "",
							"type": "bytes"
						},
						{
							"internalType": "uint16",
							"name": "",
							"type": "uint16"
						},
						{
							"internalType": "uint64",
							"name": "",
							"type": "uint64"
						}
					],
					"name": "nonceStatus",
					"outputs": [
						{
							"internalType": "bool",
							"name": "",
							"type": "bool"
						}
					],
					"stateMutability": "view",
					"type": "function"
				},
				{
					"inputs": [],
					"name": "owner",
					"outputs": [
						{
							"internalType": "address",
							"name": "",
							"type": "address"
						}
					],
					"stateMutability": "view",
					"type": "function"
				},
				{
					"inputs": [],
					"name": "renounceOwnership",
					"outputs": [],
					"stateMutability": "nonpayable",
					"type": "function"
				},
				{
					"inputs": [
						{
							"internalType": "uint16",
							"name": "_version",
							"type": "uint16"
						},
						{
							"internalType": "uint16",
							"name": "_chainId",
							"type": "uint16"
						},
						{
							"internalType": "uint256",
							"name": "_configType",
							"type": "uint256"
						},
						{
							"internalType": "bytes",
							"name": "_config",
							"type": "bytes"
						}
					],
					"name": "setConfig",
					"outputs": [],
					"stateMutability": "nonpayable",
					"type": "function"
				},
				{
					"inputs": [
						{
							"internalType": "uint16",
							"name": "_version",
							"type": "uint16"
						}
					],
					"name": "setReceiveVersion",
					"outputs": [],
					"stateMutability": "nonpayable",
					"type": "function"
				},
				{
					"inputs": [
						{
							"internalType": "uint16",
							"name": "_version",
							"type": "uint16"
						}
					],
					"name": "setSendVersion",
					"outputs": [],
					"stateMutability": "nonpayable",
					"type": "function"
				},
				{
					"inputs": [
						{
							"internalType": "uint256",
							"name": "_transferFeePercent",
							"type": "uint256"
						}
					],
					"name": "setTransferFees",
					"outputs": [],
					"stateMutability": "nonpayable",
					"type": "function"
				},
				{
					"inputs": [
						{
							"internalType": "uint16",
							"name": "_dstChainId",
							"type": "uint16"
						},
						{
							"internalType": "bytes",
							"name": "_trustedRemote",
							"type": "bytes"
						}
					],
					"name": "setTrustedRemote",
					"outputs": [],
					"stateMutability": "nonpayable",
					"type": "function"
				},
				{
					"inputs": [],
					"name": "symbol",
					"outputs": [
						{
							"internalType": "string",
							"name": "",
							"type": "string"
						}
					],
					"stateMutability": "view",
					"type": "function"
				},
				{
					"inputs": [],
					"name": "totalSupply",
					"outputs": [
						{
							"internalType": "uint256",
							"name": "",
							"type": "uint256"
						}
					],
					"stateMutability": "view",
					"type": "function"
				},
				{
					"inputs": [
						{
							"internalType": "address",
							"name": "to",
							"type": "address"
						},
						{
							"internalType": "uint256",
							"name": "value",
							"type": "uint256"
						}
					],
					"name": "transfer",
					"outputs": [
						{
							"internalType": "bool",
							"name": "",
							"type": "bool"
						}
					],
					"stateMutability": "nonpayable",
					"type": "function"
				},
				{
					"inputs": [],
					"name": "transferFeePercent",
					"outputs": [
						{
							"internalType": "uint256",
							"name": "",
							"type": "uint256"
						}
					],
					"stateMutability": "view",
					"type": "function"
				},
				{
					"inputs": [
						{
							"internalType": "address",
							"name": "from",
							"type": "address"
						},
						{
							"internalType": "address",
							"name": "to",
							"type": "address"
						},
						{
							"internalType": "uint256",
							"name": "value",
							"type": "uint256"
						}
					],
					"name": "transferFrom",
					"outputs": [
						{
							"internalType": "bool",
							"name": "",
							"type": "bool"
						}
					],
					"stateMutability": "nonpayable",
					"type": "function"
				},
				{
					"inputs": [
						{
							"internalType": "address",
							"name": "newOwner",
							"type": "address"
						}
					],
					"name": "transferOwnership",
					"outputs": [],
					"stateMutability": "nonpayable",
					"type": "function"
				},
				{
					"inputs": [
						{
							"internalType": "uint16",
							"name": "",
							"type": "uint16"
						}
					],
					"name": "trustedRemote",
					"outputs": [
						{
							"internalType": "bytes",
							"name": "",
							"type": "bytes"
						}
					],
					"stateMutability": "view",
					"type": "function"
				},
				{
					"inputs": [],
					"name": "txCounter",
					"outputs": [
						{
							"internalType": "uint256",
							"name": "",
							"type": "uint256"
						}
					],
					"stateMutability": "view",
					"type": "function"
				},
				{
					"inputs": [
						{
							"internalType": "address",
							"name": "_newEndpoint",
							"type": "address"
						}
					],
					"name": "updateEndpoint",
					"outputs": [],
					"stateMutability": "nonpayable",
					"type": "function"
				},
				{
					"inputs": [
						{
							"internalType": "address",
							"name": "_receiver",
							"type": "address"
						},
						{
							"internalType": "uint256",
							"name": "_amount",
							"type": "uint256"
						},
						{
							"internalType": "uint16",
							"name": "_dstChainId",
							"type": "uint16"
						},
						{
							"internalType": "bytes",
							"name": "_adapterParams",
							"type": "bytes"
						}
					],
					"name": "xChainTransfer",
					"outputs": [],
					"stateMutability": "payable",
					"type": "function"
				}
			],
			"devdoc": {
				"details": "wrapper contract to be deployed to other dst chains",
				"errors": {
					"ERC20InsufficientAllowance(address,uint256,uint256)": [
						{
							"details": "Indicates a failure with the `spender`’s `allowance`. Used in transfers.",
							"params": {
								"allowance": "Amount of tokens a `spender` is allowed to operate with.",
								"needed": "Minimum amount required to perform a transfer.",
								"spender": "Address that may be allowed to operate on tokens without being their owner."
							}
						}
					],
					"ERC20InsufficientBalance(address,uint256,uint256)": [
						{
							"details": "Indicates an error related to the current `balance` of a `sender`. Used in transfers.",
							"params": {
								"balance": "Current balance for the interacting account.",
								"needed": "Minimum amount required to perform a transfer.",
								"sender": "Address whose tokens are being transferred."
							}
						}
					],
					"ERC20InvalidApprover(address)": [
						{
							"details": "Indicates a failure with the `approver` of a token to be approved. Used in approvals.",
							"params": {
								"approver": "Address initiating an approval operation."
							}
						}
					],
					"ERC20InvalidReceiver(address)": [
						{
							"details": "Indicates a failure with the token `receiver`. Used in transfers.",
							"params": {
								"receiver": "Address to which tokens are being transferred."
							}
						}
					],
					"ERC20InvalidSender(address)": [
						{
							"details": "Indicates a failure with the token `sender`. Used in transfers.",
							"params": {
								"sender": "Address whose tokens are being transferred."
							}
						}
					],
					"ERC20InvalidSpender(address)": [
						{
							"details": "Indicates a failure with the `spender` to be approved. Used in approvals.",
							"params": {
								"spender": "Address that may be allowed to operate on tokens without being their owner."
							}
						}
					],
					"OwnableInvalidOwner(address)": [
						{
							"details": "The owner is not a valid owner account. (eg. `address(0)`)"
						}
					],
					"OwnableUnauthorizedAccount(address)": [
						{
							"details": "The caller account is not authorized to perform an operation."
						}
					]
				},
				"events": {
					"Approval(address,address,uint256)": {
						"details": "Emitted when the allowance of a `spender` for an `owner` is set by a call to {approve}. `value` is the new allowance."
					},
					"Transfer(address,address,uint256)": {
						"details": "Emitted when `value` tokens are moved from one account (`from`) to another (`to`). Note that `value` may be zero."
					},
					"TransferFeeUpdated(uint256,uint256)": {
						"details": "emitted when transfer fees are updated."
					}
				},
				"kind": "dev",
				"methods": {
					"allowance(address,address)": {
						"details": "See {IERC20-allowance}."
					},
					"approve(address,uint256)": {
						"details": "See {IERC20-approve}. NOTE: If `value` is the maximum `uint256`, the allowance is not updated on `transferFrom`. This is semantically equivalent to an infinite approval. Requirements: - `spender` cannot be the zero address."
					},
					"balanceOf(address)": {
						"details": "See {IERC20-balanceOf}."
					},
					"decimals()": {
						"details": "Returns the number of decimals used to get its user representation. For example, if `decimals` equals `2`, a balance of `505` tokens should be displayed to a user as `5.05` (`505 / 10 ** 2`). Tokens usually opt for a value of 18, imitating the relationship between Ether and Wei. This is the default value returned by this function, unless it's overridden. NOTE: This information is only used for _display_ purposes: it in no way affects any of the arithmetic of the contract, including {IERC20-balanceOf} and {IERC20-transfer}."
					},
					"lzReceive(uint16,bytes,uint64,bytes)": {
						"params": {
							"_nonce": "The nonce of the transaction.",
							"_payload": "The payload containing receiver, amount, and transaction ID.",
							"_srcAddress": "The source address on the source chain.",
							"_srcChainId": "The source chain's ID."
						}
					},
					"name()": {
						"details": "Returns the name of the token."
					},
					"owner()": {
						"details": "Returns the address of the current owner."
					},
					"renounceOwnership()": {
						"details": "Leaves the contract without owner. It will not be possible to call `onlyOwner` functions. Can only be called by the current owner. NOTE: Renouncing ownership will leave the contract without an owner, thereby disabling any functionality that is only available to the owner."
					},
					"setConfig(uint16,uint16,uint256,bytes)": {
						"details": "generic config for LayerZero user Application"
					},
					"setTransferFees(uint256)": {
						"params": {
							"_transferFeePercent": "the transfer fee percent (eg: 100% = 10000)"
						}
					},
					"setTrustedRemote(uint16,bytes)": {
						"params": {
							"_dstChainId": "The destination chain's ID.",
							"_trustedRemote": "The trusted remote address."
						}
					},
					"symbol()": {
						"details": "Returns the symbol of the token, usually a shorter version of the name."
					},
					"totalSupply()": {
						"details": "See {IERC20-totalSupply}."
					},
					"transfer(address,uint256)": {
						"details": "See {IERC20-transfer}. Requirements: - `to` cannot be the zero address. - the caller must have a balance of at least `value`."
					},
					"transferFrom(address,address,uint256)": {
						"details": "See {IERC20-transferFrom}. Emits an {Approval} event indicating the updated allowance. This is not required by the EIP. See the note at the beginning of {ERC20}. NOTE: Does not update the allowance if the current allowance is the maximum `uint256`. Requirements: - `from` and `to` cannot be the zero address. - `from` must have a balance of at least `value`. - the caller must have allowance for ``from``'s tokens of at least `value`."
					},
					"transferOwnership(address)": {
						"details": "Transfers ownership of the contract to a new account (`newOwner`). Can only be called by the current owner."
					},
					"updateEndpoint(address)": {
						"params": {
							"_newEndpoint": "The new endpoint contract address."
						}
					},
					"xChainTransfer(address,uint256,uint16,bytes)": {
						"params": {
							"_adapterParams": "Additional adapter parameters.",
							"_amount": "The amount of tokens to transfer.",
							"_dstChainId": "The destination chain's ID.",
							"_receiver": "The recipient's address on the destination chain."
						}
					}
				},
				"stateVariables": {
					"endpoint": {
						"details": "not declared as constant to prevent vendor lock-in"
					},
					"nonceStatus": {
						"details": "map nonce to processed state to prevent replay attack"
					},
					"transferFeePercent": {
						"details": "transfer fees per tx"
					},
					"trustedRemote": {
						"details": "mapping trusted remote"
					},
					"txCounter": {
						"details": "total src chain tx counter"
					}
				},
				"version": 1
			},
			"evm": {
				"assembly": "    /* \"AUCA.sol\":407:8163  contract WrappedAUC is ERC20, Ownable, ILayerZeroReceiver {... */\n  mstore(0x40, 0xa0)\n    /* \"AUCA.sol\":1183:1185  50 */\n  0x32\n    /* \"AUCA.sol\":1147:1185  uint256 public transferFeePercent = 50 */\n  0x0a\n  sstore\n    /* \"AUCA.sol\":2447:2748  constructor(uint16 _lzChainId, address _endpoint, string memory _name, string memory _symbol)... */\n  callvalue\n  dup1\n  iszero\n  tag_1\n  jumpi\n  0x00\n  dup1\n  revert\ntag_1:\n  pop\n  mload(0x40)\n  sub(codesize, bytecodeSize)\n  dup1\n  bytecodeSize\n  dup4\n  codecopy\n  dup2\n  dup2\n  add\n  0x40\n  mstore\n  dup2\n  add\n  swap1\n  tag_2\n  swap2\n  swap1\n  tag_3\n  jump\t// in\ntag_2:\n    /* \"AUCA.sol\":2587:2597  msg.sender */\n  caller\n    /* \"AUCA.sol\":2555:2560  _name */\n  dup3\n    /* \"AUCA.sol\":2562:2569  _symbol */\n  dup3\n    /* \"@openzeppelin/contracts/token/ERC20/ERC20.sol\":1970:1975  name_ */\n  dup2\n    /* \"@openzeppelin/contracts/token/ERC20/ERC20.sol\":1962:1967  _name */\n  0x03\n    /* \"@openzeppelin/contracts/token/ERC20/ERC20.sol\":1962:1975  _name = name_ */\n  swap1\n  dup2\n  tag_8\n  swap2\n  swap1\n  tag_9\n  jump\t// in\ntag_8:\n  pop\n    /* \"@openzeppelin/contracts/token/ERC20/ERC20.sol\":1995:2002  symbol_ */\n  dup1\n    /* \"@openzeppelin/contracts/token/ERC20/ERC20.sol\":1985:1992  _symbol */\n  0x04\n    /* \"@openzeppelin/contracts/token/ERC20/ERC20.sol\":1985:2002  _symbol = symbol_ */\n  swap1\n  dup2\n  tag_10\n  swap2\n  swap1\n  tag_9\n  jump\t// in\ntag_10:\n  pop\n    /* \"@openzeppelin/contracts/token/ERC20/ERC20.sol\":1896:2009  constructor(string memory name_, string memory symbol_) {... */\n  pop\n  pop\n    /* \"@openzeppelin/contracts/access/Ownable.sol\":1297:1298  0 */\n  0x00\n    /* \"@openzeppelin/contracts/access/Ownable.sol\":1273:1299  initialOwner == address(0) */\n  0xffffffffffffffffffffffffffffffffffffffff\n  and\n    /* \"@openzeppelin/contracts/access/Ownable.sol\":1273:1285  initialOwner */\n  dup2\n    /* \"@openzeppelin/contracts/access/Ownable.sol\":1273:1299  initialOwner == address(0) */\n  0xffffffffffffffffffffffffffffffffffffffff\n  and\n  sub\n    /* \"@openzeppelin/contracts/access/Ownable.sol\":1269:1364  if (initialOwner == address(0)) {... */\n  tag_12\n  jumpi\n    /* \"@openzeppelin/contracts/access/Ownable.sol\":1350:1351  0 */\n  0x00\n    /* \"@openzeppelin/contracts/access/Ownable.sol\":1322:1353  OwnableInvalidOwner(address(0)) */\n  mload(0x40)\n  0x1e4fbdf700000000000000000000000000000000000000000000000000000000\n  dup2\n  mstore\n  0x04\n  add\n  tag_13\n  swap2\n  swap1\n  tag_14\n  jump\t// in\ntag_13:\n  mload(0x40)\n  dup1\n  swap2\n  sub\n  swap1\n  revert\n    /* \"@openzeppelin/contracts/access/Ownable.sol\":1269:1364  if (initialOwner == address(0)) {... */\ntag_12:\n    /* \"@openzeppelin/contracts/access/Ownable.sol\":1373:1405  _transferOwnership(initialOwner) */\n  tag_15\n    /* \"@openzeppelin/contracts/access/Ownable.sol\":1392:1404  initialOwner */\n  dup2\n    /* \"@openzeppelin/contracts/access/Ownable.sol\":1373:1391  _transferOwnership */\n  shl(0x20, tag_16)\n    /* \"@openzeppelin/contracts/access/Ownable.sol\":1373:1405  _transferOwnership(initialOwner) */\n  0x20\n  shr\n  jump\t// in\ntag_15:\n    /* \"@openzeppelin/contracts/access/Ownable.sol\":1225:1412  constructor(address initialOwner) {... */\n  pop\n    /* \"AUCA.sol\":2627:2637  _lzChainId */\n  dup4\n    /* \"AUCA.sol\":2613:2637  LZ_CHAIN_ID = _lzChainId */\n  0xffff\n  and\n  0x80\n  dup2\n  0xffff\n  and\n  dup2\n  mstore\n  pop\n  pop\n    /* \"AUCA.sol\":2677:2686  _endpoint */\n  dup3\n    /* \"AUCA.sol\":2647:2655  endpoint */\n  0x06\n  0x00\n    /* \"AUCA.sol\":2647:2687  endpoint = ILayerZeroEndpoint(_endpoint) */\n  0x0100\n  exp\n  dup2\n  sload\n  dup2\n  0xffffffffffffffffffffffffffffffffffffffff\n  mul\n  not\n  and\n  swap1\n  dup4\n  0xffffffffffffffffffffffffffffffffffffffff\n  and\n  mul\n  or\n  swap1\n  sstore\n  pop\n    /* \"AUCA.sol\":2731:2740  _endpoint */\n  dup3\n    /* \"AUCA.sol\":2703:2741  EndpointUpdated(address(0), _endpoint) */\n  0xffffffffffffffffffffffffffffffffffffffff\n  and\n    /* \"AUCA.sol\":2727:2728  0 */\n  0x00\n    /* \"AUCA.sol\":2703:2741  EndpointUpdated(address(0), _endpoint) */\n  0xffffffffffffffffffffffffffffffffffffffff\n  and\n  0x241827194635b544bceb965d0e124305c0968051403ae83cb99d1ef86bd65f58\n  mload(0x40)\n  mload(0x40)\n  dup1\n  swap2\n  sub\n  swap1\n  log3\n    /* \"AUCA.sol\":2447:2748  constructor(uint16 _lzChainId, address _endpoint, string memory _name, string memory _symbol)... */\n  pop\n  pop\n  pop\n  pop\n    /* \"AUCA.sol\":407:8163  contract WrappedAUC is ERC20, Ownable, ILayerZeroReceiver {... */\n  jump(tag_18)\n    /* \"@openzeppelin/contracts/access/Ownable.sol\":2912:3099  function _transferOwnership(address newOwner) internal virtual {... */\ntag_16:\n    /* \"@openzeppelin/contracts/access/Ownable.sol\":2985:3001  address oldOwner */\n  0x00\n    /* \"@openzeppelin/contracts/access/Ownable.sol\":3004:3010  _owner */\n  0x05\n  0x00\n  swap1\n  sload\n  swap1\n  0x0100\n  exp\n  swap1\n  div\n  0xffffffffffffffffffffffffffffffffffffffff\n  and\n    /* \"@openzeppelin/contracts/access/Ownable.sol\":2985:3010  address oldOwner = _owner */\n  swap1\n  pop\n    /* \"@openzeppelin/contracts/access/Ownable.sol\":3029:3037  newOwner */\n  dup2\n    /* \"@openzeppelin/contracts/access/Ownable.sol\":3020:3026  _owner */\n  0x05\n  0x00\n    /* \"@openzeppelin/contracts/access/Ownable.sol\":3020:3037  _owner = newOwner */\n  0x0100\n  exp\n  dup2\n  sload\n  dup2\n  0xffffffffffffffffffffffffffffffffffffffff\n  mul\n  not\n  and\n  swap1\n  dup4\n  0xffffffffffffffffffffffffffffffffffffffff\n  and\n  mul\n  or\n  swap1\n  sstore\n  pop\n    /* \"@openzeppelin/contracts/access/Ownable.sol\":3083:3091  newOwner */\n  dup2\n    /* \"@openzeppelin/contracts/access/Ownable.sol\":3052:3092  OwnershipTransferred(oldOwner, newOwner) */\n  0xffffffffffffffffffffffffffffffffffffffff\n  and\n    /* \"@openzeppelin/contracts/access/Ownable.sol\":3073:3081  oldOwner */\n  dup2\n    /* \"@openzeppelin/contracts/access/Ownable.sol\":3052:3092  OwnershipTransferred(oldOwner, newOwner) */\n  0xffffffffffffffffffffffffffffffffffffffff\n  and\n  0x8be0079c531659141344cd1fd0a4f28419497f9722a3daafe3b4186f6b6457e0\n  mload(0x40)\n  mload(0x40)\n  dup1\n  swap2\n  sub\n  swap1\n  log3\n    /* \"@openzeppelin/contracts/access/Ownable.sol\":2975:3099  {... */\n  pop\n    /* \"@openzeppelin/contracts/access/Ownable.sol\":2912:3099  function _transferOwnership(address newOwner) internal virtual {... */\n  pop\n  jump\t// out\n    /* \"#utility.yul\":7:82   */\ntag_20:\n    /* \"#utility.yul\":40:46   */\n  0x00\n    /* \"#utility.yul\":73:75   */\n  0x40\n    /* \"#utility.yul\":67:76   */\n  mload\n    /* \"#utility.yul\":57:76   */\n  swap1\n  pop\n    /* \"#utility.yul\":7:82   */\n  swap1\n  jump\t// out\n    /* \"#utility.yul\":88:205   */\ntag_21:\n    /* \"#utility.yul\":197:198   */\n  0x00\n    /* \"#utility.yul\":194:195   */\n  dup1\n    /* \"#utility.yul\":187:199   */\n  revert\n    /* \"#utility.yul\":211:328   */\ntag_22:\n    /* \"#utility.yul\":320:321   */\n  0x00\n    /* \"#utility.yul\":317:318   */\n  dup1\n    /* \"#utility.yul\":310:322   */\n  revert\n    /* \"#utility.yul\":334:423   */\ntag_23:\n    /* \"#utility.yul\":370:377   */\n  0x00\n    /* \"#utility.yul\":410:416   */\n  0xffff\n    /* \"#utility.yul\":403:408   */\n  dup3\n    /* \"#utility.yul\":399:417   */\n  and\n    /* \"#utility.yul\":388:417   */\n  swap1\n  pop\n    /* \"#utility.yul\":334:423   */\n  swap2\n  swap1\n  pop\n  jump\t// out\n    /* \"#utility.yul\":429:549   */\ntag_24:\n    /* \"#utility.yul\":501:524   */\n  tag_66\n    /* \"#utility.yul\":518:523   */\n  dup2\n    /* \"#utility.yul\":501:524   */\n  tag_23\n  jump\t// in\ntag_66:\n    /* \"#utility.yul\":494:499   */\n  dup2\n    /* \"#utility.yul\":491:525   */\n  eq\n    /* \"#utility.yul\":481:543   */\n  tag_67\n  jumpi\n    /* \"#utility.yul\":539:540   */\n  0x00\n    /* \"#utility.yul\":536:537   */\n  dup1\n    /* \"#utility.yul\":529:541   */\n  revert\n    /* \"#utility.yul\":481:543   */\ntag_67:\n    /* \"#utility.yul\":429:549   */\n  pop\n  jump\t// out\n    /* \"#utility.yul\":555:696   */\ntag_25:\n    /* \"#utility.yul\":611:616   */\n  0x00\n    /* \"#utility.yul\":642:648   */\n  dup2\n    /* \"#utility.yul\":636:649   */\n  mload\n    /* \"#utility.yul\":627:649   */\n  swap1\n  pop\n    /* \"#utility.yul\":658:690   */\n  tag_69\n    /* \"#utility.yul\":684:689   */\n  dup2\n    /* \"#utility.yul\":658:690   */\n  tag_24\n  jump\t// in\ntag_69:\n    /* \"#utility.yul\":555:696   */\n  swap3\n  swap2\n  pop\n  pop\n  jump\t// out\n    /* \"#utility.yul\":702:828   */\ntag_26:\n    /* \"#utility.yul\":739:746   */\n  0x00\n    /* \"#utility.yul\":779:821   */\n  0xffffffffffffffffffffffffffffffffffffffff\n    /* \"#utility.yul\":772:777   */\n  dup3\n    /* \"#utility.yul\":768:822   */\n  and\n    /* \"#utility.yul\":757:822   */\n  swap1\n  pop\n    /* \"#utility.yul\":702:828   */\n  swap2\n  swap1\n  pop\n  jump\t// out\n    /* \"#utility.yul\":834:930   */\ntag_27:\n    /* \"#utility.yul\":871:878   */\n  0x00\n    /* \"#utility.yul\":900:924   */\n  tag_72\n    /* \"#utility.yul\":918:923   */\n  dup3\n    /* \"#utility.yul\":900:924   */\n  tag_26\n  jump\t// in\ntag_72:\n    /* \"#utility.yul\":889:924   */\n  swap1\n  pop\n    /* \"#utility.yul\":834:930   */\n  swap2\n  swap1\n  pop\n  jump\t// out\n    /* \"#utility.yul\":936:1058   */\ntag_28:\n    /* \"#utility.yul\":1009:1033   */\n  tag_74\n    /* \"#utility.yul\":1027:1032   */\n  dup2\n    /* \"#utility.yul\":1009:1033   */\n  tag_27\n  jump\t// in\ntag_74:\n    /* \"#utility.yul\":1002:1007   */\n  dup2\n    /* \"#utility.yul\":999:1034   */\n  eq\n    /* \"#utility.yul\":989:1052   */\n  tag_75\n  jumpi\n    /* \"#utility.yul\":1048:1049   */\n  0x00\n    /* \"#utility.yul\":1045:1046   */\n  dup1\n    /* \"#utility.yul\":1038:1050   */\n  revert\n    /* \"#utility.yul\":989:1052   */\ntag_75:\n    /* \"#utility.yul\":936:1058   */\n  pop\n  jump\t// out\n    /* \"#utility.yul\":1064:1207   */\ntag_29:\n    /* \"#utility.yul\":1121:1126   */\n  0x00\n    /* \"#utility.yul\":1152:1158   */\n  dup2\n    /* \"#utility.yul\":1146:1159   */\n  mload\n    /* \"#utility.yul\":1137:1159   */\n  swap1\n  pop\n    /* \"#utility.yul\":1168:1201   */\n  tag_77\n    /* \"#utility.yul\":1195:1200   */\n  dup2\n    /* \"#utility.yul\":1168:1201   */\n  tag_28\n  jump\t// in\ntag_77:\n    /* \"#utility.yul\":1064:1207   */\n  swap3\n  swap2\n  pop\n  pop\n  jump\t// out\n    /* \"#utility.yul\":1213:1330   */\ntag_30:\n    /* \"#utility.yul\":1322:1323   */\n  0x00\n    /* \"#utility.yul\":1319:1320   */\n  dup1\n    /* \"#utility.yul\":1312:1324   */\n  revert\n    /* \"#utility.yul\":1336:1453   */\ntag_31:\n    /* \"#utility.yul\":1445:1446   */\n  0x00\n    /* \"#utility.yul\":1442:1443   */\n  dup1\n    /* \"#utility.yul\":1435:1447   */\n  revert\n    /* \"#utility.yul\":1459:1561   */\ntag_32:\n    /* \"#utility.yul\":1500:1506   */\n  0x00\n    /* \"#utility.yul\":1551:1553   */\n  0x1f\n    /* \"#utility.yul\":1547:1554   */\n  not\n    /* \"#utility.yul\":1542:1544   */\n  0x1f\n    /* \"#utility.yul\":1535:1540   */\n  dup4\n    /* \"#utility.yul\":1531:1545   */\n  add\n    /* \"#utility.yul\":1527:1555   */\n  and\n    /* \"#utility.yul\":1517:1555   */\n  swap1\n  pop\n    /* \"#utility.yul\":1459:1561   */\n  swap2\n  swap1\n  pop\n  jump\t// out\n    /* \"#utility.yul\":1567:1747   */\ntag_33:\n    /* \"#utility.yul\":1615:1692   */\n  0x4e487b7100000000000000000000000000000000000000000000000000000000\n    /* \"#utility.yul\":1612:1613   */\n  0x00\n    /* \"#utility.yul\":1605:1693   */\n  mstore\n    /* \"#utility.yul\":1712:1716   */\n  0x41\n    /* \"#utility.yul\":1709:1710   */\n  0x04\n    /* \"#utility.yul\":1702:1717   */\n  mstore\n    /* \"#utility.yul\":1736:1740   */\n  0x24\n    /* \"#utility.yul\":1733:1734   */\n  0x00\n    /* \"#utility.yul\":1726:1741   */\n  revert\n    /* \"#utility.yul\":1753:2034   */\ntag_34:\n    /* \"#utility.yul\":1836:1863   */\n  tag_83\n    /* \"#utility.yul\":1858:1862   */\n  dup3\n    /* \"#utility.yul\":1836:1863   */\n  tag_32\n  jump\t// in\ntag_83:\n    /* \"#utility.yul\":1828:1834   */\n  dup2\n    /* \"#utility.yul\":1824:1864   */\n  add\n    /* \"#utility.yul\":1966:1972   */\n  dup2\n    /* \"#utility.yul\":1954:1964   */\n  dup2\n    /* \"#utility.yul\":1951:1973   */\n  lt\n    /* \"#utility.yul\":1930:1948   */\n  0xffffffffffffffff\n    /* \"#utility.yul\":1918:1928   */\n  dup3\n    /* \"#utility.yul\":1915:1949   */\n  gt\n    /* \"#utility.yul\":1912:1974   */\n  or\n    /* \"#utility.yul\":1909:1997   */\n  iszero\n  tag_84\n  jumpi\n    /* \"#utility.yul\":1977:1995   */\n  tag_85\n  tag_33\n  jump\t// in\ntag_85:\n    /* \"#utility.yul\":1909:1997   */\ntag_84:\n    /* \"#utility.yul\":2017:2027   */\n  dup1\n    /* \"#utility.yul\":2013:2015   */\n  0x40\n    /* \"#utility.yul\":2006:2028   */\n  mstore\n    /* \"#utility.yul\":1796:2034   */\n  pop\n    /* \"#utility.yul\":1753:2034   */\n  pop\n  pop\n  jump\t// out\n    /* \"#utility.yul\":2040:2169   */\ntag_35:\n    /* \"#utility.yul\":2074:2080   */\n  0x00\n    /* \"#utility.yul\":2101:2121   */\n  tag_87\n  tag_20\n  jump\t// in\ntag_87:\n    /* \"#utility.yul\":2091:2121   */\n  swap1\n  pop\n    /* \"#utility.yul\":2130:2163   */\n  tag_88\n    /* \"#utility.yul\":2158:2162   */\n  dup3\n    /* \"#utility.yul\":2150:2156   */\n  dup3\n    /* \"#utility.yul\":2130:2163   */\n  tag_34\n  jump\t// in\ntag_88:\n    /* \"#utility.yul\":2040:2169   */\n  swap2\n  swap1\n  pop\n  jump\t// out\n    /* \"#utility.yul\":2175:2483   */\ntag_36:\n    /* \"#utility.yul\":2237:2241   */\n  0x00\n    /* \"#utility.yul\":2327:2345   */\n  0xffffffffffffffff\n    /* \"#utility.yul\":2319:2325   */\n  dup3\n    /* \"#utility.yul\":2316:2346   */\n  gt\n    /* \"#utility.yul\":2313:2369   */\n  iszero\n  tag_90\n  jumpi\n    /* \"#utility.yul\":2349:2367   */\n  tag_91\n  tag_33\n  jump\t// in\ntag_91:\n    /* \"#utility.yul\":2313:2369   */\ntag_90:\n    /* \"#utility.yul\":2387:2416   */\n  tag_92\n    /* \"#utility.yul\":2409:2415   */\n  dup3\n    /* \"#utility.yul\":2387:2416   */\n  tag_32\n  jump\t// in\ntag_92:\n    /* \"#utility.yul\":2379:2416   */\n  swap1\n  pop\n    /* \"#utility.yul\":2471:2475   */\n  0x20\n    /* \"#utility.yul\":2465:2469   */\n  dup2\n    /* \"#utility.yul\":2461:2476   */\n  add\n    /* \"#utility.yul\":2453:2476   */\n  swap1\n  pop\n    /* \"#utility.yul\":2175:2483   */\n  swap2\n  swap1\n  pop\n  jump\t// out\n    /* \"#utility.yul\":2489:2735   */\ntag_37:\n    /* \"#utility.yul\":2570:2571   */\n  0x00\n    /* \"#utility.yul\":2580:2693   */\ntag_94:\n    /* \"#utility.yul\":2594:2600   */\n  dup4\n    /* \"#utility.yul\":2591:2592   */\n  dup2\n    /* \"#utility.yul\":2588:2601   */\n  lt\n    /* \"#utility.yul\":2580:2693   */\n  iszero\n  tag_96\n  jumpi\n    /* \"#utility.yul\":2679:2680   */\n  dup1\n    /* \"#utility.yul\":2674:2677   */\n  dup3\n    /* \"#utility.yul\":2670:2681   */\n  add\n    /* \"#utility.yul\":2664:2682   */\n  mload\n    /* \"#utility.yul\":2660:2661   */\n  dup2\n    /* \"#utility.yul\":2655:2658   */\n  dup5\n    /* \"#utility.yul\":2651:2662   */\n  add\n    /* \"#utility.yul\":2644:2683   */\n  mstore\n    /* \"#utility.yul\":2616:2618   */\n  0x20\n    /* \"#utility.yul\":2613:2614   */\n  dup2\n    /* \"#utility.yul\":2609:2619   */\n  add\n    /* \"#utility.yul\":2604:2619   */\n  swap1\n  pop\n    /* \"#utility.yul\":2580:2693   */\n  jump(tag_94)\ntag_96:\n    /* \"#utility.yul\":2727:2728   */\n  0x00\n    /* \"#utility.yul\":2718:2724   */\n  dup5\n    /* \"#utility.yul\":2713:2716   */\n  dup5\n    /* \"#utility.yul\":2709:2725   */\n  add\n    /* \"#utility.yul\":2702:2729   */\n  mstore\n    /* \"#utility.yul\":2551:2735   */\n  pop\n    /* \"#utility.yul\":2489:2735   */\n  pop\n  pop\n  pop\n  jump\t// out\n    /* \"#utility.yul\":2741:3175   */\ntag_38:\n    /* \"#utility.yul\":2830:2835   */\n  0x00\n    /* \"#utility.yul\":2855:2921   */\n  tag_98\n    /* \"#utility.yul\":2871:2920   */\n  tag_99\n    /* \"#utility.yul\":2913:2919   */\n  dup5\n    /* \"#utility.yul\":2871:2920   */\n  tag_36\n  jump\t// in\ntag_99:\n    /* \"#utility.yul\":2855:2921   */\n  tag_35\n  jump\t// in\ntag_98:\n    /* \"#utility.yul\":2846:2921   */\n  swap1\n  pop\n    /* \"#utility.yul\":2944:2950   */\n  dup3\n    /* \"#utility.yul\":2937:2942   */\n  dup2\n    /* \"#utility.yul\":2930:2951   */\n  mstore\n    /* \"#utility.yul\":2982:2986   */\n  0x20\n    /* \"#utility.yul\":2975:2980   */\n  dup2\n    /* \"#utility.yul\":2971:2987   */\n  add\n    /* \"#utility.yul\":3020:3023   */\n  dup5\n    /* \"#utility.yul\":3011:3017   */\n  dup5\n    /* \"#utility.yul\":3006:3009   */\n  dup5\n    /* \"#utility.yul\":3002:3018   */\n  add\n    /* \"#utility.yul\":2999:3024   */\n  gt\n    /* \"#utility.yul\":2996:3108   */\n  iszero\n  tag_100\n  jumpi\n    /* \"#utility.yul\":3027:3106   */\n  tag_101\n  tag_31\n  jump\t// in\ntag_101:\n    /* \"#utility.yul\":2996:3108   */\ntag_100:\n    /* \"#utility.yul\":3117:3169   */\n  tag_102\n    /* \"#utility.yul\":3162:3168   */\n  dup5\n    /* \"#utility.yul\":3157:3160   */\n  dup3\n    /* \"#utility.yul\":3152:3155   */\n  dup6\n    /* \"#utility.yul\":3117:3169   */\n  tag_37\n  jump\t// in\ntag_102:\n    /* \"#utility.yul\":2836:3175   */\n  pop\n    /* \"#utility.yul\":2741:3175   */\n  swap4\n  swap3\n  pop\n  pop\n  pop\n  jump\t// out\n    /* \"#utility.yul\":3195:3550   */\ntag_39:\n    /* \"#utility.yul\":3262:3267   */\n  0x00\n    /* \"#utility.yul\":3311:3314   */\n  dup3\n    /* \"#utility.yul\":3304:3308   */\n  0x1f\n    /* \"#utility.yul\":3296:3302   */\n  dup4\n    /* \"#utility.yul\":3292:3309   */\n  add\n    /* \"#utility.yul\":3288:3315   */\n  slt\n    /* \"#utility.yul\":3278:3400   */\n  tag_104\n  jumpi\n    /* \"#utility.yul\":3319:3398   */\n  tag_105\n  tag_30\n  jump\t// in\ntag_105:\n    /* \"#utility.yul\":3278:3400   */\ntag_104:\n    /* \"#utility.yul\":3429:3435   */\n  dup2\n    /* \"#utility.yul\":3423:3436   */\n  mload\n    /* \"#utility.yul\":3454:3544   */\n  tag_106\n    /* \"#utility.yul\":3540:3543   */\n  dup5\n    /* \"#utility.yul\":3532:3538   */\n  dup3\n    /* \"#utility.yul\":3525:3529   */\n  0x20\n    /* \"#utility.yul\":3517:3523   */\n  dup7\n    /* \"#utility.yul\":3513:3530   */\n  add\n    /* \"#utility.yul\":3454:3544   */\n  tag_38\n  jump\t// in\ntag_106:\n    /* \"#utility.yul\":3445:3544   */\n  swap2\n  pop\n    /* \"#utility.yul\":3268:3550   */\n  pop\n    /* \"#utility.yul\":3195:3550   */\n  swap3\n  swap2\n  pop\n  pop\n  jump\t// out\n    /* \"#utility.yul\":3556:4720   */\ntag_3:\n    /* \"#utility.yul\":3672:3678   */\n  0x00\n    /* \"#utility.yul\":3680:3686   */\n  dup1\n    /* \"#utility.yul\":3688:3694   */\n  0x00\n    /* \"#utility.yul\":3696:3702   */\n  dup1\n    /* \"#utility.yul\":3745:3748   */\n  0x80\n    /* \"#utility.yul\":3733:3742   */\n  dup6\n    /* \"#utility.yul\":3724:3731   */\n  dup8\n    /* \"#utility.yul\":3720:3743   */\n  sub\n    /* \"#utility.yul\":3716:3749   */\n  slt\n    /* \"#utility.yul\":3713:3833   */\n  iszero\n  tag_108\n  jumpi\n    /* \"#utility.yul\":3752:3831   */\n  tag_109\n  tag_21\n  jump\t// in\ntag_109:\n    /* \"#utility.yul\":3713:3833   */\ntag_108:\n    /* \"#utility.yul\":3872:3873   */\n  0x00\n    /* \"#utility.yul\":3897:3960   */\n  tag_110\n    /* \"#utility.yul\":3952:3959   */\n  dup8\n    /* \"#utility.yul\":3943:3949   */\n  dup3\n    /* \"#utility.yul\":3932:3941   */\n  dup9\n    /* \"#utility.yul\":3928:3950   */\n  add\n    /* \"#utility.yul\":3897:3960   */\n  tag_25\n  jump\t// in\ntag_110:\n    /* \"#utility.yul\":3887:3960   */\n  swap5\n  pop\n    /* \"#utility.yul\":3843:3970   */\n  pop\n    /* \"#utility.yul\":4009:4011   */\n  0x20\n    /* \"#utility.yul\":4035:4099   */\n  tag_111\n    /* \"#utility.yul\":4091:4098   */\n  dup8\n    /* \"#utility.yul\":4082:4088   */\n  dup3\n    /* \"#utility.yul\":4071:4080   */\n  dup9\n    /* \"#utility.yul\":4067:4089   */\n  add\n    /* \"#utility.yul\":4035:4099   */\n  tag_29\n  jump\t// in\ntag_111:\n    /* \"#utility.yul\":4025:4099   */\n  swap4\n  pop\n    /* \"#utility.yul\":3980:4109   */\n  pop\n    /* \"#utility.yul\":4169:4171   */\n  0x40\n    /* \"#utility.yul\":4158:4167   */\n  dup6\n    /* \"#utility.yul\":4154:4172   */\n  add\n    /* \"#utility.yul\":4148:4173   */\n  mload\n    /* \"#utility.yul\":4200:4218   */\n  0xffffffffffffffff\n    /* \"#utility.yul\":4192:4198   */\n  dup2\n    /* \"#utility.yul\":4189:4219   */\n  gt\n    /* \"#utility.yul\":4186:4303   */\n  iszero\n  tag_112\n  jumpi\n    /* \"#utility.yul\":4222:4301   */\n  tag_113\n  tag_22\n  jump\t// in\ntag_113:\n    /* \"#utility.yul\":4186:4303   */\ntag_112:\n    /* \"#utility.yul\":4327:4401   */\n  tag_114\n    /* \"#utility.yul\":4393:4400   */\n  dup8\n    /* \"#utility.yul\":4384:4390   */\n  dup3\n    /* \"#utility.yul\":4373:4382   */\n  dup9\n    /* \"#utility.yul\":4369:4391   */\n  add\n    /* \"#utility.yul\":4327:4401   */\n  tag_39\n  jump\t// in\ntag_114:\n    /* \"#utility.yul\":4317:4401   */\n  swap3\n  pop\n    /* \"#utility.yul\":4119:4411   */\n  pop\n    /* \"#utility.yul\":4471:4473   */\n  0x60\n    /* \"#utility.yul\":4460:4469   */\n  dup6\n    /* \"#utility.yul\":4456:4474   */\n  add\n    /* \"#utility.yul\":4450:4475   */\n  mload\n    /* \"#utility.yul\":4502:4520   */\n  0xffffffffffffffff\n    /* \"#utility.yul\":4494:4500   */\n  dup2\n    /* \"#utility.yul\":4491:4521   */\n  gt\n    /* \"#utility.yul\":4488:4605   */\n  iszero\n  tag_115\n  jumpi\n    /* \"#utility.yul\":4524:4603   */\n  tag_116\n  tag_22\n  jump\t// in\ntag_116:\n    /* \"#utility.yul\":4488:4605   */\ntag_115:\n    /* \"#utility.yul\":4629:4703   */\n  tag_117\n    /* \"#utility.yul\":4695:4702   */\n  dup8\n    /* \"#utility.yul\":4686:4692   */\n  dup3\n    /* \"#utility.yul\":4675:4684   */\n  dup9\n    /* \"#utility.yul\":4671:4693   */\n  add\n    /* \"#utility.yul\":4629:4703   */\n  tag_39\n  jump\t// in\ntag_117:\n    /* \"#utility.yul\":4619:4703   */\n  swap2\n  pop\n    /* \"#utility.yul\":4421:4713   */\n  pop\n    /* \"#utility.yul\":3556:4720   */\n  swap3\n  swap6\n  swap2\n  swap5\n  pop\n  swap3\n  pop\n  jump\t// out\n    /* \"#utility.yul\":4726:4825   */\ntag_40:\n    /* \"#utility.yul\":4778:4784   */\n  0x00\n    /* \"#utility.yul\":4812:4817   */\n  dup2\n    /* \"#utility.yul\":4806:4818   */\n  mload\n    /* \"#utility.yul\":4796:4818   */\n  swap1\n  pop\n    /* \"#utility.yul\":4726:4825   */\n  swap2\n  swap1\n  pop\n  jump\t// out\n    /* \"#utility.yul\":4831:5011   */\ntag_41:\n    /* \"#utility.yul\":4879:4956   */\n  0x4e487b7100000000000000000000000000000000000000000000000000000000\n    /* \"#utility.yul\":4876:4877   */\n  0x00\n    /* \"#utility.yul\":4869:4957   */\n  mstore\n    /* \"#utility.yul\":4976:4980   */\n  0x22\n    /* \"#utility.yul\":4973:4974   */\n  0x04\n    /* \"#utility.yul\":4966:4981   */\n  mstore\n    /* \"#utility.yul\":5000:5004   */\n  0x24\n    /* \"#utility.yul\":4997:4998   */\n  0x00\n    /* \"#utility.yul\":4990:5005   */\n  revert\n    /* \"#utility.yul\":5017:5337   */\ntag_42:\n    /* \"#utility.yul\":5061:5067   */\n  0x00\n    /* \"#utility.yul\":5098:5099   */\n  0x02\n    /* \"#utility.yul\":5092:5096   */\n  dup3\n    /* \"#utility.yul\":5088:5100   */\n  div\n    /* \"#utility.yul\":5078:5100   */\n  swap1\n  pop\n    /* \"#utility.yul\":5145:5146   */\n  0x01\n    /* \"#utility.yul\":5139:5143   */\n  dup3\n    /* \"#utility.yul\":5135:5147   */\n  and\n    /* \"#utility.yul\":5166:5184   */\n  dup1\n    /* \"#utility.yul\":5156:5237   */\n  tag_121\n  jumpi\n    /* \"#utility.yul\":5222:5226   */\n  0x7f\n    /* \"#utility.yul\":5214:5220   */\n  dup3\n    /* \"#utility.yul\":5210:5227   */\n  and\n    /* \"#utility.yul\":5200:5227   */\n  swap2\n  pop\n    /* \"#utility.yul\":5156:5237   */\ntag_121:\n    /* \"#utility.yul\":5284:5286   */\n  0x20\n    /* \"#utility.yul\":5276:5282   */\n  dup3\n    /* \"#utility.yul\":5273:5287   */\n  lt\n    /* \"#utility.yul\":5253:5271   */\n  dup2\n    /* \"#utility.yul\":5250:5288   */\n  sub\n    /* \"#utility.yul\":5247:5331   */\n  tag_122\n  jumpi\n    /* \"#utility.yul\":5303:5321   */\n  tag_123\n  tag_41\n  jump\t// in\ntag_123:\n    /* \"#utility.yul\":5247:5331   */\ntag_122:\n    /* \"#utility.yul\":5068:5337   */\n  pop\n    /* \"#utility.yul\":5017:5337   */\n  swap2\n  swap1\n  pop\n  jump\t// out\n    /* \"#utility.yul\":5343:5484   */\ntag_43:\n    /* \"#utility.yul\":5392:5396   */\n  0x00\n    /* \"#utility.yul\":5415:5418   */\n  dup2\n    /* \"#utility.yul\":5407:5418   */\n  swap1\n  pop\n    /* \"#utility.yul\":5438:5441   */\n  dup2\n    /* \"#utility.yul\":5435:5436   */\n  0x00\n    /* \"#utility.yul\":5428:5442   */\n  mstore\n    /* \"#utility.yul\":5472:5476   */\n  0x20\n    /* \"#utility.yul\":5469:5470   */\n  0x00\n    /* \"#utility.yul\":5459:5477   */\n  keccak256\n    /* \"#utility.yul\":5451:5477   */\n  swap1\n  pop\n    /* \"#utility.yul\":5343:5484   */\n  swap2\n  swap1\n  pop\n  jump\t// out\n    /* \"#utility.yul\":5490:5583   */\ntag_44:\n    /* \"#utility.yul\":5527:5533   */\n  0x00\n    /* \"#utility.yul\":5574:5576   */\n  0x20\n    /* \"#utility.yul\":5569:5571   */\n  0x1f\n    /* \"#utility.yul\":5562:5567   */\n  dup4\n    /* \"#utility.yul\":5558:5572   */\n  add\n    /* \"#utility.yul\":5554:5577   */\n  div\n    /* \"#utility.yul\":5544:5577   */\n  swap1\n  pop\n    /* \"#utility.yul\":5490:5583   */\n  swap2\n  swap1\n  pop\n  jump\t// out\n    /* \"#utility.yul\":5589:5696   */\ntag_45:\n    /* \"#utility.yul\":5633:5641   */\n  0x00\n    /* \"#utility.yul\":5683:5688   */\n  dup3\n    /* \"#utility.yul\":5677:5681   */\n  dup3\n    /* \"#utility.yul\":5673:5689   */\n  shl\n    /* \"#utility.yul\":5652:5689   */\n  swap1\n  pop\n    /* \"#utility.yul\":5589:5696   */\n  swap3\n  swap2\n  pop\n  pop\n  jump\t// out\n    /* \"#utility.yul\":5702:6095   */\ntag_46:\n    /* \"#utility.yul\":5771:5777   */\n  0x00\n    /* \"#utility.yul\":5821:5822   */\n  0x08\n    /* \"#utility.yul\":5809:5819   */\n  dup4\n    /* \"#utility.yul\":5805:5823   */\n  mul\n    /* \"#utility.yul\":5844:5941   */\n  tag_128\n    /* \"#utility.yul\":5874:5940   */\n  0xffffffffffffffffffffffffffffffffffffffffffffffffffffffffffffffff\n    /* \"#utility.yul\":5863:5872   */\n  dup3\n    /* \"#utility.yul\":5844:5941   */\n  tag_45\n  jump\t// in\ntag_128:\n    /* \"#utility.yul\":5962:6001   */\n  tag_129\n    /* \"#utility.yul\":5992:6000   */\n  dup7\n    /* \"#utility.yul\":5981:5990   */\n  dup4\n    /* \"#utility.yul\":5962:6001   */\n  tag_45\n  jump\t// in\ntag_129:\n    /* \"#utility.yul\":5950:6001   */\n  swap6\n  pop\n    /* \"#utility.yul\":6034:6038   */\n  dup1\n    /* \"#utility.yul\":6030:6039   */\n  not\n    /* \"#utility.yul\":6023:6028   */\n  dup5\n    /* \"#utility.yul\":6019:6040   */\n  and\n    /* \"#utility.yul\":6010:6040   */\n  swap4\n  pop\n    /* \"#utility.yul\":6083:6087   */\n  dup1\n    /* \"#utility.yul\":6073:6081   */\n  dup7\n    /* \"#utility.yul\":6069:6088   */\n  and\n    /* \"#utility.yul\":6062:6067   */\n  dup5\n    /* \"#utility.yul\":6059:6089   */\n  or\n    /* \"#utility.yul\":6049:6089   */\n  swap3\n  pop\n    /* \"#utility.yul\":5778:6095   */\n  pop\n  pop\n    /* \"#utility.yul\":5702:6095   */\n  swap4\n  swap3\n  pop\n  pop\n  pop\n  jump\t// out\n    /* \"#utility.yul\":6101:6178   */\ntag_47:\n    /* \"#utility.yul\":6138:6145   */\n  0x00\n    /* \"#utility.yul\":6167:6172   */\n  dup2\n    /* \"#utility.yul\":6156:6172   */\n  swap1\n  pop\n    /* \"#utility.yul\":6101:6178   */\n  swap2\n  swap1\n  pop\n  jump\t// out\n    /* \"#utility.yul\":6184:6244   */\ntag_48:\n    /* \"#utility.yul\":6212:6215   */\n  0x00\n    /* \"#utility.yul\":6233:6238   */\n  dup2\n    /* \"#utility.yul\":6226:6238   */\n  swap1\n  pop\n    /* \"#utility.yul\":6184:6244   */\n  swap2\n  swap1\n  pop\n  jump\t// out\n    /* \"#utility.yul\":6250:6392   */\ntag_49:\n    /* \"#utility.yul\":6300:6309   */\n  0x00\n    /* \"#utility.yul\":6333:6386   */\n  tag_133\n    /* \"#utility.yul\":6351:6385   */\n  tag_134\n    /* \"#utility.yul\":6360:6384   */\n  tag_135\n    /* \"#utility.yul\":6378:6383   */\n  dup5\n    /* \"#utility.yul\":6360:6384   */\n  tag_47\n  jump\t// in\ntag_135:\n    /* \"#utility.yul\":6351:6385   */\n  tag_48\n  jump\t// in\ntag_134:\n    /* \"#utility.yul\":6333:6386   */\n  tag_47\n  jump\t// in\ntag_133:\n    /* \"#utility.yul\":6320:6386   */\n  swap1\n  pop\n    /* \"#utility.yul\":6250:6392   */\n  swap2\n  swap1\n  pop\n  jump\t// out\n    /* \"#utility.yul\":6398:6473   */\ntag_50:\n    /* \"#utility.yul\":6441:6444   */\n  0x00\n    /* \"#utility.yul\":6462:6467   */\n  dup2\n    /* \"#utility.yul\":6455:6467   */\n  swap1\n  pop\n    /* \"#utility.yul\":6398:6473   */\n  swap2\n  swap1\n  pop\n  jump\t// out\n    /* \"#utility.yul\":6479:6748   */\ntag_51:\n    /* \"#utility.yul\":6589:6628   */\n  tag_138\n    /* \"#utility.yul\":6620:6627   */\n  dup4\n    /* \"#utility.yul\":6589:6628   */\n  tag_49\n  jump\t// in\ntag_138:\n    /* \"#utility.yul\":6650:6741   */\n  tag_139\n    /* \"#utility.yul\":6699:6740   */\n  tag_140\n    /* \"#utility.yul\":6723:6739   */\n  dup3\n    /* \"#utility.yul\":6699:6740   */\n  tag_50\n  jump\t// in\ntag_140:\n    /* \"#utility.yul\":6691:6697   */\n  dup5\n    /* \"#utility.yul\":6684:6688   */\n  dup5\n    /* \"#utility.yul\":6678:6689   */\n  sload\n    /* \"#utility.yul\":6650:6741   */\n  tag_46\n  jump\t// in\ntag_139:\n    /* \"#utility.yul\":6644:6648   */\n  dup3\n    /* \"#utility.yul\":6637:6742   */\n  sstore\n    /* \"#utility.yul\":6555:6748   */\n  pop\n    /* \"#utility.yul\":6479:6748   */\n  pop\n  pop\n  pop\n  jump\t// out\n    /* \"#utility.yul\":6754:6827   */\ntag_52:\n    /* \"#utility.yul\":6799:6802   */\n  0x00\n    /* \"#utility.yul\":6754:6827   */\n  swap1\n  jump\t// out\n    /* \"#utility.yul\":6833:7022   */\ntag_53:\n    /* \"#utility.yul\":6910:6942   */\n  tag_143\n  tag_52\n  jump\t// in\ntag_143:\n    /* \"#utility.yul\":6951:7016   */\n  tag_144\n    /* \"#utility.yul\":7009:7015   */\n  dup2\n    /* \"#utility.yul\":7001:7007   */\n  dup5\n    /* \"#utility.yul\":6995:6999   */\n  dup5\n    /* \"#utility.yul\":6951:7016   */\n  tag_51\n  jump\t// in\ntag_144:\n    /* \"#utility.yul\":6886:7022   */\n  pop\n    /* \"#utility.yul\":6833:7022   */\n  pop\n  pop\n  jump\t// out\n    /* \"#utility.yul\":7028:7214   */\ntag_54:\n    /* \"#utility.yul\":7088:7208   */\ntag_146:\n    /* \"#utility.yul\":7105:7108   */\n  dup2\n    /* \"#utility.yul\":7098:7103   */\n  dup2\n    /* \"#utility.yul\":7095:7109   */\n  lt\n    /* \"#utility.yul\":7088:7208   */\n  iszero\n  tag_148\n  jumpi\n    /* \"#utility.yul\":7159:7198   */\n  tag_149\n    /* \"#utility.yul\":7196:7197   */\n  0x00\n    /* \"#utility.yul\":7189:7194   */\n  dup3\n    /* \"#utility.yul\":7159:7198   */\n  tag_53\n  jump\t// in\ntag_149:\n    /* \"#utility.yul\":7132:7133   */\n  0x01\n    /* \"#utility.yul\":7125:7130   */\n  dup2\n    /* \"#utility.yul\":7121:7134   */\n  add\n    /* \"#utility.yul\":7112:7134   */\n  swap1\n  pop\n    /* \"#utility.yul\":7088:7208   */\n  jump(tag_146)\ntag_148:\n    /* \"#utility.yul\":7028:7214   */\n  pop\n  pop\n  jump\t// out\n    /* \"#utility.yul\":7220:7763   */\ntag_55:\n    /* \"#utility.yul\":7321:7323   */\n  0x1f\n    /* \"#utility.yul\":7316:7319   */\n  dup3\n    /* \"#utility.yul\":7313:7324   */\n  gt\n    /* \"#utility.yul\":7310:7756   */\n  iszero\n  tag_151\n  jumpi\n    /* \"#utility.yul\":7355:7393   */\n  tag_152\n    /* \"#utility.yul\":7387:7392   */\n  dup2\n    /* \"#utility.yul\":7355:7393   */\n  tag_43\n  jump\t// in\ntag_152:\n    /* \"#utility.yul\":7439:7468   */\n  tag_153\n    /* \"#utility.yul\":7457:7467   */\n  dup5\n    /* \"#utility.yul\":7439:7468   */\n  tag_44\n  jump\t// in\ntag_153:\n    /* \"#utility.yul\":7429:7437   */\n  dup2\n    /* \"#utility.yul\":7425:7469   */\n  add\n    /* \"#utility.yul\":7622:7624   */\n  0x20\n    /* \"#utility.yul\":7610:7620   */\n  dup6\n    /* \"#utility.yul\":7607:7625   */\n  lt\n    /* \"#utility.yul\":7604:7653   */\n  iszero\n  tag_154\n  jumpi\n    /* \"#utility.yul\":7643:7651   */\n  dup2\n    /* \"#utility.yul\":7628:7651   */\n  swap1\n  pop\n    /* \"#utility.yul\":7604:7653   */\ntag_154:\n    /* \"#utility.yul\":7666:7746   */\n  tag_155\n    /* \"#utility.yul\":7722:7744   */\n  tag_156\n    /* \"#utility.yul\":7740:7743   */\n  dup6\n    /* \"#utility.yul\":7722:7744   */\n  tag_44\n  jump\t// in\ntag_156:\n    /* \"#utility.yul\":7712:7720   */\n  dup4\n    /* \"#utility.yul\":7708:7745   */\n  add\n    /* \"#utility.yul\":7695:7706   */\n  dup3\n    /* \"#utility.yul\":7666:7746   */\n  tag_54\n  jump\t// in\ntag_155:\n    /* \"#utility.yul\":7325:7756   */\n  pop\n  pop\n    /* \"#utility.yul\":7310:7756   */\ntag_151:\n    /* \"#utility.yul\":7220:7763   */\n  pop\n  pop\n  pop\n  jump\t// out\n    /* \"#utility.yul\":7769:7886   */\ntag_56:\n    /* \"#utility.yul\":7823:7831   */\n  0x00\n    /* \"#utility.yul\":7873:7878   */\n  dup3\n    /* \"#utility.yul\":7867:7871   */\n  dup3\n    /* \"#utility.yul\":7863:7879   */\n  shr\n    /* \"#utility.yul\":7842:7879   */\n  swap1\n  pop\n    /* \"#utility.yul\":7769:7886   */\n  swap3\n  swap2\n  pop\n  pop\n  jump\t// out\n    /* \"#utility.yul\":7892:8061   */\ntag_57:\n    /* \"#utility.yul\":7936:7942   */\n  0x00\n    /* \"#utility.yul\":7969:8020   */\n  tag_159\n    /* \"#utility.yul\":8017:8018   */\n  0x00\n    /* \"#utility.yul\":8013:8019   */\n  not\n    /* \"#utility.yul\":8005:8010   */\n  dup5\n    /* \"#utility.yul\":8002:8003   */\n  0x08\n    /* \"#utility.yul\":7998:8011   */\n  mul\n    /* \"#utility.yul\":7969:8020   */\n  tag_56\n  jump\t// in\ntag_159:\n    /* \"#utility.yul\":7965:8021   */\n  not\n    /* \"#utility.yul\":8050:8054   */\n  dup1\n    /* \"#utility.yul\":8044:8048   */\n  dup4\n    /* \"#utility.yul\":8040:8055   */\n  and\n    /* \"#utility.yul\":8030:8055   */\n  swap2\n  pop\n    /* \"#utility.yul\":7943:8061   */\n  pop\n    /* \"#utility.yul\":7892:8061   */\n  swap3\n  swap2\n  pop\n  pop\n  jump\t// out\n    /* \"#utility.yul\":8066:8361   */\ntag_58:\n    /* \"#utility.yul\":8142:8146   */\n  0x00\n    /* \"#utility.yul\":8288:8317   */\n  tag_161\n    /* \"#utility.yul\":8313:8316   */\n  dup4\n    /* \"#utility.yul\":8307:8311   */\n  dup4\n    /* \"#utility.yul\":8288:8317   */\n  tag_57\n  jump\t// in\ntag_161:\n    /* \"#utility.yul\":8280:8317   */\n  swap2\n  pop\n    /* \"#utility.yul\":8350:8353   */\n  dup3\n    /* \"#utility.yul\":8347:8348   */\n  0x02\n    /* \"#utility.yul\":8343:8354   */\n  mul\n    /* \"#utility.yul\":8337:8341   */\n  dup3\n    /* \"#utility.yul\":8334:8355   */\n  or\n    /* \"#utility.yul\":8326:8355   */\n  swap1\n  pop\n    /* \"#utility.yul\":8066:8361   */\n  swap3\n  swap2\n  pop\n  pop\n  jump\t// out\n    /* \"#utility.yul\":8366:9761   */\ntag_9:\n    /* \"#utility.yul\":8483:8520   */\n  tag_163\n    /* \"#utility.yul\":8516:8519   */\n  dup3\n    /* \"#utility.yul\":8483:8520   */\n  tag_40\n  jump\t// in\ntag_163:\n    /* \"#utility.yul\":8585:8603   */\n  0xffffffffffffffff\n    /* \"#utility.yul\":8577:8583   */\n  dup2\n    /* \"#utility.yul\":8574:8604   */\n  gt\n    /* \"#utility.yul\":8571:8627   */\n  iszero\n  tag_164\n  jumpi\n    /* \"#utility.yul\":8607:8625   */\n  tag_165\n  tag_33\n  jump\t// in\ntag_165:\n    /* \"#utility.yul\":8571:8627   */\ntag_164:\n    /* \"#utility.yul\":8651:8689   */\n  tag_166\n    /* \"#utility.yul\":8683:8687   */\n  dup3\n    /* \"#utility.yul\":8677:8688   */\n  sload\n    /* \"#utility.yul\":8651:8689   */\n  tag_42\n  jump\t// in\ntag_166:\n    /* \"#utility.yul\":8736:8803   */\n  tag_167\n    /* \"#utility.yul\":8796:8802   */\n  dup3\n    /* \"#utility.yul\":8788:8794   */\n  dup3\n    /* \"#utility.yul\":8782:8786   */\n  dup6\n    /* \"#utility.yul\":8736:8803   */\n  tag_55\n  jump\t// in\ntag_167:\n    /* \"#utility.yul\":8830:8831   */\n  0x00\n    /* \"#utility.yul\":8854:8858   */\n  0x20\n    /* \"#utility.yul\":8841:8858   */\n  swap1\n  pop\n    /* \"#utility.yul\":8886:8888   */\n  0x1f\n    /* \"#utility.yul\":8878:8884   */\n  dup4\n    /* \"#utility.yul\":8875:8889   */\n  gt\n    /* \"#utility.yul\":8903:8904   */\n  0x01\n    /* \"#utility.yul\":8898:9516   */\n  dup2\n  eq\n  tag_169\n  jumpi\n    /* \"#utility.yul\":9560:9561   */\n  0x00\n    /* \"#utility.yul\":9577:9583   */\n  dup5\n    /* \"#utility.yul\":9574:9651   */\n  iszero\n  tag_170\n  jumpi\n    /* \"#utility.yul\":9626:9635   */\n  dup3\n    /* \"#utility.yul\":9621:9624   */\n  dup8\n    /* \"#utility.yul\":9617:9636   */\n  add\n    /* \"#utility.yul\":9611:9637   */\n  mload\n    /* \"#utility.yul\":9602:9637   */\n  swap1\n  pop\n    /* \"#utility.yul\":9574:9651   */\ntag_170:\n    /* \"#utility.yul\":9677:9744   */\n  tag_171\n    /* \"#utility.yul\":9737:9743   */\n  dup6\n    /* \"#utility.yul\":9730:9735   */\n  dup3\n    /* \"#utility.yul\":9677:9744   */\n  tag_58\n  jump\t// in\ntag_171:\n    /* \"#utility.yul\":9671:9675   */\n  dup7\n    /* \"#utility.yul\":9664:9745   */\n  sstore\n    /* \"#utility.yul\":9533:9755   */\n  pop\n    /* \"#utility.yul\":8868:9755   */\n  jump(tag_168)\n    /* \"#utility.yul\":8898:9516   */\ntag_169:\n    /* \"#utility.yul\":8950:8954   */\n  0x1f\n    /* \"#utility.yul\":8946:8955   */\n  not\n    /* \"#utility.yul\":8938:8944   */\n  dup5\n    /* \"#utility.yul\":8934:8956   */\n  and\n    /* \"#utility.yul\":8984:9021   */\n  tag_172\n    /* \"#utility.yul\":9016:9020   */\n  dup7\n    /* \"#utility.yul\":8984:9021   */\n  tag_43\n  jump\t// in\ntag_172:\n    /* \"#utility.yul\":9043:9044   */\n  0x00\n    /* \"#utility.yul\":9057:9265   */\ntag_173:\n    /* \"#utility.yul\":9071:9078   */\n  dup3\n    /* \"#utility.yul\":9068:9069   */\n  dup2\n    /* \"#utility.yul\":9065:9079   */\n  lt\n    /* \"#utility.yul\":9057:9265   */\n  iszero\n  tag_175\n  jumpi\n    /* \"#utility.yul\":9150:9159   */\n  dup5\n    /* \"#utility.yul\":9145:9148   */\n  dup10\n    /* \"#utility.yul\":9141:9160   */\n  add\n    /* \"#utility.yul\":9135:9161   */\n  mload\n    /* \"#utility.yul\":9127:9133   */\n  dup3\n    /* \"#utility.yul\":9120:9162   */\n  sstore\n    /* \"#utility.yul\":9201:9202   */\n  0x01\n    /* \"#utility.yul\":9193:9199   */\n  dup3\n    /* \"#utility.yul\":9189:9203   */\n  add\n    /* \"#utility.yul\":9179:9203   */\n  swap2\n  pop\n    /* \"#utility.yul\":9248:9250   */\n  0x20\n    /* \"#utility.yul\":9237:9246   */\n  dup6\n    /* \"#utility.yul\":9233:9251   */\n  add\n    /* \"#utility.yul\":9220:9251   */\n  swap5\n  pop\n    /* \"#utility.yul\":9094:9098   */\n  0x20\n    /* \"#utility.yul\":9091:9092   */\n  dup2\n    /* \"#utility.yul\":9087:9099   */\n  add\n    /* \"#utility.yul\":9082:9099   */\n  swap1\n  pop\n    /* \"#utility.yul\":9057:9265   */\n  jump(tag_173)\ntag_175:\n    /* \"#utility.yul\":9293:9299   */\n  dup7\n    /* \"#utility.yul\":9284:9291   */\n  dup4\n    /* \"#utility.yul\":9281:9300   */\n  lt\n    /* \"#utility.yul\":9278:9457   */\n  iszero\n  tag_176\n  jumpi\n    /* \"#utility.yul\":9351:9360   */\n  dup5\n    /* \"#utility.yul\":9346:9349   */\n  dup10\n    /* \"#utility.yul\":9342:9361   */\n  add\n    /* \"#utility.yul\":9336:9362   */\n  mload\n    /* \"#utility.yul\":9394:9442   */\n  tag_177\n    /* \"#utility.yul\":9436:9440   */\n  0x1f\n    /* \"#utility.yul\":9428:9434   */\n  dup10\n    /* \"#utility.yul\":9424:9441   */\n  and\n    /* \"#utility.yul\":9413:9422   */\n  dup3\n    /* \"#utility.yul\":9394:9442   */\n  tag_57\n  jump\t// in\ntag_177:\n    /* \"#utility.yul\":9386:9392   */\n  dup4\n    /* \"#utility.yul\":9379:9443   */\n  sstore\n    /* \"#utility.yul\":9301:9457   */\n  pop\n    /* \"#utility.yul\":9278:9457   */\ntag_176:\n    /* \"#utility.yul\":9503:9504   */\n  0x01\n    /* \"#utility.yul\":9499:9500   */\n  0x02\n    /* \"#utility.yul\":9491:9497   */\n  dup9\n    /* \"#utility.yul\":9487:9501   */\n  mul\n    /* \"#utility.yul\":9483:9505   */\n  add\n    /* \"#utility.yul\":9477:9481   */\n  dup9\n    /* \"#utility.yul\":9470:9506   */\n  sstore\n    /* \"#utility.yul\":8905:9516   */\n  pop\n  pop\n  pop\n    /* \"#utility.yul\":8868:9755   */\ntag_168:\n  pop\n    /* \"#utility.yul\":8458:9761   */\n  pop\n  pop\n  pop\n    /* \"#utility.yul\":8366:9761   */\n  pop\n  pop\n  jump\t// out\n    /* \"#utility.yul\":9767:9885   */\ntag_59:\n    /* \"#utility.yul\":9854:9878   */\n  tag_179\n    /* \"#utility.yul\":9872:9877   */\n  dup2\n    /* \"#utility.yul\":9854:9878   */\n  tag_27\n  jump\t// in\ntag_179:\n    /* \"#utility.yul\":9849:9852   */\n  dup3\n    /* \"#utility.yul\":9842:9879   */\n  mstore\n    /* \"#utility.yul\":9767:9885   */\n  pop\n  pop\n  jump\t// out\n    /* \"#utility.yul\":9891:10113   */\ntag_14:\n    /* \"#utility.yul\":9984:9988   */\n  0x00\n    /* \"#utility.yul\":10022:10024   */\n  0x20\n    /* \"#utility.yul\":10011:10020   */\n  dup3\n    /* \"#utility.yul\":10007:10025   */\n  add\n    /* \"#utility.yul\":9999:10025   */\n  swap1\n  pop\n    /* \"#utility.yul\":10035:10106   */\n  tag_181\n    /* \"#utility.yul\":10103:10104   */\n  0x00\n    /* \"#utility.yul\":10092:10101   */\n  dup4\n    /* \"#utility.yul\":10088:10105   */\n  add\n    /* \"#utility.yul\":10079:10085   */\n  dup5\n    /* \"#utility.yul\":10035:10106   */\n  tag_59\n  jump\t// in\ntag_181:\n    /* \"#utility.yul\":9891:10113   */\n  swap3\n  swap2\n  pop\n  pop\n  jump\t// out\n    /* \"AUCA.sol\":407:8163  contract WrappedAUC is ERC20, Ownable, ILayerZeroReceiver {... */\ntag_18:\n  mload(0x80)\n  codecopy(0x00, dataOffset(sub_0), dataSize(sub_0))\n  0x00\n  assignImmutable(\"0x705a6ef83029e2c8cd72d6aefd2a2bbc4a5113a33398eeb61dd1988b11595ae5\")\n  return(0x00, dataSize(sub_0))\nstop\n\nsub_0: assembly {\n        /* \"AUCA.sol\":407:8163  contract WrappedAUC is ERC20, Ownable, ILayerZeroReceiver {... */\n      mstore(0x40, 0x80)\n      jumpi(tag_1, lt(calldatasize, 0x04))\n      shr(0xe0, calldataload(0x00))\n      dup1\n      0x8da5cb5b\n      gt\n      tag_30\n      jumpi\n      dup1\n      0xcbed8b9c\n      gt\n      tag_31\n      jumpi\n      dup1\n      0xe38c6802\n      gt\n      tag_32\n      jumpi\n      dup1\n      0xe38c6802\n      eq\n      tag_26\n      jumpi\n      dup1\n      0xe776ac5e\n      eq\n      tag_27\n      jumpi\n      dup1\n      0xeb8d72b7\n      eq\n      tag_28\n      jumpi\n      dup1\n      0xf2fde38b\n      eq\n      tag_29\n      jumpi\n      jump(tag_1)\n    tag_32:\n      dup1\n      0xcbed8b9c\n      eq\n      tag_23\n      jumpi\n      dup1\n      0xd26ed3e3\n      eq\n      tag_24\n      jumpi\n      dup1\n      0xdd62ed3e\n      eq\n      tag_25\n      jumpi\n      jump(tag_1)\n    tag_31:\n      dup1\n      0x95d89b41\n      gt\n      tag_33\n      jumpi\n      dup1\n      0x95d89b41\n      eq\n      tag_19\n      jumpi\n      dup1\n      0xa7170d48\n      eq\n      tag_20\n      jumpi\n      dup1\n      0xa9059cbb\n      eq\n      tag_21\n      jumpi\n      dup1\n      0xac447944\n      eq\n      tag_22\n      jumpi\n      jump(tag_1)\n    tag_33:\n      dup1\n      0x8da5cb5b\n      eq\n      tag_16\n      jumpi\n      dup1\n      0x935ec990\n      eq\n      tag_17\n      jumpi\n      dup1\n      0x94544e64\n      eq\n      tag_18\n      jumpi\n      jump(tag_1)\n    tag_30:\n      dup1\n      0x313ce567\n      gt\n      tag_34\n      jumpi\n      dup1\n      0x6f0e7470\n      gt\n      tag_35\n      jumpi\n      dup1\n      0x6f0e7470\n      eq\n      tag_12\n      jumpi\n      dup1\n      0x70a08231\n      eq\n      tag_13\n      jumpi\n      dup1\n      0x715018a6\n      eq\n      tag_14\n      jumpi\n      dup1\n      0x74f079b8\n      eq\n      tag_15\n      jumpi\n      jump(tag_1)\n    tag_35:\n      dup1\n      0x313ce567\n      eq\n      tag_9\n      jumpi\n      dup1\n      0x42d65a8d\n      eq\n      tag_10\n      jumpi\n      dup1\n      0x5e280f11\n      eq\n      tag_11\n      jumpi\n      jump(tag_1)\n    tag_34:\n      dup1\n      0x095ea7b3\n      gt\n      tag_36\n      jumpi\n      dup1\n      0x095ea7b3\n      eq\n      tag_5\n      jumpi\n      dup1\n      0x10ddb137\n      eq\n      tag_6\n      jumpi\n      dup1\n      0x18160ddd\n      eq\n      tag_7\n      jumpi\n      dup1\n      0x23b872dd\n      eq\n      tag_8\n      jumpi\n      jump(tag_1)\n    tag_36:\n      dup1\n      0x1d3567\n      eq\n      tag_2\n      jumpi\n      dup1\n      0x06fdde03\n      eq\n      tag_3\n      jumpi\n      dup1\n      0x07e0db17\n      eq\n      tag_4\n      jumpi\n    tag_1:\n      0x00\n      dup1\n      revert\n        /* \"AUCA.sol\":7397:8161  function lzReceive(uint16 _srcChainId, bytes calldata _srcAddress, uint64 _nonce, bytes calldata _payload)... */\n    tag_2:\n      callvalue\n      dup1\n      iszero\n      tag_37\n      jumpi\n      0x00\n      dup1\n      revert\n    tag_37:\n      pop\n      tag_38\n      0x04\n      dup1\n      calldatasize\n      sub\n      dup2\n      add\n      swap1\n      tag_39\n      swap2\n      swap1\n      tag_40\n      jump\t// in\n    tag_39:\n      tag_41\n      jump\t// in\n    tag_38:\n      stop\n        /* \"@openzeppelin/contracts/token/ERC20/ERC20.sol\":2074:2163  function name() public view virtual returns (string memory) {... */\n    tag_3:\n      callvalue\n      dup1\n      iszero\n      tag_42\n      jumpi\n      0x00\n      dup1\n      revert\n    tag_42:\n      pop\n      tag_43\n      tag_44\n      jump\t// in\n    tag_43:\n      mload(0x40)\n      tag_45\n      swap2\n      swap1\n      tag_46\n      jump\t// in\n    tag_45:\n      mload(0x40)\n      dup1\n      swap2\n      sub\n      swap1\n      return\n        /* \"AUCA.sol\":5904:6014  function setSendVersion(uint16 _version) external onlyOwner {... */\n    tag_4:\n      callvalue\n      dup1\n      iszero\n      tag_47\n      jumpi\n      0x00\n      dup1\n      revert\n    tag_47:\n      pop\n      tag_48\n      0x04\n      dup1\n      calldatasize\n      sub\n      dup2\n      add\n      swap1\n      tag_49\n      swap2\n      swap1\n      tag_50\n      jump\t// in\n    tag_49:\n      tag_51\n      jump\t// in\n    tag_48:\n      stop\n        /* \"@openzeppelin/contracts/token/ERC20/ERC20.sol\":4293:4479  function approve(address spender, uint256 value) public virtual returns (bool) {... */\n    tag_5:\n      callvalue\n      dup1\n      iszero\n      tag_52\n      jumpi\n      0x00\n      dup1\n      revert\n    tag_52:\n      pop\n      tag_53\n      0x04\n      dup1\n      calldatasize\n      sub\n      dup2\n      add\n      swap1\n      tag_54\n      swap2\n      swap1\n      tag_55\n      jump\t// in\n    tag_54:\n      tag_56\n      jump\t// in\n    tag_53:\n      mload(0x40)\n      tag_57\n      swap2\n      swap1\n      tag_58\n      jump\t// in\n    tag_57:\n      mload(0x40)\n      dup1\n      swap2\n      sub\n      swap1\n      return\n        /* \"AUCA.sol\":6020:6136  function setReceiveVersion(uint16 _version) external onlyOwner {... */\n    tag_6:\n      callvalue\n      dup1\n      iszero\n      tag_59\n      jumpi\n      0x00\n      dup1\n      revert\n    tag_59:\n      pop\n      tag_60\n      0x04\n      dup1\n      calldatasize\n      sub\n      dup2\n      add\n      swap1\n      tag_61\n      swap2\n      swap1\n      tag_50\n      jump\t// in\n    tag_61:\n      tag_62\n      jump\t// in\n    tag_60:\n      stop\n        /* \"@openzeppelin/contracts/token/ERC20/ERC20.sol\":3144:3241  function totalSupply() public view virtual returns (uint256) {... */\n    tag_7:\n      callvalue\n      dup1\n      iszero\n      tag_63\n      jumpi\n      0x00\n      dup1\n      revert\n    tag_63:\n      pop\n      tag_64\n      tag_65\n      jump\t// in\n    tag_64:\n      mload(0x40)\n      tag_66\n      swap2\n      swap1\n      tag_67\n      jump\t// in\n    tag_66:\n      mload(0x40)\n      dup1\n      swap2\n      sub\n      swap1\n      return\n        /* \"@openzeppelin/contracts/token/ERC20/ERC20.sol\":5039:5283  function transferFrom(address from, address to, uint256 value) public virtual returns (bool) {... */\n    tag_8:\n      callvalue\n      dup1\n      iszero\n      tag_68\n      jumpi\n      0x00\n      dup1\n      revert\n    tag_68:\n      pop\n      tag_69\n      0x04\n      dup1\n      calldatasize\n      sub\n      dup2\n      add\n      swap1\n      tag_70\n      swap2\n      swap1\n      tag_71\n      jump\t// in\n    tag_70:\n      tag_72\n      jump\t// in\n    tag_69:\n      mload(0x40)\n      tag_73\n      swap2\n      swap1\n      tag_58\n      jump\t// in\n    tag_73:\n      mload(0x40)\n      dup1\n      swap2\n      sub\n      swap1\n      return\n        /* \"@openzeppelin/contracts/token/ERC20/ERC20.sol\":3002:3084  function decimals() public view virtual returns (uint8) {... */\n    tag_9:\n      callvalue\n      dup1\n      iszero\n      tag_74\n      jumpi\n      0x00\n      dup1\n      revert\n    tag_74:\n      pop\n      tag_75\n      tag_76\n      jump\t// in\n    tag_75:\n      mload(0x40)\n      tag_77\n      swap2\n      swap1\n      tag_78\n      jump\t// in\n    tag_77:\n      mload(0x40)\n      dup1\n      swap2\n      sub\n      swap1\n      return\n        /* \"AUCA.sol\":6142:6307  function forceResumeReceive(uint16 _srcChainId, bytes calldata _srcAddress) external onlyOwner {... */\n    tag_10:\n      callvalue\n      dup1\n      iszero\n      tag_79\n      jumpi\n      0x00\n      dup1\n      revert\n    tag_79:\n      pop\n      tag_80\n      0x04\n      dup1\n      calldatasize\n      sub\n      dup2\n      add\n      swap1\n      tag_81\n      swap2\n      swap1\n      tag_82\n      jump\t// in\n    tag_81:\n      tag_83\n      jump\t// in\n    tag_80:\n      stop\n        /* \"AUCA.sol\":760:794  ILayerZeroEndpoint public endpoint */\n    tag_11:\n      callvalue\n      dup1\n      iszero\n      tag_84\n      jumpi\n      0x00\n      dup1\n      revert\n    tag_84:\n      pop\n      tag_85\n      tag_86\n      jump\t// in\n    tag_85:\n      mload(0x40)\n      tag_87\n      swap2\n      swap1\n      tag_88\n      jump\t// in\n    tag_87:\n      mload(0x40)\n      dup1\n      swap2\n      sub\n      swap1\n      return\n        /* \"AUCA.sol\":3245:4280  function xChainTransfer(address _receiver, uint256 _amount, uint16 _dstChainId, bytes memory _adapterParams)... */\n    tag_12:\n      tag_89\n      0x04\n      dup1\n      calldatasize\n      sub\n      dup2\n      add\n      swap1\n      tag_90\n      swap2\n      swap1\n      tag_91\n      jump\t// in\n    tag_90:\n      tag_92\n      jump\t// in\n    tag_89:\n      stop\n        /* \"@openzeppelin/contracts/token/ERC20/ERC20.sol\":3299:3415  function balanceOf(address account) public view virtual returns (uint256) {... */\n    tag_13:\n      callvalue\n      dup1\n      iszero\n      tag_93\n      jumpi\n      0x00\n      dup1\n      revert\n    tag_93:\n      pop\n      tag_94\n      0x04\n      dup1\n      calldatasize\n      sub\n      dup2\n      add\n      swap1\n      tag_95\n      swap2\n      swap1\n      tag_96\n      jump\t// in\n    tag_95:\n      tag_97\n      jump\t// in\n    tag_94:\n      mload(0x40)\n      tag_98\n      swap2\n      swap1\n      tag_67\n      jump\t// in\n    tag_98:\n      mload(0x40)\n      dup1\n      swap2\n      sub\n      swap1\n      return\n        /* \"@openzeppelin/contracts/access/Ownable.sol\":2293:2394  function renounceOwnership() public virtual onlyOwner {... */\n    tag_14:\n      callvalue\n      dup1\n      iszero\n      tag_99\n      jumpi\n      0x00\n      dup1\n      revert\n    tag_99:\n      pop\n      tag_100\n      tag_101\n      jump\t// in\n    tag_100:\n      stop\n        /* \"AUCA.sol\":929:953  uint256 public txCounter */\n    tag_15:\n      callvalue\n      dup1\n      iszero\n      tag_102\n      jumpi\n      0x00\n      dup1\n      revert\n    tag_102:\n      pop\n      tag_103\n      tag_104\n      jump\t// in\n    tag_103:\n      mload(0x40)\n      tag_105\n      swap2\n      swap1\n      tag_67\n      jump\t// in\n    tag_105:\n      mload(0x40)\n      dup1\n      swap2\n      sub\n      swap1\n      return\n        /* \"@openzeppelin/contracts/access/Ownable.sol\":1638:1723  function owner() public view virtual returns (address) {... */\n    tag_16:\n      callvalue\n      dup1\n      iszero\n      tag_106\n      jumpi\n      0x00\n      dup1\n      revert\n    tag_106:\n      pop\n      tag_107\n      tag_108\n      jump\t// in\n    tag_107:\n      mload(0x40)\n      tag_109\n      swap2\n      swap1\n      tag_110\n      jump\t// in\n    tag_109:\n      mload(0x40)\n      dup1\n      swap2\n      sub\n      swap1\n      return\n        /* \"AUCA.sol\":654:689  uint16 public immutable LZ_CHAIN_ID */\n    tag_17:\n      callvalue\n      dup1\n      iszero\n      tag_111\n      jumpi\n      0x00\n      dup1\n      revert\n    tag_111:\n      pop\n      tag_112\n      tag_113\n      jump\t// in\n    tag_112:\n      mload(0x40)\n      tag_114\n      swap2\n      swap1\n      tag_115\n      jump\t// in\n    tag_114:\n      mload(0x40)\n      dup1\n      swap2\n      sub\n      swap1\n      return\n        /* \"AUCA.sol\":1147:1185  uint256 public transferFeePercent = 50 */\n    tag_18:\n      callvalue\n      dup1\n      iszero\n      tag_116\n      jumpi\n      0x00\n      dup1\n      revert\n    tag_116:\n      pop\n      tag_117\n      tag_118\n      jump\t// in\n    tag_117:\n      mload(0x40)\n      tag_119\n      swap2\n      swap1\n      tag_67\n      jump\t// in\n    tag_119:\n      mload(0x40)\n      dup1\n      swap2\n      sub\n      swap1\n      return\n        /* \"@openzeppelin/contracts/token/ERC20/ERC20.sol\":2276:2369  function symbol() public view virtual returns (string memory) {... */\n    tag_19:\n      callvalue\n      dup1\n      iszero\n      tag_120\n      jumpi\n      0x00\n      dup1\n      revert\n    tag_120:\n      pop\n      tag_121\n      tag_122\n      jump\t// in\n    tag_121:\n      mload(0x40)\n      tag_123\n      swap2\n      swap1\n      tag_46\n      jump\t// in\n    tag_123:\n      mload(0x40)\n      dup1\n      swap2\n      sub\n      swap1\n      return\n        /* \"AUCA.sol\":4599:4831  function updateEndpoint(address _newEndpoint) external onlyOwner {... */\n    tag_20:\n      callvalue\n      dup1\n      iszero\n      tag_124\n      jumpi\n      0x00\n      dup1\n      revert\n    tag_124:\n      pop\n      tag_125\n      0x04\n      dup1\n      calldatasize\n      sub\n      dup2\n      add\n      swap1\n      tag_126\n      swap2\n      swap1\n      tag_96\n      jump\t// in\n    tag_126:\n      tag_127\n      jump\t// in\n    tag_125:\n      stop\n        /* \"@openzeppelin/contracts/token/ERC20/ERC20.sol\":3610:3788  function transfer(address to, uint256 value) public virtual returns (bool) {... */\n    tag_21:\n      callvalue\n      dup1\n      iszero\n      tag_128\n      jumpi\n      0x00\n      dup1\n      revert\n    tag_128:\n      pop\n      tag_129\n      0x04\n      dup1\n      calldatasize\n      sub\n      dup2\n      add\n      swap1\n      tag_130\n      swap2\n      swap1\n      tag_55\n      jump\t// in\n    tag_130:\n      tag_131\n      jump\t// in\n    tag_129:\n      mload(0x40)\n      tag_132\n      swap2\n      swap1\n      tag_58\n      jump\t// in\n    tag_132:\n      mload(0x40)\n      dup1\n      swap2\n      sub\n      swap1\n      return\n        /* \"AUCA.sol\":837:882  mapping(uint16 => bytes) public trustedRemote */\n    tag_22:\n      callvalue\n      dup1\n      iszero\n      tag_133\n      jumpi\n      0x00\n      dup1\n      revert\n    tag_133:\n      pop\n      tag_134\n      0x04\n      dup1\n      calldatasize\n      sub\n      dup2\n      add\n      swap1\n      tag_135\n      swap2\n      swap1\n      tag_50\n      jump\t// in\n    tag_135:\n      tag_136\n      jump\t// in\n    tag_134:\n      mload(0x40)\n      tag_137\n      swap2\n      swap1\n      tag_138\n      jump\t// in\n    tag_137:\n      mload(0x40)\n      dup1\n      swap2\n      sub\n      swap1\n      return\n        /* \"AUCA.sol\":5684:5898  function setConfig(uint16 _version, uint16 _chainId, uint256 _configType, bytes calldata _config)... */\n    tag_23:\n      callvalue\n      dup1\n      iszero\n      tag_139\n      jumpi\n      0x00\n      dup1\n      revert\n    tag_139:\n      pop\n      tag_140\n      0x04\n      dup1\n      calldatasize\n      sub\n      dup2\n      add\n      swap1\n      tag_141\n      swap2\n      swap1\n      tag_142\n      jump\t// in\n    tag_141:\n      tag_143\n      jump\t// in\n    tag_140:\n      stop\n        /* \"AUCA.sol\":5379:5619  function setTransferFees(uint256 _transferFeePercent) external onlyOwner {... */\n    tag_24:\n      callvalue\n      dup1\n      iszero\n      tag_144\n      jumpi\n      0x00\n      dup1\n      revert\n    tag_144:\n      pop\n      tag_145\n      0x04\n      dup1\n      calldatasize\n      sub\n      dup2\n      add\n      swap1\n      tag_146\n      swap2\n      swap1\n      tag_147\n      jump\t// in\n    tag_146:\n      tag_148\n      jump\t// in\n    tag_145:\n      stop\n        /* \"@openzeppelin/contracts/token/ERC20/ERC20.sol\":3846:3986  function allowance(address owner, address spender) public view virtual returns (uint256) {... */\n    tag_25:\n      callvalue\n      dup1\n      iszero\n      tag_149\n      jumpi\n      0x00\n      dup1\n      revert\n    tag_149:\n      pop\n      tag_150\n      0x04\n      dup1\n      calldatasize\n      sub\n      dup2\n      add\n      swap1\n      tag_151\n      swap2\n      swap1\n      tag_152\n      jump\t// in\n    tag_151:\n      tag_153\n      jump\t// in\n    tag_150:\n      mload(0x40)\n      tag_154\n      swap2\n      swap1\n      tag_67\n      jump\t// in\n    tag_154:\n      mload(0x40)\n      dup1\n      swap2\n      sub\n      swap1\n      return\n        /* \"AUCA.sol\":1027:1106  mapping(bytes => mapping(uint16 => mapping(uint64 => bool))) public nonceStatus */\n    tag_26:\n      callvalue\n      dup1\n      iszero\n      tag_155\n      jumpi\n      0x00\n      dup1\n      revert\n    tag_155:\n      pop\n      tag_156\n      0x04\n      dup1\n      calldatasize\n      sub\n      dup2\n      add\n      swap1\n      tag_157\n      swap2\n      swap1\n      tag_158\n      jump\t// in\n    tag_157:\n      tag_159\n      jump\t// in\n    tag_156:\n      mload(0x40)\n      tag_160\n      swap2\n      swap1\n      tag_58\n      jump\t// in\n    tag_160:\n      mload(0x40)\n      dup1\n      swap2\n      sub\n      swap1\n      return\n        /* \"AUCA.sol\":6500:6878  function estimateFees(address _receiver, uint256 _amount, uint16 _dstChainId, bytes memory _adapterParams)... */\n    tag_27:\n      callvalue\n      dup1\n      iszero\n      tag_161\n      jumpi\n      0x00\n      dup1\n      revert\n    tag_161:\n      pop\n      tag_162\n      0x04\n      dup1\n      calldatasize\n      sub\n      dup2\n      add\n      swap1\n      tag_163\n      swap2\n      swap1\n      tag_91\n      jump\t// in\n    tag_163:\n      tag_164\n      jump\t// in\n    tag_162:\n      mload(0x40)\n      tag_165\n      swap2\n      swap1\n      tag_67\n      jump\t// in\n    tag_165:\n      mload(0x40)\n      dup1\n      swap2\n      sub\n      swap1\n      return\n        /* \"AUCA.sol\":5021:5240  function setTrustedRemote(uint16 _dstChainId, bytes memory _trustedRemote) external onlyOwner {... */\n    tag_28:\n      callvalue\n      dup1\n      iszero\n      tag_166\n      jumpi\n      0x00\n      dup1\n      revert\n    tag_166:\n      pop\n      tag_167\n      0x04\n      dup1\n      calldatasize\n      sub\n      dup2\n      add\n      swap1\n      tag_168\n      swap2\n      swap1\n      tag_169\n      jump\t// in\n    tag_168:\n      tag_170\n      jump\t// in\n    tag_167:\n      stop\n        /* \"@openzeppelin/contracts/access/Ownable.sol\":2543:2758  function transferOwnership(address newOwner) public virtual onlyOwner {... */\n    tag_29:\n      callvalue\n      dup1\n      iszero\n      tag_171\n      jumpi\n      0x00\n      dup1\n      revert\n    tag_171:\n      pop\n      tag_172\n      0x04\n      dup1\n      calldatasize\n      sub\n      dup2\n      add\n      swap1\n      tag_173\n      swap2\n      swap1\n      tag_96\n      jump\t// in\n    tag_173:\n      tag_174\n      jump\t// in\n    tag_172:\n      stop\n        /* \"AUCA.sol\":7397:8161  function lzReceive(uint16 _srcChainId, bytes calldata _srcAddress, uint64 _nonce, bytes calldata _payload)... */\n    tag_41:\n        /* \"AUCA.sol\":1436:1444  endpoint */\n      0x06\n      0x00\n      swap1\n      sload\n      swap1\n      0x0100\n      exp\n      swap1\n      div\n      0xffffffffffffffffffffffffffffffffffffffff\n      and\n        /* \"AUCA.sol\":1414:1445  msg.sender == address(endpoint) */\n      0xffffffffffffffffffffffffffffffffffffffff\n      and\n        /* \"AUCA.sol\":1414:1424  msg.sender */\n      caller\n        /* \"AUCA.sol\":1414:1445  msg.sender == address(endpoint) */\n      0xffffffffffffffffffffffffffffffffffffffff\n      and\n      eq\n        /* \"AUCA.sol\":1406:1477  require(msg.sender == address(endpoint), \"wrapper/caller-not-endpoint\") */\n      tag_176\n      jumpi\n      mload(0x40)\n      0x08c379a000000000000000000000000000000000000000000000000000000000\n      dup2\n      mstore\n      0x04\n      add\n      tag_177\n      swap1\n      tag_178\n      jump\t// in\n    tag_177:\n      mload(0x40)\n      dup1\n      swap2\n      sub\n      swap1\n      revert\n    tag_176:\n        /* \"AUCA.sol\":7586:7599  trustedRemote */\n      0x07\n        /* \"AUCA.sol\":7586:7612  trustedRemote[_srcChainId] */\n      0x00\n        /* \"AUCA.sol\":7600:7611  _srcChainId */\n      dup8\n        /* \"AUCA.sol\":7586:7612  trustedRemote[_srcChainId] */\n      0xffff\n      and\n      0xffff\n      and\n      dup2\n      mstore\n      0x20\n      add\n      swap1\n      dup2\n      mstore\n      0x20\n      add\n      0x00\n      keccak256\n        /* \"AUCA.sol\":7586:7619  trustedRemote[_srcChainId].length */\n      dup1\n      sload\n      tag_180\n      swap1\n      tag_181\n      jump\t// in\n    tag_180:\n      swap1\n      pop\n        /* \"AUCA.sol\":7564:7575  _srcAddress */\n      dup6\n      dup6\n        /* \"AUCA.sol\":7564:7582  _srcAddress.length */\n      swap1\n      pop\n        /* \"AUCA.sol\":7564:7619  _srcAddress.length == trustedRemote[_srcChainId].length */\n      eq\n        /* \"AUCA.sol\":7556:7657  require(_srcAddress.length == trustedRemote[_srcChainId].length, \"wrapper/invalid-src-sender-length\") */\n      tag_182\n      jumpi\n      mload(0x40)\n      0x08c379a000000000000000000000000000000000000000000000000000000000\n      dup2\n      mstore\n      0x04\n      add\n      tag_183\n      swap1\n      tag_184\n      jump\t// in\n    tag_183:\n      mload(0x40)\n      dup1\n      swap2\n      sub\n      swap1\n      revert\n    tag_182:\n        /* \"AUCA.sol\":7711:7724  trustedRemote */\n      0x07\n        /* \"AUCA.sol\":7711:7737  trustedRemote[_srcChainId] */\n      0x00\n        /* \"AUCA.sol\":7725:7736  _srcChainId */\n      dup8\n        /* \"AUCA.sol\":7711:7737  trustedRemote[_srcChainId] */\n      0xffff\n      and\n      0xffff\n      and\n      dup2\n      mstore\n      0x20\n      add\n      swap1\n      dup2\n      mstore\n      0x20\n      add\n      0x00\n      keccak256\n        /* \"AUCA.sol\":7701:7738  keccak256(trustedRemote[_srcChainId]) */\n      mload(0x40)\n      tag_185\n      swap2\n      swap1\n      tag_186\n      jump\t// in\n    tag_185:\n      mload(0x40)\n      dup1\n      swap2\n      sub\n      swap1\n      keccak256\n        /* \"AUCA.sol\":7685:7696  _srcAddress */\n      dup6\n      dup6\n        /* \"AUCA.sol\":7675:7697  keccak256(_srcAddress) */\n      mload(0x40)\n      tag_187\n      swap3\n      swap2\n      swap1\n      tag_188\n      jump\t// in\n    tag_187:\n      mload(0x40)\n      dup1\n      swap2\n      sub\n      swap1\n      keccak256\n        /* \"AUCA.sol\":7675:7738  keccak256(_srcAddress) == keccak256(trustedRemote[_srcChainId]) */\n      eq\n        /* \"AUCA.sol\":7667:7769  require(keccak256(_srcAddress) == keccak256(trustedRemote[_srcChainId]), \"wrapper/invalid-src-sender\") */\n      tag_189\n      jumpi\n      mload(0x40)\n      0x08c379a000000000000000000000000000000000000000000000000000000000\n      dup2\n      mstore\n      0x04\n      add\n      tag_190\n      swap1\n      tag_191\n      jump\t// in\n    tag_190:\n      mload(0x40)\n      dup1\n      swap2\n      sub\n      swap1\n      revert\n    tag_189:\n        /* \"AUCA.sol\":7788:7799  nonceStatus */\n      0x09\n        /* \"AUCA.sol\":7800:7811  _srcAddress */\n      dup6\n      dup6\n        /* \"AUCA.sol\":7788:7812  nonceStatus[_srcAddress] */\n      mload(0x40)\n      tag_192\n      swap3\n      swap2\n      swap1\n      tag_188\n      jump\t// in\n    tag_192:\n      swap1\n      dup2\n      mstore\n      0x20\n      add\n      mload(0x40)\n      dup1\n      swap2\n      sub\n      swap1\n      keccak256\n        /* \"AUCA.sol\":7788:7825  nonceStatus[_srcAddress][_srcChainId] */\n      0x00\n        /* \"AUCA.sol\":7813:7824  _srcChainId */\n      dup8\n        /* \"AUCA.sol\":7788:7825  nonceStatus[_srcAddress][_srcChainId] */\n      0xffff\n      and\n      0xffff\n      and\n      dup2\n      mstore\n      0x20\n      add\n      swap1\n      dup2\n      mstore\n      0x20\n      add\n      0x00\n      keccak256\n        /* \"AUCA.sol\":7788:7833  nonceStatus[_srcAddress][_srcChainId][_nonce] */\n      0x00\n        /* \"AUCA.sol\":7826:7832  _nonce */\n      dup5\n        /* \"AUCA.sol\":7788:7833  nonceStatus[_srcAddress][_srcChainId][_nonce] */\n      0xffffffffffffffff\n      and\n      0xffffffffffffffff\n      and\n      dup2\n      mstore\n      0x20\n      add\n      swap1\n      dup2\n      mstore\n      0x20\n      add\n      0x00\n      keccak256\n      0x00\n      swap1\n      sload\n      swap1\n      0x0100\n      exp\n      swap1\n      div\n      0xff\n      and\n        /* \"AUCA.sol\":7787:7833  !nonceStatus[_srcAddress][_srcChainId][_nonce] */\n      iszero\n        /* \"AUCA.sol\":7779:7859  require(!nonceStatus[_srcAddress][_srcChainId][_nonce], \"wrapper/invalid-nonce\") */\n      tag_193\n      jumpi\n      mload(0x40)\n      0x08c379a000000000000000000000000000000000000000000000000000000000\n      dup2\n      mstore\n      0x04\n      add\n      tag_194\n      swap1\n      tag_195\n      jump\t// in\n    tag_194:\n      mload(0x40)\n      dup1\n      swap2\n      sub\n      swap1\n      revert\n    tag_193:\n        /* \"AUCA.sol\":7918:7922  true */\n      0x01\n        /* \"AUCA.sol\":7870:7881  nonceStatus */\n      0x09\n        /* \"AUCA.sol\":7882:7893  _srcAddress */\n      dup7\n      dup7\n        /* \"AUCA.sol\":7870:7894  nonceStatus[_srcAddress] */\n      mload(0x40)\n      tag_196\n      swap3\n      swap2\n      swap1\n      tag_188\n      jump\t// in\n    tag_196:\n      swap1\n      dup2\n      mstore\n      0x20\n      add\n      mload(0x40)\n      dup1\n      swap2\n      sub\n      swap1\n      keccak256\n        /* \"AUCA.sol\":7870:7907  nonceStatus[_srcAddress][_srcChainId] */\n      0x00\n        /* \"AUCA.sol\":7895:7906  _srcChainId */\n      dup9\n        /* \"AUCA.sol\":7870:7907  nonceStatus[_srcAddress][_srcChainId] */\n      0xffff\n      and\n      0xffff\n      and\n      dup2\n      mstore\n      0x20\n      add\n      swap1\n      dup2\n      mstore\n      0x20\n      add\n      0x00\n      keccak256\n        /* \"AUCA.sol\":7870:7915  nonceStatus[_srcAddress][_srcChainId][_nonce] */\n      0x00\n        /* \"AUCA.sol\":7908:7914  _nonce */\n      dup6\n        /* \"AUCA.sol\":7870:7915  nonceStatus[_srcAddress][_srcChainId][_nonce] */\n      0xffffffffffffffff\n      and\n      0xffffffffffffffff\n      and\n      dup2\n      mstore\n      0x20\n      add\n      swap1\n      dup2\n      mstore\n      0x20\n      add\n      0x00\n      keccak256\n      0x00\n        /* \"AUCA.sol\":7870:7922  nonceStatus[_srcAddress][_srcChainId][_nonce] = true */\n      0x0100\n      exp\n      dup2\n      sload\n      dup2\n      0xff\n      mul\n      not\n      and\n      swap1\n      dup4\n      iszero\n      iszero\n      mul\n      or\n      swap1\n      sstore\n      pop\n        /* \"AUCA.sol\":7933:7949  address receiver */\n      0x00\n        /* \"AUCA.sol\":7951:7965  uint256 amount */\n      dup1\n        /* \"AUCA.sol\":7967:7982  uint256 srcTxId */\n      0x00\n        /* \"AUCA.sol\":7997:8005  _payload */\n      dup5\n      dup5\n        /* \"AUCA.sol\":7986:8035  abi.decode(_payload, (address, uint256, uint256)) */\n      dup2\n      add\n      swap1\n      tag_197\n      swap2\n      swap1\n      tag_198\n      jump\t// in\n    tag_197:\n        /* \"AUCA.sol\":7932:8035  (address receiver, uint256 amount, uint256 srcTxId) = abi.decode(_payload, (address, uint256, uint256)) */\n      swap3\n      pop\n      swap3\n      pop\n      swap3\n      pop\n        /* \"AUCA.sol\":8045:8068  _mint(receiver, amount) */\n      tag_199\n        /* \"AUCA.sol\":8051:8059  receiver */\n      dup4\n        /* \"AUCA.sol\":8061:8067  amount */\n      dup4\n        /* \"AUCA.sol\":8045:8050  _mint */\n      tag_200\n        /* \"AUCA.sol\":8045:8068  _mint(receiver, amount) */\n      jump\t// in\n    tag_199:\n        /* \"AUCA.sol\":8137:8145  receiver */\n      dup3\n        /* \"AUCA.sol\":8084:8154  BridgingCompleted(_srcChainId, LZ_CHAIN_ID, srcTxId, receiver, amount) */\n      0xffffffffffffffffffffffffffffffffffffffff\n      and\n      0xf540e2fcb9906dcfcfd5aea0f902da16ba5630b30f63f3acf6abe376f9e476a8\n        /* \"AUCA.sol\":8102:8113  _srcChainId */\n      dup11\n        /* \"AUCA.sol\":8115:8126  LZ_CHAIN_ID */\n      immutable(\"0x705a6ef83029e2c8cd72d6aefd2a2bbc4a5113a33398eeb61dd1988b11595ae5\")\n        /* \"AUCA.sol\":8128:8135  srcTxId */\n      dup5\n        /* \"AUCA.sol\":8147:8153  amount */\n      dup7\n        /* \"AUCA.sol\":8084:8154  BridgingCompleted(_srcChainId, LZ_CHAIN_ID, srcTxId, receiver, amount) */\n      mload(0x40)\n      tag_201\n      swap5\n      swap4\n      swap3\n      swap2\n      swap1\n      tag_202\n      jump\t// in\n    tag_201:\n      mload(0x40)\n      dup1\n      swap2\n      sub\n      swap1\n      log2\n        /* \"AUCA.sol\":7546:8161  {... */\n      pop\n      pop\n      pop\n        /* \"AUCA.sol\":7397:8161  function lzReceive(uint16 _srcChainId, bytes calldata _srcAddress, uint64 _nonce, bytes calldata _payload)... */\n      pop\n      pop\n      pop\n      pop\n      pop\n      pop\n      jump\t// out\n        /* \"@openzeppelin/contracts/token/ERC20/ERC20.sol\":2074:2163  function name() public view virtual returns (string memory) {... */\n    tag_44:\n        /* \"@openzeppelin/contracts/token/ERC20/ERC20.sol\":2119:2132  string memory */\n      0x60\n        /* \"@openzeppelin/contracts/token/ERC20/ERC20.sol\":2151:2156  _name */\n      0x03\n        /* \"@openzeppelin/contracts/token/ERC20/ERC20.sol\":2144:2156  return _name */\n      dup1\n      sload\n      tag_204\n      swap1\n      tag_181\n      jump\t// in\n    tag_204:\n      dup1\n      0x1f\n      add\n      0x20\n      dup1\n      swap2\n      div\n      mul\n      0x20\n      add\n      mload(0x40)\n      swap1\n      dup2\n      add\n      0x40\n      mstore\n      dup1\n      swap3\n      swap2\n      swap1\n      dup2\n      dup2\n      mstore\n      0x20\n      add\n      dup3\n      dup1\n      sload\n      tag_205\n      swap1\n      tag_181\n      jump\t// in\n    tag_205:\n      dup1\n      iszero\n      tag_206\n      jumpi\n      dup1\n      0x1f\n      lt\n      tag_207\n      jumpi\n      0x0100\n      dup1\n      dup4\n      sload\n      div\n      mul\n      dup4\n      mstore\n      swap2\n      0x20\n      add\n      swap2\n      jump(tag_206)\n    tag_207:\n      dup3\n      add\n      swap2\n      swap1\n      0x00\n      mstore\n      keccak256(0x00, 0x20)\n      swap1\n    tag_208:\n      dup2\n      sload\n      dup2\n      mstore\n      swap1\n      0x01\n      add\n      swap1\n      0x20\n      add\n      dup1\n      dup4\n      gt\n      tag_208\n      jumpi\n      dup3\n      swap1\n      sub\n      0x1f\n      and\n      dup3\n      add\n      swap2\n    tag_206:\n      pop\n      pop\n      pop\n      pop\n      pop\n      swap1\n      pop\n        /* \"@openzeppelin/contracts/token/ERC20/ERC20.sol\":2074:2163  function name() public view virtual returns (string memory) {... */\n      swap1\n      jump\t// out\n        /* \"AUCA.sol\":5904:6014  function setSendVersion(uint16 _version) external onlyOwner {... */\n    tag_51:\n        /* \"@openzeppelin/contracts/access/Ownable.sol\":1531:1544  _checkOwner() */\n      tag_210\n        /* \"@openzeppelin/contracts/access/Ownable.sol\":1531:1542  _checkOwner */\n      tag_211\n        /* \"@openzeppelin/contracts/access/Ownable.sol\":1531:1544  _checkOwner() */\n      jump\t// in\n    tag_210:\n        /* \"AUCA.sol\":5974:5982  endpoint */\n      0x06\n      0x00\n      swap1\n      sload\n      swap1\n      0x0100\n      exp\n      swap1\n      div\n      0xffffffffffffffffffffffffffffffffffffffff\n      and\n        /* \"AUCA.sol\":5974:5997  endpoint.setSendVersion */\n      0xffffffffffffffffffffffffffffffffffffffff\n      and\n      0x07e0db17\n        /* \"AUCA.sol\":5998:6006  _version */\n      dup3\n        /* \"AUCA.sol\":5974:6007  endpoint.setSendVersion(_version) */\n      mload(0x40)\n      dup3\n      0xffffffff\n      and\n      0xe0\n      shl\n      dup2\n      mstore\n      0x04\n      add\n      tag_213\n      swap2\n      swap1\n      tag_115\n      jump\t// in\n    tag_213:\n      0x00\n      mload(0x40)\n      dup1\n      dup4\n      sub\n      dup2\n      0x00\n      dup8\n      dup1\n      extcodesize\n      iszero\n      dup1\n      iszero\n      tag_214\n      jumpi\n      0x00\n      dup1\n      revert\n    tag_214:\n      pop\n      gas\n      call\n      iszero\n      dup1\n      iszero\n      tag_216\n      jumpi\n      returndatasize\n      0x00\n      dup1\n      returndatacopy\n      revert(0x00, returndatasize)\n    tag_216:\n      pop\n      pop\n      pop\n      pop\n        /* \"AUCA.sol\":5904:6014  function setSendVersion(uint16 _version) external onlyOwner {... */\n      pop\n      jump\t// out\n        /* \"@openzeppelin/contracts/token/ERC20/ERC20.sol\":4293:4479  function approve(address spender, uint256 value) public virtual returns (bool) {... */\n    tag_56:\n        /* \"@openzeppelin/contracts/token/ERC20/ERC20.sol\":4366:4370  bool */\n      0x00\n        /* \"@openzeppelin/contracts/token/ERC20/ERC20.sol\":4382:4395  address owner */\n      dup1\n        /* \"@openzeppelin/contracts/token/ERC20/ERC20.sol\":4398:4410  _msgSender() */\n      tag_218\n        /* \"@openzeppelin/contracts/token/ERC20/ERC20.sol\":4398:4408  _msgSender */\n      tag_219\n        /* \"@openzeppelin/contracts/token/ERC20/ERC20.sol\":4398:4410  _msgSender() */\n      jump\t// in\n    tag_218:\n        /* \"@openzeppelin/contracts/token/ERC20/ERC20.sol\":4382:4410  address owner = _msgSender() */\n      swap1\n      pop\n        /* \"@openzeppelin/contracts/token/ERC20/ERC20.sol\":4420:4451  _approve(owner, spender, value) */\n      tag_220\n        /* \"@openzeppelin/contracts/token/ERC20/ERC20.sol\":4429:4434  owner */\n      dup2\n        /* \"@openzeppelin/contracts/token/ERC20/ERC20.sol\":4436:4443  spender */\n      dup6\n        /* \"@openzeppelin/contracts/token/ERC20/ERC20.sol\":4445:4450  value */\n      dup6\n        /* \"@openzeppelin/contracts/token/ERC20/ERC20.sol\":4420:4428  _approve */\n      tag_221\n        /* \"@openzeppelin/contracts/token/ERC20/ERC20.sol\":4420:4451  _approve(owner, spender, value) */\n      jump\t// in\n    tag_220:\n        /* \"@openzeppelin/contracts/token/ERC20/ERC20.sol\":4468:4472  true */\n      0x01\n        /* \"@openzeppelin/contracts/token/ERC20/ERC20.sol\":4461:4472  return true */\n      swap2\n      pop\n      pop\n        /* \"@openzeppelin/contracts/token/ERC20/ERC20.sol\":4293:4479  function approve(address spender, uint256 value) public virtual returns (bool) {... */\n      swap3\n      swap2\n      pop\n      pop\n      jump\t// out\n        /* \"AUCA.sol\":6020:6136  function setReceiveVersion(uint16 _version) external onlyOwner {... */\n    tag_62:\n        /* \"@openzeppelin/contracts/access/Ownable.sol\":1531:1544  _checkOwner() */\n      tag_223\n        /* \"@openzeppelin/contracts/access/Ownable.sol\":1531:1542  _checkOwner */\n      tag_211\n        /* \"@openzeppelin/contracts/access/Ownable.sol\":1531:1544  _checkOwner() */\n      jump\t// in\n    tag_223:\n        /* \"AUCA.sol\":6093:6101  endpoint */\n      0x06\n      0x00\n      swap1\n      sload\n      swap1\n      0x0100\n      exp\n      swap1\n      div\n      0xffffffffffffffffffffffffffffffffffffffff\n      and\n        /* \"AUCA.sol\":6093:6119  endpoint.setReceiveVersion */\n      0xffffffffffffffffffffffffffffffffffffffff\n      and\n      0x10ddb137\n        /* \"AUCA.sol\":6120:6128  _version */\n      dup3\n        /* \"AUCA.sol\":6093:6129  endpoint.setReceiveVersion(_version) */\n      mload(0x40)\n      dup3\n      0xffffffff\n      and\n      0xe0\n      shl\n      dup2\n      mstore\n      0x04\n      add\n      tag_225\n      swap2\n      swap1\n      tag_115\n      jump\t// in\n    tag_225:\n      0x00\n      mload(0x40)\n      dup1\n      dup4\n      sub\n      dup2\n      0x00\n      dup8\n      dup1\n      extcodesize\n      iszero\n      dup1\n      iszero\n      tag_226\n      jumpi\n      0x00\n      dup1\n      revert\n    tag_226:\n      pop\n      gas\n      call\n      iszero\n      dup1\n      iszero\n      tag_228\n      jumpi\n      returndatasize\n      0x00\n      dup1\n      returndatacopy\n      revert(0x00, returndatasize)\n    tag_228:\n      pop\n      pop\n      pop\n      pop\n        /* \"AUCA.sol\":6020:6136  function setReceiveVersion(uint16 _version) external onlyOwner {... */\n      pop\n      jump\t// out\n        /* \"@openzeppelin/contracts/token/ERC20/ERC20.sol\":3144:3241  function totalSupply() public view virtual returns (uint256) {... */\n    tag_65:\n        /* \"@openzeppelin/contracts/token/ERC20/ERC20.sol\":3196:3203  uint256 */\n      0x00\n        /* \"@openzeppelin/contracts/token/ERC20/ERC20.sol\":3222:3234  _totalSupply */\n      sload(0x02)\n        /* \"@openzeppelin/contracts/token/ERC20/ERC20.sol\":3215:3234  return _totalSupply */\n      swap1\n      pop\n        /* \"@openzeppelin/contracts/token/ERC20/ERC20.sol\":3144:3241  function totalSupply() public view virtual returns (uint256) {... */\n      swap1\n      jump\t// out\n        /* \"@openzeppelin/contracts/token/ERC20/ERC20.sol\":5039:5283  function transferFrom(address from, address to, uint256 value) public virtual returns (bool) {... */\n    tag_72:\n        /* \"@openzeppelin/contracts/token/ERC20/ERC20.sol\":5126:5130  bool */\n      0x00\n        /* \"@openzeppelin/contracts/token/ERC20/ERC20.sol\":5142:5157  address spender */\n      dup1\n        /* \"@openzeppelin/contracts/token/ERC20/ERC20.sol\":5160:5172  _msgSender() */\n      tag_231\n        /* \"@openzeppelin/contracts/token/ERC20/ERC20.sol\":5160:5170  _msgSender */\n      tag_219\n        /* \"@openzeppelin/contracts/token/ERC20/ERC20.sol\":5160:5172  _msgSender() */\n      jump\t// in\n    tag_231:\n        /* \"@openzeppelin/contracts/token/ERC20/ERC20.sol\":5142:5172  address spender = _msgSender() */\n      swap1\n      pop\n        /* \"@openzeppelin/contracts/token/ERC20/ERC20.sol\":5182:5219  _spendAllowance(from, spender, value) */\n      tag_232\n        /* \"@openzeppelin/contracts/token/ERC20/ERC20.sol\":5198:5202  from */\n      dup6\n        /* \"@openzeppelin/contracts/token/ERC20/ERC20.sol\":5204:5211  spender */\n      dup3\n        /* \"@openzeppelin/contracts/token/ERC20/ERC20.sol\":5213:5218  value */\n      dup6\n        /* \"@openzeppelin/contracts/token/ERC20/ERC20.sol\":5182:5197  _spendAllowance */\n      tag_233\n        /* \"@openzeppelin/contracts/token/ERC20/ERC20.sol\":5182:5219  _spendAllowance(from, spender, value) */\n      jump\t// in\n    tag_232:\n        /* \"@openzeppelin/contracts/token/ERC20/ERC20.sol\":5229:5255  _transfer(from, to, value) */\n      tag_234\n        /* \"@openzeppelin/contracts/token/ERC20/ERC20.sol\":5239:5243  from */\n      dup6\n        /* \"@openzeppelin/contracts/token/ERC20/ERC20.sol\":5245:5247  to */\n      dup6\n        /* \"@openzeppelin/contracts/token/ERC20/ERC20.sol\":5249:5254  value */\n      dup6\n        /* \"@openzeppelin/contracts/token/ERC20/ERC20.sol\":5229:5238  _transfer */\n      tag_235\n        /* \"@openzeppelin/contracts/token/ERC20/ERC20.sol\":5229:5255  _transfer(from, to, value) */\n      jump\t// in\n    tag_234:\n        /* \"@openzeppelin/contracts/token/ERC20/ERC20.sol\":5272:5276  true */\n      0x01\n        /* \"@openzeppelin/contracts/token/ERC20/ERC20.sol\":5265:5276  return true */\n      swap2\n      pop\n      pop\n        /* \"@openzeppelin/contracts/token/ERC20/ERC20.sol\":5039:5283  function transferFrom(address from, address to, uint256 value) public virtual returns (bool) {... */\n      swap4\n      swap3\n      pop\n      pop\n      pop\n      jump\t// out\n        /* \"@openzeppelin/contracts/token/ERC20/ERC20.sol\":3002:3084  function decimals() public view virtual returns (uint8) {... */\n    tag_76:\n        /* \"@openzeppelin/contracts/token/ERC20/ERC20.sol\":3051:3056  uint8 */\n      0x00\n        /* \"@openzeppelin/contracts/token/ERC20/ERC20.sol\":3075:3077  18 */\n      0x12\n        /* \"@openzeppelin/contracts/token/ERC20/ERC20.sol\":3068:3077  return 18 */\n      swap1\n      pop\n        /* \"@openzeppelin/contracts/token/ERC20/ERC20.sol\":3002:3084  function decimals() public view virtual returns (uint8) {... */\n      swap1\n      jump\t// out\n        /* \"AUCA.sol\":6142:6307  function forceResumeReceive(uint16 _srcChainId, bytes calldata _srcAddress) external onlyOwner {... */\n    tag_83:\n        /* \"@openzeppelin/contracts/access/Ownable.sol\":1531:1544  _checkOwner() */\n      tag_238\n        /* \"@openzeppelin/contracts/access/Ownable.sol\":1531:1542  _checkOwner */\n      tag_211\n        /* \"@openzeppelin/contracts/access/Ownable.sol\":1531:1544  _checkOwner() */\n      jump\t// in\n    tag_238:\n        /* \"AUCA.sol\":6247:6255  endpoint */\n      0x06\n      0x00\n      swap1\n      sload\n      swap1\n      0x0100\n      exp\n      swap1\n      div\n      0xffffffffffffffffffffffffffffffffffffffff\n      and\n        /* \"AUCA.sol\":6247:6274  endpoint.forceResumeReceive */\n      0xffffffffffffffffffffffffffffffffffffffff\n      and\n      0x42d65a8d\n        /* \"AUCA.sol\":6275:6286  _srcChainId */\n      dup5\n        /* \"AUCA.sol\":6288:6299  _srcAddress */\n      dup5\n      dup5\n        /* \"AUCA.sol\":6247:6300  endpoint.forceResumeReceive(_srcChainId, _srcAddress) */\n      mload(0x40)\n      dup5\n      0xffffffff\n      and\n      0xe0\n      shl\n      dup2\n      mstore\n      0x04\n      add\n      tag_240\n      swap4\n      swap3\n      swap2\n      swap1\n      tag_241\n      jump\t// in\n    tag_240:\n      0x00\n      mload(0x40)\n      dup1\n      dup4\n      sub\n      dup2\n      0x00\n      dup8\n      dup1\n      extcodesize\n      iszero\n      dup1\n      iszero\n      tag_242\n      jumpi\n      0x00\n      dup1\n      revert\n    tag_242:\n      pop\n      gas\n      call\n      iszero\n      dup1\n      iszero\n      tag_244\n      jumpi\n      returndatasize\n      0x00\n      dup1\n      returndatacopy\n      revert(0x00, returndatasize)\n    tag_244:\n      pop\n      pop\n      pop\n      pop\n        /* \"AUCA.sol\":6142:6307  function forceResumeReceive(uint16 _srcChainId, bytes calldata _srcAddress) external onlyOwner {... */\n      pop\n      pop\n      pop\n      jump\t// out\n        /* \"AUCA.sol\":760:794  ILayerZeroEndpoint public endpoint */\n    tag_86:\n      0x06\n      0x00\n      swap1\n      sload\n      swap1\n      0x0100\n      exp\n      swap1\n      div\n      0xffffffffffffffffffffffffffffffffffffffff\n      and\n      dup2\n      jump\t// out\n        /* \"AUCA.sol\":3245:4280  function xChainTransfer(address _receiver, uint256 _amount, uint16 _dstChainId, bytes memory _adapterParams)... */\n    tag_92:\n        /* \"AUCA.sol\":3445:3446  0 */\n      0x00\n        /* \"AUCA.sol\":3409:3422  trustedRemote */\n      0x07\n        /* \"AUCA.sol\":3409:3435  trustedRemote[_dstChainId] */\n      0x00\n        /* \"AUCA.sol\":3423:3434  _dstChainId */\n      dup5\n        /* \"AUCA.sol\":3409:3435  trustedRemote[_dstChainId] */\n      0xffff\n      and\n      0xffff\n      and\n      dup2\n      mstore\n      0x20\n      add\n      swap1\n      dup2\n      mstore\n      0x20\n      add\n      0x00\n      keccak256\n        /* \"AUCA.sol\":3409:3442  trustedRemote[_dstChainId].length */\n      dup1\n      sload\n      tag_246\n      swap1\n      tag_181\n      jump\t// in\n    tag_246:\n      swap1\n      pop\n        /* \"AUCA.sol\":3409:3446  trustedRemote[_dstChainId].length > 0 */\n      gt\n        /* \"AUCA.sol\":3401:3478  require(trustedRemote[_dstChainId].length > 0, \"bridge/invalid-dst-chain-id\") */\n      tag_247\n      jumpi\n      mload(0x40)\n      0x08c379a000000000000000000000000000000000000000000000000000000000\n      dup2\n      mstore\n      0x04\n      add\n      tag_248\n      swap1\n      tag_249\n      jump\t// in\n    tag_248:\n      mload(0x40)\n      dup1\n      swap2\n      sub\n      swap1\n      revert\n    tag_247:\n        /* \"AUCA.sol\":3489:3510  uint256 balanceBefore */\n      0x00\n        /* \"AUCA.sol\":3513:3534  balanceOf(msg.sender) */\n      tag_250\n        /* \"AUCA.sol\":3523:3533  msg.sender */\n      caller\n        /* \"AUCA.sol\":3513:3522  balanceOf */\n      tag_97\n        /* \"AUCA.sol\":3513:3534  balanceOf(msg.sender) */\n      jump\t// in\n    tag_250:\n        /* \"AUCA.sol\":3489:3534  uint256 balanceBefore = balanceOf(msg.sender) */\n      swap1\n      pop\n        /* \"AUCA.sol\":3569:3576  _amount */\n      dup4\n        /* \"AUCA.sol\":3552:3565  balanceBefore */\n      dup2\n        /* \"AUCA.sol\":3552:3576  balanceBefore >= _amount */\n      lt\n      iszero\n        /* \"AUCA.sol\":3544:3609  require(balanceBefore >= _amount, \"wrapper/insufficient-balance\") */\n      tag_251\n      jumpi\n      mload(0x40)\n      0x08c379a000000000000000000000000000000000000000000000000000000000\n      dup2\n      mstore\n      0x04\n      add\n      tag_252\n      swap1\n      tag_253\n      jump\t// in\n    tag_252:\n      mload(0x40)\n      dup1\n      swap2\n      sub\n      swap1\n      revert\n    tag_251:\n        /* \"AUCA.sol\":3620:3646  _burn(msg.sender, _amount) */\n      tag_254\n        /* \"AUCA.sol\":3626:3636  msg.sender */\n      caller\n        /* \"AUCA.sol\":3638:3645  _amount */\n      dup6\n        /* \"AUCA.sol\":3620:3625  _burn */\n      tag_255\n        /* \"AUCA.sol\":3620:3646  _burn(msg.sender, _amount) */\n      jump\t// in\n    tag_254:\n        /* \"AUCA.sol\":3656:3676  uint256 balanceAfter */\n      0x00\n        /* \"AUCA.sol\":3679:3700  balanceOf(msg.sender) */\n      tag_256\n        /* \"AUCA.sol\":3689:3699  msg.sender */\n      caller\n        /* \"AUCA.sol\":3679:3688  balanceOf */\n      tag_97\n        /* \"AUCA.sol\":3679:3700  balanceOf(msg.sender) */\n      jump\t// in\n    tag_256:\n        /* \"AUCA.sol\":3656:3700  uint256 balanceAfter = balanceOf(msg.sender) */\n      swap1\n      pop\n        /* \"AUCA.sol\":3751:3758  _amount */\n      dup5\n        /* \"AUCA.sol\":3735:3747  balanceAfter */\n      dup2\n        /* \"AUCA.sol\":3719:3732  balanceBefore */\n      dup4\n        /* \"AUCA.sol\":3719:3747  balanceBefore - balanceAfter */\n      tag_257\n      swap2\n      swap1\n      tag_258\n      jump\t// in\n    tag_257:\n        /* \"AUCA.sol\":3719:3758  balanceBefore - balanceAfter == _amount */\n      eq\n        /* \"AUCA.sol\":3711:3782  require(balanceBefore - balanceAfter == _amount, \"wrapper/burn-failed\") */\n      tag_259\n      jumpi\n      mload(0x40)\n      0x08c379a000000000000000000000000000000000000000000000000000000000\n      dup2\n      mstore\n      0x04\n      add\n      tag_260\n      swap1\n      tag_261\n      jump\t// in\n    tag_260:\n      mload(0x40)\n      dup1\n      swap2\n      sub\n      swap1\n      revert\n    tag_259:\n        /* \"AUCA.sol\":3793:3805  uint256 fees */\n      0x00\n        /* \"AUCA.sol\":3841:3846  10000 */\n      0x2710\n        /* \"AUCA.sol\":3819:3837  transferFeePercent */\n      sload(0x0a)\n        /* \"AUCA.sol\":3809:3816  _amount */\n      dup8\n        /* \"AUCA.sol\":3809:3837  _amount * transferFeePercent */\n      tag_262\n      swap2\n      swap1\n      tag_263\n      jump\t// in\n    tag_262:\n        /* \"AUCA.sol\":3808:3846  (_amount * transferFeePercent) / 10000 */\n      tag_264\n      swap2\n      swap1\n      tag_265\n      jump\t// in\n    tag_264:\n        /* \"AUCA.sol\":3793:3846  uint256 fees = (_amount * transferFeePercent) / 10000 */\n      swap1\n      pop\n        /* \"AUCA.sol\":3856:3875  uint256 finalAmount */\n      0x00\n        /* \"AUCA.sol\":3888:3892  fees */\n      dup2\n        /* \"AUCA.sol\":3878:3885  _amount */\n      dup8\n        /* \"AUCA.sol\":3878:3892  _amount - fees */\n      tag_266\n      swap2\n      swap1\n      tag_258\n      jump\t// in\n    tag_266:\n        /* \"AUCA.sol\":3856:3892  uint256 finalAmount = _amount - fees */\n      swap1\n      pop\n        /* \"AUCA.sol\":3905:3914  txCounter */\n      0x08\n      0x00\n        /* \"AUCA.sol\":3903:3914  ++txCounter */\n      dup2\n      sload\n      tag_267\n      swap1\n      tag_268\n      jump\t// in\n    tag_267:\n      swap2\n      swap1\n      pop\n      dup2\n      swap1\n      sstore\n      pop\n        /* \"AUCA.sol\":3924:3932  endpoint */\n      0x06\n      0x00\n      swap1\n      sload\n      swap1\n      0x0100\n      exp\n      swap1\n      div\n      0xffffffffffffffffffffffffffffffffffffffff\n      and\n        /* \"AUCA.sol\":3924:3937  endpoint.send */\n      0xffffffffffffffffffffffffffffffffffffffff\n      and\n      0xc5803100\n        /* \"AUCA.sol\":3945:3954  msg.value */\n      callvalue\n        /* \"AUCA.sol\":3969:3980  _dstChainId */\n      dup9\n        /* \"AUCA.sol\":3994:4007  trustedRemote */\n      0x07\n        /* \"AUCA.sol\":3994:4020  trustedRemote[_dstChainId] */\n      0x00\n        /* \"AUCA.sol\":4008:4019  _dstChainId */\n      dup12\n        /* \"AUCA.sol\":3994:4020  trustedRemote[_dstChainId] */\n      0xffff\n      and\n      0xffff\n      and\n      dup2\n      mstore\n      0x20\n      add\n      swap1\n      dup2\n      mstore\n      0x20\n      add\n      0x00\n      keccak256\n        /* \"AUCA.sol\":4045:4054  _receiver */\n      dup13\n        /* \"AUCA.sol\":4056:4067  finalAmount */\n      dup7\n        /* \"AUCA.sol\":4069:4078  txCounter */\n      sload(0x08)\n        /* \"AUCA.sol\":4034:4079  abi.encode(_receiver, finalAmount, txCounter) */\n      add(0x20, mload(0x40))\n      tag_269\n      swap4\n      swap3\n      swap2\n      swap1\n      tag_270\n      jump\t// in\n    tag_269:\n      mload(0x40)\n      0x20\n      dup2\n      dup4\n      sub\n      sub\n      dup2\n      mstore\n      swap1\n      0x40\n      mstore\n        /* \"AUCA.sol\":4101:4111  msg.sender */\n      caller\n        /* \"AUCA.sol\":4134:4135  0 */\n      0x00\n        /* \"AUCA.sol\":4150:4164  _adapterParams */\n      dup13\n        /* \"AUCA.sol\":3924:4174  endpoint.send{value: msg.value}(... */\n      mload(0x40)\n      dup9\n      0xffffffff\n      and\n      0xe0\n      shl\n      dup2\n      mstore\n      0x04\n      add\n      tag_271\n      swap7\n      swap6\n      swap5\n      swap4\n      swap3\n      swap2\n      swap1\n      tag_272\n      jump\t// in\n    tag_271:\n      0x00\n      mload(0x40)\n      dup1\n      dup4\n      sub\n      dup2\n      dup6\n      dup9\n      dup1\n      extcodesize\n      iszero\n      dup1\n      iszero\n      tag_273\n      jumpi\n      0x00\n      dup1\n      revert\n    tag_273:\n      pop\n      gas\n      call\n      iszero\n      dup1\n      iszero\n      tag_275\n      jumpi\n      returndatasize\n      0x00\n      dup1\n      returndatacopy\n      revert(0x00, returndatasize)\n    tag_275:\n      pop\n      pop\n      pop\n      pop\n      pop\n        /* \"AUCA.sol\":4244:4253  _receiver */\n      dup8\n        /* \"AUCA.sol\":4189:4273  BridgingInitiated(LZ_CHAIN_ID, _dstChainId, txCounter, _receiver, finalAmount, fees) */\n      0xffffffffffffffffffffffffffffffffffffffff\n      and\n      0xbd36451ab3b0e9fe414dea95544d2a3d68944d949c8af5b4a2bdfa0f269b02f0\n        /* \"AUCA.sol\":4207:4218  LZ_CHAIN_ID */\n      immutable(\"0x705a6ef83029e2c8cd72d6aefd2a2bbc4a5113a33398eeb61dd1988b11595ae5\")\n        /* \"AUCA.sol\":4220:4231  _dstChainId */\n      dup9\n        /* \"AUCA.sol\":4233:4242  txCounter */\n      sload(0x08)\n        /* \"AUCA.sol\":4255:4266  finalAmount */\n      dup6\n        /* \"AUCA.sol\":4268:4272  fees */\n      dup8\n        /* \"AUCA.sol\":4189:4273  BridgingInitiated(LZ_CHAIN_ID, _dstChainId, txCounter, _receiver, finalAmount, fees) */\n      mload(0x40)\n      tag_276\n      swap6\n      swap5\n      swap4\n      swap3\n      swap2\n      swap1\n      tag_277\n      jump\t// in\n    tag_276:\n      mload(0x40)\n      dup1\n      swap2\n      sub\n      swap1\n      log2\n        /* \"AUCA.sol\":3391:4280  {... */\n      pop\n      pop\n      pop\n      pop\n        /* \"AUCA.sol\":3245:4280  function xChainTransfer(address _receiver, uint256 _amount, uint16 _dstChainId, bytes memory _adapterParams)... */\n      pop\n      pop\n      pop\n      pop\n      jump\t// out\n        /* \"@openzeppelin/contracts/token/ERC20/ERC20.sol\":3299:3415  function balanceOf(address account) public view virtual returns (uint256) {... */\n    tag_97:\n        /* \"@openzeppelin/contracts/token/ERC20/ERC20.sol\":3364:3371  uint256 */\n      0x00\n        /* \"@openzeppelin/contracts/token/ERC20/ERC20.sol\":3390:3399  _balances */\n      dup1\n        /* \"@openzeppelin/contracts/token/ERC20/ERC20.sol\":3390:3408  _balances[account] */\n      0x00\n        /* \"@openzeppelin/contracts/token/ERC20/ERC20.sol\":3400:3407  account */\n      dup4\n        /* \"@openzeppelin/contracts/token/ERC20/ERC20.sol\":3390:3408  _balances[account] */\n      0xffffffffffffffffffffffffffffffffffffffff\n      and\n      0xffffffffffffffffffffffffffffffffffffffff\n      and\n      dup2\n      mstore\n      0x20\n      add\n      swap1\n      dup2\n      mstore\n      0x20\n      add\n      0x00\n      keccak256\n      sload\n        /* \"@openzeppelin/contracts/token/ERC20/ERC20.sol\":3383:3408  return _balances[account] */\n      swap1\n      pop\n        /* \"@openzeppelin/contracts/token/ERC20/ERC20.sol\":3299:3415  function balanceOf(address account) public view virtual returns (uint256) {... */\n      swap2\n      swap1\n      pop\n      jump\t// out\n        /* \"@openzeppelin/contracts/access/Ownable.sol\":2293:2394  function renounceOwnership() public virtual onlyOwner {... */\n    tag_101:\n        /* \"@openzeppelin/contracts/access/Ownable.sol\":1531:1544  _checkOwner() */\n      tag_280\n        /* \"@openzeppelin/contracts/access/Ownable.sol\":1531:1542  _checkOwner */\n      tag_211\n        /* \"@openzeppelin/contracts/access/Ownable.sol\":1531:1544  _checkOwner() */\n      jump\t// in\n    tag_280:\n        /* \"@openzeppelin/contracts/access/Ownable.sol\":2357:2387  _transferOwnership(address(0)) */\n      tag_282\n        /* \"@openzeppelin/contracts/access/Ownable.sol\":2384:2385  0 */\n      0x00\n        /* \"@openzeppelin/contracts/access/Ownable.sol\":2357:2375  _transferOwnership */\n      tag_283\n        /* \"@openzeppelin/contracts/access/Ownable.sol\":2357:2387  _transferOwnership(address(0)) */\n      jump\t// in\n    tag_282:\n        /* \"@openzeppelin/contracts/access/Ownable.sol\":2293:2394  function renounceOwnership() public virtual onlyOwner {... */\n      jump\t// out\n        /* \"AUCA.sol\":929:953  uint256 public txCounter */\n    tag_104:\n      sload(0x08)\n      dup2\n      jump\t// out\n        /* \"@openzeppelin/contracts/access/Ownable.sol\":1638:1723  function owner() public view virtual returns (address) {... */\n    tag_108:\n        /* \"@openzeppelin/contracts/access/Ownable.sol\":1684:1691  address */\n      0x00\n        /* \"@openzeppelin/contracts/access/Ownable.sol\":1710:1716  _owner */\n      0x05\n      0x00\n      swap1\n      sload\n      swap1\n      0x0100\n      exp\n      swap1\n      div\n      0xffffffffffffffffffffffffffffffffffffffff\n      and\n        /* \"@openzeppelin/contracts/access/Ownable.sol\":1703:1716  return _owner */\n      swap1\n      pop\n        /* \"@openzeppelin/contracts/access/Ownable.sol\":1638:1723  function owner() public view virtual returns (address) {... */\n      swap1\n      jump\t// out\n        /* \"AUCA.sol\":654:689  uint16 public immutable LZ_CHAIN_ID */\n    tag_113:\n      immutable(\"0x705a6ef83029e2c8cd72d6aefd2a2bbc4a5113a33398eeb61dd1988b11595ae5\")\n      dup2\n      jump\t// out\n        /* \"AUCA.sol\":1147:1185  uint256 public transferFeePercent = 50 */\n    tag_118:\n      sload(0x0a)\n      dup2\n      jump\t// out\n        /* \"@openzeppelin/contracts/token/ERC20/ERC20.sol\":2276:2369  function symbol() public view virtual returns (string memory) {... */\n    tag_122:\n        /* \"@openzeppelin/contracts/token/ERC20/ERC20.sol\":2323:2336  string memory */\n      0x60\n        /* \"@openzeppelin/contracts/token/ERC20/ERC20.sol\":2355:2362  _symbol */\n      0x04\n        /* \"@openzeppelin/contracts/token/ERC20/ERC20.sol\":2348:2362  return _symbol */\n      dup1\n      sload\n      tag_286\n      swap1\n      tag_181\n      jump\t// in\n    tag_286:\n      dup1\n      0x1f\n      add\n      0x20\n      dup1\n      swap2\n      div\n      mul\n      0x20\n      add\n      mload(0x40)\n      swap1\n      dup2\n      add\n      0x40\n      mstore\n      dup1\n      swap3\n      swap2\n      swap1\n      dup2\n      dup2\n      mstore\n      0x20\n      add\n      dup3\n      dup1\n      sload\n      tag_287\n      swap1\n      tag_181\n      jump\t// in\n    tag_287:\n      dup1\n      iszero\n      tag_288\n      jumpi\n      dup1\n      0x1f\n      lt\n      tag_289\n      jumpi\n      0x0100\n      dup1\n      dup4\n      sload\n      div\n      mul\n      dup4\n      mstore\n      swap2\n      0x20\n      add\n      swap2\n      jump(tag_288)\n    tag_289:\n      dup3\n      add\n      swap2\n      swap1\n      0x00\n      mstore\n      keccak256(0x00, 0x20)\n      swap1\n    tag_290:\n      dup2\n      sload\n      dup2\n      mstore\n      swap1\n      0x01\n      add\n      swap1\n      0x20\n      add\n      dup1\n      dup4\n      gt\n      tag_290\n      jumpi\n      dup3\n      swap1\n      sub\n      0x1f\n      and\n      dup3\n      add\n      swap2\n    tag_288:\n      pop\n      pop\n      pop\n      pop\n      pop\n      swap1\n      pop\n        /* \"@openzeppelin/contracts/token/ERC20/ERC20.sol\":2276:2369  function symbol() public view virtual returns (string memory) {... */\n      swap1\n      jump\t// out\n        /* \"AUCA.sol\":4599:4831  function updateEndpoint(address _newEndpoint) external onlyOwner {... */\n    tag_127:\n        /* \"@openzeppelin/contracts/access/Ownable.sol\":1531:1544  _checkOwner() */\n      tag_292\n        /* \"@openzeppelin/contracts/access/Ownable.sol\":1531:1542  _checkOwner */\n      tag_211\n        /* \"@openzeppelin/contracts/access/Ownable.sol\":1531:1544  _checkOwner() */\n      jump\t// in\n    tag_292:\n        /* \"AUCA.sol\":4674:4693  address oldEndpoint */\n      0x00\n        /* \"AUCA.sol\":4704:4712  endpoint */\n      0x06\n      0x00\n      swap1\n      sload\n      swap1\n      0x0100\n      exp\n      swap1\n      div\n      0xffffffffffffffffffffffffffffffffffffffff\n      and\n        /* \"AUCA.sol\":4674:4713  address oldEndpoint = address(endpoint) */\n      swap1\n      pop\n        /* \"AUCA.sol\":4753:4765  _newEndpoint */\n      dup2\n        /* \"AUCA.sol\":4723:4731  endpoint */\n      0x06\n      0x00\n        /* \"AUCA.sol\":4723:4766  endpoint = ILayerZeroEndpoint(_newEndpoint) */\n      0x0100\n      exp\n      dup2\n      sload\n      dup2\n      0xffffffffffffffffffffffffffffffffffffffff\n      mul\n      not\n      and\n      swap1\n      dup4\n      0xffffffffffffffffffffffffffffffffffffffff\n      and\n      mul\n      or\n      swap1\n      sstore\n      pop\n        /* \"AUCA.sol\":4811:4823  _newEndpoint */\n      dup2\n        /* \"AUCA.sol\":4782:4824  EndpointUpdated(oldEndpoint, _newEndpoint) */\n      0xffffffffffffffffffffffffffffffffffffffff\n      and\n        /* \"AUCA.sol\":4798:4809  oldEndpoint */\n      dup2\n        /* \"AUCA.sol\":4782:4824  EndpointUpdated(oldEndpoint, _newEndpoint) */\n      0xffffffffffffffffffffffffffffffffffffffff\n      and\n      0x241827194635b544bceb965d0e124305c0968051403ae83cb99d1ef86bd65f58\n      mload(0x40)\n      mload(0x40)\n      dup1\n      swap2\n      sub\n      swap1\n      log3\n        /* \"AUCA.sol\":4664:4831  {... */\n      pop\n        /* \"AUCA.sol\":4599:4831  function updateEndpoint(address _newEndpoint) external onlyOwner {... */\n      pop\n      jump\t// out\n        /* \"@openzeppelin/contracts/token/ERC20/ERC20.sol\":3610:3788  function transfer(address to, uint256 value) public virtual returns (bool) {... */\n    tag_131:\n        /* \"@openzeppelin/contracts/token/ERC20/ERC20.sol\":3679:3683  bool */\n      0x00\n        /* \"@openzeppelin/contracts/token/ERC20/ERC20.sol\":3695:3708  address owner */\n      dup1\n        /* \"@openzeppelin/contracts/token/ERC20/ERC20.sol\":3711:3723  _msgSender() */\n      tag_295\n        /* \"@openzeppelin/contracts/token/ERC20/ERC20.sol\":3711:3721  _msgSender */\n      tag_219\n        /* \"@openzeppelin/contracts/token/ERC20/ERC20.sol\":3711:3723  _msgSender() */\n      jump\t// in\n    tag_295:\n        /* \"@openzeppelin/contracts/token/ERC20/ERC20.sol\":3695:3723  address owner = _msgSender() */\n      swap1\n      pop\n        /* \"@openzeppelin/contracts/token/ERC20/ERC20.sol\":3733:3760  _transfer(owner, to, value) */\n      tag_296\n        /* \"@openzeppelin/contracts/token/ERC20/ERC20.sol\":3743:3748  owner */\n      dup2\n        /* \"@openzeppelin/contracts/token/ERC20/ERC20.sol\":3750:3752  to */\n      dup6\n        /* \"@openzeppelin/contracts/token/ERC20/ERC20.sol\":3754:3759  value */\n      dup6\n        /* \"@openzeppelin/contracts/token/ERC20/ERC20.sol\":3733:3742  _transfer */\n      tag_235\n        /* \"@openzeppelin/contracts/token/ERC20/ERC20.sol\":3733:3760  _transfer(owner, to, value) */\n      jump\t// in\n    tag_296:\n        /* \"@openzeppelin/contracts/token/ERC20/ERC20.sol\":3777:3781  true */\n      0x01\n        /* \"@openzeppelin/contracts/token/ERC20/ERC20.sol\":3770:3781  return true */\n      swap2\n      pop\n      pop\n        /* \"@openzeppelin/contracts/token/ERC20/ERC20.sol\":3610:3788  function transfer(address to, uint256 value) public virtual returns (bool) {... */\n      swap3\n      swap2\n      pop\n      pop\n      jump\t// out\n        /* \"AUCA.sol\":837:882  mapping(uint16 => bytes) public trustedRemote */\n    tag_136:\n      mstore(0x20, 0x07)\n      dup1\n      0x00\n      mstore\n      keccak256(0x00, 0x40)\n      0x00\n      swap2\n      pop\n      swap1\n      pop\n      dup1\n      sload\n      tag_297\n      swap1\n      tag_181\n      jump\t// in\n    tag_297:\n      dup1\n      0x1f\n      add\n      0x20\n      dup1\n      swap2\n      div\n      mul\n      0x20\n      add\n      mload(0x40)\n      swap1\n      dup2\n      add\n      0x40\n      mstore\n      dup1\n      swap3\n      swap2\n      swap1\n      dup2\n      dup2\n      mstore\n      0x20\n      add\n      dup3\n      dup1\n      sload\n      tag_298\n      swap1\n      tag_181\n      jump\t// in\n    tag_298:\n      dup1\n      iszero\n      tag_299\n      jumpi\n      dup1\n      0x1f\n      lt\n      tag_300\n      jumpi\n      0x0100\n      dup1\n      dup4\n      sload\n      div\n      mul\n      dup4\n      mstore\n      swap2\n      0x20\n      add\n      swap2\n      jump(tag_299)\n    tag_300:\n      dup3\n      add\n      swap2\n      swap1\n      0x00\n      mstore\n      keccak256(0x00, 0x20)\n      swap1\n    tag_301:\n      dup2\n      sload\n      dup2\n      mstore\n      swap1\n      0x01\n      add\n      swap1\n      0x20\n      add\n      dup1\n      dup4\n      gt\n      tag_301\n      jumpi\n      dup3\n      swap1\n      sub\n      0x1f\n      and\n      dup3\n      add\n      swap2\n    tag_299:\n      pop\n      pop\n      pop\n      pop\n      pop\n      dup2\n      jump\t// out\n        /* \"AUCA.sol\":5684:5898  function setConfig(uint16 _version, uint16 _chainId, uint256 _configType, bytes calldata _config)... */\n    tag_143:\n        /* \"@openzeppelin/contracts/access/Ownable.sol\":1531:1544  _checkOwner() */\n      tag_303\n        /* \"@openzeppelin/contracts/access/Ownable.sol\":1531:1542  _checkOwner */\n      tag_211\n        /* \"@openzeppelin/contracts/access/Ownable.sol\":1531:1544  _checkOwner() */\n      jump\t// in\n    tag_303:\n        /* \"AUCA.sol\":5831:5839  endpoint */\n      0x06\n      0x00\n      swap1\n      sload\n      swap1\n      0x0100\n      exp\n      swap1\n      div\n      0xffffffffffffffffffffffffffffffffffffffff\n      and\n        /* \"AUCA.sol\":5831:5849  endpoint.setConfig */\n      0xffffffffffffffffffffffffffffffffffffffff\n      and\n      0xcbed8b9c\n        /* \"AUCA.sol\":5850:5858  _version */\n      dup7\n        /* \"AUCA.sol\":5860:5868  _chainId */\n      dup7\n        /* \"AUCA.sol\":5870:5881  _configType */\n      dup7\n        /* \"AUCA.sol\":5883:5890  _config */\n      dup7\n      dup7\n        /* \"AUCA.sol\":5831:5891  endpoint.setConfig(_version, _chainId, _configType, _config) */\n      mload(0x40)\n      dup7\n      0xffffffff\n      and\n      0xe0\n      shl\n      dup2\n      mstore\n      0x04\n      add\n      tag_305\n      swap6\n      swap5\n      swap4\n      swap3\n      swap2\n      swap1\n      tag_306\n      jump\t// in\n    tag_305:\n      0x00\n      mload(0x40)\n      dup1\n      dup4\n      sub\n      dup2\n      0x00\n      dup8\n      dup1\n      extcodesize\n      iszero\n      dup1\n      iszero\n      tag_307\n      jumpi\n      0x00\n      dup1\n      revert\n    tag_307:\n      pop\n      gas\n      call\n      iszero\n      dup1\n      iszero\n      tag_309\n      jumpi\n      returndatasize\n      0x00\n      dup1\n      returndatacopy\n      revert(0x00, returndatasize)\n    tag_309:\n      pop\n      pop\n      pop\n      pop\n        /* \"AUCA.sol\":5684:5898  function setConfig(uint16 _version, uint16 _chainId, uint256 _configType, bytes calldata _config)... */\n      pop\n      pop\n      pop\n      pop\n      pop\n      jump\t// out\n        /* \"AUCA.sol\":5379:5619  function setTransferFees(uint256 _transferFeePercent) external onlyOwner {... */\n    tag_148:\n        /* \"@openzeppelin/contracts/access/Ownable.sol\":1531:1544  _checkOwner() */\n      tag_311\n        /* \"@openzeppelin/contracts/access/Ownable.sol\":1531:1542  _checkOwner */\n      tag_211\n        /* \"@openzeppelin/contracts/access/Ownable.sol\":1531:1544  _checkOwner() */\n      jump\t// in\n    tag_311:\n        /* \"AUCA.sol\":5462:5477  uint256 oldFees */\n      0x00\n        /* \"AUCA.sol\":5480:5498  transferFeePercent */\n      sload(0x0a)\n        /* \"AUCA.sol\":5462:5498  uint256 oldFees = transferFeePercent */\n      swap1\n      pop\n        /* \"AUCA.sol\":5529:5548  _transferFeePercent */\n      dup2\n        /* \"AUCA.sol\":5508:5526  transferFeePercent */\n      0x0a\n        /* \"AUCA.sol\":5508:5548  transferFeePercent = _transferFeePercent */\n      dup2\n      swap1\n      sstore\n      pop\n        /* \"AUCA.sol\":5564:5612  TransferFeeUpdated(oldFees, _transferFeePercent) */\n      0x940334a9f5c76529ad9447ac490c2073b06d880209383a3d3e4b0ecab72a0d99\n        /* \"AUCA.sol\":5583:5590  oldFees */\n      dup2\n        /* \"AUCA.sol\":5592:5611  _transferFeePercent */\n      dup4\n        /* \"AUCA.sol\":5564:5612  TransferFeeUpdated(oldFees, _transferFeePercent) */\n      mload(0x40)\n      tag_313\n      swap3\n      swap2\n      swap1\n      tag_314\n      jump\t// in\n    tag_313:\n      mload(0x40)\n      dup1\n      swap2\n      sub\n      swap1\n      log1\n        /* \"AUCA.sol\":5452:5619  {... */\n      pop\n        /* \"AUCA.sol\":5379:5619  function setTransferFees(uint256 _transferFeePercent) external onlyOwner {... */\n      pop\n      jump\t// out\n        /* \"@openzeppelin/contracts/token/ERC20/ERC20.sol\":3846:3986  function allowance(address owner, address spender) public view virtual returns (uint256) {... */\n    tag_153:\n        /* \"@openzeppelin/contracts/token/ERC20/ERC20.sol\":3926:3933  uint256 */\n      0x00\n        /* \"@openzeppelin/contracts/token/ERC20/ERC20.sol\":3952:3963  _allowances */\n      0x01\n        /* \"@openzeppelin/contracts/token/ERC20/ERC20.sol\":3952:3970  _allowances[owner] */\n      0x00\n        /* \"@openzeppelin/contracts/token/ERC20/ERC20.sol\":3964:3969  owner */\n      dup5\n        /* \"@openzeppelin/contracts/token/ERC20/ERC20.sol\":3952:3970  _allowances[owner] */\n      0xffffffffffffffffffffffffffffffffffffffff\n      and\n      0xffffffffffffffffffffffffffffffffffffffff\n      and\n      dup2\n      mstore\n      0x20\n      add\n      swap1\n      dup2\n      mstore\n      0x20\n      add\n      0x00\n      keccak256\n        /* \"@openzeppelin/contracts/token/ERC20/ERC20.sol\":3952:3979  _allowances[owner][spender] */\n      0x00\n        /* \"@openzeppelin/contracts/token/ERC20/ERC20.sol\":3971:3978  spender */\n      dup4\n        /* \"@openzeppelin/contracts/token/ERC20/ERC20.sol\":3952:3979  _allowances[owner][spender] */\n      0xffffffffffffffffffffffffffffffffffffffff\n      and\n      0xffffffffffffffffffffffffffffffffffffffff\n      and\n      dup2\n      mstore\n      0x20\n      add\n      swap1\n      dup2\n      mstore\n      0x20\n      add\n      0x00\n      keccak256\n      sload\n        /* \"@openzeppelin/contracts/token/ERC20/ERC20.sol\":3945:3979  return _allowances[owner][spender] */\n      swap1\n      pop\n        /* \"@openzeppelin/contracts/token/ERC20/ERC20.sol\":3846:3986  function allowance(address owner, address spender) public view virtual returns (uint256) {... */\n      swap3\n      swap2\n      pop\n      pop\n      jump\t// out\n        /* \"AUCA.sol\":1027:1106  mapping(bytes => mapping(uint16 => mapping(uint64 => bool))) public nonceStatus */\n    tag_159:\n      0x09\n      dup4\n      dup1\n      mload\n      0x20\n      dup2\n      add\n      dup3\n      add\n      dup1\n      mload\n      dup5\n      dup3\n      mstore\n      0x20\n      dup4\n      add\n      0x20\n      dup6\n      add\n      keccak256\n      dup2\n      dup4\n      mstore\n      dup1\n      swap6\n      pop\n      pop\n      pop\n      pop\n      pop\n      pop\n      0x20\n      mstore\n      dup2\n      0x00\n      mstore\n      mstore(0x20, keccak256(0x00, 0x40))\n      dup1\n      0x00\n      mstore\n      keccak256(0x00, 0x40)\n      0x00\n      swap3\n      pop\n      swap3\n      pop\n      pop\n      swap1\n      sload\n      swap1\n      0x0100\n      exp\n      swap1\n      div\n      0xff\n      and\n      dup2\n      jump\t// out\n        /* \"AUCA.sol\":6500:6878  function estimateFees(address _receiver, uint256 _amount, uint16 _dstChainId, bytes memory _adapterParams)... */\n    tag_164:\n        /* \"AUCA.sol\":6654:6661  uint256 */\n      0x00\n        /* \"AUCA.sol\":6677:6697  bytes memory message */\n      dup1\n        /* \"AUCA.sol\":6711:6720  _receiver */\n      dup6\n        /* \"AUCA.sol\":6722:6729  _amount */\n      dup6\n        /* \"AUCA.sol\":6731:6740  txCounter */\n      sload(0x08)\n        /* \"AUCA.sol\":6700:6741  abi.encode(_receiver, _amount, txCounter) */\n      add(0x20, mload(0x40))\n      tag_317\n      swap4\n      swap3\n      swap2\n      swap1\n      tag_270\n      jump\t// in\n    tag_317:\n      mload(0x40)\n      0x20\n      dup2\n      dup4\n      sub\n      sub\n      dup2\n      mstore\n      swap1\n      0x40\n      mstore\n        /* \"AUCA.sol\":6677:6741  bytes memory message = abi.encode(_receiver, _amount, txCounter) */\n      swap1\n      pop\n        /* \"AUCA.sol\":6752:6764  uint256 fees */\n      0x00\n        /* \"AUCA.sol\":6769:6777  endpoint */\n      0x06\n      0x00\n      swap1\n      sload\n      swap1\n      0x0100\n      exp\n      swap1\n      div\n      0xffffffffffffffffffffffffffffffffffffffff\n      and\n        /* \"AUCA.sol\":6769:6790  endpoint.estimateFees */\n      0xffffffffffffffffffffffffffffffffffffffff\n      and\n      0x40a7bb10\n        /* \"AUCA.sol\":6791:6802  _dstChainId */\n      dup7\n        /* \"AUCA.sol\":6812:6816  this */\n      address\n        /* \"AUCA.sol\":6819:6826  message */\n      dup6\n        /* \"AUCA.sol\":6828:6833  false */\n      0x00\n        /* \"AUCA.sol\":6835:6849  _adapterParams */\n      dup10\n        /* \"AUCA.sol\":6769:6850  endpoint.estimateFees(_dstChainId, address(this), message, false, _adapterParams) */\n      mload(0x40)\n      dup7\n      0xffffffff\n      and\n      0xe0\n      shl\n      dup2\n      mstore\n      0x04\n      add\n      tag_318\n      swap6\n      swap5\n      swap4\n      swap3\n      swap2\n      swap1\n      tag_319\n      jump\t// in\n    tag_318:\n      0x40\n      dup1\n      mload\n      dup1\n      dup4\n      sub\n      dup2\n      dup7\n      gas\n      staticcall\n      iszero\n      dup1\n      iszero\n      tag_321\n      jumpi\n      returndatasize\n      0x00\n      dup1\n      returndatacopy\n      revert(0x00, returndatasize)\n    tag_321:\n      pop\n      pop\n      pop\n      pop\n      mload(0x40)\n      returndatasize\n      not(0x1f)\n      0x1f\n      dup3\n      add\n      and\n      dup3\n      add\n      dup1\n      0x40\n      mstore\n      pop\n      dup2\n      add\n      swap1\n      tag_322\n      swap2\n      swap1\n      tag_323\n      jump\t// in\n    tag_322:\n        /* \"AUCA.sol\":6751:6850  (uint256 fees,) = endpoint.estimateFees(_dstChainId, address(this), message, false, _adapterParams) */\n      pop\n      swap1\n      pop\n        /* \"AUCA.sol\":6867:6871  fees */\n      dup1\n        /* \"AUCA.sol\":6860:6871  return fees */\n      swap3\n      pop\n      pop\n      pop\n        /* \"AUCA.sol\":6500:6878  function estimateFees(address _receiver, uint256 _amount, uint16 _dstChainId, bytes memory _adapterParams)... */\n      swap5\n      swap4\n      pop\n      pop\n      pop\n      pop\n      jump\t// out\n        /* \"AUCA.sol\":5021:5240  function setTrustedRemote(uint16 _dstChainId, bytes memory _trustedRemote) external onlyOwner {... */\n    tag_170:\n        /* \"@openzeppelin/contracts/access/Ownable.sol\":1531:1544  _checkOwner() */\n      tag_325\n        /* \"@openzeppelin/contracts/access/Ownable.sol\":1531:1542  _checkOwner */\n      tag_211\n        /* \"@openzeppelin/contracts/access/Ownable.sol\":1531:1544  _checkOwner() */\n      jump\t// in\n    tag_325:\n        /* \"AUCA.sol\":5154:5168  _trustedRemote */\n      dup1\n        /* \"AUCA.sol\":5125:5138  trustedRemote */\n      0x07\n        /* \"AUCA.sol\":5125:5151  trustedRemote[_dstChainId] */\n      0x00\n        /* \"AUCA.sol\":5139:5150  _dstChainId */\n      dup5\n        /* \"AUCA.sol\":5125:5151  trustedRemote[_dstChainId] */\n      0xffff\n      and\n      0xffff\n      and\n      dup2\n      mstore\n      0x20\n      add\n      swap1\n      dup2\n      mstore\n      0x20\n      add\n      0x00\n      keccak256\n        /* \"AUCA.sol\":5125:5168  trustedRemote[_dstChainId] = _trustedRemote */\n      swap1\n      dup2\n      tag_327\n      swap2\n      swap1\n      tag_328\n      jump\t// in\n    tag_327:\n      pop\n        /* \"AUCA.sol\":5205:5216  _dstChainId */\n      dup2\n        /* \"AUCA.sol\":5184:5233  TrustedRemoteUpdated(_dstChainId, _trustedRemote) */\n      0xffff\n      and\n      0x35450a645fc8b8dcb5150ad335b4577eb182ab7e57024b8777eed53677a9fc9d\n        /* \"AUCA.sol\":5218:5232  _trustedRemote */\n      dup3\n        /* \"AUCA.sol\":5184:5233  TrustedRemoteUpdated(_dstChainId, _trustedRemote) */\n      mload(0x40)\n      tag_329\n      swap2\n      swap1\n      tag_138\n      jump\t// in\n    tag_329:\n      mload(0x40)\n      dup1\n      swap2\n      sub\n      swap1\n      log2\n        /* \"AUCA.sol\":5021:5240  function setTrustedRemote(uint16 _dstChainId, bytes memory _trustedRemote) external onlyOwner {... */\n      pop\n      pop\n      jump\t// out\n        /* \"@openzeppelin/contracts/access/Ownable.sol\":2543:2758  function transferOwnership(address newOwner) public virtual onlyOwner {... */\n    tag_174:\n        /* \"@openzeppelin/contracts/access/Ownable.sol\":1531:1544  _checkOwner() */\n      tag_331\n        /* \"@openzeppelin/contracts/access/Ownable.sol\":1531:1542  _checkOwner */\n      tag_211\n        /* \"@openzeppelin/contracts/access/Ownable.sol\":1531:1544  _checkOwner() */\n      jump\t// in\n    tag_331:\n        /* \"@openzeppelin/contracts/access/Ownable.sol\":2647:2648  0 */\n      0x00\n        /* \"@openzeppelin/contracts/access/Ownable.sol\":2627:2649  newOwner == address(0) */\n      0xffffffffffffffffffffffffffffffffffffffff\n      and\n        /* \"@openzeppelin/contracts/access/Ownable.sol\":2627:2635  newOwner */\n      dup2\n        /* \"@openzeppelin/contracts/access/Ownable.sol\":2627:2649  newOwner == address(0) */\n      0xffffffffffffffffffffffffffffffffffffffff\n      and\n      sub\n        /* \"@openzeppelin/contracts/access/Ownable.sol\":2623:2714  if (newOwner == address(0)) {... */\n      tag_333\n      jumpi\n        /* \"@openzeppelin/contracts/access/Ownable.sol\":2700:2701  0 */\n      0x00\n        /* \"@openzeppelin/contracts/access/Ownable.sol\":2672:2703  OwnableInvalidOwner(address(0)) */\n      mload(0x40)\n      0x1e4fbdf700000000000000000000000000000000000000000000000000000000\n      dup2\n      mstore\n      0x04\n      add\n      tag_334\n      swap2\n      swap1\n      tag_110\n      jump\t// in\n    tag_334:\n      mload(0x40)\n      dup1\n      swap2\n      sub\n      swap1\n      revert\n        /* \"@openzeppelin/contracts/access/Ownable.sol\":2623:2714  if (newOwner == address(0)) {... */\n    tag_333:\n        /* \"@openzeppelin/contracts/access/Ownable.sol\":2723:2751  _transferOwnership(newOwner) */\n      tag_335\n        /* \"@openzeppelin/contracts/access/Ownable.sol\":2742:2750  newOwner */\n      dup2\n        /* \"@openzeppelin/contracts/access/Ownable.sol\":2723:2741  _transferOwnership */\n      tag_283\n        /* \"@openzeppelin/contracts/access/Ownable.sol\":2723:2751  _transferOwnership(newOwner) */\n      jump\t// in\n    tag_335:\n        /* \"@openzeppelin/contracts/access/Ownable.sol\":2543:2758  function transferOwnership(address newOwner) public virtual onlyOwner {... */\n      pop\n      jump\t// out\n        /* \"@openzeppelin/contracts/token/ERC20/ERC20.sol\":7721:7929  function _mint(address account, uint256 value) internal {... */\n    tag_200:\n        /* \"@openzeppelin/contracts/token/ERC20/ERC20.sol\":7810:7811  0 */\n      0x00\n        /* \"@openzeppelin/contracts/token/ERC20/ERC20.sol\":7791:7812  account == address(0) */\n      0xffffffffffffffffffffffffffffffffffffffff\n      and\n        /* \"@openzeppelin/contracts/token/ERC20/ERC20.sol\":7791:7798  account */\n      dup3\n        /* \"@openzeppelin/contracts/token/ERC20/ERC20.sol\":7791:7812  account == address(0) */\n      0xffffffffffffffffffffffffffffffffffffffff\n      and\n      sub\n        /* \"@openzeppelin/contracts/token/ERC20/ERC20.sol\":7787:7878  if (account == address(0)) {... */\n      tag_337\n      jumpi\n        /* \"@openzeppelin/contracts/token/ERC20/ERC20.sol\":7864:7865  0 */\n      0x00\n        /* \"@openzeppelin/contracts/token/ERC20/ERC20.sol\":7835:7867  ERC20InvalidReceiver(address(0)) */\n      mload(0x40)\n      0xec442f0500000000000000000000000000000000000000000000000000000000\n      dup2\n      mstore\n      0x04\n      add\n      tag_338\n      swap2\n      swap1\n      tag_110\n      jump\t// in\n    tag_338:\n      mload(0x40)\n      dup1\n      swap2\n      sub\n      swap1\n      revert\n        /* \"@openzeppelin/contracts/token/ERC20/ERC20.sol\":7787:7878  if (account == address(0)) {... */\n    tag_337:\n        /* \"@openzeppelin/contracts/token/ERC20/ERC20.sol\":7887:7922  _update(address(0), account, value) */\n      tag_339\n        /* \"@openzeppelin/contracts/token/ERC20/ERC20.sol\":7903:7904  0 */\n      0x00\n        /* \"@openzeppelin/contracts/token/ERC20/ERC20.sol\":7907:7914  account */\n      dup4\n        /* \"@openzeppelin/contracts/token/ERC20/ERC20.sol\":7916:7921  value */\n      dup4\n        /* \"@openzeppelin/contracts/token/ERC20/ERC20.sol\":7887:7894  _update */\n      tag_340\n        /* \"@openzeppelin/contracts/token/ERC20/ERC20.sol\":7887:7922  _update(address(0), account, value) */\n      jump\t// in\n    tag_339:\n        /* \"@openzeppelin/contracts/token/ERC20/ERC20.sol\":7721:7929  function _mint(address account, uint256 value) internal {... */\n      pop\n      pop\n      jump\t// out\n        /* \"@openzeppelin/contracts/access/Ownable.sol\":1796:1958  function _checkOwner() internal view virtual {... */\n    tag_211:\n        /* \"@openzeppelin/contracts/access/Ownable.sol\":1866:1878  _msgSender() */\n      tag_342\n        /* \"@openzeppelin/contracts/access/Ownable.sol\":1866:1876  _msgSender */\n      tag_219\n        /* \"@openzeppelin/contracts/access/Ownable.sol\":1866:1878  _msgSender() */\n      jump\t// in\n    tag_342:\n        /* \"@openzeppelin/contracts/access/Ownable.sol\":1855:1878  owner() != _msgSender() */\n      0xffffffffffffffffffffffffffffffffffffffff\n      and\n        /* \"@openzeppelin/contracts/access/Ownable.sol\":1855:1862  owner() */\n      tag_343\n        /* \"@openzeppelin/contracts/access/Ownable.sol\":1855:1860  owner */\n      tag_108\n        /* \"@openzeppelin/contracts/access/Ownable.sol\":1855:1862  owner() */\n      jump\t// in\n    tag_343:\n        /* \"@openzeppelin/contracts/access/Ownable.sol\":1855:1878  owner() != _msgSender() */\n      0xffffffffffffffffffffffffffffffffffffffff\n      and\n      eq\n        /* \"@openzeppelin/contracts/access/Ownable.sol\":1851:1952  if (owner() != _msgSender()) {... */\n      tag_344\n      jumpi\n        /* \"@openzeppelin/contracts/access/Ownable.sol\":1928:1940  _msgSender() */\n      tag_345\n        /* \"@openzeppelin/contracts/access/Ownable.sol\":1928:1938  _msgSender */\n      tag_219\n        /* \"@openzeppelin/contracts/access/Ownable.sol\":1928:1940  _msgSender() */\n      jump\t// in\n    tag_345:\n        /* \"@openzeppelin/contracts/access/Ownable.sol\":1901:1941  OwnableUnauthorizedAccount(_msgSender()) */\n      mload(0x40)\n      0x118cdaa700000000000000000000000000000000000000000000000000000000\n      dup2\n      mstore\n      0x04\n      add\n      tag_346\n      swap2\n      swap1\n      tag_110\n      jump\t// in\n    tag_346:\n      mload(0x40)\n      dup1\n      swap2\n      sub\n      swap1\n      revert\n        /* \"@openzeppelin/contracts/access/Ownable.sol\":1851:1952  if (owner() != _msgSender()) {... */\n    tag_344:\n        /* \"@openzeppelin/contracts/access/Ownable.sol\":1796:1958  function _checkOwner() internal view virtual {... */\n      jump\t// out\n        /* \"@openzeppelin/contracts/utils/Context.sol\":656:752  function _msgSender() internal view virtual returns (address) {... */\n    tag_219:\n        /* \"@openzeppelin/contracts/utils/Context.sol\":709:716  address */\n      0x00\n        /* \"@openzeppelin/contracts/utils/Context.sol\":735:745  msg.sender */\n      caller\n        /* \"@openzeppelin/contracts/utils/Context.sol\":728:745  return msg.sender */\n      swap1\n      pop\n        /* \"@openzeppelin/contracts/utils/Context.sol\":656:752  function _msgSender() internal view virtual returns (address) {... */\n      swap1\n      jump\t// out\n        /* \"@openzeppelin/contracts/token/ERC20/ERC20.sol\":8989:9117  function _approve(address owner, address spender, uint256 value) internal {... */\n    tag_221:\n        /* \"@openzeppelin/contracts/token/ERC20/ERC20.sol\":9073:9110  _approve(owner, spender, value, true) */\n      tag_349\n        /* \"@openzeppelin/contracts/token/ERC20/ERC20.sol\":9082:9087  owner */\n      dup4\n        /* \"@openzeppelin/contracts/token/ERC20/ERC20.sol\":9089:9096  spender */\n      dup4\n        /* \"@openzeppelin/contracts/token/ERC20/ERC20.sol\":9098:9103  value */\n      dup4\n        /* \"@openzeppelin/contracts/token/ERC20/ERC20.sol\":9105:9109  true */\n      0x01\n        /* \"@openzeppelin/contracts/token/ERC20/ERC20.sol\":9073:9081  _approve */\n      tag_350\n        /* \"@openzeppelin/contracts/token/ERC20/ERC20.sol\":9073:9110  _approve(owner, spender, value, true) */\n      jump\t// in\n    tag_349:\n        /* \"@openzeppelin/contracts/token/ERC20/ERC20.sol\":8989:9117  function _approve(address owner, address spender, uint256 value) internal {... */\n      pop\n      pop\n      pop\n      jump\t// out\n        /* \"@openzeppelin/contracts/token/ERC20/ERC20.sol\":10663:11140  function _spendAllowance(address owner, address spender, uint256 value) internal virtual {... */\n    tag_233:\n        /* \"@openzeppelin/contracts/token/ERC20/ERC20.sol\":10762:10786  uint256 currentAllowance */\n      0x00\n        /* \"@openzeppelin/contracts/token/ERC20/ERC20.sol\":10789:10814  allowance(owner, spender) */\n      tag_352\n        /* \"@openzeppelin/contracts/token/ERC20/ERC20.sol\":10799:10804  owner */\n      dup5\n        /* \"@openzeppelin/contracts/token/ERC20/ERC20.sol\":10806:10813  spender */\n      dup5\n        /* \"@openzeppelin/contracts/token/ERC20/ERC20.sol\":10789:10798  allowance */\n      tag_153\n        /* \"@openzeppelin/contracts/token/ERC20/ERC20.sol\":10789:10814  allowance(owner, spender) */\n      jump\t// in\n    tag_352:\n        /* \"@openzeppelin/contracts/token/ERC20/ERC20.sol\":10762:10814  uint256 currentAllowance = allowance(owner, spender) */\n      swap1\n      pop\n        /* \"@openzeppelin/contracts/token/ERC20/ERC20.sol\":10848:10865  type(uint256).max */\n      0xffffffffffffffffffffffffffffffffffffffffffffffffffffffffffffffff\n        /* \"@openzeppelin/contracts/token/ERC20/ERC20.sol\":10828:10844  currentAllowance */\n      dup2\n        /* \"@openzeppelin/contracts/token/ERC20/ERC20.sol\":10828:10865  currentAllowance != type(uint256).max */\n      eq\n        /* \"@openzeppelin/contracts/token/ERC20/ERC20.sol\":10824:11134  if (currentAllowance != type(uint256).max) {... */\n      tag_353\n      jumpi\n        /* \"@openzeppelin/contracts/token/ERC20/ERC20.sol\":10904:10909  value */\n      dup2\n        /* \"@openzeppelin/contracts/token/ERC20/ERC20.sol\":10885:10901  currentAllowance */\n      dup2\n        /* \"@openzeppelin/contracts/token/ERC20/ERC20.sol\":10885:10909  currentAllowance < value */\n      lt\n        /* \"@openzeppelin/contracts/token/ERC20/ERC20.sol\":10881:11011  if (currentAllowance < value) {... */\n      iszero\n      tag_354\n      jumpi\n        /* \"@openzeppelin/contracts/token/ERC20/ERC20.sol\":10963:10970  spender */\n      dup3\n        /* \"@openzeppelin/contracts/token/ERC20/ERC20.sol\":10972:10988  currentAllowance */\n      dup2\n        /* \"@openzeppelin/contracts/token/ERC20/ERC20.sol\":10990:10995  value */\n      dup4\n        /* \"@openzeppelin/contracts/token/ERC20/ERC20.sol\":10936:10996  ERC20InsufficientAllowance(spender, currentAllowance, value) */\n      mload(0x40)\n      0xfb8f41b200000000000000000000000000000000000000000000000000000000\n      dup2\n      mstore\n      0x04\n      add\n      tag_355\n      swap4\n      swap3\n      swap2\n      swap1\n      tag_270\n      jump\t// in\n    tag_355:\n      mload(0x40)\n      dup1\n      swap2\n      sub\n      swap1\n      revert\n        /* \"@openzeppelin/contracts/token/ERC20/ERC20.sol\":10881:11011  if (currentAllowance < value) {... */\n    tag_354:\n        /* \"@openzeppelin/contracts/token/ERC20/ERC20.sol\":11052:11109  _approve(owner, spender, currentAllowance - value, false) */\n      tag_356\n        /* \"@openzeppelin/contracts/token/ERC20/ERC20.sol\":11061:11066  owner */\n      dup5\n        /* \"@openzeppelin/contracts/token/ERC20/ERC20.sol\":11068:11075  spender */\n      dup5\n        /* \"@openzeppelin/contracts/token/ERC20/ERC20.sol\":11096:11101  value */\n      dup5\n        /* \"@openzeppelin/contracts/token/ERC20/ERC20.sol\":11077:11093  currentAllowance */\n      dup5\n        /* \"@openzeppelin/contracts/token/ERC20/ERC20.sol\":11077:11101  currentAllowance - value */\n      sub\n        /* \"@openzeppelin/contracts/token/ERC20/ERC20.sol\":11103:11108  false */\n      0x00\n        /* \"@openzeppelin/contracts/token/ERC20/ERC20.sol\":11052:11060  _approve */\n      tag_350\n        /* \"@openzeppelin/contracts/token/ERC20/ERC20.sol\":11052:11109  _approve(owner, spender, currentAllowance - value, false) */\n      jump\t// in\n    tag_356:\n        /* \"@openzeppelin/contracts/token/ERC20/ERC20.sol\":10824:11134  if (currentAllowance != type(uint256).max) {... */\n    tag_353:\n        /* \"@openzeppelin/contracts/token/ERC20/ERC20.sol\":10752:11140  {... */\n      pop\n        /* \"@openzeppelin/contracts/token/ERC20/ERC20.sol\":10663:11140  function _spendAllowance(address owner, address spender, uint256 value) internal virtual {... */\n      pop\n      pop\n      pop\n      jump\t// out\n        /* \"@openzeppelin/contracts/token/ERC20/ERC20.sol\":5656:5956  function _transfer(address from, address to, uint256 value) internal {... */\n    tag_235:\n        /* \"@openzeppelin/contracts/token/ERC20/ERC20.sol\":5755:5756  0 */\n      0x00\n        /* \"@openzeppelin/contracts/token/ERC20/ERC20.sol\":5739:5757  from == address(0) */\n      0xffffffffffffffffffffffffffffffffffffffff\n      and\n        /* \"@openzeppelin/contracts/token/ERC20/ERC20.sol\":5739:5743  from */\n      dup4\n        /* \"@openzeppelin/contracts/token/ERC20/ERC20.sol\":5739:5757  from == address(0) */\n      0xffffffffffffffffffffffffffffffffffffffff\n      and\n      sub\n        /* \"@openzeppelin/contracts/token/ERC20/ERC20.sol\":5735:5821  if (from == address(0)) {... */\n      tag_358\n      jumpi\n        /* \"@openzeppelin/contracts/token/ERC20/ERC20.sol\":5807:5808  0 */\n      0x00\n        /* \"@openzeppelin/contracts/token/ERC20/ERC20.sol\":5780:5810  ERC20InvalidSender(address(0)) */\n      mload(0x40)\n      0x96c6fd1e00000000000000000000000000000000000000000000000000000000\n      dup2\n      mstore\n      0x04\n      add\n      tag_359\n      swap2\n      swap1\n      tag_110\n      jump\t// in\n    tag_359:\n      mload(0x40)\n      dup1\n      swap2\n      sub\n      swap1\n      revert\n        /* \"@openzeppelin/contracts/token/ERC20/ERC20.sol\":5735:5821  if (from == address(0)) {... */\n    tag_358:\n        /* \"@openzeppelin/contracts/token/ERC20/ERC20.sol\":5848:5849  0 */\n      0x00\n        /* \"@openzeppelin/contracts/token/ERC20/ERC20.sol\":5834:5850  to == address(0) */\n      0xffffffffffffffffffffffffffffffffffffffff\n      and\n        /* \"@openzeppelin/contracts/token/ERC20/ERC20.sol\":5834:5836  to */\n      dup3\n        /* \"@openzeppelin/contracts/token/ERC20/ERC20.sol\":5834:5850  to == address(0) */\n      0xffffffffffffffffffffffffffffffffffffffff\n      and\n      sub\n        /* \"@openzeppelin/contracts/token/ERC20/ERC20.sol\":5830:5916  if (to == address(0)) {... */\n      tag_360\n      jumpi\n        /* \"@openzeppelin/contracts/token/ERC20/ERC20.sol\":5902:5903  0 */\n      0x00\n        /* \"@openzeppelin/contracts/token/ERC20/ERC20.sol\":5873:5905  ERC20InvalidReceiver(address(0)) */\n      mload(0x40)\n      0xec442f0500000000000000000000000000000000000000000000000000000000\n      dup2\n      mstore\n      0x04\n      add\n      tag_361\n      swap2\n      swap1\n      tag_110\n      jump\t// in\n    tag_361:\n      mload(0x40)\n      dup1\n      swap2\n      sub\n      swap1\n      revert\n        /* \"@openzeppelin/contracts/token/ERC20/ERC20.sol\":5830:5916  if (to == address(0)) {... */\n    tag_360:\n        /* \"@openzeppelin/contracts/token/ERC20/ERC20.sol\":5925:5949  _update(from, to, value) */\n      tag_362\n        /* \"@openzeppelin/contracts/token/ERC20/ERC20.sol\":5933:5937  from */\n      dup4\n        /* \"@openzeppelin/contracts/token/ERC20/ERC20.sol\":5939:5941  to */\n      dup4\n        /* \"@openzeppelin/contracts/token/ERC20/ERC20.sol\":5943:5948  value */\n      dup4\n        /* \"@openzeppelin/contracts/token/ERC20/ERC20.sol\":5925:5932  _update */\n      tag_340\n        /* \"@openzeppelin/contracts/token/ERC20/ERC20.sol\":5925:5949  _update(from, to, value) */\n      jump\t// in\n    tag_362:\n        /* \"@openzeppelin/contracts/token/ERC20/ERC20.sol\":5656:5956  function _transfer(address from, address to, uint256 value) internal {... */\n      pop\n      pop\n      pop\n      jump\t// out\n        /* \"@openzeppelin/contracts/token/ERC20/ERC20.sol\":8247:8453  function _burn(address account, uint256 value) internal {... */\n    tag_255:\n        /* \"@openzeppelin/contracts/token/ERC20/ERC20.sol\":8336:8337  0 */\n      0x00\n        /* \"@openzeppelin/contracts/token/ERC20/ERC20.sol\":8317:8338  account == address(0) */\n      0xffffffffffffffffffffffffffffffffffffffff\n      and\n        /* \"@openzeppelin/contracts/token/ERC20/ERC20.sol\":8317:8324  account */\n      dup3\n        /* \"@openzeppelin/contracts/token/ERC20/ERC20.sol\":8317:8338  account == address(0) */\n      0xffffffffffffffffffffffffffffffffffffffff\n      and\n      sub\n        /* \"@openzeppelin/contracts/token/ERC20/ERC20.sol\":8313:8402  if (account == address(0)) {... */\n      tag_364\n      jumpi\n        /* \"@openzeppelin/contracts/token/ERC20/ERC20.sol\":8388:8389  0 */\n      0x00\n        /* \"@openzeppelin/contracts/token/ERC20/ERC20.sol\":8361:8391  ERC20InvalidSender(address(0)) */\n      mload(0x40)\n      0x96c6fd1e00000000000000000000000000000000000000000000000000000000\n      dup2\n      mstore\n      0x04\n      add\n      tag_365\n      swap2\n      swap1\n      tag_110\n      jump\t// in\n    tag_365:\n      mload(0x40)\n      dup1\n      swap2\n      sub\n      swap1\n      revert\n        /* \"@openzeppelin/contracts/token/ERC20/ERC20.sol\":8313:8402  if (account == address(0)) {... */\n    tag_364:\n        /* \"@openzeppelin/contracts/token/ERC20/ERC20.sol\":8411:8446  _update(account, address(0), value) */\n      tag_366\n        /* \"@openzeppelin/contracts/token/ERC20/ERC20.sol\":8419:8426  account */\n      dup3\n        /* \"@openzeppelin/contracts/token/ERC20/ERC20.sol\":8436:8437  0 */\n      0x00\n        /* \"@openzeppelin/contracts/token/ERC20/ERC20.sol\":8440:8445  value */\n      dup4\n        /* \"@openzeppelin/contracts/token/ERC20/ERC20.sol\":8411:8418  _update */\n      tag_340\n        /* \"@openzeppelin/contracts/token/ERC20/ERC20.sol\":8411:8446  _update(account, address(0), value) */\n      jump\t// in\n    tag_366:\n        /* \"@openzeppelin/contracts/token/ERC20/ERC20.sol\":8247:8453  function _burn(address account, uint256 value) internal {... */\n      pop\n      pop\n      jump\t// out\n        /* \"@openzeppelin/contracts/access/Ownable.sol\":2912:3099  function _transferOwnership(address newOwner) internal virtual {... */\n    tag_283:\n        /* \"@openzeppelin/contracts/access/Ownable.sol\":2985:3001  address oldOwner */\n      0x00\n        /* \"@openzeppelin/contracts/access/Ownable.sol\":3004:3010  _owner */\n      0x05\n      0x00\n      swap1\n      sload\n      swap1\n      0x0100\n      exp\n      swap1\n      div\n      0xffffffffffffffffffffffffffffffffffffffff\n      and\n        /* \"@openzeppelin/contracts/access/Ownable.sol\":2985:3010  address oldOwner = _owner */\n      swap1\n      pop\n        /* \"@openzeppelin/contracts/access/Ownable.sol\":3029:3037  newOwner */\n      dup2\n        /* \"@openzeppelin/contracts/access/Ownable.sol\":3020:3026  _owner */\n      0x05\n      0x00\n        /* \"@openzeppelin/contracts/access/Ownable.sol\":3020:3037  _owner = newOwner */\n      0x0100\n      exp\n      dup2\n      sload\n      dup2\n      0xffffffffffffffffffffffffffffffffffffffff\n      mul\n      not\n      and\n      swap1\n      dup4\n      0xffffffffffffffffffffffffffffffffffffffff\n      and\n      mul\n      or\n      swap1\n      sstore\n      pop\n        /* \"@openzeppelin/contracts/access/Ownable.sol\":3083:3091  newOwner */\n      dup2\n        /* \"@openzeppelin/contracts/access/Ownable.sol\":3052:3092  OwnershipTransferred(oldOwner, newOwner) */\n      0xffffffffffffffffffffffffffffffffffffffff\n      and\n        /* \"@openzeppelin/contracts/access/Ownable.sol\":3073:3081  oldOwner */\n      dup2\n        /* \"@openzeppelin/contracts/access/Ownable.sol\":3052:3092  OwnershipTransferred(oldOwner, newOwner) */\n      0xffffffffffffffffffffffffffffffffffffffff\n      and\n      0x8be0079c531659141344cd1fd0a4f28419497f9722a3daafe3b4186f6b6457e0\n      mload(0x40)\n      mload(0x40)\n      dup1\n      swap2\n      sub\n      swap1\n      log3\n        /* \"@openzeppelin/contracts/access/Ownable.sol\":2975:3099  {... */\n      pop\n        /* \"@openzeppelin/contracts/access/Ownable.sol\":2912:3099  function _transferOwnership(address newOwner) internal virtual {... */\n      pop\n      jump\t// out\n        /* \"@openzeppelin/contracts/token/ERC20/ERC20.sol\":6271:7378  function _update(address from, address to, uint256 value) internal virtual {... */\n    tag_340:\n        /* \"@openzeppelin/contracts/token/ERC20/ERC20.sol\":6376:6377  0 */\n      0x00\n        /* \"@openzeppelin/contracts/token/ERC20/ERC20.sol\":6360:6378  from == address(0) */\n      0xffffffffffffffffffffffffffffffffffffffff\n      and\n        /* \"@openzeppelin/contracts/token/ERC20/ERC20.sol\":6360:6364  from */\n      dup4\n        /* \"@openzeppelin/contracts/token/ERC20/ERC20.sol\":6360:6378  from == address(0) */\n      0xffffffffffffffffffffffffffffffffffffffff\n      and\n      sub\n        /* \"@openzeppelin/contracts/token/ERC20/ERC20.sol\":6356:6896  if (from == address(0)) {... */\n      tag_369\n      jumpi\n        /* \"@openzeppelin/contracts/token/ERC20/ERC20.sol\":6512:6517  value */\n      dup1\n        /* \"@openzeppelin/contracts/token/ERC20/ERC20.sol\":6496:6508  _totalSupply */\n      0x02\n      0x00\n        /* \"@openzeppelin/contracts/token/ERC20/ERC20.sol\":6496:6517  _totalSupply += value */\n      dup3\n      dup3\n      sload\n      tag_370\n      swap2\n      swap1\n      tag_371\n      jump\t// in\n    tag_370:\n      swap3\n      pop\n      pop\n      dup2\n      swap1\n      sstore\n      pop\n        /* \"@openzeppelin/contracts/token/ERC20/ERC20.sol\":6356:6896  if (from == address(0)) {... */\n      jump(tag_372)\n    tag_369:\n        /* \"@openzeppelin/contracts/token/ERC20/ERC20.sol\":6548:6567  uint256 fromBalance */\n      0x00\n        /* \"@openzeppelin/contracts/token/ERC20/ERC20.sol\":6570:6579  _balances */\n      dup1\n        /* \"@openzeppelin/contracts/token/ERC20/ERC20.sol\":6570:6585  _balances[from] */\n      0x00\n        /* \"@openzeppelin/contracts/token/ERC20/ERC20.sol\":6580:6584  from */\n      dup6\n        /* \"@openzeppelin/contracts/token/ERC20/ERC20.sol\":6570:6585  _balances[from] */\n      0xffffffffffffffffffffffffffffffffffffffff\n      and\n      0xffffffffffffffffffffffffffffffffffffffff\n      and\n      dup2\n      mstore\n      0x20\n      add\n      swap1\n      dup2\n      mstore\n      0x20\n      add\n      0x00\n      keccak256\n      sload\n        /* \"@openzeppelin/contracts/token/ERC20/ERC20.sol\":6548:6585  uint256 fromBalance = _balances[from] */\n      swap1\n      pop\n        /* \"@openzeppelin/contracts/token/ERC20/ERC20.sol\":6617:6622  value */\n      dup2\n        /* \"@openzeppelin/contracts/token/ERC20/ERC20.sol\":6603:6614  fromBalance */\n      dup2\n        /* \"@openzeppelin/contracts/token/ERC20/ERC20.sol\":6603:6622  fromBalance < value */\n      lt\n        /* \"@openzeppelin/contracts/token/ERC20/ERC20.sol\":6599:6714  if (fromBalance < value) {... */\n      iszero\n      tag_373\n      jumpi\n        /* \"@openzeppelin/contracts/token/ERC20/ERC20.sol\":6674:6678  from */\n      dup4\n        /* \"@openzeppelin/contracts/token/ERC20/ERC20.sol\":6680:6691  fromBalance */\n      dup2\n        /* \"@openzeppelin/contracts/token/ERC20/ERC20.sol\":6693:6698  value */\n      dup4\n        /* \"@openzeppelin/contracts/token/ERC20/ERC20.sol\":6649:6699  ERC20InsufficientBalance(from, fromBalance, value) */\n      mload(0x40)\n      0xe450d38c00000000000000000000000000000000000000000000000000000000\n      dup2\n      mstore\n      0x04\n      add\n      tag_374\n      swap4\n      swap3\n      swap2\n      swap1\n      tag_270\n      jump\t// in\n    tag_374:\n      mload(0x40)\n      dup1\n      swap2\n      sub\n      swap1\n      revert\n        /* \"@openzeppelin/contracts/token/ERC20/ERC20.sol\":6599:6714  if (fromBalance < value) {... */\n    tag_373:\n        /* \"@openzeppelin/contracts/token/ERC20/ERC20.sol\":6866:6871  value */\n      dup2\n        /* \"@openzeppelin/contracts/token/ERC20/ERC20.sol\":6852:6863  fromBalance */\n      dup2\n        /* \"@openzeppelin/contracts/token/ERC20/ERC20.sol\":6852:6871  fromBalance - value */\n      sub\n        /* \"@openzeppelin/contracts/token/ERC20/ERC20.sol\":6834:6843  _balances */\n      0x00\n        /* \"@openzeppelin/contracts/token/ERC20/ERC20.sol\":6834:6849  _balances[from] */\n      dup1\n        /* \"@openzeppelin/contracts/token/ERC20/ERC20.sol\":6844:6848  from */\n      dup7\n        /* \"@openzeppelin/contracts/token/ERC20/ERC20.sol\":6834:6849  _balances[from] */\n      0xffffffffffffffffffffffffffffffffffffffff\n      and\n      0xffffffffffffffffffffffffffffffffffffffff\n      and\n      dup2\n      mstore\n      0x20\n      add\n      swap1\n      dup2\n      mstore\n      0x20\n      add\n      0x00\n      keccak256\n        /* \"@openzeppelin/contracts/token/ERC20/ERC20.sol\":6834:6871  _balances[from] = fromBalance - value */\n      dup2\n      swap1\n      sstore\n      pop\n        /* \"@openzeppelin/contracts/token/ERC20/ERC20.sol\":6534:6896  {... */\n      pop\n        /* \"@openzeppelin/contracts/token/ERC20/ERC20.sol\":6356:6896  if (from == address(0)) {... */\n    tag_372:\n        /* \"@openzeppelin/contracts/token/ERC20/ERC20.sol\":6924:6925  0 */\n      0x00\n        /* \"@openzeppelin/contracts/token/ERC20/ERC20.sol\":6910:6926  to == address(0) */\n      0xffffffffffffffffffffffffffffffffffffffff\n      and\n        /* \"@openzeppelin/contracts/token/ERC20/ERC20.sol\":6910:6912  to */\n      dup3\n        /* \"@openzeppelin/contracts/token/ERC20/ERC20.sol\":6910:6926  to == address(0) */\n      0xffffffffffffffffffffffffffffffffffffffff\n      and\n      sub\n        /* \"@openzeppelin/contracts/token/ERC20/ERC20.sol\":6906:7331  if (to == address(0)) {... */\n      tag_375\n      jumpi\n        /* \"@openzeppelin/contracts/token/ERC20/ERC20.sol\":7089:7094  value */\n      dup1\n        /* \"@openzeppelin/contracts/token/ERC20/ERC20.sol\":7073:7085  _totalSupply */\n      0x02\n      0x00\n        /* \"@openzeppelin/contracts/token/ERC20/ERC20.sol\":7073:7094  _totalSupply -= value */\n      dup3\n      dup3\n      sload\n      sub\n      swap3\n      pop\n      pop\n      dup2\n      swap1\n      sstore\n      pop\n        /* \"@openzeppelin/contracts/token/ERC20/ERC20.sol\":6906:7331  if (to == address(0)) {... */\n      jump(tag_376)\n    tag_375:\n        /* \"@openzeppelin/contracts/token/ERC20/ERC20.sol\":7301:7306  value */\n      dup1\n        /* \"@openzeppelin/contracts/token/ERC20/ERC20.sol\":7284:7293  _balances */\n      0x00\n        /* \"@openzeppelin/contracts/token/ERC20/ERC20.sol\":7284:7297  _balances[to] */\n      dup1\n        /* \"@openzeppelin/contracts/token/ERC20/ERC20.sol\":7294:7296  to */\n      dup5\n        /* \"@openzeppelin/contracts/token/ERC20/ERC20.sol\":7284:7297  _balances[to] */\n      0xffffffffffffffffffffffffffffffffffffffff\n      and\n      0xffffffffffffffffffffffffffffffffffffffff\n      and\n      dup2\n      mstore\n      0x20\n      add\n      swap1\n      dup2\n      mstore\n      0x20\n      add\n      0x00\n      keccak256\n      0x00\n        /* \"@openzeppelin/contracts/token/ERC20/ERC20.sol\":7284:7306  _balances[to] += value */\n      dup3\n      dup3\n      sload\n      add\n      swap3\n      pop\n      pop\n      dup2\n      swap1\n      sstore\n      pop\n        /* \"@openzeppelin/contracts/token/ERC20/ERC20.sol\":6906:7331  if (to == address(0)) {... */\n    tag_376:\n        /* \"@openzeppelin/contracts/token/ERC20/ERC20.sol\":7361:7363  to */\n      dup2\n        /* \"@openzeppelin/contracts/token/ERC20/ERC20.sol\":7346:7371  Transfer(from, to, value) */\n      0xffffffffffffffffffffffffffffffffffffffff\n      and\n        /* \"@openzeppelin/contracts/token/ERC20/ERC20.sol\":7355:7359  from */\n      dup4\n        /* \"@openzeppelin/contracts/token/ERC20/ERC20.sol\":7346:7371  Transfer(from, to, value) */\n      0xffffffffffffffffffffffffffffffffffffffff\n      and\n      0xddf252ad1be2c89b69c2b068fc378daa952ba7f163c4a11628f55a4df523b3ef\n        /* \"@openzeppelin/contracts/token/ERC20/ERC20.sol\":7365:7370  value */\n      dup4\n        /* \"@openzeppelin/contracts/token/ERC20/ERC20.sol\":7346:7371  Transfer(from, to, value) */\n      mload(0x40)\n      tag_377\n      swap2\n      swap1\n      tag_67\n      jump\t// in\n    tag_377:\n      mload(0x40)\n      dup1\n      swap2\n      sub\n      swap1\n      log3\n        /* \"@openzeppelin/contracts/token/ERC20/ERC20.sol\":6271:7378  function _update(address from, address to, uint256 value) internal virtual {... */\n      pop\n      pop\n      pop\n      jump\t// out\n        /* \"@openzeppelin/contracts/token/ERC20/ERC20.sol\":9949:10381  function _approve(address owner, address spender, uint256 value, bool emitEvent) internal virtual {... */\n    tag_350:\n        /* \"@openzeppelin/contracts/token/ERC20/ERC20.sol\":10078:10079  0 */\n      0x00\n        /* \"@openzeppelin/contracts/token/ERC20/ERC20.sol\":10061:10080  owner == address(0) */\n      0xffffffffffffffffffffffffffffffffffffffff\n      and\n        /* \"@openzeppelin/contracts/token/ERC20/ERC20.sol\":10061:10066  owner */\n      dup5\n        /* \"@openzeppelin/contracts/token/ERC20/ERC20.sol\":10061:10080  owner == address(0) */\n      0xffffffffffffffffffffffffffffffffffffffff\n      and\n      sub\n        /* \"@openzeppelin/contracts/token/ERC20/ERC20.sol\":10057:10146  if (owner == address(0)) {... */\n      tag_379\n      jumpi\n        /* \"@openzeppelin/contracts/token/ERC20/ERC20.sol\":10132:10133  0 */\n      0x00\n        /* \"@openzeppelin/contracts/token/ERC20/ERC20.sol\":10103:10135  ERC20InvalidApprover(address(0)) */\n      mload(0x40)\n      0xe602df0500000000000000000000000000000000000000000000000000000000\n      dup2\n      mstore\n      0x04\n      add\n      tag_380\n      swap2\n      swap1\n      tag_110\n      jump\t// in\n    tag_380:\n      mload(0x40)\n      dup1\n      swap2\n      sub\n      swap1\n      revert\n        /* \"@openzeppelin/contracts/token/ERC20/ERC20.sol\":10057:10146  if (owner == address(0)) {... */\n    tag_379:\n        /* \"@openzeppelin/contracts/token/ERC20/ERC20.sol\":10178:10179  0 */\n      0x00\n        /* \"@openzeppelin/contracts/token/ERC20/ERC20.sol\":10159:10180  spender == address(0) */\n      0xffffffffffffffffffffffffffffffffffffffff\n      and\n        /* \"@openzeppelin/contracts/token/ERC20/ERC20.sol\":10159:10166  spender */\n      dup4\n        /* \"@openzeppelin/contracts/token/ERC20/ERC20.sol\":10159:10180  spender == address(0) */\n      0xffffffffffffffffffffffffffffffffffffffff\n      and\n      sub\n        /* \"@openzeppelin/contracts/token/ERC20/ERC20.sol\":10155:10245  if (spender == address(0)) {... */\n      tag_381\n      jumpi\n        /* \"@openzeppelin/contracts/token/ERC20/ERC20.sol\":10231:10232  0 */\n      0x00\n        /* \"@openzeppelin/contracts/token/ERC20/ERC20.sol\":10203:10234  ERC20InvalidSpender(address(0)) */\n      mload(0x40)\n      0x94280d6200000000000000000000000000000000000000000000000000000000\n      dup2\n      mstore\n      0x04\n      add\n      tag_382\n      swap2\n      swap1\n      tag_110\n      jump\t// in\n    tag_382:\n      mload(0x40)\n      dup1\n      swap2\n      sub\n      swap1\n      revert\n        /* \"@openzeppelin/contracts/token/ERC20/ERC20.sol\":10155:10245  if (spender == address(0)) {... */\n    tag_381:\n        /* \"@openzeppelin/contracts/token/ERC20/ERC20.sol\":10284:10289  value */\n      dup2\n        /* \"@openzeppelin/contracts/token/ERC20/ERC20.sol\":10254:10265  _allowances */\n      0x01\n        /* \"@openzeppelin/contracts/token/ERC20/ERC20.sol\":10254:10272  _allowances[owner] */\n      0x00\n        /* \"@openzeppelin/contracts/token/ERC20/ERC20.sol\":10266:10271  owner */\n      dup7\n        /* \"@openzeppelin/contracts/token/ERC20/ERC20.sol\":10254:10272  _allowances[owner] */\n      0xffffffffffffffffffffffffffffffffffffffff\n      and\n      0xffffffffffffffffffffffffffffffffffffffff\n      and\n      dup2\n      mstore\n      0x20\n      add\n      swap1\n      dup2\n      mstore\n      0x20\n      add\n      0x00\n      keccak256\n        /* \"@openzeppelin/contracts/token/ERC20/ERC20.sol\":10254:10281  _allowances[owner][spender] */\n      0x00\n        /* \"@openzeppelin/contracts/token/ERC20/ERC20.sol\":10273:10280  spender */\n      dup6\n        /* \"@openzeppelin/contracts/token/ERC20/ERC20.sol\":10254:10281  _allowances[owner][spender] */\n      0xffffffffffffffffffffffffffffffffffffffff\n      and\n      0xffffffffffffffffffffffffffffffffffffffff\n      and\n      dup2\n      mstore\n      0x20\n      add\n      swap1\n      dup2\n      mstore\n      0x20\n      add\n      0x00\n      keccak256\n        /* \"@openzeppelin/contracts/token/ERC20/ERC20.sol\":10254:10289  _allowances[owner][spender] = value */\n      dup2\n      swap1\n      sstore\n      pop\n        /* \"@openzeppelin/contracts/token/ERC20/ERC20.sol\":10303:10312  emitEvent */\n      dup1\n        /* \"@openzeppelin/contracts/token/ERC20/ERC20.sol\":10299:10375  if (emitEvent) {... */\n      iszero\n      tag_383\n      jumpi\n        /* \"@openzeppelin/contracts/token/ERC20/ERC20.sol\":10349:10356  spender */\n      dup3\n        /* \"@openzeppelin/contracts/token/ERC20/ERC20.sol\":10333:10364  Approval(owner, spender, value) */\n      0xffffffffffffffffffffffffffffffffffffffff\n      and\n        /* \"@openzeppelin/contracts/token/ERC20/ERC20.sol\":10342:10347  owner */\n      dup5\n        /* \"@openzeppelin/contracts/token/ERC20/ERC20.sol\":10333:10364  Approval(owner, spender, value) */\n      0xffffffffffffffffffffffffffffffffffffffff\n      and\n      0x8c5be1e5ebec7d5bd14f71427d1e84f3dd0314c0f7b2291e5b200ac8c7c3b925\n        /* \"@openzeppelin/contracts/token/ERC20/ERC20.sol\":10358:10363  value */\n      dup5\n        /* \"@openzeppelin/contracts/token/ERC20/ERC20.sol\":10333:10364  Approval(owner, spender, value) */\n      mload(0x40)\n      tag_384\n      swap2\n      swap1\n      tag_67\n      jump\t// in\n    tag_384:\n      mload(0x40)\n      dup1\n      swap2\n      sub\n      swap1\n      log3\n        /* \"@openzeppelin/contracts/token/ERC20/ERC20.sol\":10299:10375  if (emitEvent) {... */\n    tag_383:\n        /* \"@openzeppelin/contracts/token/ERC20/ERC20.sol\":9949:10381  function _approve(address owner, address spender, uint256 value, bool emitEvent) internal virtual {... */\n      pop\n      pop\n      pop\n      pop\n      jump\t// out\n        /* \"#utility.yul\":7:82   */\n    tag_385:\n        /* \"#utility.yul\":40:46   */\n      0x00\n        /* \"#utility.yul\":73:75   */\n      0x40\n        /* \"#utility.yul\":67:76   */\n      mload\n        /* \"#utility.yul\":57:76   */\n      swap1\n      pop\n        /* \"#utility.yul\":7:82   */\n      swap1\n      jump\t// out\n        /* \"#utility.yul\":88:205   */\n    tag_386:\n        /* \"#utility.yul\":197:198   */\n      0x00\n        /* \"#utility.yul\":194:195   */\n      dup1\n        /* \"#utility.yul\":187:199   */\n      revert\n        /* \"#utility.yul\":211:328   */\n    tag_387:\n        /* \"#utility.yul\":320:321   */\n      0x00\n        /* \"#utility.yul\":317:318   */\n      dup1\n        /* \"#utility.yul\":310:322   */\n      revert\n        /* \"#utility.yul\":334:423   */\n    tag_388:\n        /* \"#utility.yul\":370:377   */\n      0x00\n        /* \"#utility.yul\":410:416   */\n      0xffff\n        /* \"#utility.yul\":403:408   */\n      dup3\n        /* \"#utility.yul\":399:417   */\n      and\n        /* \"#utility.yul\":388:417   */\n      swap1\n      pop\n        /* \"#utility.yul\":334:423   */\n      swap2\n      swap1\n      pop\n      jump\t// out\n        /* \"#utility.yul\":429:549   */\n    tag_389:\n        /* \"#utility.yul\":501:524   */\n      tag_480\n        /* \"#utility.yul\":518:523   */\n      dup2\n        /* \"#utility.yul\":501:524   */\n      tag_388\n      jump\t// in\n    tag_480:\n        /* \"#utility.yul\":494:499   */\n      dup2\n        /* \"#utility.yul\":491:525   */\n      eq\n        /* \"#utility.yul\":481:543   */\n      tag_481\n      jumpi\n        /* \"#utility.yul\":539:540   */\n      0x00\n        /* \"#utility.yul\":536:537   */\n      dup1\n        /* \"#utility.yul\":529:541   */\n      revert\n        /* \"#utility.yul\":481:543   */\n    tag_481:\n        /* \"#utility.yul\":429:549   */\n      pop\n      jump\t// out\n        /* \"#utility.yul\":555:692   */\n    tag_390:\n        /* \"#utility.yul\":600:605   */\n      0x00\n        /* \"#utility.yul\":638:644   */\n      dup2\n        /* \"#utility.yul\":625:645   */\n      calldataload\n        /* \"#utility.yul\":616:645   */\n      swap1\n      pop\n        /* \"#utility.yul\":654:686   */\n      tag_483\n        /* \"#utility.yul\":680:685   */\n      dup2\n        /* \"#utility.yul\":654:686   */\n      tag_389\n      jump\t// in\n    tag_483:\n        /* \"#utility.yul\":555:692   */\n      swap3\n      swap2\n      pop\n      pop\n      jump\t// out\n        /* \"#utility.yul\":698:815   */\n    tag_391:\n        /* \"#utility.yul\":807:808   */\n      0x00\n        /* \"#utility.yul\":804:805   */\n      dup1\n        /* \"#utility.yul\":797:809   */\n      revert\n        /* \"#utility.yul\":821:938   */\n    tag_392:\n        /* \"#utility.yul\":930:931   */\n      0x00\n        /* \"#utility.yul\":927:928   */\n      dup1\n        /* \"#utility.yul\":920:932   */\n      revert\n        /* \"#utility.yul\":944:1061   */\n    tag_393:\n        /* \"#utility.yul\":1053:1054   */\n      0x00\n        /* \"#utility.yul\":1050:1051   */\n      dup1\n        /* \"#utility.yul\":1043:1055   */\n      revert\n        /* \"#utility.yul\":1080:1632   */\n    tag_394:\n        /* \"#utility.yul\":1137:1145   */\n      0x00\n        /* \"#utility.yul\":1147:1153   */\n      dup1\n        /* \"#utility.yul\":1197:1200   */\n      dup4\n        /* \"#utility.yul\":1190:1194   */\n      0x1f\n        /* \"#utility.yul\":1182:1188   */\n      dup5\n        /* \"#utility.yul\":1178:1195   */\n      add\n        /* \"#utility.yul\":1174:1201   */\n      slt\n        /* \"#utility.yul\":1164:1286   */\n      tag_488\n      jumpi\n        /* \"#utility.yul\":1205:1284   */\n      tag_489\n      tag_391\n      jump\t// in\n    tag_489:\n        /* \"#utility.yul\":1164:1286   */\n    tag_488:\n        /* \"#utility.yul\":1318:1324   */\n      dup3\n        /* \"#utility.yul\":1305:1325   */\n      calldataload\n        /* \"#utility.yul\":1295:1325   */\n      swap1\n      pop\n        /* \"#utility.yul\":1348:1366   */\n      0xffffffffffffffff\n        /* \"#utility.yul\":1340:1346   */\n      dup2\n        /* \"#utility.yul\":1337:1367   */\n      gt\n        /* \"#utility.yul\":1334:1451   */\n      iszero\n      tag_490\n      jumpi\n        /* \"#utility.yul\":1370:1449   */\n      tag_491\n      tag_392\n      jump\t// in\n    tag_491:\n        /* \"#utility.yul\":1334:1451   */\n    tag_490:\n        /* \"#utility.yul\":1484:1488   */\n      0x20\n        /* \"#utility.yul\":1476:1482   */\n      dup4\n        /* \"#utility.yul\":1472:1489   */\n      add\n        /* \"#utility.yul\":1460:1489   */\n      swap2\n      pop\n        /* \"#utility.yul\":1538:1541   */\n      dup4\n        /* \"#utility.yul\":1530:1534   */\n      0x01\n        /* \"#utility.yul\":1522:1528   */\n      dup3\n        /* \"#utility.yul\":1518:1535   */\n      mul\n        /* \"#utility.yul\":1508:1516   */\n      dup4\n        /* \"#utility.yul\":1504:1536   */\n      add\n        /* \"#utility.yul\":1501:1542   */\n      gt\n        /* \"#utility.yul\":1498:1626   */\n      iszero\n      tag_492\n      jumpi\n        /* \"#utility.yul\":1545:1624   */\n      tag_493\n      tag_393\n      jump\t// in\n    tag_493:\n        /* \"#utility.yul\":1498:1626   */\n    tag_492:\n        /* \"#utility.yul\":1080:1632   */\n      swap3\n      pop\n      swap3\n      swap1\n      pop\n      jump\t// out\n        /* \"#utility.yul\":1638:1739   */\n    tag_395:\n        /* \"#utility.yul\":1674:1681   */\n      0x00\n        /* \"#utility.yul\":1714:1732   */\n      0xffffffffffffffff\n        /* \"#utility.yul\":1707:1712   */\n      dup3\n        /* \"#utility.yul\":1703:1733   */\n      and\n        /* \"#utility.yul\":1692:1733   */\n      swap1\n      pop\n        /* \"#utility.yul\":1638:1739   */\n      swap2\n      swap1\n      pop\n      jump\t// out\n        /* \"#utility.yul\":1745:1865   */\n    tag_396:\n        /* \"#utility.yul\":1817:1840   */\n      tag_496\n        /* \"#utility.yul\":1834:1839   */\n      dup2\n        /* \"#utility.yul\":1817:1840   */\n      tag_395\n      jump\t// in\n    tag_496:\n        /* \"#utility.yul\":1810:1815   */\n      dup2\n        /* \"#utility.yul\":1807:1841   */\n      eq\n        /* \"#utility.yul\":1797:1859   */\n      tag_497\n      jumpi\n        /* \"#utility.yul\":1855:1856   */\n      0x00\n        /* \"#utility.yul\":1852:1853   */\n      dup1\n        /* \"#utility.yul\":1845:1857   */\n      revert\n        /* \"#utility.yul\":1797:1859   */\n    tag_497:\n        /* \"#utility.yul\":1745:1865   */\n      pop\n      jump\t// out\n        /* \"#utility.yul\":1871:2008   */\n    tag_397:\n        /* \"#utility.yul\":1916:1921   */\n      0x00\n        /* \"#utility.yul\":1954:1960   */\n      dup2\n        /* \"#utility.yul\":1941:1961   */\n      calldataload\n        /* \"#utility.yul\":1932:1961   */\n      swap1\n      pop\n        /* \"#utility.yul\":1970:2002   */\n      tag_499\n        /* \"#utility.yul\":1996:2001   */\n      dup2\n        /* \"#utility.yul\":1970:2002   */\n      tag_396\n      jump\t// in\n    tag_499:\n        /* \"#utility.yul\":1871:2008   */\n      swap3\n      swap2\n      pop\n      pop\n      jump\t// out\n        /* \"#utility.yul\":2014:3171   */\n    tag_40:\n        /* \"#utility.yul\":2120:2126   */\n      0x00\n        /* \"#utility.yul\":2128:2134   */\n      dup1\n        /* \"#utility.yul\":2136:2142   */\n      0x00\n        /* \"#utility.yul\":2144:2150   */\n      dup1\n        /* \"#utility.yul\":2152:2158   */\n      0x00\n        /* \"#utility.yul\":2160:2166   */\n      dup1\n        /* \"#utility.yul\":2209:2212   */\n      0x80\n        /* \"#utility.yul\":2197:2206   */\n      dup8\n        /* \"#utility.yul\":2188:2195   */\n      dup10\n        /* \"#utility.yul\":2184:2207   */\n      sub\n        /* \"#utility.yul\":2180:2213   */\n      slt\n        /* \"#utility.yul\":2177:2297   */\n      iszero\n      tag_501\n      jumpi\n        /* \"#utility.yul\":2216:2295   */\n      tag_502\n      tag_386\n      jump\t// in\n    tag_502:\n        /* \"#utility.yul\":2177:2297   */\n    tag_501:\n        /* \"#utility.yul\":2336:2337   */\n      0x00\n        /* \"#utility.yul\":2361:2413   */\n      tag_503\n        /* \"#utility.yul\":2405:2412   */\n      dup10\n        /* \"#utility.yul\":2396:2402   */\n      dup3\n        /* \"#utility.yul\":2385:2394   */\n      dup11\n        /* \"#utility.yul\":2381:2403   */\n      add\n        /* \"#utility.yul\":2361:2413   */\n      tag_390\n      jump\t// in\n    tag_503:\n        /* \"#utility.yul\":2351:2413   */\n      swap7\n      pop\n        /* \"#utility.yul\":2307:2423   */\n      pop\n        /* \"#utility.yul\":2490:2492   */\n      0x20\n        /* \"#utility.yul\":2479:2488   */\n      dup8\n        /* \"#utility.yul\":2475:2493   */\n      add\n        /* \"#utility.yul\":2462:2494   */\n      calldataload\n        /* \"#utility.yul\":2521:2539   */\n      0xffffffffffffffff\n        /* \"#utility.yul\":2513:2519   */\n      dup2\n        /* \"#utility.yul\":2510:2540   */\n      gt\n        /* \"#utility.yul\":2507:2624   */\n      iszero\n      tag_504\n      jumpi\n        /* \"#utility.yul\":2543:2622   */\n      tag_505\n      tag_387\n      jump\t// in\n    tag_505:\n        /* \"#utility.yul\":2507:2624   */\n    tag_504:\n        /* \"#utility.yul\":2656:2720   */\n      tag_506\n        /* \"#utility.yul\":2712:2719   */\n      dup10\n        /* \"#utility.yul\":2703:2709   */\n      dup3\n        /* \"#utility.yul\":2692:2701   */\n      dup11\n        /* \"#utility.yul\":2688:2710   */\n      add\n        /* \"#utility.yul\":2656:2720   */\n      tag_394\n      jump\t// in\n    tag_506:\n        /* \"#utility.yul\":2638:2720   */\n      swap6\n      pop\n      swap6\n      pop\n        /* \"#utility.yul\":2433:2730   */\n      pop\n        /* \"#utility.yul\":2769:2771   */\n      0x40\n        /* \"#utility.yul\":2795:2847   */\n      tag_507\n        /* \"#utility.yul\":2839:2846   */\n      dup10\n        /* \"#utility.yul\":2830:2836   */\n      dup3\n        /* \"#utility.yul\":2819:2828   */\n      dup11\n        /* \"#utility.yul\":2815:2837   */\n      add\n        /* \"#utility.yul\":2795:2847   */\n      tag_397\n      jump\t// in\n    tag_507:\n        /* \"#utility.yul\":2785:2847   */\n      swap4\n      pop\n        /* \"#utility.yul\":2740:2857   */\n      pop\n        /* \"#utility.yul\":2924:2926   */\n      0x60\n        /* \"#utility.yul\":2913:2922   */\n      dup8\n        /* \"#utility.yul\":2909:2927   */\n      add\n        /* \"#utility.yul\":2896:2928   */\n      calldataload\n        /* \"#utility.yul\":2955:2973   */\n      0xffffffffffffffff\n        /* \"#utility.yul\":2947:2953   */\n      dup2\n        /* \"#utility.yul\":2944:2974   */\n      gt\n        /* \"#utility.yul\":2941:3058   */\n      iszero\n      tag_508\n      jumpi\n        /* \"#utility.yul\":2977:3056   */\n      tag_509\n      tag_387\n      jump\t// in\n    tag_509:\n        /* \"#utility.yul\":2941:3058   */\n    tag_508:\n        /* \"#utility.yul\":3090:3154   */\n      tag_510\n        /* \"#utility.yul\":3146:3153   */\n      dup10\n        /* \"#utility.yul\":3137:3143   */\n      dup3\n        /* \"#utility.yul\":3126:3135   */\n      dup11\n        /* \"#utility.yul\":3122:3144   */\n      add\n        /* \"#utility.yul\":3090:3154   */\n      tag_394\n      jump\t// in\n    tag_510:\n        /* \"#utility.yul\":3072:3154   */\n      swap3\n      pop\n      swap3\n      pop\n        /* \"#utility.yul\":2867:3164   */\n      pop\n        /* \"#utility.yul\":2014:3171   */\n      swap3\n      swap6\n      pop\n      swap3\n      swap6\n      pop\n      swap3\n      swap6\n      jump\t// out\n        /* \"#utility.yul\":3177:3276   */\n    tag_398:\n        /* \"#utility.yul\":3229:3235   */\n      0x00\n        /* \"#utility.yul\":3263:3268   */\n      dup2\n        /* \"#utility.yul\":3257:3269   */\n      mload\n        /* \"#utility.yul\":3247:3269   */\n      swap1\n      pop\n        /* \"#utility.yul\":3177:3276   */\n      swap2\n      swap1\n      pop\n      jump\t// out\n        /* \"#utility.yul\":3282:3451   */\n    tag_399:\n        /* \"#utility.yul\":3366:3377   */\n      0x00\n        /* \"#utility.yul\":3400:3406   */\n      dup3\n        /* \"#utility.yul\":3395:3398   */\n      dup3\n        /* \"#utility.yul\":3388:3407   */\n      mstore\n        /* \"#utility.yul\":3440:3444   */\n      0x20\n        /* \"#utility.yul\":3435:3438   */\n      dup3\n        /* \"#utility.yul\":3431:3445   */\n      add\n        /* \"#utility.yul\":3416:3445   */\n      swap1\n      pop\n        /* \"#utility.yul\":3282:3451   */\n      swap3\n      swap2\n      pop\n      pop\n      jump\t// out\n        /* \"#utility.yul\":3457:3703   */\n    tag_400:\n        /* \"#utility.yul\":3538:3539   */\n      0x00\n        /* \"#utility.yul\":3548:3661   */\n    tag_514:\n        /* \"#utility.yul\":3562:3568   */\n      dup4\n        /* \"#utility.yul\":3559:3560   */\n      dup2\n        /* \"#utility.yul\":3556:3569   */\n      lt\n        /* \"#utility.yul\":3548:3661   */\n      iszero\n      tag_516\n      jumpi\n        /* \"#utility.yul\":3647:3648   */\n      dup1\n        /* \"#utility.yul\":3642:3645   */\n      dup3\n        /* \"#utility.yul\":3638:3649   */\n      add\n        /* \"#utility.yul\":3632:3650   */\n      mload\n        /* \"#utility.yul\":3628:3629   */\n      dup2\n        /* \"#utility.yul\":3623:3626   */\n      dup5\n        /* \"#utility.yul\":3619:3630   */\n      add\n        /* \"#utility.yul\":3612:3651   */\n      mstore\n        /* \"#utility.yul\":3584:3586   */\n      0x20\n        /* \"#utility.yul\":3581:3582   */\n      dup2\n        /* \"#utility.yul\":3577:3587   */\n      add\n        /* \"#utility.yul\":3572:3587   */\n      swap1\n      pop\n        /* \"#utility.yul\":3548:3661   */\n      jump(tag_514)\n    tag_516:\n        /* \"#utility.yul\":3695:3696   */\n      0x00\n        /* \"#utility.yul\":3686:3692   */\n      dup5\n        /* \"#utility.yul\":3681:3684   */\n      dup5\n        /* \"#utility.yul\":3677:3693   */\n      add\n        /* \"#utility.yul\":3670:3697   */\n      mstore\n        /* \"#utility.yul\":3519:3703   */\n      pop\n        /* \"#utility.yul\":3457:3703   */\n      pop\n      pop\n      pop\n      jump\t// out\n        /* \"#utility.yul\":3709:3811   */\n    tag_401:\n        /* \"#utility.yul\":3750:3756   */\n      0x00\n        /* \"#utility.yul\":3801:3803   */\n      0x1f\n        /* \"#utility.yul\":3797:3804   */\n      not\n        /* \"#utility.yul\":3792:3794   */\n      0x1f\n        /* \"#utility.yul\":3785:3790   */\n      dup4\n        /* \"#utility.yul\":3781:3795   */\n      add\n        /* \"#utility.yul\":3777:3805   */\n      and\n        /* \"#utility.yul\":3767:3805   */\n      swap1\n      pop\n        /* \"#utility.yul\":3709:3811   */\n      swap2\n      swap1\n      pop\n      jump\t// out\n        /* \"#utility.yul\":3817:4194   */\n    tag_402:\n        /* \"#utility.yul\":3905:3908   */\n      0x00\n        /* \"#utility.yul\":3933:3972   */\n      tag_519\n        /* \"#utility.yul\":3966:3971   */\n      dup3\n        /* \"#utility.yul\":3933:3972   */\n      tag_398\n      jump\t// in\n    tag_519:\n        /* \"#utility.yul\":3988:4059   */\n      tag_520\n        /* \"#utility.yul\":4052:4058   */\n      dup2\n        /* \"#utility.yul\":4047:4050   */\n      dup6\n        /* \"#utility.yul\":3988:4059   */\n      tag_399\n      jump\t// in\n    tag_520:\n        /* \"#utility.yul\":3981:4059   */\n      swap4\n      pop\n        /* \"#utility.yul\":4068:4133   */\n      tag_521\n        /* \"#utility.yul\":4126:4132   */\n      dup2\n        /* \"#utility.yul\":4121:4124   */\n      dup6\n        /* \"#utility.yul\":4114:4118   */\n      0x20\n        /* \"#utility.yul\":4107:4112   */\n      dup7\n        /* \"#utility.yul\":4103:4119   */\n      add\n        /* \"#utility.yul\":4068:4133   */\n      tag_400\n      jump\t// in\n    tag_521:\n        /* \"#utility.yul\":4158:4187   */\n      tag_522\n        /* \"#utility.yul\":4180:4186   */\n      dup2\n        /* \"#utility.yul\":4158:4187   */\n      tag_401\n      jump\t// in\n    tag_522:\n        /* \"#utility.yul\":4153:4156   */\n      dup5\n        /* \"#utility.yul\":4149:4188   */\n      add\n        /* \"#utility.yul\":4142:4188   */\n      swap2\n      pop\n        /* \"#utility.yul\":3909:4194   */\n      pop\n        /* \"#utility.yul\":3817:4194   */\n      swap3\n      swap2\n      pop\n      pop\n      jump\t// out\n        /* \"#utility.yul\":4200:4513   */\n    tag_46:\n        /* \"#utility.yul\":4313:4317   */\n      0x00\n        /* \"#utility.yul\":4351:4353   */\n      0x20\n        /* \"#utility.yul\":4340:4349   */\n      dup3\n        /* \"#utility.yul\":4336:4354   */\n      add\n        /* \"#utility.yul\":4328:4354   */\n      swap1\n      pop\n        /* \"#utility.yul\":4400:4409   */\n      dup2\n        /* \"#utility.yul\":4394:4398   */\n      dup2\n        /* \"#utility.yul\":4390:4410   */\n      sub\n        /* \"#utility.yul\":4386:4387   */\n      0x00\n        /* \"#utility.yul\":4375:4384   */\n      dup4\n        /* \"#utility.yul\":4371:4388   */\n      add\n        /* \"#utility.yul\":4364:4411   */\n      mstore\n        /* \"#utility.yul\":4428:4506   */\n      tag_524\n        /* \"#utility.yul\":4501:4505   */\n      dup2\n        /* \"#utility.yul\":4492:4498   */\n      dup5\n        /* \"#utility.yul\":4428:4506   */\n      tag_402\n      jump\t// in\n    tag_524:\n        /* \"#utility.yul\":4420:4506   */\n      swap1\n      pop\n        /* \"#utility.yul\":4200:4513   */\n      swap3\n      swap2\n      pop\n      pop\n      jump\t// out\n        /* \"#utility.yul\":4519:4846   */\n    tag_50:\n        /* \"#utility.yul\":4577:4583   */\n      0x00\n        /* \"#utility.yul\":4626:4628   */\n      0x20\n        /* \"#utility.yul\":4614:4623   */\n      dup3\n        /* \"#utility.yul\":4605:4612   */\n      dup5\n        /* \"#utility.yul\":4601:4624   */\n      sub\n        /* \"#utility.yul\":4597:4629   */\n      slt\n        /* \"#utility.yul\":4594:4713   */\n      iszero\n      tag_526\n      jumpi\n        /* \"#utility.yul\":4632:4711   */\n      tag_527\n      tag_386\n      jump\t// in\n    tag_527:\n        /* \"#utility.yul\":4594:4713   */\n    tag_526:\n        /* \"#utility.yul\":4752:4753   */\n      0x00\n        /* \"#utility.yul\":4777:4829   */\n      tag_528\n        /* \"#utility.yul\":4821:4828   */\n      dup5\n        /* \"#utility.yul\":4812:4818   */\n      dup3\n        /* \"#utility.yul\":4801:4810   */\n      dup6\n        /* \"#utility.yul\":4797:4819   */\n      add\n        /* \"#utility.yul\":4777:4829   */\n      tag_390\n      jump\t// in\n    tag_528:\n        /* \"#utility.yul\":4767:4829   */\n      swap2\n      pop\n        /* \"#utility.yul\":4723:4839   */\n      pop\n        /* \"#utility.yul\":4519:4846   */\n      swap3\n      swap2\n      pop\n      pop\n      jump\t// out\n        /* \"#utility.yul\":4852:4978   */\n    tag_403:\n        /* \"#utility.yul\":4889:4896   */\n      0x00\n        /* \"#utility.yul\":4929:4971   */\n      0xffffffffffffffffffffffffffffffffffffffff\n        /* \"#utility.yul\":4922:4927   */\n      dup3\n        /* \"#utility.yul\":4918:4972   */\n      and\n        /* \"#utility.yul\":4907:4972   */\n      swap1\n      pop\n        /* \"#utility.yul\":4852:4978   */\n      swap2\n      swap1\n      pop\n      jump\t// out\n        /* \"#utility.yul\":4984:5080   */\n    tag_404:\n        /* \"#utility.yul\":5021:5028   */\n      0x00\n        /* \"#utility.yul\":5050:5074   */\n      tag_531\n        /* \"#utility.yul\":5068:5073   */\n      dup3\n        /* \"#utility.yul\":5050:5074   */\n      tag_403\n      jump\t// in\n    tag_531:\n        /* \"#utility.yul\":5039:5074   */\n      swap1\n      pop\n        /* \"#utility.yul\":4984:5080   */\n      swap2\n      swap1\n      pop\n      jump\t// out\n        /* \"#utility.yul\":5086:5208   */\n    tag_405:\n        /* \"#utility.yul\":5159:5183   */\n      tag_533\n        /* \"#utility.yul\":5177:5182   */\n      dup2\n        /* \"#utility.yul\":5159:5183   */\n      tag_404\n      jump\t// in\n    tag_533:\n        /* \"#utility.yul\":5152:5157   */\n      dup2\n        /* \"#utility.yul\":5149:5184   */\n      eq\n        /* \"#utility.yul\":5139:5202   */\n      tag_534\n      jumpi\n        /* \"#utility.yul\":5198:5199   */\n      0x00\n        /* \"#utility.yul\":5195:5196   */\n      dup1\n        /* \"#utility.yul\":5188:5200   */\n      revert\n        /* \"#utility.yul\":5139:5202   */\n    tag_534:\n        /* \"#utility.yul\":5086:5208   */\n      pop\n      jump\t// out\n        /* \"#utility.yul\":5214:5353   */\n    tag_406:\n        /* \"#utility.yul\":5260:5265   */\n      0x00\n        /* \"#utility.yul\":5298:5304   */\n      dup2\n        /* \"#utility.yul\":5285:5305   */\n      calldataload\n        /* \"#utility.yul\":5276:5305   */\n      swap1\n      pop\n        /* \"#utility.yul\":5314:5347   */\n      tag_536\n        /* \"#utility.yul\":5341:5346   */\n      dup2\n        /* \"#utility.yul\":5314:5347   */\n      tag_405\n      jump\t// in\n    tag_536:\n        /* \"#utility.yul\":5214:5353   */\n      swap3\n      swap2\n      pop\n      pop\n      jump\t// out\n        /* \"#utility.yul\":5359:5436   */\n    tag_407:\n        /* \"#utility.yul\":5396:5403   */\n      0x00\n        /* \"#utility.yul\":5425:5430   */\n      dup2\n        /* \"#utility.yul\":5414:5430   */\n      swap1\n      pop\n        /* \"#utility.yul\":5359:5436   */\n      swap2\n      swap1\n      pop\n      jump\t// out\n        /* \"#utility.yul\":5442:5564   */\n    tag_408:\n        /* \"#utility.yul\":5515:5539   */\n      tag_539\n        /* \"#utility.yul\":5533:5538   */\n      dup2\n        /* \"#utility.yul\":5515:5539   */\n      tag_407\n      jump\t// in\n    tag_539:\n        /* \"#utility.yul\":5508:5513   */\n      dup2\n        /* \"#utility.yul\":5505:5540   */\n      eq\n        /* \"#utility.yul\":5495:5558   */\n      tag_540\n      jumpi\n        /* \"#utility.yul\":5554:5555   */\n      0x00\n        /* \"#utility.yul\":5551:5552   */\n      dup1\n        /* \"#utility.yul\":5544:5556   */\n      revert\n        /* \"#utility.yul\":5495:5558   */\n    tag_540:\n        /* \"#utility.yul\":5442:5564   */\n      pop\n      jump\t// out\n        /* \"#utility.yul\":5570:5709   */\n    tag_409:\n        /* \"#utility.yul\":5616:5621   */\n      0x00\n        /* \"#utility.yul\":5654:5660   */\n      dup2\n        /* \"#utility.yul\":5641:5661   */\n      calldataload\n        /* \"#utility.yul\":5632:5661   */\n      swap1\n      pop\n        /* \"#utility.yul\":5670:5703   */\n      tag_542\n        /* \"#utility.yul\":5697:5702   */\n      dup2\n        /* \"#utility.yul\":5670:5703   */\n      tag_408\n      jump\t// in\n    tag_542:\n        /* \"#utility.yul\":5570:5709   */\n      swap3\n      swap2\n      pop\n      pop\n      jump\t// out\n        /* \"#utility.yul\":5715:6189   */\n    tag_55:\n        /* \"#utility.yul\":5783:5789   */\n      0x00\n        /* \"#utility.yul\":5791:5797   */\n      dup1\n        /* \"#utility.yul\":5840:5842   */\n      0x40\n        /* \"#utility.yul\":5828:5837   */\n      dup4\n        /* \"#utility.yul\":5819:5826   */\n      dup6\n        /* \"#utility.yul\":5815:5838   */\n      sub\n        /* \"#utility.yul\":5811:5843   */\n      slt\n        /* \"#utility.yul\":5808:5927   */\n      iszero\n      tag_544\n      jumpi\n        /* \"#utility.yul\":5846:5925   */\n      tag_545\n      tag_386\n      jump\t// in\n    tag_545:\n        /* \"#utility.yul\":5808:5927   */\n    tag_544:\n        /* \"#utility.yul\":5966:5967   */\n      0x00\n        /* \"#utility.yul\":5991:6044   */\n      tag_546\n        /* \"#utility.yul\":6036:6043   */\n      dup6\n        /* \"#utility.yul\":6027:6033   */\n      dup3\n        /* \"#utility.yul\":6016:6025   */\n      dup7\n        /* \"#utility.yul\":6012:6034   */\n      add\n        /* \"#utility.yul\":5991:6044   */\n      tag_406\n      jump\t// in\n    tag_546:\n        /* \"#utility.yul\":5981:6044   */\n      swap3\n      pop\n        /* \"#utility.yul\":5937:6054   */\n      pop\n        /* \"#utility.yul\":6093:6095   */\n      0x20\n        /* \"#utility.yul\":6119:6172   */\n      tag_547\n        /* \"#utility.yul\":6164:6171   */\n      dup6\n        /* \"#utility.yul\":6155:6161   */\n      dup3\n        /* \"#utility.yul\":6144:6153   */\n      dup7\n        /* \"#utility.yul\":6140:6162   */\n      add\n        /* \"#utility.yul\":6119:6172   */\n      tag_409\n      jump\t// in\n    tag_547:\n        /* \"#utility.yul\":6109:6172   */\n      swap2\n      pop\n        /* \"#utility.yul\":6064:6182   */\n      pop\n        /* \"#utility.yul\":5715:6189   */\n      swap3\n      pop\n      swap3\n      swap1\n      pop\n      jump\t// out\n        /* \"#utility.yul\":6195:6285   */\n    tag_410:\n        /* \"#utility.yul\":6229:6236   */\n      0x00\n        /* \"#utility.yul\":6272:6277   */\n      dup2\n        /* \"#utility.yul\":6265:6278   */\n      iszero\n        /* \"#utility.yul\":6258:6279   */\n      iszero\n        /* \"#utility.yul\":6247:6279   */\n      swap1\n      pop\n        /* \"#utility.yul\":6195:6285   */\n      swap2\n      swap1\n      pop\n      jump\t// out\n        /* \"#utility.yul\":6291:6400   */\n    tag_411:\n        /* \"#utility.yul\":6372:6393   */\n      tag_550\n        /* \"#utility.yul\":6387:6392   */\n      dup2\n        /* \"#utility.yul\":6372:6393   */\n      tag_410\n      jump\t// in\n    tag_550:\n        /* \"#utility.yul\":6367:6370   */\n      dup3\n        /* \"#utility.yul\":6360:6394   */\n      mstore\n        /* \"#utility.yul\":6291:6400   */\n      pop\n      pop\n      jump\t// out\n        /* \"#utility.yul\":6406:6616   */\n    tag_58:\n        /* \"#utility.yul\":6493:6497   */\n      0x00\n        /* \"#utility.yul\":6531:6533   */\n      0x20\n        /* \"#utility.yul\":6520:6529   */\n      dup3\n        /* \"#utility.yul\":6516:6534   */\n      add\n        /* \"#utility.yul\":6508:6534   */\n      swap1\n      pop\n        /* \"#utility.yul\":6544:6609   */\n      tag_552\n        /* \"#utility.yul\":6606:6607   */\n      0x00\n        /* \"#utility.yul\":6595:6604   */\n      dup4\n        /* \"#utility.yul\":6591:6608   */\n      add\n        /* \"#utility.yul\":6582:6588   */\n      dup5\n        /* \"#utility.yul\":6544:6609   */\n      tag_411\n      jump\t// in\n    tag_552:\n        /* \"#utility.yul\":6406:6616   */\n      swap3\n      swap2\n      pop\n      pop\n      jump\t// out\n        /* \"#utility.yul\":6622:6740   */\n    tag_412:\n        /* \"#utility.yul\":6709:6733   */\n      tag_554\n        /* \"#utility.yul\":6727:6732   */\n      dup2\n        /* \"#utility.yul\":6709:6733   */\n      tag_407\n      jump\t// in\n    tag_554:\n        /* \"#utility.yul\":6704:6707   */\n      dup3\n        /* \"#utility.yul\":6697:6734   */\n      mstore\n        /* \"#utility.yul\":6622:6740   */\n      pop\n      pop\n      jump\t// out\n        /* \"#utility.yul\":6746:6968   */\n    tag_67:\n        /* \"#utility.yul\":6839:6843   */\n      0x00\n        /* \"#utility.yul\":6877:6879   */\n      0x20\n        /* \"#utility.yul\":6866:6875   */\n      dup3\n        /* \"#utility.yul\":6862:6880   */\n      add\n        /* \"#utility.yul\":6854:6880   */\n      swap1\n      pop\n        /* \"#utility.yul\":6890:6961   */\n      tag_556\n        /* \"#utility.yul\":6958:6959   */\n      0x00\n        /* \"#utility.yul\":6947:6956   */\n      dup4\n        /* \"#utility.yul\":6943:6960   */\n      add\n        /* \"#utility.yul\":6934:6940   */\n      dup5\n        /* \"#utility.yul\":6890:6961   */\n      tag_412\n      jump\t// in\n    tag_556:\n        /* \"#utility.yul\":6746:6968   */\n      swap3\n      swap2\n      pop\n      pop\n      jump\t// out\n        /* \"#utility.yul\":6974:7593   */\n    tag_71:\n        /* \"#utility.yul\":7051:7057   */\n      0x00\n        /* \"#utility.yul\":7059:7065   */\n      dup1\n        /* \"#utility.yul\":7067:7073   */\n      0x00\n        /* \"#utility.yul\":7116:7118   */\n      0x60\n        /* \"#utility.yul\":7104:7113   */\n      dup5\n        /* \"#utility.yul\":7095:7102   */\n      dup7\n        /* \"#utility.yul\":7091:7114   */\n      sub\n        /* \"#utility.yul\":7087:7119   */\n      slt\n        /* \"#utility.yul\":7084:7203   */\n      iszero\n      tag_558\n      jumpi\n        /* \"#utility.yul\":7122:7201   */\n      tag_559\n      tag_386\n      jump\t// in\n    tag_559:\n        /* \"#utility.yul\":7084:7203   */\n    tag_558:\n        /* \"#utility.yul\":7242:7243   */\n      0x00\n        /* \"#utility.yul\":7267:7320   */\n      tag_560\n        /* \"#utility.yul\":7312:7319   */\n      dup7\n        /* \"#utility.yul\":7303:7309   */\n      dup3\n        /* \"#utility.yul\":7292:7301   */\n      dup8\n        /* \"#utility.yul\":7288:7310   */\n      add\n        /* \"#utility.yul\":7267:7320   */\n      tag_406\n      jump\t// in\n    tag_560:\n        /* \"#utility.yul\":7257:7320   */\n      swap4\n      pop\n        /* \"#utility.yul\":7213:7330   */\n      pop\n        /* \"#utility.yul\":7369:7371   */\n      0x20\n        /* \"#utility.yul\":7395:7448   */\n      tag_561\n        /* \"#utility.yul\":7440:7447   */\n      dup7\n        /* \"#utility.yul\":7431:7437   */\n      dup3\n        /* \"#utility.yul\":7420:7429   */\n      dup8\n        /* \"#utility.yul\":7416:7438   */\n      add\n        /* \"#utility.yul\":7395:7448   */\n      tag_406\n      jump\t// in\n    tag_561:\n        /* \"#utility.yul\":7385:7448   */\n      swap3\n      pop\n        /* \"#utility.yul\":7340:7458   */\n      pop\n        /* \"#utility.yul\":7497:7499   */\n      0x40\n        /* \"#utility.yul\":7523:7576   */\n      tag_562\n        /* \"#utility.yul\":7568:7575   */\n      dup7\n        /* \"#utility.yul\":7559:7565   */\n      dup3\n        /* \"#utility.yul\":7548:7557   */\n      dup8\n        /* \"#utility.yul\":7544:7566   */\n      add\n        /* \"#utility.yul\":7523:7576   */\n      tag_409\n      jump\t// in\n    tag_562:\n        /* \"#utility.yul\":7513:7576   */\n      swap2\n      pop\n        /* \"#utility.yul\":7468:7586   */\n      pop\n        /* \"#utility.yul\":6974:7593   */\n      swap3\n      pop\n      swap3\n      pop\n      swap3\n      jump\t// out\n        /* \"#utility.yul\":7599:7685   */\n    tag_413:\n        /* \"#utility.yul\":7634:7641   */\n      0x00\n        /* \"#utility.yul\":7674:7678   */\n      0xff\n        /* \"#utility.yul\":7667:7672   */\n      dup3\n        /* \"#utility.yul\":7663:7679   */\n      and\n        /* \"#utility.yul\":7652:7679   */\n      swap1\n      pop\n        /* \"#utility.yul\":7599:7685   */\n      swap2\n      swap1\n      pop\n      jump\t// out\n        /* \"#utility.yul\":7691:7803   */\n    tag_414:\n        /* \"#utility.yul\":7774:7796   */\n      tag_565\n        /* \"#utility.yul\":7790:7795   */\n      dup2\n        /* \"#utility.yul\":7774:7796   */\n      tag_413\n      jump\t// in\n    tag_565:\n        /* \"#utility.yul\":7769:7772   */\n      dup3\n        /* \"#utility.yul\":7762:7797   */\n      mstore\n        /* \"#utility.yul\":7691:7803   */\n      pop\n      pop\n      jump\t// out\n        /* \"#utility.yul\":7809:8023   */\n    tag_78:\n        /* \"#utility.yul\":7898:7902   */\n      0x00\n        /* \"#utility.yul\":7936:7938   */\n      0x20\n        /* \"#utility.yul\":7925:7934   */\n      dup3\n        /* \"#utility.yul\":7921:7939   */\n      add\n        /* \"#utility.yul\":7913:7939   */\n      swap1\n      pop\n        /* \"#utility.yul\":7949:8016   */\n      tag_567\n        /* \"#utility.yul\":8013:8014   */\n      0x00\n        /* \"#utility.yul\":8002:8011   */\n      dup4\n        /* \"#utility.yul\":7998:8015   */\n      add\n        /* \"#utility.yul\":7989:7995   */\n      dup5\n        /* \"#utility.yul\":7949:8016   */\n      tag_414\n      jump\t// in\n    tag_567:\n        /* \"#utility.yul\":7809:8023   */\n      swap3\n      swap2\n      pop\n      pop\n      jump\t// out\n        /* \"#utility.yul\":8029:8699   */\n    tag_82:\n        /* \"#utility.yul\":8107:8113   */\n      0x00\n        /* \"#utility.yul\":8115:8121   */\n      dup1\n        /* \"#utility.yul\":8123:8129   */\n      0x00\n        /* \"#utility.yul\":8172:8174   */\n      0x40\n        /* \"#utility.yul\":8160:8169   */\n      dup5\n        /* \"#utility.yul\":8151:8158   */\n      dup7\n        /* \"#utility.yul\":8147:8170   */\n      sub\n        /* \"#utility.yul\":8143:8175   */\n      slt\n        /* \"#utility.yul\":8140:8259   */\n      iszero\n      tag_569\n      jumpi\n        /* \"#utility.yul\":8178:8257   */\n      tag_570\n      tag_386\n      jump\t// in\n    tag_570:\n        /* \"#utility.yul\":8140:8259   */\n    tag_569:\n        /* \"#utility.yul\":8298:8299   */\n      0x00\n        /* \"#utility.yul\":8323:8375   */\n      tag_571\n        /* \"#utility.yul\":8367:8374   */\n      dup7\n        /* \"#utility.yul\":8358:8364   */\n      dup3\n        /* \"#utility.yul\":8347:8356   */\n      dup8\n        /* \"#utility.yul\":8343:8365   */\n      add\n        /* \"#utility.yul\":8323:8375   */\n      tag_390\n      jump\t// in\n    tag_571:\n        /* \"#utility.yul\":8313:8375   */\n      swap4\n      pop\n        /* \"#utility.yul\":8269:8385   */\n      pop\n        /* \"#utility.yul\":8452:8454   */\n      0x20\n        /* \"#utility.yul\":8441:8450   */\n      dup5\n        /* \"#utility.yul\":8437:8455   */\n      add\n        /* \"#utility.yul\":8424:8456   */\n      calldataload\n        /* \"#utility.yul\":8483:8501   */\n      0xffffffffffffffff\n        /* \"#utility.yul\":8475:8481   */\n      dup2\n        /* \"#utility.yul\":8472:8502   */\n      gt\n        /* \"#utility.yul\":8469:8586   */\n      iszero\n      tag_572\n      jumpi\n        /* \"#utility.yul\":8505:8584   */\n      tag_573\n      tag_387\n      jump\t// in\n    tag_573:\n        /* \"#utility.yul\":8469:8586   */\n    tag_572:\n        /* \"#utility.yul\":8618:8682   */\n      tag_574\n        /* \"#utility.yul\":8674:8681   */\n      dup7\n        /* \"#utility.yul\":8665:8671   */\n      dup3\n        /* \"#utility.yul\":8654:8663   */\n      dup8\n        /* \"#utility.yul\":8650:8672   */\n      add\n        /* \"#utility.yul\":8618:8682   */\n      tag_394\n      jump\t// in\n    tag_574:\n        /* \"#utility.yul\":8600:8682   */\n      swap3\n      pop\n      swap3\n      pop\n        /* \"#utility.yul\":8395:8692   */\n      pop\n        /* \"#utility.yul\":8029:8699   */\n      swap3\n      pop\n      swap3\n      pop\n      swap3\n      jump\t// out\n        /* \"#utility.yul\":8705:8765   */\n    tag_415:\n        /* \"#utility.yul\":8733:8736   */\n      0x00\n        /* \"#utility.yul\":8754:8759   */\n      dup2\n        /* \"#utility.yul\":8747:8759   */\n      swap1\n      pop\n        /* \"#utility.yul\":8705:8765   */\n      swap2\n      swap1\n      pop\n      jump\t// out\n        /* \"#utility.yul\":8771:8913   */\n    tag_416:\n        /* \"#utility.yul\":8821:8830   */\n      0x00\n        /* \"#utility.yul\":8854:8907   */\n      tag_577\n        /* \"#utility.yul\":8872:8906   */\n      tag_578\n        /* \"#utility.yul\":8881:8905   */\n      tag_579\n        /* \"#utility.yul\":8899:8904   */\n      dup5\n        /* \"#utility.yul\":8881:8905   */\n      tag_403\n      jump\t// in\n    tag_579:\n        /* \"#utility.yul\":8872:8906   */\n      tag_415\n      jump\t// in\n    tag_578:\n        /* \"#utility.yul\":8854:8907   */\n      tag_403\n      jump\t// in\n    tag_577:\n        /* \"#utility.yul\":8841:8907   */\n      swap1\n      pop\n        /* \"#utility.yul\":8771:8913   */\n      swap2\n      swap1\n      pop\n      jump\t// out\n        /* \"#utility.yul\":8919:9045   */\n    tag_417:\n        /* \"#utility.yul\":8969:8978   */\n      0x00\n        /* \"#utility.yul\":9002:9039   */\n      tag_581\n        /* \"#utility.yul\":9033:9038   */\n      dup3\n        /* \"#utility.yul\":9002:9039   */\n      tag_416\n      jump\t// in\n    tag_581:\n        /* \"#utility.yul\":8989:9039   */\n      swap1\n      pop\n        /* \"#utility.yul\":8919:9045   */\n      swap2\n      swap1\n      pop\n      jump\t// out\n        /* \"#utility.yul\":9051:9204   */\n    tag_418:\n        /* \"#utility.yul\":9128:9137   */\n      0x00\n        /* \"#utility.yul\":9161:9198   */\n      tag_583\n        /* \"#utility.yul\":9192:9197   */\n      dup3\n        /* \"#utility.yul\":9161:9198   */\n      tag_417\n      jump\t// in\n    tag_583:\n        /* \"#utility.yul\":9148:9198   */\n      swap1\n      pop\n        /* \"#utility.yul\":9051:9204   */\n      swap2\n      swap1\n      pop\n      jump\t// out\n        /* \"#utility.yul\":9210:9395   */\n    tag_419:\n        /* \"#utility.yul\":9324:9388   */\n      tag_585\n        /* \"#utility.yul\":9382:9387   */\n      dup2\n        /* \"#utility.yul\":9324:9388   */\n      tag_418\n      jump\t// in\n    tag_585:\n        /* \"#utility.yul\":9319:9322   */\n      dup3\n        /* \"#utility.yul\":9312:9389   */\n      mstore\n        /* \"#utility.yul\":9210:9395   */\n      pop\n      pop\n      jump\t// out\n        /* \"#utility.yul\":9401:9677   */\n    tag_88:\n        /* \"#utility.yul\":9521:9525   */\n      0x00\n        /* \"#utility.yul\":9559:9561   */\n      0x20\n        /* \"#utility.yul\":9548:9557   */\n      dup3\n        /* \"#utility.yul\":9544:9562   */\n      add\n        /* \"#utility.yul\":9536:9562   */\n      swap1\n      pop\n        /* \"#utility.yul\":9572:9670   */\n      tag_587\n        /* \"#utility.yul\":9667:9668   */\n      0x00\n        /* \"#utility.yul\":9656:9665   */\n      dup4\n        /* \"#utility.yul\":9652:9669   */\n      add\n        /* \"#utility.yul\":9643:9649   */\n      dup5\n        /* \"#utility.yul\":9572:9670   */\n      tag_419\n      jump\t// in\n    tag_587:\n        /* \"#utility.yul\":9401:9677   */\n      swap3\n      swap2\n      pop\n      pop\n      jump\t// out\n        /* \"#utility.yul\":9683:9800   */\n    tag_420:\n        /* \"#utility.yul\":9792:9793   */\n      0x00\n        /* \"#utility.yul\":9789:9790   */\n      dup1\n        /* \"#utility.yul\":9782:9794   */\n      revert\n        /* \"#utility.yul\":9806:9986   */\n    tag_421:\n        /* \"#utility.yul\":9854:9931   */\n      0x4e487b7100000000000000000000000000000000000000000000000000000000\n        /* \"#utility.yul\":9851:9852   */\n      0x00\n        /* \"#utility.yul\":9844:9932   */\n      mstore\n        /* \"#utility.yul\":9951:9955   */\n      0x41\n        /* \"#utility.yul\":9948:9949   */\n      0x04\n        /* \"#utility.yul\":9941:9956   */\n      mstore\n        /* \"#utility.yul\":9975:9979   */\n      0x24\n        /* \"#utility.yul\":9972:9973   */\n      0x00\n        /* \"#utility.yul\":9965:9980   */\n      revert\n        /* \"#utility.yul\":9992:10273   */\n    tag_422:\n        /* \"#utility.yul\":10075:10102   */\n      tag_591\n        /* \"#utility.yul\":10097:10101   */\n      dup3\n        /* \"#utility.yul\":10075:10102   */\n      tag_401\n      jump\t// in\n    tag_591:\n        /* \"#utility.yul\":10067:10073   */\n      dup2\n        /* \"#utility.yul\":10063:10103   */\n      add\n        /* \"#utility.yul\":10205:10211   */\n      dup2\n        /* \"#utility.yul\":10193:10203   */\n      dup2\n        /* \"#utility.yul\":10190:10212   */\n      lt\n        /* \"#utility.yul\":10169:10187   */\n      0xffffffffffffffff\n        /* \"#utility.yul\":10157:10167   */\n      dup3\n        /* \"#utility.yul\":10154:10188   */\n      gt\n        /* \"#utility.yul\":10151:10213   */\n      or\n        /* \"#utility.yul\":10148:10236   */\n      iszero\n      tag_592\n      jumpi\n        /* \"#utility.yul\":10216:10234   */\n      tag_593\n      tag_421\n      jump\t// in\n    tag_593:\n        /* \"#utility.yul\":10148:10236   */\n    tag_592:\n        /* \"#utility.yul\":10256:10266   */\n      dup1\n        /* \"#utility.yul\":10252:10254   */\n      0x40\n        /* \"#utility.yul\":10245:10267   */\n      mstore\n        /* \"#utility.yul\":10035:10273   */\n      pop\n        /* \"#utility.yul\":9992:10273   */\n      pop\n      pop\n      jump\t// out\n        /* \"#utility.yul\":10279:10408   */\n    tag_423:\n        /* \"#utility.yul\":10313:10319   */\n      0x00\n        /* \"#utility.yul\":10340:10360   */\n      tag_595\n      tag_385\n      jump\t// in\n    tag_595:\n        /* \"#utility.yul\":10330:10360   */\n      swap1\n      pop\n        /* \"#utility.yul\":10369:10402   */\n      tag_596\n        /* \"#utility.yul\":10397:10401   */\n      dup3\n        /* \"#utility.yul\":10389:10395   */\n      dup3\n        /* \"#utility.yul\":10369:10402   */\n      tag_422\n      jump\t// in\n    tag_596:\n        /* \"#utility.yul\":10279:10408   */\n      swap2\n      swap1\n      pop\n      jump\t// out\n        /* \"#utility.yul\":10414:10721   */\n    tag_424:\n        /* \"#utility.yul\":10475:10479   */\n      0x00\n        /* \"#utility.yul\":10565:10583   */\n      0xffffffffffffffff\n        /* \"#utility.yul\":10557:10563   */\n      dup3\n        /* \"#utility.yul\":10554:10584   */\n      gt\n        /* \"#utility.yul\":10551:10607   */\n      iszero\n      tag_598\n      jumpi\n        /* \"#utility.yul\":10587:10605   */\n      tag_599\n      tag_421\n      jump\t// in\n    tag_599:\n        /* \"#utility.yul\":10551:10607   */\n    tag_598:\n        /* \"#utility.yul\":10625:10654   */\n      tag_600\n        /* \"#utility.yul\":10647:10653   */\n      dup3\n        /* \"#utility.yul\":10625:10654   */\n      tag_401\n      jump\t// in\n    tag_600:\n        /* \"#utility.yul\":10617:10654   */\n      swap1\n      pop\n        /* \"#utility.yul\":10709:10713   */\n      0x20\n        /* \"#utility.yul\":10703:10707   */\n      dup2\n        /* \"#utility.yul\":10699:10714   */\n      add\n        /* \"#utility.yul\":10691:10714   */\n      swap1\n      pop\n        /* \"#utility.yul\":10414:10721   */\n      swap2\n      swap1\n      pop\n      jump\t// out\n        /* \"#utility.yul\":10727:10873   */\n    tag_425:\n        /* \"#utility.yul\":10824:10830   */\n      dup3\n        /* \"#utility.yul\":10819:10822   */\n      dup2\n        /* \"#utility.yul\":10814:10817   */\n      dup4\n        /* \"#utility.yul\":10801:10831   */\n      calldatacopy\n        /* \"#utility.yul\":10865:10866   */\n      0x00\n        /* \"#utility.yul\":10856:10862   */\n      dup4\n        /* \"#utility.yul\":10851:10854   */\n      dup4\n        /* \"#utility.yul\":10847:10863   */\n      add\n        /* \"#utility.yul\":10840:10867   */\n      mstore\n        /* \"#utility.yul\":10727:10873   */\n      pop\n      pop\n      pop\n      jump\t// out\n        /* \"#utility.yul\":10879:11302   */\n    tag_426:\n        /* \"#utility.yul\":10956:10961   */\n      0x00\n        /* \"#utility.yul\":10981:11046   */\n      tag_603\n        /* \"#utility.yul\":10997:11045   */\n      tag_604\n        /* \"#utility.yul\":11038:11044   */\n      dup5\n        /* \"#utility.yul\":10997:11045   */\n      tag_424\n      jump\t// in\n    tag_604:\n        /* \"#utility.yul\":10981:11046   */\n      tag_423\n      jump\t// in\n    tag_603:\n        /* \"#utility.yul\":10972:11046   */\n      swap1\n      pop\n        /* \"#utility.yul\":11069:11075   */\n      dup3\n        /* \"#utility.yul\":11062:11067   */\n      dup2\n        /* \"#utility.yul\":11055:11076   */\n      mstore\n        /* \"#utility.yul\":11107:11111   */\n      0x20\n        /* \"#utility.yul\":11100:11105   */\n      dup2\n        /* \"#utility.yul\":11096:11112   */\n      add\n        /* \"#utility.yul\":11145:11148   */\n      dup5\n        /* \"#utility.yul\":11136:11142   */\n      dup5\n        /* \"#utility.yul\":11131:11134   */\n      dup5\n        /* \"#utility.yul\":11127:11143   */\n      add\n        /* \"#utility.yul\":11124:11149   */\n      gt\n        /* \"#utility.yul\":11121:11233   */\n      iszero\n      tag_605\n      jumpi\n        /* \"#utility.yul\":11152:11231   */\n      tag_606\n      tag_420\n      jump\t// in\n    tag_606:\n        /* \"#utility.yul\":11121:11233   */\n    tag_605:\n        /* \"#utility.yul\":11242:11296   */\n      tag_607\n        /* \"#utility.yul\":11289:11295   */\n      dup5\n        /* \"#utility.yul\":11284:11287   */\n      dup3\n        /* \"#utility.yul\":11279:11282   */\n      dup6\n        /* \"#utility.yul\":11242:11296   */\n      tag_425\n      jump\t// in\n    tag_607:\n        /* \"#utility.yul\":10962:11302   */\n      pop\n        /* \"#utility.yul\":10879:11302   */\n      swap4\n      swap3\n      pop\n      pop\n      pop\n      jump\t// out\n        /* \"#utility.yul\":11321:11659   */\n    tag_427:\n        /* \"#utility.yul\":11376:11381   */\n      0x00\n        /* \"#utility.yul\":11425:11428   */\n      dup3\n        /* \"#utility.yul\":11418:11422   */\n      0x1f\n        /* \"#utility.yul\":11410:11416   */\n      dup4\n        /* \"#utility.yul\":11406:11423   */\n      add\n        /* \"#utility.yul\":11402:11429   */\n      slt\n        /* \"#utility.yul\":11392:11514   */\n      tag_609\n      jumpi\n        /* \"#utility.yul\":11433:11512   */\n      tag_610\n      tag_391\n      jump\t// in\n    tag_610:\n        /* \"#utility.yul\":11392:11514   */\n    tag_609:\n        /* \"#utility.yul\":11550:11556   */\n      dup2\n        /* \"#utility.yul\":11537:11557   */\n      calldataload\n        /* \"#utility.yul\":11575:11653   */\n      tag_611\n        /* \"#utility.yul\":11649:11652   */\n      dup5\n        /* \"#utility.yul\":11641:11647   */\n      dup3\n        /* \"#utility.yul\":11634:11638   */\n      0x20\n        /* \"#utility.yul\":11626:11632   */\n      dup7\n        /* \"#utility.yul\":11622:11639   */\n      add\n        /* \"#utility.yul\":11575:11653   */\n      tag_426\n      jump\t// in\n    tag_611:\n        /* \"#utility.yul\":11566:11653   */\n      swap2\n      pop\n        /* \"#utility.yul\":11382:11659   */\n      pop\n        /* \"#utility.yul\":11321:11659   */\n      swap3\n      swap2\n      pop\n      pop\n      jump\t// out\n        /* \"#utility.yul\":11665:12606   */\n    tag_91:\n        /* \"#utility.yul\":11759:11765   */\n      0x00\n        /* \"#utility.yul\":11767:11773   */\n      dup1\n        /* \"#utility.yul\":11775:11781   */\n      0x00\n        /* \"#utility.yul\":11783:11789   */\n      dup1\n        /* \"#utility.yul\":11832:11835   */\n      0x80\n        /* \"#utility.yul\":11820:11829   */\n      dup6\n        /* \"#utility.yul\":11811:11818   */\n      dup8\n        /* \"#utility.yul\":11807:11830   */\n      sub\n        /* \"#utility.yul\":11803:11836   */\n      slt\n        /* \"#utility.yul\":11800:11920   */\n      iszero\n      tag_613\n      jumpi\n        /* \"#utility.yul\":11839:11918   */\n      tag_614\n      tag_386\n      jump\t// in\n    tag_614:\n        /* \"#utility.yul\":11800:11920   */\n    tag_613:\n        /* \"#utility.yul\":11959:11960   */\n      0x00\n        /* \"#utility.yul\":11984:12037   */\n      tag_615\n        /* \"#utility.yul\":12029:12036   */\n      dup8\n        /* \"#utility.yul\":12020:12026   */\n      dup3\n        /* \"#utility.yul\":12009:12018   */\n      dup9\n        /* \"#utility.yul\":12005:12027   */\n      add\n        /* \"#utility.yul\":11984:12037   */\n      tag_406\n      jump\t// in\n    tag_615:\n        /* \"#utility.yul\":11974:12037   */\n      swap5\n      pop\n        /* \"#utility.yul\":11930:12047   */\n      pop\n        /* \"#utility.yul\":12086:12088   */\n      0x20\n        /* \"#utility.yul\":12112:12165   */\n      tag_616\n        /* \"#utility.yul\":12157:12164   */\n      dup8\n        /* \"#utility.yul\":12148:12154   */\n      dup3\n        /* \"#utility.yul\":12137:12146   */\n      dup9\n        /* \"#utility.yul\":12133:12155   */\n      add\n        /* \"#utility.yul\":12112:12165   */\n      tag_409\n      jump\t// in\n    tag_616:\n        /* \"#utility.yul\":12102:12165   */\n      swap4\n      pop\n        /* \"#utility.yul\":12057:12175   */\n      pop\n        /* \"#utility.yul\":12214:12216   */\n      0x40\n        /* \"#utility.yul\":12240:12292   */\n      tag_617\n        /* \"#utility.yul\":12284:12291   */\n      dup8\n        /* \"#utility.yul\":12275:12281   */\n      dup3\n        /* \"#utility.yul\":12264:12273   */\n      dup9\n        /* \"#utility.yul\":12260:12282   */\n      add\n        /* \"#utility.yul\":12240:12292   */\n      tag_390\n      jump\t// in\n    tag_617:\n        /* \"#utility.yul\":12230:12292   */\n      swap3\n      pop\n        /* \"#utility.yul\":12185:12302   */\n      pop\n        /* \"#utility.yul\":12369:12371   */\n      0x60\n        /* \"#utility.yul\":12358:12367   */\n      dup6\n        /* \"#utility.yul\":12354:12372   */\n      add\n        /* \"#utility.yul\":12341:12373   */\n      calldataload\n        /* \"#utility.yul\":12400:12418   */\n      0xffffffffffffffff\n        /* \"#utility.yul\":12392:12398   */\n      dup2\n        /* \"#utility.yul\":12389:12419   */\n      gt\n        /* \"#utility.yul\":12386:12503   */\n      iszero\n      tag_618\n      jumpi\n        /* \"#utility.yul\":12422:12501   */\n      tag_619\n      tag_387\n      jump\t// in\n    tag_619:\n        /* \"#utility.yul\":12386:12503   */\n    tag_618:\n        /* \"#utility.yul\":12527:12589   */\n      tag_620\n        /* \"#utility.yul\":12581:12588   */\n      dup8\n        /* \"#utility.yul\":12572:12578   */\n      dup3\n        /* \"#utility.yul\":12561:12570   */\n      dup9\n        /* \"#utility.yul\":12557:12579   */\n      add\n        /* \"#utility.yul\":12527:12589   */\n      tag_427\n      jump\t// in\n    tag_620:\n        /* \"#utility.yul\":12517:12589   */\n      swap2\n      pop\n        /* \"#utility.yul\":12312:12599   */\n      pop\n        /* \"#utility.yul\":11665:12606   */\n      swap3\n      swap6\n      swap2\n      swap5\n      pop\n      swap3\n      pop\n      jump\t// out\n        /* \"#utility.yul\":12612:12941   */\n    tag_96:\n        /* \"#utility.yul\":12671:12677   */\n      0x00\n        /* \"#utility.yul\":12720:12722   */\n      0x20\n        /* \"#utility.yul\":12708:12717   */\n      dup3\n        /* \"#utility.yul\":12699:12706   */\n      dup5\n        /* \"#utility.yul\":12695:12718   */\n      sub\n        /* \"#utility.yul\":12691:12723   */\n      slt\n        /* \"#utility.yul\":12688:12807   */\n      iszero\n      tag_622\n      jumpi\n        /* \"#utility.yul\":12726:12805   */\n      tag_623\n      tag_386\n      jump\t// in\n    tag_623:\n        /* \"#utility.yul\":12688:12807   */\n    tag_622:\n        /* \"#utility.yul\":12846:12847   */\n      0x00\n        /* \"#utility.yul\":12871:12924   */\n      tag_624\n        /* \"#utility.yul\":12916:12923   */\n      dup5\n        /* \"#utility.yul\":12907:12913   */\n      dup3\n        /* \"#utility.yul\":12896:12905   */\n      dup6\n        /* \"#utility.yul\":12892:12914   */\n      add\n        /* \"#utility.yul\":12871:12924   */\n      tag_406\n      jump\t// in\n    tag_624:\n        /* \"#utility.yul\":12861:12924   */\n      swap2\n      pop\n        /* \"#utility.yul\":12817:12934   */\n      pop\n        /* \"#utility.yul\":12612:12941   */\n      swap3\n      swap2\n      pop\n      pop\n      jump\t// out\n        /* \"#utility.yul\":12947:13065   */\n    tag_428:\n        /* \"#utility.yul\":13034:13058   */\n      tag_626\n        /* \"#utility.yul\":13052:13057   */\n      dup2\n        /* \"#utility.yul\":13034:13058   */\n      tag_404\n      jump\t// in\n    tag_626:\n        /* \"#utility.yul\":13029:13032   */\n      dup3\n        /* \"#utility.yul\":13022:13059   */\n      mstore\n        /* \"#utility.yul\":12947:13065   */\n      pop\n      pop\n      jump\t// out\n        /* \"#utility.yul\":13071:13293   */\n    tag_110:\n        /* \"#utility.yul\":13164:13168   */\n      0x00\n        /* \"#utility.yul\":13202:13204   */\n      0x20\n        /* \"#utility.yul\":13191:13200   */\n      dup3\n        /* \"#utility.yul\":13187:13205   */\n      add\n        /* \"#utility.yul\":13179:13205   */\n      swap1\n      pop\n        /* \"#utility.yul\":13215:13286   */\n      tag_628\n        /* \"#utility.yul\":13283:13284   */\n      0x00\n        /* \"#utility.yul\":13272:13281   */\n      dup4\n        /* \"#utility.yul\":13268:13285   */\n      add\n        /* \"#utility.yul\":13259:13265   */\n      dup5\n        /* \"#utility.yul\":13215:13286   */\n      tag_428\n      jump\t// in\n    tag_628:\n        /* \"#utility.yul\":13071:13293   */\n      swap3\n      swap2\n      pop\n      pop\n      jump\t// out\n        /* \"#utility.yul\":13299:13414   */\n    tag_429:\n        /* \"#utility.yul\":13384:13407   */\n      tag_630\n        /* \"#utility.yul\":13401:13406   */\n      dup2\n        /* \"#utility.yul\":13384:13407   */\n      tag_388\n      jump\t// in\n    tag_630:\n        /* \"#utility.yul\":13379:13382   */\n      dup3\n        /* \"#utility.yul\":13372:13408   */\n      mstore\n        /* \"#utility.yul\":13299:13414   */\n      pop\n      pop\n      jump\t// out\n        /* \"#utility.yul\":13420:13638   */\n    tag_115:\n        /* \"#utility.yul\":13511:13515   */\n      0x00\n        /* \"#utility.yul\":13549:13551   */\n      0x20\n        /* \"#utility.yul\":13538:13547   */\n      dup3\n        /* \"#utility.yul\":13534:13552   */\n      add\n        /* \"#utility.yul\":13526:13552   */\n      swap1\n      pop\n        /* \"#utility.yul\":13562:13631   */\n      tag_632\n        /* \"#utility.yul\":13628:13629   */\n      0x00\n        /* \"#utility.yul\":13617:13626   */\n      dup4\n        /* \"#utility.yul\":13613:13630   */\n      add\n        /* \"#utility.yul\":13604:13610   */\n      dup5\n        /* \"#utility.yul\":13562:13631   */\n      tag_429\n      jump\t// in\n    tag_632:\n        /* \"#utility.yul\":13420:13638   */\n      swap3\n      swap2\n      pop\n      pop\n      jump\t// out\n        /* \"#utility.yul\":13644:13742   */\n    tag_430:\n        /* \"#utility.yul\":13695:13701   */\n      0x00\n        /* \"#utility.yul\":13729:13734   */\n      dup2\n        /* \"#utility.yul\":13723:13735   */\n      mload\n        /* \"#utility.yul\":13713:13735   */\n      swap1\n      pop\n        /* \"#utility.yul\":13644:13742   */\n      swap2\n      swap1\n      pop\n      jump\t// out\n        /* \"#utility.yul\":13748:13916   */\n    tag_431:\n        /* \"#utility.yul\":13831:13842   */\n      0x00\n        /* \"#utility.yul\":13865:13871   */\n      dup3\n        /* \"#utility.yul\":13860:13863   */\n      dup3\n        /* \"#utility.yul\":13853:13872   */\n      mstore\n        /* \"#utility.yul\":13905:13909   */\n      0x20\n        /* \"#utility.yul\":13900:13903   */\n      dup3\n        /* \"#utility.yul\":13896:13910   */\n      add\n        /* \"#utility.yul\":13881:13910   */\n      swap1\n      pop\n        /* \"#utility.yul\":13748:13916   */\n      swap3\n      swap2\n      pop\n      pop\n      jump\t// out\n        /* \"#utility.yul\":13922:14295   */\n    tag_432:\n        /* \"#utility.yul\":14008:14011   */\n      0x00\n        /* \"#utility.yul\":14036:14074   */\n      tag_636\n        /* \"#utility.yul\":14068:14073   */\n      dup3\n        /* \"#utility.yul\":14036:14074   */\n      tag_430\n      jump\t// in\n    tag_636:\n        /* \"#utility.yul\":14090:14160   */\n      tag_637\n        /* \"#utility.yul\":14153:14159   */\n      dup2\n        /* \"#utility.yul\":14148:14151   */\n      dup6\n        /* \"#utility.yul\":14090:14160   */\n      tag_431\n      jump\t// in\n    tag_637:\n        /* \"#utility.yul\":14083:14160   */\n      swap4\n      pop\n        /* \"#utility.yul\":14169:14234   */\n      tag_638\n        /* \"#utility.yul\":14227:14233   */\n      dup2\n        /* \"#utility.yul\":14222:14225   */\n      dup6\n        /* \"#utility.yul\":14215:14219   */\n      0x20\n        /* \"#utility.yul\":14208:14213   */\n      dup7\n        /* \"#utility.yul\":14204:14220   */\n      add\n        /* \"#utility.yul\":14169:14234   */\n      tag_400\n      jump\t// in\n    tag_638:\n        /* \"#utility.yul\":14259:14288   */\n      tag_639\n        /* \"#utility.yul\":14281:14287   */\n      dup2\n        /* \"#utility.yul\":14259:14288   */\n      tag_401\n      jump\t// in\n    tag_639:\n        /* \"#utility.yul\":14254:14257   */\n      dup5\n        /* \"#utility.yul\":14250:14289   */\n      add\n        /* \"#utility.yul\":14243:14289   */\n      swap2\n      pop\n        /* \"#utility.yul\":14012:14295   */\n      pop\n        /* \"#utility.yul\":13922:14295   */\n      swap3\n      swap2\n      pop\n      pop\n      jump\t// out\n        /* \"#utility.yul\":14301:14610   */\n    tag_138:\n        /* \"#utility.yul\":14412:14416   */\n      0x00\n        /* \"#utility.yul\":14450:14452   */\n      0x20\n        /* \"#utility.yul\":14439:14448   */\n      dup3\n        /* \"#utility.yul\":14435:14453   */\n      add\n        /* \"#utility.yul\":14427:14453   */\n      swap1\n      pop\n        /* \"#utility.yul\":14499:14508   */\n      dup2\n        /* \"#utility.yul\":14493:14497   */\n      dup2\n        /* \"#utility.yul\":14489:14509   */\n      sub\n        /* \"#utility.yul\":14485:14486   */\n      0x00\n        /* \"#utility.yul\":14474:14483   */\n      dup4\n        /* \"#utility.yul\":14470:14487   */\n      add\n        /* \"#utility.yul\":14463:14510   */\n      mstore\n        /* \"#utility.yul\":14527:14603   */\n      tag_641\n        /* \"#utility.yul\":14598:14602   */\n      dup2\n        /* \"#utility.yul\":14589:14595   */\n      dup5\n        /* \"#utility.yul\":14527:14603   */\n      tag_432\n      jump\t// in\n    tag_641:\n        /* \"#utility.yul\":14519:14603   */\n      swap1\n      pop\n        /* \"#utility.yul\":14301:14610   */\n      swap3\n      swap2\n      pop\n      pop\n      jump\t// out\n        /* \"#utility.yul\":14616:15575   */\n    tag_142:\n        /* \"#utility.yul\":14711:14717   */\n      0x00\n        /* \"#utility.yul\":14719:14725   */\n      dup1\n        /* \"#utility.yul\":14727:14733   */\n      0x00\n        /* \"#utility.yul\":14735:14741   */\n      dup1\n        /* \"#utility.yul\":14743:14749   */\n      0x00\n        /* \"#utility.yul\":14792:14795   */\n      0x80\n        /* \"#utility.yul\":14780:14789   */\n      dup7\n        /* \"#utility.yul\":14771:14778   */\n      dup9\n        /* \"#utility.yul\":14767:14790   */\n      sub\n        /* \"#utility.yul\":14763:14796   */\n      slt\n        /* \"#utility.yul\":14760:14880   */\n      iszero\n      tag_643\n      jumpi\n        /* \"#utility.yul\":14799:14878   */\n      tag_644\n      tag_386\n      jump\t// in\n    tag_644:\n        /* \"#utility.yul\":14760:14880   */\n    tag_643:\n        /* \"#utility.yul\":14919:14920   */\n      0x00\n        /* \"#utility.yul\":14944:14996   */\n      tag_645\n        /* \"#utility.yul\":14988:14995   */\n      dup9\n        /* \"#utility.yul\":14979:14985   */\n      dup3\n        /* \"#utility.yul\":14968:14977   */\n      dup10\n        /* \"#utility.yul\":14964:14986   */\n      add\n        /* \"#utility.yul\":14944:14996   */\n      tag_390\n      jump\t// in\n    tag_645:\n        /* \"#utility.yul\":14934:14996   */\n      swap6\n      pop\n        /* \"#utility.yul\":14890:15006   */\n      pop\n        /* \"#utility.yul\":15045:15047   */\n      0x20\n        /* \"#utility.yul\":15071:15123   */\n      tag_646\n        /* \"#utility.yul\":15115:15122   */\n      dup9\n        /* \"#utility.yul\":15106:15112   */\n      dup3\n        /* \"#utility.yul\":15095:15104   */\n      dup10\n        /* \"#utility.yul\":15091:15113   */\n      add\n        /* \"#utility.yul\":15071:15123   */\n      tag_390\n      jump\t// in\n    tag_646:\n        /* \"#utility.yul\":15061:15123   */\n      swap5\n      pop\n        /* \"#utility.yul\":15016:15133   */\n      pop\n        /* \"#utility.yul\":15172:15174   */\n      0x40\n        /* \"#utility.yul\":15198:15251   */\n      tag_647\n        /* \"#utility.yul\":15243:15250   */\n      dup9\n        /* \"#utility.yul\":15234:15240   */\n      dup3\n        /* \"#utility.yul\":15223:15232   */\n      dup10\n        /* \"#utility.yul\":15219:15241   */\n      add\n        /* \"#utility.yul\":15198:15251   */\n      tag_409\n      jump\t// in\n    tag_647:\n        /* \"#utility.yul\":15188:15251   */\n      swap4\n      pop\n        /* \"#utility.yul\":15143:15261   */\n      pop\n        /* \"#utility.yul\":15328:15330   */\n      0x60\n        /* \"#utility.yul\":15317:15326   */\n      dup7\n        /* \"#utility.yul\":15313:15331   */\n      add\n        /* \"#utility.yul\":15300:15332   */\n      calldataload\n        /* \"#utility.yul\":15359:15377   */\n      0xffffffffffffffff\n        /* \"#utility.yul\":15351:15357   */\n      dup2\n        /* \"#utility.yul\":15348:15378   */\n      gt\n        /* \"#utility.yul\":15345:15462   */\n      iszero\n      tag_648\n      jumpi\n        /* \"#utility.yul\":15381:15460   */\n      tag_649\n      tag_387\n      jump\t// in\n    tag_649:\n        /* \"#utility.yul\":15345:15462   */\n    tag_648:\n        /* \"#utility.yul\":15494:15558   */\n      tag_650\n        /* \"#utility.yul\":15550:15557   */\n      dup9\n        /* \"#utility.yul\":15541:15547   */\n      dup3\n        /* \"#utility.yul\":15530:15539   */\n      dup10\n        /* \"#utility.yul\":15526:15548   */\n      add\n        /* \"#utility.yul\":15494:15558   */\n      tag_394\n      jump\t// in\n    tag_650:\n        /* \"#utility.yul\":15476:15558   */\n      swap3\n      pop\n      swap3\n      pop\n        /* \"#utility.yul\":15271:15568   */\n      pop\n        /* \"#utility.yul\":14616:15575   */\n      swap3\n      swap6\n      pop\n      swap3\n      swap6\n      swap1\n      swap4\n      pop\n      jump\t// out\n        /* \"#utility.yul\":15581:15910   */\n    tag_147:\n        /* \"#utility.yul\":15640:15646   */\n      0x00\n        /* \"#utility.yul\":15689:15691   */\n      0x20\n        /* \"#utility.yul\":15677:15686   */\n      dup3\n        /* \"#utility.yul\":15668:15675   */\n      dup5\n        /* \"#utility.yul\":15664:15687   */\n      sub\n        /* \"#utility.yul\":15660:15692   */\n      slt\n        /* \"#utility.yul\":15657:15776   */\n      iszero\n      tag_652\n      jumpi\n        /* \"#utility.yul\":15695:15774   */\n      tag_653\n      tag_386\n      jump\t// in\n    tag_653:\n        /* \"#utility.yul\":15657:15776   */\n    tag_652:\n        /* \"#utility.yul\":15815:15816   */\n      0x00\n        /* \"#utility.yul\":15840:15893   */\n      tag_654\n        /* \"#utility.yul\":15885:15892   */\n      dup5\n        /* \"#utility.yul\":15876:15882   */\n      dup3\n        /* \"#utility.yul\":15865:15874   */\n      dup6\n        /* \"#utility.yul\":15861:15883   */\n      add\n        /* \"#utility.yul\":15840:15893   */\n      tag_409\n      jump\t// in\n    tag_654:\n        /* \"#utility.yul\":15830:15893   */\n      swap2\n      pop\n        /* \"#utility.yul\":15786:15903   */\n      pop\n        /* \"#utility.yul\":15581:15910   */\n      swap3\n      swap2\n      pop\n      pop\n      jump\t// out\n        /* \"#utility.yul\":15916:16390   */\n    tag_152:\n        /* \"#utility.yul\":15984:15990   */\n      0x00\n        /* \"#utility.yul\":15992:15998   */\n      dup1\n        /* \"#utility.yul\":16041:16043   */\n      0x40\n        /* \"#utility.yul\":16029:16038   */\n      dup4\n        /* \"#utility.yul\":16020:16027   */\n      dup6\n        /* \"#utility.yul\":16016:16039   */\n      sub\n        /* \"#utility.yul\":16012:16044   */\n      slt\n        /* \"#utility.yul\":16009:16128   */\n      iszero\n      tag_656\n      jumpi\n        /* \"#utility.yul\":16047:16126   */\n      tag_657\n      tag_386\n      jump\t// in\n    tag_657:\n        /* \"#utility.yul\":16009:16128   */\n    tag_656:\n        /* \"#utility.yul\":16167:16168   */\n      0x00\n        /* \"#utility.yul\":16192:16245   */\n      tag_658\n        /* \"#utility.yul\":16237:16244   */\n      dup6\n        /* \"#utility.yul\":16228:16234   */\n      dup3\n        /* \"#utility.yul\":16217:16226   */\n      dup7\n        /* \"#utility.yul\":16213:16235   */\n      add\n        /* \"#utility.yul\":16192:16245   */\n      tag_406\n      jump\t// in\n    tag_658:\n        /* \"#utility.yul\":16182:16245   */\n      swap3\n      pop\n        /* \"#utility.yul\":16138:16255   */\n      pop\n        /* \"#utility.yul\":16294:16296   */\n      0x20\n        /* \"#utility.yul\":16320:16373   */\n      tag_659\n        /* \"#utility.yul\":16365:16372   */\n      dup6\n        /* \"#utility.yul\":16356:16362   */\n      dup3\n        /* \"#utility.yul\":16345:16354   */\n      dup7\n        /* \"#utility.yul\":16341:16363   */\n      add\n        /* \"#utility.yul\":16320:16373   */\n      tag_406\n      jump\t// in\n    tag_659:\n        /* \"#utility.yul\":16310:16373   */\n      swap2\n      pop\n        /* \"#utility.yul\":16265:16383   */\n      pop\n        /* \"#utility.yul\":15916:16390   */\n      swap3\n      pop\n      swap3\n      swap1\n      pop\n      jump\t// out\n        /* \"#utility.yul\":16396:17189   */\n    tag_158:\n        /* \"#utility.yul\":16480:16486   */\n      0x00\n        /* \"#utility.yul\":16488:16494   */\n      dup1\n        /* \"#utility.yul\":16496:16502   */\n      0x00\n        /* \"#utility.yul\":16545:16547   */\n      0x60\n        /* \"#utility.yul\":16533:16542   */\n      dup5\n        /* \"#utility.yul\":16524:16531   */\n      dup7\n        /* \"#utility.yul\":16520:16543   */\n      sub\n        /* \"#utility.yul\":16516:16548   */\n      slt\n        /* \"#utility.yul\":16513:16632   */\n      iszero\n      tag_661\n      jumpi\n        /* \"#utility.yul\":16551:16630   */\n      tag_662\n      tag_386\n      jump\t// in\n    tag_662:\n        /* \"#utility.yul\":16513:16632   */\n    tag_661:\n        /* \"#utility.yul\":16699:16700   */\n      0x00\n        /* \"#utility.yul\":16688:16697   */\n      dup5\n        /* \"#utility.yul\":16684:16701   */\n      add\n        /* \"#utility.yul\":16671:16702   */\n      calldataload\n        /* \"#utility.yul\":16729:16747   */\n      0xffffffffffffffff\n        /* \"#utility.yul\":16721:16727   */\n      dup2\n        /* \"#utility.yul\":16718:16748   */\n      gt\n        /* \"#utility.yul\":16715:16832   */\n      iszero\n      tag_663\n      jumpi\n        /* \"#utility.yul\":16751:16830   */\n      tag_664\n      tag_387\n      jump\t// in\n    tag_664:\n        /* \"#utility.yul\":16715:16832   */\n    tag_663:\n        /* \"#utility.yul\":16856:16918   */\n      tag_665\n        /* \"#utility.yul\":16910:16917   */\n      dup7\n        /* \"#utility.yul\":16901:16907   */\n      dup3\n        /* \"#utility.yul\":16890:16899   */\n      dup8\n        /* \"#utility.yul\":16886:16908   */\n      add\n        /* \"#utility.yul\":16856:16918   */\n      tag_427\n      jump\t// in\n    tag_665:\n        /* \"#utility.yul\":16846:16918   */\n      swap4\n      pop\n        /* \"#utility.yul\":16642:16928   */\n      pop\n        /* \"#utility.yul\":16967:16969   */\n      0x20\n        /* \"#utility.yul\":16993:17045   */\n      tag_666\n        /* \"#utility.yul\":17037:17044   */\n      dup7\n        /* \"#utility.yul\":17028:17034   */\n      dup3\n        /* \"#utility.yul\":17017:17026   */\n      dup8\n        /* \"#utility.yul\":17013:17035   */\n      add\n        /* \"#utility.yul\":16993:17045   */\n      tag_390\n      jump\t// in\n    tag_666:\n        /* \"#utility.yul\":16983:17045   */\n      swap3\n      pop\n        /* \"#utility.yul\":16938:17055   */\n      pop\n        /* \"#utility.yul\":17094:17096   */\n      0x40\n        /* \"#utility.yul\":17120:17172   */\n      tag_667\n        /* \"#utility.yul\":17164:17171   */\n      dup7\n        /* \"#utility.yul\":17155:17161   */\n      dup3\n        /* \"#utility.yul\":17144:17153   */\n      dup8\n        /* \"#utility.yul\":17140:17162   */\n      add\n        /* \"#utility.yul\":17120:17172   */\n      tag_397\n      jump\t// in\n    tag_667:\n        /* \"#utility.yul\":17110:17172   */\n      swap2\n      pop\n        /* \"#utility.yul\":17065:17182   */\n      pop\n        /* \"#utility.yul\":16396:17189   */\n      swap3\n      pop\n      swap3\n      pop\n      swap3\n      jump\t// out\n        /* \"#utility.yul\":17195:17845   */\n    tag_169:\n        /* \"#utility.yul\":17271:17277   */\n      0x00\n        /* \"#utility.yul\":17279:17285   */\n      dup1\n        /* \"#utility.yul\":17328:17330   */\n      0x40\n        /* \"#utility.yul\":17316:17325   */\n      dup4\n        /* \"#utility.yul\":17307:17314   */\n      dup6\n        /* \"#utility.yul\":17303:17326   */\n      sub\n        /* \"#utility.yul\":17299:17331   */\n      slt\n        /* \"#utility.yul\":17296:17415   */\n      iszero\n      tag_669\n      jumpi\n        /* \"#utility.yul\":17334:17413   */\n      tag_670\n      tag_386\n      jump\t// in\n    tag_670:\n        /* \"#utility.yul\":17296:17415   */\n    tag_669:\n        /* \"#utility.yul\":17454:17455   */\n      0x00\n        /* \"#utility.yul\":17479:17531   */\n      tag_671\n        /* \"#utility.yul\":17523:17530   */\n      dup6\n        /* \"#utility.yul\":17514:17520   */\n      dup3\n        /* \"#utility.yul\":17503:17512   */\n      dup7\n        /* \"#utility.yul\":17499:17521   */\n      add\n        /* \"#utility.yul\":17479:17531   */\n      tag_390\n      jump\t// in\n    tag_671:\n        /* \"#utility.yul\":17469:17531   */\n      swap3\n      pop\n        /* \"#utility.yul\":17425:17541   */\n      pop\n        /* \"#utility.yul\":17608:17610   */\n      0x20\n        /* \"#utility.yul\":17597:17606   */\n      dup4\n        /* \"#utility.yul\":17593:17611   */\n      add\n        /* \"#utility.yul\":17580:17612   */\n      calldataload\n        /* \"#utility.yul\":17639:17657   */\n      0xffffffffffffffff\n        /* \"#utility.yul\":17631:17637   */\n      dup2\n        /* \"#utility.yul\":17628:17658   */\n      gt\n        /* \"#utility.yul\":17625:17742   */\n      iszero\n      tag_672\n      jumpi\n        /* \"#utility.yul\":17661:17740   */\n      tag_673\n      tag_387\n      jump\t// in\n    tag_673:\n        /* \"#utility.yul\":17625:17742   */\n    tag_672:\n        /* \"#utility.yul\":17766:17828   */\n      tag_674\n        /* \"#utility.yul\":17820:17827   */\n      dup6\n        /* \"#utility.yul\":17811:17817   */\n      dup3\n        /* \"#utility.yul\":17800:17809   */\n      dup7\n        /* \"#utility.yul\":17796:17818   */\n      add\n        /* \"#utility.yul\":17766:17828   */\n      tag_427\n      jump\t// in\n    tag_674:\n        /* \"#utility.yul\":17756:17828   */\n      swap2\n      pop\n        /* \"#utility.yul\":17551:17838   */\n      pop\n        /* \"#utility.yul\":17195:17845   */\n      swap3\n      pop\n      swap3\n      swap1\n      pop\n      jump\t// out\n        /* \"#utility.yul\":17851:18028   */\n    tag_433:\n        /* \"#utility.yul\":17991:18020   */\n      0x777261707065722f63616c6c65722d6e6f742d656e64706f696e740000000000\n        /* \"#utility.yul\":17987:17988   */\n      0x00\n        /* \"#utility.yul\":17979:17985   */\n      dup3\n        /* \"#utility.yul\":17975:17989   */\n      add\n        /* \"#utility.yul\":17968:18021   */\n      mstore\n        /* \"#utility.yul\":17851:18028   */\n      pop\n      jump\t// out\n        /* \"#utility.yul\":18034:18400   */\n    tag_434:\n        /* \"#utility.yul\":18176:18179   */\n      0x00\n        /* \"#utility.yul\":18197:18264   */\n      tag_677\n        /* \"#utility.yul\":18261:18263   */\n      0x1b\n        /* \"#utility.yul\":18256:18259   */\n      dup4\n        /* \"#utility.yul\":18197:18264   */\n      tag_399\n      jump\t// in\n    tag_677:\n        /* \"#utility.yul\":18190:18264   */\n      swap2\n      pop\n        /* \"#utility.yul\":18273:18366   */\n      tag_678\n        /* \"#utility.yul\":18362:18365   */\n      dup3\n        /* \"#utility.yul\":18273:18366   */\n      tag_433\n      jump\t// in\n    tag_678:\n        /* \"#utility.yul\":18391:18393   */\n      0x20\n        /* \"#utility.yul\":18386:18389   */\n      dup3\n        /* \"#utility.yul\":18382:18394   */\n      add\n        /* \"#utility.yul\":18375:18394   */\n      swap1\n      pop\n        /* \"#utility.yul\":18034:18400   */\n      swap2\n      swap1\n      pop\n      jump\t// out\n        /* \"#utility.yul\":18406:18825   */\n    tag_178:\n        /* \"#utility.yul\":18572:18576   */\n      0x00\n        /* \"#utility.yul\":18610:18612   */\n      0x20\n        /* \"#utility.yul\":18599:18608   */\n      dup3\n        /* \"#utility.yul\":18595:18613   */\n      add\n        /* \"#utility.yul\":18587:18613   */\n      swap1\n      pop\n        /* \"#utility.yul\":18659:18668   */\n      dup2\n        /* \"#utility.yul\":18653:18657   */\n      dup2\n        /* \"#utility.yul\":18649:18669   */\n      sub\n        /* \"#utility.yul\":18645:18646   */\n      0x00\n        /* \"#utility.yul\":18634:18643   */\n      dup4\n        /* \"#utility.yul\":18630:18647   */\n      add\n        /* \"#utility.yul\":18623:18670   */\n      mstore\n        /* \"#utility.yul\":18687:18818   */\n      tag_680\n        /* \"#utility.yul\":18813:18817   */\n      dup2\n        /* \"#utility.yul\":18687:18818   */\n      tag_434\n      jump\t// in\n    tag_680:\n        /* \"#utility.yul\":18679:18818   */\n      swap1\n      pop\n        /* \"#utility.yul\":18406:18825   */\n      swap2\n      swap1\n      pop\n      jump\t// out\n        /* \"#utility.yul\":18831:19011   */\n    tag_435:\n        /* \"#utility.yul\":18879:18956   */\n      0x4e487b7100000000000000000000000000000000000000000000000000000000\n        /* \"#utility.yul\":18876:18877   */\n      0x00\n        /* \"#utility.yul\":18869:18957   */\n      mstore\n        /* \"#utility.yul\":18976:18980   */\n      0x22\n        /* \"#utility.yul\":18973:18974   */\n      0x04\n        /* \"#utility.yul\":18966:18981   */\n      mstore\n        /* \"#utility.yul\":19000:19004   */\n      0x24\n        /* \"#utility.yul\":18997:18998   */\n      0x00\n        /* \"#utility.yul\":18990:19005   */\n      revert\n        /* \"#utility.yul\":19017:19337   */\n    tag_181:\n        /* \"#utility.yul\":19061:19067   */\n      0x00\n        /* \"#utility.yul\":19098:19099   */\n      0x02\n        /* \"#utility.yul\":19092:19096   */\n      dup3\n        /* \"#utility.yul\":19088:19100   */\n      div\n        /* \"#utility.yul\":19078:19100   */\n      swap1\n      pop\n        /* \"#utility.yul\":19145:19146   */\n      0x01\n        /* \"#utility.yul\":19139:19143   */\n      dup3\n        /* \"#utility.yul\":19135:19147   */\n      and\n        /* \"#utility.yul\":19166:19184   */\n      dup1\n        /* \"#utility.yul\":19156:19237   */\n      tag_683\n      jumpi\n        /* \"#utility.yul\":19222:19226   */\n      0x7f\n        /* \"#utility.yul\":19214:19220   */\n      dup3\n        /* \"#utility.yul\":19210:19227   */\n      and\n        /* \"#utility.yul\":19200:19227   */\n      swap2\n      pop\n        /* \"#utility.yul\":19156:19237   */\n    tag_683:\n        /* \"#utility.yul\":19284:19286   */\n      0x20\n        /* \"#utility.yul\":19276:19282   */\n      dup3\n        /* \"#utility.yul\":19273:19287   */\n      lt\n        /* \"#utility.yul\":19253:19271   */\n      dup2\n        /* \"#utility.yul\":19250:19288   */\n      sub\n        /* \"#utility.yul\":19247:19331   */\n      tag_684\n      jumpi\n        /* \"#utility.yul\":19303:19321   */\n      tag_685\n      tag_435\n      jump\t// in\n    tag_685:\n        /* \"#utility.yul\":19247:19331   */\n    tag_684:\n        /* \"#utility.yul\":19068:19337   */\n      pop\n        /* \"#utility.yul\":19017:19337   */\n      swap2\n      swap1\n      pop\n      jump\t// out\n        /* \"#utility.yul\":19343:19563   */\n    tag_436:\n        /* \"#utility.yul\":19483:19517   */\n      0x777261707065722f696e76616c69642d7372632d73656e6465722d6c656e6774\n        /* \"#utility.yul\":19479:19480   */\n      0x00\n        /* \"#utility.yul\":19471:19477   */\n      dup3\n        /* \"#utility.yul\":19467:19481   */\n      add\n        /* \"#utility.yul\":19460:19518   */\n      mstore\n        /* \"#utility.yul\":19552:19555   */\n      0x6800000000000000000000000000000000000000000000000000000000000000\n        /* \"#utility.yul\":19547:19549   */\n      0x20\n        /* \"#utility.yul\":19539:19545   */\n      dup3\n        /* \"#utility.yul\":19535:19550   */\n      add\n        /* \"#utility.yul\":19528:19556   */\n      mstore\n        /* \"#utility.yul\":19343:19563   */\n      pop\n      jump\t// out\n        /* \"#utility.yul\":19569:19935   */\n    tag_437:\n        /* \"#utility.yul\":19711:19714   */\n      0x00\n        /* \"#utility.yul\":19732:19799   */\n      tag_688\n        /* \"#utility.yul\":19796:19798   */\n      0x21\n        /* \"#utility.yul\":19791:19794   */\n      dup4\n        /* \"#utility.yul\":19732:19799   */\n      tag_399\n      jump\t// in\n    tag_688:\n        /* \"#utility.yul\":19725:19799   */\n      swap2\n      pop\n        /* \"#utility.yul\":19808:19901   */\n      tag_689\n        /* \"#utility.yul\":19897:19900   */\n      dup3\n        /* \"#utility.yul\":19808:19901   */\n      tag_436\n      jump\t// in\n    tag_689:\n        /* \"#utility.yul\":19926:19928   */\n      0x40\n        /* \"#utility.yul\":19921:19924   */\n      dup3\n        /* \"#utility.yul\":19917:19929   */\n      add\n        /* \"#utility.yul\":19910:19929   */\n      swap1\n      pop\n        /* \"#utility.yul\":19569:19935   */\n      swap2\n      swap1\n      pop\n      jump\t// out\n        /* \"#utility.yul\":19941:20360   */\n    tag_184:\n        /* \"#utility.yul\":20107:20111   */\n      0x00\n        /* \"#utility.yul\":20145:20147   */\n      0x20\n        /* \"#utility.yul\":20134:20143   */\n      dup3\n        /* \"#utility.yul\":20130:20148   */\n      add\n        /* \"#utility.yul\":20122:20148   */\n      swap1\n      pop\n        /* \"#utility.yul\":20194:20203   */\n      dup2\n        /* \"#utility.yul\":20188:20192   */\n      dup2\n        /* \"#utility.yul\":20184:20204   */\n      sub\n        /* \"#utility.yul\":20180:20181   */\n      0x00\n        /* \"#utility.yul\":20169:20178   */\n      dup4\n        /* \"#utility.yul\":20165:20182   */\n      add\n        /* \"#utility.yul\":20158:20205   */\n      mstore\n        /* \"#utility.yul\":20222:20353   */\n      tag_691\n        /* \"#utility.yul\":20348:20352   */\n      dup2\n        /* \"#utility.yul\":20222:20353   */\n      tag_437\n      jump\t// in\n    tag_691:\n        /* \"#utility.yul\":20214:20353   */\n      swap1\n      pop\n        /* \"#utility.yul\":19941:20360   */\n      swap2\n      swap1\n      pop\n      jump\t// out\n        /* \"#utility.yul\":20366:20513   */\n    tag_438:\n        /* \"#utility.yul\":20467:20478   */\n      0x00\n        /* \"#utility.yul\":20504:20507   */\n      dup2\n        /* \"#utility.yul\":20489:20507   */\n      swap1\n      pop\n        /* \"#utility.yul\":20366:20513   */\n      swap3\n      swap2\n      pop\n      pop\n      jump\t// out\n        /* \"#utility.yul\":20519:20659   */\n    tag_439:\n        /* \"#utility.yul\":20567:20571   */\n      0x00\n        /* \"#utility.yul\":20590:20593   */\n      dup2\n        /* \"#utility.yul\":20582:20593   */\n      swap1\n      pop\n        /* \"#utility.yul\":20613:20616   */\n      dup2\n        /* \"#utility.yul\":20610:20611   */\n      0x00\n        /* \"#utility.yul\":20603:20617   */\n      mstore\n        /* \"#utility.yul\":20647:20651   */\n      0x20\n        /* \"#utility.yul\":20644:20645   */\n      0x00\n        /* \"#utility.yul\":20634:20652   */\n      keccak256\n        /* \"#utility.yul\":20626:20652   */\n      swap1\n      pop\n        /* \"#utility.yul\":20519:20659   */\n      swap2\n      swap1\n      pop\n      jump\t// out\n        /* \"#utility.yul\":20687:21557   */\n    tag_440:\n        /* \"#utility.yul\":20788:20791   */\n      0x00\n        /* \"#utility.yul\":20825:20830   */\n      dup2\n        /* \"#utility.yul\":20819:20831   */\n      sload\n        /* \"#utility.yul\":20854:20890   */\n      tag_695\n        /* \"#utility.yul\":20880:20889   */\n      dup2\n        /* \"#utility.yul\":20854:20890   */\n      tag_181\n      jump\t// in\n    tag_695:\n        /* \"#utility.yul\":20906:20994   */\n      tag_696\n        /* \"#utility.yul\":20987:20993   */\n      dup2\n        /* \"#utility.yul\":20982:20985   */\n      dup7\n        /* \"#utility.yul\":20906:20994   */\n      tag_438\n      jump\t// in\n    tag_696:\n        /* \"#utility.yul\":20899:20994   */\n      swap5\n      pop\n        /* \"#utility.yul\":21025:21026   */\n      0x01\n        /* \"#utility.yul\":21014:21023   */\n      dup3\n        /* \"#utility.yul\":21010:21027   */\n      and\n        /* \"#utility.yul\":21041:21042   */\n      0x00\n        /* \"#utility.yul\":21036:21202   */\n      dup2\n      eq\n      tag_698\n      jumpi\n        /* \"#utility.yul\":21216:21217   */\n      0x01\n        /* \"#utility.yul\":21211:21551   */\n      dup2\n      eq\n      tag_699\n      jumpi\n        /* \"#utility.yul\":21003:21551   */\n      jump(tag_697)\n        /* \"#utility.yul\":21036:21202   */\n    tag_698:\n        /* \"#utility.yul\":21120:21124   */\n      0xff\n        /* \"#utility.yul\":21116:21125   */\n      not\n        /* \"#utility.yul\":21105:21114   */\n      dup4\n        /* \"#utility.yul\":21101:21126   */\n      and\n        /* \"#utility.yul\":21096:21099   */\n      dup7\n        /* \"#utility.yul\":21089:21127   */\n      mstore\n        /* \"#utility.yul\":21182:21188   */\n      dup2\n        /* \"#utility.yul\":21175:21189   */\n      iszero\n        /* \"#utility.yul\":21168:21190   */\n      iszero\n        /* \"#utility.yul\":21160:21166   */\n      dup3\n        /* \"#utility.yul\":21156:21191   */\n      mul\n        /* \"#utility.yul\":21151:21154   */\n      dup7\n        /* \"#utility.yul\":21147:21192   */\n      add\n        /* \"#utility.yul\":21140:21192   */\n      swap4\n      pop\n        /* \"#utility.yul\":21036:21202   */\n      jump(tag_697)\n        /* \"#utility.yul\":21211:21551   */\n    tag_699:\n        /* \"#utility.yul\":21278:21315   */\n      tag_700\n        /* \"#utility.yul\":21309:21314   */\n      dup6\n        /* \"#utility.yul\":21278:21315   */\n      tag_439\n      jump\t// in\n    tag_700:\n        /* \"#utility.yul\":21337:21338   */\n      0x00\n        /* \"#utility.yul\":21351:21505   */\n    tag_701:\n        /* \"#utility.yul\":21365:21371   */\n      dup4\n        /* \"#utility.yul\":21362:21363   */\n      dup2\n        /* \"#utility.yul\":21359:21372   */\n      lt\n        /* \"#utility.yul\":21351:21505   */\n      iszero\n      tag_703\n      jumpi\n        /* \"#utility.yul\":21439:21446   */\n      dup2\n        /* \"#utility.yul\":21433:21447   */\n      sload\n        /* \"#utility.yul\":21429:21430   */\n      dup2\n        /* \"#utility.yul\":21424:21427   */\n      dup10\n        /* \"#utility.yul\":21420:21431   */\n      add\n        /* \"#utility.yul\":21413:21448   */\n      mstore\n        /* \"#utility.yul\":21489:21490   */\n      0x01\n        /* \"#utility.yul\":21480:21487   */\n      dup3\n        /* \"#utility.yul\":21476:21491   */\n      add\n        /* \"#utility.yul\":21465:21491   */\n      swap2\n      pop\n        /* \"#utility.yul\":21387:21391   */\n      0x20\n        /* \"#utility.yul\":21384:21385   */\n      dup2\n        /* \"#utility.yul\":21380:21392   */\n      add\n        /* \"#utility.yul\":21375:21392   */\n      swap1\n      pop\n        /* \"#utility.yul\":21351:21505   */\n      jump(tag_701)\n    tag_703:\n        /* \"#utility.yul\":21534:21540   */\n      dup4\n        /* \"#utility.yul\":21529:21532   */\n      dup9\n        /* \"#utility.yul\":21525:21541   */\n      add\n        /* \"#utility.yul\":21518:21541   */\n      swap6\n      pop\n        /* \"#utility.yul\":21218:21551   */\n      pop\n      pop\n        /* \"#utility.yul\":21003:21551   */\n    tag_697:\n      pop\n        /* \"#utility.yul\":20792:21557   */\n      pop\n      pop\n        /* \"#utility.yul\":20687:21557   */\n      swap3\n      swap2\n      pop\n      pop\n      jump\t// out\n        /* \"#utility.yul\":21563:21828   */\n    tag_186:\n        /* \"#utility.yul\":21690:21693   */\n      0x00\n        /* \"#utility.yul\":21712:21802   */\n      tag_705\n        /* \"#utility.yul\":21798:21801   */\n      dup3\n        /* \"#utility.yul\":21789:21795   */\n      dup5\n        /* \"#utility.yul\":21712:21802   */\n      tag_440\n      jump\t// in\n    tag_705:\n        /* \"#utility.yul\":21705:21802   */\n      swap2\n      pop\n        /* \"#utility.yul\":21819:21822   */\n      dup2\n        /* \"#utility.yul\":21812:21822   */\n      swap1\n      pop\n        /* \"#utility.yul\":21563:21828   */\n      swap3\n      swap2\n      pop\n      pop\n      jump\t// out\n        /* \"#utility.yul\":21856:22183   */\n    tag_441:\n        /* \"#utility.yul\":21970:21973   */\n      0x00\n        /* \"#utility.yul\":21991:22079   */\n      tag_707\n        /* \"#utility.yul\":22072:22078   */\n      dup4\n        /* \"#utility.yul\":22067:22070   */\n      dup6\n        /* \"#utility.yul\":21991:22079   */\n      tag_438\n      jump\t// in\n    tag_707:\n        /* \"#utility.yul\":21984:22079   */\n      swap4\n      pop\n        /* \"#utility.yul\":22089:22145   */\n      tag_708\n        /* \"#utility.yul\":22138:22144   */\n      dup4\n        /* \"#utility.yul\":22133:22136   */\n      dup6\n        /* \"#utility.yul\":22126:22131   */\n      dup5\n        /* \"#utility.yul\":22089:22145   */\n      tag_425\n      jump\t// in\n    tag_708:\n        /* \"#utility.yul\":22170:22176   */\n      dup3\n        /* \"#utility.yul\":22165:22168   */\n      dup5\n        /* \"#utility.yul\":22161:22177   */\n      add\n        /* \"#utility.yul\":22154:22177   */\n      swap1\n      pop\n        /* \"#utility.yul\":21856:22183   */\n      swap4\n      swap3\n      pop\n      pop\n      pop\n      jump\t// out\n        /* \"#utility.yul\":22189:22480   */\n    tag_188:\n        /* \"#utility.yul\":22329:22332   */\n      0x00\n        /* \"#utility.yul\":22351:22454   */\n      tag_710\n        /* \"#utility.yul\":22450:22453   */\n      dup3\n        /* \"#utility.yul\":22441:22447   */\n      dup5\n        /* \"#utility.yul\":22433:22439   */\n      dup7\n        /* \"#utility.yul\":22351:22454   */\n      tag_441\n      jump\t// in\n    tag_710:\n        /* \"#utility.yul\":22344:22454   */\n      swap2\n      pop\n        /* \"#utility.yul\":22471:22474   */\n      dup2\n        /* \"#utility.yul\":22464:22474   */\n      swap1\n      pop\n        /* \"#utility.yul\":22189:22480   */\n      swap4\n      swap3\n      pop\n      pop\n      pop\n      jump\t// out\n        /* \"#utility.yul\":22486:22662   */\n    tag_442:\n        /* \"#utility.yul\":22626:22654   */\n      0x777261707065722f696e76616c69642d7372632d73656e646572000000000000\n        /* \"#utility.yul\":22622:22623   */\n      0x00\n        /* \"#utility.yul\":22614:22620   */\n      dup3\n        /* \"#utility.yul\":22610:22624   */\n      add\n        /* \"#utility.yul\":22603:22655   */\n      mstore\n        /* \"#utility.yul\":22486:22662   */\n      pop\n      jump\t// out\n        /* \"#utility.yul\":22668:23034   */\n    tag_443:\n        /* \"#utility.yul\":22810:22813   */\n      0x00\n        /* \"#utility.yul\":22831:22898   */\n      tag_713\n        /* \"#utility.yul\":22895:22897   */\n      0x1a\n        /* \"#utility.yul\":22890:22893   */\n      dup4\n        /* \"#utility.yul\":22831:22898   */\n      tag_399\n      jump\t// in\n    tag_713:\n        /* \"#utility.yul\":22824:22898   */\n      swap2\n      pop\n        /* \"#utility.yul\":22907:23000   */\n      tag_714\n        /* \"#utility.yul\":22996:22999   */\n      dup3\n        /* \"#utility.yul\":22907:23000   */\n      tag_442\n      jump\t// in\n    tag_714:\n        /* \"#utility.yul\":23025:23027   */\n      0x20\n        /* \"#utility.yul\":23020:23023   */\n      dup3\n        /* \"#utility.yul\":23016:23028   */\n      add\n        /* \"#utility.yul\":23009:23028   */\n      swap1\n      pop\n        /* \"#utility.yul\":22668:23034   */\n      swap2\n      swap1\n      pop\n      jump\t// out\n        /* \"#utility.yul\":23040:23459   */\n    tag_191:\n        /* \"#utility.yul\":23206:23210   */\n      0x00\n        /* \"#utility.yul\":23244:23246   */\n      0x20\n        /* \"#utility.yul\":23233:23242   */\n      dup3\n        /* \"#utility.yul\":23229:23247   */\n      add\n        /* \"#utility.yul\":23221:23247   */\n      swap1\n      pop\n        /* \"#utility.yul\":23293:23302   */\n      dup2\n        /* \"#utility.yul\":23287:23291   */\n      dup2\n        /* \"#utility.yul\":23283:23303   */\n      sub\n        /* \"#utility.yul\":23279:23280   */\n      0x00\n        /* \"#utility.yul\":23268:23277   */\n      dup4\n        /* \"#utility.yul\":23264:23281   */\n      add\n        /* \"#utility.yul\":23257:23304   */\n      mstore\n        /* \"#utility.yul\":23321:23452   */\n      tag_716\n        /* \"#utility.yul\":23447:23451   */\n      dup2\n        /* \"#utility.yul\":23321:23452   */\n      tag_443\n      jump\t// in\n    tag_716:\n        /* \"#utility.yul\":23313:23452   */\n      swap1\n      pop\n        /* \"#utility.yul\":23040:23459   */\n      swap2\n      swap1\n      pop\n      jump\t// out\n        /* \"#utility.yul\":23465:23636   */\n    tag_444:\n        /* \"#utility.yul\":23605:23628   */\n      0x777261707065722f696e76616c69642d6e6f6e63650000000000000000000000\n        /* \"#utility.yul\":23601:23602   */\n      0x00\n        /* \"#utility.yul\":23593:23599   */\n      dup3\n        /* \"#utility.yul\":23589:23603   */\n      add\n        /* \"#utility.yul\":23582:23629   */\n      mstore\n        /* \"#utility.yul\":23465:23636   */\n      pop\n      jump\t// out\n        /* \"#utility.yul\":23642:24008   */\n    tag_445:\n        /* \"#utility.yul\":23784:23787   */\n      0x00\n        /* \"#utility.yul\":23805:23872   */\n      tag_719\n        /* \"#utility.yul\":23869:23871   */\n      0x15\n        /* \"#utility.yul\":23864:23867   */\n      dup4\n        /* \"#utility.yul\":23805:23872   */\n      tag_399\n      jump\t// in\n    tag_719:\n        /* \"#utility.yul\":23798:23872   */\n      swap2\n      pop\n        /* \"#utility.yul\":23881:23974   */\n      tag_720\n        /* \"#utility.yul\":23970:23973   */\n      dup3\n        /* \"#utility.yul\":23881:23974   */\n      tag_444\n      jump\t// in\n    tag_720:\n        /* \"#utility.yul\":23999:24001   */\n      0x20\n        /* \"#utility.yul\":23994:23997   */\n      dup3\n        /* \"#utility.yul\":23990:24002   */\n      add\n        /* \"#utility.yul\":23983:24002   */\n      swap1\n      pop\n        /* \"#utility.yul\":23642:24008   */\n      swap2\n      swap1\n      pop\n      jump\t// out\n        /* \"#utility.yul\":24014:24433   */\n    tag_195:\n        /* \"#utility.yul\":24180:24184   */\n      0x00\n        /* \"#utility.yul\":24218:24220   */\n      0x20\n        /* \"#utility.yul\":24207:24216   */\n      dup3\n        /* \"#utility.yul\":24203:24221   */\n      add\n        /* \"#utility.yul\":24195:24221   */\n      swap1\n      pop\n        /* \"#utility.yul\":24267:24276   */\n      dup2\n        /* \"#utility.yul\":24261:24265   */\n      dup2\n        /* \"#utility.yul\":24257:24277   */\n      sub\n        /* \"#utility.yul\":24253:24254   */\n      0x00\n        /* \"#utility.yul\":24242:24251   */\n      dup4\n        /* \"#utility.yul\":24238:24255   */\n      add\n        /* \"#utility.yul\":24231:24278   */\n      mstore\n        /* \"#utility.yul\":24295:24426   */\n      tag_722\n        /* \"#utility.yul\":24421:24425   */\n      dup2\n        /* \"#utility.yul\":24295:24426   */\n      tag_445\n      jump\t// in\n    tag_722:\n        /* \"#utility.yul\":24287:24426   */\n      swap1\n      pop\n        /* \"#utility.yul\":24014:24433   */\n      swap2\n      swap1\n      pop\n      jump\t// out\n        /* \"#utility.yul\":24439:24543   */\n    tag_446:\n        /* \"#utility.yul\":24484:24491   */\n      0x00\n        /* \"#utility.yul\":24513:24537   */\n      tag_724\n        /* \"#utility.yul\":24531:24536   */\n      dup3\n        /* \"#utility.yul\":24513:24537   */\n      tag_403\n      jump\t// in\n    tag_724:\n        /* \"#utility.yul\":24502:24537   */\n      swap1\n      pop\n        /* \"#utility.yul\":24439:24543   */\n      swap2\n      swap1\n      pop\n      jump\t// out\n        /* \"#utility.yul\":24549:24687   */\n    tag_447:\n        /* \"#utility.yul\":24630:24662   */\n      tag_726\n        /* \"#utility.yul\":24656:24661   */\n      dup2\n        /* \"#utility.yul\":24630:24662   */\n      tag_446\n      jump\t// in\n    tag_726:\n        /* \"#utility.yul\":24623:24628   */\n      dup2\n        /* \"#utility.yul\":24620:24663   */\n      eq\n        /* \"#utility.yul\":24610:24681   */\n      tag_727\n      jumpi\n        /* \"#utility.yul\":24677:24678   */\n      0x00\n        /* \"#utility.yul\":24674:24675   */\n      dup1\n        /* \"#utility.yul\":24667:24679   */\n      revert\n        /* \"#utility.yul\":24610:24681   */\n    tag_727:\n        /* \"#utility.yul\":24549:24687   */\n      pop\n      jump\t// out\n        /* \"#utility.yul\":24693:24848   */\n    tag_448:\n        /* \"#utility.yul\":24747:24752   */\n      0x00\n        /* \"#utility.yul\":24785:24791   */\n      dup2\n        /* \"#utility.yul\":24772:24792   */\n      calldataload\n        /* \"#utility.yul\":24763:24792   */\n      swap1\n      pop\n        /* \"#utility.yul\":24801:24842   */\n      tag_729\n        /* \"#utility.yul\":24836:24841   */\n      dup2\n        /* \"#utility.yul\":24801:24842   */\n      tag_447\n      jump\t// in\n    tag_729:\n        /* \"#utility.yul\":24693:24848   */\n      swap3\n      swap2\n      pop\n      pop\n      jump\t// out\n        /* \"#utility.yul\":24854:25489   */\n    tag_198:\n        /* \"#utility.yul\":24939:24945   */\n      0x00\n        /* \"#utility.yul\":24947:24953   */\n      dup1\n        /* \"#utility.yul\":24955:24961   */\n      0x00\n        /* \"#utility.yul\":25004:25006   */\n      0x60\n        /* \"#utility.yul\":24992:25001   */\n      dup5\n        /* \"#utility.yul\":24983:24990   */\n      dup7\n        /* \"#utility.yul\":24979:25002   */\n      sub\n        /* \"#utility.yul\":24975:25007   */\n      slt\n        /* \"#utility.yul\":24972:25091   */\n      iszero\n      tag_731\n      jumpi\n        /* \"#utility.yul\":25010:25089   */\n      tag_732\n      tag_386\n      jump\t// in\n    tag_732:\n        /* \"#utility.yul\":24972:25091   */\n    tag_731:\n        /* \"#utility.yul\":25130:25131   */\n      0x00\n        /* \"#utility.yul\":25155:25216   */\n      tag_733\n        /* \"#utility.yul\":25208:25215   */\n      dup7\n        /* \"#utility.yul\":25199:25205   */\n      dup3\n        /* \"#utility.yul\":25188:25197   */\n      dup8\n        /* \"#utility.yul\":25184:25206   */\n      add\n        /* \"#utility.yul\":25155:25216   */\n      tag_448\n      jump\t// in\n    tag_733:\n        /* \"#utility.yul\":25145:25216   */\n      swap4\n      pop\n        /* \"#utility.yul\":25101:25226   */\n      pop\n        /* \"#utility.yul\":25265:25267   */\n      0x20\n        /* \"#utility.yul\":25291:25344   */\n      tag_734\n        /* \"#utility.yul\":25336:25343   */\n      dup7\n        /* \"#utility.yul\":25327:25333   */\n      dup3\n        /* \"#utility.yul\":25316:25325   */\n      dup8\n        /* \"#utility.yul\":25312:25334   */\n      add\n        /* \"#utility.yul\":25291:25344   */\n      tag_409\n      jump\t// in\n    tag_734:\n        /* \"#utility.yul\":25281:25344   */\n      swap3\n      pop\n        /* \"#utility.yul\":25236:25354   */\n      pop\n        /* \"#utility.yul\":25393:25395   */\n      0x40\n        /* \"#utility.yul\":25419:25472   */\n      tag_735\n        /* \"#utility.yul\":25464:25471   */\n      dup7\n        /* \"#utility.yul\":25455:25461   */\n      dup3\n        /* \"#utility.yul\":25444:25453   */\n      dup8\n        /* \"#utility.yul\":25440:25462   */\n      add\n        /* \"#utility.yul\":25419:25472   */\n      tag_409\n      jump\t// in\n    tag_735:\n        /* \"#utility.yul\":25409:25472   */\n      swap2\n      pop\n        /* \"#utility.yul\":25364:25482   */\n      pop\n        /* \"#utility.yul\":24854:25489   */\n      swap3\n      pop\n      swap3\n      pop\n      swap3\n      jump\t// out\n        /* \"#utility.yul\":25495:26040   */\n    tag_202:\n        /* \"#utility.yul\":25668:25672   */\n      0x00\n        /* \"#utility.yul\":25706:25709   */\n      0x80\n        /* \"#utility.yul\":25695:25704   */\n      dup3\n        /* \"#utility.yul\":25691:25710   */\n      add\n        /* \"#utility.yul\":25683:25710   */\n      swap1\n      pop\n        /* \"#utility.yul\":25720:25789   */\n      tag_737\n        /* \"#utility.yul\":25786:25787   */\n      0x00\n        /* \"#utility.yul\":25775:25784   */\n      dup4\n        /* \"#utility.yul\":25771:25788   */\n      add\n        /* \"#utility.yul\":25762:25768   */\n      dup8\n        /* \"#utility.yul\":25720:25789   */\n      tag_429\n      jump\t// in\n    tag_737:\n        /* \"#utility.yul\":25799:25869   */\n      tag_738\n        /* \"#utility.yul\":25865:25867   */\n      0x20\n        /* \"#utility.yul\":25854:25863   */\n      dup4\n        /* \"#utility.yul\":25850:25868   */\n      add\n        /* \"#utility.yul\":25841:25847   */\n      dup7\n        /* \"#utility.yul\":25799:25869   */\n      tag_429\n      jump\t// in\n    tag_738:\n        /* \"#utility.yul\":25879:25951   */\n      tag_739\n        /* \"#utility.yul\":25947:25949   */\n      0x40\n        /* \"#utility.yul\":25936:25945   */\n      dup4\n        /* \"#utility.yul\":25932:25950   */\n      add\n        /* \"#utility.yul\":25923:25929   */\n      dup6\n        /* \"#utility.yul\":25879:25951   */\n      tag_412\n      jump\t// in\n    tag_739:\n        /* \"#utility.yul\":25961:26033   */\n      tag_740\n        /* \"#utility.yul\":26029:26031   */\n      0x60\n        /* \"#utility.yul\":26018:26027   */\n      dup4\n        /* \"#utility.yul\":26014:26032   */\n      add\n        /* \"#utility.yul\":26005:26011   */\n      dup5\n        /* \"#utility.yul\":25961:26033   */\n      tag_412\n      jump\t// in\n    tag_740:\n        /* \"#utility.yul\":25495:26040   */\n      swap6\n      swap5\n      pop\n      pop\n      pop\n      pop\n      pop\n      jump\t// out\n        /* \"#utility.yul\":26068:26382   */\n    tag_449:\n        /* \"#utility.yul\":26164:26167   */\n      0x00\n        /* \"#utility.yul\":26185:26255   */\n      tag_742\n        /* \"#utility.yul\":26248:26254   */\n      dup4\n        /* \"#utility.yul\":26243:26246   */\n      dup6\n        /* \"#utility.yul\":26185:26255   */\n      tag_431\n      jump\t// in\n    tag_742:\n        /* \"#utility.yul\":26178:26255   */\n      swap4\n      pop\n        /* \"#utility.yul\":26265:26321   */\n      tag_743\n        /* \"#utility.yul\":26314:26320   */\n      dup4\n        /* \"#utility.yul\":26309:26312   */\n      dup6\n        /* \"#utility.yul\":26302:26307   */\n      dup5\n        /* \"#utility.yul\":26265:26321   */\n      tag_425\n      jump\t// in\n    tag_743:\n        /* \"#utility.yul\":26346:26375   */\n      tag_744\n        /* \"#utility.yul\":26368:26374   */\n      dup4\n        /* \"#utility.yul\":26346:26375   */\n      tag_401\n      jump\t// in\n    tag_744:\n        /* \"#utility.yul\":26341:26344   */\n      dup5\n        /* \"#utility.yul\":26337:26376   */\n      add\n        /* \"#utility.yul\":26330:26376   */\n      swap1\n      pop\n        /* \"#utility.yul\":26068:26382   */\n      swap4\n      swap3\n      pop\n      pop\n      pop\n      jump\t// out\n        /* \"#utility.yul\":26388:26823   */\n    tag_241:\n        /* \"#utility.yul\":26535:26539   */\n      0x00\n        /* \"#utility.yul\":26573:26575   */\n      0x40\n        /* \"#utility.yul\":26562:26571   */\n      dup3\n        /* \"#utility.yul\":26558:26576   */\n      add\n        /* \"#utility.yul\":26550:26576   */\n      swap1\n      pop\n        /* \"#utility.yul\":26586:26655   */\n      tag_746\n        /* \"#utility.yul\":26652:26653   */\n      0x00\n        /* \"#utility.yul\":26641:26650   */\n      dup4\n        /* \"#utility.yul\":26637:26654   */\n      add\n        /* \"#utility.yul\":26628:26634   */\n      dup7\n        /* \"#utility.yul\":26586:26655   */\n      tag_429\n      jump\t// in\n    tag_746:\n        /* \"#utility.yul\":26702:26711   */\n      dup2\n        /* \"#utility.yul\":26696:26700   */\n      dup2\n        /* \"#utility.yul\":26692:26712   */\n      sub\n        /* \"#utility.yul\":26687:26689   */\n      0x20\n        /* \"#utility.yul\":26676:26685   */\n      dup4\n        /* \"#utility.yul\":26672:26690   */\n      add\n        /* \"#utility.yul\":26665:26713   */\n      mstore\n        /* \"#utility.yul\":26730:26816   */\n      tag_747\n        /* \"#utility.yul\":26811:26815   */\n      dup2\n        /* \"#utility.yul\":26802:26808   */\n      dup5\n        /* \"#utility.yul\":26794:26800   */\n      dup7\n        /* \"#utility.yul\":26730:26816   */\n      tag_449\n      jump\t// in\n    tag_747:\n        /* \"#utility.yul\":26722:26816   */\n      swap1\n      pop\n        /* \"#utility.yul\":26388:26823   */\n      swap5\n      swap4\n      pop\n      pop\n      pop\n      pop\n      jump\t// out\n        /* \"#utility.yul\":26829:27006   */\n    tag_450:\n        /* \"#utility.yul\":26969:26998   */\n      0x6272696467652f696e76616c69642d6473742d636861696e2d69640000000000\n        /* \"#utility.yul\":26965:26966   */\n      0x00\n        /* \"#utility.yul\":26957:26963   */\n      dup3\n        /* \"#utility.yul\":26953:26967   */\n      add\n        /* \"#utility.yul\":26946:26999   */\n      mstore\n        /* \"#utility.yul\":26829:27006   */\n      pop\n      jump\t// out\n        /* \"#utility.yul\":27012:27378   */\n    tag_451:\n        /* \"#utility.yul\":27154:27157   */\n      0x00\n        /* \"#utility.yul\":27175:27242   */\n      tag_750\n        /* \"#utility.yul\":27239:27241   */\n      0x1b\n        /* \"#utility.yul\":27234:27237   */\n      dup4\n        /* \"#utility.yul\":27175:27242   */\n      tag_399\n      jump\t// in\n    tag_750:\n        /* \"#utility.yul\":27168:27242   */\n      swap2\n      pop\n        /* \"#utility.yul\":27251:27344   */\n      tag_751\n        /* \"#utility.yul\":27340:27343   */\n      dup3\n        /* \"#utility.yul\":27251:27344   */\n      tag_450\n      jump\t// in\n    tag_751:\n        /* \"#utility.yul\":27369:27371   */\n      0x20\n        /* \"#utility.yul\":27364:27367   */\n      dup3\n        /* \"#utility.yul\":27360:27372   */\n      add\n        /* \"#utility.yul\":27353:27372   */\n      swap1\n      pop\n        /* \"#utility.yul\":27012:27378   */\n      swap2\n      swap1\n      pop\n      jump\t// out\n        /* \"#utility.yul\":27384:27803   */\n    tag_249:\n        /* \"#utility.yul\":27550:27554   */\n      0x00\n        /* \"#utility.yul\":27588:27590   */\n      0x20\n        /* \"#utility.yul\":27577:27586   */\n      dup3\n        /* \"#utility.yul\":27573:27591   */\n      add\n        /* \"#utility.yul\":27565:27591   */\n      swap1\n      pop\n        /* \"#utility.yul\":27637:27646   */\n      dup2\n        /* \"#utility.yul\":27631:27635   */\n      dup2\n        /* \"#utility.yul\":27627:27647   */\n      sub\n        /* \"#utility.yul\":27623:27624   */\n      0x00\n        /* \"#utility.yul\":27612:27621   */\n      dup4\n        /* \"#utility.yul\":27608:27625   */\n      add\n        /* \"#utility.yul\":27601:27648   */\n      mstore\n        /* \"#utility.yul\":27665:27796   */\n      tag_753\n        /* \"#utility.yul\":27791:27795   */\n      dup2\n        /* \"#utility.yul\":27665:27796   */\n      tag_451\n      jump\t// in\n    tag_753:\n        /* \"#utility.yul\":27657:27796   */\n      swap1\n      pop\n        /* \"#utility.yul\":27384:27803   */\n      swap2\n      swap1\n      pop\n      jump\t// out\n        /* \"#utility.yul\":27809:27987   */\n    tag_452:\n        /* \"#utility.yul\":27949:27979   */\n      0x777261707065722f696e73756666696369656e742d62616c616e636500000000\n        /* \"#utility.yul\":27945:27946   */\n      0x00\n        /* \"#utility.yul\":27937:27943   */\n      dup3\n        /* \"#utility.yul\":27933:27947   */\n      add\n        /* \"#utility.yul\":27926:27980   */\n      mstore\n        /* \"#utility.yul\":27809:27987   */\n      pop\n      jump\t// out\n        /* \"#utility.yul\":27993:28359   */\n    tag_453:\n        /* \"#utility.yul\":28135:28138   */\n      0x00\n        /* \"#utility.yul\":28156:28223   */\n      tag_756\n        /* \"#utility.yul\":28220:28222   */\n      0x1c\n        /* \"#utility.yul\":28215:28218   */\n      dup4\n        /* \"#utility.yul\":28156:28223   */\n      tag_399\n      jump\t// in\n    tag_756:\n        /* \"#utility.yul\":28149:28223   */\n      swap2\n      pop\n        /* \"#utility.yul\":28232:28325   */\n      tag_757\n        /* \"#utility.yul\":28321:28324   */\n      dup3\n        /* \"#utility.yul\":28232:28325   */\n      tag_452\n      jump\t// in\n    tag_757:\n        /* \"#utility.yul\":28350:28352   */\n      0x20\n        /* \"#utility.yul\":28345:28348   */\n      dup3\n        /* \"#utility.yul\":28341:28353   */\n      add\n        /* \"#utility.yul\":28334:28353   */\n      swap1\n      pop\n        /* \"#utility.yul\":27993:28359   */\n      swap2\n      swap1\n      pop\n      jump\t// out\n        /* \"#utility.yul\":28365:28784   */\n    tag_253:\n        /* \"#utility.yul\":28531:28535   */\n      0x00\n        /* \"#utility.yul\":28569:28571   */\n      0x20\n        /* \"#utility.yul\":28558:28567   */\n      dup3\n        /* \"#utility.yul\":28554:28572   */\n      add\n        /* \"#utility.yul\":28546:28572   */\n      swap1\n      pop\n        /* \"#utility.yul\":28618:28627   */\n      dup2\n        /* \"#utility.yul\":28612:28616   */\n      dup2\n        /* \"#utility.yul\":28608:28628   */\n      sub\n        /* \"#utility.yul\":28604:28605   */\n      0x00\n        /* \"#utility.yul\":28593:28602   */\n      dup4\n        /* \"#utility.yul\":28589:28606   */\n      add\n        /* \"#utility.yul\":28582:28629   */\n      mstore\n        /* \"#utility.yul\":28646:28777   */\n      tag_759\n        /* \"#utility.yul\":28772:28776   */\n      dup2\n        /* \"#utility.yul\":28646:28777   */\n      tag_453\n      jump\t// in\n    tag_759:\n        /* \"#utility.yul\":28638:28777   */\n      swap1\n      pop\n        /* \"#utility.yul\":28365:28784   */\n      swap2\n      swap1\n      pop\n      jump\t// out\n        /* \"#utility.yul\":28790:28970   */\n    tag_454:\n        /* \"#utility.yul\":28838:28915   */\n      0x4e487b7100000000000000000000000000000000000000000000000000000000\n        /* \"#utility.yul\":28835:28836   */\n      0x00\n        /* \"#utility.yul\":28828:28916   */\n      mstore\n        /* \"#utility.yul\":28935:28939   */\n      0x11\n        /* \"#utility.yul\":28932:28933   */\n      0x04\n        /* \"#utility.yul\":28925:28940   */\n      mstore\n        /* \"#utility.yul\":28959:28963   */\n      0x24\n        /* \"#utility.yul\":28956:28957   */\n      0x00\n        /* \"#utility.yul\":28949:28964   */\n      revert\n        /* \"#utility.yul\":28976:29170   */\n    tag_258:\n        /* \"#utility.yul\":29016:29020   */\n      0x00\n        /* \"#utility.yul\":29036:29056   */\n      tag_762\n        /* \"#utility.yul\":29054:29055   */\n      dup3\n        /* \"#utility.yul\":29036:29056   */\n      tag_407\n      jump\t// in\n    tag_762:\n        /* \"#utility.yul\":29031:29056   */\n      swap2\n      pop\n        /* \"#utility.yul\":29070:29090   */\n      tag_763\n        /* \"#utility.yul\":29088:29089   */\n      dup4\n        /* \"#utility.yul\":29070:29090   */\n      tag_407\n      jump\t// in\n    tag_763:\n        /* \"#utility.yul\":29065:29090   */\n      swap3\n      pop\n        /* \"#utility.yul\":29114:29115   */\n      dup3\n        /* \"#utility.yul\":29111:29112   */\n      dup3\n        /* \"#utility.yul\":29107:29116   */\n      sub\n        /* \"#utility.yul\":29099:29116   */\n      swap1\n      pop\n        /* \"#utility.yul\":29138:29139   */\n      dup2\n        /* \"#utility.yul\":29132:29136   */\n      dup2\n        /* \"#utility.yul\":29129:29140   */\n      gt\n        /* \"#utility.yul\":29126:29163   */\n      iszero\n      tag_764\n      jumpi\n        /* \"#utility.yul\":29143:29161   */\n      tag_765\n      tag_454\n      jump\t// in\n    tag_765:\n        /* \"#utility.yul\":29126:29163   */\n    tag_764:\n        /* \"#utility.yul\":28976:29170   */\n      swap3\n      swap2\n      pop\n      pop\n      jump\t// out\n        /* \"#utility.yul\":29176:29345   */\n    tag_455:\n        /* \"#utility.yul\":29316:29337   */\n      0x777261707065722f6275726e2d6661696c656400000000000000000000000000\n        /* \"#utility.yul\":29312:29313   */\n      0x00\n        /* \"#utility.yul\":29304:29310   */\n      dup3\n        /* \"#utility.yul\":29300:29314   */\n      add\n        /* \"#utility.yul\":29293:29338   */\n      mstore\n        /* \"#utility.yul\":29176:29345   */\n      pop\n      jump\t// out\n        /* \"#utility.yul\":29351:29717   */\n    tag_456:\n        /* \"#utility.yul\":29493:29496   */\n      0x00\n        /* \"#utility.yul\":29514:29581   */\n      tag_768\n        /* \"#utility.yul\":29578:29580   */\n      0x13\n        /* \"#utility.yul\":29573:29576   */\n      dup4\n        /* \"#utility.yul\":29514:29581   */\n      tag_399\n      jump\t// in\n    tag_768:\n        /* \"#utility.yul\":29507:29581   */\n      swap2\n      pop\n        /* \"#utility.yul\":29590:29683   */\n      tag_769\n        /* \"#utility.yul\":29679:29682   */\n      dup3\n        /* \"#utility.yul\":29590:29683   */\n      tag_455\n      jump\t// in\n    tag_769:\n        /* \"#utility.yul\":29708:29710   */\n      0x20\n        /* \"#utility.yul\":29703:29706   */\n      dup3\n        /* \"#utility.yul\":29699:29711   */\n      add\n        /* \"#utility.yul\":29692:29711   */\n      swap1\n      pop\n        /* \"#utility.yul\":29351:29717   */\n      swap2\n      swap1\n      pop\n      jump\t// out\n        /* \"#utility.yul\":29723:30142   */\n    tag_261:\n        /* \"#utility.yul\":29889:29893   */\n      0x00\n        /* \"#utility.yul\":29927:29929   */\n      0x20\n        /* \"#utility.yul\":29916:29925   */\n      dup3\n        /* \"#utility.yul\":29912:29930   */\n      add\n        /* \"#utility.yul\":29904:29930   */\n      swap1\n      pop\n        /* \"#utility.yul\":29976:29985   */\n      dup2\n        /* \"#utility.yul\":29970:29974   */\n      dup2\n        /* \"#utility.yul\":29966:29986   */\n      sub\n        /* \"#utility.yul\":29962:29963   */\n      0x00\n        /* \"#utility.yul\":29951:29960   */\n      dup4\n        /* \"#utility.yul\":29947:29964   */\n      add\n        /* \"#utility.yul\":29940:29987   */\n      mstore\n        /* \"#utility.yul\":30004:30135   */\n      tag_771\n        /* \"#utility.yul\":30130:30134   */\n      dup2\n        /* \"#utility.yul\":30004:30135   */\n      tag_456\n      jump\t// in\n    tag_771:\n        /* \"#utility.yul\":29996:30135   */\n      swap1\n      pop\n        /* \"#utility.yul\":29723:30142   */\n      swap2\n      swap1\n      pop\n      jump\t// out\n        /* \"#utility.yul\":30148:30558   */\n    tag_263:\n        /* \"#utility.yul\":30188:30195   */\n      0x00\n        /* \"#utility.yul\":30211:30231   */\n      tag_773\n        /* \"#utility.yul\":30229:30230   */\n      dup3\n        /* \"#utility.yul\":30211:30231   */\n      tag_407\n      jump\t// in\n    tag_773:\n        /* \"#utility.yul\":30206:30231   */\n      swap2\n      pop\n        /* \"#utility.yul\":30245:30265   */\n      tag_774\n        /* \"#utility.yul\":30263:30264   */\n      dup4\n        /* \"#utility.yul\":30245:30265   */\n      tag_407\n      jump\t// in\n    tag_774:\n        /* \"#utility.yul\":30240:30265   */\n      swap3\n      pop\n        /* \"#utility.yul\":30300:30301   */\n      dup3\n        /* \"#utility.yul\":30297:30298   */\n      dup3\n        /* \"#utility.yul\":30293:30302   */\n      mul\n        /* \"#utility.yul\":30322:30352   */\n      tag_775\n        /* \"#utility.yul\":30340:30351   */\n      dup2\n        /* \"#utility.yul\":30322:30352   */\n      tag_407\n      jump\t// in\n    tag_775:\n        /* \"#utility.yul\":30311:30352   */\n      swap2\n      pop\n        /* \"#utility.yul\":30501:30502   */\n      dup3\n        /* \"#utility.yul\":30492:30499   */\n      dup3\n        /* \"#utility.yul\":30488:30503   */\n      div\n        /* \"#utility.yul\":30485:30486   */\n      dup5\n        /* \"#utility.yul\":30482:30504   */\n      eq\n        /* \"#utility.yul\":30462:30463   */\n      dup4\n        /* \"#utility.yul\":30455:30464   */\n      iszero\n        /* \"#utility.yul\":30435:30518   */\n      or\n        /* \"#utility.yul\":30412:30551   */\n      tag_776\n      jumpi\n        /* \"#utility.yul\":30531:30549   */\n      tag_777\n      tag_454\n      jump\t// in\n    tag_777:\n        /* \"#utility.yul\":30412:30551   */\n    tag_776:\n        /* \"#utility.yul\":30196:30558   */\n      pop\n        /* \"#utility.yul\":30148:30558   */\n      swap3\n      swap2\n      pop\n      pop\n      jump\t// out\n        /* \"#utility.yul\":30564:30744   */\n    tag_457:\n        /* \"#utility.yul\":30612:30689   */\n      0x4e487b7100000000000000000000000000000000000000000000000000000000\n        /* \"#utility.yul\":30609:30610   */\n      0x00\n        /* \"#utility.yul\":30602:30690   */\n      mstore\n        /* \"#utility.yul\":30709:30713   */\n      0x12\n        /* \"#utility.yul\":30706:30707   */\n      0x04\n        /* \"#utility.yul\":30699:30714   */\n      mstore\n        /* \"#utility.yul\":30733:30737   */\n      0x24\n        /* \"#utility.yul\":30730:30731   */\n      0x00\n        /* \"#utility.yul\":30723:30738   */\n      revert\n        /* \"#utility.yul\":30750:30935   */\n    tag_265:\n        /* \"#utility.yul\":30790:30791   */\n      0x00\n        /* \"#utility.yul\":30807:30827   */\n      tag_780\n        /* \"#utility.yul\":30825:30826   */\n      dup3\n        /* \"#utility.yul\":30807:30827   */\n      tag_407\n      jump\t// in\n    tag_780:\n        /* \"#utility.yul\":30802:30827   */\n      swap2\n      pop\n        /* \"#utility.yul\":30841:30861   */\n      tag_781\n        /* \"#utility.yul\":30859:30860   */\n      dup4\n        /* \"#utility.yul\":30841:30861   */\n      tag_407\n      jump\t// in\n    tag_781:\n        /* \"#utility.yul\":30836:30861   */\n      swap3\n      pop\n        /* \"#utility.yul\":30880:30881   */\n      dup3\n        /* \"#utility.yul\":30870:30905   */\n      tag_782\n      jumpi\n        /* \"#utility.yul\":30885:30903   */\n      tag_783\n      tag_457\n      jump\t// in\n    tag_783:\n        /* \"#utility.yul\":30870:30905   */\n    tag_782:\n        /* \"#utility.yul\":30927:30928   */\n      dup3\n        /* \"#utility.yul\":30924:30925   */\n      dup3\n        /* \"#utility.yul\":30920:30929   */\n      div\n        /* \"#utility.yul\":30915:30929   */\n      swap1\n      pop\n        /* \"#utility.yul\":30750:30935   */\n      swap3\n      swap2\n      pop\n      pop\n      jump\t// out\n        /* \"#utility.yul\":30941:31174   */\n    tag_268:\n        /* \"#utility.yul\":30980:30983   */\n      0x00\n        /* \"#utility.yul\":31003:31027   */\n      tag_785\n        /* \"#utility.yul\":31021:31026   */\n      dup3\n        /* \"#utility.yul\":31003:31027   */\n      tag_407\n      jump\t// in\n    tag_785:\n        /* \"#utility.yul\":30994:31027   */\n      swap2\n      pop\n        /* \"#utility.yul\":31049:31115   */\n      0xffffffffffffffffffffffffffffffffffffffffffffffffffffffffffffffff\n        /* \"#utility.yul\":31042:31047   */\n      dup3\n        /* \"#utility.yul\":31039:31116   */\n      sub\n        /* \"#utility.yul\":31036:31139   */\n      tag_786\n      jumpi\n        /* \"#utility.yul\":31119:31137   */\n      tag_787\n      tag_454\n      jump\t// in\n    tag_787:\n        /* \"#utility.yul\":31036:31139   */\n    tag_786:\n        /* \"#utility.yul\":31166:31167   */\n      0x01\n        /* \"#utility.yul\":31159:31164   */\n      dup3\n        /* \"#utility.yul\":31155:31168   */\n      add\n        /* \"#utility.yul\":31148:31168   */\n      swap1\n      pop\n        /* \"#utility.yul\":30941:31174   */\n      swap2\n      swap1\n      pop\n      jump\t// out\n        /* \"#utility.yul\":31180:31622   */\n    tag_270:\n        /* \"#utility.yul\":31329:31333   */\n      0x00\n        /* \"#utility.yul\":31367:31369   */\n      0x60\n        /* \"#utility.yul\":31356:31365   */\n      dup3\n        /* \"#utility.yul\":31352:31370   */\n      add\n        /* \"#utility.yul\":31344:31370   */\n      swap1\n      pop\n        /* \"#utility.yul\":31380:31451   */\n      tag_789\n        /* \"#utility.yul\":31448:31449   */\n      0x00\n        /* \"#utility.yul\":31437:31446   */\n      dup4\n        /* \"#utility.yul\":31433:31450   */\n      add\n        /* \"#utility.yul\":31424:31430   */\n      dup7\n        /* \"#utility.yul\":31380:31451   */\n      tag_428\n      jump\t// in\n    tag_789:\n        /* \"#utility.yul\":31461:31533   */\n      tag_790\n        /* \"#utility.yul\":31529:31531   */\n      0x20\n        /* \"#utility.yul\":31518:31527   */\n      dup4\n        /* \"#utility.yul\":31514:31532   */\n      add\n        /* \"#utility.yul\":31505:31511   */\n      dup6\n        /* \"#utility.yul\":31461:31533   */\n      tag_412\n      jump\t// in\n    tag_790:\n        /* \"#utility.yul\":31543:31615   */\n      tag_791\n        /* \"#utility.yul\":31611:31613   */\n      0x40\n        /* \"#utility.yul\":31600:31609   */\n      dup4\n        /* \"#utility.yul\":31596:31614   */\n      add\n        /* \"#utility.yul\":31587:31593   */\n      dup5\n        /* \"#utility.yul\":31543:31615   */\n      tag_412\n      jump\t// in\n    tag_791:\n        /* \"#utility.yul\":31180:31622   */\n      swap5\n      swap4\n      pop\n      pop\n      pop\n      pop\n      jump\t// out\n        /* \"#utility.yul\":31650:32477   */\n    tag_458:\n        /* \"#utility.yul\":31733:31736   */\n      0x00\n        /* \"#utility.yul\":31770:31775   */\n      dup2\n        /* \"#utility.yul\":31764:31776   */\n      sload\n        /* \"#utility.yul\":31799:31835   */\n      tag_793\n        /* \"#utility.yul\":31825:31834   */\n      dup2\n        /* \"#utility.yul\":31799:31835   */\n      tag_181\n      jump\t// in\n    tag_793:\n        /* \"#utility.yul\":31851:31921   */\n      tag_794\n        /* \"#utility.yul\":31914:31920   */\n      dup2\n        /* \"#utility.yul\":31909:31912   */\n      dup7\n        /* \"#utility.yul\":31851:31921   */\n      tag_431\n      jump\t// in\n    tag_794:\n        /* \"#utility.yul\":31844:31921   */\n      swap5\n      pop\n        /* \"#utility.yul\":31952:31953   */\n      0x01\n        /* \"#utility.yul\":31941:31950   */\n      dup3\n        /* \"#utility.yul\":31937:31954   */\n      and\n        /* \"#utility.yul\":31968:31969   */\n      0x00\n        /* \"#utility.yul\":31963:32127   */\n      dup2\n      eq\n      tag_796\n      jumpi\n        /* \"#utility.yul\":32141:32142   */\n      0x01\n        /* \"#utility.yul\":32136:32471   */\n      dup2\n      eq\n      tag_797\n      jumpi\n        /* \"#utility.yul\":31930:32471   */\n      jump(tag_795)\n        /* \"#utility.yul\":31963:32127   */\n    tag_796:\n        /* \"#utility.yul\":32047:32051   */\n      0xff\n        /* \"#utility.yul\":32043:32052   */\n      not\n        /* \"#utility.yul\":32032:32041   */\n      dup4\n        /* \"#utility.yul\":32028:32053   */\n      and\n        /* \"#utility.yul\":32023:32026   */\n      dup7\n        /* \"#utility.yul\":32016:32054   */\n      mstore\n        /* \"#utility.yul\":32107:32113   */\n      dup2\n        /* \"#utility.yul\":32100:32114   */\n      iszero\n        /* \"#utility.yul\":32093:32115   */\n      iszero\n        /* \"#utility.yul\":32087:32091   */\n      0x20\n        /* \"#utility.yul\":32083:32116   */\n      mul\n        /* \"#utility.yul\":32078:32081   */\n      dup7\n        /* \"#utility.yul\":32074:32117   */\n      add\n        /* \"#utility.yul\":32067:32117   */\n      swap4\n      pop\n        /* \"#utility.yul\":31963:32127   */\n      jump(tag_795)\n        /* \"#utility.yul\":32136:32471   */\n    tag_797:\n        /* \"#utility.yul\":32203:32240   */\n      tag_798\n        /* \"#utility.yul\":32234:32239   */\n      dup6\n        /* \"#utility.yul\":32203:32240   */\n      tag_439\n      jump\t// in\n    tag_798:\n        /* \"#utility.yul\":32262:32263   */\n      0x00\n        /* \"#utility.yul\":32276:32430   */\n    tag_799:\n        /* \"#utility.yul\":32290:32296   */\n      dup4\n        /* \"#utility.yul\":32287:32288   */\n      dup2\n        /* \"#utility.yul\":32284:32297   */\n      lt\n        /* \"#utility.yul\":32276:32430   */\n      iszero\n      tag_801\n      jumpi\n        /* \"#utility.yul\":32364:32371   */\n      dup2\n        /* \"#utility.yul\":32358:32372   */\n      sload\n        /* \"#utility.yul\":32354:32355   */\n      dup2\n        /* \"#utility.yul\":32349:32352   */\n      dup10\n        /* \"#utility.yul\":32345:32356   */\n      add\n        /* \"#utility.yul\":32338:32373   */\n      mstore\n        /* \"#utility.yul\":32414:32415   */\n      0x01\n        /* \"#utility.yul\":32405:32412   */\n      dup3\n        /* \"#utility.yul\":32401:32416   */\n      add\n        /* \"#utility.yul\":32390:32416   */\n      swap2\n      pop\n        /* \"#utility.yul\":32312:32316   */\n      0x20\n        /* \"#utility.yul\":32309:32310   */\n      dup2\n        /* \"#utility.yul\":32305:32317   */\n      add\n        /* \"#utility.yul\":32300:32317   */\n      swap1\n      pop\n        /* \"#utility.yul\":32276:32430   */\n      jump(tag_799)\n    tag_801:\n        /* \"#utility.yul\":32459:32460   */\n      dup1\n        /* \"#utility.yul\":32454:32457   */\n      dup9\n        /* \"#utility.yul\":32450:32461   */\n      add\n        /* \"#utility.yul\":32443:32461   */\n      swap6\n      pop\n        /* \"#utility.yul\":32143:32471   */\n      pop\n      pop\n        /* \"#utility.yul\":31930:32471   */\n    tag_795:\n      pop\n        /* \"#utility.yul\":31737:32477   */\n      pop\n      pop\n        /* \"#utility.yul\":31650:32477   */\n      swap3\n      swap2\n      pop\n      pop\n      jump\t// out\n        /* \"#utility.yul\":32483:32625   */\n    tag_459:\n        /* \"#utility.yul\":32586:32618   */\n      tag_803\n        /* \"#utility.yul\":32612:32617   */\n      dup2\n        /* \"#utility.yul\":32586:32618   */\n      tag_446\n      jump\t// in\n    tag_803:\n        /* \"#utility.yul\":32581:32584   */\n      dup3\n        /* \"#utility.yul\":32574:32619   */\n      mstore\n        /* \"#utility.yul\":32483:32625   */\n      pop\n      pop\n      jump\t// out\n        /* \"#utility.yul\":32631:33689   */\n    tag_272:\n        /* \"#utility.yul\":32929:32933   */\n      0x00\n        /* \"#utility.yul\":32967:32970   */\n      0xc0\n        /* \"#utility.yul\":32956:32965   */\n      dup3\n        /* \"#utility.yul\":32952:32971   */\n      add\n        /* \"#utility.yul\":32944:32971   */\n      swap1\n      pop\n        /* \"#utility.yul\":32981:33050   */\n      tag_805\n        /* \"#utility.yul\":33047:33048   */\n      0x00\n        /* \"#utility.yul\":33036:33045   */\n      dup4\n        /* \"#utility.yul\":33032:33049   */\n      add\n        /* \"#utility.yul\":33023:33029   */\n      dup10\n        /* \"#utility.yul\":32981:33050   */\n      tag_429\n      jump\t// in\n    tag_805:\n        /* \"#utility.yul\":33097:33106   */\n      dup2\n        /* \"#utility.yul\":33091:33095   */\n      dup2\n        /* \"#utility.yul\":33087:33107   */\n      sub\n        /* \"#utility.yul\":33082:33084   */\n      0x20\n        /* \"#utility.yul\":33071:33080   */\n      dup4\n        /* \"#utility.yul\":33067:33085   */\n      add\n        /* \"#utility.yul\":33060:33108   */\n      mstore\n        /* \"#utility.yul\":33125:33198   */\n      tag_806\n        /* \"#utility.yul\":33193:33197   */\n      dup2\n        /* \"#utility.yul\":33184:33190   */\n      dup9\n        /* \"#utility.yul\":33125:33198   */\n      tag_458\n      jump\t// in\n    tag_806:\n        /* \"#utility.yul\":33117:33198   */\n      swap1\n      pop\n        /* \"#utility.yul\":33245:33254   */\n      dup2\n        /* \"#utility.yul\":33239:33243   */\n      dup2\n        /* \"#utility.yul\":33235:33255   */\n      sub\n        /* \"#utility.yul\":33230:33232   */\n      0x40\n        /* \"#utility.yul\":33219:33228   */\n      dup4\n        /* \"#utility.yul\":33215:33233   */\n      add\n        /* \"#utility.yul\":33208:33256   */\n      mstore\n        /* \"#utility.yul\":33273:33349   */\n      tag_807\n        /* \"#utility.yul\":33344:33348   */\n      dup2\n        /* \"#utility.yul\":33335:33341   */\n      dup8\n        /* \"#utility.yul\":33273:33349   */\n      tag_432\n      jump\t// in\n    tag_807:\n        /* \"#utility.yul\":33265:33349   */\n      swap1\n      pop\n        /* \"#utility.yul\":33359:33447   */\n      tag_808\n        /* \"#utility.yul\":33443:33445   */\n      0x60\n        /* \"#utility.yul\":33432:33441   */\n      dup4\n        /* \"#utility.yul\":33428:33446   */\n      add\n        /* \"#utility.yul\":33419:33425   */\n      dup7\n        /* \"#utility.yul\":33359:33447   */\n      tag_459\n      jump\t// in\n    tag_808:\n        /* \"#utility.yul\":33457:33530   */\n      tag_809\n        /* \"#utility.yul\":33525:33528   */\n      0x80\n        /* \"#utility.yul\":33514:33523   */\n      dup4\n        /* \"#utility.yul\":33510:33529   */\n      add\n        /* \"#utility.yul\":33501:33507   */\n      dup6\n        /* \"#utility.yul\":33457:33530   */\n      tag_428\n      jump\t// in\n    tag_809:\n        /* \"#utility.yul\":33578:33587   */\n      dup2\n        /* \"#utility.yul\":33572:33576   */\n      dup2\n        /* \"#utility.yul\":33568:33588   */\n      sub\n        /* \"#utility.yul\":33562:33565   */\n      0xa0\n        /* \"#utility.yul\":33551:33560   */\n      dup4\n        /* \"#utility.yul\":33547:33566   */\n      add\n        /* \"#utility.yul\":33540:33589   */\n      mstore\n        /* \"#utility.yul\":33606:33682   */\n      tag_810\n        /* \"#utility.yul\":33677:33681   */\n      dup2\n        /* \"#utility.yul\":33668:33674   */\n      dup5\n        /* \"#utility.yul\":33606:33682   */\n      tag_432\n      jump\t// in\n    tag_810:\n        /* \"#utility.yul\":33598:33682   */\n      swap1\n      pop\n        /* \"#utility.yul\":32631:33689   */\n      swap8\n      swap7\n      pop\n      pop\n      pop\n      pop\n      pop\n      pop\n      pop\n      jump\t// out\n        /* \"#utility.yul\":33695:34351   */\n    tag_277:\n        /* \"#utility.yul\":33896:33900   */\n      0x00\n        /* \"#utility.yul\":33934:33937   */\n      0xa0\n        /* \"#utility.yul\":33923:33932   */\n      dup3\n        /* \"#utility.yul\":33919:33938   */\n      add\n        /* \"#utility.yul\":33911:33938   */\n      swap1\n      pop\n        /* \"#utility.yul\":33948:34017   */\n      tag_812\n        /* \"#utility.yul\":34014:34015   */\n      0x00\n        /* \"#utility.yul\":34003:34012   */\n      dup4\n        /* \"#utility.yul\":33999:34016   */\n      add\n        /* \"#utility.yul\":33990:33996   */\n      dup9\n        /* \"#utility.yul\":33948:34017   */\n      tag_429\n      jump\t// in\n    tag_812:\n        /* \"#utility.yul\":34027:34097   */\n      tag_813\n        /* \"#utility.yul\":34093:34095   */\n      0x20\n        /* \"#utility.yul\":34082:34091   */\n      dup4\n        /* \"#utility.yul\":34078:34096   */\n      add\n        /* \"#utility.yul\":34069:34075   */\n      dup8\n        /* \"#utility.yul\":34027:34097   */\n      tag_429\n      jump\t// in\n    tag_813:\n        /* \"#utility.yul\":34107:34179   */\n      tag_814\n        /* \"#utility.yul\":34175:34177   */\n      0x40\n        /* \"#utility.yul\":34164:34173   */\n      dup4\n        /* \"#utility.yul\":34160:34178   */\n      add\n        /* \"#utility.yul\":34151:34157   */\n      dup7\n        /* \"#utility.yul\":34107:34179   */\n      tag_412\n      jump\t// in\n    tag_814:\n        /* \"#utility.yul\":34189:34261   */\n      tag_815\n        /* \"#utility.yul\":34257:34259   */\n      0x60\n        /* \"#utility.yul\":34246:34255   */\n      dup4\n        /* \"#utility.yul\":34242:34260   */\n      add\n        /* \"#utility.yul\":34233:34239   */\n      dup6\n        /* \"#utility.yul\":34189:34261   */\n      tag_412\n      jump\t// in\n    tag_815:\n        /* \"#utility.yul\":34271:34344   */\n      tag_816\n        /* \"#utility.yul\":34339:34342   */\n      0x80\n        /* \"#utility.yul\":34328:34337   */\n      dup4\n        /* \"#utility.yul\":34324:34343   */\n      add\n        /* \"#utility.yul\":34315:34321   */\n      dup5\n        /* \"#utility.yul\":34271:34344   */\n      tag_412\n      jump\t// in\n    tag_816:\n        /* \"#utility.yul\":33695:34351   */\n      swap7\n      swap6\n      pop\n      pop\n      pop\n      pop\n      pop\n      pop\n      jump\t// out\n        /* \"#utility.yul\":34357:35009   */\n    tag_306:\n        /* \"#utility.yul\":34558:34562   */\n      0x00\n        /* \"#utility.yul\":34596:34599   */\n      0x80\n        /* \"#utility.yul\":34585:34594   */\n      dup3\n        /* \"#utility.yul\":34581:34600   */\n      add\n        /* \"#utility.yul\":34573:34600   */\n      swap1\n      pop\n        /* \"#utility.yul\":34610:34679   */\n      tag_818\n        /* \"#utility.yul\":34676:34677   */\n      0x00\n        /* \"#utility.yul\":34665:34674   */\n      dup4\n        /* \"#utility.yul\":34661:34678   */\n      add\n        /* \"#utility.yul\":34652:34658   */\n      dup9\n        /* \"#utility.yul\":34610:34679   */\n      tag_429\n      jump\t// in\n    tag_818:\n        /* \"#utility.yul\":34689:34759   */\n      tag_819\n        /* \"#utility.yul\":34755:34757   */\n      0x20\n        /* \"#utility.yul\":34744:34753   */\n      dup4\n        /* \"#utility.yul\":34740:34758   */\n      add\n        /* \"#utility.yul\":34731:34737   */\n      dup8\n        /* \"#utility.yul\":34689:34759   */\n      tag_429\n      jump\t// in\n    tag_819:\n        /* \"#utility.yul\":34769:34841   */\n      tag_820\n        /* \"#utility.yul\":34837:34839   */\n      0x40\n        /* \"#utility.yul\":34826:34835   */\n      dup4\n        /* \"#utility.yul\":34822:34840   */\n      add\n        /* \"#utility.yul\":34813:34819   */\n      dup7\n        /* \"#utility.yul\":34769:34841   */\n      tag_412\n      jump\t// in\n    tag_820:\n        /* \"#utility.yul\":34888:34897   */\n      dup2\n        /* \"#utility.yul\":34882:34886   */\n      dup2\n        /* \"#utility.yul\":34878:34898   */\n      sub\n        /* \"#utility.yul\":34873:34875   */\n      0x60\n        /* \"#utility.yul\":34862:34871   */\n      dup4\n        /* \"#utility.yul\":34858:34876   */\n      add\n        /* \"#utility.yul\":34851:34899   */\n      mstore\n        /* \"#utility.yul\":34916:35002   */\n      tag_821\n        /* \"#utility.yul\":34997:35001   */\n      dup2\n        /* \"#utility.yul\":34988:34994   */\n      dup5\n        /* \"#utility.yul\":34980:34986   */\n      dup7\n        /* \"#utility.yul\":34916:35002   */\n      tag_449\n      jump\t// in\n    tag_821:\n        /* \"#utility.yul\":34908:35002   */\n      swap1\n      pop\n        /* \"#utility.yul\":34357:35009   */\n      swap7\n      swap6\n      pop\n      pop\n      pop\n      pop\n      pop\n      pop\n      jump\t// out\n        /* \"#utility.yul\":35015:35347   */\n    tag_314:\n        /* \"#utility.yul\":35136:35140   */\n      0x00\n        /* \"#utility.yul\":35174:35176   */\n      0x40\n        /* \"#utility.yul\":35163:35172   */\n      dup3\n        /* \"#utility.yul\":35159:35177   */\n      add\n        /* \"#utility.yul\":35151:35177   */\n      swap1\n      pop\n        /* \"#utility.yul\":35187:35258   */\n      tag_823\n        /* \"#utility.yul\":35255:35256   */\n      0x00\n        /* \"#utility.yul\":35244:35253   */\n      dup4\n        /* \"#utility.yul\":35240:35257   */\n      add\n        /* \"#utility.yul\":35231:35237   */\n      dup6\n        /* \"#utility.yul\":35187:35258   */\n      tag_412\n      jump\t// in\n    tag_823:\n        /* \"#utility.yul\":35268:35340   */\n      tag_824\n        /* \"#utility.yul\":35336:35338   */\n      0x20\n        /* \"#utility.yul\":35325:35334   */\n      dup4\n        /* \"#utility.yul\":35321:35339   */\n      add\n        /* \"#utility.yul\":35312:35318   */\n      dup5\n        /* \"#utility.yul\":35268:35340   */\n      tag_412\n      jump\t// in\n    tag_824:\n        /* \"#utility.yul\":35015:35347   */\n      swap4\n      swap3\n      pop\n      pop\n      pop\n      jump\t// out\n        /* \"#utility.yul\":35353:36175   */\n    tag_319:\n        /* \"#utility.yul\":35586:35590   */\n      0x00\n        /* \"#utility.yul\":35624:35627   */\n      0xa0\n        /* \"#utility.yul\":35613:35622   */\n      dup3\n        /* \"#utility.yul\":35609:35628   */\n      add\n        /* \"#utility.yul\":35601:35628   */\n      swap1\n      pop\n        /* \"#utility.yul\":35638:35707   */\n      tag_826\n        /* \"#utility.yul\":35704:35705   */\n      0x00\n        /* \"#utility.yul\":35693:35702   */\n      dup4\n        /* \"#utility.yul\":35689:35706   */\n      add\n        /* \"#utility.yul\":35680:35686   */\n      dup9\n        /* \"#utility.yul\":35638:35707   */\n      tag_429\n      jump\t// in\n    tag_826:\n        /* \"#utility.yul\":35717:35789   */\n      tag_827\n        /* \"#utility.yul\":35785:35787   */\n      0x20\n        /* \"#utility.yul\":35774:35783   */\n      dup4\n        /* \"#utility.yul\":35770:35788   */\n      add\n        /* \"#utility.yul\":35761:35767   */\n      dup8\n        /* \"#utility.yul\":35717:35789   */\n      tag_428\n      jump\t// in\n    tag_827:\n        /* \"#utility.yul\":35836:35845   */\n      dup2\n        /* \"#utility.yul\":35830:35834   */\n      dup2\n        /* \"#utility.yul\":35826:35846   */\n      sub\n        /* \"#utility.yul\":35821:35823   */\n      0x40\n        /* \"#utility.yul\":35810:35819   */\n      dup4\n        /* \"#utility.yul\":35806:35824   */\n      add\n        /* \"#utility.yul\":35799:35847   */\n      mstore\n        /* \"#utility.yul\":35864:35940   */\n      tag_828\n        /* \"#utility.yul\":35935:35939   */\n      dup2\n        /* \"#utility.yul\":35926:35932   */\n      dup7\n        /* \"#utility.yul\":35864:35940   */\n      tag_432\n      jump\t// in\n    tag_828:\n        /* \"#utility.yul\":35856:35940   */\n      swap1\n      pop\n        /* \"#utility.yul\":35950:36016   */\n      tag_829\n        /* \"#utility.yul\":36012:36014   */\n      0x60\n        /* \"#utility.yul\":36001:36010   */\n      dup4\n        /* \"#utility.yul\":35997:36015   */\n      add\n        /* \"#utility.yul\":35988:35994   */\n      dup6\n        /* \"#utility.yul\":35950:36016   */\n      tag_411\n      jump\t// in\n    tag_829:\n        /* \"#utility.yul\":36064:36073   */\n      dup2\n        /* \"#utility.yul\":36058:36062   */\n      dup2\n        /* \"#utility.yul\":36054:36074   */\n      sub\n        /* \"#utility.yul\":36048:36051   */\n      0x80\n        /* \"#utility.yul\":36037:36046   */\n      dup4\n        /* \"#utility.yul\":36033:36052   */\n      add\n        /* \"#utility.yul\":36026:36075   */\n      mstore\n        /* \"#utility.yul\":36092:36168   */\n      tag_830\n        /* \"#utility.yul\":36163:36167   */\n      dup2\n        /* \"#utility.yul\":36154:36160   */\n      dup5\n        /* \"#utility.yul\":36092:36168   */\n      tag_432\n      jump\t// in\n    tag_830:\n        /* \"#utility.yul\":36084:36168   */\n      swap1\n      pop\n        /* \"#utility.yul\":35353:36175   */\n      swap7\n      swap6\n      pop\n      pop\n      pop\n      pop\n      pop\n      pop\n      jump\t// out\n        /* \"#utility.yul\":36181:36324   */\n    tag_460:\n        /* \"#utility.yul\":36238:36243   */\n      0x00\n        /* \"#utility.yul\":36269:36275   */\n      dup2\n        /* \"#utility.yul\":36263:36276   */\n      mload\n        /* \"#utility.yul\":36254:36276   */\n      swap1\n      pop\n        /* \"#utility.yul\":36285:36318   */\n      tag_832\n        /* \"#utility.yul\":36312:36317   */\n      dup2\n        /* \"#utility.yul\":36285:36318   */\n      tag_408\n      jump\t// in\n    tag_832:\n        /* \"#utility.yul\":36181:36324   */\n      swap3\n      swap2\n      pop\n      pop\n      jump\t// out\n        /* \"#utility.yul\":36330:36837   */\n    tag_323:\n        /* \"#utility.yul\":36409:36415   */\n      0x00\n        /* \"#utility.yul\":36417:36423   */\n      dup1\n        /* \"#utility.yul\":36466:36468   */\n      0x40\n        /* \"#utility.yul\":36454:36463   */\n      dup4\n        /* \"#utility.yul\":36445:36452   */\n      dup6\n        /* \"#utility.yul\":36441:36464   */\n      sub\n        /* \"#utility.yul\":36437:36469   */\n      slt\n        /* \"#utility.yul\":36434:36553   */\n      iszero\n      tag_834\n      jumpi\n        /* \"#utility.yul\":36472:36551   */\n      tag_835\n      tag_386\n      jump\t// in\n    tag_835:\n        /* \"#utility.yul\":36434:36553   */\n    tag_834:\n        /* \"#utility.yul\":36592:36593   */\n      0x00\n        /* \"#utility.yul\":36617:36681   */\n      tag_836\n        /* \"#utility.yul\":36673:36680   */\n      dup6\n        /* \"#utility.yul\":36664:36670   */\n      dup3\n        /* \"#utility.yul\":36653:36662   */\n      dup7\n        /* \"#utility.yul\":36649:36671   */\n      add\n        /* \"#utility.yul\":36617:36681   */\n      tag_460\n      jump\t// in\n    tag_836:\n        /* \"#utility.yul\":36607:36681   */\n      swap3\n      pop\n        /* \"#utility.yul\":36563:36691   */\n      pop\n        /* \"#utility.yul\":36730:36732   */\n      0x20\n        /* \"#utility.yul\":36756:36820   */\n      tag_837\n        /* \"#utility.yul\":36812:36819   */\n      dup6\n        /* \"#utility.yul\":36803:36809   */\n      dup3\n        /* \"#utility.yul\":36792:36801   */\n      dup7\n        /* \"#utility.yul\":36788:36810   */\n      add\n        /* \"#utility.yul\":36756:36820   */\n      tag_460\n      jump\t// in\n    tag_837:\n        /* \"#utility.yul\":36746:36820   */\n      swap2\n      pop\n        /* \"#utility.yul\":36701:36830   */\n      pop\n        /* \"#utility.yul\":36330:36837   */\n      swap3\n      pop\n      swap3\n      swap1\n      pop\n      jump\t// out\n        /* \"#utility.yul\":36843:36936   */\n    tag_461:\n        /* \"#utility.yul\":36880:36886   */\n      0x00\n        /* \"#utility.yul\":36927:36929   */\n      0x20\n        /* \"#utility.yul\":36922:36924   */\n      0x1f\n        /* \"#utility.yul\":36915:36920   */\n      dup4\n        /* \"#utility.yul\":36911:36925   */\n      add\n        /* \"#utility.yul\":36907:36930   */\n      div\n        /* \"#utility.yul\":36897:36930   */\n      swap1\n      pop\n        /* \"#utility.yul\":36843:36936   */\n      swap2\n      swap1\n      pop\n      jump\t// out\n        /* \"#utility.yul\":36942:37049   */\n    tag_462:\n        /* \"#utility.yul\":36986:36994   */\n      0x00\n        /* \"#utility.yul\":37036:37041   */\n      dup3\n        /* \"#utility.yul\":37030:37034   */\n      dup3\n        /* \"#utility.yul\":37026:37042   */\n      shl\n        /* \"#utility.yul\":37005:37042   */\n      swap1\n      pop\n        /* \"#utility.yul\":36942:37049   */\n      swap3\n      swap2\n      pop\n      pop\n      jump\t// out\n        /* \"#utility.yul\":37055:37448   */\n    tag_463:\n        /* \"#utility.yul\":37124:37130   */\n      0x00\n        /* \"#utility.yul\":37174:37175   */\n      0x08\n        /* \"#utility.yul\":37162:37172   */\n      dup4\n        /* \"#utility.yul\":37158:37176   */\n      mul\n        /* \"#utility.yul\":37197:37294   */\n      tag_841\n        /* \"#utility.yul\":37227:37293   */\n      0xffffffffffffffffffffffffffffffffffffffffffffffffffffffffffffffff\n        /* \"#utility.yul\":37216:37225   */\n      dup3\n        /* \"#utility.yul\":37197:37294   */\n      tag_462\n      jump\t// in\n    tag_841:\n        /* \"#utility.yul\":37315:37354   */\n      tag_842\n        /* \"#utility.yul\":37345:37353   */\n      dup7\n        /* \"#utility.yul\":37334:37343   */\n      dup4\n        /* \"#utility.yul\":37315:37354   */\n      tag_462\n      jump\t// in\n    tag_842:\n        /* \"#utility.yul\":37303:37354   */\n      swap6\n      pop\n        /* \"#utility.yul\":37387:37391   */\n      dup1\n        /* \"#utility.yul\":37383:37392   */\n      not\n        /* \"#utility.yul\":37376:37381   */\n      dup5\n        /* \"#utility.yul\":37372:37393   */\n      and\n        /* \"#utility.yul\":37363:37393   */\n      swap4\n      pop\n        /* \"#utility.yul\":37436:37440   */\n      dup1\n        /* \"#utility.yul\":37426:37434   */\n      dup7\n        /* \"#utility.yul\":37422:37441   */\n      and\n        /* \"#utility.yul\":37415:37420   */\n      dup5\n        /* \"#utility.yul\":37412:37442   */\n      or\n        /* \"#utility.yul\":37402:37442   */\n      swap3\n      pop\n        /* \"#utility.yul\":37131:37448   */\n      pop\n      pop\n        /* \"#utility.yul\":37055:37448   */\n      swap4\n      swap3\n      pop\n      pop\n      pop\n      jump\t// out\n        /* \"#utility.yul\":37454:37596   */\n    tag_464:\n        /* \"#utility.yul\":37504:37513   */\n      0x00\n        /* \"#utility.yul\":37537:37590   */\n      tag_844\n        /* \"#utility.yul\":37555:37589   */\n      tag_845\n        /* \"#utility.yul\":37564:37588   */\n      tag_846\n        /* \"#utility.yul\":37582:37587   */\n      dup5\n        /* \"#utility.yul\":37564:37588   */\n      tag_407\n      jump\t// in\n    tag_846:\n        /* \"#utility.yul\":37555:37589   */\n      tag_415\n      jump\t// in\n    tag_845:\n        /* \"#utility.yul\":37537:37590   */\n      tag_407\n      jump\t// in\n    tag_844:\n        /* \"#utility.yul\":37524:37590   */\n      swap1\n      pop\n        /* \"#utility.yul\":37454:37596   */\n      swap2\n      swap1\n      pop\n      jump\t// out\n        /* \"#utility.yul\":37602:37677   */\n    tag_465:\n        /* \"#utility.yul\":37645:37648   */\n      0x00\n        /* \"#utility.yul\":37666:37671   */\n      dup2\n        /* \"#utility.yul\":37659:37671   */\n      swap1\n      pop\n        /* \"#utility.yul\":37602:37677   */\n      swap2\n      swap1\n      pop\n      jump\t// out\n        /* \"#utility.yul\":37683:37952   */\n    tag_466:\n        /* \"#utility.yul\":37793:37832   */\n      tag_849\n        /* \"#utility.yul\":37824:37831   */\n      dup4\n        /* \"#utility.yul\":37793:37832   */\n      tag_464\n      jump\t// in\n    tag_849:\n        /* \"#utility.yul\":37854:37945   */\n      tag_850\n        /* \"#utility.yul\":37903:37944   */\n      tag_851\n        /* \"#utility.yul\":37927:37943   */\n      dup3\n        /* \"#utility.yul\":37903:37944   */\n      tag_465\n      jump\t// in\n    tag_851:\n        /* \"#utility.yul\":37895:37901   */\n      dup5\n        /* \"#utility.yul\":37888:37892   */\n      dup5\n        /* \"#utility.yul\":37882:37893   */\n      sload\n        /* \"#utility.yul\":37854:37945   */\n      tag_463\n      jump\t// in\n    tag_850:\n        /* \"#utility.yul\":37848:37852   */\n      dup3\n        /* \"#utility.yul\":37841:37946   */\n      sstore\n        /* \"#utility.yul\":37759:37952   */\n      pop\n        /* \"#utility.yul\":37683:37952   */\n      pop\n      pop\n      pop\n      jump\t// out\n        /* \"#utility.yul\":37958:38031   */\n    tag_467:\n        /* \"#utility.yul\":38003:38006   */\n      0x00\n        /* \"#utility.yul\":37958:38031   */\n      swap1\n      jump\t// out\n        /* \"#utility.yul\":38037:38226   */\n    tag_468:\n        /* \"#utility.yul\":38114:38146   */\n      tag_854\n      tag_467\n      jump\t// in\n    tag_854:\n        /* \"#utility.yul\":38155:38220   */\n      tag_855\n        /* \"#utility.yul\":38213:38219   */\n      dup2\n        /* \"#utility.yul\":38205:38211   */\n      dup5\n        /* \"#utility.yul\":38199:38203   */\n      dup5\n        /* \"#utility.yul\":38155:38220   */\n      tag_466\n      jump\t// in\n    tag_855:\n        /* \"#utility.yul\":38090:38226   */\n      pop\n        /* \"#utility.yul\":38037:38226   */\n      pop\n      pop\n      jump\t// out\n        /* \"#utility.yul\":38232:38418   */\n    tag_469:\n        /* \"#utility.yul\":38292:38412   */\n    tag_857:\n        /* \"#utility.yul\":38309:38312   */\n      dup2\n        /* \"#utility.yul\":38302:38307   */\n      dup2\n        /* \"#utility.yul\":38299:38313   */\n      lt\n        /* \"#utility.yul\":38292:38412   */\n      iszero\n      tag_859\n      jumpi\n        /* \"#utility.yul\":38363:38402   */\n      tag_860\n        /* \"#utility.yul\":38400:38401   */\n      0x00\n        /* \"#utility.yul\":38393:38398   */\n      dup3\n        /* \"#utility.yul\":38363:38402   */\n      tag_468\n      jump\t// in\n    tag_860:\n        /* \"#utility.yul\":38336:38337   */\n      0x01\n        /* \"#utility.yul\":38329:38334   */\n      dup2\n        /* \"#utility.yul\":38325:38338   */\n      add\n        /* \"#utility.yul\":38316:38338   */\n      swap1\n      pop\n        /* \"#utility.yul\":38292:38412   */\n      jump(tag_857)\n    tag_859:\n        /* \"#utility.yul\":38232:38418   */\n      pop\n      pop\n      jump\t// out\n        /* \"#utility.yul\":38424:38965   */\n    tag_470:\n        /* \"#utility.yul\":38524:38526   */\n      0x1f\n        /* \"#utility.yul\":38519:38522   */\n      dup3\n        /* \"#utility.yul\":38516:38527   */\n      gt\n        /* \"#utility.yul\":38513:38958   */\n      iszero\n      tag_862\n      jumpi\n        /* \"#utility.yul\":38558:38595   */\n      tag_863\n        /* \"#utility.yul\":38589:38594   */\n      dup2\n        /* \"#utility.yul\":38558:38595   */\n      tag_439\n      jump\t// in\n    tag_863:\n        /* \"#utility.yul\":38641:38670   */\n      tag_864\n        /* \"#utility.yul\":38659:38669   */\n      dup5\n        /* \"#utility.yul\":38641:38670   */\n      tag_461\n      jump\t// in\n    tag_864:\n        /* \"#utility.yul\":38631:38639   */\n      dup2\n        /* \"#utility.yul\":38627:38671   */\n      add\n        /* \"#utility.yul\":38824:38826   */\n      0x20\n        /* \"#utility.yul\":38812:38822   */\n      dup6\n        /* \"#utility.yul\":38809:38827   */\n      lt\n        /* \"#utility.yul\":38806:38855   */\n      iszero\n      tag_865\n      jumpi\n        /* \"#utility.yul\":38845:38853   */\n      dup2\n        /* \"#utility.yul\":38830:38853   */\n      swap1\n      pop\n        /* \"#utility.yul\":38806:38855   */\n    tag_865:\n        /* \"#utility.yul\":38868:38948   */\n      tag_866\n        /* \"#utility.yul\":38924:38946   */\n      tag_867\n        /* \"#utility.yul\":38942:38945   */\n      dup6\n        /* \"#utility.yul\":38924:38946   */\n      tag_461\n      jump\t// in\n    tag_867:\n        /* \"#utility.yul\":38914:38922   */\n      dup4\n        /* \"#utility.yul\":38910:38947   */\n      add\n        /* \"#utility.yul\":38897:38908   */\n      dup3\n        /* \"#utility.yul\":38868:38948   */\n      tag_469\n      jump\t// in\n    tag_866:\n        /* \"#utility.yul\":38528:38958   */\n      pop\n      pop\n        /* \"#utility.yul\":38513:38958   */\n    tag_862:\n        /* \"#utility.yul\":38424:38965   */\n      pop\n      pop\n      pop\n      jump\t// out\n        /* \"#utility.yul\":38971:39088   */\n    tag_471:\n        /* \"#utility.yul\":39025:39033   */\n      0x00\n        /* \"#utility.yul\":39075:39080   */\n      dup3\n        /* \"#utility.yul\":39069:39073   */\n      dup3\n        /* \"#utility.yul\":39065:39081   */\n      shr\n        /* \"#utility.yul\":39044:39081   */\n      swap1\n      pop\n        /* \"#utility.yul\":38971:39088   */\n      swap3\n      swap2\n      pop\n      pop\n      jump\t// out\n        /* \"#utility.yul\":39094:39263   */\n    tag_472:\n        /* \"#utility.yul\":39138:39144   */\n      0x00\n        /* \"#utility.yul\":39171:39222   */\n      tag_870\n        /* \"#utility.yul\":39219:39220   */\n      0x00\n        /* \"#utility.yul\":39215:39221   */\n      not\n        /* \"#utility.yul\":39207:39212   */\n      dup5\n        /* \"#utility.yul\":39204:39205   */\n      0x08\n        /* \"#utility.yul\":39200:39213   */\n      mul\n        /* \"#utility.yul\":39171:39222   */\n      tag_471\n      jump\t// in\n    tag_870:\n        /* \"#utility.yul\":39167:39223   */\n      not\n        /* \"#utility.yul\":39252:39256   */\n      dup1\n        /* \"#utility.yul\":39246:39250   */\n      dup4\n        /* \"#utility.yul\":39242:39257   */\n      and\n        /* \"#utility.yul\":39232:39257   */\n      swap2\n      pop\n        /* \"#utility.yul\":39145:39263   */\n      pop\n        /* \"#utility.yul\":39094:39263   */\n      swap3\n      swap2\n      pop\n      pop\n      jump\t// out\n        /* \"#utility.yul\":39268:39563   */\n    tag_473:\n        /* \"#utility.yul\":39344:39348   */\n      0x00\n        /* \"#utility.yul\":39490:39519   */\n      tag_872\n        /* \"#utility.yul\":39515:39518   */\n      dup4\n        /* \"#utility.yul\":39509:39513   */\n      dup4\n        /* \"#utility.yul\":39490:39519   */\n      tag_472\n      jump\t// in\n    tag_872:\n        /* \"#utility.yul\":39482:39519   */\n      swap2\n      pop\n        /* \"#utility.yul\":39552:39555   */\n      dup3\n        /* \"#utility.yul\":39549:39550   */\n      0x02\n        /* \"#utility.yul\":39545:39556   */\n      mul\n        /* \"#utility.yul\":39539:39543   */\n      dup3\n        /* \"#utility.yul\":39536:39557   */\n      or\n        /* \"#utility.yul\":39528:39557   */\n      swap1\n      pop\n        /* \"#utility.yul\":39268:39563   */\n      swap3\n      swap2\n      pop\n      pop\n      jump\t// out\n        /* \"#utility.yul\":39568:40958   */\n    tag_328:\n        /* \"#utility.yul\":39683:39719   */\n      tag_874\n        /* \"#utility.yul\":39715:39718   */\n      dup3\n        /* \"#utility.yul\":39683:39719   */\n      tag_430\n      jump\t// in\n    tag_874:\n        /* \"#utility.yul\":39784:39802   */\n      0xffffffffffffffff\n        /* \"#utility.yul\":39776:39782   */\n      dup2\n        /* \"#utility.yul\":39773:39803   */\n      gt\n        /* \"#utility.yul\":39770:39826   */\n      iszero\n      tag_875\n      jumpi\n        /* \"#utility.yul\":39806:39824   */\n      tag_876\n      tag_421\n      jump\t// in\n    tag_876:\n        /* \"#utility.yul\":39770:39826   */\n    tag_875:\n        /* \"#utility.yul\":39850:39888   */\n      tag_877\n        /* \"#utility.yul\":39882:39886   */\n      dup3\n        /* \"#utility.yul\":39876:39887   */\n      sload\n        /* \"#utility.yul\":39850:39888   */\n      tag_181\n      jump\t// in\n    tag_877:\n        /* \"#utility.yul\":39935:40001   */\n      tag_878\n        /* \"#utility.yul\":39994:40000   */\n      dup3\n        /* \"#utility.yul\":39986:39992   */\n      dup3\n        /* \"#utility.yul\":39980:39984   */\n      dup6\n        /* \"#utility.yul\":39935:40001   */\n      tag_470\n      jump\t// in\n    tag_878:\n        /* \"#utility.yul\":40028:40029   */\n      0x00\n        /* \"#utility.yul\":40052:40056   */\n      0x20\n        /* \"#utility.yul\":40039:40056   */\n      swap1\n      pop\n        /* \"#utility.yul\":40084:40086   */\n      0x1f\n        /* \"#utility.yul\":40076:40082   */\n      dup4\n        /* \"#utility.yul\":40073:40087   */\n      gt\n        /* \"#utility.yul\":40101:40102   */\n      0x01\n        /* \"#utility.yul\":40096:40713   */\n      dup2\n      eq\n      tag_880\n      jumpi\n        /* \"#utility.yul\":40757:40758   */\n      0x00\n        /* \"#utility.yul\":40774:40780   */\n      dup5\n        /* \"#utility.yul\":40771:40848   */\n      iszero\n      tag_881\n      jumpi\n        /* \"#utility.yul\":40823:40832   */\n      dup3\n        /* \"#utility.yul\":40818:40821   */\n      dup8\n        /* \"#utility.yul\":40814:40833   */\n      add\n        /* \"#utility.yul\":40808:40834   */\n      mload\n        /* \"#utility.yul\":40799:40834   */\n      swap1\n      pop\n        /* \"#utility.yul\":40771:40848   */\n    tag_881:\n        /* \"#utility.yul\":40874:40941   */\n      tag_882\n        /* \"#utility.yul\":40934:40940   */\n      dup6\n        /* \"#utility.yul\":40927:40932   */\n      dup3\n        /* \"#utility.yul\":40874:40941   */\n      tag_473\n      jump\t// in\n    tag_882:\n        /* \"#utility.yul\":40868:40872   */\n      dup7\n        /* \"#utility.yul\":40861:40942   */\n      sstore\n        /* \"#utility.yul\":40730:40952   */\n      pop\n        /* \"#utility.yul\":40066:40952   */\n      jump(tag_879)\n        /* \"#utility.yul\":40096:40713   */\n    tag_880:\n        /* \"#utility.yul\":40148:40152   */\n      0x1f\n        /* \"#utility.yul\":40144:40153   */\n      not\n        /* \"#utility.yul\":40136:40142   */\n      dup5\n        /* \"#utility.yul\":40132:40154   */\n      and\n        /* \"#utility.yul\":40182:40218   */\n      tag_883\n        /* \"#utility.yul\":40213:40217   */\n      dup7\n        /* \"#utility.yul\":40182:40218   */\n      tag_439\n      jump\t// in\n    tag_883:\n        /* \"#utility.yul\":40240:40241   */\n      0x00\n        /* \"#utility.yul\":40254:40462   */\n    tag_884:\n        /* \"#utility.yul\":40268:40275   */\n      dup3\n        /* \"#utility.yul\":40265:40266   */\n      dup2\n        /* \"#utility.yul\":40262:40276   */\n      lt\n        /* \"#utility.yul\":40254:40462   */\n      iszero\n      tag_886\n      jumpi\n        /* \"#utility.yul\":40347:40356   */\n      dup5\n        /* \"#utility.yul\":40342:40345   */\n      dup10\n        /* \"#utility.yul\":40338:40357   */\n      add\n        /* \"#utility.yul\":40332:40358   */\n      mload\n        /* \"#utility.yul\":40324:40330   */\n      dup3\n        /* \"#utility.yul\":40317:40359   */\n      sstore\n        /* \"#utility.yul\":40398:40399   */\n      0x01\n        /* \"#utility.yul\":40390:40396   */\n      dup3\n        /* \"#utility.yul\":40386:40400   */\n      add\n        /* \"#utility.yul\":40376:40400   */\n      swap2\n      pop\n        /* \"#utility.yul\":40445:40447   */\n      0x20\n        /* \"#utility.yul\":40434:40443   */\n      dup6\n        /* \"#utility.yul\":40430:40448   */\n      add\n        /* \"#utility.yul\":40417:40448   */\n      swap5\n      pop\n        /* \"#utility.yul\":40291:40295   */\n      0x20\n        /* \"#utility.yul\":40288:40289   */\n      dup2\n        /* \"#utility.yul\":40284:40296   */\n      add\n        /* \"#utility.yul\":40279:40296   */\n      swap1\n      pop\n        /* \"#utility.yul\":40254:40462   */\n      jump(tag_884)\n    tag_886:\n        /* \"#utility.yul\":40490:40496   */\n      dup7\n        /* \"#utility.yul\":40481:40488   */\n      dup4\n        /* \"#utility.yul\":40478:40497   */\n      lt\n        /* \"#utility.yul\":40475:40654   */\n      iszero\n      tag_887\n      jumpi\n        /* \"#utility.yul\":40548:40557   */\n      dup5\n        /* \"#utility.yul\":40543:40546   */\n      dup10\n        /* \"#utility.yul\":40539:40558   */\n      add\n        /* \"#utility.yul\":40533:40559   */\n      mload\n        /* \"#utility.yul\":40591:40639   */\n      tag_888\n        /* \"#utility.yul\":40633:40637   */\n      0x1f\n        /* \"#utility.yul\":40625:40631   */\n      dup10\n        /* \"#utility.yul\":40621:40638   */\n      and\n        /* \"#utility.yul\":40610:40619   */\n      dup3\n        /* \"#utility.yul\":40591:40639   */\n      tag_472\n      jump\t// in\n    tag_888:\n        /* \"#utility.yul\":40583:40589   */\n      dup4\n        /* \"#utility.yul\":40576:40640   */\n      sstore\n        /* \"#utility.yul\":40498:40654   */\n      pop\n        /* \"#utility.yul\":40475:40654   */\n    tag_887:\n        /* \"#utility.yul\":40700:40701   */\n      0x01\n        /* \"#utility.yul\":40696:40697   */\n      0x02\n        /* \"#utility.yul\":40688:40694   */\n      dup9\n        /* \"#utility.yul\":40684:40698   */\n      mul\n        /* \"#utility.yul\":40680:40702   */\n      add\n        /* \"#utility.yul\":40674:40678   */\n      dup9\n        /* \"#utility.yul\":40667:40703   */\n      sstore\n        /* \"#utility.yul\":40103:40713   */\n      pop\n      pop\n      pop\n        /* \"#utility.yul\":40066:40952   */\n    tag_879:\n      pop\n        /* \"#utility.yul\":39658:40958   */\n      pop\n      pop\n      pop\n        /* \"#utility.yul\":39568:40958   */\n      pop\n      pop\n      jump\t// out\n        /* \"#utility.yul\":40964:41155   */\n    tag_371:\n        /* \"#utility.yul\":41004:41007   */\n      0x00\n        /* \"#utility.yul\":41023:41043   */\n      tag_890\n        /* \"#utility.yul\":41041:41042   */\n      dup3\n        /* \"#utility.yul\":41023:41043   */\n      tag_407\n      jump\t// in\n    tag_890:\n        /* \"#utility.yul\":41018:41043   */\n      swap2\n      pop\n        /* \"#utility.yul\":41057:41077   */\n      tag_891\n        /* \"#utility.yul\":41075:41076   */\n      dup4\n        /* \"#utility.yul\":41057:41077   */\n      tag_407\n      jump\t// in\n    tag_891:\n        /* \"#utility.yul\":41052:41077   */\n      swap3\n      pop\n        /* \"#utility.yul\":41100:41101   */\n      dup3\n        /* \"#utility.yul\":41097:41098   */\n      dup3\n        /* \"#utility.yul\":41093:41102   */\n      add\n        /* \"#utility.yul\":41086:41102   */\n      swap1\n      pop\n        /* \"#utility.yul\":41121:41124   */\n      dup1\n        /* \"#utility.yul\":41118:41119   */\n      dup3\n        /* \"#utility.yul\":41115:41125   */\n      gt\n        /* \"#utility.yul\":41112:41148   */\n      iszero\n      tag_892\n      jumpi\n        /* \"#utility.yul\":41128:41146   */\n      tag_893\n      tag_454\n      jump\t// in\n    tag_893:\n        /* \"#utility.yul\":41112:41148   */\n    tag_892:\n        /* \"#utility.yul\":40964:41155   */\n      swap3\n      swap2\n      pop\n      pop\n      jump\t// out\n\n    auxdata: 0xa26469706673582212205898c26330182e3c68c8e02917e830751fa6cb10bd8f4e021dd8a974a610442564736f6c63430008170033\n}\n",
				"bytecode": {
					"linkReferences": {},
					"object": "60a06040526032600a5534801562000015575f80fd5b5060405162003b6338038062003b6383398181016040528101906200003b919062000482565b33828281600390816200004f919062000766565b50806004908162000061919062000766565b5050505f73ffffffffffffffffffffffffffffffffffffffff168173ffffffffffffffffffffffffffffffffffffffff1603620000d7575f6040517f1e4fbdf7000000000000000000000000000000000000000000000000000000008152600401620000ce91906200085b565b60405180910390fd5b620000e8816200019d60201b60201c565b508361ffff1660808161ffff16815250508260065f6101000a81548173ffffffffffffffffffffffffffffffffffffffff021916908373ffffffffffffffffffffffffffffffffffffffff1602179055508273ffffffffffffffffffffffffffffffffffffffff165f73ffffffffffffffffffffffffffffffffffffffff167f241827194635b544bceb965d0e124305c0968051403ae83cb99d1ef86bd65f5860405160405180910390a35050505062000876565b5f60055f9054906101000a900473ffffffffffffffffffffffffffffffffffffffff1690508160055f6101000a81548173ffffffffffffffffffffffffffffffffffffffff021916908373ffffffffffffffffffffffffffffffffffffffff1602179055508173ffffffffffffffffffffffffffffffffffffffff168173ffffffffffffffffffffffffffffffffffffffff167f8be0079c531659141344cd1fd0a4f28419497f9722a3daafe3b4186f6b6457e060405160405180910390a35050565b5f604051905090565b5f80fd5b5f80fd5b5f61ffff82169050919050565b620002898162000271565b811462000294575f80fd5b50565b5f81519050620002a7816200027e565b92915050565b5f73ffffffffffffffffffffffffffffffffffffffff82169050919050565b5f620002d882620002ad565b9050919050565b620002ea81620002cc565b8114620002f5575f80fd5b50565b5f815190506200030881620002df565b92915050565b5f80fd5b5f80fd5b5f601f19601f8301169050919050565b7f4e487b71000000000000000000000000000000000000000000000000000000005f52604160045260245ffd5b6200035e8262000316565b810181811067ffffffffffffffff8211171562000380576200037f62000326565b5b80604052505050565b5f6200039462000260565b9050620003a2828262000353565b919050565b5f67ffffffffffffffff821115620003c457620003c362000326565b5b620003cf8262000316565b9050602081019050919050565b5f5b83811015620003fb578082015181840152602081019050620003de565b5f8484015250505050565b5f6200041c6200041684620003a7565b62000389565b9050828152602081018484840111156200043b576200043a62000312565b5b62000448848285620003dc565b509392505050565b5f82601f8301126200046757620004666200030e565b5b81516200047984826020860162000406565b91505092915050565b5f805f80608085870312156200049d576200049c62000269565b5b5f620004ac8782880162000297565b9450506020620004bf87828801620002f8565b935050604085015167ffffffffffffffff811115620004e357620004e26200026d565b5b620004f18782880162000450565b925050606085015167ffffffffffffffff8111156200051557620005146200026d565b5b620005238782880162000450565b91505092959194509250565b5f81519050919050565b7f4e487b71000000000000000000000000000000000000000000000000000000005f52602260045260245ffd5b5f60028204905060018216806200057e57607f821691505b60208210810362000594576200059362000539565b5b50919050565b5f819050815f5260205f209050919050565b5f6020601f8301049050919050565b5f82821b905092915050565b5f60088302620005f87fffffffffffffffffffffffffffffffffffffffffffffffffffffffffffffffff82620005bb565b620006048683620005bb565b95508019841693508086168417925050509392505050565b5f819050919050565b5f819050919050565b5f6200064e6200064862000642846200061c565b62000625565b6200061c565b9050919050565b5f819050919050565b62000669836200062e565b62000681620006788262000655565b848454620005c7565b825550505050565b5f90565b6200069762000689565b620006a48184846200065e565b505050565b5b81811015620006cb57620006bf5f826200068d565b600181019050620006aa565b5050565b601f8211156200071a57620006e4816200059a565b620006ef84620005ac565b81016020851015620006ff578190505b620007176200070e85620005ac565b830182620006a9565b50505b505050565b5f82821c905092915050565b5f6200073c5f19846008026200071f565b1980831691505092915050565b5f6200075683836200072b565b9150826002028217905092915050565b62000771826200052f565b67ffffffffffffffff8111156200078d576200078c62000326565b5b62000799825462000566565b620007a6828285620006cf565b5f60209050601f831160018114620007dc575f8415620007c7578287015190505b620007d3858262000749565b86555062000842565b601f198416620007ec866200059a565b5f5b828110156200081557848901518255600182019150602085019450602081019050620007ee565b8683101562000835578489015162000831601f8916826200072b565b8355505b6001600288020188555050505b505050505050565b6200085581620002cc565b82525050565b5f602082019050620008705f8301846200084a565b92915050565b6080516132c66200089d5f395f81816109a201528181610f1d0152610fed01526132c65ff3fe6080604052600436106101b5575f3560e01c80638da5cb5b116100eb578063cbed8b9c11610089578063e38c680211610063578063e38c6802146105e5578063e776ac5e14610621578063eb8d72b71461065d578063f2fde38b14610685576101b5565b8063cbed8b9c14610559578063d26ed3e314610581578063dd62ed3e146105a9576101b5565b806395d89b41116100c557806395d89b411461048f578063a7170d48146104b9578063a9059cbb146104e1578063ac4479441461051d576101b5565b80638da5cb5b14610411578063935ec9901461043b57806394544e6414610465576101b5565b8063313ce567116101585780636f0e7470116101325780636f0e74701461037957806370a0823114610395578063715018a6146103d157806374f079b8146103e7576101b5565b8063313ce567146102fd57806342d65a8d146103275780635e280f111461034f576101b5565b8063095ea7b311610194578063095ea7b31461023357806310ddb1371461026f57806318160ddd1461029757806323b872dd146102c1576101b5565b80621d3567146101b957806306fdde03146101e157806307e0db171461020b575b5f80fd5b3480156101c4575f80fd5b506101df60048036038101906101da9190611e6b565b6106ad565b005b3480156101ec575f80fd5b506101f56109e6565b6040516102029190611f98565b60405180910390f35b348015610216575f80fd5b50610231600480360381019061022c9190611fb8565b610a76565b005b34801561023e575f80fd5b5061025960048036038101906102549190612070565b610b08565b60405161026691906120c8565b60405180910390f35b34801561027a575f80fd5b5061029560048036038101906102909190611fb8565b610b2a565b005b3480156102a2575f80fd5b506102ab610bbc565b6040516102b891906120f0565b60405180910390f35b3480156102cc575f80fd5b506102e760048036038101906102e29190612109565b610bc5565b6040516102f491906120c8565b60405180910390f35b348015610308575f80fd5b50610311610bf3565b60405161031e9190612174565b60405180910390f35b348015610332575f80fd5b5061034d6004803603810190610348919061218d565b610bfb565b005b34801561035a575f80fd5b50610363610c93565b6040516103709190612245565b60405180910390f35b610393600480360381019061038e9190612386565b610cb8565b005b3480156103a0575f80fd5b506103bb60048036038101906103b69190612406565b610f65565b6040516103c891906120f0565b60405180910390f35b3480156103dc575f80fd5b506103e5610faa565b005b3480156103f2575f80fd5b506103fb610fbd565b60405161040891906120f0565b60405180910390f35b34801561041c575f80fd5b50610425610fc3565b6040516104329190612440565b60405180910390f35b348015610446575f80fd5b5061044f610feb565b60405161045c9190612468565b60405180910390f35b348015610470575f80fd5b5061047961100f565b60405161048691906120f0565b60405180910390f35b34801561049a575f80fd5b506104a3611015565b6040516104b09190611f98565b60405180910390f35b3480156104c4575f80fd5b506104df60048036038101906104da9190612406565b6110a5565b005b3480156104ec575f80fd5b5061050760048036038101906105029190612070565b611170565b60405161051491906120c8565b60405180910390f35b348015610528575f80fd5b50610543600480360381019061053e9190611fb8565b611192565b60405161055091906124d3565b60405180910390f35b348015610564575f80fd5b5061057f600480360381019061057a91906124f3565b61122d565b005b34801561058c575f80fd5b506105a760048036038101906105a29190612577565b6112cb565b005b3480156105b4575f80fd5b506105cf60048036038101906105ca91906125a2565b61131d565b6040516105dc91906120f0565b60405180910390f35b3480156105f0575f80fd5b5061060b600480360381019061060691906125e0565b61139f565b60405161061891906120c8565b60405180910390f35b34801561062c575f80fd5b5061064760048036038101906106429190612386565b6113ec565b60405161065491906120f0565b60405180910390f35b348015610668575f80fd5b50610683600480360381019061067e919061264c565b6114c7565b005b348015610690575f80fd5b506106ab60048036038101906106a69190612406565b611536565b005b60065f9054906101000a900473ffffffffffffffffffffffffffffffffffffffff1673ffffffffffffffffffffffffffffffffffffffff163373ffffffffffffffffffffffffffffffffffffffff161461073c576040517f08c379a0000000000000000000000000000000000000000000000000000000008152600401610733906126f0565b60405180910390fd5b60075f8761ffff1661ffff1681526020019081526020015f2080546107609061273b565b905085859050146107a6576040517f08c379a000000000000000000000000000000000000000000000000000000000815260040161079d906127db565b60405180910390fd5b60075f8761ffff1661ffff1681526020019081526020015f206040516107cc9190612895565b604051809103902085856040516107e49291906128cf565b60405180910390201461082c576040517f08c379a000000000000000000000000000000000000000000000000000000000815260040161082390612931565b60405180910390fd5b6009858560405161083e9291906128cf565b90815260200160405180910390205f8761ffff1661ffff1681526020019081526020015f205f8467ffffffffffffffff1667ffffffffffffffff1681526020019081526020015f205f9054906101000a900460ff16156108d3576040517f08c379a00000000000000000000000000000000000000000000000000000000081526004016108ca90612999565b60405180910390fd5b6001600986866040516108e79291906128cf565b90815260200160405180910390205f8861ffff1661ffff1681526020019081526020015f205f8567ffffffffffffffff1667ffffffffffffffff1681526020019081526020015f205f6101000a81548160ff0219169083151502179055505f805f848481019061095791906129f2565b92509250925061096783836115ba565b8273ffffffffffffffffffffffffffffffffffffffff167ff540e2fcb9906dcfcfd5aea0f902da16ba5630b30f63f3acf6abe376f9e476a88a7f000000000000000000000000000000000000000000000000000000000000000084866040516109d39493929190612a42565b60405180910390a2505050505050505050565b6060600380546109f59061273b565b80601f0160208091040260200160405190810160405280929190818152602001828054610a219061273b565b8015610a6c5780601f10610a4357610100808354040283529160200191610a6c565b820191905f5260205f20905b815481529060010190602001808311610a4f57829003601f168201915b5050505050905090565b610a7e611639565b60065f9054906101000a900473ffffffffffffffffffffffffffffffffffffffff1673ffffffffffffffffffffffffffffffffffffffff166307e0db17826040518263ffffffff1660e01b8152600401610ad89190612468565b5f604051808303815f87803b158015610aef575f80fd5b505af1158015610b01573d5f803e3d5ffd5b5050505050565b5f80610b126116c0565b9050610b1f8185856116c7565b600191505092915050565b610b32611639565b60065f9054906101000a900473ffffffffffffffffffffffffffffffffffffffff1673ffffffffffffffffffffffffffffffffffffffff166310ddb137826040518263ffffffff1660e01b8152600401610b8c9190612468565b5f604051808303815f87803b158015610ba3575f80fd5b505af1158015610bb5573d5f803e3d5ffd5b5050505050565b5f600254905090565b5f80610bcf6116c0565b9050610bdc8582856116d9565b610be785858561176b565b60019150509392505050565b5f6012905090565b610c03611639565b60065f9054906101000a900473ffffffffffffffffffffffffffffffffffffffff1673ffffffffffffffffffffffffffffffffffffffff166342d65a8d8484846040518463ffffffff1660e01b8152600401610c6193929190612ab1565b5f604051808303815f87803b158015610c78575f80fd5b505af1158015610c8a573d5f803e3d5ffd5b50505050505050565b60065f9054906101000a900473ffffffffffffffffffffffffffffffffffffffff1681565b5f60075f8461ffff1661ffff1681526020019081526020015f208054610cdd9061273b565b905011610d1f576040517f08c379a0000000000000000000000000000000000000000000000000000000008152600401610d1690612b2b565b60405180910390fd5b5f610d2933610f65565b905083811015610d6e576040517f08c379a0000000000000000000000000000000000000000000000000000000008152600401610d6590612b93565b60405180910390fd5b610d78338561185b565b5f610d8233610f65565b9050848183610d919190612bde565b14610dd1576040517f08c379a0000000000000000000000000000000000000000000000000000000008152600401610dc890612c5b565b60405180910390fd5b5f612710600a5487610de39190612c79565b610ded9190612ce7565b90505f8187610dfc9190612bde565b905060085f8154610e0c90612d17565b9190508190555060065f9054906101000a900473ffffffffffffffffffffffffffffffffffffffff1673ffffffffffffffffffffffffffffffffffffffff1663c5803100348860075f8b61ffff1661ffff1681526020019081526020015f208c86600854604051602001610e8293929190612d5e565b604051602081830303815290604052335f8c6040518863ffffffff1660e01b8152600401610eb596959493929190612e23565b5f604051808303818588803b158015610ecc575f80fd5b505af1158015610ede573d5f803e3d5ffd5b50505050508773ffffffffffffffffffffffffffffffffffffffff167fbd36451ab3b0e9fe414dea95544d2a3d68944d949c8af5b4a2bdfa0f269b02f07f0000000000000000000000000000000000000000000000000000000000000000886008548587604051610f53959493929190612e97565b60405180910390a25050505050505050565b5f805f8373ffffffffffffffffffffffffffffffffffffffff1673ffffffffffffffffffffffffffffffffffffffff1681526020019081526020015f20549050919050565b610fb2611639565b610fbb5f6118da565b565b60085481565b5f60055f9054906101000a900473ffffffffffffffffffffffffffffffffffffffff16905090565b7f000000000000000000000000000000000000000000000000000000000000000081565b600a5481565b6060600480546110249061273b565b80601f01602080910402602001604051908101604052809291908181526020018280546110509061273b565b801561109b5780601f106110725761010080835404028352916020019161109b565b820191905f5260205f20905b81548152906001019060200180831161107e57829003601f168201915b5050505050905090565b6110ad611639565b5f60065f9054906101000a900473ffffffffffffffffffffffffffffffffffffffff1690508160065f6101000a81548173ffffffffffffffffffffffffffffffffffffffff021916908373ffffffffffffffffffffffffffffffffffffffff1602179055508173ffffffffffffffffffffffffffffffffffffffff168173ffffffffffffffffffffffffffffffffffffffff167f241827194635b544bceb965d0e124305c0968051403ae83cb99d1ef86bd65f5860405160405180910390a35050565b5f8061117a6116c0565b905061118781858561176b565b600191505092915050565b6007602052805f5260405f205f9150905080546111ae9061273b565b80601f01602080910402602001604051908101604052809291908181526020018280546111da9061273b565b80156112255780601f106111fc57610100808354040283529160200191611225565b820191905f5260205f20905b81548152906001019060200180831161120857829003601f168201915b505050505081565b611235611639565b60065f9054906101000a900473ffffffffffffffffffffffffffffffffffffffff1673ffffffffffffffffffffffffffffffffffffffff1663cbed8b9c86868686866040518663ffffffff1660e01b8152600401611297959493929190612ee8565b5f604051808303815f87803b1580156112ae575f80fd5b505af11580156112c0573d5f803e3d5ffd5b505050505050505050565b6112d3611639565b5f600a54905081600a819055507f940334a9f5c76529ad9447ac490c2073b06d880209383a3d3e4b0ecab72a0d998183604051611311929190612f34565b60405180910390a15050565b5f60015f8473ffffffffffffffffffffffffffffffffffffffff1673ffffffffffffffffffffffffffffffffffffffff1681526020019081526020015f205f8373ffffffffffffffffffffffffffffffffffffffff1673ffffffffffffffffffffffffffffffffffffffff1681526020019081526020015f2054905092915050565b600983805160208101820180518482526020830160208501208183528095505050505050602052815f5260405f20602052805f5260405f205f92509250509054906101000a900460ff1681565b5f80858560085460405160200161140593929190612d5e565b60405160208183030381529060405290505f60065f9054906101000a900473ffffffffffffffffffffffffffffffffffffffff1673ffffffffffffffffffffffffffffffffffffffff166340a7bb108630855f896040518663ffffffff1660e01b8152600401611479959493929190612f5b565b6040805180830381865afa158015611493573d5f803e3d5ffd5b505050506040513d601f19601f820116820180604052508101906114b79190612fce565b5090508092505050949350505050565b6114cf611639565b8060075f8461ffff1661ffff1681526020019081526020015f2090816114f5919061318e565b508161ffff167f35450a645fc8b8dcb5150ad335b4577eb182ab7e57024b8777eed53677a9fc9d8260405161152a91906124d3565b60405180910390a25050565b61153e611639565b5f73ffffffffffffffffffffffffffffffffffffffff168173ffffffffffffffffffffffffffffffffffffffff16036115ae575f6040517f1e4fbdf70000000000000000000000000000000000000000000000000000000081526004016115a59190612440565b60405180910390fd5b6115b7816118da565b50565b5f73ffffffffffffffffffffffffffffffffffffffff168273ffffffffffffffffffffffffffffffffffffffff160361162a575f6040517fec442f050000000000000000000000000000000000000000000000000000000081526004016116219190612440565b60405180910390fd5b6116355f838361199d565b5050565b6116416116c0565b73ffffffffffffffffffffffffffffffffffffffff1661165f610fc3565b73ffffffffffffffffffffffffffffffffffffffff16146116be576116826116c0565b6040517f118cdaa70000000000000000000000000000000000000000000000000000000081526004016116b59190612440565b60405180910390fd5b565b5f33905090565b6116d48383836001611bb6565b505050565b5f6116e4848461131d565b90507fffffffffffffffffffffffffffffffffffffffffffffffffffffffffffffffff81146117655781811015611756578281836040517ffb8f41b200000000000000000000000000000000000000000000000000000000815260040161174d93929190612d5e565b60405180910390fd5b61176484848484035f611bb6565b5b50505050565b5f73ffffffffffffffffffffffffffffffffffffffff168373ffffffffffffffffffffffffffffffffffffffff16036117db575f6040517f96c6fd1e0000000000000000000000000000000000000000000000000000000081526004016117d29190612440565b60405180910390fd5b5f73ffffffffffffffffffffffffffffffffffffffff168273ffffffffffffffffffffffffffffffffffffffff160361184b575f6040517fec442f050000000000000000000000000000000000000000000000000000000081526004016118429190612440565b60405180910390fd5b61185683838361199d565b505050565b5f73ffffffffffffffffffffffffffffffffffffffff168273ffffffffffffffffffffffffffffffffffffffff16036118cb575f6040517f96c6fd1e0000000000000000000000000000000000000000000000000000000081526004016118c29190612440565b60405180910390fd5b6118d6825f8361199d565b5050565b5f60055f9054906101000a900473ffffffffffffffffffffffffffffffffffffffff1690508160055f6101000a81548173ffffffffffffffffffffffffffffffffffffffff021916908373ffffffffffffffffffffffffffffffffffffffff1602179055508173ffffffffffffffffffffffffffffffffffffffff168173ffffffffffffffffffffffffffffffffffffffff167f8be0079c531659141344cd1fd0a4f28419497f9722a3daafe3b4186f6b6457e060405160405180910390a35050565b5f73ffffffffffffffffffffffffffffffffffffffff168373ffffffffffffffffffffffffffffffffffffffff16036119ed578060025f8282546119e1919061325d565b92505081905550611abb565b5f805f8573ffffffffffffffffffffffffffffffffffffffff1673ffffffffffffffffffffffffffffffffffffffff1681526020019081526020015f2054905081811015611a76578381836040517fe450d38c000000000000000000000000000000000000000000000000000000008152600401611a6d93929190612d5e565b60405180910390fd5b8181035f808673ffffffffffffffffffffffffffffffffffffffff1673ffffffffffffffffffffffffffffffffffffffff1681526020019081526020015f2081905550505b5f73ffffffffffffffffffffffffffffffffffffffff168273ffffffffffffffffffffffffffffffffffffffff1603611b02578060025f8282540392505081905550611b4c565b805f808473ffffffffffffffffffffffffffffffffffffffff1673ffffffffffffffffffffffffffffffffffffffff1681526020019081526020015f205f82825401925050819055505b8173ffffffffffffffffffffffffffffffffffffffff168373ffffffffffffffffffffffffffffffffffffffff167fddf252ad1be2c89b69c2b068fc378daa952ba7f163c4a11628f55a4df523b3ef83604051611ba991906120f0565b60405180910390a3505050565b5f73ffffffffffffffffffffffffffffffffffffffff168473ffffffffffffffffffffffffffffffffffffffff1603611c26575f6040517fe602df05000000000000000000000000000000000000000000000000000000008152600401611c1d9190612440565b60405180910390fd5b5f73ffffffffffffffffffffffffffffffffffffffff168373ffffffffffffffffffffffffffffffffffffffff1603611c96575f6040517f94280d62000000000000000000000000000000000000000000000000000000008152600401611c8d9190612440565b60405180910390fd5b8160015f8673ffffffffffffffffffffffffffffffffffffffff1673ffffffffffffffffffffffffffffffffffffffff1681526020019081526020015f205f8573ffffffffffffffffffffffffffffffffffffffff1673ffffffffffffffffffffffffffffffffffffffff1681526020019081526020015f20819055508015611d7f578273ffffffffffffffffffffffffffffffffffffffff168473ffffffffffffffffffffffffffffffffffffffff167f8c5be1e5ebec7d5bd14f71427d1e84f3dd0314c0f7b2291e5b200ac8c7c3b92584604051611d7691906120f0565b60405180910390a35b50505050565b5f604051905090565b5f80fd5b5f80fd5b5f61ffff82169050919050565b611dac81611d96565b8114611db6575f80fd5b50565b5f81359050611dc781611da3565b92915050565b5f80fd5b5f80fd5b5f80fd5b5f8083601f840112611dee57611ded611dcd565b5b8235905067ffffffffffffffff811115611e0b57611e0a611dd1565b5b602083019150836001820283011115611e2757611e26611dd5565b5b9250929050565b5f67ffffffffffffffff82169050919050565b611e4a81611e2e565b8114611e54575f80fd5b50565b5f81359050611e6581611e41565b92915050565b5f805f805f8060808789031215611e8557611e84611d8e565b5b5f611e9289828a01611db9565b965050602087013567ffffffffffffffff811115611eb357611eb2611d92565b5b611ebf89828a01611dd9565b95509550506040611ed289828a01611e57565b935050606087013567ffffffffffffffff811115611ef357611ef2611d92565b5b611eff89828a01611dd9565b92509250509295509295509295565b5f81519050919050565b5f82825260208201905092915050565b5f5b83811015611f45578082015181840152602081019050611f2a565b5f8484015250505050565b5f601f19601f8301169050919050565b5f611f6a82611f0e565b611f748185611f18565b9350611f84818560208601611f28565b611f8d81611f50565b840191505092915050565b5f6020820190508181035f830152611fb08184611f60565b905092915050565b5f60208284031215611fcd57611fcc611d8e565b5b5f611fda84828501611db9565b91505092915050565b5f73ffffffffffffffffffffffffffffffffffffffff82169050919050565b5f61200c82611fe3565b9050919050565b61201c81612002565b8114612026575f80fd5b50565b5f8135905061203781612013565b92915050565b5f819050919050565b61204f8161203d565b8114612059575f80fd5b50565b5f8135905061206a81612046565b92915050565b5f806040838503121561208657612085611d8e565b5b5f61209385828601612029565b92505060206120a48582860161205c565b9150509250929050565b5f8115159050919050565b6120c2816120ae565b82525050565b5f6020820190506120db5f8301846120b9565b92915050565b6120ea8161203d565b82525050565b5f6020820190506121035f8301846120e1565b92915050565b5f805f606084860312156121205761211f611d8e565b5b5f61212d86828701612029565b935050602061213e86828701612029565b925050604061214f8682870161205c565b9150509250925092565b5f60ff82169050919050565b61216e81612159565b82525050565b5f6020820190506121875f830184612165565b92915050565b5f805f604084860312156121a4576121a3611d8e565b5b5f6121b186828701611db9565b935050602084013567ffffffffffffffff8111156121d2576121d1611d92565b5b6121de86828701611dd9565b92509250509250925092565b5f819050919050565b5f61220d61220861220384611fe3565b6121ea565b611fe3565b9050919050565b5f61221e826121f3565b9050919050565b5f61222f82612214565b9050919050565b61223f81612225565b82525050565b5f6020820190506122585f830184612236565b92915050565b5f80fd5b7f4e487b71000000000000000000000000000000000000000000000000000000005f52604160045260245ffd5b61229882611f50565b810181811067ffffffffffffffff821117156122b7576122b6612262565b5b80604052505050565b5f6122c9611d85565b90506122d5828261228f565b919050565b5f67ffffffffffffffff8211156122f4576122f3612262565b5b6122fd82611f50565b9050602081019050919050565b828183375f83830152505050565b5f61232a612325846122da565b6122c0565b9050828152602081018484840111156123465761234561225e565b5b61235184828561230a565b509392505050565b5f82601f83011261236d5761236c611dcd565b5b813561237d848260208601612318565b91505092915050565b5f805f806080858703121561239e5761239d611d8e565b5b5f6123ab87828801612029565b94505060206123bc8782880161205c565b93505060406123cd87828801611db9565b925050606085013567ffffffffffffffff8111156123ee576123ed611d92565b5b6123fa87828801612359565b91505092959194509250565b5f6020828403121561241b5761241a611d8e565b5b5f61242884828501612029565b91505092915050565b61243a81612002565b82525050565b5f6020820190506124535f830184612431565b92915050565b61246281611d96565b82525050565b5f60208201905061247b5f830184612459565b92915050565b5f81519050919050565b5f82825260208201905092915050565b5f6124a582612481565b6124af818561248b565b93506124bf818560208601611f28565b6124c881611f50565b840191505092915050565b5f6020820190508181035f8301526124eb818461249b565b905092915050565b5f805f805f6080868803121561250c5761250b611d8e565b5b5f61251988828901611db9565b955050602061252a88828901611db9565b945050604061253b8882890161205c565b935050606086013567ffffffffffffffff81111561255c5761255b611d92565b5b61256888828901611dd9565b92509250509295509295909350565b5f6020828403121561258c5761258b611d8e565b5b5f6125998482850161205c565b91505092915050565b5f80604083850312156125b8576125b7611d8e565b5b5f6125c585828601612029565b92505060206125d685828601612029565b9150509250929050565b5f805f606084860312156125f7576125f6611d8e565b5b5f84013567ffffffffffffffff81111561261457612613611d92565b5b61262086828701612359565b935050602061263186828701611db9565b925050604061264286828701611e57565b9150509250925092565b5f806040838503121561266257612661611d8e565b5b5f61266f85828601611db9565b925050602083013567ffffffffffffffff8111156126905761268f611d92565b5b61269c85828601612359565b9150509250929050565b7f777261707065722f63616c6c65722d6e6f742d656e64706f696e7400000000005f82015250565b5f6126da601b83611f18565b91506126e5826126a6565b602082019050919050565b5f6020820190508181035f830152612707816126ce565b9050919050565b7f4e487b71000000000000000000000000000000000000000000000000000000005f52602260045260245ffd5b5f600282049050600182168061275257607f821691505b6020821081036127655761276461270e565b5b50919050565b7f777261707065722f696e76616c69642d7372632d73656e6465722d6c656e67745f8201527f6800000000000000000000000000000000000000000000000000000000000000602082015250565b5f6127c5602183611f18565b91506127d08261276b565b604082019050919050565b5f6020820190508181035f8301526127f2816127b9565b9050919050565b5f81905092915050565b5f819050815f5260205f209050919050565b5f81546128218161273b565b61282b81866127f9565b9450600182165f8114612845576001811461285a5761288c565b60ff198316865281151582028601935061288c565b61286385612803565b5f5b8381101561288457815481890152600182019150602081019050612865565b838801955050505b50505092915050565b5f6128a08284612815565b915081905092915050565b5f6128b683856127f9565b93506128c383858461230a565b82840190509392505050565b5f6128db8284866128ab565b91508190509392505050565b7f777261707065722f696e76616c69642d7372632d73656e6465720000000000005f82015250565b5f61291b601a83611f18565b9150612926826128e7565b602082019050919050565b5f6020820190508181035f8301526129488161290f565b9050919050565b7f777261707065722f696e76616c69642d6e6f6e636500000000000000000000005f82015250565b5f612983601583611f18565b915061298e8261294f565b602082019050919050565b5f6020820190508181035f8301526129b081612977565b9050919050565b5f6129c182611fe3565b9050919050565b6129d1816129b7565b81146129db575f80fd5b50565b5f813590506129ec816129c8565b92915050565b5f805f60608486031215612a0957612a08611d8e565b5b5f612a16868287016129de565b9350506020612a278682870161205c565b9250506040612a388682870161205c565b9150509250925092565b5f608082019050612a555f830187612459565b612a626020830186612459565b612a6f60408301856120e1565b612a7c60608301846120e1565b95945050505050565b5f612a90838561248b565b9350612a9d83858461230a565b612aa683611f50565b840190509392505050565b5f604082019050612ac45f830186612459565b8181036020830152612ad7818486612a85565b9050949350505050565b7f6272696467652f696e76616c69642d6473742d636861696e2d696400000000005f82015250565b5f612b15601b83611f18565b9150612b2082612ae1565b602082019050919050565b5f6020820190508181035f830152612b4281612b09565b9050919050565b7f777261707065722f696e73756666696369656e742d62616c616e6365000000005f82015250565b5f612b7d601c83611f18565b9150612b8882612b49565b602082019050919050565b5f6020820190508181035f830152612baa81612b71565b9050919050565b7f4e487b71000000000000000000000000000000000000000000000000000000005f52601160045260245ffd5b5f612be88261203d565b9150612bf38361203d565b9250828203905081811115612c0b57612c0a612bb1565b5b92915050565b7f777261707065722f6275726e2d6661696c6564000000000000000000000000005f82015250565b5f612c45601383611f18565b9150612c5082612c11565b602082019050919050565b5f6020820190508181035f830152612c7281612c39565b9050919050565b5f612c838261203d565b9150612c8e8361203d565b9250828202612c9c8161203d565b91508282048414831517612cb357612cb2612bb1565b5b5092915050565b7f4e487b71000000000000000000000000000000000000000000000000000000005f52601260045260245ffd5b5f612cf18261203d565b9150612cfc8361203d565b925082612d0c57612d0b612cba565b5b828204905092915050565b5f612d218261203d565b91507fffffffffffffffffffffffffffffffffffffffffffffffffffffffffffffffff8203612d5357612d52612bb1565b5b600182019050919050565b5f606082019050612d715f830186612431565b612d7e60208301856120e1565b612d8b60408301846120e1565b949350505050565b5f8154612d9f8161273b565b612da9818661248b565b9450600182165f8114612dc35760018114612dd957612e0b565b60ff198316865281151560200286019350612e0b565b612de285612803565b5f5b83811015612e0357815481890152600182019150602081019050612de4565b808801955050505b50505092915050565b612e1d816129b7565b82525050565b5f60c082019050612e365f830189612459565b8181036020830152612e488188612d93565b90508181036040830152612e5c818761249b565b9050612e6b6060830186612e14565b612e786080830185612431565b81810360a0830152612e8a818461249b565b9050979650505050505050565b5f60a082019050612eaa5f830188612459565b612eb76020830187612459565b612ec460408301866120e1565b612ed160608301856120e1565b612ede60808301846120e1565b9695505050505050565b5f608082019050612efb5f830188612459565b612f086020830187612459565b612f1560408301866120e1565b8181036060830152612f28818486612a85565b90509695505050505050565b5f604082019050612f475f8301856120e1565b612f5460208301846120e1565b9392505050565b5f60a082019050612f6e5f830188612459565b612f7b6020830187612431565b8181036040830152612f8d818661249b565b9050612f9c60608301856120b9565b8181036080830152612fae818461249b565b90509695505050505050565b5f81519050612fc881612046565b92915050565b5f8060408385031215612fe457612fe3611d8e565b5b5f612ff185828601612fba565b925050602061300285828601612fba565b9150509250929050565b5f6020601f8301049050919050565b5f82821b905092915050565b5f600883026130567fffffffffffffffffffffffffffffffffffffffffffffffffffffffffffffffff8261301b565b613060868361301b565b95508019841693508086168417925050509392505050565b5f61309261308d6130888461203d565b6121ea565b61203d565b9050919050565b5f819050919050565b6130ab83613078565b6130bf6130b782613099565b848454613027565b825550505050565b5f90565b6130d36130c7565b6130de8184846130a2565b505050565b5b81811015613101576130f65f826130cb565b6001810190506130e4565b5050565b601f8211156131465761311781612803565b6131208461300c565b8101602085101561312f578190505b61314361313b8561300c565b8301826130e3565b50505b505050565b5f82821c905092915050565b5f6131665f198460080261314b565b1980831691505092915050565b5f61317e8383613157565b9150826002028217905092915050565b61319782612481565b67ffffffffffffffff8111156131b0576131af612262565b5b6131ba825461273b565b6131c5828285613105565b5f60209050601f8311600181146131f6575f84156131e4578287015190505b6131ee8582613173565b865550613255565b601f19841661320486612803565b5f5b8281101561322b57848901518255600182019150602085019450602081019050613206565b868310156132485784890151613244601f891682613157565b8355505b6001600288020188555050505b505050505050565b5f6132678261203d565b91506132728361203d565b925082820190508082111561328a57613289612bb1565b5b9291505056fea26469706673582212205898c26330182e3c68c8e02917e830751fa6cb10bd8f4e021dd8a974a610442564736f6c63430008170033",
					"opcodes": "PUSH1 0xA0 PUSH1 0x40 MSTORE PUSH1 0x32 PUSH1 0xA SSTORE CALLVALUE DUP1 ISZERO PUSH3 0x15 JUMPI PUSH0 DUP1 REVERT JUMPDEST POP PUSH1 0x40 MLOAD PUSH3 0x3B63 CODESIZE SUB DUP1 PUSH3 0x3B63 DUP4 CODECOPY DUP2 DUP2 ADD PUSH1 0x40 MSTORE DUP2 ADD SWAP1 PUSH3 0x3B SWAP2 SWAP1 PUSH3 0x482 JUMP JUMPDEST CALLER DUP3 DUP3 DUP2 PUSH1 0x3 SWAP1 DUP2 PUSH3 0x4F SWAP2 SWAP1 PUSH3 0x766 JUMP JUMPDEST POP DUP1 PUSH1 0x4 SWAP1 DUP2 PUSH3 0x61 SWAP2 SWAP1 PUSH3 0x766 JUMP JUMPDEST POP POP POP PUSH0 PUSH20 0xFFFFFFFFFFFFFFFFFFFFFFFFFFFFFFFFFFFFFFFF AND DUP2 PUSH20 0xFFFFFFFFFFFFFFFFFFFFFFFFFFFFFFFFFFFFFFFF AND SUB PUSH3 0xD7 JUMPI PUSH0 PUSH1 0x40 MLOAD PUSH32 0x1E4FBDF700000000000000000000000000000000000000000000000000000000 DUP2 MSTORE PUSH1 0x4 ADD PUSH3 0xCE SWAP2 SWAP1 PUSH3 0x85B JUMP JUMPDEST PUSH1 0x40 MLOAD DUP1 SWAP2 SUB SWAP1 REVERT JUMPDEST PUSH3 0xE8 DUP2 PUSH3 0x19D PUSH1 0x20 SHL PUSH1 0x20 SHR JUMP JUMPDEST POP DUP4 PUSH2 0xFFFF AND PUSH1 0x80 DUP2 PUSH2 0xFFFF AND DUP2 MSTORE POP POP DUP3 PUSH1 0x6 PUSH0 PUSH2 0x100 EXP DUP2 SLOAD DUP2 PUSH20 0xFFFFFFFFFFFFFFFFFFFFFFFFFFFFFFFFFFFFFFFF MUL NOT AND SWAP1 DUP4 PUSH20 0xFFFFFFFFFFFFFFFFFFFFFFFFFFFFFFFFFFFFFFFF AND MUL OR SWAP1 SSTORE POP DUP3 PUSH20 0xFFFFFFFFFFFFFFFFFFFFFFFFFFFFFFFFFFFFFFFF AND PUSH0 PUSH20 0xFFFFFFFFFFFFFFFFFFFFFFFFFFFFFFFFFFFFFFFF AND PUSH32 0x241827194635B544BCEB965D0E124305C0968051403AE83CB99D1EF86BD65F58 PUSH1 0x40 MLOAD PUSH1 0x40 MLOAD DUP1 SWAP2 SUB SWAP1 LOG3 POP POP POP POP PUSH3 0x876 JUMP JUMPDEST PUSH0 PUSH1 0x5 PUSH0 SWAP1 SLOAD SWAP1 PUSH2 0x100 EXP SWAP1 DIV PUSH20 0xFFFFFFFFFFFFFFFFFFFFFFFFFFFFFFFFFFFFFFFF AND SWAP1 POP DUP2 PUSH1 0x5 PUSH0 PUSH2 0x100 EXP DUP2 SLOAD DUP2 PUSH20 0xFFFFFFFFFFFFFFFFFFFFFFFFFFFFFFFFFFFFFFFF MUL NOT AND SWAP1 DUP4 PUSH20 0xFFFFFFFFFFFFFFFFFFFFFFFFFFFFFFFFFFFFFFFF AND MUL OR SWAP1 SSTORE POP DUP2 PUSH20 0xFFFFFFFFFFFFFFFFFFFFFFFFFFFFFFFFFFFFFFFF AND DUP2 PUSH20 0xFFFFFFFFFFFFFFFFFFFFFFFFFFFFFFFFFFFFFFFF AND PUSH32 0x8BE0079C531659141344CD1FD0A4F28419497F9722A3DAAFE3B4186F6B6457E0 PUSH1 0x40 MLOAD PUSH1 0x40 MLOAD DUP1 SWAP2 SUB SWAP1 LOG3 POP POP JUMP JUMPDEST PUSH0 PUSH1 0x40 MLOAD SWAP1 POP SWAP1 JUMP JUMPDEST PUSH0 DUP1 REVERT JUMPDEST PUSH0 DUP1 REVERT JUMPDEST PUSH0 PUSH2 0xFFFF DUP3 AND SWAP1 POP SWAP2 SWAP1 POP JUMP JUMPDEST PUSH3 0x289 DUP2 PUSH3 0x271 JUMP JUMPDEST DUP2 EQ PUSH3 0x294 JUMPI PUSH0 DUP1 REVERT JUMPDEST POP JUMP JUMPDEST PUSH0 DUP2 MLOAD SWAP1 POP PUSH3 0x2A7 DUP2 PUSH3 0x27E JUMP JUMPDEST SWAP3 SWAP2 POP POP JUMP JUMPDEST PUSH0 PUSH20 0xFFFFFFFFFFFFFFFFFFFFFFFFFFFFFFFFFFFFFFFF DUP3 AND SWAP1 POP SWAP2 SWAP1 POP JUMP JUMPDEST PUSH0 PUSH3 0x2D8 DUP3 PUSH3 0x2AD JUMP JUMPDEST SWAP1 POP SWAP2 SWAP1 POP JUMP JUMPDEST PUSH3 0x2EA DUP2 PUSH3 0x2CC JUMP JUMPDEST DUP2 EQ PUSH3 0x2F5 JUMPI PUSH0 DUP1 REVERT JUMPDEST POP JUMP JUMPDEST PUSH0 DUP2 MLOAD SWAP1 POP PUSH3 0x308 DUP2 PUSH3 0x2DF JUMP JUMPDEST SWAP3 SWAP2 POP POP JUMP JUMPDEST PUSH0 DUP1 REVERT JUMPDEST PUSH0 DUP1 REVERT JUMPDEST PUSH0 PUSH1 0x1F NOT PUSH1 0x1F DUP4 ADD AND SWAP1 POP SWAP2 SWAP1 POP JUMP JUMPDEST PUSH32 0x4E487B7100000000000000000000000000000000000000000000000000000000 PUSH0 MSTORE PUSH1 0x41 PUSH1 0x4 MSTORE PUSH1 0x24 PUSH0 REVERT JUMPDEST PUSH3 0x35E DUP3 PUSH3 0x316 JUMP JUMPDEST DUP2 ADD DUP2 DUP2 LT PUSH8 0xFFFFFFFFFFFFFFFF DUP3 GT OR ISZERO PUSH3 0x380 JUMPI PUSH3 0x37F PUSH3 0x326 JUMP JUMPDEST JUMPDEST DUP1 PUSH1 0x40 MSTORE POP POP POP JUMP JUMPDEST PUSH0 PUSH3 0x394 PUSH3 0x260 JUMP JUMPDEST SWAP1 POP PUSH3 0x3A2 DUP3 DUP3 PUSH3 0x353 JUMP JUMPDEST SWAP2 SWAP1 POP JUMP JUMPDEST PUSH0 PUSH8 0xFFFFFFFFFFFFFFFF DUP3 GT ISZERO PUSH3 0x3C4 JUMPI PUSH3 0x3C3 PUSH3 0x326 JUMP JUMPDEST JUMPDEST PUSH3 0x3CF DUP3 PUSH3 0x316 JUMP JUMPDEST SWAP1 POP PUSH1 0x20 DUP2 ADD SWAP1 POP SWAP2 SWAP1 POP JUMP JUMPDEST PUSH0 JUMPDEST DUP4 DUP2 LT ISZERO PUSH3 0x3FB JUMPI DUP1 DUP3 ADD MLOAD DUP2 DUP5 ADD MSTORE PUSH1 0x20 DUP2 ADD SWAP1 POP PUSH3 0x3DE JUMP JUMPDEST PUSH0 DUP5 DUP5 ADD MSTORE POP POP POP POP JUMP JUMPDEST PUSH0 PUSH3 0x41C PUSH3 0x416 DUP5 PUSH3 0x3A7 JUMP JUMPDEST PUSH3 0x389 JUMP JUMPDEST SWAP1 POP DUP3 DUP2 MSTORE PUSH1 0x20 DUP2 ADD DUP5 DUP5 DUP5 ADD GT ISZERO PUSH3 0x43B JUMPI PUSH3 0x43A PUSH3 0x312 JUMP JUMPDEST JUMPDEST PUSH3 0x448 DUP5 DUP3 DUP6 PUSH3 0x3DC JUMP JUMPDEST POP SWAP4 SWAP3 POP POP POP JUMP JUMPDEST PUSH0 DUP3 PUSH1 0x1F DUP4 ADD SLT PUSH3 0x467 JUMPI PUSH3 0x466 PUSH3 0x30E JUMP JUMPDEST JUMPDEST DUP2 MLOAD PUSH3 0x479 DUP5 DUP3 PUSH1 0x20 DUP7 ADD PUSH3 0x406 JUMP JUMPDEST SWAP2 POP POP SWAP3 SWAP2 POP POP JUMP JUMPDEST PUSH0 DUP1 PUSH0 DUP1 PUSH1 0x80 DUP6 DUP8 SUB SLT ISZERO PUSH3 0x49D JUMPI PUSH3 0x49C PUSH3 0x269 JUMP JUMPDEST JUMPDEST PUSH0 PUSH3 0x4AC DUP8 DUP3 DUP9 ADD PUSH3 0x297 JUMP JUMPDEST SWAP5 POP POP PUSH1 0x20 PUSH3 0x4BF DUP8 DUP3 DUP9 ADD PUSH3 0x2F8 JUMP JUMPDEST SWAP4 POP POP PUSH1 0x40 DUP6 ADD MLOAD PUSH8 0xFFFFFFFFFFFFFFFF DUP2 GT ISZERO PUSH3 0x4E3 JUMPI PUSH3 0x4E2 PUSH3 0x26D JUMP JUMPDEST JUMPDEST PUSH3 0x4F1 DUP8 DUP3 DUP9 ADD PUSH3 0x450 JUMP JUMPDEST SWAP3 POP POP PUSH1 0x60 DUP6 ADD MLOAD PUSH8 0xFFFFFFFFFFFFFFFF DUP2 GT ISZERO PUSH3 0x515 JUMPI PUSH3 0x514 PUSH3 0x26D JUMP JUMPDEST JUMPDEST PUSH3 0x523 DUP8 DUP3 DUP9 ADD PUSH3 0x450 JUMP JUMPDEST SWAP2 POP POP SWAP3 SWAP6 SWAP2 SWAP5 POP SWAP3 POP JUMP JUMPDEST PUSH0 DUP2 MLOAD SWAP1 POP SWAP2 SWAP1 POP JUMP JUMPDEST PUSH32 0x4E487B7100000000000000000000000000000000000000000000000000000000 PUSH0 MSTORE PUSH1 0x22 PUSH1 0x4 MSTORE PUSH1 0x24 PUSH0 REVERT JUMPDEST PUSH0 PUSH1 0x2 DUP3 DIV SWAP1 POP PUSH1 0x1 DUP3 AND DUP1 PUSH3 0x57E JUMPI PUSH1 0x7F DUP3 AND SWAP2 POP JUMPDEST PUSH1 0x20 DUP3 LT DUP2 SUB PUSH3 0x594 JUMPI PUSH3 0x593 PUSH3 0x539 JUMP JUMPDEST JUMPDEST POP SWAP2 SWAP1 POP JUMP JUMPDEST PUSH0 DUP2 SWAP1 POP DUP2 PUSH0 MSTORE PUSH1 0x20 PUSH0 KECCAK256 SWAP1 POP SWAP2 SWAP1 POP JUMP JUMPDEST PUSH0 PUSH1 0x20 PUSH1 0x1F DUP4 ADD DIV SWAP1 POP SWAP2 SWAP1 POP JUMP JUMPDEST PUSH0 DUP3 DUP3 SHL SWAP1 POP SWAP3 SWAP2 POP POP JUMP JUMPDEST PUSH0 PUSH1 0x8 DUP4 MUL PUSH3 0x5F8 PUSH32 0xFFFFFFFFFFFFFFFFFFFFFFFFFFFFFFFFFFFFFFFFFFFFFFFFFFFFFFFFFFFFFFFF DUP3 PUSH3 0x5BB JUMP JUMPDEST PUSH3 0x604 DUP7 DUP4 PUSH3 0x5BB JUMP JUMPDEST SWAP6 POP DUP1 NOT DUP5 AND SWAP4 POP DUP1 DUP7 AND DUP5 OR SWAP3 POP POP POP SWAP4 SWAP3 POP POP POP JUMP JUMPDEST PUSH0 DUP2 SWAP1 POP SWAP2 SWAP1 POP JUMP JUMPDEST PUSH0 DUP2 SWAP1 POP SWAP2 SWAP1 POP JUMP JUMPDEST PUSH0 PUSH3 0x64E PUSH3 0x648 PUSH3 0x642 DUP5 PUSH3 0x61C JUMP JUMPDEST PUSH3 0x625 JUMP JUMPDEST PUSH3 0x61C JUMP JUMPDEST SWAP1 POP SWAP2 SWAP1 POP JUMP JUMPDEST PUSH0 DUP2 SWAP1 POP SWAP2 SWAP1 POP JUMP JUMPDEST PUSH3 0x669 DUP4 PUSH3 0x62E JUMP JUMPDEST PUSH3 0x681 PUSH3 0x678 DUP3 PUSH3 0x655 JUMP JUMPDEST DUP5 DUP5 SLOAD PUSH3 0x5C7 JUMP JUMPDEST DUP3 SSTORE POP POP POP POP JUMP JUMPDEST PUSH0 SWAP1 JUMP JUMPDEST PUSH3 0x697 PUSH3 0x689 JUMP JUMPDEST PUSH3 0x6A4 DUP2 DUP5 DUP5 PUSH3 0x65E JUMP JUMPDEST POP POP POP JUMP JUMPDEST JUMPDEST DUP2 DUP2 LT ISZERO PUSH3 0x6CB JUMPI PUSH3 0x6BF PUSH0 DUP3 PUSH3 0x68D JUMP JUMPDEST PUSH1 0x1 DUP2 ADD SWAP1 POP PUSH3 0x6AA JUMP JUMPDEST POP POP JUMP JUMPDEST PUSH1 0x1F DUP3 GT ISZERO PUSH3 0x71A JUMPI PUSH3 0x6E4 DUP2 PUSH3 0x59A JUMP JUMPDEST PUSH3 0x6EF DUP5 PUSH3 0x5AC JUMP JUMPDEST DUP2 ADD PUSH1 0x20 DUP6 LT ISZERO PUSH3 0x6FF JUMPI DUP2 SWAP1 POP JUMPDEST PUSH3 0x717 PUSH3 0x70E DUP6 PUSH3 0x5AC JUMP JUMPDEST DUP4 ADD DUP3 PUSH3 0x6A9 JUMP JUMPDEST POP POP JUMPDEST POP POP POP JUMP JUMPDEST PUSH0 DUP3 DUP3 SHR SWAP1 POP SWAP3 SWAP2 POP POP JUMP JUMPDEST PUSH0 PUSH3 0x73C PUSH0 NOT DUP5 PUSH1 0x8 MUL PUSH3 0x71F JUMP JUMPDEST NOT DUP1 DUP4 AND SWAP2 POP POP SWAP3 SWAP2 POP POP JUMP JUMPDEST PUSH0 PUSH3 0x756 DUP4 DUP4 PUSH3 0x72B JUMP JUMPDEST SWAP2 POP DUP3 PUSH1 0x2 MUL DUP3 OR SWAP1 POP SWAP3 SWAP2 POP POP JUMP JUMPDEST PUSH3 0x771 DUP3 PUSH3 0x52F JUMP JUMPDEST PUSH8 0xFFFFFFFFFFFFFFFF DUP2 GT ISZERO PUSH3 0x78D JUMPI PUSH3 0x78C PUSH3 0x326 JUMP JUMPDEST JUMPDEST PUSH3 0x799 DUP3 SLOAD PUSH3 0x566 JUMP JUMPDEST PUSH3 0x7A6 DUP3 DUP3 DUP6 PUSH3 0x6CF JUMP JUMPDEST PUSH0 PUSH1 0x20 SWAP1 POP PUSH1 0x1F DUP4 GT PUSH1 0x1 DUP2 EQ PUSH3 0x7DC JUMPI PUSH0 DUP5 ISZERO PUSH3 0x7C7 JUMPI DUP3 DUP8 ADD MLOAD SWAP1 POP JUMPDEST PUSH3 0x7D3 DUP6 DUP3 PUSH3 0x749 JUMP JUMPDEST DUP7 SSTORE POP PUSH3 0x842 JUMP JUMPDEST PUSH1 0x1F NOT DUP5 AND PUSH3 0x7EC DUP7 PUSH3 0x59A JUMP JUMPDEST PUSH0 JUMPDEST DUP3 DUP2 LT ISZERO PUSH3 0x815 JUMPI DUP5 DUP10 ADD MLOAD DUP3 SSTORE PUSH1 0x1 DUP3 ADD SWAP2 POP PUSH1 0x20 DUP6 ADD SWAP5 POP PUSH1 0x20 DUP2 ADD SWAP1 POP PUSH3 0x7EE JUMP JUMPDEST DUP7 DUP4 LT ISZERO PUSH3 0x835 JUMPI DUP5 DUP10 ADD MLOAD PUSH3 0x831 PUSH1 0x1F DUP10 AND DUP3 PUSH3 0x72B JUMP JUMPDEST DUP4 SSTORE POP JUMPDEST PUSH1 0x1 PUSH1 0x2 DUP9 MUL ADD DUP9 SSTORE POP POP POP JUMPDEST POP POP POP POP POP POP JUMP JUMPDEST PUSH3 0x855 DUP2 PUSH3 0x2CC JUMP JUMPDEST DUP3 MSTORE POP POP JUMP JUMPDEST PUSH0 PUSH1 0x20 DUP3 ADD SWAP1 POP PUSH3 0x870 PUSH0 DUP4 ADD DUP5 PUSH3 0x84A JUMP JUMPDEST SWAP3 SWAP2 POP POP JUMP JUMPDEST PUSH1 0x80 MLOAD PUSH2 0x32C6 PUSH3 0x89D PUSH0 CODECOPY PUSH0 DUP2 DUP2 PUSH2 0x9A2 ADD MSTORE DUP2 DUP2 PUSH2 0xF1D ADD MSTORE PUSH2 0xFED ADD MSTORE PUSH2 0x32C6 PUSH0 RETURN INVALID PUSH1 0x80 PUSH1 0x40 MSTORE PUSH1 0x4 CALLDATASIZE LT PUSH2 0x1B5 JUMPI PUSH0 CALLDATALOAD PUSH1 0xE0 SHR DUP1 PUSH4 0x8DA5CB5B GT PUSH2 0xEB JUMPI DUP1 PUSH4 0xCBED8B9C GT PUSH2 0x89 JUMPI DUP1 PUSH4 0xE38C6802 GT PUSH2 0x63 JUMPI DUP1 PUSH4 0xE38C6802 EQ PUSH2 0x5E5 JUMPI DUP1 PUSH4 0xE776AC5E EQ PUSH2 0x621 JUMPI DUP1 PUSH4 0xEB8D72B7 EQ PUSH2 0x65D JUMPI DUP1 PUSH4 0xF2FDE38B EQ PUSH2 0x685 JUMPI PUSH2 0x1B5 JUMP JUMPDEST DUP1 PUSH4 0xCBED8B9C EQ PUSH2 0x559 JUMPI DUP1 PUSH4 0xD26ED3E3 EQ PUSH2 0x581 JUMPI DUP1 PUSH4 0xDD62ED3E EQ PUSH2 0x5A9 JUMPI PUSH2 0x1B5 JUMP JUMPDEST DUP1 PUSH4 0x95D89B41 GT PUSH2 0xC5 JUMPI DUP1 PUSH4 0x95D89B41 EQ PUSH2 0x48F JUMPI DUP1 PUSH4 0xA7170D48 EQ PUSH2 0x4B9 JUMPI DUP1 PUSH4 0xA9059CBB EQ PUSH2 0x4E1 JUMPI DUP1 PUSH4 0xAC447944 EQ PUSH2 0x51D JUMPI PUSH2 0x1B5 JUMP JUMPDEST DUP1 PUSH4 0x8DA5CB5B EQ PUSH2 0x411 JUMPI DUP1 PUSH4 0x935EC990 EQ PUSH2 0x43B JUMPI DUP1 PUSH4 0x94544E64 EQ PUSH2 0x465 JUMPI PUSH2 0x1B5 JUMP JUMPDEST DUP1 PUSH4 0x313CE567 GT PUSH2 0x158 JUMPI DUP1 PUSH4 0x6F0E7470 GT PUSH2 0x132 JUMPI DUP1 PUSH4 0x6F0E7470 EQ PUSH2 0x379 JUMPI DUP1 PUSH4 0x70A08231 EQ PUSH2 0x395 JUMPI DUP1 PUSH4 0x715018A6 EQ PUSH2 0x3D1 JUMPI DUP1 PUSH4 0x74F079B8 EQ PUSH2 0x3E7 JUMPI PUSH2 0x1B5 JUMP JUMPDEST DUP1 PUSH4 0x313CE567 EQ PUSH2 0x2FD JUMPI DUP1 PUSH4 0x42D65A8D EQ PUSH2 0x327 JUMPI DUP1 PUSH4 0x5E280F11 EQ PUSH2 0x34F JUMPI PUSH2 0x1B5 JUMP JUMPDEST DUP1 PUSH4 0x95EA7B3 GT PUSH2 0x194 JUMPI DUP1 PUSH4 0x95EA7B3 EQ PUSH2 0x233 JUMPI DUP1 PUSH4 0x10DDB137 EQ PUSH2 0x26F JUMPI DUP1 PUSH4 0x18160DDD EQ PUSH2 0x297 JUMPI DUP1 PUSH4 0x23B872DD EQ PUSH2 0x2C1 JUMPI PUSH2 0x1B5 JUMP JUMPDEST DUP1 PUSH3 0x1D3567 EQ PUSH2 0x1B9 JUMPI DUP1 PUSH4 0x6FDDE03 EQ PUSH2 0x1E1 JUMPI DUP1 PUSH4 0x7E0DB17 EQ PUSH2 0x20B JUMPI JUMPDEST PUSH0 DUP1 REVERT JUMPDEST CALLVALUE DUP1 ISZERO PUSH2 0x1C4 JUMPI PUSH0 DUP1 REVERT JUMPDEST POP PUSH2 0x1DF PUSH1 0x4 DUP1 CALLDATASIZE SUB DUP2 ADD SWAP1 PUSH2 0x1DA SWAP2 SWAP1 PUSH2 0x1E6B JUMP JUMPDEST PUSH2 0x6AD JUMP JUMPDEST STOP JUMPDEST CALLVALUE DUP1 ISZERO PUSH2 0x1EC JUMPI PUSH0 DUP1 REVERT JUMPDEST POP PUSH2 0x1F5 PUSH2 0x9E6 JUMP JUMPDEST PUSH1 0x40 MLOAD PUSH2 0x202 SWAP2 SWAP1 PUSH2 0x1F98 JUMP JUMPDEST PUSH1 0x40 MLOAD DUP1 SWAP2 SUB SWAP1 RETURN JUMPDEST CALLVALUE DUP1 ISZERO PUSH2 0x216 JUMPI PUSH0 DUP1 REVERT JUMPDEST POP PUSH2 0x231 PUSH1 0x4 DUP1 CALLDATASIZE SUB DUP2 ADD SWAP1 PUSH2 0x22C SWAP2 SWAP1 PUSH2 0x1FB8 JUMP JUMPDEST PUSH2 0xA76 JUMP JUMPDEST STOP JUMPDEST CALLVALUE DUP1 ISZERO PUSH2 0x23E JUMPI PUSH0 DUP1 REVERT JUMPDEST POP PUSH2 0x259 PUSH1 0x4 DUP1 CALLDATASIZE SUB DUP2 ADD SWAP1 PUSH2 0x254 SWAP2 SWAP1 PUSH2 0x2070 JUMP JUMPDEST PUSH2 0xB08 JUMP JUMPDEST PUSH1 0x40 MLOAD PUSH2 0x266 SWAP2 SWAP1 PUSH2 0x20C8 JUMP JUMPDEST PUSH1 0x40 MLOAD DUP1 SWAP2 SUB SWAP1 RETURN JUMPDEST CALLVALUE DUP1 ISZERO PUSH2 0x27A JUMPI PUSH0 DUP1 REVERT JUMPDEST POP PUSH2 0x295 PUSH1 0x4 DUP1 CALLDATASIZE SUB DUP2 ADD SWAP1 PUSH2 0x290 SWAP2 SWAP1 PUSH2 0x1FB8 JUMP JUMPDEST PUSH2 0xB2A JUMP JUMPDEST STOP JUMPDEST CALLVALUE DUP1 ISZERO PUSH2 0x2A2 JUMPI PUSH0 DUP1 REVERT JUMPDEST POP PUSH2 0x2AB PUSH2 0xBBC JUMP JUMPDEST PUSH1 0x40 MLOAD PUSH2 0x2B8 SWAP2 SWAP1 PUSH2 0x20F0 JUMP JUMPDEST PUSH1 0x40 MLOAD DUP1 SWAP2 SUB SWAP1 RETURN JUMPDEST CALLVALUE DUP1 ISZERO PUSH2 0x2CC JUMPI PUSH0 DUP1 REVERT JUMPDEST POP PUSH2 0x2E7 PUSH1 0x4 DUP1 CALLDATASIZE SUB DUP2 ADD SWAP1 PUSH2 0x2E2 SWAP2 SWAP1 PUSH2 0x2109 JUMP JUMPDEST PUSH2 0xBC5 JUMP JUMPDEST PUSH1 0x40 MLOAD PUSH2 0x2F4 SWAP2 SWAP1 PUSH2 0x20C8 JUMP JUMPDEST PUSH1 0x40 MLOAD DUP1 SWAP2 SUB SWAP1 RETURN JUMPDEST CALLVALUE DUP1 ISZERO PUSH2 0x308 JUMPI PUSH0 DUP1 REVERT JUMPDEST POP PUSH2 0x311 PUSH2 0xBF3 JUMP JUMPDEST PUSH1 0x40 MLOAD PUSH2 0x31E SWAP2 SWAP1 PUSH2 0x2174 JUMP JUMPDEST PUSH1 0x40 MLOAD DUP1 SWAP2 SUB SWAP1 RETURN JUMPDEST CALLVALUE DUP1 ISZERO PUSH2 0x332 JUMPI PUSH0 DUP1 REVERT JUMPDEST POP PUSH2 0x34D PUSH1 0x4 DUP1 CALLDATASIZE SUB DUP2 ADD SWAP1 PUSH2 0x348 SWAP2 SWAP1 PUSH2 0x218D JUMP JUMPDEST PUSH2 0xBFB JUMP JUMPDEST STOP JUMPDEST CALLVALUE DUP1 ISZERO PUSH2 0x35A JUMPI PUSH0 DUP1 REVERT JUMPDEST POP PUSH2 0x363 PUSH2 0xC93 JUMP JUMPDEST PUSH1 0x40 MLOAD PUSH2 0x370 SWAP2 SWAP1 PUSH2 0x2245 JUMP JUMPDEST PUSH1 0x40 MLOAD DUP1 SWAP2 SUB SWAP1 RETURN JUMPDEST PUSH2 0x393 PUSH1 0x4 DUP1 CALLDATASIZE SUB DUP2 ADD SWAP1 PUSH2 0x38E SWAP2 SWAP1 PUSH2 0x2386 JUMP JUMPDEST PUSH2 0xCB8 JUMP JUMPDEST STOP JUMPDEST CALLVALUE DUP1 ISZERO PUSH2 0x3A0 JUMPI PUSH0 DUP1 REVERT JUMPDEST POP PUSH2 0x3BB PUSH1 0x4 DUP1 CALLDATASIZE SUB DUP2 ADD SWAP1 PUSH2 0x3B6 SWAP2 SWAP1 PUSH2 0x2406 JUMP JUMPDEST PUSH2 0xF65 JUMP JUMPDEST PUSH1 0x40 MLOAD PUSH2 0x3C8 SWAP2 SWAP1 PUSH2 0x20F0 JUMP JUMPDEST PUSH1 0x40 MLOAD DUP1 SWAP2 SUB SWAP1 RETURN JUMPDEST CALLVALUE DUP1 ISZERO PUSH2 0x3DC JUMPI PUSH0 DUP1 REVERT JUMPDEST POP PUSH2 0x3E5 PUSH2 0xFAA JUMP JUMPDEST STOP JUMPDEST CALLVALUE DUP1 ISZERO PUSH2 0x3F2 JUMPI PUSH0 DUP1 REVERT JUMPDEST POP PUSH2 0x3FB PUSH2 0xFBD JUMP JUMPDEST PUSH1 0x40 MLOAD PUSH2 0x408 SWAP2 SWAP1 PUSH2 0x20F0 JUMP JUMPDEST PUSH1 0x40 MLOAD DUP1 SWAP2 SUB SWAP1 RETURN JUMPDEST CALLVALUE DUP1 ISZERO PUSH2 0x41C JUMPI PUSH0 DUP1 REVERT JUMPDEST POP PUSH2 0x425 PUSH2 0xFC3 JUMP JUMPDEST PUSH1 0x40 MLOAD PUSH2 0x432 SWAP2 SWAP1 PUSH2 0x2440 JUMP JUMPDEST PUSH1 0x40 MLOAD DUP1 SWAP2 SUB SWAP1 RETURN JUMPDEST CALLVALUE DUP1 ISZERO PUSH2 0x446 JUMPI PUSH0 DUP1 REVERT JUMPDEST POP PUSH2 0x44F PUSH2 0xFEB JUMP JUMPDEST PUSH1 0x40 MLOAD PUSH2 0x45C SWAP2 SWAP1 PUSH2 0x2468 JUMP JUMPDEST PUSH1 0x40 MLOAD DUP1 SWAP2 SUB SWAP1 RETURN JUMPDEST CALLVALUE DUP1 ISZERO PUSH2 0x470 JUMPI PUSH0 DUP1 REVERT JUMPDEST POP PUSH2 0x479 PUSH2 0x100F JUMP JUMPDEST PUSH1 0x40 MLOAD PUSH2 0x486 SWAP2 SWAP1 PUSH2 0x20F0 JUMP JUMPDEST PUSH1 0x40 MLOAD DUP1 SWAP2 SUB SWAP1 RETURN JUMPDEST CALLVALUE DUP1 ISZERO PUSH2 0x49A JUMPI PUSH0 DUP1 REVERT JUMPDEST POP PUSH2 0x4A3 PUSH2 0x1015 JUMP JUMPDEST PUSH1 0x40 MLOAD PUSH2 0x4B0 SWAP2 SWAP1 PUSH2 0x1F98 JUMP JUMPDEST PUSH1 0x40 MLOAD DUP1 SWAP2 SUB SWAP1 RETURN JUMPDEST CALLVALUE DUP1 ISZERO PUSH2 0x4C4 JUMPI PUSH0 DUP1 REVERT JUMPDEST POP PUSH2 0x4DF PUSH1 0x4 DUP1 CALLDATASIZE SUB DUP2 ADD SWAP1 PUSH2 0x4DA SWAP2 SWAP1 PUSH2 0x2406 JUMP JUMPDEST PUSH2 0x10A5 JUMP JUMPDEST STOP JUMPDEST CALLVALUE DUP1 ISZERO PUSH2 0x4EC JUMPI PUSH0 DUP1 REVERT JUMPDEST POP PUSH2 0x507 PUSH1 0x4 DUP1 CALLDATASIZE SUB DUP2 ADD SWAP1 PUSH2 0x502 SWAP2 SWAP1 PUSH2 0x2070 JUMP JUMPDEST PUSH2 0x1170 JUMP JUMPDEST PUSH1 0x40 MLOAD PUSH2 0x514 SWAP2 SWAP1 PUSH2 0x20C8 JUMP JUMPDEST PUSH1 0x40 MLOAD DUP1 SWAP2 SUB SWAP1 RETURN JUMPDEST CALLVALUE DUP1 ISZERO PUSH2 0x528 JUMPI PUSH0 DUP1 REVERT JUMPDEST POP PUSH2 0x543 PUSH1 0x4 DUP1 CALLDATASIZE SUB DUP2 ADD SWAP1 PUSH2 0x53E SWAP2 SWAP1 PUSH2 0x1FB8 JUMP JUMPDEST PUSH2 0x1192 JUMP JUMPDEST PUSH1 0x40 MLOAD PUSH2 0x550 SWAP2 SWAP1 PUSH2 0x24D3 JUMP JUMPDEST PUSH1 0x40 MLOAD DUP1 SWAP2 SUB SWAP1 RETURN JUMPDEST CALLVALUE DUP1 ISZERO PUSH2 0x564 JUMPI PUSH0 DUP1 REVERT JUMPDEST POP PUSH2 0x57F PUSH1 0x4 DUP1 CALLDATASIZE SUB DUP2 ADD SWAP1 PUSH2 0x57A SWAP2 SWAP1 PUSH2 0x24F3 JUMP JUMPDEST PUSH2 0x122D JUMP JUMPDEST STOP JUMPDEST CALLVALUE DUP1 ISZERO PUSH2 0x58C JUMPI PUSH0 DUP1 REVERT JUMPDEST POP PUSH2 0x5A7 PUSH1 0x4 DUP1 CALLDATASIZE SUB DUP2 ADD SWAP1 PUSH2 0x5A2 SWAP2 SWAP1 PUSH2 0x2577 JUMP JUMPDEST PUSH2 0x12CB JUMP JUMPDEST STOP JUMPDEST CALLVALUE DUP1 ISZERO PUSH2 0x5B4 JUMPI PUSH0 DUP1 REVERT JUMPDEST POP PUSH2 0x5CF PUSH1 0x4 DUP1 CALLDATASIZE SUB DUP2 ADD SWAP1 PUSH2 0x5CA SWAP2 SWAP1 PUSH2 0x25A2 JUMP JUMPDEST PUSH2 0x131D JUMP JUMPDEST PUSH1 0x40 MLOAD PUSH2 0x5DC SWAP2 SWAP1 PUSH2 0x20F0 JUMP JUMPDEST PUSH1 0x40 MLOAD DUP1 SWAP2 SUB SWAP1 RETURN JUMPDEST CALLVALUE DUP1 ISZERO PUSH2 0x5F0 JUMPI PUSH0 DUP1 REVERT JUMPDEST POP PUSH2 0x60B PUSH1 0x4 DUP1 CALLDATASIZE SUB DUP2 ADD SWAP1 PUSH2 0x606 SWAP2 SWAP1 PUSH2 0x25E0 JUMP JUMPDEST PUSH2 0x139F JUMP JUMPDEST PUSH1 0x40 MLOAD PUSH2 0x618 SWAP2 SWAP1 PUSH2 0x20C8 JUMP JUMPDEST PUSH1 0x40 MLOAD DUP1 SWAP2 SUB SWAP1 RETURN JUMPDEST CALLVALUE DUP1 ISZERO PUSH2 0x62C JUMPI PUSH0 DUP1 REVERT JUMPDEST POP PUSH2 0x647 PUSH1 0x4 DUP1 CALLDATASIZE SUB DUP2 ADD SWAP1 PUSH2 0x642 SWAP2 SWAP1 PUSH2 0x2386 JUMP JUMPDEST PUSH2 0x13EC JUMP JUMPDEST PUSH1 0x40 MLOAD PUSH2 0x654 SWAP2 SWAP1 PUSH2 0x20F0 JUMP JUMPDEST PUSH1 0x40 MLOAD DUP1 SWAP2 SUB SWAP1 RETURN JUMPDEST CALLVALUE DUP1 ISZERO PUSH2 0x668 JUMPI PUSH0 DUP1 REVERT JUMPDEST POP PUSH2 0x683 PUSH1 0x4 DUP1 CALLDATASIZE SUB DUP2 ADD SWAP1 PUSH2 0x67E SWAP2 SWAP1 PUSH2 0x264C JUMP JUMPDEST PUSH2 0x14C7 JUMP JUMPDEST STOP JUMPDEST CALLVALUE DUP1 ISZERO PUSH2 0x690 JUMPI PUSH0 DUP1 REVERT JUMPDEST POP PUSH2 0x6AB PUSH1 0x4 DUP1 CALLDATASIZE SUB DUP2 ADD SWAP1 PUSH2 0x6A6 SWAP2 SWAP1 PUSH2 0x2406 JUMP JUMPDEST PUSH2 0x1536 JUMP JUMPDEST STOP JUMPDEST PUSH1 0x6 PUSH0 SWAP1 SLOAD SWAP1 PUSH2 0x100 EXP SWAP1 DIV PUSH20 0xFFFFFFFFFFFFFFFFFFFFFFFFFFFFFFFFFFFFFFFF AND PUSH20 0xFFFFFFFFFFFFFFFFFFFFFFFFFFFFFFFFFFFFFFFF AND CALLER PUSH20 0xFFFFFFFFFFFFFFFFFFFFFFFFFFFFFFFFFFFFFFFF AND EQ PUSH2 0x73C JUMPI PUSH1 0x40 MLOAD PUSH32 0x8C379A000000000000000000000000000000000000000000000000000000000 DUP2 MSTORE PUSH1 0x4 ADD PUSH2 0x733 SWAP1 PUSH2 0x26F0 JUMP JUMPDEST PUSH1 0x40 MLOAD DUP1 SWAP2 SUB SWAP1 REVERT JUMPDEST PUSH1 0x7 PUSH0 DUP8 PUSH2 0xFFFF AND PUSH2 0xFFFF AND DUP2 MSTORE PUSH1 0x20 ADD SWAP1 DUP2 MSTORE PUSH1 0x20 ADD PUSH0 KECCAK256 DUP1 SLOAD PUSH2 0x760 SWAP1 PUSH2 0x273B JUMP JUMPDEST SWAP1 POP DUP6 DUP6 SWAP1 POP EQ PUSH2 0x7A6 JUMPI PUSH1 0x40 MLOAD PUSH32 0x8C379A000000000000000000000000000000000000000000000000000000000 DUP2 MSTORE PUSH1 0x4 ADD PUSH2 0x79D SWAP1 PUSH2 0x27DB JUMP JUMPDEST PUSH1 0x40 MLOAD DUP1 SWAP2 SUB SWAP1 REVERT JUMPDEST PUSH1 0x7 PUSH0 DUP8 PUSH2 0xFFFF AND PUSH2 0xFFFF AND DUP2 MSTORE PUSH1 0x20 ADD SWAP1 DUP2 MSTORE PUSH1 0x20 ADD PUSH0 KECCAK256 PUSH1 0x40 MLOAD PUSH2 0x7CC SWAP2 SWAP1 PUSH2 0x2895 JUMP JUMPDEST PUSH1 0x40 MLOAD DUP1 SWAP2 SUB SWAP1 KECCAK256 DUP6 DUP6 PUSH1 0x40 MLOAD PUSH2 0x7E4 SWAP3 SWAP2 SWAP1 PUSH2 0x28CF JUMP JUMPDEST PUSH1 0x40 MLOAD DUP1 SWAP2 SUB SWAP1 KECCAK256 EQ PUSH2 0x82C JUMPI PUSH1 0x40 MLOAD PUSH32 0x8C379A000000000000000000000000000000000000000000000000000000000 DUP2 MSTORE PUSH1 0x4 ADD PUSH2 0x823 SWAP1 PUSH2 0x2931 JUMP JUMPDEST PUSH1 0x40 MLOAD DUP1 SWAP2 SUB SWAP1 REVERT JUMPDEST PUSH1 0x9 DUP6 DUP6 PUSH1 0x40 MLOAD PUSH2 0x83E SWAP3 SWAP2 SWAP1 PUSH2 0x28CF JUMP JUMPDEST SWAP1 DUP2 MSTORE PUSH1 0x20 ADD PUSH1 0x40 MLOAD DUP1 SWAP2 SUB SWAP1 KECCAK256 PUSH0 DUP8 PUSH2 0xFFFF AND PUSH2 0xFFFF AND DUP2 MSTORE PUSH1 0x20 ADD SWAP1 DUP2 MSTORE PUSH1 0x20 ADD PUSH0 KECCAK256 PUSH0 DUP5 PUSH8 0xFFFFFFFFFFFFFFFF AND PUSH8 0xFFFFFFFFFFFFFFFF AND DUP2 MSTORE PUSH1 0x20 ADD SWAP1 DUP2 MSTORE PUSH1 0x20 ADD PUSH0 KECCAK256 PUSH0 SWAP1 SLOAD SWAP1 PUSH2 0x100 EXP SWAP1 DIV PUSH1 0xFF AND ISZERO PUSH2 0x8D3 JUMPI PUSH1 0x40 MLOAD PUSH32 0x8C379A000000000000000000000000000000000000000000000000000000000 DUP2 MSTORE PUSH1 0x4 ADD PUSH2 0x8CA SWAP1 PUSH2 0x2999 JUMP JUMPDEST PUSH1 0x40 MLOAD DUP1 SWAP2 SUB SWAP1 REVERT JUMPDEST PUSH1 0x1 PUSH1 0x9 DUP7 DUP7 PUSH1 0x40 MLOAD PUSH2 0x8E7 SWAP3 SWAP2 SWAP1 PUSH2 0x28CF JUMP JUMPDEST SWAP1 DUP2 MSTORE PUSH1 0x20 ADD PUSH1 0x40 MLOAD DUP1 SWAP2 SUB SWAP1 KECCAK256 PUSH0 DUP9 PUSH2 0xFFFF AND PUSH2 0xFFFF AND DUP2 MSTORE PUSH1 0x20 ADD SWAP1 DUP2 MSTORE PUSH1 0x20 ADD PUSH0 KECCAK256 PUSH0 DUP6 PUSH8 0xFFFFFFFFFFFFFFFF AND PUSH8 0xFFFFFFFFFFFFFFFF AND DUP2 MSTORE PUSH1 0x20 ADD SWAP1 DUP2 MSTORE PUSH1 0x20 ADD PUSH0 KECCAK256 PUSH0 PUSH2 0x100 EXP DUP2 SLOAD DUP2 PUSH1 0xFF MUL NOT AND SWAP1 DUP4 ISZERO ISZERO MUL OR SWAP1 SSTORE POP PUSH0 DUP1 PUSH0 DUP5 DUP5 DUP2 ADD SWAP1 PUSH2 0x957 SWAP2 SWAP1 PUSH2 0x29F2 JUMP JUMPDEST SWAP3 POP SWAP3 POP SWAP3 POP PUSH2 0x967 DUP4 DUP4 PUSH2 0x15BA JUMP JUMPDEST DUP3 PUSH20 0xFFFFFFFFFFFFFFFFFFFFFFFFFFFFFFFFFFFFFFFF AND PUSH32 0xF540E2FCB9906DCFCFD5AEA0F902DA16BA5630B30F63F3ACF6ABE376F9E476A8 DUP11 PUSH32 0x0 DUP5 DUP7 PUSH1 0x40 MLOAD PUSH2 0x9D3 SWAP5 SWAP4 SWAP3 SWAP2 SWAP1 PUSH2 0x2A42 JUMP JUMPDEST PUSH1 0x40 MLOAD DUP1 SWAP2 SUB SWAP1 LOG2 POP POP POP POP POP POP POP POP POP JUMP JUMPDEST PUSH1 0x60 PUSH1 0x3 DUP1 SLOAD PUSH2 0x9F5 SWAP1 PUSH2 0x273B JUMP JUMPDEST DUP1 PUSH1 0x1F ADD PUSH1 0x20 DUP1 SWAP2 DIV MUL PUSH1 0x20 ADD PUSH1 0x40 MLOAD SWAP1 DUP2 ADD PUSH1 0x40 MSTORE DUP1 SWAP3 SWAP2 SWAP1 DUP2 DUP2 MSTORE PUSH1 0x20 ADD DUP3 DUP1 SLOAD PUSH2 0xA21 SWAP1 PUSH2 0x273B JUMP JUMPDEST DUP1 ISZERO PUSH2 0xA6C JUMPI DUP1 PUSH1 0x1F LT PUSH2 0xA43 JUMPI PUSH2 0x100 DUP1 DUP4 SLOAD DIV MUL DUP4 MSTORE SWAP2 PUSH1 0x20 ADD SWAP2 PUSH2 0xA6C JUMP JUMPDEST DUP3 ADD SWAP2 SWAP1 PUSH0 MSTORE PUSH1 0x20 PUSH0 KECCAK256 SWAP1 JUMPDEST DUP2 SLOAD DUP2 MSTORE SWAP1 PUSH1 0x1 ADD SWAP1 PUSH1 0x20 ADD DUP1 DUP4 GT PUSH2 0xA4F JUMPI DUP3 SWAP1 SUB PUSH1 0x1F AND DUP3 ADD SWAP2 JUMPDEST POP POP POP POP POP SWAP1 POP SWAP1 JUMP JUMPDEST PUSH2 0xA7E PUSH2 0x1639 JUMP JUMPDEST PUSH1 0x6 PUSH0 SWAP1 SLOAD SWAP1 PUSH2 0x100 EXP SWAP1 DIV PUSH20 0xFFFFFFFFFFFFFFFFFFFFFFFFFFFFFFFFFFFFFFFF AND PUSH20 0xFFFFFFFFFFFFFFFFFFFFFFFFFFFFFFFFFFFFFFFF AND PUSH4 0x7E0DB17 DUP3 PUSH1 0x40 MLOAD DUP3 PUSH4 0xFFFFFFFF AND PUSH1 0xE0 SHL DUP2 MSTORE PUSH1 0x4 ADD PUSH2 0xAD8 SWAP2 SWAP1 PUSH2 0x2468 JUMP JUMPDEST PUSH0 PUSH1 0x40 MLOAD DUP1 DUP4 SUB DUP2 PUSH0 DUP8 DUP1 EXTCODESIZE ISZERO DUP1 ISZERO PUSH2 0xAEF JUMPI PUSH0 DUP1 REVERT JUMPDEST POP GAS CALL ISZERO DUP1 ISZERO PUSH2 0xB01 JUMPI RETURNDATASIZE PUSH0 DUP1 RETURNDATACOPY RETURNDATASIZE PUSH0 REVERT JUMPDEST POP POP POP POP POP JUMP JUMPDEST PUSH0 DUP1 PUSH2 0xB12 PUSH2 0x16C0 JUMP JUMPDEST SWAP1 POP PUSH2 0xB1F DUP2 DUP6 DUP6 PUSH2 0x16C7 JUMP JUMPDEST PUSH1 0x1 SWAP2 POP POP SWAP3 SWAP2 POP POP JUMP JUMPDEST PUSH2 0xB32 PUSH2 0x1639 JUMP JUMPDEST PUSH1 0x6 PUSH0 SWAP1 SLOAD SWAP1 PUSH2 0x100 EXP SWAP1 DIV PUSH20 0xFFFFFFFFFFFFFFFFFFFFFFFFFFFFFFFFFFFFFFFF AND PUSH20 0xFFFFFFFFFFFFFFFFFFFFFFFFFFFFFFFFFFFFFFFF AND PUSH4 0x10DDB137 DUP3 PUSH1 0x40 MLOAD DUP3 PUSH4 0xFFFFFFFF AND PUSH1 0xE0 SHL DUP2 MSTORE PUSH1 0x4 ADD PUSH2 0xB8C SWAP2 SWAP1 PUSH2 0x2468 JUMP JUMPDEST PUSH0 PUSH1 0x40 MLOAD DUP1 DUP4 SUB DUP2 PUSH0 DUP8 DUP1 EXTCODESIZE ISZERO DUP1 ISZERO PUSH2 0xBA3 JUMPI PUSH0 DUP1 REVERT JUMPDEST POP GAS CALL ISZERO DUP1 ISZERO PUSH2 0xBB5 JUMPI RETURNDATASIZE PUSH0 DUP1 RETURNDATACOPY RETURNDATASIZE PUSH0 REVERT JUMPDEST POP POP POP POP POP JUMP JUMPDEST PUSH0 PUSH1 0x2 SLOAD SWAP1 POP SWAP1 JUMP JUMPDEST PUSH0 DUP1 PUSH2 0xBCF PUSH2 0x16C0 JUMP JUMPDEST SWAP1 POP PUSH2 0xBDC DUP6 DUP3 DUP6 PUSH2 0x16D9 JUMP JUMPDEST PUSH2 0xBE7 DUP6 DUP6 DUP6 PUSH2 0x176B JUMP JUMPDEST PUSH1 0x1 SWAP2 POP POP SWAP4 SWAP3 POP POP POP JUMP JUMPDEST PUSH0 PUSH1 0x12 SWAP1 POP SWAP1 JUMP JUMPDEST PUSH2 0xC03 PUSH2 0x1639 JUMP JUMPDEST PUSH1 0x6 PUSH0 SWAP1 SLOAD SWAP1 PUSH2 0x100 EXP SWAP1 DIV PUSH20 0xFFFFFFFFFFFFFFFFFFFFFFFFFFFFFFFFFFFFFFFF AND PUSH20 0xFFFFFFFFFFFFFFFFFFFFFFFFFFFFFFFFFFFFFFFF AND PUSH4 0x42D65A8D DUP5 DUP5 DUP5 PUSH1 0x40 MLOAD DUP5 PUSH4 0xFFFFFFFF AND PUSH1 0xE0 SHL DUP2 MSTORE PUSH1 0x4 ADD PUSH2 0xC61 SWAP4 SWAP3 SWAP2 SWAP1 PUSH2 0x2AB1 JUMP JUMPDEST PUSH0 PUSH1 0x40 MLOAD DUP1 DUP4 SUB DUP2 PUSH0 DUP8 DUP1 EXTCODESIZE ISZERO DUP1 ISZERO PUSH2 0xC78 JUMPI PUSH0 DUP1 REVERT JUMPDEST POP GAS CALL ISZERO DUP1 ISZERO PUSH2 0xC8A JUMPI RETURNDATASIZE PUSH0 DUP1 RETURNDATACOPY RETURNDATASIZE PUSH0 REVERT JUMPDEST POP POP POP POP POP POP POP JUMP JUMPDEST PUSH1 0x6 PUSH0 SWAP1 SLOAD SWAP1 PUSH2 0x100 EXP SWAP1 DIV PUSH20 0xFFFFFFFFFFFFFFFFFFFFFFFFFFFFFFFFFFFFFFFF AND DUP2 JUMP JUMPDEST PUSH0 PUSH1 0x7 PUSH0 DUP5 PUSH2 0xFFFF AND PUSH2 0xFFFF AND DUP2 MSTORE PUSH1 0x20 ADD SWAP1 DUP2 MSTORE PUSH1 0x20 ADD PUSH0 KECCAK256 DUP1 SLOAD PUSH2 0xCDD SWAP1 PUSH2 0x273B JUMP JUMPDEST SWAP1 POP GT PUSH2 0xD1F JUMPI PUSH1 0x40 MLOAD PUSH32 0x8C379A000000000000000000000000000000000000000000000000000000000 DUP2 MSTORE PUSH1 0x4 ADD PUSH2 0xD16 SWAP1 PUSH2 0x2B2B JUMP JUMPDEST PUSH1 0x40 MLOAD DUP1 SWAP2 SUB SWAP1 REVERT JUMPDEST PUSH0 PUSH2 0xD29 CALLER PUSH2 0xF65 JUMP JUMPDEST SWAP1 POP DUP4 DUP2 LT ISZERO PUSH2 0xD6E JUMPI PUSH1 0x40 MLOAD PUSH32 0x8C379A000000000000000000000000000000000000000000000000000000000 DUP2 MSTORE PUSH1 0x4 ADD PUSH2 0xD65 SWAP1 PUSH2 0x2B93 JUMP JUMPDEST PUSH1 0x40 MLOAD DUP1 SWAP2 SUB SWAP1 REVERT JUMPDEST PUSH2 0xD78 CALLER DUP6 PUSH2 0x185B JUMP JUMPDEST PUSH0 PUSH2 0xD82 CALLER PUSH2 0xF65 JUMP JUMPDEST SWAP1 POP DUP5 DUP2 DUP4 PUSH2 0xD91 SWAP2 SWAP1 PUSH2 0x2BDE JUMP JUMPDEST EQ PUSH2 0xDD1 JUMPI PUSH1 0x40 MLOAD PUSH32 0x8C379A000000000000000000000000000000000000000000000000000000000 DUP2 MSTORE PUSH1 0x4 ADD PUSH2 0xDC8 SWAP1 PUSH2 0x2C5B JUMP JUMPDEST PUSH1 0x40 MLOAD DUP1 SWAP2 SUB SWAP1 REVERT JUMPDEST PUSH0 PUSH2 0x2710 PUSH1 0xA SLOAD DUP8 PUSH2 0xDE3 SWAP2 SWAP1 PUSH2 0x2C79 JUMP JUMPDEST PUSH2 0xDED SWAP2 SWAP1 PUSH2 0x2CE7 JUMP JUMPDEST SWAP1 POP PUSH0 DUP2 DUP8 PUSH2 0xDFC SWAP2 SWAP1 PUSH2 0x2BDE JUMP JUMPDEST SWAP1 POP PUSH1 0x8 PUSH0 DUP2 SLOAD PUSH2 0xE0C SWAP1 PUSH2 0x2D17 JUMP JUMPDEST SWAP2 SWAP1 POP DUP2 SWAP1 SSTORE POP PUSH1 0x6 PUSH0 SWAP1 SLOAD SWAP1 PUSH2 0x100 EXP SWAP1 DIV PUSH20 0xFFFFFFFFFFFFFFFFFFFFFFFFFFFFFFFFFFFFFFFF AND PUSH20 0xFFFFFFFFFFFFFFFFFFFFFFFFFFFFFFFFFFFFFFFF AND PUSH4 0xC5803100 CALLVALUE DUP9 PUSH1 0x7 PUSH0 DUP12 PUSH2 0xFFFF AND PUSH2 0xFFFF AND DUP2 MSTORE PUSH1 0x20 ADD SWAP1 DUP2 MSTORE PUSH1 0x20 ADD PUSH0 KECCAK256 DUP13 DUP7 PUSH1 0x8 SLOAD PUSH1 0x40 MLOAD PUSH1 0x20 ADD PUSH2 0xE82 SWAP4 SWAP3 SWAP2 SWAP1 PUSH2 0x2D5E JUMP JUMPDEST PUSH1 0x40 MLOAD PUSH1 0x20 DUP2 DUP4 SUB SUB DUP2 MSTORE SWAP1 PUSH1 0x40 MSTORE CALLER PUSH0 DUP13 PUSH1 0x40 MLOAD DUP9 PUSH4 0xFFFFFFFF AND PUSH1 0xE0 SHL DUP2 MSTORE PUSH1 0x4 ADD PUSH2 0xEB5 SWAP7 SWAP6 SWAP5 SWAP4 SWAP3 SWAP2 SWAP1 PUSH2 0x2E23 JUMP JUMPDEST PUSH0 PUSH1 0x40 MLOAD DUP1 DUP4 SUB DUP2 DUP6 DUP9 DUP1 EXTCODESIZE ISZERO DUP1 ISZERO PUSH2 0xECC JUMPI PUSH0 DUP1 REVERT JUMPDEST POP GAS CALL ISZERO DUP1 ISZERO PUSH2 0xEDE JUMPI RETURNDATASIZE PUSH0 DUP1 RETURNDATACOPY RETURNDATASIZE PUSH0 REVERT JUMPDEST POP POP POP POP POP DUP8 PUSH20 0xFFFFFFFFFFFFFFFFFFFFFFFFFFFFFFFFFFFFFFFF AND PUSH32 0xBD36451AB3B0E9FE414DEA95544D2A3D68944D949C8AF5B4A2BDFA0F269B02F0 PUSH32 0x0 DUP9 PUSH1 0x8 SLOAD DUP6 DUP8 PUSH1 0x40 MLOAD PUSH2 0xF53 SWAP6 SWAP5 SWAP4 SWAP3 SWAP2 SWAP1 PUSH2 0x2E97 JUMP JUMPDEST PUSH1 0x40 MLOAD DUP1 SWAP2 SUB SWAP1 LOG2 POP POP POP POP POP POP POP POP JUMP JUMPDEST PUSH0 DUP1 PUSH0 DUP4 PUSH20 0xFFFFFFFFFFFFFFFFFFFFFFFFFFFFFFFFFFFFFFFF AND PUSH20 0xFFFFFFFFFFFFFFFFFFFFFFFFFFFFFFFFFFFFFFFF AND DUP2 MSTORE PUSH1 0x20 ADD SWAP1 DUP2 MSTORE PUSH1 0x20 ADD PUSH0 KECCAK256 SLOAD SWAP1 POP SWAP2 SWAP1 POP JUMP JUMPDEST PUSH2 0xFB2 PUSH2 0x1639 JUMP JUMPDEST PUSH2 0xFBB PUSH0 PUSH2 0x18DA JUMP JUMPDEST JUMP JUMPDEST PUSH1 0x8 SLOAD DUP2 JUMP JUMPDEST PUSH0 PUSH1 0x5 PUSH0 SWAP1 SLOAD SWAP1 PUSH2 0x100 EXP SWAP1 DIV PUSH20 0xFFFFFFFFFFFFFFFFFFFFFFFFFFFFFFFFFFFFFFFF AND SWAP1 POP SWAP1 JUMP JUMPDEST PUSH32 0x0 DUP2 JUMP JUMPDEST PUSH1 0xA SLOAD DUP2 JUMP JUMPDEST PUSH1 0x60 PUSH1 0x4 DUP1 SLOAD PUSH2 0x1024 SWAP1 PUSH2 0x273B JUMP JUMPDEST DUP1 PUSH1 0x1F ADD PUSH1 0x20 DUP1 SWAP2 DIV MUL PUSH1 0x20 ADD PUSH1 0x40 MLOAD SWAP1 DUP2 ADD PUSH1 0x40 MSTORE DUP1 SWAP3 SWAP2 SWAP1 DUP2 DUP2 MSTORE PUSH1 0x20 ADD DUP3 DUP1 SLOAD PUSH2 0x1050 SWAP1 PUSH2 0x273B JUMP JUMPDEST DUP1 ISZERO PUSH2 0x109B JUMPI DUP1 PUSH1 0x1F LT PUSH2 0x1072 JUMPI PUSH2 0x100 DUP1 DUP4 SLOAD DIV MUL DUP4 MSTORE SWAP2 PUSH1 0x20 ADD SWAP2 PUSH2 0x109B JUMP JUMPDEST DUP3 ADD SWAP2 SWAP1 PUSH0 MSTORE PUSH1 0x20 PUSH0 KECCAK256 SWAP1 JUMPDEST DUP2 SLOAD DUP2 MSTORE SWAP1 PUSH1 0x1 ADD SWAP1 PUSH1 0x20 ADD DUP1 DUP4 GT PUSH2 0x107E JUMPI DUP3 SWAP1 SUB PUSH1 0x1F AND DUP3 ADD SWAP2 JUMPDEST POP POP POP POP POP SWAP1 POP SWAP1 JUMP JUMPDEST PUSH2 0x10AD PUSH2 0x1639 JUMP JUMPDEST PUSH0 PUSH1 0x6 PUSH0 SWAP1 SLOAD SWAP1 PUSH2 0x100 EXP SWAP1 DIV PUSH20 0xFFFFFFFFFFFFFFFFFFFFFFFFFFFFFFFFFFFFFFFF AND SWAP1 POP DUP2 PUSH1 0x6 PUSH0 PUSH2 0x100 EXP DUP2 SLOAD DUP2 PUSH20 0xFFFFFFFFFFFFFFFFFFFFFFFFFFFFFFFFFFFFFFFF MUL NOT AND SWAP1 DUP4 PUSH20 0xFFFFFFFFFFFFFFFFFFFFFFFFFFFFFFFFFFFFFFFF AND MUL OR SWAP1 SSTORE POP DUP2 PUSH20 0xFFFFFFFFFFFFFFFFFFFFFFFFFFFFFFFFFFFFFFFF AND DUP2 PUSH20 0xFFFFFFFFFFFFFFFFFFFFFFFFFFFFFFFFFFFFFFFF AND PUSH32 0x241827194635B544BCEB965D0E124305C0968051403AE83CB99D1EF86BD65F58 PUSH1 0x40 MLOAD PUSH1 0x40 MLOAD DUP1 SWAP2 SUB SWAP1 LOG3 POP POP JUMP JUMPDEST PUSH0 DUP1 PUSH2 0x117A PUSH2 0x16C0 JUMP JUMPDEST SWAP1 POP PUSH2 0x1187 DUP2 DUP6 DUP6 PUSH2 0x176B JUMP JUMPDEST PUSH1 0x1 SWAP2 POP POP SWAP3 SWAP2 POP POP JUMP JUMPDEST PUSH1 0x7 PUSH1 0x20 MSTORE DUP1 PUSH0 MSTORE PUSH1 0x40 PUSH0 KECCAK256 PUSH0 SWAP2 POP SWAP1 POP DUP1 SLOAD PUSH2 0x11AE SWAP1 PUSH2 0x273B JUMP JUMPDEST DUP1 PUSH1 0x1F ADD PUSH1 0x20 DUP1 SWAP2 DIV MUL PUSH1 0x20 ADD PUSH1 0x40 MLOAD SWAP1 DUP2 ADD PUSH1 0x40 MSTORE DUP1 SWAP3 SWAP2 SWAP1 DUP2 DUP2 MSTORE PUSH1 0x20 ADD DUP3 DUP1 SLOAD PUSH2 0x11DA SWAP1 PUSH2 0x273B JUMP JUMPDEST DUP1 ISZERO PUSH2 0x1225 JUMPI DUP1 PUSH1 0x1F LT PUSH2 0x11FC JUMPI PUSH2 0x100 DUP1 DUP4 SLOAD DIV MUL DUP4 MSTORE SWAP2 PUSH1 0x20 ADD SWAP2 PUSH2 0x1225 JUMP JUMPDEST DUP3 ADD SWAP2 SWAP1 PUSH0 MSTORE PUSH1 0x20 PUSH0 KECCAK256 SWAP1 JUMPDEST DUP2 SLOAD DUP2 MSTORE SWAP1 PUSH1 0x1 ADD SWAP1 PUSH1 0x20 ADD DUP1 DUP4 GT PUSH2 0x1208 JUMPI DUP3 SWAP1 SUB PUSH1 0x1F AND DUP3 ADD SWAP2 JUMPDEST POP POP POP POP POP DUP2 JUMP JUMPDEST PUSH2 0x1235 PUSH2 0x1639 JUMP JUMPDEST PUSH1 0x6 PUSH0 SWAP1 SLOAD SWAP1 PUSH2 0x100 EXP SWAP1 DIV PUSH20 0xFFFFFFFFFFFFFFFFFFFFFFFFFFFFFFFFFFFFFFFF AND PUSH20 0xFFFFFFFFFFFFFFFFFFFFFFFFFFFFFFFFFFFFFFFF AND PUSH4 0xCBED8B9C DUP7 DUP7 DUP7 DUP7 DUP7 PUSH1 0x40 MLOAD DUP7 PUSH4 0xFFFFFFFF AND PUSH1 0xE0 SHL DUP2 MSTORE PUSH1 0x4 ADD PUSH2 0x1297 SWAP6 SWAP5 SWAP4 SWAP3 SWAP2 SWAP1 PUSH2 0x2EE8 JUMP JUMPDEST PUSH0 PUSH1 0x40 MLOAD DUP1 DUP4 SUB DUP2 PUSH0 DUP8 DUP1 EXTCODESIZE ISZERO DUP1 ISZERO PUSH2 0x12AE JUMPI PUSH0 DUP1 REVERT JUMPDEST POP GAS CALL ISZERO DUP1 ISZERO PUSH2 0x12C0 JUMPI RETURNDATASIZE PUSH0 DUP1 RETURNDATACOPY RETURNDATASIZE PUSH0 REVERT JUMPDEST POP POP POP POP POP POP POP POP POP JUMP JUMPDEST PUSH2 0x12D3 PUSH2 0x1639 JUMP JUMPDEST PUSH0 PUSH1 0xA SLOAD SWAP1 POP DUP2 PUSH1 0xA DUP2 SWAP1 SSTORE POP PUSH32 0x940334A9F5C76529AD9447AC490C2073B06D880209383A3D3E4B0ECAB72A0D99 DUP2 DUP4 PUSH1 0x40 MLOAD PUSH2 0x1311 SWAP3 SWAP2 SWAP1 PUSH2 0x2F34 JUMP JUMPDEST PUSH1 0x40 MLOAD DUP1 SWAP2 SUB SWAP1 LOG1 POP POP JUMP JUMPDEST PUSH0 PUSH1 0x1 PUSH0 DUP5 PUSH20 0xFFFFFFFFFFFFFFFFFFFFFFFFFFFFFFFFFFFFFFFF AND PUSH20 0xFFFFFFFFFFFFFFFFFFFFFFFFFFFFFFFFFFFFFFFF AND DUP2 MSTORE PUSH1 0x20 ADD SWAP1 DUP2 MSTORE PUSH1 0x20 ADD PUSH0 KECCAK256 PUSH0 DUP4 PUSH20 0xFFFFFFFFFFFFFFFFFFFFFFFFFFFFFFFFFFFFFFFF AND PUSH20 0xFFFFFFFFFFFFFFFFFFFFFFFFFFFFFFFFFFFFFFFF AND DUP2 MSTORE PUSH1 0x20 ADD SWAP1 DUP2 MSTORE PUSH1 0x20 ADD PUSH0 KECCAK256 SLOAD SWAP1 POP SWAP3 SWAP2 POP POP JUMP JUMPDEST PUSH1 0x9 DUP4 DUP1 MLOAD PUSH1 0x20 DUP2 ADD DUP3 ADD DUP1 MLOAD DUP5 DUP3 MSTORE PUSH1 0x20 DUP4 ADD PUSH1 0x20 DUP6 ADD KECCAK256 DUP2 DUP4 MSTORE DUP1 SWAP6 POP POP POP POP POP POP PUSH1 0x20 MSTORE DUP2 PUSH0 MSTORE PUSH1 0x40 PUSH0 KECCAK256 PUSH1 0x20 MSTORE DUP1 PUSH0 MSTORE PUSH1 0x40 PUSH0 KECCAK256 PUSH0 SWAP3 POP SWAP3 POP POP SWAP1 SLOAD SWAP1 PUSH2 0x100 EXP SWAP1 DIV PUSH1 0xFF AND DUP2 JUMP JUMPDEST PUSH0 DUP1 DUP6 DUP6 PUSH1 0x8 SLOAD PUSH1 0x40 MLOAD PUSH1 0x20 ADD PUSH2 0x1405 SWAP4 SWAP3 SWAP2 SWAP1 PUSH2 0x2D5E JUMP JUMPDEST PUSH1 0x40 MLOAD PUSH1 0x20 DUP2 DUP4 SUB SUB DUP2 MSTORE SWAP1 PUSH1 0x40 MSTORE SWAP1 POP PUSH0 PUSH1 0x6 PUSH0 SWAP1 SLOAD SWAP1 PUSH2 0x100 EXP SWAP1 DIV PUSH20 0xFFFFFFFFFFFFFFFFFFFFFFFFFFFFFFFFFFFFFFFF AND PUSH20 0xFFFFFFFFFFFFFFFFFFFFFFFFFFFFFFFFFFFFFFFF AND PUSH4 0x40A7BB10 DUP7 ADDRESS DUP6 PUSH0 DUP10 PUSH1 0x40 MLOAD DUP7 PUSH4 0xFFFFFFFF AND PUSH1 0xE0 SHL DUP2 MSTORE PUSH1 0x4 ADD PUSH2 0x1479 SWAP6 SWAP5 SWAP4 SWAP3 SWAP2 SWAP1 PUSH2 0x2F5B JUMP JUMPDEST PUSH1 0x40 DUP1 MLOAD DUP1 DUP4 SUB DUP2 DUP7 GAS STATICCALL ISZERO DUP1 ISZERO PUSH2 0x1493 JUMPI RETURNDATASIZE PUSH0 DUP1 RETURNDATACOPY RETURNDATASIZE PUSH0 REVERT JUMPDEST POP POP POP POP PUSH1 0x40 MLOAD RETURNDATASIZE PUSH1 0x1F NOT PUSH1 0x1F DUP3 ADD AND DUP3 ADD DUP1 PUSH1 0x40 MSTORE POP DUP2 ADD SWAP1 PUSH2 0x14B7 SWAP2 SWAP1 PUSH2 0x2FCE JUMP JUMPDEST POP SWAP1 POP DUP1 SWAP3 POP POP POP SWAP5 SWAP4 POP POP POP POP JUMP JUMPDEST PUSH2 0x14CF PUSH2 0x1639 JUMP JUMPDEST DUP1 PUSH1 0x7 PUSH0 DUP5 PUSH2 0xFFFF AND PUSH2 0xFFFF AND DUP2 MSTORE PUSH1 0x20 ADD SWAP1 DUP2 MSTORE PUSH1 0x20 ADD PUSH0 KECCAK256 SWAP1 DUP2 PUSH2 0x14F5 SWAP2 SWAP1 PUSH2 0x318E JUMP JUMPDEST POP DUP2 PUSH2 0xFFFF AND PUSH32 0x35450A645FC8B8DCB5150AD335B4577EB182AB7E57024B8777EED53677A9FC9D DUP3 PUSH1 0x40 MLOAD PUSH2 0x152A SWAP2 SWAP1 PUSH2 0x24D3 JUMP JUMPDEST PUSH1 0x40 MLOAD DUP1 SWAP2 SUB SWAP1 LOG2 POP POP JUMP JUMPDEST PUSH2 0x153E PUSH2 0x1639 JUMP JUMPDEST PUSH0 PUSH20 0xFFFFFFFFFFFFFFFFFFFFFFFFFFFFFFFFFFFFFFFF AND DUP2 PUSH20 0xFFFFFFFFFFFFFFFFFFFFFFFFFFFFFFFFFFFFFFFF AND SUB PUSH2 0x15AE JUMPI PUSH0 PUSH1 0x40 MLOAD PUSH32 0x1E4FBDF700000000000000000000000000000000000000000000000000000000 DUP2 MSTORE PUSH1 0x4 ADD PUSH2 0x15A5 SWAP2 SWAP1 PUSH2 0x2440 JUMP JUMPDEST PUSH1 0x40 MLOAD DUP1 SWAP2 SUB SWAP1 REVERT JUMPDEST PUSH2 0x15B7 DUP2 PUSH2 0x18DA JUMP JUMPDEST POP JUMP JUMPDEST PUSH0 PUSH20 0xFFFFFFFFFFFFFFFFFFFFFFFFFFFFFFFFFFFFFFFF AND DUP3 PUSH20 0xFFFFFFFFFFFFFFFFFFFFFFFFFFFFFFFFFFFFFFFF AND SUB PUSH2 0x162A JUMPI PUSH0 PUSH1 0x40 MLOAD PUSH32 0xEC442F0500000000000000000000000000000000000000000000000000000000 DUP2 MSTORE PUSH1 0x4 ADD PUSH2 0x1621 SWAP2 SWAP1 PUSH2 0x2440 JUMP JUMPDEST PUSH1 0x40 MLOAD DUP1 SWAP2 SUB SWAP1 REVERT JUMPDEST PUSH2 0x1635 PUSH0 DUP4 DUP4 PUSH2 0x199D JUMP JUMPDEST POP POP JUMP JUMPDEST PUSH2 0x1641 PUSH2 0x16C0 JUMP JUMPDEST PUSH20 0xFFFFFFFFFFFFFFFFFFFFFFFFFFFFFFFFFFFFFFFF AND PUSH2 0x165F PUSH2 0xFC3 JUMP JUMPDEST PUSH20 0xFFFFFFFFFFFFFFFFFFFFFFFFFFFFFFFFFFFFFFFF AND EQ PUSH2 0x16BE JUMPI PUSH2 0x1682 PUSH2 0x16C0 JUMP JUMPDEST PUSH1 0x40 MLOAD PUSH32 0x118CDAA700000000000000000000000000000000000000000000000000000000 DUP2 MSTORE PUSH1 0x4 ADD PUSH2 0x16B5 SWAP2 SWAP1 PUSH2 0x2440 JUMP JUMPDEST PUSH1 0x40 MLOAD DUP1 SWAP2 SUB SWAP1 REVERT JUMPDEST JUMP JUMPDEST PUSH0 CALLER SWAP1 POP SWAP1 JUMP JUMPDEST PUSH2 0x16D4 DUP4 DUP4 DUP4 PUSH1 0x1 PUSH2 0x1BB6 JUMP JUMPDEST POP POP POP JUMP JUMPDEST PUSH0 PUSH2 0x16E4 DUP5 DUP5 PUSH2 0x131D JUMP JUMPDEST SWAP1 POP PUSH32 0xFFFFFFFFFFFFFFFFFFFFFFFFFFFFFFFFFFFFFFFFFFFFFFFFFFFFFFFFFFFFFFFF DUP2 EQ PUSH2 0x1765 JUMPI DUP2 DUP2 LT ISZERO PUSH2 0x1756 JUMPI DUP3 DUP2 DUP4 PUSH1 0x40 MLOAD PUSH32 0xFB8F41B200000000000000000000000000000000000000000000000000000000 DUP2 MSTORE PUSH1 0x4 ADD PUSH2 0x174D SWAP4 SWAP3 SWAP2 SWAP1 PUSH2 0x2D5E JUMP JUMPDEST PUSH1 0x40 MLOAD DUP1 SWAP2 SUB SWAP1 REVERT JUMPDEST PUSH2 0x1764 DUP5 DUP5 DUP5 DUP5 SUB PUSH0 PUSH2 0x1BB6 JUMP JUMPDEST JUMPDEST POP POP POP POP JUMP JUMPDEST PUSH0 PUSH20 0xFFFFFFFFFFFFFFFFFFFFFFFFFFFFFFFFFFFFFFFF AND DUP4 PUSH20 0xFFFFFFFFFFFFFFFFFFFFFFFFFFFFFFFFFFFFFFFF AND SUB PUSH2 0x17DB JUMPI PUSH0 PUSH1 0x40 MLOAD PUSH32 0x96C6FD1E00000000000000000000000000000000000000000000000000000000 DUP2 MSTORE PUSH1 0x4 ADD PUSH2 0x17D2 SWAP2 SWAP1 PUSH2 0x2440 JUMP JUMPDEST PUSH1 0x40 MLOAD DUP1 SWAP2 SUB SWAP1 REVERT JUMPDEST PUSH0 PUSH20 0xFFFFFFFFFFFFFFFFFFFFFFFFFFFFFFFFFFFFFFFF AND DUP3 PUSH20 0xFFFFFFFFFFFFFFFFFFFFFFFFFFFFFFFFFFFFFFFF AND SUB PUSH2 0x184B JUMPI PUSH0 PUSH1 0x40 MLOAD PUSH32 0xEC442F0500000000000000000000000000000000000000000000000000000000 DUP2 MSTORE PUSH1 0x4 ADD PUSH2 0x1842 SWAP2 SWAP1 PUSH2 0x2440 JUMP JUMPDEST PUSH1 0x40 MLOAD DUP1 SWAP2 SUB SWAP1 REVERT JUMPDEST PUSH2 0x1856 DUP4 DUP4 DUP4 PUSH2 0x199D JUMP JUMPDEST POP POP POP JUMP JUMPDEST PUSH0 PUSH20 0xFFFFFFFFFFFFFFFFFFFFFFFFFFFFFFFFFFFFFFFF AND DUP3 PUSH20 0xFFFFFFFFFFFFFFFFFFFFFFFFFFFFFFFFFFFFFFFF AND SUB PUSH2 0x18CB JUMPI PUSH0 PUSH1 0x40 MLOAD PUSH32 0x96C6FD1E00000000000000000000000000000000000000000000000000000000 DUP2 MSTORE PUSH1 0x4 ADD PUSH2 0x18C2 SWAP2 SWAP1 PUSH2 0x2440 JUMP JUMPDEST PUSH1 0x40 MLOAD DUP1 SWAP2 SUB SWAP1 REVERT JUMPDEST PUSH2 0x18D6 DUP3 PUSH0 DUP4 PUSH2 0x199D JUMP JUMPDEST POP POP JUMP JUMPDEST PUSH0 PUSH1 0x5 PUSH0 SWAP1 SLOAD SWAP1 PUSH2 0x100 EXP SWAP1 DIV PUSH20 0xFFFFFFFFFFFFFFFFFFFFFFFFFFFFFFFFFFFFFFFF AND SWAP1 POP DUP2 PUSH1 0x5 PUSH0 PUSH2 0x100 EXP DUP2 SLOAD DUP2 PUSH20 0xFFFFFFFFFFFFFFFFFFFFFFFFFFFFFFFFFFFFFFFF MUL NOT AND SWAP1 DUP4 PUSH20 0xFFFFFFFFFFFFFFFFFFFFFFFFFFFFFFFFFFFFFFFF AND MUL OR SWAP1 SSTORE POP DUP2 PUSH20 0xFFFFFFFFFFFFFFFFFFFFFFFFFFFFFFFFFFFFFFFF AND DUP2 PUSH20 0xFFFFFFFFFFFFFFFFFFFFFFFFFFFFFFFFFFFFFFFF AND PUSH32 0x8BE0079C531659141344CD1FD0A4F28419497F9722A3DAAFE3B4186F6B6457E0 PUSH1 0x40 MLOAD PUSH1 0x40 MLOAD DUP1 SWAP2 SUB SWAP1 LOG3 POP POP JUMP JUMPDEST PUSH0 PUSH20 0xFFFFFFFFFFFFFFFFFFFFFFFFFFFFFFFFFFFFFFFF AND DUP4 PUSH20 0xFFFFFFFFFFFFFFFFFFFFFFFFFFFFFFFFFFFFFFFF AND SUB PUSH2 0x19ED JUMPI DUP1 PUSH1 0x2 PUSH0 DUP3 DUP3 SLOAD PUSH2 0x19E1 SWAP2 SWAP1 PUSH2 0x325D JUMP JUMPDEST SWAP3 POP POP DUP2 SWAP1 SSTORE POP PUSH2 0x1ABB JUMP JUMPDEST PUSH0 DUP1 PUSH0 DUP6 PUSH20 0xFFFFFFFFFFFFFFFFFFFFFFFFFFFFFFFFFFFFFFFF AND PUSH20 0xFFFFFFFFFFFFFFFFFFFFFFFFFFFFFFFFFFFFFFFF AND DUP2 MSTORE PUSH1 0x20 ADD SWAP1 DUP2 MSTORE PUSH1 0x20 ADD PUSH0 KECCAK256 SLOAD SWAP1 POP DUP2 DUP2 LT ISZERO PUSH2 0x1A76 JUMPI DUP4 DUP2 DUP4 PUSH1 0x40 MLOAD PUSH32 0xE450D38C00000000000000000000000000000000000000000000000000000000 DUP2 MSTORE PUSH1 0x4 ADD PUSH2 0x1A6D SWAP4 SWAP3 SWAP2 SWAP1 PUSH2 0x2D5E JUMP JUMPDEST PUSH1 0x40 MLOAD DUP1 SWAP2 SUB SWAP1 REVERT JUMPDEST DUP2 DUP2 SUB PUSH0 DUP1 DUP7 PUSH20 0xFFFFFFFFFFFFFFFFFFFFFFFFFFFFFFFFFFFFFFFF AND PUSH20 0xFFFFFFFFFFFFFFFFFFFFFFFFFFFFFFFFFFFFFFFF AND DUP2 MSTORE PUSH1 0x20 ADD SWAP1 DUP2 MSTORE PUSH1 0x20 ADD PUSH0 KECCAK256 DUP2 SWAP1 SSTORE POP POP JUMPDEST PUSH0 PUSH20 0xFFFFFFFFFFFFFFFFFFFFFFFFFFFFFFFFFFFFFFFF AND DUP3 PUSH20 0xFFFFFFFFFFFFFFFFFFFFFFFFFFFFFFFFFFFFFFFF AND SUB PUSH2 0x1B02 JUMPI DUP1 PUSH1 0x2 PUSH0 DUP3 DUP3 SLOAD SUB SWAP3 POP POP DUP2 SWAP1 SSTORE POP PUSH2 0x1B4C JUMP JUMPDEST DUP1 PUSH0 DUP1 DUP5 PUSH20 0xFFFFFFFFFFFFFFFFFFFFFFFFFFFFFFFFFFFFFFFF AND PUSH20 0xFFFFFFFFFFFFFFFFFFFFFFFFFFFFFFFFFFFFFFFF AND DUP2 MSTORE PUSH1 0x20 ADD SWAP1 DUP2 MSTORE PUSH1 0x20 ADD PUSH0 KECCAK256 PUSH0 DUP3 DUP3 SLOAD ADD SWAP3 POP POP DUP2 SWAP1 SSTORE POP JUMPDEST DUP2 PUSH20 0xFFFFFFFFFFFFFFFFFFFFFFFFFFFFFFFFFFFFFFFF AND DUP4 PUSH20 0xFFFFFFFFFFFFFFFFFFFFFFFFFFFFFFFFFFFFFFFF AND PUSH32 0xDDF252AD1BE2C89B69C2B068FC378DAA952BA7F163C4A11628F55A4DF523B3EF DUP4 PUSH1 0x40 MLOAD PUSH2 0x1BA9 SWAP2 SWAP1 PUSH2 0x20F0 JUMP JUMPDEST PUSH1 0x40 MLOAD DUP1 SWAP2 SUB SWAP1 LOG3 POP POP POP JUMP JUMPDEST PUSH0 PUSH20 0xFFFFFFFFFFFFFFFFFFFFFFFFFFFFFFFFFFFFFFFF AND DUP5 PUSH20 0xFFFFFFFFFFFFFFFFFFFFFFFFFFFFFFFFFFFFFFFF AND SUB PUSH2 0x1C26 JUMPI PUSH0 PUSH1 0x40 MLOAD PUSH32 0xE602DF0500000000000000000000000000000000000000000000000000000000 DUP2 MSTORE PUSH1 0x4 ADD PUSH2 0x1C1D SWAP2 SWAP1 PUSH2 0x2440 JUMP JUMPDEST PUSH1 0x40 MLOAD DUP1 SWAP2 SUB SWAP1 REVERT JUMPDEST PUSH0 PUSH20 0xFFFFFFFFFFFFFFFFFFFFFFFFFFFFFFFFFFFFFFFF AND DUP4 PUSH20 0xFFFFFFFFFFFFFFFFFFFFFFFFFFFFFFFFFFFFFFFF AND SUB PUSH2 0x1C96 JUMPI PUSH0 PUSH1 0x40 MLOAD PUSH32 0x94280D6200000000000000000000000000000000000000000000000000000000 DUP2 MSTORE PUSH1 0x4 ADD PUSH2 0x1C8D SWAP2 SWAP1 PUSH2 0x2440 JUMP JUMPDEST PUSH1 0x40 MLOAD DUP1 SWAP2 SUB SWAP1 REVERT JUMPDEST DUP2 PUSH1 0x1 PUSH0 DUP7 PUSH20 0xFFFFFFFFFFFFFFFFFFFFFFFFFFFFFFFFFFFFFFFF AND PUSH20 0xFFFFFFFFFFFFFFFFFFFFFFFFFFFFFFFFFFFFFFFF AND DUP2 MSTORE PUSH1 0x20 ADD SWAP1 DUP2 MSTORE PUSH1 0x20 ADD PUSH0 KECCAK256 PUSH0 DUP6 PUSH20 0xFFFFFFFFFFFFFFFFFFFFFFFFFFFFFFFFFFFFFFFF AND PUSH20 0xFFFFFFFFFFFFFFFFFFFFFFFFFFFFFFFFFFFFFFFF AND DUP2 MSTORE PUSH1 0x20 ADD SWAP1 DUP2 MSTORE PUSH1 0x20 ADD PUSH0 KECCAK256 DUP2 SWAP1 SSTORE POP DUP1 ISZERO PUSH2 0x1D7F JUMPI DUP3 PUSH20 0xFFFFFFFFFFFFFFFFFFFFFFFFFFFFFFFFFFFFFFFF AND DUP5 PUSH20 0xFFFFFFFFFFFFFFFFFFFFFFFFFFFFFFFFFFFFFFFF AND PUSH32 0x8C5BE1E5EBEC7D5BD14F71427D1E84F3DD0314C0F7B2291E5B200AC8C7C3B925 DUP5 PUSH1 0x40 MLOAD PUSH2 0x1D76 SWAP2 SWAP1 PUSH2 0x20F0 JUMP JUMPDEST PUSH1 0x40 MLOAD DUP1 SWAP2 SUB SWAP1 LOG3 JUMPDEST POP POP POP POP JUMP JUMPDEST PUSH0 PUSH1 0x40 MLOAD SWAP1 POP SWAP1 JUMP JUMPDEST PUSH0 DUP1 REVERT JUMPDEST PUSH0 DUP1 REVERT JUMPDEST PUSH0 PUSH2 0xFFFF DUP3 AND SWAP1 POP SWAP2 SWAP1 POP JUMP JUMPDEST PUSH2 0x1DAC DUP2 PUSH2 0x1D96 JUMP JUMPDEST DUP2 EQ PUSH2 0x1DB6 JUMPI PUSH0 DUP1 REVERT JUMPDEST POP JUMP JUMPDEST PUSH0 DUP2 CALLDATALOAD SWAP1 POP PUSH2 0x1DC7 DUP2 PUSH2 0x1DA3 JUMP JUMPDEST SWAP3 SWAP2 POP POP JUMP JUMPDEST PUSH0 DUP1 REVERT JUMPDEST PUSH0 DUP1 REVERT JUMPDEST PUSH0 DUP1 REVERT JUMPDEST PUSH0 DUP1 DUP4 PUSH1 0x1F DUP5 ADD SLT PUSH2 0x1DEE JUMPI PUSH2 0x1DED PUSH2 0x1DCD JUMP JUMPDEST JUMPDEST DUP3 CALLDATALOAD SWAP1 POP PUSH8 0xFFFFFFFFFFFFFFFF DUP2 GT ISZERO PUSH2 0x1E0B JUMPI PUSH2 0x1E0A PUSH2 0x1DD1 JUMP JUMPDEST JUMPDEST PUSH1 0x20 DUP4 ADD SWAP2 POP DUP4 PUSH1 0x1 DUP3 MUL DUP4 ADD GT ISZERO PUSH2 0x1E27 JUMPI PUSH2 0x1E26 PUSH2 0x1DD5 JUMP JUMPDEST JUMPDEST SWAP3 POP SWAP3 SWAP1 POP JUMP JUMPDEST PUSH0 PUSH8 0xFFFFFFFFFFFFFFFF DUP3 AND SWAP1 POP SWAP2 SWAP1 POP JUMP JUMPDEST PUSH2 0x1E4A DUP2 PUSH2 0x1E2E JUMP JUMPDEST DUP2 EQ PUSH2 0x1E54 JUMPI PUSH0 DUP1 REVERT JUMPDEST POP JUMP JUMPDEST PUSH0 DUP2 CALLDATALOAD SWAP1 POP PUSH2 0x1E65 DUP2 PUSH2 0x1E41 JUMP JUMPDEST SWAP3 SWAP2 POP POP JUMP JUMPDEST PUSH0 DUP1 PUSH0 DUP1 PUSH0 DUP1 PUSH1 0x80 DUP8 DUP10 SUB SLT ISZERO PUSH2 0x1E85 JUMPI PUSH2 0x1E84 PUSH2 0x1D8E JUMP JUMPDEST JUMPDEST PUSH0 PUSH2 0x1E92 DUP10 DUP3 DUP11 ADD PUSH2 0x1DB9 JUMP JUMPDEST SWAP7 POP POP PUSH1 0x20 DUP8 ADD CALLDATALOAD PUSH8 0xFFFFFFFFFFFFFFFF DUP2 GT ISZERO PUSH2 0x1EB3 JUMPI PUSH2 0x1EB2 PUSH2 0x1D92 JUMP JUMPDEST JUMPDEST PUSH2 0x1EBF DUP10 DUP3 DUP11 ADD PUSH2 0x1DD9 JUMP JUMPDEST SWAP6 POP SWAP6 POP POP PUSH1 0x40 PUSH2 0x1ED2 DUP10 DUP3 DUP11 ADD PUSH2 0x1E57 JUMP JUMPDEST SWAP4 POP POP PUSH1 0x60 DUP8 ADD CALLDATALOAD PUSH8 0xFFFFFFFFFFFFFFFF DUP2 GT ISZERO PUSH2 0x1EF3 JUMPI PUSH2 0x1EF2 PUSH2 0x1D92 JUMP JUMPDEST JUMPDEST PUSH2 0x1EFF DUP10 DUP3 DUP11 ADD PUSH2 0x1DD9 JUMP JUMPDEST SWAP3 POP SWAP3 POP POP SWAP3 SWAP6 POP SWAP3 SWAP6 POP SWAP3 SWAP6 JUMP JUMPDEST PUSH0 DUP2 MLOAD SWAP1 POP SWAP2 SWAP1 POP JUMP JUMPDEST PUSH0 DUP3 DUP3 MSTORE PUSH1 0x20 DUP3 ADD SWAP1 POP SWAP3 SWAP2 POP POP JUMP JUMPDEST PUSH0 JUMPDEST DUP4 DUP2 LT ISZERO PUSH2 0x1F45 JUMPI DUP1 DUP3 ADD MLOAD DUP2 DUP5 ADD MSTORE PUSH1 0x20 DUP2 ADD SWAP1 POP PUSH2 0x1F2A JUMP JUMPDEST PUSH0 DUP5 DUP5 ADD MSTORE POP POP POP POP JUMP JUMPDEST PUSH0 PUSH1 0x1F NOT PUSH1 0x1F DUP4 ADD AND SWAP1 POP SWAP2 SWAP1 POP JUMP JUMPDEST PUSH0 PUSH2 0x1F6A DUP3 PUSH2 0x1F0E JUMP JUMPDEST PUSH2 0x1F74 DUP2 DUP6 PUSH2 0x1F18 JUMP JUMPDEST SWAP4 POP PUSH2 0x1F84 DUP2 DUP6 PUSH1 0x20 DUP7 ADD PUSH2 0x1F28 JUMP JUMPDEST PUSH2 0x1F8D DUP2 PUSH2 0x1F50 JUMP JUMPDEST DUP5 ADD SWAP2 POP POP SWAP3 SWAP2 POP POP JUMP JUMPDEST PUSH0 PUSH1 0x20 DUP3 ADD SWAP1 POP DUP2 DUP2 SUB PUSH0 DUP4 ADD MSTORE PUSH2 0x1FB0 DUP2 DUP5 PUSH2 0x1F60 JUMP JUMPDEST SWAP1 POP SWAP3 SWAP2 POP POP JUMP JUMPDEST PUSH0 PUSH1 0x20 DUP3 DUP5 SUB SLT ISZERO PUSH2 0x1FCD JUMPI PUSH2 0x1FCC PUSH2 0x1D8E JUMP JUMPDEST JUMPDEST PUSH0 PUSH2 0x1FDA DUP5 DUP3 DUP6 ADD PUSH2 0x1DB9 JUMP JUMPDEST SWAP2 POP POP SWAP3 SWAP2 POP POP JUMP JUMPDEST PUSH0 PUSH20 0xFFFFFFFFFFFFFFFFFFFFFFFFFFFFFFFFFFFFFFFF DUP3 AND SWAP1 POP SWAP2 SWAP1 POP JUMP JUMPDEST PUSH0 PUSH2 0x200C DUP3 PUSH2 0x1FE3 JUMP JUMPDEST SWAP1 POP SWAP2 SWAP1 POP JUMP JUMPDEST PUSH2 0x201C DUP2 PUSH2 0x2002 JUMP JUMPDEST DUP2 EQ PUSH2 0x2026 JUMPI PUSH0 DUP1 REVERT JUMPDEST POP JUMP JUMPDEST PUSH0 DUP2 CALLDATALOAD SWAP1 POP PUSH2 0x2037 DUP2 PUSH2 0x2013 JUMP JUMPDEST SWAP3 SWAP2 POP POP JUMP JUMPDEST PUSH0 DUP2 SWAP1 POP SWAP2 SWAP1 POP JUMP JUMPDEST PUSH2 0x204F DUP2 PUSH2 0x203D JUMP JUMPDEST DUP2 EQ PUSH2 0x2059 JUMPI PUSH0 DUP1 REVERT JUMPDEST POP JUMP JUMPDEST PUSH0 DUP2 CALLDATALOAD SWAP1 POP PUSH2 0x206A DUP2 PUSH2 0x2046 JUMP JUMPDEST SWAP3 SWAP2 POP POP JUMP JUMPDEST PUSH0 DUP1 PUSH1 0x40 DUP4 DUP6 SUB SLT ISZERO PUSH2 0x2086 JUMPI PUSH2 0x2085 PUSH2 0x1D8E JUMP JUMPDEST JUMPDEST PUSH0 PUSH2 0x2093 DUP6 DUP3 DUP7 ADD PUSH2 0x2029 JUMP JUMPDEST SWAP3 POP POP PUSH1 0x20 PUSH2 0x20A4 DUP6 DUP3 DUP7 ADD PUSH2 0x205C JUMP JUMPDEST SWAP2 POP POP SWAP3 POP SWAP3 SWAP1 POP JUMP JUMPDEST PUSH0 DUP2 ISZERO ISZERO SWAP1 POP SWAP2 SWAP1 POP JUMP JUMPDEST PUSH2 0x20C2 DUP2 PUSH2 0x20AE JUMP JUMPDEST DUP3 MSTORE POP POP JUMP JUMPDEST PUSH0 PUSH1 0x20 DUP3 ADD SWAP1 POP PUSH2 0x20DB PUSH0 DUP4 ADD DUP5 PUSH2 0x20B9 JUMP JUMPDEST SWAP3 SWAP2 POP POP JUMP JUMPDEST PUSH2 0x20EA DUP2 PUSH2 0x203D JUMP JUMPDEST DUP3 MSTORE POP POP JUMP JUMPDEST PUSH0 PUSH1 0x20 DUP3 ADD SWAP1 POP PUSH2 0x2103 PUSH0 DUP4 ADD DUP5 PUSH2 0x20E1 JUMP JUMPDEST SWAP3 SWAP2 POP POP JUMP JUMPDEST PUSH0 DUP1 PUSH0 PUSH1 0x60 DUP5 DUP7 SUB SLT ISZERO PUSH2 0x2120 JUMPI PUSH2 0x211F PUSH2 0x1D8E JUMP JUMPDEST JUMPDEST PUSH0 PUSH2 0x212D DUP7 DUP3 DUP8 ADD PUSH2 0x2029 JUMP JUMPDEST SWAP4 POP POP PUSH1 0x20 PUSH2 0x213E DUP7 DUP3 DUP8 ADD PUSH2 0x2029 JUMP JUMPDEST SWAP3 POP POP PUSH1 0x40 PUSH2 0x214F DUP7 DUP3 DUP8 ADD PUSH2 0x205C JUMP JUMPDEST SWAP2 POP POP SWAP3 POP SWAP3 POP SWAP3 JUMP JUMPDEST PUSH0 PUSH1 0xFF DUP3 AND SWAP1 POP SWAP2 SWAP1 POP JUMP JUMPDEST PUSH2 0x216E DUP2 PUSH2 0x2159 JUMP JUMPDEST DUP3 MSTORE POP POP JUMP JUMPDEST PUSH0 PUSH1 0x20 DUP3 ADD SWAP1 POP PUSH2 0x2187 PUSH0 DUP4 ADD DUP5 PUSH2 0x2165 JUMP JUMPDEST SWAP3 SWAP2 POP POP JUMP JUMPDEST PUSH0 DUP1 PUSH0 PUSH1 0x40 DUP5 DUP7 SUB SLT ISZERO PUSH2 0x21A4 JUMPI PUSH2 0x21A3 PUSH2 0x1D8E JUMP JUMPDEST JUMPDEST PUSH0 PUSH2 0x21B1 DUP7 DUP3 DUP8 ADD PUSH2 0x1DB9 JUMP JUMPDEST SWAP4 POP POP PUSH1 0x20 DUP5 ADD CALLDATALOAD PUSH8 0xFFFFFFFFFFFFFFFF DUP2 GT ISZERO PUSH2 0x21D2 JUMPI PUSH2 0x21D1 PUSH2 0x1D92 JUMP JUMPDEST JUMPDEST PUSH2 0x21DE DUP7 DUP3 DUP8 ADD PUSH2 0x1DD9 JUMP JUMPDEST SWAP3 POP SWAP3 POP POP SWAP3 POP SWAP3 POP SWAP3 JUMP JUMPDEST PUSH0 DUP2 SWAP1 POP SWAP2 SWAP1 POP JUMP JUMPDEST PUSH0 PUSH2 0x220D PUSH2 0x2208 PUSH2 0x2203 DUP5 PUSH2 0x1FE3 JUMP JUMPDEST PUSH2 0x21EA JUMP JUMPDEST PUSH2 0x1FE3 JUMP JUMPDEST SWAP1 POP SWAP2 SWAP1 POP JUMP JUMPDEST PUSH0 PUSH2 0x221E DUP3 PUSH2 0x21F3 JUMP JUMPDEST SWAP1 POP SWAP2 SWAP1 POP JUMP JUMPDEST PUSH0 PUSH2 0x222F DUP3 PUSH2 0x2214 JUMP JUMPDEST SWAP1 POP SWAP2 SWAP1 POP JUMP JUMPDEST PUSH2 0x223F DUP2 PUSH2 0x2225 JUMP JUMPDEST DUP3 MSTORE POP POP JUMP JUMPDEST PUSH0 PUSH1 0x20 DUP3 ADD SWAP1 POP PUSH2 0x2258 PUSH0 DUP4 ADD DUP5 PUSH2 0x2236 JUMP JUMPDEST SWAP3 SWAP2 POP POP JUMP JUMPDEST PUSH0 DUP1 REVERT JUMPDEST PUSH32 0x4E487B7100000000000000000000000000000000000000000000000000000000 PUSH0 MSTORE PUSH1 0x41 PUSH1 0x4 MSTORE PUSH1 0x24 PUSH0 REVERT JUMPDEST PUSH2 0x2298 DUP3 PUSH2 0x1F50 JUMP JUMPDEST DUP2 ADD DUP2 DUP2 LT PUSH8 0xFFFFFFFFFFFFFFFF DUP3 GT OR ISZERO PUSH2 0x22B7 JUMPI PUSH2 0x22B6 PUSH2 0x2262 JUMP JUMPDEST JUMPDEST DUP1 PUSH1 0x40 MSTORE POP POP POP JUMP JUMPDEST PUSH0 PUSH2 0x22C9 PUSH2 0x1D85 JUMP JUMPDEST SWAP1 POP PUSH2 0x22D5 DUP3 DUP3 PUSH2 0x228F JUMP JUMPDEST SWAP2 SWAP1 POP JUMP JUMPDEST PUSH0 PUSH8 0xFFFFFFFFFFFFFFFF DUP3 GT ISZERO PUSH2 0x22F4 JUMPI PUSH2 0x22F3 PUSH2 0x2262 JUMP JUMPDEST JUMPDEST PUSH2 0x22FD DUP3 PUSH2 0x1F50 JUMP JUMPDEST SWAP1 POP PUSH1 0x20 DUP2 ADD SWAP1 POP SWAP2 SWAP1 POP JUMP JUMPDEST DUP3 DUP2 DUP4 CALLDATACOPY PUSH0 DUP4 DUP4 ADD MSTORE POP POP POP JUMP JUMPDEST PUSH0 PUSH2 0x232A PUSH2 0x2325 DUP5 PUSH2 0x22DA JUMP JUMPDEST PUSH2 0x22C0 JUMP JUMPDEST SWAP1 POP DUP3 DUP2 MSTORE PUSH1 0x20 DUP2 ADD DUP5 DUP5 DUP5 ADD GT ISZERO PUSH2 0x2346 JUMPI PUSH2 0x2345 PUSH2 0x225E JUMP JUMPDEST JUMPDEST PUSH2 0x2351 DUP5 DUP3 DUP6 PUSH2 0x230A JUMP JUMPDEST POP SWAP4 SWAP3 POP POP POP JUMP JUMPDEST PUSH0 DUP3 PUSH1 0x1F DUP4 ADD SLT PUSH2 0x236D JUMPI PUSH2 0x236C PUSH2 0x1DCD JUMP JUMPDEST JUMPDEST DUP2 CALLDATALOAD PUSH2 0x237D DUP5 DUP3 PUSH1 0x20 DUP7 ADD PUSH2 0x2318 JUMP JUMPDEST SWAP2 POP POP SWAP3 SWAP2 POP POP JUMP JUMPDEST PUSH0 DUP1 PUSH0 DUP1 PUSH1 0x80 DUP6 DUP8 SUB SLT ISZERO PUSH2 0x239E JUMPI PUSH2 0x239D PUSH2 0x1D8E JUMP JUMPDEST JUMPDEST PUSH0 PUSH2 0x23AB DUP8 DUP3 DUP9 ADD PUSH2 0x2029 JUMP JUMPDEST SWAP5 POP POP PUSH1 0x20 PUSH2 0x23BC DUP8 DUP3 DUP9 ADD PUSH2 0x205C JUMP JUMPDEST SWAP4 POP POP PUSH1 0x40 PUSH2 0x23CD DUP8 DUP3 DUP9 ADD PUSH2 0x1DB9 JUMP JUMPDEST SWAP3 POP POP PUSH1 0x60 DUP6 ADD CALLDATALOAD PUSH8 0xFFFFFFFFFFFFFFFF DUP2 GT ISZERO PUSH2 0x23EE JUMPI PUSH2 0x23ED PUSH2 0x1D92 JUMP JUMPDEST JUMPDEST PUSH2 0x23FA DUP8 DUP3 DUP9 ADD PUSH2 0x2359 JUMP JUMPDEST SWAP2 POP POP SWAP3 SWAP6 SWAP2 SWAP5 POP SWAP3 POP JUMP JUMPDEST PUSH0 PUSH1 0x20 DUP3 DUP5 SUB SLT ISZERO PUSH2 0x241B JUMPI PUSH2 0x241A PUSH2 0x1D8E JUMP JUMPDEST JUMPDEST PUSH0 PUSH2 0x2428 DUP5 DUP3 DUP6 ADD PUSH2 0x2029 JUMP JUMPDEST SWAP2 POP POP SWAP3 SWAP2 POP POP JUMP JUMPDEST PUSH2 0x243A DUP2 PUSH2 0x2002 JUMP JUMPDEST DUP3 MSTORE POP POP JUMP JUMPDEST PUSH0 PUSH1 0x20 DUP3 ADD SWAP1 POP PUSH2 0x2453 PUSH0 DUP4 ADD DUP5 PUSH2 0x2431 JUMP JUMPDEST SWAP3 SWAP2 POP POP JUMP JUMPDEST PUSH2 0x2462 DUP2 PUSH2 0x1D96 JUMP JUMPDEST DUP3 MSTORE POP POP JUMP JUMPDEST PUSH0 PUSH1 0x20 DUP3 ADD SWAP1 POP PUSH2 0x247B PUSH0 DUP4 ADD DUP5 PUSH2 0x2459 JUMP JUMPDEST SWAP3 SWAP2 POP POP JUMP JUMPDEST PUSH0 DUP2 MLOAD SWAP1 POP SWAP2 SWAP1 POP JUMP JUMPDEST PUSH0 DUP3 DUP3 MSTORE PUSH1 0x20 DUP3 ADD SWAP1 POP SWAP3 SWAP2 POP POP JUMP JUMPDEST PUSH0 PUSH2 0x24A5 DUP3 PUSH2 0x2481 JUMP JUMPDEST PUSH2 0x24AF DUP2 DUP6 PUSH2 0x248B JUMP JUMPDEST SWAP4 POP PUSH2 0x24BF DUP2 DUP6 PUSH1 0x20 DUP7 ADD PUSH2 0x1F28 JUMP JUMPDEST PUSH2 0x24C8 DUP2 PUSH2 0x1F50 JUMP JUMPDEST DUP5 ADD SWAP2 POP POP SWAP3 SWAP2 POP POP JUMP JUMPDEST PUSH0 PUSH1 0x20 DUP3 ADD SWAP1 POP DUP2 DUP2 SUB PUSH0 DUP4 ADD MSTORE PUSH2 0x24EB DUP2 DUP5 PUSH2 0x249B JUMP JUMPDEST SWAP1 POP SWAP3 SWAP2 POP POP JUMP JUMPDEST PUSH0 DUP1 PUSH0 DUP1 PUSH0 PUSH1 0x80 DUP7 DUP9 SUB SLT ISZERO PUSH2 0x250C JUMPI PUSH2 0x250B PUSH2 0x1D8E JUMP JUMPDEST JUMPDEST PUSH0 PUSH2 0x2519 DUP9 DUP3 DUP10 ADD PUSH2 0x1DB9 JUMP JUMPDEST SWAP6 POP POP PUSH1 0x20 PUSH2 0x252A DUP9 DUP3 DUP10 ADD PUSH2 0x1DB9 JUMP JUMPDEST SWAP5 POP POP PUSH1 0x40 PUSH2 0x253B DUP9 DUP3 DUP10 ADD PUSH2 0x205C JUMP JUMPDEST SWAP4 POP POP PUSH1 0x60 DUP7 ADD CALLDATALOAD PUSH8 0xFFFFFFFFFFFFFFFF DUP2 GT ISZERO PUSH2 0x255C JUMPI PUSH2 0x255B PUSH2 0x1D92 JUMP JUMPDEST JUMPDEST PUSH2 0x2568 DUP9 DUP3 DUP10 ADD PUSH2 0x1DD9 JUMP JUMPDEST SWAP3 POP SWAP3 POP POP SWAP3 SWAP6 POP SWAP3 SWAP6 SWAP1 SWAP4 POP JUMP JUMPDEST PUSH0 PUSH1 0x20 DUP3 DUP5 SUB SLT ISZERO PUSH2 0x258C JUMPI PUSH2 0x258B PUSH2 0x1D8E JUMP JUMPDEST JUMPDEST PUSH0 PUSH2 0x2599 DUP5 DUP3 DUP6 ADD PUSH2 0x205C JUMP JUMPDEST SWAP2 POP POP SWAP3 SWAP2 POP POP JUMP JUMPDEST PUSH0 DUP1 PUSH1 0x40 DUP4 DUP6 SUB SLT ISZERO PUSH2 0x25B8 JUMPI PUSH2 0x25B7 PUSH2 0x1D8E JUMP JUMPDEST JUMPDEST PUSH0 PUSH2 0x25C5 DUP6 DUP3 DUP7 ADD PUSH2 0x2029 JUMP JUMPDEST SWAP3 POP POP PUSH1 0x20 PUSH2 0x25D6 DUP6 DUP3 DUP7 ADD PUSH2 0x2029 JUMP JUMPDEST SWAP2 POP POP SWAP3 POP SWAP3 SWAP1 POP JUMP JUMPDEST PUSH0 DUP1 PUSH0 PUSH1 0x60 DUP5 DUP7 SUB SLT ISZERO PUSH2 0x25F7 JUMPI PUSH2 0x25F6 PUSH2 0x1D8E JUMP JUMPDEST JUMPDEST PUSH0 DUP5 ADD CALLDATALOAD PUSH8 0xFFFFFFFFFFFFFFFF DUP2 GT ISZERO PUSH2 0x2614 JUMPI PUSH2 0x2613 PUSH2 0x1D92 JUMP JUMPDEST JUMPDEST PUSH2 0x2620 DUP7 DUP3 DUP8 ADD PUSH2 0x2359 JUMP JUMPDEST SWAP4 POP POP PUSH1 0x20 PUSH2 0x2631 DUP7 DUP3 DUP8 ADD PUSH2 0x1DB9 JUMP JUMPDEST SWAP3 POP POP PUSH1 0x40 PUSH2 0x2642 DUP7 DUP3 DUP8 ADD PUSH2 0x1E57 JUMP JUMPDEST SWAP2 POP POP SWAP3 POP SWAP3 POP SWAP3 JUMP JUMPDEST PUSH0 DUP1 PUSH1 0x40 DUP4 DUP6 SUB SLT ISZERO PUSH2 0x2662 JUMPI PUSH2 0x2661 PUSH2 0x1D8E JUMP JUMPDEST JUMPDEST PUSH0 PUSH2 0x266F DUP6 DUP3 DUP7 ADD PUSH2 0x1DB9 JUMP JUMPDEST SWAP3 POP POP PUSH1 0x20 DUP4 ADD CALLDATALOAD PUSH8 0xFFFFFFFFFFFFFFFF DUP2 GT ISZERO PUSH2 0x2690 JUMPI PUSH2 0x268F PUSH2 0x1D92 JUMP JUMPDEST JUMPDEST PUSH2 0x269C DUP6 DUP3 DUP7 ADD PUSH2 0x2359 JUMP JUMPDEST SWAP2 POP POP SWAP3 POP SWAP3 SWAP1 POP JUMP JUMPDEST PUSH32 0x777261707065722F63616C6C65722D6E6F742D656E64706F696E740000000000 PUSH0 DUP3 ADD MSTORE POP JUMP JUMPDEST PUSH0 PUSH2 0x26DA PUSH1 0x1B DUP4 PUSH2 0x1F18 JUMP JUMPDEST SWAP2 POP PUSH2 0x26E5 DUP3 PUSH2 0x26A6 JUMP JUMPDEST PUSH1 0x20 DUP3 ADD SWAP1 POP SWAP2 SWAP1 POP JUMP JUMPDEST PUSH0 PUSH1 0x20 DUP3 ADD SWAP1 POP DUP2 DUP2 SUB PUSH0 DUP4 ADD MSTORE PUSH2 0x2707 DUP2 PUSH2 0x26CE JUMP JUMPDEST SWAP1 POP SWAP2 SWAP1 POP JUMP JUMPDEST PUSH32 0x4E487B7100000000000000000000000000000000000000000000000000000000 PUSH0 MSTORE PUSH1 0x22 PUSH1 0x4 MSTORE PUSH1 0x24 PUSH0 REVERT JUMPDEST PUSH0 PUSH1 0x2 DUP3 DIV SWAP1 POP PUSH1 0x1 DUP3 AND DUP1 PUSH2 0x2752 JUMPI PUSH1 0x7F DUP3 AND SWAP2 POP JUMPDEST PUSH1 0x20 DUP3 LT DUP2 SUB PUSH2 0x2765 JUMPI PUSH2 0x2764 PUSH2 0x270E JUMP JUMPDEST JUMPDEST POP SWAP2 SWAP1 POP JUMP JUMPDEST PUSH32 0x777261707065722F696E76616C69642D7372632D73656E6465722D6C656E6774 PUSH0 DUP3 ADD MSTORE PUSH32 0x6800000000000000000000000000000000000000000000000000000000000000 PUSH1 0x20 DUP3 ADD MSTORE POP JUMP JUMPDEST PUSH0 PUSH2 0x27C5 PUSH1 0x21 DUP4 PUSH2 0x1F18 JUMP JUMPDEST SWAP2 POP PUSH2 0x27D0 DUP3 PUSH2 0x276B JUMP JUMPDEST PUSH1 0x40 DUP3 ADD SWAP1 POP SWAP2 SWAP1 POP JUMP JUMPDEST PUSH0 PUSH1 0x20 DUP3 ADD SWAP1 POP DUP2 DUP2 SUB PUSH0 DUP4 ADD MSTORE PUSH2 0x27F2 DUP2 PUSH2 0x27B9 JUMP JUMPDEST SWAP1 POP SWAP2 SWAP1 POP JUMP JUMPDEST PUSH0 DUP2 SWAP1 POP SWAP3 SWAP2 POP POP JUMP JUMPDEST PUSH0 DUP2 SWAP1 POP DUP2 PUSH0 MSTORE PUSH1 0x20 PUSH0 KECCAK256 SWAP1 POP SWAP2 SWAP1 POP JUMP JUMPDEST PUSH0 DUP2 SLOAD PUSH2 0x2821 DUP2 PUSH2 0x273B JUMP JUMPDEST PUSH2 0x282B DUP2 DUP7 PUSH2 0x27F9 JUMP JUMPDEST SWAP5 POP PUSH1 0x1 DUP3 AND PUSH0 DUP2 EQ PUSH2 0x2845 JUMPI PUSH1 0x1 DUP2 EQ PUSH2 0x285A JUMPI PUSH2 0x288C JUMP JUMPDEST PUSH1 0xFF NOT DUP4 AND DUP7 MSTORE DUP2 ISZERO ISZERO DUP3 MUL DUP7 ADD SWAP4 POP PUSH2 0x288C JUMP JUMPDEST PUSH2 0x2863 DUP6 PUSH2 0x2803 JUMP JUMPDEST PUSH0 JUMPDEST DUP4 DUP2 LT ISZERO PUSH2 0x2884 JUMPI DUP2 SLOAD DUP2 DUP10 ADD MSTORE PUSH1 0x1 DUP3 ADD SWAP2 POP PUSH1 0x20 DUP2 ADD SWAP1 POP PUSH2 0x2865 JUMP JUMPDEST DUP4 DUP9 ADD SWAP6 POP POP POP JUMPDEST POP POP POP SWAP3 SWAP2 POP POP JUMP JUMPDEST PUSH0 PUSH2 0x28A0 DUP3 DUP5 PUSH2 0x2815 JUMP JUMPDEST SWAP2 POP DUP2 SWAP1 POP SWAP3 SWAP2 POP POP JUMP JUMPDEST PUSH0 PUSH2 0x28B6 DUP4 DUP6 PUSH2 0x27F9 JUMP JUMPDEST SWAP4 POP PUSH2 0x28C3 DUP4 DUP6 DUP5 PUSH2 0x230A JUMP JUMPDEST DUP3 DUP5 ADD SWAP1 POP SWAP4 SWAP3 POP POP POP JUMP JUMPDEST PUSH0 PUSH2 0x28DB DUP3 DUP5 DUP7 PUSH2 0x28AB JUMP JUMPDEST SWAP2 POP DUP2 SWAP1 POP SWAP4 SWAP3 POP POP POP JUMP JUMPDEST PUSH32 0x777261707065722F696E76616C69642D7372632D73656E646572000000000000 PUSH0 DUP3 ADD MSTORE POP JUMP JUMPDEST PUSH0 PUSH2 0x291B PUSH1 0x1A DUP4 PUSH2 0x1F18 JUMP JUMPDEST SWAP2 POP PUSH2 0x2926 DUP3 PUSH2 0x28E7 JUMP JUMPDEST PUSH1 0x20 DUP3 ADD SWAP1 POP SWAP2 SWAP1 POP JUMP JUMPDEST PUSH0 PUSH1 0x20 DUP3 ADD SWAP1 POP DUP2 DUP2 SUB PUSH0 DUP4 ADD MSTORE PUSH2 0x2948 DUP2 PUSH2 0x290F JUMP JUMPDEST SWAP1 POP SWAP2 SWAP1 POP JUMP JUMPDEST PUSH32 0x777261707065722F696E76616C69642D6E6F6E63650000000000000000000000 PUSH0 DUP3 ADD MSTORE POP JUMP JUMPDEST PUSH0 PUSH2 0x2983 PUSH1 0x15 DUP4 PUSH2 0x1F18 JUMP JUMPDEST SWAP2 POP PUSH2 0x298E DUP3 PUSH2 0x294F JUMP JUMPDEST PUSH1 0x20 DUP3 ADD SWAP1 POP SWAP2 SWAP1 POP JUMP JUMPDEST PUSH0 PUSH1 0x20 DUP3 ADD SWAP1 POP DUP2 DUP2 SUB PUSH0 DUP4 ADD MSTORE PUSH2 0x29B0 DUP2 PUSH2 0x2977 JUMP JUMPDEST SWAP1 POP SWAP2 SWAP1 POP JUMP JUMPDEST PUSH0 PUSH2 0x29C1 DUP3 PUSH2 0x1FE3 JUMP JUMPDEST SWAP1 POP SWAP2 SWAP1 POP JUMP JUMPDEST PUSH2 0x29D1 DUP2 PUSH2 0x29B7 JUMP JUMPDEST DUP2 EQ PUSH2 0x29DB JUMPI PUSH0 DUP1 REVERT JUMPDEST POP JUMP JUMPDEST PUSH0 DUP2 CALLDATALOAD SWAP1 POP PUSH2 0x29EC DUP2 PUSH2 0x29C8 JUMP JUMPDEST SWAP3 SWAP2 POP POP JUMP JUMPDEST PUSH0 DUP1 PUSH0 PUSH1 0x60 DUP5 DUP7 SUB SLT ISZERO PUSH2 0x2A09 JUMPI PUSH2 0x2A08 PUSH2 0x1D8E JUMP JUMPDEST JUMPDEST PUSH0 PUSH2 0x2A16 DUP7 DUP3 DUP8 ADD PUSH2 0x29DE JUMP JUMPDEST SWAP4 POP POP PUSH1 0x20 PUSH2 0x2A27 DUP7 DUP3 DUP8 ADD PUSH2 0x205C JUMP JUMPDEST SWAP3 POP POP PUSH1 0x40 PUSH2 0x2A38 DUP7 DUP3 DUP8 ADD PUSH2 0x205C JUMP JUMPDEST SWAP2 POP POP SWAP3 POP SWAP3 POP SWAP3 JUMP JUMPDEST PUSH0 PUSH1 0x80 DUP3 ADD SWAP1 POP PUSH2 0x2A55 PUSH0 DUP4 ADD DUP8 PUSH2 0x2459 JUMP JUMPDEST PUSH2 0x2A62 PUSH1 0x20 DUP4 ADD DUP7 PUSH2 0x2459 JUMP JUMPDEST PUSH2 0x2A6F PUSH1 0x40 DUP4 ADD DUP6 PUSH2 0x20E1 JUMP JUMPDEST PUSH2 0x2A7C PUSH1 0x60 DUP4 ADD DUP5 PUSH2 0x20E1 JUMP JUMPDEST SWAP6 SWAP5 POP POP POP POP POP JUMP JUMPDEST PUSH0 PUSH2 0x2A90 DUP4 DUP6 PUSH2 0x248B JUMP JUMPDEST SWAP4 POP PUSH2 0x2A9D DUP4 DUP6 DUP5 PUSH2 0x230A JUMP JUMPDEST PUSH2 0x2AA6 DUP4 PUSH2 0x1F50 JUMP JUMPDEST DUP5 ADD SWAP1 POP SWAP4 SWAP3 POP POP POP JUMP JUMPDEST PUSH0 PUSH1 0x40 DUP3 ADD SWAP1 POP PUSH2 0x2AC4 PUSH0 DUP4 ADD DUP7 PUSH2 0x2459 JUMP JUMPDEST DUP2 DUP2 SUB PUSH1 0x20 DUP4 ADD MSTORE PUSH2 0x2AD7 DUP2 DUP5 DUP7 PUSH2 0x2A85 JUMP JUMPDEST SWAP1 POP SWAP5 SWAP4 POP POP POP POP JUMP JUMPDEST PUSH32 0x6272696467652F696E76616C69642D6473742D636861696E2D69640000000000 PUSH0 DUP3 ADD MSTORE POP JUMP JUMPDEST PUSH0 PUSH2 0x2B15 PUSH1 0x1B DUP4 PUSH2 0x1F18 JUMP JUMPDEST SWAP2 POP PUSH2 0x2B20 DUP3 PUSH2 0x2AE1 JUMP JUMPDEST PUSH1 0x20 DUP3 ADD SWAP1 POP SWAP2 SWAP1 POP JUMP JUMPDEST PUSH0 PUSH1 0x20 DUP3 ADD SWAP1 POP DUP2 DUP2 SUB PUSH0 DUP4 ADD MSTORE PUSH2 0x2B42 DUP2 PUSH2 0x2B09 JUMP JUMPDEST SWAP1 POP SWAP2 SWAP1 POP JUMP JUMPDEST PUSH32 0x777261707065722F696E73756666696369656E742D62616C616E636500000000 PUSH0 DUP3 ADD MSTORE POP JUMP JUMPDEST PUSH0 PUSH2 0x2B7D PUSH1 0x1C DUP4 PUSH2 0x1F18 JUMP JUMPDEST SWAP2 POP PUSH2 0x2B88 DUP3 PUSH2 0x2B49 JUMP JUMPDEST PUSH1 0x20 DUP3 ADD SWAP1 POP SWAP2 SWAP1 POP JUMP JUMPDEST PUSH0 PUSH1 0x20 DUP3 ADD SWAP1 POP DUP2 DUP2 SUB PUSH0 DUP4 ADD MSTORE PUSH2 0x2BAA DUP2 PUSH2 0x2B71 JUMP JUMPDEST SWAP1 POP SWAP2 SWAP1 POP JUMP JUMPDEST PUSH32 0x4E487B7100000000000000000000000000000000000000000000000000000000 PUSH0 MSTORE PUSH1 0x11 PUSH1 0x4 MSTORE PUSH1 0x24 PUSH0 REVERT JUMPDEST PUSH0 PUSH2 0x2BE8 DUP3 PUSH2 0x203D JUMP JUMPDEST SWAP2 POP PUSH2 0x2BF3 DUP4 PUSH2 0x203D JUMP JUMPDEST SWAP3 POP DUP3 DUP3 SUB SWAP1 POP DUP2 DUP2 GT ISZERO PUSH2 0x2C0B JUMPI PUSH2 0x2C0A PUSH2 0x2BB1 JUMP JUMPDEST JUMPDEST SWAP3 SWAP2 POP POP JUMP JUMPDEST PUSH32 0x777261707065722F6275726E2D6661696C656400000000000000000000000000 PUSH0 DUP3 ADD MSTORE POP JUMP JUMPDEST PUSH0 PUSH2 0x2C45 PUSH1 0x13 DUP4 PUSH2 0x1F18 JUMP JUMPDEST SWAP2 POP PUSH2 0x2C50 DUP3 PUSH2 0x2C11 JUMP JUMPDEST PUSH1 0x20 DUP3 ADD SWAP1 POP SWAP2 SWAP1 POP JUMP JUMPDEST PUSH0 PUSH1 0x20 DUP3 ADD SWAP1 POP DUP2 DUP2 SUB PUSH0 DUP4 ADD MSTORE PUSH2 0x2C72 DUP2 PUSH2 0x2C39 JUMP JUMPDEST SWAP1 POP SWAP2 SWAP1 POP JUMP JUMPDEST PUSH0 PUSH2 0x2C83 DUP3 PUSH2 0x203D JUMP JUMPDEST SWAP2 POP PUSH2 0x2C8E DUP4 PUSH2 0x203D JUMP JUMPDEST SWAP3 POP DUP3 DUP3 MUL PUSH2 0x2C9C DUP2 PUSH2 0x203D JUMP JUMPDEST SWAP2 POP DUP3 DUP3 DIV DUP5 EQ DUP4 ISZERO OR PUSH2 0x2CB3 JUMPI PUSH2 0x2CB2 PUSH2 0x2BB1 JUMP JUMPDEST JUMPDEST POP SWAP3 SWAP2 POP POP JUMP JUMPDEST PUSH32 0x4E487B7100000000000000000000000000000000000000000000000000000000 PUSH0 MSTORE PUSH1 0x12 PUSH1 0x4 MSTORE PUSH1 0x24 PUSH0 REVERT JUMPDEST PUSH0 PUSH2 0x2CF1 DUP3 PUSH2 0x203D JUMP JUMPDEST SWAP2 POP PUSH2 0x2CFC DUP4 PUSH2 0x203D JUMP JUMPDEST SWAP3 POP DUP3 PUSH2 0x2D0C JUMPI PUSH2 0x2D0B PUSH2 0x2CBA JUMP JUMPDEST JUMPDEST DUP3 DUP3 DIV SWAP1 POP SWAP3 SWAP2 POP POP JUMP JUMPDEST PUSH0 PUSH2 0x2D21 DUP3 PUSH2 0x203D JUMP JUMPDEST SWAP2 POP PUSH32 0xFFFFFFFFFFFFFFFFFFFFFFFFFFFFFFFFFFFFFFFFFFFFFFFFFFFFFFFFFFFFFFFF DUP3 SUB PUSH2 0x2D53 JUMPI PUSH2 0x2D52 PUSH2 0x2BB1 JUMP JUMPDEST JUMPDEST PUSH1 0x1 DUP3 ADD SWAP1 POP SWAP2 SWAP1 POP JUMP JUMPDEST PUSH0 PUSH1 0x60 DUP3 ADD SWAP1 POP PUSH2 0x2D71 PUSH0 DUP4 ADD DUP7 PUSH2 0x2431 JUMP JUMPDEST PUSH2 0x2D7E PUSH1 0x20 DUP4 ADD DUP6 PUSH2 0x20E1 JUMP JUMPDEST PUSH2 0x2D8B PUSH1 0x40 DUP4 ADD DUP5 PUSH2 0x20E1 JUMP JUMPDEST SWAP5 SWAP4 POP POP POP POP JUMP JUMPDEST PUSH0 DUP2 SLOAD PUSH2 0x2D9F DUP2 PUSH2 0x273B JUMP JUMPDEST PUSH2 0x2DA9 DUP2 DUP7 PUSH2 0x248B JUMP JUMPDEST SWAP5 POP PUSH1 0x1 DUP3 AND PUSH0 DUP2 EQ PUSH2 0x2DC3 JUMPI PUSH1 0x1 DUP2 EQ PUSH2 0x2DD9 JUMPI PUSH2 0x2E0B JUMP JUMPDEST PUSH1 0xFF NOT DUP4 AND DUP7 MSTORE DUP2 ISZERO ISZERO PUSH1 0x20 MUL DUP7 ADD SWAP4 POP PUSH2 0x2E0B JUMP JUMPDEST PUSH2 0x2DE2 DUP6 PUSH2 0x2803 JUMP JUMPDEST PUSH0 JUMPDEST DUP4 DUP2 LT ISZERO PUSH2 0x2E03 JUMPI DUP2 SLOAD DUP2 DUP10 ADD MSTORE PUSH1 0x1 DUP3 ADD SWAP2 POP PUSH1 0x20 DUP2 ADD SWAP1 POP PUSH2 0x2DE4 JUMP JUMPDEST DUP1 DUP9 ADD SWAP6 POP POP POP JUMPDEST POP POP POP SWAP3 SWAP2 POP POP JUMP JUMPDEST PUSH2 0x2E1D DUP2 PUSH2 0x29B7 JUMP JUMPDEST DUP3 MSTORE POP POP JUMP JUMPDEST PUSH0 PUSH1 0xC0 DUP3 ADD SWAP1 POP PUSH2 0x2E36 PUSH0 DUP4 ADD DUP10 PUSH2 0x2459 JUMP JUMPDEST DUP2 DUP2 SUB PUSH1 0x20 DUP4 ADD MSTORE PUSH2 0x2E48 DUP2 DUP9 PUSH2 0x2D93 JUMP JUMPDEST SWAP1 POP DUP2 DUP2 SUB PUSH1 0x40 DUP4 ADD MSTORE PUSH2 0x2E5C DUP2 DUP8 PUSH2 0x249B JUMP JUMPDEST SWAP1 POP PUSH2 0x2E6B PUSH1 0x60 DUP4 ADD DUP7 PUSH2 0x2E14 JUMP JUMPDEST PUSH2 0x2E78 PUSH1 0x80 DUP4 ADD DUP6 PUSH2 0x2431 JUMP JUMPDEST DUP2 DUP2 SUB PUSH1 0xA0 DUP4 ADD MSTORE PUSH2 0x2E8A DUP2 DUP5 PUSH2 0x249B JUMP JUMPDEST SWAP1 POP SWAP8 SWAP7 POP POP POP POP POP POP POP JUMP JUMPDEST PUSH0 PUSH1 0xA0 DUP3 ADD SWAP1 POP PUSH2 0x2EAA PUSH0 DUP4 ADD DUP9 PUSH2 0x2459 JUMP JUMPDEST PUSH2 0x2EB7 PUSH1 0x20 DUP4 ADD DUP8 PUSH2 0x2459 JUMP JUMPDEST PUSH2 0x2EC4 PUSH1 0x40 DUP4 ADD DUP7 PUSH2 0x20E1 JUMP JUMPDEST PUSH2 0x2ED1 PUSH1 0x60 DUP4 ADD DUP6 PUSH2 0x20E1 JUMP JUMPDEST PUSH2 0x2EDE PUSH1 0x80 DUP4 ADD DUP5 PUSH2 0x20E1 JUMP JUMPDEST SWAP7 SWAP6 POP POP POP POP POP POP JUMP JUMPDEST PUSH0 PUSH1 0x80 DUP3 ADD SWAP1 POP PUSH2 0x2EFB PUSH0 DUP4 ADD DUP9 PUSH2 0x2459 JUMP JUMPDEST PUSH2 0x2F08 PUSH1 0x20 DUP4 ADD DUP8 PUSH2 0x2459 JUMP JUMPDEST PUSH2 0x2F15 PUSH1 0x40 DUP4 ADD DUP7 PUSH2 0x20E1 JUMP JUMPDEST DUP2 DUP2 SUB PUSH1 0x60 DUP4 ADD MSTORE PUSH2 0x2F28 DUP2 DUP5 DUP7 PUSH2 0x2A85 JUMP JUMPDEST SWAP1 POP SWAP7 SWAP6 POP POP POP POP POP POP JUMP JUMPDEST PUSH0 PUSH1 0x40 DUP3 ADD SWAP1 POP PUSH2 0x2F47 PUSH0 DUP4 ADD DUP6 PUSH2 0x20E1 JUMP JUMPDEST PUSH2 0x2F54 PUSH1 0x20 DUP4 ADD DUP5 PUSH2 0x20E1 JUMP JUMPDEST SWAP4 SWAP3 POP POP POP JUMP JUMPDEST PUSH0 PUSH1 0xA0 DUP3 ADD SWAP1 POP PUSH2 0x2F6E PUSH0 DUP4 ADD DUP9 PUSH2 0x2459 JUMP JUMPDEST PUSH2 0x2F7B PUSH1 0x20 DUP4 ADD DUP8 PUSH2 0x2431 JUMP JUMPDEST DUP2 DUP2 SUB PUSH1 0x40 DUP4 ADD MSTORE PUSH2 0x2F8D DUP2 DUP7 PUSH2 0x249B JUMP JUMPDEST SWAP1 POP PUSH2 0x2F9C PUSH1 0x60 DUP4 ADD DUP6 PUSH2 0x20B9 JUMP JUMPDEST DUP2 DUP2 SUB PUSH1 0x80 DUP4 ADD MSTORE PUSH2 0x2FAE DUP2 DUP5 PUSH2 0x249B JUMP JUMPDEST SWAP1 POP SWAP7 SWAP6 POP POP POP POP POP POP JUMP JUMPDEST PUSH0 DUP2 MLOAD SWAP1 POP PUSH2 0x2FC8 DUP2 PUSH2 0x2046 JUMP JUMPDEST SWAP3 SWAP2 POP POP JUMP JUMPDEST PUSH0 DUP1 PUSH1 0x40 DUP4 DUP6 SUB SLT ISZERO PUSH2 0x2FE4 JUMPI PUSH2 0x2FE3 PUSH2 0x1D8E JUMP JUMPDEST JUMPDEST PUSH0 PUSH2 0x2FF1 DUP6 DUP3 DUP7 ADD PUSH2 0x2FBA JUMP JUMPDEST SWAP3 POP POP PUSH1 0x20 PUSH2 0x3002 DUP6 DUP3 DUP7 ADD PUSH2 0x2FBA JUMP JUMPDEST SWAP2 POP POP SWAP3 POP SWAP3 SWAP1 POP JUMP JUMPDEST PUSH0 PUSH1 0x20 PUSH1 0x1F DUP4 ADD DIV SWAP1 POP SWAP2 SWAP1 POP JUMP JUMPDEST PUSH0 DUP3 DUP3 SHL SWAP1 POP SWAP3 SWAP2 POP POP JUMP JUMPDEST PUSH0 PUSH1 0x8 DUP4 MUL PUSH2 0x3056 PUSH32 0xFFFFFFFFFFFFFFFFFFFFFFFFFFFFFFFFFFFFFFFFFFFFFFFFFFFFFFFFFFFFFFFF DUP3 PUSH2 0x301B JUMP JUMPDEST PUSH2 0x3060 DUP7 DUP4 PUSH2 0x301B JUMP JUMPDEST SWAP6 POP DUP1 NOT DUP5 AND SWAP4 POP DUP1 DUP7 AND DUP5 OR SWAP3 POP POP POP SWAP4 SWAP3 POP POP POP JUMP JUMPDEST PUSH0 PUSH2 0x3092 PUSH2 0x308D PUSH2 0x3088 DUP5 PUSH2 0x203D JUMP JUMPDEST PUSH2 0x21EA JUMP JUMPDEST PUSH2 0x203D JUMP JUMPDEST SWAP1 POP SWAP2 SWAP1 POP JUMP JUMPDEST PUSH0 DUP2 SWAP1 POP SWAP2 SWAP1 POP JUMP JUMPDEST PUSH2 0x30AB DUP4 PUSH2 0x3078 JUMP JUMPDEST PUSH2 0x30BF PUSH2 0x30B7 DUP3 PUSH2 0x3099 JUMP JUMPDEST DUP5 DUP5 SLOAD PUSH2 0x3027 JUMP JUMPDEST DUP3 SSTORE POP POP POP POP JUMP JUMPDEST PUSH0 SWAP1 JUMP JUMPDEST PUSH2 0x30D3 PUSH2 0x30C7 JUMP JUMPDEST PUSH2 0x30DE DUP2 DUP5 DUP5 PUSH2 0x30A2 JUMP JUMPDEST POP POP POP JUMP JUMPDEST JUMPDEST DUP2 DUP2 LT ISZERO PUSH2 0x3101 JUMPI PUSH2 0x30F6 PUSH0 DUP3 PUSH2 0x30CB JUMP JUMPDEST PUSH1 0x1 DUP2 ADD SWAP1 POP PUSH2 0x30E4 JUMP JUMPDEST POP POP JUMP JUMPDEST PUSH1 0x1F DUP3 GT ISZERO PUSH2 0x3146 JUMPI PUSH2 0x3117 DUP2 PUSH2 0x2803 JUMP JUMPDEST PUSH2 0x3120 DUP5 PUSH2 0x300C JUMP JUMPDEST DUP2 ADD PUSH1 0x20 DUP6 LT ISZERO PUSH2 0x312F JUMPI DUP2 SWAP1 POP JUMPDEST PUSH2 0x3143 PUSH2 0x313B DUP6 PUSH2 0x300C JUMP JUMPDEST DUP4 ADD DUP3 PUSH2 0x30E3 JUMP JUMPDEST POP POP JUMPDEST POP POP POP JUMP JUMPDEST PUSH0 DUP3 DUP3 SHR SWAP1 POP SWAP3 SWAP2 POP POP JUMP JUMPDEST PUSH0 PUSH2 0x3166 PUSH0 NOT DUP5 PUSH1 0x8 MUL PUSH2 0x314B JUMP JUMPDEST NOT DUP1 DUP4 AND SWAP2 POP POP SWAP3 SWAP2 POP POP JUMP JUMPDEST PUSH0 PUSH2 0x317E DUP4 DUP4 PUSH2 0x3157 JUMP JUMPDEST SWAP2 POP DUP3 PUSH1 0x2 MUL DUP3 OR SWAP1 POP SWAP3 SWAP2 POP POP JUMP JUMPDEST PUSH2 0x3197 DUP3 PUSH2 0x2481 JUMP JUMPDEST PUSH8 0xFFFFFFFFFFFFFFFF DUP2 GT ISZERO PUSH2 0x31B0 JUMPI PUSH2 0x31AF PUSH2 0x2262 JUMP JUMPDEST JUMPDEST PUSH2 0x31BA DUP3 SLOAD PUSH2 0x273B JUMP JUMPDEST PUSH2 0x31C5 DUP3 DUP3 DUP6 PUSH2 0x3105 JUMP JUMPDEST PUSH0 PUSH1 0x20 SWAP1 POP PUSH1 0x1F DUP4 GT PUSH1 0x1 DUP2 EQ PUSH2 0x31F6 JUMPI PUSH0 DUP5 ISZERO PUSH2 0x31E4 JUMPI DUP3 DUP8 ADD MLOAD SWAP1 POP JUMPDEST PUSH2 0x31EE DUP6 DUP3 PUSH2 0x3173 JUMP JUMPDEST DUP7 SSTORE POP PUSH2 0x3255 JUMP JUMPDEST PUSH1 0x1F NOT DUP5 AND PUSH2 0x3204 DUP7 PUSH2 0x2803 JUMP JUMPDEST PUSH0 JUMPDEST DUP3 DUP2 LT ISZERO PUSH2 0x322B JUMPI DUP5 DUP10 ADD MLOAD DUP3 SSTORE PUSH1 0x1 DUP3 ADD SWAP2 POP PUSH1 0x20 DUP6 ADD SWAP5 POP PUSH1 0x20 DUP2 ADD SWAP1 POP PUSH2 0x3206 JUMP JUMPDEST DUP7 DUP4 LT ISZERO PUSH2 0x3248 JUMPI DUP5 DUP10 ADD MLOAD PUSH2 0x3244 PUSH1 0x1F DUP10 AND DUP3 PUSH2 0x3157 JUMP JUMPDEST DUP4 SSTORE POP JUMPDEST PUSH1 0x1 PUSH1 0x2 DUP9 MUL ADD DUP9 SSTORE POP POP POP JUMPDEST POP POP POP POP POP POP JUMP JUMPDEST PUSH0 PUSH2 0x3267 DUP3 PUSH2 0x203D JUMP JUMPDEST SWAP2 POP PUSH2 0x3272 DUP4 PUSH2 0x203D JUMP JUMPDEST SWAP3 POP DUP3 DUP3 ADD SWAP1 POP DUP1 DUP3 GT ISZERO PUSH2 0x328A JUMPI PUSH2 0x3289 PUSH2 0x2BB1 JUMP JUMPDEST JUMPDEST SWAP3 SWAP2 POP POP JUMP INVALID LOG2 PUSH5 0x6970667358 0x22 SLT KECCAK256 PC SWAP9 0xC2 PUSH4 0x30182E3C PUSH9 0xC8E02917E830751FA6 0xCB LT 0xBD DUP16 0x4E MUL SAR 0xD8 0xA9 PUSH21 0xA610442564736F6C63430008170033000000000000 "
				},
				"gasEstimates": {
					"creation": {
						"codeDepositCost": "2599600",
						"executionCost": "infinite",
						"totalCost": "infinite"
					},
					"external": {
						"LZ_CHAIN_ID()": "infinite",
						"allowance(address,address)": "infinite",
						"approve(address,uint256)": "infinite",
						"balanceOf(address)": "2896",
						"decimals()": "384",
						"endpoint()": "infinite",
						"estimateFees(address,uint256,uint16,bytes)": "infinite",
						"forceResumeReceive(uint16,bytes)": "infinite",
						"lzReceive(uint16,bytes,uint64,bytes)": "infinite",
						"name()": "infinite",
						"nonceStatus(bytes,uint16,uint64)": "infinite",
						"owner()": "2561",
						"renounceOwnership()": "infinite",
						"setConfig(uint16,uint16,uint256,bytes)": "infinite",
						"setReceiveVersion(uint16)": "infinite",
						"setSendVersion(uint16)": "infinite",
						"setTransferFees(uint256)": "infinite",
						"setTrustedRemote(uint16,bytes)": "infinite",
						"symbol()": "infinite",
						"totalSupply()": "2522",
						"transfer(address,uint256)": "infinite",
						"transferFeePercent()": "2515",
						"transferFrom(address,address,uint256)": "infinite",
						"transferOwnership(address)": "infinite",
						"trustedRemote(uint16)": "infinite",
						"txCounter()": "2536",
						"updateEndpoint(address)": "infinite",
						"xChainTransfer(address,uint256,uint16,bytes)": "infinite"
					}
				},
				"methodIdentifiers": {
					"LZ_CHAIN_ID()": "935ec990",
					"allowance(address,address)": "dd62ed3e",
					"approve(address,uint256)": "095ea7b3",
					"balanceOf(address)": "70a08231",
					"decimals()": "313ce567",
					"endpoint()": "5e280f11",
					"estimateFees(address,uint256,uint16,bytes)": "e776ac5e",
					"forceResumeReceive(uint16,bytes)": "42d65a8d",
					"lzReceive(uint16,bytes,uint64,bytes)": "001d3567",
					"name()": "06fdde03",
					"nonceStatus(bytes,uint16,uint64)": "e38c6802",
					"owner()": "8da5cb5b",
					"renounceOwnership()": "715018a6",
					"setConfig(uint16,uint16,uint256,bytes)": "cbed8b9c",
					"setReceiveVersion(uint16)": "10ddb137",
					"setSendVersion(uint16)": "07e0db17",
					"setTransferFees(uint256)": "d26ed3e3",
					"setTrustedRemote(uint16,bytes)": "eb8d72b7",
					"symbol()": "95d89b41",
					"totalSupply()": "18160ddd",
					"transfer(address,uint256)": "a9059cbb",
					"transferFeePercent()": "94544e64",
					"transferFrom(address,address,uint256)": "23b872dd",
					"transferOwnership(address)": "f2fde38b",
					"trustedRemote(uint16)": "ac447944",
					"txCounter()": "74f079b8",
					"updateEndpoint(address)": "a7170d48",
					"xChainTransfer(address,uint256,uint16,bytes)": "6f0e7470"
				}
			},
			"storageLayout": {
				"storage": [
					{
						"astId": 307,
						"contract": "AUCA.sol:WrappedAUC",
						"label": "_balances",
						"offset": 0,
						"slot": "0",
						"type": "t_mapping(t_address,t_uint256)"
					},
					{
						"astId": 313,
						"contract": "AUCA.sol:WrappedAUC",
						"label": "_allowances",
						"offset": 0,
						"slot": "1",
						"type": "t_mapping(t_address,t_mapping(t_address,t_uint256))"
					},
					{
						"astId": 315,
						"contract": "AUCA.sol:WrappedAUC",
						"label": "_totalSupply",
						"offset": 0,
						"slot": "2",
						"type": "t_uint256"
					},
					{
						"astId": 317,
						"contract": "AUCA.sol:WrappedAUC",
						"label": "_name",
						"offset": 0,
						"slot": "3",
						"type": "t_string_storage"
					},
					{
						"astId": 319,
						"contract": "AUCA.sol:WrappedAUC",
						"label": "_symbol",
						"offset": 0,
						"slot": "4",
						"type": "t_string_storage"
					},
					{
						"astId": 8,
						"contract": "AUCA.sol:WrappedAUC",
						"label": "_owner",
						"offset": 0,
						"slot": "5",
						"type": "t_address"
					},
					{
						"astId": 956,
						"contract": "AUCA.sol:WrappedAUC",
						"label": "endpoint",
						"offset": 0,
						"slot": "6",
						"type": "t_contract(ILayerZeroEndpoint)1634"
					},
					{
						"astId": 961,
						"contract": "AUCA.sol:WrappedAUC",
						"label": "trustedRemote",
						"offset": 0,
						"slot": "7",
						"type": "t_mapping(t_uint16,t_bytes_storage)"
					},
					{
						"astId": 964,
						"contract": "AUCA.sol:WrappedAUC",
						"label": "txCounter",
						"offset": 0,
						"slot": "8",
						"type": "t_uint256"
					},
					{
						"astId": 973,
						"contract": "AUCA.sol:WrappedAUC",
						"label": "nonceStatus",
						"offset": 0,
						"slot": "9",
						"type": "t_mapping(t_bytes_memory_ptr,t_mapping(t_uint16,t_mapping(t_uint64,t_bool)))"
					},
					{
						"astId": 977,
						"contract": "AUCA.sol:WrappedAUC",
						"label": "transferFeePercent",
						"offset": 0,
						"slot": "10",
						"type": "t_uint256"
					}
				],
				"types": {
					"t_address": {
						"encoding": "inplace",
						"label": "address",
						"numberOfBytes": "20"
					},
					"t_bool": {
						"encoding": "inplace",
						"label": "bool",
						"numberOfBytes": "1"
					},
					"t_bytes_memory_ptr": {
						"encoding": "bytes",
						"label": "bytes",
						"numberOfBytes": "32"
					},
					"t_bytes_storage": {
						"encoding": "bytes",
						"label": "bytes",
						"numberOfBytes": "32"
					},
					"t_contract(ILayerZeroEndpoint)1634": {
						"encoding": "inplace",
						"label": "contract ILayerZeroEndpoint",
						"numberOfBytes": "20"
					},
					"t_mapping(t_address,t_mapping(t_address,t_uint256))": {
						"encoding": "mapping",
						"key": "t_address",
						"label": "mapping(address => mapping(address => uint256))",
						"numberOfBytes": "32",
						"value": "t_mapping(t_address,t_uint256)"
					},
					"t_mapping(t_address,t_uint256)": {
						"encoding": "mapping",
						"key": "t_address",
						"label": "mapping(address => uint256)",
						"numberOfBytes": "32",
						"value": "t_uint256"
					},
					"t_mapping(t_bytes_memory_ptr,t_mapping(t_uint16,t_mapping(t_uint64,t_bool)))": {
						"encoding": "mapping",
						"key": "t_bytes_memory_ptr",
						"label": "mapping(bytes => mapping(uint16 => mapping(uint64 => bool)))",
						"numberOfBytes": "32",
						"value": "t_mapping(t_uint16,t_mapping(t_uint64,t_bool))"
					},
					"t_mapping(t_uint16,t_bytes_storage)": {
						"encoding": "mapping",
						"key": "t_uint16",
						"label": "mapping(uint16 => bytes)",
						"numberOfBytes": "32",
						"value": "t_bytes_storage"
					},
					"t_mapping(t_uint16,t_mapping(t_uint64,t_bool))": {
						"encoding": "mapping",
						"key": "t_uint16",
						"label": "mapping(uint16 => mapping(uint64 => bool))",
						"numberOfBytes": "32",
						"value": "t_mapping(t_uint64,t_bool)"
					},
					"t_mapping(t_uint64,t_bool)": {
						"encoding": "mapping",
						"key": "t_uint64",
						"label": "mapping(uint64 => bool)",
						"numberOfBytes": "32",
						"value": "t_bool"
					},
					"t_string_storage": {
						"encoding": "bytes",
						"label": "string",
						"numberOfBytes": "32"
					},
					"t_uint16": {
						"encoding": "inplace",
						"label": "uint16",
						"numberOfBytes": "2"
					},
					"t_uint256": {
						"encoding": "inplace",
						"label": "uint256",
						"numberOfBytes": "32"
					},
					"t_uint64": {
						"encoding": "inplace",
						"label": "uint64",
						"numberOfBytes": "8"
					}
				}
			},
			"userdoc": {
				"kind": "user",
				"methods": {
					"lzReceive(uint16,bytes,uint64,bytes)": {
						"notice": "Handles the reception of tokens on the LayerZero chain."
					},
					"setTransferFees(uint256)": {
						"notice": "Sets the transfer fee per transaction"
					},
					"setTrustedRemote(uint16,bytes)": {
						"notice": "Sets a trusted remote address for a destination chain."
					},
					"updateEndpoint(address)": {
						"notice": "Updates the LayerZero endpoint contract address."
					},
					"xChainTransfer(address,uint256,uint16,bytes)": {
						"notice": "Initiates a cross-chain token transfer."
					}
				},
				"version": 1
			}
		}
	}
}