{
	"WrappedAUC.sol": {
		"WrappedAUC": {
			"abi": [
				{
					"inputs": [
						{
							"internalType": "uint16",
							"name": "_lzChainId",
							"type": "uint16"
						},
						{
							"internalType": "address",
							"name": "_endpoint",
							"type": "address"
						},
						{
							"internalType": "string",
							"name": "_name",
							"type": "string"
						},
						{
							"internalType": "string",
							"name": "_symbol",
							"type": "string"
						}
					],
					"stateMutability": "nonpayable",
					"type": "constructor"
				},
				{
					"inputs": [
						{
							"internalType": "address",
							"name": "spender",
							"type": "address"
						},
						{
							"internalType": "uint256",
							"name": "allowance",
							"type": "uint256"
						},
						{
							"internalType": "uint256",
							"name": "needed",
							"type": "uint256"
						}
					],
					"name": "ERC20InsufficientAllowance",
					"type": "error"
				},
				{
					"inputs": [
						{
							"internalType": "address",
							"name": "sender",
							"type": "address"
						},
						{
							"internalType": "uint256",
							"name": "balance",
							"type": "uint256"
						},
						{
							"internalType": "uint256",
							"name": "needed",
							"type": "uint256"
						}
					],
					"name": "ERC20InsufficientBalance",
					"type": "error"
				},
				{
					"inputs": [
						{
							"internalType": "address",
							"name": "approver",
							"type": "address"
						}
					],
					"name": "ERC20InvalidApprover",
					"type": "error"
				},
				{
					"inputs": [
						{
							"internalType": "address",
							"name": "receiver",
							"type": "address"
						}
					],
					"name": "ERC20InvalidReceiver",
					"type": "error"
				},
				{
					"inputs": [
						{
							"internalType": "address",
							"name": "sender",
							"type": "address"
						}
					],
					"name": "ERC20InvalidSender",
					"type": "error"
				},
				{
					"inputs": [
						{
							"internalType": "address",
							"name": "spender",
							"type": "address"
						}
					],
					"name": "ERC20InvalidSpender",
					"type": "error"
				},
				{
					"inputs": [
						{
							"internalType": "address",
							"name": "owner",
							"type": "address"
						}
					],
					"name": "OwnableInvalidOwner",
					"type": "error"
				},
				{
					"inputs": [
						{
							"internalType": "address",
							"name": "account",
							"type": "address"
						}
					],
					"name": "OwnableUnauthorizedAccount",
					"type": "error"
				},
				{
					"anonymous": false,
					"inputs": [
						{
							"indexed": true,
							"internalType": "address",
							"name": "owner",
							"type": "address"
						},
						{
							"indexed": true,
							"internalType": "address",
							"name": "spender",
							"type": "address"
						},
						{
							"indexed": false,
							"internalType": "uint256",
							"name": "value",
							"type": "uint256"
						}
					],
					"name": "Approval",
					"type": "event"
				},
				{
					"anonymous": false,
					"inputs": [
						{
							"indexed": false,
							"internalType": "uint16",
							"name": "srcChainId",
							"type": "uint16"
						},
						{
							"indexed": false,
							"internalType": "uint16",
							"name": "dstChainId",
							"type": "uint16"
						},
						{
							"indexed": false,
							"internalType": "uint256",
							"name": "srcTxIndex",
							"type": "uint256"
						},
						{
							"indexed": true,
							"internalType": "address",
							"name": "receiver",
							"type": "address"
						},
						{
							"indexed": false,
							"internalType": "uint256",
							"name": "amount",
							"type": "uint256"
						}
					],
					"name": "BridgingCompleted",
					"type": "event"
				},
				{
					"anonymous": false,
					"inputs": [
						{
							"indexed": false,
							"internalType": "uint16",
							"name": "srcChainId",
							"type": "uint16"
						},
						{
							"indexed": false,
							"internalType": "uint16",
							"name": "dstChainId",
							"type": "uint16"
						},
						{
							"indexed": false,
							"internalType": "uint256",
							"name": "srcTxIndex",
							"type": "uint256"
						},
						{
							"indexed": true,
							"internalType": "address",
							"name": "receiver",
							"type": "address"
						},
						{
							"indexed": false,
							"internalType": "uint256",
							"name": "amount",
							"type": "uint256"
						},
						{
							"indexed": false,
							"internalType": "uint256",
							"name": "fees",
							"type": "uint256"
						}
					],
					"name": "BridgingInitiated",
					"type": "event"
				},
				{
					"anonymous": false,
					"inputs": [
						{
							"indexed": true,
							"internalType": "address",
							"name": "oldEndpoint",
							"type": "address"
						},
						{
							"indexed": true,
							"internalType": "address",
							"name": "newEndpoint",
							"type": "address"
						}
					],
					"name": "EndpointUpdated",
					"type": "event"
				},
				{
					"anonymous": false,
					"inputs": [
						{
							"indexed": true,
							"internalType": "address",
							"name": "previousOwner",
							"type": "address"
						},
						{
							"indexed": true,
							"internalType": "address",
							"name": "newOwner",
							"type": "address"
						}
					],
					"name": "OwnershipTransferred",
					"type": "event"
				},
				{
					"anonymous": false,
					"inputs": [
						{
							"indexed": true,
							"internalType": "address",
							"name": "from",
							"type": "address"
						},
						{
							"indexed": true,
							"internalType": "address",
							"name": "to",
							"type": "address"
						},
						{
							"indexed": false,
							"internalType": "uint256",
							"name": "value",
							"type": "uint256"
						}
					],
					"name": "Transfer",
					"type": "event"
				},
				{
					"anonymous": false,
					"inputs": [
						{
							"indexed": false,
							"internalType": "uint256",
							"name": "oldFees",
							"type": "uint256"
						},
						{
							"indexed": false,
							"internalType": "uint256",
							"name": "newFees",
							"type": "uint256"
						}
					],
					"name": "TransferFeeUpdated",
					"type": "event"
				},
				{
					"anonymous": false,
					"inputs": [
						{
							"indexed": true,
							"internalType": "uint16",
							"name": "dstChainId",
							"type": "uint16"
						},
						{
							"indexed": false,
							"internalType": "bytes",
							"name": "trustedRemote",
							"type": "bytes"
						}
					],
					"name": "TrustedRemoteUpdated",
					"type": "event"
				},
				{
					"inputs": [],
					"name": "LZ_CHAIN_ID",
					"outputs": [
						{
							"internalType": "uint16",
							"name": "",
							"type": "uint16"
						}
					],
					"stateMutability": "view",
					"type": "function"
				},
				{
					"inputs": [
						{
							"internalType": "address",
							"name": "owner",
							"type": "address"
						},
						{
							"internalType": "address",
							"name": "spender",
							"type": "address"
						}
					],
					"name": "allowance",
					"outputs": [
						{
							"internalType": "uint256",
							"name": "",
							"type": "uint256"
						}
					],
					"stateMutability": "view",
					"type": "function"
				},
				{
					"inputs": [
						{
							"internalType": "address",
							"name": "spender",
							"type": "address"
						},
						{
							"internalType": "uint256",
							"name": "value",
							"type": "uint256"
						}
					],
					"name": "approve",
					"outputs": [
						{
							"internalType": "bool",
							"name": "",
							"type": "bool"
						}
					],
					"stateMutability": "nonpayable",
					"type": "function"
				},
				{
					"inputs": [
						{
							"internalType": "address",
							"name": "account",
							"type": "address"
						}
					],
					"name": "balanceOf",
					"outputs": [
						{
							"internalType": "uint256",
							"name": "",
							"type": "uint256"
						}
					],
					"stateMutability": "view",
					"type": "function"
				},
				{
					"inputs": [],
					"name": "decimals",
					"outputs": [
						{
							"internalType": "uint8",
							"name": "",
							"type": "uint8"
						}
					],
					"stateMutability": "view",
					"type": "function"
				},
				{
					"inputs": [],
					"name": "endpoint",
					"outputs": [
						{
							"internalType": "contract ILayerZeroEndpoint",
							"name": "",
							"type": "address"
						}
					],
					"stateMutability": "view",
					"type": "function"
				},
				{
					"inputs": [
						{
							"internalType": "address",
							"name": "_receiver",
							"type": "address"
						},
						{
							"internalType": "uint256",
							"name": "_amount",
							"type": "uint256"
						},
						{
							"internalType": "uint16",
							"name": "_dstChainId",
							"type": "uint16"
						},
						{
							"internalType": "bytes",
							"name": "_adapterParams",
							"type": "bytes"
						}
					],
					"name": "estimateFees",
					"outputs": [
						{
							"internalType": "uint256",
							"name": "",
							"type": "uint256"
						}
					],
					"stateMutability": "view",
					"type": "function"
				},
				{
					"inputs": [
						{
							"internalType": "uint16",
							"name": "_srcChainId",
							"type": "uint16"
						},
						{
							"internalType": "bytes",
							"name": "_srcAddress",
							"type": "bytes"
						}
					],
					"name": "forceResumeReceive",
					"outputs": [],
					"stateMutability": "nonpayable",
					"type": "function"
				},
				{
					"inputs": [
						{
							"internalType": "uint16",
							"name": "_srcChainId",
							"type": "uint16"
						},
						{
							"internalType": "bytes",
							"name": "_srcAddress",
							"type": "bytes"
						},
						{
							"internalType": "uint64",
							"name": "_nonce",
							"type": "uint64"
						},
						{
							"internalType": "bytes",
							"name": "_payload",
							"type": "bytes"
						}
					],
					"name": "lzReceive",
					"outputs": [],
					"stateMutability": "nonpayable",
					"type": "function"
				},
				{
					"inputs": [],
					"name": "name",
					"outputs": [
						{
							"internalType": "string",
							"name": "",
							"type": "string"
						}
					],
					"stateMutability": "view",
					"type": "function"
				},
				{
					"inputs": [
						{
							"internalType": "bytes",
							"name": "",
							"type": "bytes"
						},
						{
							"internalType": "uint16",
							"name": "",
							"type": "uint16"
						},
						{
							"internalType": "uint64",
							"name": "",
							"type": "uint64"
						}
					],
					"name": "nonceStatus",
					"outputs": [
						{
							"internalType": "bool",
							"name": "",
							"type": "bool"
						}
					],
					"stateMutability": "view",
					"type": "function"
				},
				{
					"inputs": [],
					"name": "owner",
					"outputs": [
						{
							"internalType": "address",
							"name": "",
							"type": "address"
						}
					],
					"stateMutability": "view",
					"type": "function"
				},
				{
					"inputs": [],
					"name": "renounceOwnership",
					"outputs": [],
					"stateMutability": "nonpayable",
					"type": "function"
				},
				{
					"inputs": [
						{
							"internalType": "uint16",
							"name": "_version",
							"type": "uint16"
						},
						{
							"internalType": "uint16",
							"name": "_chainId",
							"type": "uint16"
						},
						{
							"internalType": "uint256",
							"name": "_configType",
							"type": "uint256"
						},
						{
							"internalType": "bytes",
							"name": "_config",
							"type": "bytes"
						}
					],
					"name": "setConfig",
					"outputs": [],
					"stateMutability": "nonpayable",
					"type": "function"
				},
				{
					"inputs": [
						{
							"internalType": "uint16",
							"name": "_version",
							"type": "uint16"
						}
					],
					"name": "setReceiveVersion",
					"outputs": [],
					"stateMutability": "nonpayable",
					"type": "function"
				},
				{
					"inputs": [
						{
							"internalType": "uint16",
							"name": "_version",
							"type": "uint16"
						}
					],
					"name": "setSendVersion",
					"outputs": [],
					"stateMutability": "nonpayable",
					"type": "function"
				},
				{
					"inputs": [
						{
							"internalType": "uint256",
							"name": "_transferFeePercent",
							"type": "uint256"
						}
					],
					"name": "setTransferFees",
					"outputs": [],
					"stateMutability": "nonpayable",
					"type": "function"
				},
				{
					"inputs": [
						{
							"internalType": "uint16",
							"name": "_dstChainId",
							"type": "uint16"
						},
						{
							"internalType": "bytes",
							"name": "_trustedRemote",
							"type": "bytes"
						}
					],
					"name": "setTrustedRemote",
					"outputs": [],
					"stateMutability": "nonpayable",
					"type": "function"
				},
				{
					"inputs": [],
					"name": "symbol",
					"outputs": [
						{
							"internalType": "string",
							"name": "",
							"type": "string"
						}
					],
					"stateMutability": "view",
					"type": "function"
				},
				{
					"inputs": [],
					"name": "totalSupply",
					"outputs": [
						{
							"internalType": "uint256",
							"name": "",
							"type": "uint256"
						}
					],
					"stateMutability": "view",
					"type": "function"
				},
				{
					"inputs": [
						{
							"internalType": "address",
							"name": "to",
							"type": "address"
						},
						{
							"internalType": "uint256",
							"name": "value",
							"type": "uint256"
						}
					],
					"name": "transfer",
					"outputs": [
						{
							"internalType": "bool",
							"name": "",
							"type": "bool"
						}
					],
					"stateMutability": "nonpayable",
					"type": "function"
				},
				{
					"inputs": [],
					"name": "transferFeePercent",
					"outputs": [
						{
							"internalType": "uint256",
							"name": "",
							"type": "uint256"
						}
					],
					"stateMutability": "view",
					"type": "function"
				},
				{
					"inputs": [
						{
							"internalType": "address",
							"name": "from",
							"type": "address"
						},
						{
							"internalType": "address",
							"name": "to",
							"type": "address"
						},
						{
							"internalType": "uint256",
							"name": "value",
							"type": "uint256"
						}
					],
					"name": "transferFrom",
					"outputs": [
						{
							"internalType": "bool",
							"name": "",
							"type": "bool"
						}
					],
					"stateMutability": "nonpayable",
					"type": "function"
				},
				{
					"inputs": [
						{
							"internalType": "address",
							"name": "newOwner",
							"type": "address"
						}
					],
					"name": "transferOwnership",
					"outputs": [],
					"stateMutability": "nonpayable",
					"type": "function"
				},
				{
					"inputs": [
						{
							"internalType": "uint16",
							"name": "",
							"type": "uint16"
						}
					],
					"name": "trustedRemote",
					"outputs": [
						{
							"internalType": "bytes",
							"name": "",
							"type": "bytes"
						}
					],
					"stateMutability": "view",
					"type": "function"
				},
				{
					"inputs": [],
					"name": "txCounter",
					"outputs": [
						{
							"internalType": "uint256",
							"name": "",
							"type": "uint256"
						}
					],
					"stateMutability": "view",
					"type": "function"
				},
				{
					"inputs": [
						{
							"internalType": "address",
							"name": "_newEndpoint",
							"type": "address"
						}
					],
					"name": "updateEndpoint",
					"outputs": [],
					"stateMutability": "nonpayable",
					"type": "function"
				},
				{
					"inputs": [
						{
							"internalType": "address",
							"name": "_receiver",
							"type": "address"
						},
						{
							"internalType": "uint256",
							"name": "_amount",
							"type": "uint256"
						},
						{
							"internalType": "uint16",
							"name": "_dstChainId",
							"type": "uint16"
						},
						{
							"internalType": "bytes",
							"name": "_adapterParams",
							"type": "bytes"
						}
					],
					"name": "xChainTransfer",
					"outputs": [],
					"stateMutability": "payable",
					"type": "function"
				}
			],
			"devdoc": {
				"details": "wrapper contract to be deployed to other dst chains",
				"errors": {
					"ERC20InsufficientAllowance(address,uint256,uint256)": [
						{
							"details": "Indicates a failure with the `spender`’s `allowance`. Used in transfers.",
							"params": {
								"allowance": "Amount of tokens a `spender` is allowed to operate with.",
								"needed": "Minimum amount required to perform a transfer.",
								"spender": "Address that may be allowed to operate on tokens without being their owner."
							}
						}
					],
					"ERC20InsufficientBalance(address,uint256,uint256)": [
						{
							"details": "Indicates an error related to the current `balance` of a `sender`. Used in transfers.",
							"params": {
								"balance": "Current balance for the interacting account.",
								"needed": "Minimum amount required to perform a transfer.",
								"sender": "Address whose tokens are being transferred."
							}
						}
					],
					"ERC20InvalidApprover(address)": [
						{
							"details": "Indicates a failure with the `approver` of a token to be approved. Used in approvals.",
							"params": {
								"approver": "Address initiating an approval operation."
							}
						}
					],
					"ERC20InvalidReceiver(address)": [
						{
							"details": "Indicates a failure with the token `receiver`. Used in transfers.",
							"params": {
								"receiver": "Address to which tokens are being transferred."
							}
						}
					],
					"ERC20InvalidSender(address)": [
						{
							"details": "Indicates a failure with the token `sender`. Used in transfers.",
							"params": {
								"sender": "Address whose tokens are being transferred."
							}
						}
					],
					"ERC20InvalidSpender(address)": [
						{
							"details": "Indicates a failure with the `spender` to be approved. Used in approvals.",
							"params": {
								"spender": "Address that may be allowed to operate on tokens without being their owner."
							}
						}
					],
					"OwnableInvalidOwner(address)": [
						{
							"details": "The owner is not a valid owner account. (eg. `address(0)`)"
						}
					],
					"OwnableUnauthorizedAccount(address)": [
						{
							"details": "The caller account is not authorized to perform an operation."
						}
					]
				},
				"events": {
					"Approval(address,address,uint256)": {
						"details": "Emitted when the allowance of a `spender` for an `owner` is set by a call to {approve}. `value` is the new allowance."
					},
					"Transfer(address,address,uint256)": {
						"details": "Emitted when `value` tokens are moved from one account (`from`) to another (`to`). Note that `value` may be zero."
					},
					"TransferFeeUpdated(uint256,uint256)": {
						"details": "emitted when transfer fees are updated."
					}
				},
				"kind": "dev",
				"methods": {
					"allowance(address,address)": {
						"details": "See {IERC20-allowance}."
					},
					"approve(address,uint256)": {
						"details": "See {IERC20-approve}. NOTE: If `value` is the maximum `uint256`, the allowance is not updated on `transferFrom`. This is semantically equivalent to an infinite approval. Requirements: - `spender` cannot be the zero address."
					},
					"balanceOf(address)": {
						"details": "See {IERC20-balanceOf}."
					},
					"decimals()": {
						"details": "Returns the number of decimals used to get its user representation. For example, if `decimals` equals `2`, a balance of `505` tokens should be displayed to a user as `5.05` (`505 / 10 ** 2`). Tokens usually opt for a value of 18, imitating the relationship between Ether and Wei. This is the default value returned by this function, unless it's overridden. NOTE: This information is only used for _display_ purposes: it in no way affects any of the arithmetic of the contract, including {IERC20-balanceOf} and {IERC20-transfer}."
					},
					"lzReceive(uint16,bytes,uint64,bytes)": {
						"params": {
							"_nonce": "The nonce of the transaction.",
							"_payload": "The payload containing receiver, amount, and transaction ID.",
							"_srcAddress": "The source address on the source chain.",
							"_srcChainId": "The source chain's ID."
						}
					},
					"name()": {
						"details": "Returns the name of the token."
					},
					"owner()": {
						"details": "Returns the address of the current owner."
					},
					"renounceOwnership()": {
						"details": "Leaves the contract without owner. It will not be possible to call `onlyOwner` functions. Can only be called by the current owner. NOTE: Renouncing ownership will leave the contract without an owner, thereby disabling any functionality that is only available to the owner."
					},
					"setConfig(uint16,uint16,uint256,bytes)": {
						"details": "generic config for LayerZero user Application"
					},
					"setTransferFees(uint256)": {
						"params": {
							"_transferFeePercent": "the transfer fee percent (eg: 100% = 10000)"
						}
					},
					"setTrustedRemote(uint16,bytes)": {
						"params": {
							"_dstChainId": "The destination chain's ID.",
							"_trustedRemote": "The trusted remote address."
						}
					},
					"symbol()": {
						"details": "Returns the symbol of the token, usually a shorter version of the name."
					},
					"totalSupply()": {
						"details": "See {IERC20-totalSupply}."
					},
					"transfer(address,uint256)": {
						"details": "See {IERC20-transfer}. Requirements: - `to` cannot be the zero address. - the caller must have a balance of at least `value`."
					},
					"transferFrom(address,address,uint256)": {
						"details": "See {IERC20-transferFrom}. Emits an {Approval} event indicating the updated allowance. This is not required by the EIP. See the note at the beginning of {ERC20}. NOTE: Does not update the allowance if the current allowance is the maximum `uint256`. Requirements: - `from` and `to` cannot be the zero address. - `from` must have a balance of at least `value`. - the caller must have allowance for ``from``'s tokens of at least `value`."
					},
					"transferOwnership(address)": {
						"details": "Transfers ownership of the contract to a new account (`newOwner`). Can only be called by the current owner."
					},
					"updateEndpoint(address)": {
						"params": {
							"_newEndpoint": "The new endpoint contract address."
						}
					},
					"xChainTransfer(address,uint256,uint16,bytes)": {
						"params": {
							"_adapterParams": "Additional adapter parameters.",
							"_amount": "The amount of tokens to transfer.",
							"_dstChainId": "The destination chain's ID.",
							"_receiver": "The recipient's address on the destination chain."
						}
					}
				},
				"stateVariables": {
					"endpoint": {
						"details": "not declared as constant to prevent vendor lock-in"
					},
					"nonceStatus": {
						"details": "map nonce to processed state to prevent replay attack"
					},
					"transferFeePercent": {
						"details": "transfer fees per tx"
					},
					"trustedRemote": {
						"details": "mapping trusted remote"
					},
					"txCounter": {
						"details": "total src chain tx counter"
					}
				},
				"version": 1
			},
			"evm": {
				"assembly": "    /* \"WrappedAUC.sol\":407:8163  contract WrappedAUC is ERC20, Ownable, ILayerZeroReceiver {... */\n  mstore(0x40, 0xa0)\n    /* \"WrappedAUC.sol\":1183:1185  50 */\n  0x32\n    /* \"WrappedAUC.sol\":1147:1185  uint256 public transferFeePercent = 50 */\n  0x0a\n  sstore\n    /* \"WrappedAUC.sol\":2447:2748  constructor(uint16 _lzChainId, address _endpoint, string memory _name, string memory _symbol)... */\n  callvalue\n  dup1\n  iszero\n  tag_1\n  jumpi\n  0x00\n  dup1\n  revert\ntag_1:\n  pop\n  mload(0x40)\n  sub(codesize, bytecodeSize)\n  dup1\n  bytecodeSize\n  dup4\n  codecopy\n  dup2\n  add\n  0x40\n  dup2\n  swap1\n  mstore\n  tag_2\n  swap2\n  tag_3\n  jump\t// in\ntag_2:\n    /* \"WrappedAUC.sol\":2587:2597  msg.sender */\n  caller\n    /* \"WrappedAUC.sol\":2555:2560  _name */\n  dup3\n    /* \"WrappedAUC.sol\":2562:2569  _symbol */\n  dup3\n    /* \"@openzeppelin/contracts/token/ERC20/ERC20.sol\":1962:1967  _name */\n  0x03\n    /* \"@openzeppelin/contracts/token/ERC20/ERC20.sol\":1962:1975  _name = name_ */\n  tag_8\n    /* \"WrappedAUC.sol\":2555:2560  _name */\n  dup4\n    /* \"@openzeppelin/contracts/token/ERC20/ERC20.sol\":1962:1967  _name */\n  dup3\n    /* \"@openzeppelin/contracts/token/ERC20/ERC20.sol\":1962:1975  _name = name_ */\n  tag_9\n  jump\t// in\ntag_8:\n  pop\n    /* \"@openzeppelin/contracts/token/ERC20/ERC20.sol\":1985:1992  _symbol */\n  0x04\n    /* \"@openzeppelin/contracts/token/ERC20/ERC20.sol\":1985:2002  _symbol = symbol_ */\n  tag_10\n    /* \"@openzeppelin/contracts/token/ERC20/ERC20.sol\":1995:2002  symbol_ */\n  dup3\n    /* \"@openzeppelin/contracts/token/ERC20/ERC20.sol\":1985:1992  _symbol */\n  dup3\n    /* \"@openzeppelin/contracts/token/ERC20/ERC20.sol\":1985:2002  _symbol = symbol_ */\n  tag_9\n  jump\t// in\ntag_10:\n  pop\n  pop\n  pop\n  sub(shl(0xa0, 0x01), 0x01)\n    /* \"@openzeppelin/contracts/access/Ownable.sol\":1273:1299  initialOwner == address(0) */\n  dup2\n  and\n    /* \"@openzeppelin/contracts/access/Ownable.sol\":1269:1364  if (initialOwner == address(0)) {... */\n  tag_12\n  jumpi\n    /* \"@openzeppelin/contracts/access/Ownable.sol\":1322:1353  OwnableInvalidOwner(address(0)) */\n  mload(0x40)\n  shl(0xe0, 0x1e4fbdf7)\n  dup2\n  mstore\n    /* \"@openzeppelin/contracts/access/Ownable.sol\":1350:1351  0 */\n  0x00\n    /* \"@openzeppelin/contracts/access/Ownable.sol\":1322:1353  OwnableInvalidOwner(address(0)) */\n  0x04\n  dup3\n  add\n    /* \"#utility.yul\":4592:4643   */\n  mstore\n    /* \"#utility.yul\":4565:4583   */\n  0x24\n  add\n    /* \"@openzeppelin/contracts/access/Ownable.sol\":1322:1353  OwnableInvalidOwner(address(0)) */\n  mload(0x40)\n  dup1\n  swap2\n  sub\n  swap1\n  revert\n    /* \"@openzeppelin/contracts/access/Ownable.sol\":1269:1364  if (initialOwner == address(0)) {... */\ntag_12:\n    /* \"@openzeppelin/contracts/access/Ownable.sol\":1373:1405  _transferOwnership(initialOwner) */\n  tag_15\n    /* \"@openzeppelin/contracts/access/Ownable.sol\":1392:1404  initialOwner */\n  dup2\n    /* \"@openzeppelin/contracts/access/Ownable.sol\":1373:1391  _transferOwnership */\n  tag_16\n    /* \"@openzeppelin/contracts/access/Ownable.sol\":1373:1405  _transferOwnership(initialOwner) */\n  jump\t// in\ntag_15:\n  pop\n    /* \"WrappedAUC.sol\":2613:2637  LZ_CHAIN_ID = _lzChainId */\n  0xffff\n  dup5\n  and\n  0x80\n  mstore\n    /* \"WrappedAUC.sol\":2647:2655  endpoint */\n  0x06\n    /* \"WrappedAUC.sol\":2647:2687  endpoint = ILayerZeroEndpoint(_endpoint) */\n  dup1\n  sload\n  not(sub(shl(0xa0, 0x01), 0x01))\n  and\n  sub(shl(0xa0, 0x01), 0x01)\n  dup6\n  and\n  swap1\n  dup2\n  or\n  swap1\n  swap2\n  sstore\n    /* \"WrappedAUC.sol\":2703:2741  EndpointUpdated(address(0), _endpoint) */\n  mload(0x40)\n  0x00\n  swap1\n  0x241827194635b544bceb965d0e124305c0968051403ae83cb99d1ef86bd65f58\n  swap1\n  dup3\n  swap1\n  log3\n    /* \"WrappedAUC.sol\":2447:2748  constructor(uint16 _lzChainId, address _endpoint, string memory _name, string memory _symbol)... */\n  pop\n  pop\n  pop\n  pop\n    /* \"WrappedAUC.sol\":407:8163  contract WrappedAUC is ERC20, Ownable, ILayerZeroReceiver {... */\n  jump(tag_26)\n    /* \"@openzeppelin/contracts/access/Ownable.sol\":2912:3099  function _transferOwnership(address newOwner) internal virtual {... */\ntag_16:\n    /* \"@openzeppelin/contracts/access/Ownable.sol\":3004:3010  _owner */\n  0x05\n  dup1\n  sload\n  sub(shl(0xa0, 0x01), 0x01)\n    /* \"@openzeppelin/contracts/access/Ownable.sol\":3020:3037  _owner = newOwner */\n  dup4\n  dup2\n  and\n  not(sub(shl(0xa0, 0x01), 0x01))\n  dup4\n  and\n  dup2\n  or\n  swap1\n  swap4\n  sstore\n    /* \"@openzeppelin/contracts/access/Ownable.sol\":3052:3092  OwnershipTransferred(oldOwner, newOwner) */\n  mload(0x40)\n    /* \"@openzeppelin/contracts/access/Ownable.sol\":3004:3010  _owner */\n  swap2\n  and\n  swap2\n    /* \"@openzeppelin/contracts/access/Ownable.sol\":3020:3037  _owner = newOwner */\n  swap1\n    /* \"@openzeppelin/contracts/access/Ownable.sol\":3004:3010  _owner */\n  dup3\n  swap1\n    /* \"@openzeppelin/contracts/access/Ownable.sol\":3052:3092  OwnershipTransferred(oldOwner, newOwner) */\n  0x8be0079c531659141344cd1fd0a4f28419497f9722a3daafe3b4186f6b6457e0\n  swap1\n    /* \"@openzeppelin/contracts/access/Ownable.sol\":2985:3001  address oldOwner */\n  0x00\n  swap1\n    /* \"@openzeppelin/contracts/access/Ownable.sol\":3052:3092  OwnershipTransferred(oldOwner, newOwner) */\n  log3\n    /* \"@openzeppelin/contracts/access/Ownable.sol\":2975:3099  {... */\n  pop\n    /* \"@openzeppelin/contracts/access/Ownable.sol\":2912:3099  function _transferOwnership(address newOwner) internal virtual {... */\n  pop\n  jump\t// out\n    /* \"#utility.yul\":14:141   */\ntag_20:\n    /* \"#utility.yul\":75:85   */\n  0x4e487b71\n    /* \"#utility.yul\":70:73   */\n  0xe0\n    /* \"#utility.yul\":66:86   */\n  shl\n    /* \"#utility.yul\":63:64   */\n  0x00\n    /* \"#utility.yul\":56:87   */\n  mstore\n    /* \"#utility.yul\":106:110   */\n  0x41\n    /* \"#utility.yul\":103:104   */\n  0x04\n    /* \"#utility.yul\":96:111   */\n  mstore\n    /* \"#utility.yul\":130:134   */\n  0x24\n    /* \"#utility.yul\":127:128   */\n  0x00\n    /* \"#utility.yul\":120:135   */\n  revert\n    /* \"#utility.yul\":146:990   */\ntag_21:\n    /* \"#utility.yul\":200:205   */\n  0x00\n    /* \"#utility.yul\":253:256   */\n  dup3\n    /* \"#utility.yul\":246:250   */\n  0x1f\n    /* \"#utility.yul\":238:244   */\n  dup4\n    /* \"#utility.yul\":234:251   */\n  add\n    /* \"#utility.yul\":230:257   */\n  slt\n    /* \"#utility.yul\":220:275   */\n  tag_29\n  jumpi\n    /* \"#utility.yul\":271:272   */\n  0x00\n    /* \"#utility.yul\":268:269   */\n  dup1\n    /* \"#utility.yul\":261:273   */\n  revert\n    /* \"#utility.yul\":220:275   */\ntag_29:\n    /* \"#utility.yul\":294:307   */\n  dup2\n  mload\n  sub(shl(0x40, 0x01), 0x01)\n    /* \"#utility.yul\":356:366   */\n  dup1\n  dup3\n  gt\n    /* \"#utility.yul\":353:389   */\n  iszero\n  tag_31\n  jumpi\n    /* \"#utility.yul\":369:387   */\n  tag_31\n  tag_20\n  jump\t// in\ntag_31:\n    /* \"#utility.yul\":444:446   */\n  0x40\n    /* \"#utility.yul\":438:447   */\n  mload\n    /* \"#utility.yul\":412:414   */\n  0x1f\n    /* \"#utility.yul\":498:511   */\n  dup4\n  add\n  not(0x1f)\n    /* \"#utility.yul\":494:516   */\n  swap1\n  dup2\n  and\n    /* \"#utility.yul\":518:520   */\n  0x3f\n    /* \"#utility.yul\":490:521   */\n  add\n    /* \"#utility.yul\":486:526   */\n  and\n    /* \"#utility.yul\":474:527   */\n  dup2\n  add\n  swap1\n    /* \"#utility.yul\":542:560   */\n  dup3\n  dup3\n  gt\n    /* \"#utility.yul\":562:584   */\n  dup2\n  dup4\n  lt\n    /* \"#utility.yul\":539:585   */\n  or\n    /* \"#utility.yul\":536:608   */\n  iszero\n  tag_33\n  jumpi\n    /* \"#utility.yul\":588:606   */\n  tag_33\n  tag_20\n  jump\t// in\ntag_33:\n    /* \"#utility.yul\":628:638   */\n  dup2\n    /* \"#utility.yul\":624:626   */\n  0x40\n    /* \"#utility.yul\":617:639   */\n  mstore\n    /* \"#utility.yul\":663:665   */\n  dup4\n    /* \"#utility.yul\":655:661   */\n  dup2\n    /* \"#utility.yul\":648:666   */\n  mstore\n    /* \"#utility.yul\":685:689   */\n  0x20\n    /* \"#utility.yul\":675:689   */\n  swap3\n  pop\n    /* \"#utility.yul\":732:735   */\n  dup7\n    /* \"#utility.yul\":725:729   */\n  0x20\n    /* \"#utility.yul\":720:722   */\n  dup6\n    /* \"#utility.yul\":712:718   */\n  dup9\n    /* \"#utility.yul\":708:723   */\n  add\n    /* \"#utility.yul\":704:730   */\n  add\n    /* \"#utility.yul\":701:736   */\n  gt\n    /* \"#utility.yul\":698:753   */\n  iszero\n  tag_34\n  jumpi\n    /* \"#utility.yul\":749:750   */\n  0x00\n    /* \"#utility.yul\":746:747   */\n  dup1\n    /* \"#utility.yul\":739:751   */\n  revert\n    /* \"#utility.yul\":698:753   */\ntag_34:\n    /* \"#utility.yul\":771:772   */\n  0x00\n    /* \"#utility.yul\":762:772   */\n  swap2\n  pop\n    /* \"#utility.yul\":781:914   */\ntag_35:\n    /* \"#utility.yul\":795:797   */\n  dup4\n    /* \"#utility.yul\":792:793   */\n  dup3\n    /* \"#utility.yul\":789:798   */\n  lt\n    /* \"#utility.yul\":781:914   */\n  iszero\n  tag_37\n  jumpi\n    /* \"#utility.yul\":883:897   */\n  dup6\n  dup3\n  add\n    /* \"#utility.yul\":879:902   */\n  dup4\n  add\n    /* \"#utility.yul\":873:903   */\n  mload\n    /* \"#utility.yul\":852:866   */\n  dup2\n  dup4\n  add\n    /* \"#utility.yul\":848:871   */\n  dup5\n  add\n    /* \"#utility.yul\":841:904   */\n  mstore\n    /* \"#utility.yul\":806:816   */\n  swap1\n  dup3\n  add\n  swap1\n    /* \"#utility.yul\":781:914   */\n  jump(tag_35)\ntag_37:\n    /* \"#utility.yul\":958:959   */\n  0x00\n    /* \"#utility.yul\":951:955   */\n  0x20\n    /* \"#utility.yul\":946:948   */\n  dup6\n    /* \"#utility.yul\":938:944   */\n  dup4\n    /* \"#utility.yul\":934:949   */\n  add\n    /* \"#utility.yul\":930:956   */\n  add\n    /* \"#utility.yul\":923:960   */\n  mstore\n    /* \"#utility.yul\":978:984   */\n  dup1\n    /* \"#utility.yul\":969:984   */\n  swap5\n  pop\n  pop\n  pop\n  pop\n  pop\n    /* \"#utility.yul\":146:990   */\n  swap3\n  swap2\n  pop\n  pop\n  jump\t// out\n    /* \"#utility.yul\":995:1886   */\ntag_3:\n    /* \"#utility.yul\":1111:1117   */\n  0x00\n    /* \"#utility.yul\":1119:1125   */\n  dup1\n    /* \"#utility.yul\":1127:1133   */\n  0x00\n    /* \"#utility.yul\":1135:1141   */\n  dup1\n    /* \"#utility.yul\":1188:1191   */\n  0x80\n    /* \"#utility.yul\":1176:1185   */\n  dup6\n    /* \"#utility.yul\":1167:1174   */\n  dup8\n    /* \"#utility.yul\":1163:1186   */\n  sub\n    /* \"#utility.yul\":1159:1192   */\n  slt\n    /* \"#utility.yul\":1156:1209   */\n  iszero\n  tag_39\n  jumpi\n    /* \"#utility.yul\":1205:1206   */\n  0x00\n    /* \"#utility.yul\":1202:1203   */\n  dup1\n    /* \"#utility.yul\":1195:1207   */\n  revert\n    /* \"#utility.yul\":1156:1209   */\ntag_39:\n    /* \"#utility.yul\":1237:1246   */\n  dup5\n    /* \"#utility.yul\":1231:1247   */\n  mload\n    /* \"#utility.yul\":1287:1293   */\n  0xffff\n    /* \"#utility.yul\":1280:1285   */\n  dup2\n    /* \"#utility.yul\":1276:1294   */\n  and\n    /* \"#utility.yul\":1269:1274   */\n  dup2\n    /* \"#utility.yul\":1266:1295   */\n  eq\n    /* \"#utility.yul\":1256:1313   */\n  tag_40\n  jumpi\n    /* \"#utility.yul\":1309:1310   */\n  0x00\n    /* \"#utility.yul\":1306:1307   */\n  dup1\n    /* \"#utility.yul\":1299:1311   */\n  revert\n    /* \"#utility.yul\":1256:1313   */\ntag_40:\n    /* \"#utility.yul\":1382:1384   */\n  0x20\n    /* \"#utility.yul\":1367:1385   */\n  dup7\n  add\n    /* \"#utility.yul\":1361:1386   */\n  mload\n    /* \"#utility.yul\":1332:1337   */\n  swap1\n  swap5\n  pop\n  sub(shl(0xa0, 0x01), 0x01)\n    /* \"#utility.yul\":1417:1450   */\n  dup2\n  and\n    /* \"#utility.yul\":1405:1451   */\n  dup2\n  eq\n    /* \"#utility.yul\":1395:1469   */\n  tag_41\n  jumpi\n    /* \"#utility.yul\":1465:1466   */\n  0x00\n    /* \"#utility.yul\":1462:1463   */\n  dup1\n    /* \"#utility.yul\":1455:1467   */\n  revert\n    /* \"#utility.yul\":1395:1469   */\ntag_41:\n    /* \"#utility.yul\":1539:1541   */\n  0x40\n    /* \"#utility.yul\":1524:1542   */\n  dup7\n  add\n    /* \"#utility.yul\":1518:1543   */\n  mload\n    /* \"#utility.yul\":1488:1495   */\n  swap1\n  swap4\n  pop\n  sub(shl(0x40, 0x01), 0x01)\n    /* \"#utility.yul\":1592:1606   */\n  dup1\n  dup3\n  gt\n    /* \"#utility.yul\":1589:1623   */\n  iszero\n  tag_42\n  jumpi\n    /* \"#utility.yul\":1619:1620   */\n  0x00\n    /* \"#utility.yul\":1616:1617   */\n  dup1\n    /* \"#utility.yul\":1609:1621   */\n  revert\n    /* \"#utility.yul\":1589:1623   */\ntag_42:\n    /* \"#utility.yul\":1642:1703   */\n  tag_43\n    /* \"#utility.yul\":1695:1702   */\n  dup9\n    /* \"#utility.yul\":1686:1692   */\n  dup4\n    /* \"#utility.yul\":1675:1684   */\n  dup10\n    /* \"#utility.yul\":1671:1693   */\n  add\n    /* \"#utility.yul\":1642:1703   */\n  tag_21\n  jump\t// in\ntag_43:\n    /* \"#utility.yul\":1632:1703   */\n  swap4\n  pop\n    /* \"#utility.yul\":1749:1751   */\n  0x60\n    /* \"#utility.yul\":1738:1747   */\n  dup8\n    /* \"#utility.yul\":1734:1752   */\n  add\n    /* \"#utility.yul\":1728:1753   */\n  mload\n    /* \"#utility.yul\":1712:1753   */\n  swap2\n  pop\n    /* \"#utility.yul\":1778:1780   */\n  dup1\n    /* \"#utility.yul\":1768:1776   */\n  dup3\n    /* \"#utility.yul\":1765:1781   */\n  gt\n    /* \"#utility.yul\":1762:1798   */\n  iszero\n  tag_44\n  jumpi\n    /* \"#utility.yul\":1794:1795   */\n  0x00\n    /* \"#utility.yul\":1791:1792   */\n  dup1\n    /* \"#utility.yul\":1784:1796   */\n  revert\n    /* \"#utility.yul\":1762:1798   */\ntag_44:\n  pop\n    /* \"#utility.yul\":1817:1880   */\n  tag_45\n    /* \"#utility.yul\":1872:1879   */\n  dup8\n    /* \"#utility.yul\":1861:1869   */\n  dup3\n    /* \"#utility.yul\":1850:1859   */\n  dup9\n    /* \"#utility.yul\":1846:1870   */\n  add\n    /* \"#utility.yul\":1817:1880   */\n  tag_21\n  jump\t// in\ntag_45:\n    /* \"#utility.yul\":1807:1880   */\n  swap2\n  pop\n  pop\n    /* \"#utility.yul\":995:1886   */\n  swap3\n  swap6\n  swap2\n  swap5\n  pop\n  swap3\n  pop\n  jump\t// out\n    /* \"#utility.yul\":1891:2271   */\ntag_22:\n    /* \"#utility.yul\":1970:1971   */\n  0x01\n    /* \"#utility.yul\":1966:1978   */\n  dup2\n  dup2\n  shr\n  swap1\n    /* \"#utility.yul\":2013:2025   */\n  dup3\n  and\n  dup1\n    /* \"#utility.yul\":2034:2095   */\n  tag_47\n  jumpi\n    /* \"#utility.yul\":2088:2092   */\n  0x7f\n    /* \"#utility.yul\":2080:2086   */\n  dup3\n    /* \"#utility.yul\":2076:2093   */\n  and\n    /* \"#utility.yul\":2066:2093   */\n  swap2\n  pop\n    /* \"#utility.yul\":2034:2095   */\ntag_47:\n    /* \"#utility.yul\":2141:2143   */\n  0x20\n    /* \"#utility.yul\":2133:2139   */\n  dup3\n    /* \"#utility.yul\":2130:2144   */\n  lt\n    /* \"#utility.yul\":2110:2128   */\n  dup2\n    /* \"#utility.yul\":2107:2145   */\n  sub\n    /* \"#utility.yul\":2104:2265   */\n  tag_48\n  jumpi\n    /* \"#utility.yul\":2187:2197   */\n  0x4e487b71\n    /* \"#utility.yul\":2182:2185   */\n  0xe0\n    /* \"#utility.yul\":2178:2198   */\n  shl\n    /* \"#utility.yul\":2175:2176   */\n  0x00\n    /* \"#utility.yul\":2168:2199   */\n  mstore\n    /* \"#utility.yul\":2222:2226   */\n  0x22\n    /* \"#utility.yul\":2219:2220   */\n  0x04\n    /* \"#utility.yul\":2212:2227   */\n  mstore\n    /* \"#utility.yul\":2250:2254   */\n  0x24\n    /* \"#utility.yul\":2247:2248   */\n  0x00\n    /* \"#utility.yul\":2240:2255   */\n  revert\n    /* \"#utility.yul\":2104:2265   */\ntag_48:\n  pop\n    /* \"#utility.yul\":1891:2271   */\n  swap2\n  swap1\n  pop\n  jump\t// out\n    /* \"#utility.yul\":2402:2920   */\ntag_24:\n    /* \"#utility.yul\":2504:2506   */\n  0x1f\n    /* \"#utility.yul\":2499:2502   */\n  dup3\n    /* \"#utility.yul\":2496:2507   */\n  gt\n    /* \"#utility.yul\":2493:2914   */\n  iszero\n  tag_51\n  jumpi\n    /* \"#utility.yul\":2540:2545   */\n  dup1\n    /* \"#utility.yul\":2537:2538   */\n  0x00\n    /* \"#utility.yul\":2530:2546   */\n  mstore\n    /* \"#utility.yul\":2584:2588   */\n  0x20\n    /* \"#utility.yul\":2581:2582   */\n  0x00\n    /* \"#utility.yul\":2571:2589   */\n  keccak256\n    /* \"#utility.yul\":2654:2656   */\n  0x1f\n    /* \"#utility.yul\":2642:2652   */\n  dup5\n    /* \"#utility.yul\":2638:2657   */\n  add\n    /* \"#utility.yul\":2635:2636   */\n  0x05\n    /* \"#utility.yul\":2631:2658   */\n  shr\n    /* \"#utility.yul\":2625:2629   */\n  dup2\n    /* \"#utility.yul\":2621:2659   */\n  add\n    /* \"#utility.yul\":2690:2694   */\n  0x20\n    /* \"#utility.yul\":2678:2688   */\n  dup6\n    /* \"#utility.yul\":2675:2695   */\n  lt\n    /* \"#utility.yul\":2672:2719   */\n  iszero\n  tag_52\n  jumpi\n  pop\n    /* \"#utility.yul\":2713:2717   */\n  dup1\n    /* \"#utility.yul\":2672:2719   */\ntag_52:\n    /* \"#utility.yul\":2768:2770   */\n  0x1f\n    /* \"#utility.yul\":2763:2766   */\n  dup5\n    /* \"#utility.yul\":2759:2771   */\n  add\n    /* \"#utility.yul\":2756:2757   */\n  0x05\n    /* \"#utility.yul\":2752:2772   */\n  shr\n    /* \"#utility.yul\":2746:2750   */\n  dup3\n    /* \"#utility.yul\":2742:2773   */\n  add\n    /* \"#utility.yul\":2732:2773   */\n  swap2\n  pop\n    /* \"#utility.yul\":2823:2904   */\ntag_53:\n    /* \"#utility.yul\":2841:2843   */\n  dup2\n    /* \"#utility.yul\":2834:2839   */\n  dup2\n    /* \"#utility.yul\":2831:2844   */\n  lt\n    /* \"#utility.yul\":2823:2904   */\n  iszero\n  tag_55\n  jumpi\n    /* \"#utility.yul\":2900:2901   */\n  0x00\n    /* \"#utility.yul\":2886:2902   */\n  dup2\n  sstore\n    /* \"#utility.yul\":2867:2868   */\n  0x01\n    /* \"#utility.yul\":2856:2869   */\n  add\n    /* \"#utility.yul\":2823:2904   */\n  jump(tag_53)\ntag_55:\n    /* \"#utility.yul\":2827:2830   */\n  pop\n  pop\n    /* \"#utility.yul\":2493:2914   */\ntag_51:\n    /* \"#utility.yul\":2402:2920   */\n  pop\n  pop\n  pop\n  jump\t// out\n    /* \"#utility.yul\":3096:4441   */\ntag_9:\n    /* \"#utility.yul\":3216:3226   */\n  dup2\n  mload\n  sub(shl(0x40, 0x01), 0x01)\n    /* \"#utility.yul\":3238:3268   */\n  dup2\n  gt\n    /* \"#utility.yul\":3235:3291   */\n  iszero\n  tag_59\n  jumpi\n    /* \"#utility.yul\":3271:3289   */\n  tag_59\n  tag_20\n  jump\t// in\ntag_59:\n    /* \"#utility.yul\":3300:3397   */\n  tag_60\n    /* \"#utility.yul\":3390:3396   */\n  dup2\n    /* \"#utility.yul\":3350:3388   */\n  tag_61\n    /* \"#utility.yul\":3382:3386   */\n  dup5\n    /* \"#utility.yul\":3376:3387   */\n  sload\n    /* \"#utility.yul\":3350:3388   */\n  tag_22\n  jump\t// in\ntag_61:\n    /* \"#utility.yul\":3344:3348   */\n  dup5\n    /* \"#utility.yul\":3300:3397   */\n  tag_24\n  jump\t// in\ntag_60:\n    /* \"#utility.yul\":3452:3456   */\n  0x20\n  dup1\n    /* \"#utility.yul\":3509:3511   */\n  0x1f\n    /* \"#utility.yul\":3498:3512   */\n  dup4\n  gt\n    /* \"#utility.yul\":3526:3527   */\n  0x01\n    /* \"#utility.yul\":3521:4184   */\n  dup2\n  eq\n  tag_63\n  jumpi\n    /* \"#utility.yul\":4228:4229   */\n  0x00\n    /* \"#utility.yul\":4245:4251   */\n  dup5\n    /* \"#utility.yul\":4242:4331   */\n  iszero\n  tag_64\n  jumpi\n  pop\n    /* \"#utility.yul\":4297:4316   */\n  dup6\n  dup4\n  add\n    /* \"#utility.yul\":4291:4317   */\n  mload\n    /* \"#utility.yul\":4242:4331   */\ntag_64:\n  not(0x00)\n    /* \"#utility.yul\":3053:3054   */\n  0x03\n    /* \"#utility.yul\":3049:3060   */\n  dup7\n  swap1\n  shl\n    /* \"#utility.yul\":3045:3069   */\n  shr\n    /* \"#utility.yul\":3041:3070   */\n  not\n    /* \"#utility.yul\":3031:3071   */\n  and\n    /* \"#utility.yul\":3077:3078   */\n  0x01\n    /* \"#utility.yul\":3073:3084   */\n  dup6\n  swap1\n  shl\n    /* \"#utility.yul\":3028:3085   */\n  or\n    /* \"#utility.yul\":4344:4425   */\n  dup6\n  sstore\n    /* \"#utility.yul\":3491:4435   */\n  jump(tag_62)\n    /* \"#utility.yul\":3521:4184   */\ntag_63:\n    /* \"#utility.yul\":2349:2350   */\n  0x00\n    /* \"#utility.yul\":2342:2356   */\n  dup6\n  dup2\n  mstore\n    /* \"#utility.yul\":2386:2390   */\n  0x20\n    /* \"#utility.yul\":2373:2391   */\n  dup2\n  keccak256\n  not(0x1f)\n    /* \"#utility.yul\":3557:3577   */\n  dup7\n  and\n  swap2\n    /* \"#utility.yul\":3675:3911   */\ntag_67:\n    /* \"#utility.yul\":3689:3696   */\n  dup3\n    /* \"#utility.yul\":3686:3687   */\n  dup2\n    /* \"#utility.yul\":3683:3697   */\n  lt\n    /* \"#utility.yul\":3675:3911   */\n  iszero\n  tag_69\n  jumpi\n    /* \"#utility.yul\":3778:3797   */\n  dup9\n  dup7\n  add\n    /* \"#utility.yul\":3772:3798   */\n  mload\n    /* \"#utility.yul\":3757:3799   */\n  dup3\n  sstore\n    /* \"#utility.yul\":3870:3897   */\n  swap5\n  dup5\n  add\n  swap5\n    /* \"#utility.yul\":3838:3839   */\n  0x01\n    /* \"#utility.yul\":3826:3840   */\n  swap1\n  swap2\n  add\n  swap1\n    /* \"#utility.yul\":3705:3724   */\n  dup5\n  add\n    /* \"#utility.yul\":3675:3911   */\n  jump(tag_67)\ntag_69:\n    /* \"#utility.yul\":3679:3682   */\n  pop\n    /* \"#utility.yul\":3939:3945   */\n  dup6\n    /* \"#utility.yul\":3930:3937   */\n  dup3\n    /* \"#utility.yul\":3927:3946   */\n  lt\n    /* \"#utility.yul\":3924:4125   */\n  iszero\n  tag_70\n  jumpi\n    /* \"#utility.yul\":4000:4019   */\n  dup8\n  dup6\n  add\n    /* \"#utility.yul\":3994:4020   */\n  mload\n  not(0x00)\n    /* \"#utility.yul\":4083:4084   */\n  0x03\n    /* \"#utility.yul\":4079:4093   */\n  dup9\n  swap1\n  shl\n    /* \"#utility.yul\":4095:4098   */\n  0xf8\n    /* \"#utility.yul\":4075:4099   */\n  and\n    /* \"#utility.yul\":4071:4108   */\n  shr\n    /* \"#utility.yul\":4067:4109   */\n  not\n    /* \"#utility.yul\":4052:4110   */\n  and\n    /* \"#utility.yul\":4037:4111   */\n  dup2\n  sstore\n    /* \"#utility.yul\":3924:4125   */\ntag_70:\n  pop\n  pop\n    /* \"#utility.yul\":4171:4172   */\n  0x01\n    /* \"#utility.yul\":4162:4168   */\n  dup5\n    /* \"#utility.yul\":4159:4160   */\n  0x01\n    /* \"#utility.yul\":4155:4169   */\n  shl\n    /* \"#utility.yul\":4151:4173   */\n  add\n    /* \"#utility.yul\":4145:4149   */\n  dup6\n    /* \"#utility.yul\":4138:4174   */\n  sstore\n    /* \"#utility.yul\":3491:4435   */\ntag_62:\n  pop\n  pop\n  pop\n  pop\n    /* \"#utility.yul\":3096:4441   */\n  pop\n  pop\n  jump\t// out\n    /* \"#utility.yul\":4446:4649   */\ntag_26:\n    /* \"WrappedAUC.sol\":407:8163  contract WrappedAUC is ERC20, Ownable, ILayerZeroReceiver {... */\n  mload(0x80)\n  codecopy(0x00, dataOffset(sub_0), dataSize(sub_0))\n  0x00\n  assignImmutable(\"0x705a6ef83029e2c8cd72d6aefd2a2bbc4a5113a33398eeb61dd1988b11595ae5\")\n  return(0x00, dataSize(sub_0))\nstop\n\nsub_0: assembly {\n        /* \"WrappedAUC.sol\":407:8163  contract WrappedAUC is ERC20, Ownable, ILayerZeroReceiver {... */\n      mstore(0x40, 0x80)\n      jumpi(tag_1, lt(calldatasize, 0x04))\n      shr(0xe0, calldataload(0x00))\n      dup1\n      0x8da5cb5b\n      gt\n      tag_30\n      jumpi\n      dup1\n      0xcbed8b9c\n      gt\n      tag_31\n      jumpi\n      dup1\n      0xe38c6802\n      gt\n      tag_32\n      jumpi\n      dup1\n      0xe38c6802\n      eq\n      tag_26\n      jumpi\n      dup1\n      0xe776ac5e\n      eq\n      tag_27\n      jumpi\n      dup1\n      0xeb8d72b7\n      eq\n      tag_28\n      jumpi\n      dup1\n      0xf2fde38b\n      eq\n      tag_29\n      jumpi\n      0x00\n      dup1\n      revert\n    tag_32:\n      dup1\n      0xcbed8b9c\n      eq\n      tag_23\n      jumpi\n      dup1\n      0xd26ed3e3\n      eq\n      tag_24\n      jumpi\n      dup1\n      0xdd62ed3e\n      eq\n      tag_25\n      jumpi\n      0x00\n      dup1\n      revert\n    tag_31:\n      dup1\n      0x95d89b41\n      gt\n      tag_33\n      jumpi\n      dup1\n      0x95d89b41\n      eq\n      tag_19\n      jumpi\n      dup1\n      0xa7170d48\n      eq\n      tag_20\n      jumpi\n      dup1\n      0xa9059cbb\n      eq\n      tag_21\n      jumpi\n      dup1\n      0xac447944\n      eq\n      tag_22\n      jumpi\n      0x00\n      dup1\n      revert\n    tag_33:\n      dup1\n      0x8da5cb5b\n      eq\n      tag_16\n      jumpi\n      dup1\n      0x935ec990\n      eq\n      tag_17\n      jumpi\n      dup1\n      0x94544e64\n      eq\n      tag_18\n      jumpi\n      0x00\n      dup1\n      revert\n    tag_30:\n      dup1\n      0x313ce567\n      gt\n      tag_34\n      jumpi\n      dup1\n      0x6f0e7470\n      gt\n      tag_35\n      jumpi\n      dup1\n      0x6f0e7470\n      eq\n      tag_12\n      jumpi\n      dup1\n      0x70a08231\n      eq\n      tag_13\n      jumpi\n      dup1\n      0x715018a6\n      eq\n      tag_14\n      jumpi\n      dup1\n      0x74f079b8\n      eq\n      tag_15\n      jumpi\n      0x00\n      dup1\n      revert\n    tag_35:\n      dup1\n      0x313ce567\n      eq\n      tag_9\n      jumpi\n      dup1\n      0x42d65a8d\n      eq\n      tag_10\n      jumpi\n      dup1\n      0x5e280f11\n      eq\n      tag_11\n      jumpi\n      0x00\n      dup1\n      revert\n    tag_34:\n      dup1\n      0x095ea7b3\n      gt\n      tag_36\n      jumpi\n      dup1\n      0x095ea7b3\n      eq\n      tag_5\n      jumpi\n      dup1\n      0x10ddb137\n      eq\n      tag_6\n      jumpi\n      dup1\n      0x18160ddd\n      eq\n      tag_7\n      jumpi\n      dup1\n      0x23b872dd\n      eq\n      tag_8\n      jumpi\n      0x00\n      dup1\n      revert\n    tag_36:\n      dup1\n      0x1d3567\n      eq\n      tag_2\n      jumpi\n      dup1\n      0x06fdde03\n      eq\n      tag_3\n      jumpi\n      dup1\n      0x07e0db17\n      eq\n      tag_4\n      jumpi\n    tag_1:\n      0x00\n      dup1\n      revert\n        /* \"WrappedAUC.sol\":7397:8161  function lzReceive(uint16 _srcChainId, bytes calldata _srcAddress, uint64 _nonce, bytes calldata _payload)... */\n    tag_2:\n      callvalue\n      dup1\n      iszero\n      tag_37\n      jumpi\n      0x00\n      dup1\n      revert\n    tag_37:\n      pop\n      tag_38\n      tag_39\n      calldatasize\n      0x04\n      tag_40\n      jump\t// in\n    tag_39:\n      tag_41\n      jump\t// in\n    tag_38:\n      stop\n        /* \"@openzeppelin/contracts/token/ERC20/ERC20.sol\":2074:2163  function name() public view virtual returns (string memory) {... */\n    tag_3:\n      callvalue\n      dup1\n      iszero\n      tag_42\n      jumpi\n      0x00\n      dup1\n      revert\n    tag_42:\n      pop\n      tag_43\n      tag_44\n      jump\t// in\n    tag_43:\n      mload(0x40)\n      tag_45\n      swap2\n      swap1\n      tag_46\n      jump\t// in\n    tag_45:\n      mload(0x40)\n      dup1\n      swap2\n      sub\n      swap1\n      return\n        /* \"WrappedAUC.sol\":5904:6014  function setSendVersion(uint16 _version) external onlyOwner {... */\n    tag_4:\n      callvalue\n      dup1\n      iszero\n      tag_47\n      jumpi\n      0x00\n      dup1\n      revert\n    tag_47:\n      pop\n      tag_38\n      tag_49\n      calldatasize\n      0x04\n      tag_50\n      jump\t// in\n    tag_49:\n      tag_51\n      jump\t// in\n        /* \"@openzeppelin/contracts/token/ERC20/ERC20.sol\":4293:4479  function approve(address spender, uint256 value) public virtual returns (bool) {... */\n    tag_5:\n      callvalue\n      dup1\n      iszero\n      tag_52\n      jumpi\n      0x00\n      dup1\n      revert\n    tag_52:\n      pop\n      tag_53\n      tag_54\n      calldatasize\n      0x04\n      tag_55\n      jump\t// in\n    tag_54:\n      tag_56\n      jump\t// in\n    tag_53:\n      mload(0x40)\n        /* \"#utility.yul\":3036:3050   */\n      swap1\n      iszero\n        /* \"#utility.yul\":3029:3051   */\n      iszero\n        /* \"#utility.yul\":3011:3052   */\n      dup2\n      mstore\n        /* \"#utility.yul\":2999:3001   */\n      0x20\n        /* \"#utility.yul\":2984:3002   */\n      add\n        /* \"@openzeppelin/contracts/token/ERC20/ERC20.sol\":4293:4479  function approve(address spender, uint256 value) public virtual returns (bool) {... */\n      tag_45\n        /* \"#utility.yul\":2871:3058   */\n      jump\n        /* \"WrappedAUC.sol\":6020:6136  function setReceiveVersion(uint16 _version) external onlyOwner {... */\n    tag_6:\n      callvalue\n      dup1\n      iszero\n      tag_59\n      jumpi\n      0x00\n      dup1\n      revert\n    tag_59:\n      pop\n      tag_38\n      tag_61\n      calldatasize\n      0x04\n      tag_50\n      jump\t// in\n    tag_61:\n      tag_62\n      jump\t// in\n        /* \"@openzeppelin/contracts/token/ERC20/ERC20.sol\":3144:3241  function totalSupply() public view virtual returns (uint256) {... */\n    tag_7:\n      callvalue\n      dup1\n      iszero\n      tag_63\n      jumpi\n      0x00\n      dup1\n      revert\n    tag_63:\n      pop\n        /* \"@openzeppelin/contracts/token/ERC20/ERC20.sol\":3222:3234  _totalSupply */\n      sload(0x02)\n        /* \"@openzeppelin/contracts/token/ERC20/ERC20.sol\":3144:3241  function totalSupply() public view virtual returns (uint256) {... */\n    tag_64:\n      mload(0x40)\n        /* \"#utility.yul\":3209:3234   */\n      swap1\n      dup2\n      mstore\n        /* \"#utility.yul\":3197:3199   */\n      0x20\n        /* \"#utility.yul\":3182:3200   */\n      add\n        /* \"@openzeppelin/contracts/token/ERC20/ERC20.sol\":3144:3241  function totalSupply() public view virtual returns (uint256) {... */\n      tag_45\n        /* \"#utility.yul\":3063:3240   */\n      jump\n        /* \"@openzeppelin/contracts/token/ERC20/ERC20.sol\":5039:5283  function transferFrom(address from, address to, uint256 value) public virtual returns (bool) {... */\n    tag_8:\n      callvalue\n      dup1\n      iszero\n      tag_68\n      jumpi\n      0x00\n      dup1\n      revert\n    tag_68:\n      pop\n      tag_53\n      tag_70\n      calldatasize\n      0x04\n      tag_71\n      jump\t// in\n    tag_70:\n      tag_72\n      jump\t// in\n        /* \"@openzeppelin/contracts/token/ERC20/ERC20.sol\":3002:3084  function decimals() public view virtual returns (uint8) {... */\n    tag_9:\n      callvalue\n      dup1\n      iszero\n      tag_74\n      jumpi\n      0x00\n      dup1\n      revert\n    tag_74:\n      pop\n      mload(0x40)\n        /* \"@openzeppelin/contracts/token/ERC20/ERC20.sol\":3075:3077  18 */\n      0x12\n        /* \"#utility.yul\":3848:3884   */\n      dup2\n      mstore\n        /* \"#utility.yul\":3836:3838   */\n      0x20\n        /* \"#utility.yul\":3821:3839   */\n      add\n        /* \"@openzeppelin/contracts/token/ERC20/ERC20.sol\":3002:3084  function decimals() public view virtual returns (uint8) {... */\n      tag_45\n        /* \"#utility.yul\":3706:3890   */\n      jump\n        /* \"WrappedAUC.sol\":6142:6307  function forceResumeReceive(uint16 _srcChainId, bytes calldata _srcAddress) external onlyOwner {... */\n    tag_10:\n      callvalue\n      dup1\n      iszero\n      tag_79\n      jumpi\n      0x00\n      dup1\n      revert\n    tag_79:\n      pop\n      tag_38\n      tag_81\n      calldatasize\n      0x04\n      tag_82\n      jump\t// in\n    tag_81:\n      tag_83\n      jump\t// in\n        /* \"WrappedAUC.sol\":760:794  ILayerZeroEndpoint public endpoint */\n    tag_11:\n      callvalue\n      dup1\n      iszero\n      tag_84\n      jumpi\n      0x00\n      dup1\n      revert\n    tag_84:\n      pop\n      sload(0x06)\n      tag_85\n      swap1\n      sub(shl(0xa0, 0x01), 0x01)\n      and\n      dup2\n      jump\n    tag_85:\n      mload(0x40)\n      sub(shl(0xa0, 0x01), 0x01)\n        /* \"#utility.yul\":4572:4604   */\n      swap1\n      swap2\n      and\n        /* \"#utility.yul\":4554:4605   */\n      dup2\n      mstore\n        /* \"#utility.yul\":4542:4544   */\n      0x20\n        /* \"#utility.yul\":4527:4545   */\n      add\n        /* \"WrappedAUC.sol\":760:794  ILayerZeroEndpoint public endpoint */\n      tag_45\n        /* \"#utility.yul\":4381:4611   */\n      jump\n        /* \"WrappedAUC.sol\":3245:4280  function xChainTransfer(address _receiver, uint256 _amount, uint16 _dstChainId, bytes memory _adapterParams)... */\n    tag_12:\n      tag_38\n      tag_90\n      calldatasize\n      0x04\n      tag_91\n      jump\t// in\n    tag_90:\n      tag_92\n      jump\t// in\n        /* \"@openzeppelin/contracts/token/ERC20/ERC20.sol\":3299:3415  function balanceOf(address account) public view virtual returns (uint256) {... */\n    tag_13:\n      callvalue\n      dup1\n      iszero\n      tag_93\n      jumpi\n      0x00\n      dup1\n      revert\n    tag_93:\n      pop\n      tag_64\n      tag_95\n      calldatasize\n      0x04\n      tag_96\n      jump\t// in\n    tag_95:\n      sub(shl(0xa0, 0x01), 0x01)\n        /* \"@openzeppelin/contracts/token/ERC20/ERC20.sol\":3390:3408  _balances[account] */\n      and\n        /* \"@openzeppelin/contracts/token/ERC20/ERC20.sol\":3364:3371  uint256 */\n      0x00\n        /* \"@openzeppelin/contracts/token/ERC20/ERC20.sol\":3390:3408  _balances[account] */\n      swap1\n      dup2\n      mstore\n      0x20\n      dup2\n      swap1\n      mstore\n      0x40\n      swap1\n      keccak256\n      sload\n      swap1\n        /* \"@openzeppelin/contracts/token/ERC20/ERC20.sol\":3299:3415  function balanceOf(address account) public view virtual returns (uint256) {... */\n      jump\n        /* \"@openzeppelin/contracts/access/Ownable.sol\":2293:2394  function renounceOwnership() public virtual onlyOwner {... */\n    tag_14:\n      callvalue\n      dup1\n      iszero\n      tag_99\n      jumpi\n      0x00\n      dup1\n      revert\n    tag_99:\n      pop\n      tag_38\n      tag_101\n      jump\t// in\n        /* \"WrappedAUC.sol\":929:953  uint256 public txCounter */\n    tag_15:\n      callvalue\n      dup1\n      iszero\n      tag_102\n      jumpi\n      0x00\n      dup1\n      revert\n    tag_102:\n      pop\n      tag_64\n      sload(0x08)\n      dup2\n      jump\n        /* \"@openzeppelin/contracts/access/Ownable.sol\":1638:1723  function owner() public view virtual returns (address) {... */\n    tag_16:\n      callvalue\n      dup1\n      iszero\n      tag_106\n      jumpi\n      0x00\n      dup1\n      revert\n    tag_106:\n      pop\n        /* \"@openzeppelin/contracts/access/Ownable.sol\":1710:1716  _owner */\n      and(sub(shl(0xa0, 0x01), 0x01), sload(0x05))\n        /* \"@openzeppelin/contracts/access/Ownable.sol\":1638:1723  function owner() public view virtual returns (address) {... */\n      jump(tag_85)\n        /* \"WrappedAUC.sol\":654:689  uint16 public immutable LZ_CHAIN_ID */\n    tag_17:\n      callvalue\n      dup1\n      iszero\n      tag_111\n      jumpi\n      0x00\n      dup1\n      revert\n    tag_111:\n      pop\n      tag_112\n      immutable(\"0x705a6ef83029e2c8cd72d6aefd2a2bbc4a5113a33398eeb61dd1988b11595ae5\")\n      dup2\n      jump\n    tag_112:\n      mload(0x40)\n        /* \"#utility.yul\":6815:6821   */\n      0xffff\n        /* \"#utility.yul\":6803:6822   */\n      swap1\n      swap2\n      and\n        /* \"#utility.yul\":6785:6823   */\n      dup2\n      mstore\n        /* \"#utility.yul\":6773:6775   */\n      0x20\n        /* \"#utility.yul\":6758:6776   */\n      add\n        /* \"WrappedAUC.sol\":654:689  uint16 public immutable LZ_CHAIN_ID */\n      tag_45\n        /* \"#utility.yul\":6641:6829   */\n      jump\n        /* \"WrappedAUC.sol\":1147:1185  uint256 public transferFeePercent = 50 */\n    tag_18:\n      callvalue\n      dup1\n      iszero\n      tag_116\n      jumpi\n      0x00\n      dup1\n      revert\n    tag_116:\n      pop\n      tag_64\n      sload(0x0a)\n      dup2\n      jump\n        /* \"@openzeppelin/contracts/token/ERC20/ERC20.sol\":2276:2369  function symbol() public view virtual returns (string memory) {... */\n    tag_19:\n      callvalue\n      dup1\n      iszero\n      tag_120\n      jumpi\n      0x00\n      dup1\n      revert\n    tag_120:\n      pop\n      tag_43\n      tag_122\n      jump\t// in\n        /* \"WrappedAUC.sol\":4599:4831  function updateEndpoint(address _newEndpoint) external onlyOwner {... */\n    tag_20:\n      callvalue\n      dup1\n      iszero\n      tag_124\n      jumpi\n      0x00\n      dup1\n      revert\n    tag_124:\n      pop\n      tag_38\n      tag_126\n      calldatasize\n      0x04\n      tag_96\n      jump\t// in\n    tag_126:\n      tag_127\n      jump\t// in\n        /* \"@openzeppelin/contracts/token/ERC20/ERC20.sol\":3610:3788  function transfer(address to, uint256 value) public virtual returns (bool) {... */\n    tag_21:\n      callvalue\n      dup1\n      iszero\n      tag_128\n      jumpi\n      0x00\n      dup1\n      revert\n    tag_128:\n      pop\n      tag_53\n      tag_130\n      calldatasize\n      0x04\n      tag_55\n      jump\t// in\n    tag_130:\n      tag_131\n      jump\t// in\n        /* \"WrappedAUC.sol\":837:882  mapping(uint16 => bytes) public trustedRemote */\n    tag_22:\n      callvalue\n      dup1\n      iszero\n      tag_133\n      jumpi\n      0x00\n      dup1\n      revert\n    tag_133:\n      pop\n      tag_43\n      tag_135\n      calldatasize\n      0x04\n      tag_50\n      jump\t// in\n    tag_135:\n      tag_136\n      jump\t// in\n        /* \"WrappedAUC.sol\":5684:5898  function setConfig(uint16 _version, uint16 _chainId, uint256 _configType, bytes calldata _config)... */\n    tag_23:\n      callvalue\n      dup1\n      iszero\n      tag_139\n      jumpi\n      0x00\n      dup1\n      revert\n    tag_139:\n      pop\n      tag_38\n      tag_141\n      calldatasize\n      0x04\n      tag_142\n      jump\t// in\n    tag_141:\n      tag_143\n      jump\t// in\n        /* \"WrappedAUC.sol\":5379:5619  function setTransferFees(uint256 _transferFeePercent) external onlyOwner {... */\n    tag_24:\n      callvalue\n      dup1\n      iszero\n      tag_144\n      jumpi\n      0x00\n      dup1\n      revert\n    tag_144:\n      pop\n      tag_38\n      tag_146\n      calldatasize\n      0x04\n      tag_147\n      jump\t// in\n    tag_146:\n      tag_148\n      jump\t// in\n        /* \"@openzeppelin/contracts/token/ERC20/ERC20.sol\":3846:3986  function allowance(address owner, address spender) public view virtual returns (uint256) {... */\n    tag_25:\n      callvalue\n      dup1\n      iszero\n      tag_149\n      jumpi\n      0x00\n      dup1\n      revert\n    tag_149:\n      pop\n      tag_64\n      tag_151\n      calldatasize\n      0x04\n      tag_152\n      jump\t// in\n    tag_151:\n      sub(shl(0xa0, 0x01), 0x01)\n        /* \"@openzeppelin/contracts/token/ERC20/ERC20.sol\":3952:3970  _allowances[owner] */\n      swap2\n      dup3\n      and\n        /* \"@openzeppelin/contracts/token/ERC20/ERC20.sol\":3926:3933  uint256 */\n      0x00\n        /* \"@openzeppelin/contracts/token/ERC20/ERC20.sol\":3952:3970  _allowances[owner] */\n      swap1\n      dup2\n      mstore\n        /* \"@openzeppelin/contracts/token/ERC20/ERC20.sol\":3952:3963  _allowances */\n      0x01\n        /* \"@openzeppelin/contracts/token/ERC20/ERC20.sol\":3952:3970  _allowances[owner] */\n      0x20\n      swap1\n      dup2\n      mstore\n      0x40\n      dup1\n      dup4\n      keccak256\n        /* \"@openzeppelin/contracts/token/ERC20/ERC20.sol\":3952:3979  _allowances[owner][spender] */\n      swap4\n      swap1\n      swap5\n      and\n      dup3\n      mstore\n      swap2\n      swap1\n      swap2\n      mstore\n      keccak256\n      sload\n      swap1\n        /* \"@openzeppelin/contracts/token/ERC20/ERC20.sol\":3846:3986  function allowance(address owner, address spender) public view virtual returns (uint256) {... */\n      jump\n        /* \"WrappedAUC.sol\":1027:1106  mapping(bytes => mapping(uint16 => mapping(uint64 => bool))) public nonceStatus */\n    tag_26:\n      callvalue\n      dup1\n      iszero\n      tag_155\n      jumpi\n      0x00\n      dup1\n      revert\n    tag_155:\n      pop\n      tag_53\n      tag_157\n      calldatasize\n      0x04\n      tag_158\n      jump\t// in\n    tag_157:\n      dup3\n      mload\n      0x20\n      dup2\n      dup6\n      add\n      dup2\n      add\n      dup1\n      mload\n      0x09\n      dup3\n      mstore\n      swap3\n      dup3\n      add\n      swap6\n      dup3\n      add\n      swap6\n      swap1\n      swap6\n      keccak256\n      swap2\n      swap1\n      swap5\n      mstore\n      dup4\n      mstore\n      0x00\n      swap2\n      dup3\n      mstore\n      0x40\n      dup1\n      dup4\n      keccak256\n      swap1\n      swap4\n      mstore\n      dup2\n      mstore\n      keccak256\n      sload\n      0xff\n      and\n      dup2\n      jump\n        /* \"WrappedAUC.sol\":6500:6878  function estimateFees(address _receiver, uint256 _amount, uint16 _dstChainId, bytes memory _adapterParams)... */\n    tag_27:\n      callvalue\n      dup1\n      iszero\n      tag_161\n      jumpi\n      0x00\n      dup1\n      revert\n    tag_161:\n      pop\n      tag_64\n      tag_163\n      calldatasize\n      0x04\n      tag_91\n      jump\t// in\n    tag_163:\n      tag_164\n      jump\t// in\n        /* \"WrappedAUC.sol\":5021:5240  function setTrustedRemote(uint16 _dstChainId, bytes memory _trustedRemote) external onlyOwner {... */\n    tag_28:\n      callvalue\n      dup1\n      iszero\n      tag_166\n      jumpi\n      0x00\n      dup1\n      revert\n    tag_166:\n      pop\n      tag_38\n      tag_168\n      calldatasize\n      0x04\n      tag_169\n      jump\t// in\n    tag_168:\n      tag_170\n      jump\t// in\n        /* \"@openzeppelin/contracts/access/Ownable.sol\":2543:2758  function transferOwnership(address newOwner) public virtual onlyOwner {... */\n    tag_29:\n      callvalue\n      dup1\n      iszero\n      tag_171\n      jumpi\n      0x00\n      dup1\n      revert\n    tag_171:\n      pop\n      tag_38\n      tag_173\n      calldatasize\n      0x04\n      tag_96\n      jump\t// in\n    tag_173:\n      tag_174\n      jump\t// in\n        /* \"WrappedAUC.sol\":7397:8161  function lzReceive(uint16 _srcChainId, bytes calldata _srcAddress, uint64 _nonce, bytes calldata _payload)... */\n    tag_41:\n        /* \"WrappedAUC.sol\":1436:1444  endpoint */\n      and(sub(shl(0xa0, 0x01), 0x01), sload(0x06))\n        /* \"WrappedAUC.sol\":1414:1424  msg.sender */\n      caller\n        /* \"WrappedAUC.sol\":1414:1445  msg.sender == address(endpoint) */\n      eq\n        /* \"WrappedAUC.sol\":1406:1477  require(msg.sender == address(endpoint), \"wrapper/caller-not-endpoint\") */\n      tag_176\n      jumpi\n      mload(0x40)\n      shl(0xe5, 0x461bcd)\n      dup2\n      mstore\n        /* \"#utility.yul\":9330:9332   */\n      0x20\n        /* \"WrappedAUC.sol\":1406:1477  require(msg.sender == address(endpoint), \"wrapper/caller-not-endpoint\") */\n      0x04\n      dup3\n      add\n        /* \"#utility.yul\":9312:9333   */\n      mstore\n        /* \"#utility.yul\":9369:9371   */\n      0x1b\n        /* \"#utility.yul\":9349:9367   */\n      0x24\n      dup3\n      add\n        /* \"#utility.yul\":9342:9372   */\n      mstore\n        /* \"#utility.yul\":9408:9437   */\n      0x777261707065722f63616c6c65722d6e6f742d656e64706f696e740000000000\n        /* \"#utility.yul\":9388:9406   */\n      0x44\n      dup3\n      add\n        /* \"#utility.yul\":9381:9438   */\n      mstore\n        /* \"#utility.yul\":9455:9473   */\n      0x64\n      add\n        /* \"WrappedAUC.sol\":1406:1477  require(msg.sender == address(endpoint), \"wrapper/caller-not-endpoint\") */\n    tag_177:\n      mload(0x40)\n      dup1\n      swap2\n      sub\n      swap1\n      revert\n    tag_176:\n        /* \"WrappedAUC.sol\":7586:7612  trustedRemote[_srcChainId] */\n      0xffff\n      dup7\n      and\n      0x00\n      swap1\n      dup2\n      mstore\n        /* \"WrappedAUC.sol\":7586:7599  trustedRemote */\n      0x07\n        /* \"WrappedAUC.sol\":7586:7612  trustedRemote[_srcChainId] */\n      0x20\n      mstore\n      0x40\n      swap1\n      keccak256\n        /* \"WrappedAUC.sol\":7586:7619  trustedRemote[_srcChainId].length */\n      dup1\n      sload\n      tag_180\n      swap1\n      tag_181\n      jump\t// in\n    tag_180:\n        /* \"WrappedAUC.sol\":7564:7619  _srcAddress.length == trustedRemote[_srcChainId].length */\n      dup6\n      eq\n      swap1\n      pop\n        /* \"WrappedAUC.sol\":7556:7657  require(_srcAddress.length == trustedRemote[_srcChainId].length, \"wrapper/invalid-src-sender-length\") */\n      tag_182\n      jumpi\n      mload(0x40)\n      shl(0xe5, 0x461bcd)\n      dup2\n      mstore\n        /* \"#utility.yul\":10071:10073   */\n      0x20\n        /* \"WrappedAUC.sol\":7556:7657  require(_srcAddress.length == trustedRemote[_srcChainId].length, \"wrapper/invalid-src-sender-length\") */\n      0x04\n      dup3\n      add\n        /* \"#utility.yul\":10053:10074   */\n      mstore\n        /* \"#utility.yul\":10110:10112   */\n      0x21\n        /* \"#utility.yul\":10090:10108   */\n      0x24\n      dup3\n      add\n        /* \"#utility.yul\":10083:10113   */\n      mstore\n        /* \"#utility.yul\":10149:10183   */\n      0x777261707065722f696e76616c69642d7372632d73656e6465722d6c656e6774\n        /* \"#utility.yul\":10129:10147   */\n      0x44\n      dup3\n      add\n        /* \"#utility.yul\":10122:10184   */\n      mstore\n      shl(0xfb, 0x0d)\n        /* \"#utility.yul\":10200:10218   */\n      0x64\n      dup3\n      add\n        /* \"#utility.yul\":10193:10224   */\n      mstore\n        /* \"#utility.yul\":10241:10260   */\n      0x84\n      add\n        /* \"WrappedAUC.sol\":7556:7657  require(_srcAddress.length == trustedRemote[_srcChainId].length, \"wrapper/invalid-src-sender-length\") */\n      tag_177\n        /* \"#utility.yul\":9869:10266   */\n      jump\n        /* \"WrappedAUC.sol\":7556:7657  require(_srcAddress.length == trustedRemote[_srcChainId].length, \"wrapper/invalid-src-sender-length\") */\n    tag_182:\n        /* \"WrappedAUC.sol\":7711:7737  trustedRemote[_srcChainId] */\n      0xffff\n      dup7\n      and\n      0x00\n      swap1\n      dup2\n      mstore\n        /* \"WrappedAUC.sol\":7711:7724  trustedRemote */\n      0x07\n        /* \"WrappedAUC.sol\":7711:7737  trustedRemote[_srcChainId] */\n      0x20\n      mstore\n      0x40\n      swap1\n      dup2\n      swap1\n      keccak256\n        /* \"WrappedAUC.sol\":7701:7738  keccak256(trustedRemote[_srcChainId]) */\n      swap1\n      mload\n      tag_185\n      swap2\n        /* \"WrappedAUC.sol\":7711:7737  trustedRemote[_srcChainId] */\n      swap1\n        /* \"WrappedAUC.sol\":7701:7738  keccak256(trustedRemote[_srcChainId]) */\n      tag_186\n      jump\t// in\n    tag_185:\n      mload(0x40)\n      dup1\n      swap2\n      sub\n      swap1\n      keccak256\n        /* \"WrappedAUC.sol\":7685:7696  _srcAddress */\n      dup6\n      dup6\n        /* \"WrappedAUC.sol\":7675:7697  keccak256(_srcAddress) */\n      mload(0x40)\n      tag_187\n      swap3\n      swap2\n      swap1\n      tag_188\n      jump\t// in\n    tag_187:\n      mload(0x40)\n      dup1\n      swap2\n      sub\n      swap1\n      keccak256\n        /* \"WrappedAUC.sol\":7675:7738  keccak256(_srcAddress) == keccak256(trustedRemote[_srcChainId]) */\n      eq\n        /* \"WrappedAUC.sol\":7667:7769  require(keccak256(_srcAddress) == keccak256(trustedRemote[_srcChainId]), \"wrapper/invalid-src-sender\") */\n      tag_189\n      jumpi\n      mload(0x40)\n      shl(0xe5, 0x461bcd)\n      dup2\n      mstore\n        /* \"#utility.yul\":11720:11722   */\n      0x20\n        /* \"WrappedAUC.sol\":7667:7769  require(keccak256(_srcAddress) == keccak256(trustedRemote[_srcChainId]), \"wrapper/invalid-src-sender\") */\n      0x04\n      dup3\n      add\n        /* \"#utility.yul\":11702:11723   */\n      mstore\n        /* \"#utility.yul\":11759:11761   */\n      0x1a\n        /* \"#utility.yul\":11739:11757   */\n      0x24\n      dup3\n      add\n        /* \"#utility.yul\":11732:11762   */\n      mstore\n        /* \"#utility.yul\":11798:11826   */\n      0x777261707065722f696e76616c69642d7372632d73656e646572000000000000\n        /* \"#utility.yul\":11778:11796   */\n      0x44\n      dup3\n      add\n        /* \"#utility.yul\":11771:11827   */\n      mstore\n        /* \"#utility.yul\":11844:11862   */\n      0x64\n      add\n        /* \"WrappedAUC.sol\":7667:7769  require(keccak256(_srcAddress) == keccak256(trustedRemote[_srcChainId]), \"wrapper/invalid-src-sender\") */\n      tag_177\n        /* \"#utility.yul\":11518:11868   */\n      jump\n        /* \"WrappedAUC.sol\":7667:7769  require(keccak256(_srcAddress) == keccak256(trustedRemote[_srcChainId]), \"wrapper/invalid-src-sender\") */\n    tag_189:\n        /* \"WrappedAUC.sol\":7788:7799  nonceStatus */\n      0x09\n        /* \"WrappedAUC.sol\":7800:7811  _srcAddress */\n      dup6\n      dup6\n        /* \"WrappedAUC.sol\":7788:7812  nonceStatus[_srcAddress] */\n      mload(0x40)\n      tag_192\n      swap3\n      swap2\n      swap1\n      tag_188\n      jump\t// in\n    tag_192:\n      swap1\n      dup2\n      mstore\n      0x40\n      dup1\n      mload\n      0x20\n      swap3\n      dup2\n      swap1\n      sub\n      dup4\n      add\n      swap1\n      keccak256\n        /* \"WrappedAUC.sol\":7788:7825  nonceStatus[_srcAddress][_srcChainId] */\n      0xffff\n      dup10\n      and\n      0x00\n      swap1\n      dup2\n      mstore\n      swap1\n      dup4\n      mstore\n      dup2\n      dup2\n      keccak256\n        /* \"WrappedAUC.sol\":7788:7833  nonceStatus[_srcAddress][_srcChainId][_nonce] */\n      0xffffffffffffffff\n      dup8\n      and\n      dup3\n      mstore\n      swap1\n      swap3\n      mstore\n      swap1\n      keccak256\n      sload\n      0xff\n      and\n        /* \"WrappedAUC.sol\":7787:7833  !nonceStatus[_srcAddress][_srcChainId][_nonce] */\n      iszero\n        /* \"WrappedAUC.sol\":7779:7859  require(!nonceStatus[_srcAddress][_srcChainId][_nonce], \"wrapper/invalid-nonce\") */\n      tag_193\n      jumpi\n      mload(0x40)\n      shl(0xe5, 0x461bcd)\n      dup2\n      mstore\n        /* \"#utility.yul\":12075:12077   */\n      0x20\n        /* \"WrappedAUC.sol\":7779:7859  require(!nonceStatus[_srcAddress][_srcChainId][_nonce], \"wrapper/invalid-nonce\") */\n      0x04\n      dup3\n      add\n        /* \"#utility.yul\":12057:12078   */\n      mstore\n        /* \"#utility.yul\":12114:12116   */\n      0x15\n        /* \"#utility.yul\":12094:12112   */\n      0x24\n      dup3\n      add\n        /* \"#utility.yul\":12087:12117   */\n      mstore\n      shl(0x58, 0x777261707065722f696e76616c69642d6e6f6e6365)\n        /* \"#utility.yul\":12133:12151   */\n      0x44\n      dup3\n      add\n        /* \"#utility.yul\":12126:12177   */\n      mstore\n        /* \"#utility.yul\":12194:12212   */\n      0x64\n      add\n        /* \"WrappedAUC.sol\":7779:7859  require(!nonceStatus[_srcAddress][_srcChainId][_nonce], \"wrapper/invalid-nonce\") */\n      tag_177\n        /* \"#utility.yul\":11873:12218   */\n      jump\n        /* \"WrappedAUC.sol\":7779:7859  require(!nonceStatus[_srcAddress][_srcChainId][_nonce], \"wrapper/invalid-nonce\") */\n    tag_193:\n        /* \"WrappedAUC.sol\":7918:7922  true */\n      0x01\n        /* \"WrappedAUC.sol\":7870:7881  nonceStatus */\n      0x09\n        /* \"WrappedAUC.sol\":7882:7893  _srcAddress */\n      dup7\n      dup7\n        /* \"WrappedAUC.sol\":7870:7894  nonceStatus[_srcAddress] */\n      mload(0x40)\n      tag_196\n      swap3\n      swap2\n      swap1\n      tag_188\n      jump\t// in\n    tag_196:\n      swap1\n      dup2\n      mstore\n      0x40\n      dup1\n      mload\n      0x20\n      swap3\n      dup2\n      swap1\n      sub\n      dup4\n      add\n      swap1\n      keccak256\n        /* \"WrappedAUC.sol\":7870:7907  nonceStatus[_srcAddress][_srcChainId] */\n      0xffff\n      dup11\n      and\n      0x00\n      swap1\n      dup2\n      mstore\n      swap1\n      dup4\n      mstore\n      dup2\n      dup2\n      keccak256\n        /* \"WrappedAUC.sol\":7870:7915  nonceStatus[_srcAddress][_srcChainId][_nonce] */\n      0xffffffffffffffff\n      dup9\n      and\n      dup3\n      mstore\n      swap1\n      swap3\n      mstore\n      dup2\n      keccak256\n        /* \"WrappedAUC.sol\":7870:7922  nonceStatus[_srcAddress][_srcChainId][_nonce] = true */\n      dup1\n      sload\n      not(0xff)\n      and\n      swap3\n      iszero\n      iszero\n      swap3\n      swap1\n      swap3\n      or\n      swap1\n      swap2\n      sstore\n        /* \"WrappedAUC.sol\":7870:7907  nonceStatus[_srcAddress][_srcChainId] */\n      dup1\n      dup1\n        /* \"WrappedAUC.sol\":7986:8035  abi.decode(_payload, (address, uint256, uint256)) */\n      tag_197\n      dup6\n      dup6\n      add\n      dup7\n      tag_198\n      jump\t// in\n    tag_197:\n        /* \"WrappedAUC.sol\":7932:8035  (address receiver, uint256 amount, uint256 srcTxId) = abi.decode(_payload, (address, uint256, uint256)) */\n      swap3\n      pop\n      swap3\n      pop\n      swap3\n      pop\n        /* \"WrappedAUC.sol\":8045:8068  _mint(receiver, amount) */\n      tag_199\n        /* \"WrappedAUC.sol\":8051:8059  receiver */\n      dup4\n        /* \"WrappedAUC.sol\":8061:8067  amount */\n      dup4\n        /* \"WrappedAUC.sol\":8045:8050  _mint */\n      tag_200\n        /* \"WrappedAUC.sol\":8045:8068  _mint(receiver, amount) */\n      jump\t// in\n    tag_199:\n        /* \"WrappedAUC.sol\":8084:8154  BridgingCompleted(_srcChainId, LZ_CHAIN_ID, srcTxId, receiver, amount) */\n      0x40\n      dup1\n      mload\n        /* \"#utility.yul\":12856:12862   */\n      0xffff\n        /* \"#utility.yul\":12889:12904   */\n      dup1\n      dup13\n      and\n        /* \"#utility.yul\":12871:12905   */\n      dup3\n      mstore\n        /* \"WrappedAUC.sol\":8115:8126  LZ_CHAIN_ID */\n      immutable(\"0x705a6ef83029e2c8cd72d6aefd2a2bbc4a5113a33398eeb61dd1988b11595ae5\")\n        /* \"#utility.yul\":12941:12956   */\n      and\n        /* \"#utility.yul\":12936:12938   */\n      0x20\n        /* \"#utility.yul\":12921:12939   */\n      dup3\n      add\n        /* \"#utility.yul\":12914:12957   */\n      mstore\n        /* \"#utility.yul\":12973:12991   */\n      swap1\n      dup2\n      add\n        /* \"#utility.yul\":12966:13000   */\n      dup3\n      swap1\n      mstore\n        /* \"#utility.yul\":13031:13033   */\n      0x60\n        /* \"#utility.yul\":13016:13034   */\n      dup2\n      add\n        /* \"#utility.yul\":13009:13043   */\n      dup4\n      swap1\n      mstore\n      sub(shl(0xa0, 0x01), 0x01)\n        /* \"WrappedAUC.sol\":8084:8154  BridgingCompleted(_srcChainId, LZ_CHAIN_ID, srcTxId, receiver, amount) */\n      dup5\n      and\n      swap1\n      0xf540e2fcb9906dcfcfd5aea0f902da16ba5630b30f63f3acf6abe376f9e476a8\n      swap1\n        /* \"#utility.yul\":12833:12836   */\n      0x80\n        /* \"#utility.yul\":12818:12837   */\n      add\n        /* \"WrappedAUC.sol\":8084:8154  BridgingCompleted(_srcChainId, LZ_CHAIN_ID, srcTxId, receiver, amount) */\n      mload(0x40)\n      dup1\n      swap2\n      sub\n      swap1\n      log2\n        /* \"WrappedAUC.sol\":7546:8161  {... */\n      pop\n      pop\n      pop\n        /* \"WrappedAUC.sol\":7397:8161  function lzReceive(uint16 _srcChainId, bytes calldata _srcAddress, uint64 _nonce, bytes calldata _payload)... */\n      pop\n      pop\n      pop\n      pop\n      pop\n      pop\n      jump\t// out\n        /* \"@openzeppelin/contracts/token/ERC20/ERC20.sol\":2074:2163  function name() public view virtual returns (string memory) {... */\n    tag_44:\n        /* \"@openzeppelin/contracts/token/ERC20/ERC20.sol\":2119:2132  string memory */\n      0x60\n        /* \"@openzeppelin/contracts/token/ERC20/ERC20.sol\":2151:2156  _name */\n      0x03\n        /* \"@openzeppelin/contracts/token/ERC20/ERC20.sol\":2144:2156  return _name */\n      dup1\n      sload\n      tag_204\n      swap1\n      tag_181\n      jump\t// in\n    tag_204:\n      dup1\n      0x1f\n      add\n      0x20\n      dup1\n      swap2\n      div\n      mul\n      0x20\n      add\n      mload(0x40)\n      swap1\n      dup2\n      add\n      0x40\n      mstore\n      dup1\n      swap3\n      swap2\n      swap1\n      dup2\n      dup2\n      mstore\n      0x20\n      add\n      dup3\n      dup1\n      sload\n      tag_205\n      swap1\n      tag_181\n      jump\t// in\n    tag_205:\n      dup1\n      iszero\n      tag_206\n      jumpi\n      dup1\n      0x1f\n      lt\n      tag_207\n      jumpi\n      0x0100\n      dup1\n      dup4\n      sload\n      div\n      mul\n      dup4\n      mstore\n      swap2\n      0x20\n      add\n      swap2\n      jump(tag_206)\n    tag_207:\n      dup3\n      add\n      swap2\n      swap1\n      0x00\n      mstore\n      keccak256(0x00, 0x20)\n      swap1\n    tag_208:\n      dup2\n      sload\n      dup2\n      mstore\n      swap1\n      0x01\n      add\n      swap1\n      0x20\n      add\n      dup1\n      dup4\n      gt\n      tag_208\n      jumpi\n      dup3\n      swap1\n      sub\n      0x1f\n      and\n      dup3\n      add\n      swap2\n    tag_206:\n      pop\n      pop\n      pop\n      pop\n      pop\n      swap1\n      pop\n        /* \"@openzeppelin/contracts/token/ERC20/ERC20.sol\":2074:2163  function name() public view virtual returns (string memory) {... */\n      swap1\n      jump\t// out\n        /* \"WrappedAUC.sol\":5904:6014  function setSendVersion(uint16 _version) external onlyOwner {... */\n    tag_51:\n        /* \"@openzeppelin/contracts/access/Ownable.sol\":1531:1544  _checkOwner() */\n      tag_210\n        /* \"@openzeppelin/contracts/access/Ownable.sol\":1531:1542  _checkOwner */\n      tag_211\n        /* \"@openzeppelin/contracts/access/Ownable.sol\":1531:1544  _checkOwner() */\n      jump\t// in\n    tag_210:\n        /* \"WrappedAUC.sol\":5974:5982  endpoint */\n      sload(0x06)\n        /* \"WrappedAUC.sol\":5974:6007  endpoint.setSendVersion(_version) */\n      mload(0x40)\n      shl(0xe0, 0x07e0db17)\n      dup2\n      mstore\n        /* \"#utility.yul\":6815:6821   */\n      0xffff\n        /* \"#utility.yul\":6803:6822   */\n      dup4\n      and\n        /* \"WrappedAUC.sol\":5974:6007  endpoint.setSendVersion(_version) */\n      0x04\n      dup3\n      add\n        /* \"#utility.yul\":6785:6823   */\n      mstore\n      sub(shl(0xa0, 0x01), 0x01)\n        /* \"WrappedAUC.sol\":5974:5982  endpoint */\n      swap1\n      swap2\n      and\n      swap1\n        /* \"WrappedAUC.sol\":5974:5997  endpoint.setSendVersion */\n      0x07e0db17\n      swap1\n        /* \"#utility.yul\":6758:6776   */\n      0x24\n      add\n        /* \"WrappedAUC.sol\":5974:6007  endpoint.setSendVersion(_version) */\n    tag_213:\n      0x00\n      mload(0x40)\n      dup1\n      dup4\n      sub\n      dup2\n      0x00\n      dup8\n      dup1\n      extcodesize\n      iszero\n      dup1\n      iszero\n      tag_214\n      jumpi\n      0x00\n      dup1\n      revert\n    tag_214:\n      pop\n      gas\n      call\n      iszero\n      dup1\n      iszero\n      tag_216\n      jumpi\n      returndatasize\n      0x00\n      dup1\n      returndatacopy\n      revert(0x00, returndatasize)\n    tag_216:\n      pop\n      pop\n      pop\n      pop\n        /* \"WrappedAUC.sol\":5904:6014  function setSendVersion(uint16 _version) external onlyOwner {... */\n      pop\n      jump\t// out\n        /* \"@openzeppelin/contracts/token/ERC20/ERC20.sol\":4293:4479  function approve(address spender, uint256 value) public virtual returns (bool) {... */\n    tag_56:\n        /* \"@openzeppelin/contracts/token/ERC20/ERC20.sol\":4366:4370  bool */\n      0x00\n        /* \"@openzeppelin/contracts/utils/Context.sol\":735:745  msg.sender */\n      caller\n        /* \"@openzeppelin/contracts/token/ERC20/ERC20.sol\":4420:4451  _approve(owner, spender, value) */\n      tag_220\n        /* \"@openzeppelin/contracts/utils/Context.sol\":735:745  msg.sender */\n      dup2\n        /* \"@openzeppelin/contracts/token/ERC20/ERC20.sol\":4436:4443  spender */\n      dup6\n        /* \"@openzeppelin/contracts/token/ERC20/ERC20.sol\":4445:4450  value */\n      dup6\n        /* \"@openzeppelin/contracts/token/ERC20/ERC20.sol\":4420:4428  _approve */\n      tag_221\n        /* \"@openzeppelin/contracts/token/ERC20/ERC20.sol\":4420:4451  _approve(owner, spender, value) */\n      jump\t// in\n    tag_220:\n        /* \"@openzeppelin/contracts/token/ERC20/ERC20.sol\":4468:4472  true */\n      0x01\n        /* \"@openzeppelin/contracts/token/ERC20/ERC20.sol\":4461:4472  return true */\n      swap2\n      pop\n      pop\n        /* \"@openzeppelin/contracts/token/ERC20/ERC20.sol\":4293:4479  function approve(address spender, uint256 value) public virtual returns (bool) {... */\n    tag_217:\n      swap3\n      swap2\n      pop\n      pop\n      jump\t// out\n        /* \"WrappedAUC.sol\":6020:6136  function setReceiveVersion(uint16 _version) external onlyOwner {... */\n    tag_62:\n        /* \"@openzeppelin/contracts/access/Ownable.sol\":1531:1544  _checkOwner() */\n      tag_223\n        /* \"@openzeppelin/contracts/access/Ownable.sol\":1531:1542  _checkOwner */\n      tag_211\n        /* \"@openzeppelin/contracts/access/Ownable.sol\":1531:1544  _checkOwner() */\n      jump\t// in\n    tag_223:\n        /* \"WrappedAUC.sol\":6093:6101  endpoint */\n      sload(0x06)\n        /* \"WrappedAUC.sol\":6093:6129  endpoint.setReceiveVersion(_version) */\n      mload(0x40)\n      shl(0xe0, 0x10ddb137)\n      dup2\n      mstore\n        /* \"#utility.yul\":6815:6821   */\n      0xffff\n        /* \"#utility.yul\":6803:6822   */\n      dup4\n      and\n        /* \"WrappedAUC.sol\":6093:6129  endpoint.setReceiveVersion(_version) */\n      0x04\n      dup3\n      add\n        /* \"#utility.yul\":6785:6823   */\n      mstore\n      sub(shl(0xa0, 0x01), 0x01)\n        /* \"WrappedAUC.sol\":6093:6101  endpoint */\n      swap1\n      swap2\n      and\n      swap1\n        /* \"WrappedAUC.sol\":6093:6119  endpoint.setReceiveVersion */\n      0x10ddb137\n      swap1\n        /* \"#utility.yul\":6758:6776   */\n      0x24\n      add\n        /* \"WrappedAUC.sol\":6093:6129  endpoint.setReceiveVersion(_version) */\n      tag_213\n        /* \"#utility.yul\":6641:6829   */\n      jump\n        /* \"@openzeppelin/contracts/token/ERC20/ERC20.sol\":5039:5283  function transferFrom(address from, address to, uint256 value) public virtual returns (bool) {... */\n    tag_72:\n        /* \"@openzeppelin/contracts/token/ERC20/ERC20.sol\":5126:5130  bool */\n      0x00\n        /* \"@openzeppelin/contracts/utils/Context.sol\":735:745  msg.sender */\n      caller\n        /* \"@openzeppelin/contracts/token/ERC20/ERC20.sol\":5182:5219  _spendAllowance(from, spender, value) */\n      tag_232\n        /* \"@openzeppelin/contracts/token/ERC20/ERC20.sol\":5198:5202  from */\n      dup6\n        /* \"@openzeppelin/contracts/utils/Context.sol\":735:745  msg.sender */\n      dup3\n        /* \"@openzeppelin/contracts/token/ERC20/ERC20.sol\":5213:5218  value */\n      dup6\n        /* \"@openzeppelin/contracts/token/ERC20/ERC20.sol\":5182:5197  _spendAllowance */\n      tag_233\n        /* \"@openzeppelin/contracts/token/ERC20/ERC20.sol\":5182:5219  _spendAllowance(from, spender, value) */\n      jump\t// in\n    tag_232:\n        /* \"@openzeppelin/contracts/token/ERC20/ERC20.sol\":5229:5255  _transfer(from, to, value) */\n      tag_234\n        /* \"@openzeppelin/contracts/token/ERC20/ERC20.sol\":5239:5243  from */\n      dup6\n        /* \"@openzeppelin/contracts/token/ERC20/ERC20.sol\":5245:5247  to */\n      dup6\n        /* \"@openzeppelin/contracts/token/ERC20/ERC20.sol\":5249:5254  value */\n      dup6\n        /* \"@openzeppelin/contracts/token/ERC20/ERC20.sol\":5229:5238  _transfer */\n      tag_235\n        /* \"@openzeppelin/contracts/token/ERC20/ERC20.sol\":5229:5255  _transfer(from, to, value) */\n      jump\t// in\n    tag_234:\n      pop\n        /* \"@openzeppelin/contracts/token/ERC20/ERC20.sol\":5272:5276  true */\n      0x01\n      swap5\n        /* \"@openzeppelin/contracts/token/ERC20/ERC20.sol\":5039:5283  function transferFrom(address from, address to, uint256 value) public virtual returns (bool) {... */\n      swap4\n      pop\n      pop\n      pop\n      pop\n      jump\t// out\n        /* \"WrappedAUC.sol\":6142:6307  function forceResumeReceive(uint16 _srcChainId, bytes calldata _srcAddress) external onlyOwner {... */\n    tag_83:\n        /* \"@openzeppelin/contracts/access/Ownable.sol\":1531:1544  _checkOwner() */\n      tag_238\n        /* \"@openzeppelin/contracts/access/Ownable.sol\":1531:1542  _checkOwner */\n      tag_211\n        /* \"@openzeppelin/contracts/access/Ownable.sol\":1531:1544  _checkOwner() */\n      jump\t// in\n    tag_238:\n        /* \"WrappedAUC.sol\":6247:6255  endpoint */\n      sload(0x06)\n        /* \"WrappedAUC.sol\":6247:6300  endpoint.forceResumeReceive(_srcChainId, _srcAddress) */\n      mload(0x40)\n      shl(0xe0, 0x42d65a8d)\n      dup2\n      mstore\n      sub(shl(0xa0, 0x01), 0x01)\n        /* \"WrappedAUC.sol\":6247:6255  endpoint */\n      swap1\n      swap2\n      and\n      swap1\n        /* \"WrappedAUC.sol\":6247:6274  endpoint.forceResumeReceive */\n      0x42d65a8d\n      swap1\n        /* \"WrappedAUC.sol\":6247:6300  endpoint.forceResumeReceive(_srcChainId, _srcAddress) */\n      tag_240\n      swap1\n        /* \"WrappedAUC.sol\":6275:6286  _srcChainId */\n      dup7\n      swap1\n        /* \"WrappedAUC.sol\":6288:6299  _srcAddress */\n      dup7\n      swap1\n      dup7\n      swap1\n        /* \"WrappedAUC.sol\":6247:6300  endpoint.forceResumeReceive(_srcChainId, _srcAddress) */\n      0x04\n      add\n      tag_241\n      jump\t// in\n    tag_240:\n      0x00\n      mload(0x40)\n      dup1\n      dup4\n      sub\n      dup2\n      0x00\n      dup8\n      dup1\n      extcodesize\n      iszero\n      dup1\n      iszero\n      tag_242\n      jumpi\n      0x00\n      dup1\n      revert\n    tag_242:\n      pop\n      gas\n      call\n      iszero\n      dup1\n      iszero\n      tag_244\n      jumpi\n      returndatasize\n      0x00\n      dup1\n      returndatacopy\n      revert(0x00, returndatasize)\n    tag_244:\n      pop\n      pop\n      pop\n      pop\n        /* \"WrappedAUC.sol\":6142:6307  function forceResumeReceive(uint16 _srcChainId, bytes calldata _srcAddress) external onlyOwner {... */\n      pop\n      pop\n      pop\n      jump\t// out\n        /* \"WrappedAUC.sol\":3245:4280  function xChainTransfer(address _receiver, uint256 _amount, uint16 _dstChainId, bytes memory _adapterParams)... */\n    tag_92:\n        /* \"WrappedAUC.sol\":3409:3435  trustedRemote[_dstChainId] */\n      0xffff\n      dup3\n      and\n        /* \"WrappedAUC.sol\":3445:3446  0 */\n      0x00\n        /* \"WrappedAUC.sol\":3409:3435  trustedRemote[_dstChainId] */\n      swap1\n      dup2\n      mstore\n        /* \"WrappedAUC.sol\":3409:3422  trustedRemote */\n      0x07\n        /* \"WrappedAUC.sol\":3409:3435  trustedRemote[_dstChainId] */\n      0x20\n      mstore\n      0x40\n      dup2\n      keccak256\n        /* \"WrappedAUC.sol\":3409:3442  trustedRemote[_dstChainId].length */\n      dup1\n      sload\n      tag_246\n      swap1\n      tag_181\n      jump\t// in\n    tag_246:\n      swap1\n      pop\n        /* \"WrappedAUC.sol\":3409:3446  trustedRemote[_dstChainId].length > 0 */\n      gt\n        /* \"WrappedAUC.sol\":3401:3478  require(trustedRemote[_dstChainId].length > 0, \"bridge/invalid-dst-chain-id\") */\n      tag_247\n      jumpi\n      mload(0x40)\n      shl(0xe5, 0x461bcd)\n      dup2\n      mstore\n        /* \"#utility.yul\":13858:13860   */\n      0x20\n        /* \"WrappedAUC.sol\":3401:3478  require(trustedRemote[_dstChainId].length > 0, \"bridge/invalid-dst-chain-id\") */\n      0x04\n      dup3\n      add\n        /* \"#utility.yul\":13840:13861   */\n      mstore\n        /* \"#utility.yul\":13897:13899   */\n      0x1b\n        /* \"#utility.yul\":13877:13895   */\n      0x24\n      dup3\n      add\n        /* \"#utility.yul\":13870:13900   */\n      mstore\n        /* \"#utility.yul\":13936:13965   */\n      0x6272696467652f696e76616c69642d6473742d636861696e2d69640000000000\n        /* \"#utility.yul\":13916:13934   */\n      0x44\n      dup3\n      add\n        /* \"#utility.yul\":13909:13966   */\n      mstore\n        /* \"#utility.yul\":13983:14001   */\n      0x64\n      add\n        /* \"WrappedAUC.sol\":3401:3478  require(trustedRemote[_dstChainId].length > 0, \"bridge/invalid-dst-chain-id\") */\n      tag_177\n        /* \"#utility.yul\":13656:14007   */\n      jump\n        /* \"WrappedAUC.sol\":3401:3478  require(trustedRemote[_dstChainId].length > 0, \"bridge/invalid-dst-chain-id\") */\n    tag_247:\n        /* \"WrappedAUC.sol\":3523:3533  msg.sender */\n      caller\n        /* \"WrappedAUC.sol\":3489:3510  uint256 balanceBefore */\n      0x00\n        /* \"@openzeppelin/contracts/token/ERC20/ERC20.sol\":3390:3408  _balances[account] */\n      swap1\n      dup2\n      mstore\n      0x20\n      dup2\n      swap1\n      mstore\n      0x40\n      swap1\n      keccak256\n      sload\n        /* \"WrappedAUC.sol\":3552:3576  balanceBefore >= _amount */\n      dup4\n      dup2\n      lt\n      iszero\n        /* \"WrappedAUC.sol\":3544:3609  require(balanceBefore >= _amount, \"wrapper/insufficient-balance\") */\n      tag_251\n      jumpi\n      mload(0x40)\n      shl(0xe5, 0x461bcd)\n      dup2\n      mstore\n        /* \"#utility.yul\":14214:14216   */\n      0x20\n        /* \"WrappedAUC.sol\":3544:3609  require(balanceBefore >= _amount, \"wrapper/insufficient-balance\") */\n      0x04\n      dup3\n      add\n        /* \"#utility.yul\":14196:14217   */\n      mstore\n        /* \"#utility.yul\":14253:14255   */\n      0x1c\n        /* \"#utility.yul\":14233:14251   */\n      0x24\n      dup3\n      add\n        /* \"#utility.yul\":14226:14256   */\n      mstore\n        /* \"#utility.yul\":14292:14322   */\n      0x777261707065722f696e73756666696369656e742d62616c616e636500000000\n        /* \"#utility.yul\":14272:14290   */\n      0x44\n      dup3\n      add\n        /* \"#utility.yul\":14265:14323   */\n      mstore\n        /* \"#utility.yul\":14340:14358   */\n      0x64\n      add\n        /* \"WrappedAUC.sol\":3544:3609  require(balanceBefore >= _amount, \"wrapper/insufficient-balance\") */\n      tag_177\n        /* \"#utility.yul\":14012:14364   */\n      jump\n        /* \"WrappedAUC.sol\":3544:3609  require(balanceBefore >= _amount, \"wrapper/insufficient-balance\") */\n    tag_251:\n        /* \"WrappedAUC.sol\":3620:3646  _burn(msg.sender, _amount) */\n      tag_254\n        /* \"WrappedAUC.sol\":3626:3636  msg.sender */\n      caller\n        /* \"WrappedAUC.sol\":3638:3645  _amount */\n      dup6\n        /* \"WrappedAUC.sol\":3620:3625  _burn */\n      tag_255\n        /* \"WrappedAUC.sol\":3620:3646  _burn(msg.sender, _amount) */\n      jump\t// in\n    tag_254:\n        /* \"WrappedAUC.sol\":3689:3699  msg.sender */\n      caller\n        /* \"WrappedAUC.sol\":3656:3676  uint256 balanceAfter */\n      0x00\n        /* \"@openzeppelin/contracts/token/ERC20/ERC20.sol\":3390:3408  _balances[account] */\n      swap1\n      dup2\n      mstore\n      0x20\n      dup2\n      swap1\n      mstore\n      0x40\n      swap1\n      keccak256\n      sload\n        /* \"WrappedAUC.sol\":3751:3758  _amount */\n      dup5\n        /* \"WrappedAUC.sol\":3719:3747  balanceBefore - balanceAfter */\n      tag_257\n        /* \"@openzeppelin/contracts/token/ERC20/ERC20.sol\":3390:3408  _balances[account] */\n      dup3\n        /* \"WrappedAUC.sol\":3719:3732  balanceBefore */\n      dup5\n        /* \"WrappedAUC.sol\":3719:3747  balanceBefore - balanceAfter */\n      tag_258\n      jump\t// in\n    tag_257:\n        /* \"WrappedAUC.sol\":3719:3758  balanceBefore - balanceAfter == _amount */\n      eq\n        /* \"WrappedAUC.sol\":3711:3782  require(balanceBefore - balanceAfter == _amount, \"wrapper/burn-failed\") */\n      tag_259\n      jumpi\n      mload(0x40)\n      shl(0xe5, 0x461bcd)\n      dup2\n      mstore\n        /* \"#utility.yul\":14836:14838   */\n      0x20\n        /* \"WrappedAUC.sol\":3711:3782  require(balanceBefore - balanceAfter == _amount, \"wrapper/burn-failed\") */\n      0x04\n      dup3\n      add\n        /* \"#utility.yul\":14818:14839   */\n      mstore\n        /* \"#utility.yul\":14875:14877   */\n      0x13\n        /* \"#utility.yul\":14855:14873   */\n      0x24\n      dup3\n      add\n        /* \"#utility.yul\":14848:14878   */\n      mstore\n      shl(0x6a, 0x1ddc985c1c195c8bd89d5c9b8b59985a5b1959)\n        /* \"#utility.yul\":14894:14912   */\n      0x44\n      dup3\n      add\n        /* \"#utility.yul\":14887:14936   */\n      mstore\n        /* \"#utility.yul\":14953:14971   */\n      0x64\n      add\n        /* \"WrappedAUC.sol\":3711:3782  require(balanceBefore - balanceAfter == _amount, \"wrapper/burn-failed\") */\n      tag_177\n        /* \"#utility.yul\":14634:14977   */\n      jump\n        /* \"WrappedAUC.sol\":3711:3782  require(balanceBefore - balanceAfter == _amount, \"wrapper/burn-failed\") */\n    tag_259:\n        /* \"WrappedAUC.sol\":3793:3805  uint256 fees */\n      0x00\n        /* \"WrappedAUC.sol\":3841:3846  10000 */\n      0x2710\n        /* \"WrappedAUC.sol\":3819:3837  transferFeePercent */\n      sload(0x0a)\n        /* \"WrappedAUC.sol\":3809:3816  _amount */\n      dup8\n        /* \"WrappedAUC.sol\":3809:3837  _amount * transferFeePercent */\n      tag_262\n      swap2\n      swap1\n      tag_263\n      jump\t// in\n    tag_262:\n        /* \"WrappedAUC.sol\":3808:3846  (_amount * transferFeePercent) / 10000 */\n      tag_264\n      swap2\n      swap1\n      tag_265\n      jump\t// in\n    tag_264:\n        /* \"WrappedAUC.sol\":3793:3846  uint256 fees = (_amount * transferFeePercent) / 10000 */\n      swap1\n      pop\n        /* \"WrappedAUC.sol\":3856:3875  uint256 finalAmount */\n      0x00\n        /* \"WrappedAUC.sol\":3878:3892  _amount - fees */\n      tag_266\n        /* \"WrappedAUC.sol\":3793:3846  uint256 fees = (_amount * transferFeePercent) / 10000 */\n      dup3\n        /* \"WrappedAUC.sol\":3878:3885  _amount */\n      dup9\n        /* \"WrappedAUC.sol\":3878:3892  _amount - fees */\n      tag_258\n      jump\t// in\n    tag_266:\n        /* \"WrappedAUC.sol\":3856:3892  uint256 finalAmount = _amount - fees */\n      swap1\n      pop\n        /* \"WrappedAUC.sol\":3905:3914  txCounter */\n      0x08\n      0x00\n        /* \"WrappedAUC.sol\":3903:3914  ++txCounter */\n      dup2\n      sload\n      tag_267\n      swap1\n      tag_268\n      jump\t// in\n    tag_267:\n      swap2\n      swap1\n      pop\n      dup2\n      swap1\n      sstore\n      pop\n        /* \"WrappedAUC.sol\":3924:3932  endpoint */\n      0x06\n      0x00\n      swap1\n      sload\n      swap1\n      0x0100\n      exp\n      swap1\n      div\n      sub(shl(0xa0, 0x01), 0x01)\n      and\n      sub(shl(0xa0, 0x01), 0x01)\n        /* \"WrappedAUC.sol\":3924:3937  endpoint.send */\n      and\n      0xc5803100\n        /* \"WrappedAUC.sol\":3945:3954  msg.value */\n      callvalue\n        /* \"WrappedAUC.sol\":3969:3980  _dstChainId */\n      dup9\n        /* \"WrappedAUC.sol\":3994:4007  trustedRemote */\n      0x07\n        /* \"WrappedAUC.sol\":3994:4020  trustedRemote[_dstChainId] */\n      0x00\n        /* \"WrappedAUC.sol\":4008:4019  _dstChainId */\n      dup12\n        /* \"WrappedAUC.sol\":3994:4020  trustedRemote[_dstChainId] */\n      0xffff\n      and\n      0xffff\n      and\n      dup2\n      mstore\n      0x20\n      add\n      swap1\n      dup2\n      mstore\n      0x20\n      add\n      0x00\n      keccak256\n        /* \"WrappedAUC.sol\":4045:4054  _receiver */\n      dup13\n        /* \"WrappedAUC.sol\":4056:4067  finalAmount */\n      dup7\n        /* \"WrappedAUC.sol\":4069:4078  txCounter */\n      sload(0x08)\n        /* \"WrappedAUC.sol\":4034:4079  abi.encode(_receiver, finalAmount, txCounter) */\n      add(0x20, mload(0x40))\n      tag_269\n      swap4\n      swap3\n      swap2\n      swap1\n      tag_270\n      jump\t// in\n    tag_269:\n      mload(0x40)\n      0x20\n      dup2\n      dup4\n      sub\n      sub\n      dup2\n      mstore\n      swap1\n      0x40\n      mstore\n        /* \"WrappedAUC.sol\":4101:4111  msg.sender */\n      caller\n        /* \"WrappedAUC.sol\":4134:4135  0 */\n      0x00\n        /* \"WrappedAUC.sol\":4150:4164  _adapterParams */\n      dup13\n        /* \"WrappedAUC.sol\":3924:4174  endpoint.send{value: msg.value}(... */\n      mload(0x40)\n      dup9\n      0xffffffff\n      and\n      0xe0\n      shl\n      dup2\n      mstore\n      0x04\n      add\n      tag_271\n      swap7\n      swap6\n      swap5\n      swap4\n      swap3\n      swap2\n      swap1\n      tag_272\n      jump\t// in\n    tag_271:\n      0x00\n      mload(0x40)\n      dup1\n      dup4\n      sub\n      dup2\n      dup6\n      dup9\n      dup1\n      extcodesize\n      iszero\n      dup1\n      iszero\n      tag_273\n      jumpi\n      0x00\n      dup1\n      revert\n    tag_273:\n      pop\n      gas\n      call\n      iszero\n      dup1\n      iszero\n      tag_275\n      jumpi\n      returndatasize\n      0x00\n      dup1\n      returndatacopy\n      revert(0x00, returndatasize)\n    tag_275:\n      pop\n      pop\n        /* \"WrappedAUC.sol\":4233:4242  txCounter */\n      sload(0x08)\n        /* \"WrappedAUC.sol\":4189:4273  BridgingInitiated(LZ_CHAIN_ID, _dstChainId, txCounter, _receiver, finalAmount, fees) */\n      0x40\n      dup1\n      mload\n        /* \"#utility.yul\":17659:17665   */\n      0xffff\n        /* \"WrappedAUC.sol\":4207:4218  LZ_CHAIN_ID */\n      immutable(\"0x705a6ef83029e2c8cd72d6aefd2a2bbc4a5113a33398eeb61dd1988b11595ae5\")\n        /* \"#utility.yul\":17692:17707   */\n      dup2\n      and\n        /* \"#utility.yul\":17674:17708   */\n      dup3\n      mstore\n        /* \"#utility.yul\":17744:17759   */\n      dup13\n      and\n        /* \"#utility.yul\":17739:17741   */\n      0x20\n        /* \"#utility.yul\":17724:17742   */\n      dup3\n      add\n        /* \"#utility.yul\":17717:17760   */\n      mstore\n        /* \"#utility.yul\":17776:17794   */\n      swap1\n      dup2\n      add\n        /* \"#utility.yul\":17769:17803   */\n      swap2\n      swap1\n      swap2\n      mstore\n        /* \"#utility.yul\":17834:17836   */\n      0x60\n        /* \"#utility.yul\":17819:17837   */\n      dup2\n      add\n        /* \"#utility.yul\":17812:17846   */\n      dup6\n      swap1\n      mstore\n        /* \"#utility.yul\":17877:17880   */\n      0x80\n        /* \"#utility.yul\":17862:17881   */\n      dup2\n      add\n        /* \"#utility.yul\":17855:17890   */\n      dup7\n      swap1\n      mstore\n      sub(shl(0xa0, 0x01), 0x01)\n        /* \"WrappedAUC.sol\":4189:4273  BridgingInitiated(LZ_CHAIN_ID, _dstChainId, txCounter, _receiver, finalAmount, fees) */\n      dup13\n      and\n      swap4\n      pop\n      0xbd36451ab3b0e9fe414dea95544d2a3d68944d949c8af5b4a2bdfa0f269b02f0\n      swap3\n      pop\n        /* \"#utility.yul\":17636:17639   */\n      0xa0\n        /* \"#utility.yul\":17621:17640   */\n      add\n      swap1\n      pop\n        /* \"WrappedAUC.sol\":4189:4273  BridgingInitiated(LZ_CHAIN_ID, _dstChainId, txCounter, _receiver, finalAmount, fees) */\n      mload(0x40)\n      dup1\n      swap2\n      sub\n      swap1\n      log2\n        /* \"WrappedAUC.sol\":3391:4280  {... */\n      pop\n      pop\n      pop\n      pop\n        /* \"WrappedAUC.sol\":3245:4280  function xChainTransfer(address _receiver, uint256 _amount, uint16 _dstChainId, bytes memory _adapterParams)... */\n      pop\n      pop\n      pop\n      pop\n      jump\t// out\n        /* \"@openzeppelin/contracts/access/Ownable.sol\":2293:2394  function renounceOwnership() public virtual onlyOwner {... */\n    tag_101:\n        /* \"@openzeppelin/contracts/access/Ownable.sol\":1531:1544  _checkOwner() */\n      tag_280\n        /* \"@openzeppelin/contracts/access/Ownable.sol\":1531:1542  _checkOwner */\n      tag_211\n        /* \"@openzeppelin/contracts/access/Ownable.sol\":1531:1544  _checkOwner() */\n      jump\t// in\n    tag_280:\n        /* \"@openzeppelin/contracts/access/Ownable.sol\":2357:2387  _transferOwnership(address(0)) */\n      tag_282\n        /* \"@openzeppelin/contracts/access/Ownable.sol\":2384:2385  0 */\n      0x00\n        /* \"@openzeppelin/contracts/access/Ownable.sol\":2357:2375  _transferOwnership */\n      tag_283\n        /* \"@openzeppelin/contracts/access/Ownable.sol\":2357:2387  _transferOwnership(address(0)) */\n      jump\t// in\n    tag_282:\n        /* \"@openzeppelin/contracts/access/Ownable.sol\":2293:2394  function renounceOwnership() public virtual onlyOwner {... */\n      jump\t// out\n        /* \"@openzeppelin/contracts/token/ERC20/ERC20.sol\":2276:2369  function symbol() public view virtual returns (string memory) {... */\n    tag_122:\n        /* \"@openzeppelin/contracts/token/ERC20/ERC20.sol\":2323:2336  string memory */\n      0x60\n        /* \"@openzeppelin/contracts/token/ERC20/ERC20.sol\":2355:2362  _symbol */\n      0x04\n        /* \"@openzeppelin/contracts/token/ERC20/ERC20.sol\":2348:2362  return _symbol */\n      dup1\n      sload\n      tag_204\n      swap1\n      tag_181\n      jump\t// in\n        /* \"WrappedAUC.sol\":4599:4831  function updateEndpoint(address _newEndpoint) external onlyOwner {... */\n    tag_127:\n        /* \"@openzeppelin/contracts/access/Ownable.sol\":1531:1544  _checkOwner() */\n      tag_292\n        /* \"@openzeppelin/contracts/access/Ownable.sol\":1531:1542  _checkOwner */\n      tag_211\n        /* \"@openzeppelin/contracts/access/Ownable.sol\":1531:1544  _checkOwner() */\n      jump\t// in\n    tag_292:\n        /* \"WrappedAUC.sol\":4704:4712  endpoint */\n      0x06\n      dup1\n      sload\n      sub(shl(0xa0, 0x01), 0x01)\n        /* \"WrappedAUC.sol\":4723:4766  endpoint = ILayerZeroEndpoint(_newEndpoint) */\n      dup4\n      dup2\n      and\n      not(sub(shl(0xa0, 0x01), 0x01))\n      dup4\n      and\n      dup2\n      or\n      swap1\n      swap4\n      sstore\n        /* \"WrappedAUC.sol\":4782:4824  EndpointUpdated(oldEndpoint, _newEndpoint) */\n      mload(0x40)\n        /* \"WrappedAUC.sol\":4704:4712  endpoint */\n      swap2\n      and\n      swap2\n        /* \"WrappedAUC.sol\":4723:4766  endpoint = ILayerZeroEndpoint(_newEndpoint) */\n      swap1\n        /* \"WrappedAUC.sol\":4704:4712  endpoint */\n      dup3\n      swap1\n        /* \"WrappedAUC.sol\":4782:4824  EndpointUpdated(oldEndpoint, _newEndpoint) */\n      0x241827194635b544bceb965d0e124305c0968051403ae83cb99d1ef86bd65f58\n      swap1\n        /* \"WrappedAUC.sol\":4674:4693  address oldEndpoint */\n      0x00\n      swap1\n        /* \"WrappedAUC.sol\":4782:4824  EndpointUpdated(oldEndpoint, _newEndpoint) */\n      log3\n        /* \"WrappedAUC.sol\":4664:4831  {... */\n      pop\n        /* \"WrappedAUC.sol\":4599:4831  function updateEndpoint(address _newEndpoint) external onlyOwner {... */\n      pop\n      jump\t// out\n        /* \"@openzeppelin/contracts/token/ERC20/ERC20.sol\":3610:3788  function transfer(address to, uint256 value) public virtual returns (bool) {... */\n    tag_131:\n        /* \"@openzeppelin/contracts/token/ERC20/ERC20.sol\":3679:3683  bool */\n      0x00\n        /* \"@openzeppelin/contracts/utils/Context.sol\":735:745  msg.sender */\n      caller\n        /* \"@openzeppelin/contracts/token/ERC20/ERC20.sol\":3733:3760  _transfer(owner, to, value) */\n      tag_220\n        /* \"@openzeppelin/contracts/utils/Context.sol\":735:745  msg.sender */\n      dup2\n        /* \"@openzeppelin/contracts/token/ERC20/ERC20.sol\":3750:3752  to */\n      dup6\n        /* \"@openzeppelin/contracts/token/ERC20/ERC20.sol\":3754:3759  value */\n      dup6\n        /* \"@openzeppelin/contracts/token/ERC20/ERC20.sol\":3733:3742  _transfer */\n      tag_235\n        /* \"@openzeppelin/contracts/token/ERC20/ERC20.sol\":3733:3760  _transfer(owner, to, value) */\n      jump\t// in\n        /* \"WrappedAUC.sol\":837:882  mapping(uint16 => bytes) public trustedRemote */\n    tag_136:\n      mstore(0x20, 0x07)\n      0x00\n      swap1\n      dup2\n      mstore\n      0x40\n      swap1\n      keccak256\n      dup1\n      sload\n      tag_297\n      swap1\n      tag_181\n      jump\t// in\n    tag_297:\n      dup1\n      0x1f\n      add\n      0x20\n      dup1\n      swap2\n      div\n      mul\n      0x20\n      add\n      mload(0x40)\n      swap1\n      dup2\n      add\n      0x40\n      mstore\n      dup1\n      swap3\n      swap2\n      swap1\n      dup2\n      dup2\n      mstore\n      0x20\n      add\n      dup3\n      dup1\n      sload\n      tag_298\n      swap1\n      tag_181\n      jump\t// in\n    tag_298:\n      dup1\n      iszero\n      tag_299\n      jumpi\n      dup1\n      0x1f\n      lt\n      tag_300\n      jumpi\n      0x0100\n      dup1\n      dup4\n      sload\n      div\n      mul\n      dup4\n      mstore\n      swap2\n      0x20\n      add\n      swap2\n      jump(tag_299)\n    tag_300:\n      dup3\n      add\n      swap2\n      swap1\n      0x00\n      mstore\n      keccak256(0x00, 0x20)\n      swap1\n    tag_301:\n      dup2\n      sload\n      dup2\n      mstore\n      swap1\n      0x01\n      add\n      swap1\n      0x20\n      add\n      dup1\n      dup4\n      gt\n      tag_301\n      jumpi\n      dup3\n      swap1\n      sub\n      0x1f\n      and\n      dup3\n      add\n      swap2\n    tag_299:\n      pop\n      pop\n      pop\n      pop\n      pop\n      dup2\n      jump\t// out\n        /* \"WrappedAUC.sol\":5684:5898  function setConfig(uint16 _version, uint16 _chainId, uint256 _configType, bytes calldata _config)... */\n    tag_143:\n        /* \"@openzeppelin/contracts/access/Ownable.sol\":1531:1544  _checkOwner() */\n      tag_303\n        /* \"@openzeppelin/contracts/access/Ownable.sol\":1531:1542  _checkOwner */\n      tag_211\n        /* \"@openzeppelin/contracts/access/Ownable.sol\":1531:1544  _checkOwner() */\n      jump\t// in\n    tag_303:\n        /* \"WrappedAUC.sol\":5831:5839  endpoint */\n      sload(0x06)\n        /* \"WrappedAUC.sol\":5831:5891  endpoint.setConfig(_version, _chainId, _configType, _config) */\n      mload(0x40)\n      shl(0xe2, 0x32fb62e7)\n      dup2\n      mstore\n      sub(shl(0xa0, 0x01), 0x01)\n        /* \"WrappedAUC.sol\":5831:5839  endpoint */\n      swap1\n      swap2\n      and\n      swap1\n        /* \"WrappedAUC.sol\":5831:5849  endpoint.setConfig */\n      0xcbed8b9c\n      swap1\n        /* \"WrappedAUC.sol\":5831:5891  endpoint.setConfig(_version, _chainId, _configType, _config) */\n      tag_305\n      swap1\n        /* \"WrappedAUC.sol\":5850:5858  _version */\n      dup9\n      swap1\n        /* \"WrappedAUC.sol\":5860:5868  _chainId */\n      dup9\n      swap1\n        /* \"WrappedAUC.sol\":5870:5881  _configType */\n      dup9\n      swap1\n        /* \"WrappedAUC.sol\":5883:5890  _config */\n      dup9\n      swap1\n      dup9\n      swap1\n        /* \"WrappedAUC.sol\":5831:5891  endpoint.setConfig(_version, _chainId, _configType, _config) */\n      0x04\n      add\n      tag_306\n      jump\t// in\n    tag_305:\n      0x00\n      mload(0x40)\n      dup1\n      dup4\n      sub\n      dup2\n      0x00\n      dup8\n      dup1\n      extcodesize\n      iszero\n      dup1\n      iszero\n      tag_307\n      jumpi\n      0x00\n      dup1\n      revert\n    tag_307:\n      pop\n      gas\n      call\n      iszero\n      dup1\n      iszero\n      tag_309\n      jumpi\n      returndatasize\n      0x00\n      dup1\n      returndatacopy\n      revert(0x00, returndatasize)\n    tag_309:\n      pop\n      pop\n      pop\n      pop\n        /* \"WrappedAUC.sol\":5684:5898  function setConfig(uint16 _version, uint16 _chainId, uint256 _configType, bytes calldata _config)... */\n      pop\n      pop\n      pop\n      pop\n      pop\n      jump\t// out\n        /* \"WrappedAUC.sol\":5379:5619  function setTransferFees(uint256 _transferFeePercent) external onlyOwner {... */\n    tag_148:\n        /* \"@openzeppelin/contracts/access/Ownable.sol\":1531:1544  _checkOwner() */\n      tag_311\n        /* \"@openzeppelin/contracts/access/Ownable.sol\":1531:1542  _checkOwner */\n      tag_211\n        /* \"@openzeppelin/contracts/access/Ownable.sol\":1531:1544  _checkOwner() */\n      jump\t// in\n    tag_311:\n        /* \"WrappedAUC.sol\":5480:5498  transferFeePercent */\n      0x0a\n      dup1\n      sload\n        /* \"WrappedAUC.sol\":5508:5548  transferFeePercent = _transferFeePercent */\n      swap1\n      dup3\n      swap1\n      sstore\n        /* \"WrappedAUC.sol\":5564:5612  TransferFeeUpdated(oldFees, _transferFeePercent) */\n      0x40\n      dup1\n      mload\n        /* \"#utility.yul\":18578:18603   */\n      dup3\n      dup2\n      mstore\n        /* \"#utility.yul\":18634:18636   */\n      0x20\n        /* \"#utility.yul\":18619:18637   */\n      dup2\n      add\n        /* \"#utility.yul\":18612:18646   */\n      dup5\n      swap1\n      mstore\n        /* \"WrappedAUC.sol\":5564:5612  TransferFeeUpdated(oldFees, _transferFeePercent) */\n      0x940334a9f5c76529ad9447ac490c2073b06d880209383a3d3e4b0ecab72a0d99\n      swap2\n        /* \"#utility.yul\":18551:18569   */\n      add\n        /* \"WrappedAUC.sol\":5564:5612  TransferFeeUpdated(oldFees, _transferFeePercent) */\n      mload(0x40)\n      dup1\n      swap2\n      sub\n      swap1\n      log1\n        /* \"WrappedAUC.sol\":5452:5619  {... */\n      pop\n        /* \"WrappedAUC.sol\":5379:5619  function setTransferFees(uint256 _transferFeePercent) external onlyOwner {... */\n      pop\n      jump\t// out\n        /* \"WrappedAUC.sol\":6500:6878  function estimateFees(address _receiver, uint256 _amount, uint16 _dstChainId, bytes memory _adapterParams)... */\n    tag_164:\n        /* \"WrappedAUC.sol\":6654:6661  uint256 */\n      0x00\n        /* \"WrappedAUC.sol\":6677:6697  bytes memory message */\n      dup1\n        /* \"WrappedAUC.sol\":6711:6720  _receiver */\n      dup6\n        /* \"WrappedAUC.sol\":6722:6729  _amount */\n      dup6\n        /* \"WrappedAUC.sol\":6731:6740  txCounter */\n      sload(0x08)\n        /* \"WrappedAUC.sol\":6700:6741  abi.encode(_receiver, _amount, txCounter) */\n      add(0x20, mload(0x40))\n      tag_317\n      swap4\n      swap3\n      swap2\n      swap1\n      tag_270\n      jump\t// in\n    tag_317:\n      0x40\n      dup1\n      mload\n      not(0x1f)\n      dup2\n      dup5\n      sub\n      add\n      dup2\n      mstore\n      swap1\n      dup3\n      swap1\n      mstore\n        /* \"WrappedAUC.sol\":6769:6777  endpoint */\n      sload(0x06)\n      shl(0xe4, 0x040a7bb1)\n        /* \"WrappedAUC.sol\":6769:6850  endpoint.estimateFees(_dstChainId, address(this), message, false, _adapterParams) */\n      dup4\n      mstore\n        /* \"WrappedAUC.sol\":6700:6741  abi.encode(_receiver, _amount, txCounter) */\n      swap1\n      swap3\n      pop\n        /* \"WrappedAUC.sol\":6752:6764  uint256 fees */\n      0x00\n      swap2\n      sub(shl(0xa0, 0x01), 0x01)\n        /* \"WrappedAUC.sol\":6769:6777  endpoint */\n      swap1\n      swap2\n      and\n      swap1\n        /* \"WrappedAUC.sol\":6769:6790  endpoint.estimateFees */\n      0x40a7bb10\n      swap1\n        /* \"WrappedAUC.sol\":6769:6850  endpoint.estimateFees(_dstChainId, address(this), message, false, _adapterParams) */\n      tag_318\n      swap1\n        /* \"WrappedAUC.sol\":6791:6802  _dstChainId */\n      dup9\n      swap1\n        /* \"WrappedAUC.sol\":6812:6816  this */\n      address\n      swap1\n        /* \"WrappedAUC.sol\":6700:6741  abi.encode(_receiver, _amount, txCounter) */\n      dup8\n      swap1\n        /* \"WrappedAUC.sol\":6752:6764  uint256 fees */\n      dup8\n      swap1\n        /* \"WrappedAUC.sol\":6835:6849  _adapterParams */\n      dup12\n      swap1\n        /* \"WrappedAUC.sol\":6769:6850  endpoint.estimateFees(_dstChainId, address(this), message, false, _adapterParams) */\n      0x04\n      add\n      tag_319\n      jump\t// in\n    tag_318:\n      0x40\n      dup1\n      mload\n      dup1\n      dup4\n      sub\n      dup2\n      dup7\n      gas\n      staticcall\n      iszero\n      dup1\n      iszero\n      tag_321\n      jumpi\n      returndatasize\n      0x00\n      dup1\n      returndatacopy\n      revert(0x00, returndatasize)\n    tag_321:\n      pop\n      pop\n      pop\n      pop\n      mload(0x40)\n      returndatasize\n      not(0x1f)\n      0x1f\n      dup3\n      add\n      and\n      dup3\n      add\n      dup1\n      0x40\n      mstore\n      pop\n      dup2\n      add\n      swap1\n      tag_322\n      swap2\n      swap1\n      tag_323\n      jump\t// in\n    tag_322:\n      pop\n        /* \"WrappedAUC.sol\":6751:6850  (uint256 fees,) = endpoint.estimateFees(_dstChainId, address(this), message, false, _adapterParams) */\n      swap8\n        /* \"WrappedAUC.sol\":6500:6878  function estimateFees(address _receiver, uint256 _amount, uint16 _dstChainId, bytes memory _adapterParams)... */\n      swap7\n      pop\n      pop\n      pop\n      pop\n      pop\n      pop\n      pop\n      jump\t// out\n        /* \"WrappedAUC.sol\":5021:5240  function setTrustedRemote(uint16 _dstChainId, bytes memory _trustedRemote) external onlyOwner {... */\n    tag_170:\n        /* \"@openzeppelin/contracts/access/Ownable.sol\":1531:1544  _checkOwner() */\n      tag_325\n        /* \"@openzeppelin/contracts/access/Ownable.sol\":1531:1542  _checkOwner */\n      tag_211\n        /* \"@openzeppelin/contracts/access/Ownable.sol\":1531:1544  _checkOwner() */\n      jump\t// in\n    tag_325:\n        /* \"WrappedAUC.sol\":5125:5151  trustedRemote[_dstChainId] */\n      0xffff\n      dup3\n      and\n      0x00\n      swap1\n      dup2\n      mstore\n        /* \"WrappedAUC.sol\":5125:5138  trustedRemote */\n      0x07\n        /* \"WrappedAUC.sol\":5125:5151  trustedRemote[_dstChainId] */\n      0x20\n      mstore\n      0x40\n      swap1\n      keccak256\n        /* \"WrappedAUC.sol\":5125:5168  trustedRemote[_dstChainId] = _trustedRemote */\n      tag_327\n        /* \"WrappedAUC.sol\":5154:5168  _trustedRemote */\n      dup3\n        /* \"WrappedAUC.sol\":5125:5151  trustedRemote[_dstChainId] */\n      dup3\n        /* \"WrappedAUC.sol\":5125:5168  trustedRemote[_dstChainId] = _trustedRemote */\n      tag_328\n      jump\t// in\n    tag_327:\n      pop\n        /* \"WrappedAUC.sol\":5205:5216  _dstChainId */\n      dup2\n        /* \"WrappedAUC.sol\":5184:5233  TrustedRemoteUpdated(_dstChainId, _trustedRemote) */\n      0xffff\n      and\n      0x35450a645fc8b8dcb5150ad335b4577eb182ab7e57024b8777eed53677a9fc9d\n        /* \"WrappedAUC.sol\":5218:5232  _trustedRemote */\n      dup3\n        /* \"WrappedAUC.sol\":5184:5233  TrustedRemoteUpdated(_dstChainId, _trustedRemote) */\n      mload(0x40)\n      tag_329\n      swap2\n      swap1\n      tag_46\n      jump\t// in\n    tag_329:\n      mload(0x40)\n      dup1\n      swap2\n      sub\n      swap1\n      log2\n        /* \"WrappedAUC.sol\":5021:5240  function setTrustedRemote(uint16 _dstChainId, bytes memory _trustedRemote) external onlyOwner {... */\n      pop\n      pop\n      jump\t// out\n        /* \"@openzeppelin/contracts/access/Ownable.sol\":2543:2758  function transferOwnership(address newOwner) public virtual onlyOwner {... */\n    tag_174:\n        /* \"@openzeppelin/contracts/access/Ownable.sol\":1531:1544  _checkOwner() */\n      tag_331\n        /* \"@openzeppelin/contracts/access/Ownable.sol\":1531:1542  _checkOwner */\n      tag_211\n        /* \"@openzeppelin/contracts/access/Ownable.sol\":1531:1544  _checkOwner() */\n      jump\t// in\n    tag_331:\n      sub(shl(0xa0, 0x01), 0x01)\n        /* \"@openzeppelin/contracts/access/Ownable.sol\":2627:2649  newOwner == address(0) */\n      dup2\n      and\n        /* \"@openzeppelin/contracts/access/Ownable.sol\":2623:2714  if (newOwner == address(0)) {... */\n      tag_333\n      jumpi\n        /* \"@openzeppelin/contracts/access/Ownable.sol\":2672:2703  OwnableInvalidOwner(address(0)) */\n      mload(0x40)\n      shl(0xe0, 0x1e4fbdf7)\n      dup2\n      mstore\n        /* \"@openzeppelin/contracts/access/Ownable.sol\":2700:2701  0 */\n      0x00\n        /* \"@openzeppelin/contracts/access/Ownable.sol\":2672:2703  OwnableInvalidOwner(address(0)) */\n      0x04\n      dup3\n      add\n        /* \"#utility.yul\":4554:4605   */\n      mstore\n        /* \"#utility.yul\":4527:4545   */\n      0x24\n      add\n        /* \"@openzeppelin/contracts/access/Ownable.sol\":2672:2703  OwnableInvalidOwner(address(0)) */\n      tag_177\n        /* \"#utility.yul\":4381:4611   */\n      jump\n        /* \"@openzeppelin/contracts/access/Ownable.sol\":2623:2714  if (newOwner == address(0)) {... */\n    tag_333:\n        /* \"@openzeppelin/contracts/access/Ownable.sol\":2723:2751  _transferOwnership(newOwner) */\n      tag_335\n        /* \"@openzeppelin/contracts/access/Ownable.sol\":2742:2750  newOwner */\n      dup2\n        /* \"@openzeppelin/contracts/access/Ownable.sol\":2723:2741  _transferOwnership */\n      tag_283\n        /* \"@openzeppelin/contracts/access/Ownable.sol\":2723:2751  _transferOwnership(newOwner) */\n      jump\t// in\n    tag_335:\n        /* \"@openzeppelin/contracts/access/Ownable.sol\":2543:2758  function transferOwnership(address newOwner) public virtual onlyOwner {... */\n      pop\n      jump\t// out\n        /* \"@openzeppelin/contracts/token/ERC20/ERC20.sol\":7721:7929  function _mint(address account, uint256 value) internal {... */\n    tag_200:\n      sub(shl(0xa0, 0x01), 0x01)\n        /* \"@openzeppelin/contracts/token/ERC20/ERC20.sol\":7791:7812  account == address(0) */\n      dup3\n      and\n        /* \"@openzeppelin/contracts/token/ERC20/ERC20.sol\":7787:7878  if (account == address(0)) {... */\n      tag_337\n      jumpi\n        /* \"@openzeppelin/contracts/token/ERC20/ERC20.sol\":7835:7867  ERC20InvalidReceiver(address(0)) */\n      mload(0x40)\n      shl(0xe0, 0xec442f05)\n      dup2\n      mstore\n        /* \"@openzeppelin/contracts/token/ERC20/ERC20.sol\":7864:7865  0 */\n      0x00\n        /* \"@openzeppelin/contracts/token/ERC20/ERC20.sol\":7835:7867  ERC20InvalidReceiver(address(0)) */\n      0x04\n      dup3\n      add\n        /* \"#utility.yul\":4554:4605   */\n      mstore\n        /* \"#utility.yul\":4527:4545   */\n      0x24\n      add\n        /* \"@openzeppelin/contracts/token/ERC20/ERC20.sol\":7835:7867  ERC20InvalidReceiver(address(0)) */\n      tag_177\n        /* \"#utility.yul\":4381:4611   */\n      jump\n        /* \"@openzeppelin/contracts/token/ERC20/ERC20.sol\":7787:7878  if (account == address(0)) {... */\n    tag_337:\n        /* \"@openzeppelin/contracts/token/ERC20/ERC20.sol\":7887:7922  _update(address(0), account, value) */\n      tag_339\n        /* \"@openzeppelin/contracts/token/ERC20/ERC20.sol\":7903:7904  0 */\n      0x00\n        /* \"@openzeppelin/contracts/token/ERC20/ERC20.sol\":7907:7914  account */\n      dup4\n        /* \"@openzeppelin/contracts/token/ERC20/ERC20.sol\":7916:7921  value */\n      dup4\n        /* \"@openzeppelin/contracts/token/ERC20/ERC20.sol\":7887:7894  _update */\n      tag_340\n        /* \"@openzeppelin/contracts/token/ERC20/ERC20.sol\":7887:7922  _update(address(0), account, value) */\n      jump\t// in\n    tag_339:\n        /* \"@openzeppelin/contracts/token/ERC20/ERC20.sol\":7721:7929  function _mint(address account, uint256 value) internal {... */\n      pop\n      pop\n      jump\t// out\n        /* \"@openzeppelin/contracts/access/Ownable.sol\":1796:1958  function _checkOwner() internal view virtual {... */\n    tag_211:\n        /* \"@openzeppelin/contracts/access/Ownable.sol\":1710:1716  _owner */\n      and(sub(shl(0xa0, 0x01), 0x01), sload(0x05))\n        /* \"@openzeppelin/contracts/utils/Context.sol\":735:745  msg.sender */\n      caller\n        /* \"@openzeppelin/contracts/access/Ownable.sol\":1855:1878  owner() != _msgSender() */\n      eq\n        /* \"@openzeppelin/contracts/access/Ownable.sol\":1851:1952  if (owner() != _msgSender()) {... */\n      tag_282\n      jumpi\n        /* \"@openzeppelin/contracts/access/Ownable.sol\":1901:1941  OwnableUnauthorizedAccount(_msgSender()) */\n      mload(0x40)\n      shl(0xe0, 0x118cdaa7)\n      dup2\n      mstore\n        /* \"@openzeppelin/contracts/utils/Context.sol\":735:745  msg.sender */\n      caller\n        /* \"@openzeppelin/contracts/access/Ownable.sol\":1901:1941  OwnableUnauthorizedAccount(_msgSender()) */\n      0x04\n      dup3\n      add\n        /* \"#utility.yul\":4554:4605   */\n      mstore\n        /* \"#utility.yul\":4527:4545   */\n      0x24\n      add\n        /* \"@openzeppelin/contracts/access/Ownable.sol\":1901:1941  OwnableUnauthorizedAccount(_msgSender()) */\n      tag_177\n        /* \"#utility.yul\":4381:4611   */\n      jump\n        /* \"@openzeppelin/contracts/token/ERC20/ERC20.sol\":8989:9117  function _approve(address owner, address spender, uint256 value) internal {... */\n    tag_221:\n        /* \"@openzeppelin/contracts/token/ERC20/ERC20.sol\":9073:9110  _approve(owner, spender, value, true) */\n      tag_349\n        /* \"@openzeppelin/contracts/token/ERC20/ERC20.sol\":9082:9087  owner */\n      dup4\n        /* \"@openzeppelin/contracts/token/ERC20/ERC20.sol\":9089:9096  spender */\n      dup4\n        /* \"@openzeppelin/contracts/token/ERC20/ERC20.sol\":9098:9103  value */\n      dup4\n        /* \"@openzeppelin/contracts/token/ERC20/ERC20.sol\":9105:9109  true */\n      0x01\n        /* \"@openzeppelin/contracts/token/ERC20/ERC20.sol\":9073:9081  _approve */\n      tag_350\n        /* \"@openzeppelin/contracts/token/ERC20/ERC20.sol\":9073:9110  _approve(owner, spender, value, true) */\n      jump\t// in\n    tag_349:\n        /* \"@openzeppelin/contracts/token/ERC20/ERC20.sol\":8989:9117  function _approve(address owner, address spender, uint256 value) internal {... */\n      pop\n      pop\n      pop\n      jump\t// out\n        /* \"@openzeppelin/contracts/token/ERC20/ERC20.sol\":10663:11140  function _spendAllowance(address owner, address spender, uint256 value) internal virtual {... */\n    tag_233:\n      sub(shl(0xa0, 0x01), 0x01)\n        /* \"@openzeppelin/contracts/token/ERC20/ERC20.sol\":3952:3970  _allowances[owner] */\n      dup4\n      dup2\n      and\n        /* \"@openzeppelin/contracts/token/ERC20/ERC20.sol\":10762:10786  uint256 currentAllowance */\n      0x00\n        /* \"@openzeppelin/contracts/token/ERC20/ERC20.sol\":3952:3970  _allowances[owner] */\n      swap1\n      dup2\n      mstore\n        /* \"@openzeppelin/contracts/token/ERC20/ERC20.sol\":3952:3963  _allowances */\n      0x01\n        /* \"@openzeppelin/contracts/token/ERC20/ERC20.sol\":3952:3970  _allowances[owner] */\n      0x20\n      swap1\n      dup2\n      mstore\n      0x40\n      dup1\n      dup4\n      keccak256\n        /* \"@openzeppelin/contracts/token/ERC20/ERC20.sol\":3952:3979  _allowances[owner][spender] */\n      swap4\n      dup7\n      and\n      dup4\n      mstore\n      swap3\n      swap1\n      mstore\n      keccak256\n      sload\n      not(0x00)\n        /* \"@openzeppelin/contracts/token/ERC20/ERC20.sol\":10828:10865  currentAllowance != type(uint256).max */\n      dup2\n      eq\n        /* \"@openzeppelin/contracts/token/ERC20/ERC20.sol\":10824:11134  if (currentAllowance != type(uint256).max) {... */\n      tag_356\n      jumpi\n        /* \"@openzeppelin/contracts/token/ERC20/ERC20.sol\":10904:10909  value */\n      dup2\n        /* \"@openzeppelin/contracts/token/ERC20/ERC20.sol\":10885:10901  currentAllowance */\n      dup2\n        /* \"@openzeppelin/contracts/token/ERC20/ERC20.sol\":10885:10909  currentAllowance < value */\n      lt\n        /* \"@openzeppelin/contracts/token/ERC20/ERC20.sol\":10881:11011  if (currentAllowance < value) {... */\n      iszero\n      tag_354\n      jumpi\n        /* \"@openzeppelin/contracts/token/ERC20/ERC20.sol\":10963:10970  spender */\n      dup3\n        /* \"@openzeppelin/contracts/token/ERC20/ERC20.sol\":10972:10988  currentAllowance */\n      dup2\n        /* \"@openzeppelin/contracts/token/ERC20/ERC20.sol\":10990:10995  value */\n      dup4\n        /* \"@openzeppelin/contracts/token/ERC20/ERC20.sol\":10936:10996  ERC20InsufficientAllowance(spender, currentAllowance, value) */\n      mload(0x40)\n      shl(0xe1, 0x7dc7a0d9)\n      dup2\n      mstore\n      0x04\n      add\n      tag_177\n      swap4\n      swap3\n      swap2\n      swap1\n      tag_270\n      jump\t// in\n        /* \"@openzeppelin/contracts/token/ERC20/ERC20.sol\":10881:11011  if (currentAllowance < value) {... */\n    tag_354:\n        /* \"@openzeppelin/contracts/token/ERC20/ERC20.sol\":11052:11109  _approve(owner, spender, currentAllowance - value, false) */\n      tag_356\n        /* \"@openzeppelin/contracts/token/ERC20/ERC20.sol\":11061:11066  owner */\n      dup5\n        /* \"@openzeppelin/contracts/token/ERC20/ERC20.sol\":11068:11075  spender */\n      dup5\n        /* \"@openzeppelin/contracts/token/ERC20/ERC20.sol\":11096:11101  value */\n      dup5\n        /* \"@openzeppelin/contracts/token/ERC20/ERC20.sol\":11077:11093  currentAllowance */\n      dup5\n        /* \"@openzeppelin/contracts/token/ERC20/ERC20.sol\":11077:11101  currentAllowance - value */\n      sub\n        /* \"@openzeppelin/contracts/token/ERC20/ERC20.sol\":11103:11108  false */\n      0x00\n        /* \"@openzeppelin/contracts/token/ERC20/ERC20.sol\":11052:11060  _approve */\n      tag_350\n        /* \"@openzeppelin/contracts/token/ERC20/ERC20.sol\":11052:11109  _approve(owner, spender, currentAllowance - value, false) */\n      jump\t// in\n    tag_356:\n        /* \"@openzeppelin/contracts/token/ERC20/ERC20.sol\":10752:11140  {... */\n      pop\n        /* \"@openzeppelin/contracts/token/ERC20/ERC20.sol\":10663:11140  function _spendAllowance(address owner, address spender, uint256 value) internal virtual {... */\n      pop\n      pop\n      pop\n      jump\t// out\n        /* \"@openzeppelin/contracts/token/ERC20/ERC20.sol\":5656:5956  function _transfer(address from, address to, uint256 value) internal {... */\n    tag_235:\n      sub(shl(0xa0, 0x01), 0x01)\n        /* \"@openzeppelin/contracts/token/ERC20/ERC20.sol\":5739:5757  from == address(0) */\n      dup4\n      and\n        /* \"@openzeppelin/contracts/token/ERC20/ERC20.sol\":5735:5821  if (from == address(0)) {... */\n      tag_358\n      jumpi\n        /* \"@openzeppelin/contracts/token/ERC20/ERC20.sol\":5780:5810  ERC20InvalidSender(address(0)) */\n      mload(0x40)\n      shl(0xe1, 0x4b637e8f)\n      dup2\n      mstore\n        /* \"@openzeppelin/contracts/token/ERC20/ERC20.sol\":5807:5808  0 */\n      0x00\n        /* \"@openzeppelin/contracts/token/ERC20/ERC20.sol\":5780:5810  ERC20InvalidSender(address(0)) */\n      0x04\n      dup3\n      add\n        /* \"#utility.yul\":4554:4605   */\n      mstore\n        /* \"#utility.yul\":4527:4545   */\n      0x24\n      add\n        /* \"@openzeppelin/contracts/token/ERC20/ERC20.sol\":5780:5810  ERC20InvalidSender(address(0)) */\n      tag_177\n        /* \"#utility.yul\":4381:4611   */\n      jump\n        /* \"@openzeppelin/contracts/token/ERC20/ERC20.sol\":5735:5821  if (from == address(0)) {... */\n    tag_358:\n      sub(shl(0xa0, 0x01), 0x01)\n        /* \"@openzeppelin/contracts/token/ERC20/ERC20.sol\":5834:5850  to == address(0) */\n      dup3\n      and\n        /* \"@openzeppelin/contracts/token/ERC20/ERC20.sol\":5830:5916  if (to == address(0)) {... */\n      tag_360\n      jumpi\n        /* \"@openzeppelin/contracts/token/ERC20/ERC20.sol\":5873:5905  ERC20InvalidReceiver(address(0)) */\n      mload(0x40)\n      shl(0xe0, 0xec442f05)\n      dup2\n      mstore\n        /* \"@openzeppelin/contracts/token/ERC20/ERC20.sol\":5902:5903  0 */\n      0x00\n        /* \"@openzeppelin/contracts/token/ERC20/ERC20.sol\":5873:5905  ERC20InvalidReceiver(address(0)) */\n      0x04\n      dup3\n      add\n        /* \"#utility.yul\":4554:4605   */\n      mstore\n        /* \"#utility.yul\":4527:4545   */\n      0x24\n      add\n        /* \"@openzeppelin/contracts/token/ERC20/ERC20.sol\":5873:5905  ERC20InvalidReceiver(address(0)) */\n      tag_177\n        /* \"#utility.yul\":4381:4611   */\n      jump\n        /* \"@openzeppelin/contracts/token/ERC20/ERC20.sol\":5830:5916  if (to == address(0)) {... */\n    tag_360:\n        /* \"@openzeppelin/contracts/token/ERC20/ERC20.sol\":5925:5949  _update(from, to, value) */\n      tag_349\n        /* \"@openzeppelin/contracts/token/ERC20/ERC20.sol\":5933:5937  from */\n      dup4\n        /* \"@openzeppelin/contracts/token/ERC20/ERC20.sol\":5939:5941  to */\n      dup4\n        /* \"@openzeppelin/contracts/token/ERC20/ERC20.sol\":5943:5948  value */\n      dup4\n        /* \"@openzeppelin/contracts/token/ERC20/ERC20.sol\":5925:5932  _update */\n      tag_340\n        /* \"@openzeppelin/contracts/token/ERC20/ERC20.sol\":5925:5949  _update(from, to, value) */\n      jump\t// in\n        /* \"@openzeppelin/contracts/token/ERC20/ERC20.sol\":8247:8453  function _burn(address account, uint256 value) internal {... */\n    tag_255:\n      sub(shl(0xa0, 0x01), 0x01)\n        /* \"@openzeppelin/contracts/token/ERC20/ERC20.sol\":8317:8338  account == address(0) */\n      dup3\n      and\n        /* \"@openzeppelin/contracts/token/ERC20/ERC20.sol\":8313:8402  if (account == address(0)) {... */\n      tag_364\n      jumpi\n        /* \"@openzeppelin/contracts/token/ERC20/ERC20.sol\":8361:8391  ERC20InvalidSender(address(0)) */\n      mload(0x40)\n      shl(0xe1, 0x4b637e8f)\n      dup2\n      mstore\n        /* \"@openzeppelin/contracts/token/ERC20/ERC20.sol\":8388:8389  0 */\n      0x00\n        /* \"@openzeppelin/contracts/token/ERC20/ERC20.sol\":8361:8391  ERC20InvalidSender(address(0)) */\n      0x04\n      dup3\n      add\n        /* \"#utility.yul\":4554:4605   */\n      mstore\n        /* \"#utility.yul\":4527:4545   */\n      0x24\n      add\n        /* \"@openzeppelin/contracts/token/ERC20/ERC20.sol\":8361:8391  ERC20InvalidSender(address(0)) */\n      tag_177\n        /* \"#utility.yul\":4381:4611   */\n      jump\n        /* \"@openzeppelin/contracts/token/ERC20/ERC20.sol\":8313:8402  if (account == address(0)) {... */\n    tag_364:\n        /* \"@openzeppelin/contracts/token/ERC20/ERC20.sol\":8411:8446  _update(account, address(0), value) */\n      tag_339\n        /* \"@openzeppelin/contracts/token/ERC20/ERC20.sol\":8419:8426  account */\n      dup3\n        /* \"@openzeppelin/contracts/token/ERC20/ERC20.sol\":8436:8437  0 */\n      0x00\n        /* \"@openzeppelin/contracts/token/ERC20/ERC20.sol\":8440:8445  value */\n      dup4\n        /* \"@openzeppelin/contracts/token/ERC20/ERC20.sol\":8411:8418  _update */\n      tag_340\n        /* \"@openzeppelin/contracts/token/ERC20/ERC20.sol\":8411:8446  _update(account, address(0), value) */\n      jump\t// in\n        /* \"@openzeppelin/contracts/access/Ownable.sol\":2912:3099  function _transferOwnership(address newOwner) internal virtual {... */\n    tag_283:\n        /* \"@openzeppelin/contracts/access/Ownable.sol\":3004:3010  _owner */\n      0x05\n      dup1\n      sload\n      sub(shl(0xa0, 0x01), 0x01)\n        /* \"@openzeppelin/contracts/access/Ownable.sol\":3020:3037  _owner = newOwner */\n      dup4\n      dup2\n      and\n      not(sub(shl(0xa0, 0x01), 0x01))\n      dup4\n      and\n      dup2\n      or\n      swap1\n      swap4\n      sstore\n        /* \"@openzeppelin/contracts/access/Ownable.sol\":3052:3092  OwnershipTransferred(oldOwner, newOwner) */\n      mload(0x40)\n        /* \"@openzeppelin/contracts/access/Ownable.sol\":3004:3010  _owner */\n      swap2\n      and\n      swap2\n        /* \"@openzeppelin/contracts/access/Ownable.sol\":3020:3037  _owner = newOwner */\n      swap1\n        /* \"@openzeppelin/contracts/access/Ownable.sol\":3004:3010  _owner */\n      dup3\n      swap1\n        /* \"@openzeppelin/contracts/access/Ownable.sol\":3052:3092  OwnershipTransferred(oldOwner, newOwner) */\n      0x8be0079c531659141344cd1fd0a4f28419497f9722a3daafe3b4186f6b6457e0\n      swap1\n        /* \"@openzeppelin/contracts/access/Ownable.sol\":2985:3001  address oldOwner */\n      0x00\n      swap1\n        /* \"@openzeppelin/contracts/access/Ownable.sol\":3052:3092  OwnershipTransferred(oldOwner, newOwner) */\n      log3\n        /* \"@openzeppelin/contracts/access/Ownable.sol\":2975:3099  {... */\n      pop\n        /* \"@openzeppelin/contracts/access/Ownable.sol\":2912:3099  function _transferOwnership(address newOwner) internal virtual {... */\n      pop\n      jump\t// out\n        /* \"@openzeppelin/contracts/token/ERC20/ERC20.sol\":6271:7378  function _update(address from, address to, uint256 value) internal virtual {... */\n    tag_340:\n      sub(shl(0xa0, 0x01), 0x01)\n        /* \"@openzeppelin/contracts/token/ERC20/ERC20.sol\":6360:6378  from == address(0) */\n      dup4\n      and\n        /* \"@openzeppelin/contracts/token/ERC20/ERC20.sol\":6356:6896  if (from == address(0)) {... */\n      tag_369\n      jumpi\n        /* \"@openzeppelin/contracts/token/ERC20/ERC20.sol\":6512:6517  value */\n      dup1\n        /* \"@openzeppelin/contracts/token/ERC20/ERC20.sol\":6496:6508  _totalSupply */\n      0x02\n      0x00\n        /* \"@openzeppelin/contracts/token/ERC20/ERC20.sol\":6496:6517  _totalSupply += value */\n      dup3\n      dup3\n      sload\n      tag_370\n      swap2\n      swap1\n      tag_371\n      jump\t// in\n    tag_370:\n      swap1\n      swap2\n      sstore\n      pop\n        /* \"@openzeppelin/contracts/token/ERC20/ERC20.sol\":6356:6896  if (from == address(0)) {... */\n      tag_372\n      swap1\n      pop\n      jump\n    tag_369:\n      sub(shl(0xa0, 0x01), 0x01)\n        /* \"@openzeppelin/contracts/token/ERC20/ERC20.sol\":6570:6585  _balances[from] */\n      dup4\n      and\n        /* \"@openzeppelin/contracts/token/ERC20/ERC20.sol\":6548:6567  uint256 fromBalance */\n      0x00\n        /* \"@openzeppelin/contracts/token/ERC20/ERC20.sol\":6570:6585  _balances[from] */\n      swap1\n      dup2\n      mstore\n      0x20\n      dup2\n      swap1\n      mstore\n      0x40\n      swap1\n      keccak256\n      sload\n        /* \"@openzeppelin/contracts/token/ERC20/ERC20.sol\":6603:6622  fromBalance < value */\n      dup2\n      dup2\n      lt\n        /* \"@openzeppelin/contracts/token/ERC20/ERC20.sol\":6599:6714  if (fromBalance < value) {... */\n      iszero\n      tag_373\n      jumpi\n        /* \"@openzeppelin/contracts/token/ERC20/ERC20.sol\":6674:6678  from */\n      dup4\n        /* \"@openzeppelin/contracts/token/ERC20/ERC20.sol\":6680:6691  fromBalance */\n      dup2\n        /* \"@openzeppelin/contracts/token/ERC20/ERC20.sol\":6693:6698  value */\n      dup4\n        /* \"@openzeppelin/contracts/token/ERC20/ERC20.sol\":6649:6699  ERC20InsufficientBalance(from, fromBalance, value) */\n      mload(0x40)\n      shl(0xe2, 0x391434e3)\n      dup2\n      mstore\n      0x04\n      add\n      tag_177\n      swap4\n      swap3\n      swap2\n      swap1\n      tag_270\n      jump\t// in\n        /* \"@openzeppelin/contracts/token/ERC20/ERC20.sol\":6599:6714  if (fromBalance < value) {... */\n    tag_373:\n      sub(shl(0xa0, 0x01), 0x01)\n        /* \"@openzeppelin/contracts/token/ERC20/ERC20.sol\":6834:6849  _balances[from] */\n      dup5\n      and\n        /* \"@openzeppelin/contracts/token/ERC20/ERC20.sol\":6834:6843  _balances */\n      0x00\n        /* \"@openzeppelin/contracts/token/ERC20/ERC20.sol\":6834:6849  _balances[from] */\n      swap1\n      dup2\n      mstore\n      0x20\n      dup2\n      swap1\n      mstore\n      0x40\n      swap1\n      keccak256\n        /* \"@openzeppelin/contracts/token/ERC20/ERC20.sol\":6852:6871  fromBalance - value */\n      swap1\n      dup3\n      swap1\n      sub\n        /* \"@openzeppelin/contracts/token/ERC20/ERC20.sol\":6834:6871  _balances[from] = fromBalance - value */\n      swap1\n      sstore\n        /* \"@openzeppelin/contracts/token/ERC20/ERC20.sol\":6356:6896  if (from == address(0)) {... */\n    tag_372:\n      sub(shl(0xa0, 0x01), 0x01)\n        /* \"@openzeppelin/contracts/token/ERC20/ERC20.sol\":6910:6926  to == address(0) */\n      dup3\n      and\n        /* \"@openzeppelin/contracts/token/ERC20/ERC20.sol\":6906:7331  if (to == address(0)) {... */\n      tag_375\n      jumpi\n        /* \"@openzeppelin/contracts/token/ERC20/ERC20.sol\":7073:7085  _totalSupply */\n      0x02\n        /* \"@openzeppelin/contracts/token/ERC20/ERC20.sol\":7073:7094  _totalSupply -= value */\n      dup1\n      sload\n      dup3\n      swap1\n      sub\n      swap1\n      sstore\n        /* \"@openzeppelin/contracts/token/ERC20/ERC20.sol\":6906:7331  if (to == address(0)) {... */\n      jump(tag_376)\n    tag_375:\n      sub(shl(0xa0, 0x01), 0x01)\n        /* \"@openzeppelin/contracts/token/ERC20/ERC20.sol\":7284:7297  _balances[to] */\n      dup3\n      and\n        /* \"@openzeppelin/contracts/token/ERC20/ERC20.sol\":7284:7293  _balances */\n      0x00\n        /* \"@openzeppelin/contracts/token/ERC20/ERC20.sol\":7284:7297  _balances[to] */\n      swap1\n      dup2\n      mstore\n      0x20\n      dup2\n      swap1\n      mstore\n      0x40\n      swap1\n      keccak256\n        /* \"@openzeppelin/contracts/token/ERC20/ERC20.sol\":7284:7306  _balances[to] += value */\n      dup1\n      sload\n      dup3\n      add\n      swap1\n      sstore\n        /* \"@openzeppelin/contracts/token/ERC20/ERC20.sol\":6906:7331  if (to == address(0)) {... */\n    tag_376:\n        /* \"@openzeppelin/contracts/token/ERC20/ERC20.sol\":7361:7363  to */\n      dup2\n      sub(shl(0xa0, 0x01), 0x01)\n        /* \"@openzeppelin/contracts/token/ERC20/ERC20.sol\":7346:7371  Transfer(from, to, value) */\n      and\n        /* \"@openzeppelin/contracts/token/ERC20/ERC20.sol\":7355:7359  from */\n      dup4\n      sub(shl(0xa0, 0x01), 0x01)\n        /* \"@openzeppelin/contracts/token/ERC20/ERC20.sol\":7346:7371  Transfer(from, to, value) */\n      and\n      0xddf252ad1be2c89b69c2b068fc378daa952ba7f163c4a11628f55a4df523b3ef\n        /* \"@openzeppelin/contracts/token/ERC20/ERC20.sol\":7365:7370  value */\n      dup4\n        /* \"@openzeppelin/contracts/token/ERC20/ERC20.sol\":7346:7371  Transfer(from, to, value) */\n      mload(0x40)\n      tag_377\n      swap2\n        /* \"#utility.yul\":3209:3234   */\n      dup2\n      mstore\n        /* \"#utility.yul\":3197:3199   */\n      0x20\n        /* \"#utility.yul\":3182:3200   */\n      add\n      swap1\n        /* \"#utility.yul\":3063:3240   */\n      jump\n        /* \"@openzeppelin/contracts/token/ERC20/ERC20.sol\":7346:7371  Transfer(from, to, value) */\n    tag_377:\n      mload(0x40)\n      dup1\n      swap2\n      sub\n      swap1\n      log3\n        /* \"@openzeppelin/contracts/token/ERC20/ERC20.sol\":6271:7378  function _update(address from, address to, uint256 value) internal virtual {... */\n      pop\n      pop\n      pop\n      jump\t// out\n        /* \"@openzeppelin/contracts/token/ERC20/ERC20.sol\":9949:10381  function _approve(address owner, address spender, uint256 value, bool emitEvent) internal virtual {... */\n    tag_350:\n      sub(shl(0xa0, 0x01), 0x01)\n        /* \"@openzeppelin/contracts/token/ERC20/ERC20.sol\":10061:10080  owner == address(0) */\n      dup5\n      and\n        /* \"@openzeppelin/contracts/token/ERC20/ERC20.sol\":10057:10146  if (owner == address(0)) {... */\n      tag_379\n      jumpi\n        /* \"@openzeppelin/contracts/token/ERC20/ERC20.sol\":10103:10135  ERC20InvalidApprover(address(0)) */\n      mload(0x40)\n      shl(0xe0, 0xe602df05)\n      dup2\n      mstore\n        /* \"@openzeppelin/contracts/token/ERC20/ERC20.sol\":10132:10133  0 */\n      0x00\n        /* \"@openzeppelin/contracts/token/ERC20/ERC20.sol\":10103:10135  ERC20InvalidApprover(address(0)) */\n      0x04\n      dup3\n      add\n        /* \"#utility.yul\":4554:4605   */\n      mstore\n        /* \"#utility.yul\":4527:4545   */\n      0x24\n      add\n        /* \"@openzeppelin/contracts/token/ERC20/ERC20.sol\":10103:10135  ERC20InvalidApprover(address(0)) */\n      tag_177\n        /* \"#utility.yul\":4381:4611   */\n      jump\n        /* \"@openzeppelin/contracts/token/ERC20/ERC20.sol\":10057:10146  if (owner == address(0)) {... */\n    tag_379:\n      sub(shl(0xa0, 0x01), 0x01)\n        /* \"@openzeppelin/contracts/token/ERC20/ERC20.sol\":10159:10180  spender == address(0) */\n      dup4\n      and\n        /* \"@openzeppelin/contracts/token/ERC20/ERC20.sol\":10155:10245  if (spender == address(0)) {... */\n      tag_381\n      jumpi\n        /* \"@openzeppelin/contracts/token/ERC20/ERC20.sol\":10203:10234  ERC20InvalidSpender(address(0)) */\n      mload(0x40)\n      shl(0xe1, 0x4a1406b1)\n      dup2\n      mstore\n        /* \"@openzeppelin/contracts/token/ERC20/ERC20.sol\":10231:10232  0 */\n      0x00\n        /* \"@openzeppelin/contracts/token/ERC20/ERC20.sol\":10203:10234  ERC20InvalidSpender(address(0)) */\n      0x04\n      dup3\n      add\n        /* \"#utility.yul\":4554:4605   */\n      mstore\n        /* \"#utility.yul\":4527:4545   */\n      0x24\n      add\n        /* \"@openzeppelin/contracts/token/ERC20/ERC20.sol\":10203:10234  ERC20InvalidSpender(address(0)) */\n      tag_177\n        /* \"#utility.yul\":4381:4611   */\n      jump\n        /* \"@openzeppelin/contracts/token/ERC20/ERC20.sol\":10155:10245  if (spender == address(0)) {... */\n    tag_381:\n      sub(shl(0xa0, 0x01), 0x01)\n        /* \"@openzeppelin/contracts/token/ERC20/ERC20.sol\":10254:10272  _allowances[owner] */\n      dup1\n      dup6\n      and\n      0x00\n      swap1\n      dup2\n      mstore\n        /* \"@openzeppelin/contracts/token/ERC20/ERC20.sol\":10254:10265  _allowances */\n      0x01\n        /* \"@openzeppelin/contracts/token/ERC20/ERC20.sol\":10254:10272  _allowances[owner] */\n      0x20\n      swap1\n      dup2\n      mstore\n      0x40\n      dup1\n      dup4\n      keccak256\n        /* \"@openzeppelin/contracts/token/ERC20/ERC20.sol\":10254:10281  _allowances[owner][spender] */\n      swap4\n      dup8\n      and\n      dup4\n      mstore\n      swap3\n      swap1\n      mstore\n      keccak256\n        /* \"@openzeppelin/contracts/token/ERC20/ERC20.sol\":10254:10289  _allowances[owner][spender] = value */\n      dup3\n      swap1\n      sstore\n        /* \"@openzeppelin/contracts/token/ERC20/ERC20.sol\":10299:10375  if (emitEvent) {... */\n      dup1\n      iszero\n      tag_356\n      jumpi\n        /* \"@openzeppelin/contracts/token/ERC20/ERC20.sol\":10349:10356  spender */\n      dup3\n      sub(shl(0xa0, 0x01), 0x01)\n        /* \"@openzeppelin/contracts/token/ERC20/ERC20.sol\":10333:10364  Approval(owner, spender, value) */\n      and\n        /* \"@openzeppelin/contracts/token/ERC20/ERC20.sol\":10342:10347  owner */\n      dup5\n      sub(shl(0xa0, 0x01), 0x01)\n        /* \"@openzeppelin/contracts/token/ERC20/ERC20.sol\":10333:10364  Approval(owner, spender, value) */\n      and\n      0x8c5be1e5ebec7d5bd14f71427d1e84f3dd0314c0f7b2291e5b200ac8c7c3b925\n        /* \"@openzeppelin/contracts/token/ERC20/ERC20.sol\":10358:10363  value */\n      dup5\n        /* \"@openzeppelin/contracts/token/ERC20/ERC20.sol\":10333:10364  Approval(owner, spender, value) */\n      mload(0x40)\n      tag_384\n      swap2\n        /* \"#utility.yul\":3209:3234   */\n      dup2\n      mstore\n        /* \"#utility.yul\":3197:3199   */\n      0x20\n        /* \"#utility.yul\":3182:3200   */\n      add\n      swap1\n        /* \"#utility.yul\":3063:3240   */\n      jump\n        /* \"@openzeppelin/contracts/token/ERC20/ERC20.sol\":10333:10364  Approval(owner, spender, value) */\n    tag_384:\n      mload(0x40)\n      dup1\n      swap2\n      sub\n      swap1\n      log3\n        /* \"@openzeppelin/contracts/token/ERC20/ERC20.sol\":9949:10381  function _approve(address owner, address spender, uint256 value, bool emitEvent) internal virtual {... */\n      pop\n      pop\n      pop\n      pop\n      jump\t// out\n        /* \"#utility.yul\":14:173   */\n    tag_385:\n        /* \"#utility.yul\":81:101   */\n      dup1\n      calldataload\n        /* \"#utility.yul\":141:147   */\n      0xffff\n        /* \"#utility.yul\":130:148   */\n      dup2\n      and\n        /* \"#utility.yul\":120:149   */\n      dup2\n      eq\n        /* \"#utility.yul\":110:167   */\n      tag_400\n      jumpi\n        /* \"#utility.yul\":163:164   */\n      0x00\n        /* \"#utility.yul\":160:161   */\n      dup1\n        /* \"#utility.yul\":153:165   */\n      revert\n        /* \"#utility.yul\":110:167   */\n    tag_400:\n        /* \"#utility.yul\":14:173   */\n      swap2\n      swap1\n      pop\n      jump\t// out\n        /* \"#utility.yul\":178:525   */\n    tag_386:\n        /* \"#utility.yul\":229:237   */\n      0x00\n        /* \"#utility.yul\":239:245   */\n      dup1\n        /* \"#utility.yul\":293:296   */\n      dup4\n        /* \"#utility.yul\":286:290   */\n      0x1f\n        /* \"#utility.yul\":278:284   */\n      dup5\n        /* \"#utility.yul\":274:291   */\n      add\n        /* \"#utility.yul\":270:297   */\n      slt\n        /* \"#utility.yul\":260:315   */\n      tag_402\n      jumpi\n        /* \"#utility.yul\":311:312   */\n      0x00\n        /* \"#utility.yul\":308:309   */\n      dup1\n        /* \"#utility.yul\":301:313   */\n      revert\n        /* \"#utility.yul\":260:315   */\n    tag_402:\n      pop\n        /* \"#utility.yul\":334:354   */\n      dup2\n      calldataload\n        /* \"#utility.yul\":377:395   */\n      0xffffffffffffffff\n        /* \"#utility.yul\":366:396   */\n      dup2\n      gt\n        /* \"#utility.yul\":363:413   */\n      iszero\n      tag_403\n      jumpi\n        /* \"#utility.yul\":409:410   */\n      0x00\n        /* \"#utility.yul\":406:407   */\n      dup1\n        /* \"#utility.yul\":399:411   */\n      revert\n        /* \"#utility.yul\":363:413   */\n    tag_403:\n        /* \"#utility.yul\":446:450   */\n      0x20\n        /* \"#utility.yul\":438:444   */\n      dup4\n        /* \"#utility.yul\":434:451   */\n      add\n        /* \"#utility.yul\":422:451   */\n      swap2\n      pop\n        /* \"#utility.yul\":498:501   */\n      dup4\n        /* \"#utility.yul\":491:495   */\n      0x20\n        /* \"#utility.yul\":482:488   */\n      dup3\n        /* \"#utility.yul\":474:480   */\n      dup6\n        /* \"#utility.yul\":470:489   */\n      add\n        /* \"#utility.yul\":466:496   */\n      add\n        /* \"#utility.yul\":463:502   */\n      gt\n        /* \"#utility.yul\":460:519   */\n      iszero\n      tag_404\n      jumpi\n        /* \"#utility.yul\":515:516   */\n      0x00\n        /* \"#utility.yul\":512:513   */\n      dup1\n        /* \"#utility.yul\":505:517   */\n      revert\n        /* \"#utility.yul\":460:519   */\n    tag_404:\n        /* \"#utility.yul\":178:525   */\n      swap3\n      pop\n      swap3\n      swap1\n      pop\n      jump\t// out\n        /* \"#utility.yul\":530:701   */\n    tag_387:\n        /* \"#utility.yul\":597:617   */\n      dup1\n      calldataload\n        /* \"#utility.yul\":657:675   */\n      0xffffffffffffffff\n        /* \"#utility.yul\":646:676   */\n      dup2\n      and\n        /* \"#utility.yul\":636:677   */\n      dup2\n      eq\n        /* \"#utility.yul\":626:695   */\n      tag_400\n      jumpi\n        /* \"#utility.yul\":691:692   */\n      0x00\n        /* \"#utility.yul\":688:689   */\n      dup1\n        /* \"#utility.yul\":681:693   */\n      revert\n        /* \"#utility.yul\":706:1568   */\n    tag_40:\n        /* \"#utility.yul\":812:818   */\n      0x00\n        /* \"#utility.yul\":820:826   */\n      dup1\n        /* \"#utility.yul\":828:834   */\n      0x00\n        /* \"#utility.yul\":836:842   */\n      dup1\n        /* \"#utility.yul\":844:850   */\n      0x00\n        /* \"#utility.yul\":852:858   */\n      dup1\n        /* \"#utility.yul\":905:908   */\n      0x80\n        /* \"#utility.yul\":893:902   */\n      dup8\n        /* \"#utility.yul\":884:891   */\n      dup10\n        /* \"#utility.yul\":880:903   */\n      sub\n        /* \"#utility.yul\":876:909   */\n      slt\n        /* \"#utility.yul\":873:926   */\n      iszero\n      tag_408\n      jumpi\n        /* \"#utility.yul\":922:923   */\n      0x00\n        /* \"#utility.yul\":919:920   */\n      dup1\n        /* \"#utility.yul\":912:924   */\n      revert\n        /* \"#utility.yul\":873:926   */\n    tag_408:\n        /* \"#utility.yul\":945:973   */\n      tag_409\n        /* \"#utility.yul\":963:972   */\n      dup8\n        /* \"#utility.yul\":945:973   */\n      tag_385\n      jump\t// in\n    tag_409:\n        /* \"#utility.yul\":935:973   */\n      swap6\n      pop\n        /* \"#utility.yul\":1024:1026   */\n      0x20\n        /* \"#utility.yul\":1013:1022   */\n      dup8\n        /* \"#utility.yul\":1009:1027   */\n      add\n        /* \"#utility.yul\":996:1028   */\n      calldataload\n        /* \"#utility.yul\":1047:1065   */\n      0xffffffffffffffff\n        /* \"#utility.yul\":1088:1090   */\n      dup1\n        /* \"#utility.yul\":1080:1086   */\n      dup3\n        /* \"#utility.yul\":1077:1091   */\n      gt\n        /* \"#utility.yul\":1074:1108   */\n      iszero\n      tag_410\n      jumpi\n        /* \"#utility.yul\":1104:1105   */\n      0x00\n        /* \"#utility.yul\":1101:1102   */\n      dup1\n        /* \"#utility.yul\":1094:1106   */\n      revert\n        /* \"#utility.yul\":1074:1108   */\n    tag_410:\n        /* \"#utility.yul\":1143:1201   */\n      tag_411\n        /* \"#utility.yul\":1193:1200   */\n      dup11\n        /* \"#utility.yul\":1184:1190   */\n      dup4\n        /* \"#utility.yul\":1173:1182   */\n      dup12\n        /* \"#utility.yul\":1169:1191   */\n      add\n        /* \"#utility.yul\":1143:1201   */\n      tag_386\n      jump\t// in\n    tag_411:\n        /* \"#utility.yul\":1220:1228   */\n      swap1\n      swap8\n      pop\n        /* \"#utility.yul\":1117:1201   */\n      swap6\n      pop\n      dup6\n      swap2\n      pop\n        /* \"#utility.yul\":1274:1311   */\n      tag_412\n        /* \"#utility.yul\":1307:1309   */\n      0x40\n        /* \"#utility.yul\":1292:1310   */\n      dup11\n      add\n        /* \"#utility.yul\":1274:1311   */\n      tag_387\n      jump\t// in\n    tag_412:\n        /* \"#utility.yul\":1264:1311   */\n      swap5\n      pop\n        /* \"#utility.yul\":1364:1366   */\n      0x60\n        /* \"#utility.yul\":1353:1362   */\n      dup10\n        /* \"#utility.yul\":1349:1367   */\n      add\n        /* \"#utility.yul\":1336:1368   */\n      calldataload\n        /* \"#utility.yul\":1320:1368   */\n      swap2\n      pop\n        /* \"#utility.yul\":1393:1395   */\n      dup1\n        /* \"#utility.yul\":1383:1391   */\n      dup3\n        /* \"#utility.yul\":1380:1396   */\n      gt\n        /* \"#utility.yul\":1377:1413   */\n      iszero\n      tag_413\n      jumpi\n        /* \"#utility.yul\":1409:1410   */\n      0x00\n        /* \"#utility.yul\":1406:1407   */\n      dup1\n        /* \"#utility.yul\":1399:1411   */\n      revert\n        /* \"#utility.yul\":1377:1413   */\n    tag_413:\n      pop\n        /* \"#utility.yul\":1448:1508   */\n      tag_414\n        /* \"#utility.yul\":1500:1507   */\n      dup10\n        /* \"#utility.yul\":1489:1497   */\n      dup3\n        /* \"#utility.yul\":1478:1487   */\n      dup11\n        /* \"#utility.yul\":1474:1498   */\n      add\n        /* \"#utility.yul\":1448:1508   */\n      tag_386\n      jump\t// in\n    tag_414:\n        /* \"#utility.yul\":706:1568   */\n      swap8\n      swap11\n      swap7\n      swap10\n      pop\n      swap5\n      swap8\n      pop\n      swap3\n      swap6\n        /* \"#utility.yul\":1527:1535   */\n      swap4\n      swap5\n        /* \"#utility.yul\":706:1568   */\n      swap3\n      pop\n      pop\n      pop\n      jump\t// out\n        /* \"#utility.yul\":1573:1996   */\n    tag_388:\n        /* \"#utility.yul\":1615:1618   */\n      0x00\n        /* \"#utility.yul\":1653:1658   */\n      dup2\n        /* \"#utility.yul\":1647:1659   */\n      mload\n        /* \"#utility.yul\":1680:1686   */\n      dup1\n        /* \"#utility.yul\":1675:1678   */\n      dup5\n        /* \"#utility.yul\":1668:1687   */\n      mstore\n        /* \"#utility.yul\":1705:1706   */\n      0x00\n        /* \"#utility.yul\":1715:1877   */\n    tag_416:\n        /* \"#utility.yul\":1729:1735   */\n      dup2\n        /* \"#utility.yul\":1726:1727   */\n      dup2\n        /* \"#utility.yul\":1723:1736   */\n      lt\n        /* \"#utility.yul\":1715:1877   */\n      iszero\n      tag_418\n      jumpi\n        /* \"#utility.yul\":1791:1795   */\n      0x20\n        /* \"#utility.yul\":1847:1860   */\n      dup2\n      dup6\n      add\n        /* \"#utility.yul\":1843:1865   */\n      dup2\n      add\n        /* \"#utility.yul\":1837:1866   */\n      mload\n        /* \"#utility.yul\":1819:1830   */\n      dup7\n      dup4\n      add\n        /* \"#utility.yul\":1815:1835   */\n      dup3\n      add\n        /* \"#utility.yul\":1808:1867   */\n      mstore\n        /* \"#utility.yul\":1744:1756   */\n      add\n        /* \"#utility.yul\":1715:1877   */\n      jump(tag_416)\n    tag_418:\n        /* \"#utility.yul\":1719:1722   */\n      pop\n        /* \"#utility.yul\":1922:1923   */\n      0x00\n        /* \"#utility.yul\":1915:1919   */\n      0x20\n        /* \"#utility.yul\":1906:1912   */\n      dup3\n        /* \"#utility.yul\":1901:1904   */\n      dup7\n        /* \"#utility.yul\":1897:1913   */\n      add\n        /* \"#utility.yul\":1893:1920   */\n      add\n        /* \"#utility.yul\":1886:1924   */\n      mstore\n        /* \"#utility.yul\":1985:1989   */\n      0x20\n        /* \"#utility.yul\":1978:1980   */\n      0x1f\n        /* \"#utility.yul\":1974:1981   */\n      not\n        /* \"#utility.yul\":1969:1971   */\n      0x1f\n        /* \"#utility.yul\":1961:1967   */\n      dup4\n        /* \"#utility.yul\":1957:1972   */\n      add\n        /* \"#utility.yul\":1953:1982   */\n      and\n        /* \"#utility.yul\":1948:1951   */\n      dup6\n        /* \"#utility.yul\":1944:1983   */\n      add\n        /* \"#utility.yul\":1940:1990   */\n      add\n        /* \"#utility.yul\":1933:1990   */\n      swap2\n      pop\n      pop\n        /* \"#utility.yul\":1573:1996   */\n      swap3\n      swap2\n      pop\n      pop\n      jump\t// out\n        /* \"#utility.yul\":2001:2221   */\n    tag_46:\n        /* \"#utility.yul\":2150:2152   */\n      0x20\n        /* \"#utility.yul\":2139:2148   */\n      dup2\n        /* \"#utility.yul\":2132:2153   */\n      mstore\n        /* \"#utility.yul\":2113:2117   */\n      0x00\n        /* \"#utility.yul\":2170:2215   */\n      tag_420\n        /* \"#utility.yul\":2211:2213   */\n      0x20\n        /* \"#utility.yul\":2200:2209   */\n      dup4\n        /* \"#utility.yul\":2196:2214   */\n      add\n        /* \"#utility.yul\":2188:2194   */\n      dup5\n        /* \"#utility.yul\":2170:2215   */\n      tag_388\n      jump\t// in\n    tag_420:\n        /* \"#utility.yul\":2162:2215   */\n      swap4\n        /* \"#utility.yul\":2001:2221   */\n      swap3\n      pop\n      pop\n      pop\n      jump\t// out\n        /* \"#utility.yul\":2226:2410   */\n    tag_50:\n        /* \"#utility.yul\":2284:2290   */\n      0x00\n        /* \"#utility.yul\":2337:2339   */\n      0x20\n        /* \"#utility.yul\":2325:2334   */\n      dup3\n        /* \"#utility.yul\":2316:2323   */\n      dup5\n        /* \"#utility.yul\":2312:2335   */\n      sub\n        /* \"#utility.yul\":2308:2340   */\n      slt\n        /* \"#utility.yul\":2305:2357   */\n      iszero\n      tag_422\n      jumpi\n        /* \"#utility.yul\":2353:2354   */\n      0x00\n        /* \"#utility.yul\":2350:2351   */\n      dup1\n        /* \"#utility.yul\":2343:2355   */\n      revert\n        /* \"#utility.yul\":2305:2357   */\n    tag_422:\n        /* \"#utility.yul\":2376:2404   */\n      tag_420\n        /* \"#utility.yul\":2394:2403   */\n      dup3\n        /* \"#utility.yul\":2376:2404   */\n      tag_385\n      jump\t// in\n        /* \"#utility.yul\":2415:2546   */\n    tag_389:\n      sub(shl(0xa0, 0x01), 0x01)\n        /* \"#utility.yul\":2490:2521   */\n      dup2\n      and\n        /* \"#utility.yul\":2480:2522   */\n      dup2\n      eq\n        /* \"#utility.yul\":2470:2540   */\n      tag_335\n      jumpi\n        /* \"#utility.yul\":2536:2537   */\n      0x00\n        /* \"#utility.yul\":2533:2534   */\n      dup1\n        /* \"#utility.yul\":2526:2538   */\n      revert\n        /* \"#utility.yul\":2551:2866   */\n    tag_55:\n        /* \"#utility.yul\":2619:2625   */\n      0x00\n        /* \"#utility.yul\":2627:2633   */\n      dup1\n        /* \"#utility.yul\":2680:2682   */\n      0x40\n        /* \"#utility.yul\":2668:2677   */\n      dup4\n        /* \"#utility.yul\":2659:2666   */\n      dup6\n        /* \"#utility.yul\":2655:2678   */\n      sub\n        /* \"#utility.yul\":2651:2683   */\n      slt\n        /* \"#utility.yul\":2648:2700   */\n      iszero\n      tag_427\n      jumpi\n        /* \"#utility.yul\":2696:2697   */\n      0x00\n        /* \"#utility.yul\":2693:2694   */\n      dup1\n        /* \"#utility.yul\":2686:2698   */\n      revert\n        /* \"#utility.yul\":2648:2700   */\n    tag_427:\n        /* \"#utility.yul\":2735:2744   */\n      dup3\n        /* \"#utility.yul\":2722:2745   */\n      calldataload\n        /* \"#utility.yul\":2754:2785   */\n      tag_428\n        /* \"#utility.yul\":2779:2784   */\n      dup2\n        /* \"#utility.yul\":2754:2785   */\n      tag_389\n      jump\t// in\n    tag_428:\n        /* \"#utility.yul\":2804:2809   */\n      swap5\n        /* \"#utility.yul\":2856:2858   */\n      0x20\n        /* \"#utility.yul\":2841:2859   */\n      swap4\n      swap1\n      swap4\n      add\n        /* \"#utility.yul\":2828:2860   */\n      calldataload\n      swap4\n      pop\n      pop\n      pop\n        /* \"#utility.yul\":2551:2866   */\n      jump\t// out\n        /* \"#utility.yul\":3245:3701   */\n    tag_71:\n        /* \"#utility.yul\":3322:3328   */\n      0x00\n        /* \"#utility.yul\":3330:3336   */\n      dup1\n        /* \"#utility.yul\":3338:3344   */\n      0x00\n        /* \"#utility.yul\":3391:3393   */\n      0x60\n        /* \"#utility.yul\":3379:3388   */\n      dup5\n        /* \"#utility.yul\":3370:3377   */\n      dup7\n        /* \"#utility.yul\":3366:3389   */\n      sub\n        /* \"#utility.yul\":3362:3394   */\n      slt\n        /* \"#utility.yul\":3359:3411   */\n      iszero\n      tag_432\n      jumpi\n        /* \"#utility.yul\":3407:3408   */\n      0x00\n        /* \"#utility.yul\":3404:3405   */\n      dup1\n        /* \"#utility.yul\":3397:3409   */\n      revert\n        /* \"#utility.yul\":3359:3411   */\n    tag_432:\n        /* \"#utility.yul\":3446:3455   */\n      dup4\n        /* \"#utility.yul\":3433:3456   */\n      calldataload\n        /* \"#utility.yul\":3465:3496   */\n      tag_433\n        /* \"#utility.yul\":3490:3495   */\n      dup2\n        /* \"#utility.yul\":3465:3496   */\n      tag_389\n      jump\t// in\n    tag_433:\n        /* \"#utility.yul\":3515:3520   */\n      swap3\n      pop\n        /* \"#utility.yul\":3572:3574   */\n      0x20\n        /* \"#utility.yul\":3557:3575   */\n      dup5\n      add\n        /* \"#utility.yul\":3544:3576   */\n      calldataload\n        /* \"#utility.yul\":3585:3618   */\n      tag_434\n        /* \"#utility.yul\":3544:3576   */\n      dup2\n        /* \"#utility.yul\":3585:3618   */\n      tag_389\n      jump\t// in\n    tag_434:\n        /* \"#utility.yul\":3245:3701   */\n      swap3\n      swap6\n        /* \"#utility.yul\":3637:3644   */\n      swap3\n      swap5\n      pop\n      pop\n      pop\n        /* \"#utility.yul\":3691:3693   */\n      0x40\n        /* \"#utility.yul\":3676:3694   */\n      swap2\n      swap1\n      swap2\n      add\n        /* \"#utility.yul\":3663:3695   */\n      calldataload\n      swap1\n        /* \"#utility.yul\":3245:3701   */\n      jump\t// out\n        /* \"#utility.yul\":3895:4376   */\n    tag_82:\n        /* \"#utility.yul\":3973:3979   */\n      0x00\n        /* \"#utility.yul\":3981:3987   */\n      dup1\n        /* \"#utility.yul\":3989:3995   */\n      0x00\n        /* \"#utility.yul\":4042:4044   */\n      0x40\n        /* \"#utility.yul\":4030:4039   */\n      dup5\n        /* \"#utility.yul\":4021:4028   */\n      dup7\n        /* \"#utility.yul\":4017:4040   */\n      sub\n        /* \"#utility.yul\":4013:4045   */\n      slt\n        /* \"#utility.yul\":4010:4062   */\n      iszero\n      tag_437\n      jumpi\n        /* \"#utility.yul\":4058:4059   */\n      0x00\n        /* \"#utility.yul\":4055:4056   */\n      dup1\n        /* \"#utility.yul\":4048:4060   */\n      revert\n        /* \"#utility.yul\":4010:4062   */\n    tag_437:\n        /* \"#utility.yul\":4081:4109   */\n      tag_438\n        /* \"#utility.yul\":4099:4108   */\n      dup5\n        /* \"#utility.yul\":4081:4109   */\n      tag_385\n      jump\t// in\n    tag_438:\n        /* \"#utility.yul\":4071:4109   */\n      swap3\n      pop\n        /* \"#utility.yul\":4160:4162   */\n      0x20\n        /* \"#utility.yul\":4149:4158   */\n      dup5\n        /* \"#utility.yul\":4145:4163   */\n      add\n        /* \"#utility.yul\":4132:4164   */\n      calldataload\n        /* \"#utility.yul\":4187:4205   */\n      0xffffffffffffffff\n        /* \"#utility.yul\":4179:4185   */\n      dup2\n        /* \"#utility.yul\":4176:4206   */\n      gt\n        /* \"#utility.yul\":4173:4223   */\n      iszero\n      tag_439\n      jumpi\n        /* \"#utility.yul\":4219:4220   */\n      0x00\n        /* \"#utility.yul\":4216:4217   */\n      dup1\n        /* \"#utility.yul\":4209:4221   */\n      revert\n        /* \"#utility.yul\":4173:4223   */\n    tag_439:\n        /* \"#utility.yul\":4258:4316   */\n      tag_440\n        /* \"#utility.yul\":4308:4315   */\n      dup7\n        /* \"#utility.yul\":4299:4305   */\n      dup3\n        /* \"#utility.yul\":4288:4297   */\n      dup8\n        /* \"#utility.yul\":4284:4306   */\n      add\n        /* \"#utility.yul\":4258:4316   */\n      tag_386\n      jump\t// in\n    tag_440:\n        /* \"#utility.yul\":3895:4376   */\n      swap5\n      swap8\n        /* \"#utility.yul\":4335:4343   */\n      swap1\n      swap7\n      pop\n        /* \"#utility.yul\":4232:4316   */\n      swap4\n      swap5\n      pop\n      pop\n      pop\n      pop\n        /* \"#utility.yul\":3895:4376   */\n      jump\t// out\n        /* \"#utility.yul\":4616:4743   */\n    tag_390:\n        /* \"#utility.yul\":4677:4687   */\n      0x4e487b71\n        /* \"#utility.yul\":4672:4675   */\n      0xe0\n        /* \"#utility.yul\":4668:4688   */\n      shl\n        /* \"#utility.yul\":4665:4666   */\n      0x00\n        /* \"#utility.yul\":4658:4689   */\n      mstore\n        /* \"#utility.yul\":4708:4712   */\n      0x41\n        /* \"#utility.yul\":4705:4706   */\n      0x04\n        /* \"#utility.yul\":4698:4713   */\n      mstore\n        /* \"#utility.yul\":4732:4736   */\n      0x24\n        /* \"#utility.yul\":4729:4730   */\n      0x00\n        /* \"#utility.yul\":4722:4737   */\n      revert\n        /* \"#utility.yul\":4748:5466   */\n    tag_391:\n        /* \"#utility.yul\":4790:4795   */\n      0x00\n        /* \"#utility.yul\":4843:4846   */\n      dup3\n        /* \"#utility.yul\":4836:4840   */\n      0x1f\n        /* \"#utility.yul\":4828:4834   */\n      dup4\n        /* \"#utility.yul\":4824:4841   */\n      add\n        /* \"#utility.yul\":4820:4847   */\n      slt\n        /* \"#utility.yul\":4810:4865   */\n      tag_444\n      jumpi\n        /* \"#utility.yul\":4861:4862   */\n      0x00\n        /* \"#utility.yul\":4858:4859   */\n      dup1\n        /* \"#utility.yul\":4851:4863   */\n      revert\n        /* \"#utility.yul\":4810:4865   */\n    tag_444:\n        /* \"#utility.yul\":4897:4903   */\n      dup2\n        /* \"#utility.yul\":4884:4904   */\n      calldataload\n        /* \"#utility.yul\":4923:4941   */\n      0xffffffffffffffff\n        /* \"#utility.yul\":4960:4962   */\n      dup1\n        /* \"#utility.yul\":4956:4958   */\n      dup3\n        /* \"#utility.yul\":4953:4963   */\n      gt\n        /* \"#utility.yul\":4950:4986   */\n      iszero\n      tag_446\n      jumpi\n        /* \"#utility.yul\":4966:4984   */\n      tag_446\n      tag_390\n      jump\t// in\n    tag_446:\n        /* \"#utility.yul\":5041:5043   */\n      0x40\n        /* \"#utility.yul\":5035:5044   */\n      mload\n        /* \"#utility.yul\":5009:5011   */\n      0x1f\n        /* \"#utility.yul\":5095:5108   */\n      dup4\n      add\n      not(0x1f)\n        /* \"#utility.yul\":5091:5113   */\n      swap1\n      dup2\n      and\n        /* \"#utility.yul\":5115:5117   */\n      0x3f\n        /* \"#utility.yul\":5087:5118   */\n      add\n        /* \"#utility.yul\":5083:5123   */\n      and\n        /* \"#utility.yul\":5071:5124   */\n      dup2\n      add\n      swap1\n        /* \"#utility.yul\":5139:5157   */\n      dup3\n      dup3\n      gt\n        /* \"#utility.yul\":5159:5181   */\n      dup2\n      dup4\n      lt\n        /* \"#utility.yul\":5136:5182   */\n      or\n        /* \"#utility.yul\":5133:5205   */\n      iszero\n      tag_448\n      jumpi\n        /* \"#utility.yul\":5185:5203   */\n      tag_448\n      tag_390\n      jump\t// in\n    tag_448:\n        /* \"#utility.yul\":5225:5235   */\n      dup2\n        /* \"#utility.yul\":5221:5223   */\n      0x40\n        /* \"#utility.yul\":5214:5236   */\n      mstore\n        /* \"#utility.yul\":5260:5262   */\n      dup4\n        /* \"#utility.yul\":5252:5258   */\n      dup2\n        /* \"#utility.yul\":5245:5263   */\n      mstore\n        /* \"#utility.yul\":5306:5309   */\n      dup7\n        /* \"#utility.yul\":5299:5303   */\n      0x20\n        /* \"#utility.yul\":5294:5296   */\n      dup6\n        /* \"#utility.yul\":5286:5292   */\n      dup9\n        /* \"#utility.yul\":5282:5297   */\n      add\n        /* \"#utility.yul\":5278:5304   */\n      add\n        /* \"#utility.yul\":5275:5310   */\n      gt\n        /* \"#utility.yul\":5272:5327   */\n      iszero\n      tag_449\n      jumpi\n        /* \"#utility.yul\":5323:5324   */\n      0x00\n        /* \"#utility.yul\":5320:5321   */\n      dup1\n        /* \"#utility.yul\":5313:5325   */\n      revert\n        /* \"#utility.yul\":5272:5327   */\n    tag_449:\n        /* \"#utility.yul\":5387:5389   */\n      dup4\n        /* \"#utility.yul\":5380:5384   */\n      0x20\n        /* \"#utility.yul\":5372:5378   */\n      dup8\n        /* \"#utility.yul\":5368:5385   */\n      add\n        /* \"#utility.yul\":5361:5365   */\n      0x20\n        /* \"#utility.yul\":5353:5359   */\n      dup4\n        /* \"#utility.yul\":5349:5366   */\n      add\n        /* \"#utility.yul\":5336:5390   */\n      calldatacopy\n        /* \"#utility.yul\":5434:5435   */\n      0x00\n        /* \"#utility.yul\":5427:5431   */\n      0x20\n        /* \"#utility.yul\":5422:5424   */\n      dup6\n        /* \"#utility.yul\":5414:5420   */\n      dup4\n        /* \"#utility.yul\":5410:5425   */\n      add\n        /* \"#utility.yul\":5406:5432   */\n      add\n        /* \"#utility.yul\":5399:5436   */\n      mstore\n        /* \"#utility.yul\":5454:5460   */\n      dup1\n        /* \"#utility.yul\":5445:5460   */\n      swap5\n      pop\n      pop\n      pop\n      pop\n      pop\n        /* \"#utility.yul\":4748:5466   */\n      swap3\n      swap2\n      pop\n      pop\n      jump\t// out\n        /* \"#utility.yul\":5471:6067   */\n    tag_91:\n        /* \"#utility.yul\":5565:5571   */\n      0x00\n        /* \"#utility.yul\":5573:5579   */\n      dup1\n        /* \"#utility.yul\":5581:5587   */\n      0x00\n        /* \"#utility.yul\":5589:5595   */\n      dup1\n        /* \"#utility.yul\":5642:5645   */\n      0x80\n        /* \"#utility.yul\":5630:5639   */\n      dup6\n        /* \"#utility.yul\":5621:5628   */\n      dup8\n        /* \"#utility.yul\":5617:5640   */\n      sub\n        /* \"#utility.yul\":5613:5646   */\n      slt\n        /* \"#utility.yul\":5610:5663   */\n      iszero\n      tag_451\n      jumpi\n        /* \"#utility.yul\":5659:5660   */\n      0x00\n        /* \"#utility.yul\":5656:5657   */\n      dup1\n        /* \"#utility.yul\":5649:5661   */\n      revert\n        /* \"#utility.yul\":5610:5663   */\n    tag_451:\n        /* \"#utility.yul\":5698:5707   */\n      dup5\n        /* \"#utility.yul\":5685:5708   */\n      calldataload\n        /* \"#utility.yul\":5717:5748   */\n      tag_452\n        /* \"#utility.yul\":5742:5747   */\n      dup2\n        /* \"#utility.yul\":5717:5748   */\n      tag_389\n      jump\t// in\n    tag_452:\n        /* \"#utility.yul\":5767:5772   */\n      swap4\n      pop\n        /* \"#utility.yul\":5819:5821   */\n      0x20\n        /* \"#utility.yul\":5804:5822   */\n      dup6\n      add\n        /* \"#utility.yul\":5791:5823   */\n      calldataload\n      swap3\n      pop\n        /* \"#utility.yul\":5842:5879   */\n      tag_453\n        /* \"#utility.yul\":5875:5877   */\n      0x40\n        /* \"#utility.yul\":5860:5878   */\n      dup7\n      add\n        /* \"#utility.yul\":5842:5879   */\n      tag_385\n      jump\t// in\n    tag_453:\n        /* \"#utility.yul\":5832:5879   */\n      swap2\n      pop\n        /* \"#utility.yul\":5930:5932   */\n      0x60\n        /* \"#utility.yul\":5919:5928   */\n      dup6\n        /* \"#utility.yul\":5915:5933   */\n      add\n        /* \"#utility.yul\":5902:5934   */\n      calldataload\n        /* \"#utility.yul\":5957:5975   */\n      0xffffffffffffffff\n        /* \"#utility.yul\":5949:5955   */\n      dup2\n        /* \"#utility.yul\":5946:5976   */\n      gt\n        /* \"#utility.yul\":5943:5993   */\n      iszero\n      tag_454\n      jumpi\n        /* \"#utility.yul\":5989:5990   */\n      0x00\n        /* \"#utility.yul\":5986:5987   */\n      dup1\n        /* \"#utility.yul\":5979:5991   */\n      revert\n        /* \"#utility.yul\":5943:5993   */\n    tag_454:\n        /* \"#utility.yul\":6012:6061   */\n      tag_455\n        /* \"#utility.yul\":6053:6060   */\n      dup8\n        /* \"#utility.yul\":6044:6050   */\n      dup3\n        /* \"#utility.yul\":6033:6042   */\n      dup9\n        /* \"#utility.yul\":6029:6051   */\n      add\n        /* \"#utility.yul\":6012:6061   */\n      tag_391\n      jump\t// in\n    tag_455:\n        /* \"#utility.yul\":6002:6061   */\n      swap2\n      pop\n      pop\n        /* \"#utility.yul\":5471:6067   */\n      swap3\n      swap6\n      swap2\n      swap5\n      pop\n      swap3\n      pop\n      jump\t// out\n        /* \"#utility.yul\":6072:6319   */\n    tag_96:\n        /* \"#utility.yul\":6131:6137   */\n      0x00\n        /* \"#utility.yul\":6184:6186   */\n      0x20\n        /* \"#utility.yul\":6172:6181   */\n      dup3\n        /* \"#utility.yul\":6163:6170   */\n      dup5\n        /* \"#utility.yul\":6159:6182   */\n      sub\n        /* \"#utility.yul\":6155:6187   */\n      slt\n        /* \"#utility.yul\":6152:6204   */\n      iszero\n      tag_457\n      jumpi\n        /* \"#utility.yul\":6200:6201   */\n      0x00\n        /* \"#utility.yul\":6197:6198   */\n      dup1\n        /* \"#utility.yul\":6190:6202   */\n      revert\n        /* \"#utility.yul\":6152:6204   */\n    tag_457:\n        /* \"#utility.yul\":6239:6248   */\n      dup2\n        /* \"#utility.yul\":6226:6249   */\n      calldataload\n        /* \"#utility.yul\":6258:6289   */\n      tag_420\n        /* \"#utility.yul\":6283:6288   */\n      dup2\n        /* \"#utility.yul\":6258:6289   */\n      tag_389\n      jump\t// in\n        /* \"#utility.yul\":7057:7679   */\n    tag_142:\n        /* \"#utility.yul\":7152:7158   */\n      0x00\n        /* \"#utility.yul\":7160:7166   */\n      dup1\n        /* \"#utility.yul\":7168:7174   */\n      0x00\n        /* \"#utility.yul\":7176:7182   */\n      dup1\n        /* \"#utility.yul\":7184:7190   */\n      0x00\n        /* \"#utility.yul\":7237:7240   */\n      0x80\n        /* \"#utility.yul\":7225:7234   */\n      dup7\n        /* \"#utility.yul\":7216:7223   */\n      dup9\n        /* \"#utility.yul\":7212:7235   */\n      sub\n        /* \"#utility.yul\":7208:7241   */\n      slt\n        /* \"#utility.yul\":7205:7258   */\n      iszero\n      tag_465\n      jumpi\n        /* \"#utility.yul\":7254:7255   */\n      0x00\n        /* \"#utility.yul\":7251:7252   */\n      dup1\n        /* \"#utility.yul\":7244:7256   */\n      revert\n        /* \"#utility.yul\":7205:7258   */\n    tag_465:\n        /* \"#utility.yul\":7277:7305   */\n      tag_466\n        /* \"#utility.yul\":7295:7304   */\n      dup7\n        /* \"#utility.yul\":7277:7305   */\n      tag_385\n      jump\t// in\n    tag_466:\n        /* \"#utility.yul\":7267:7305   */\n      swap5\n      pop\n        /* \"#utility.yul\":7324:7361   */\n      tag_467\n        /* \"#utility.yul\":7357:7359   */\n      0x20\n        /* \"#utility.yul\":7346:7355   */\n      dup8\n        /* \"#utility.yul\":7342:7360   */\n      add\n        /* \"#utility.yul\":7324:7361   */\n      tag_385\n      jump\t// in\n    tag_467:\n        /* \"#utility.yul\":7314:7361   */\n      swap4\n      pop\n        /* \"#utility.yul\":7408:7410   */\n      0x40\n        /* \"#utility.yul\":7397:7406   */\n      dup7\n        /* \"#utility.yul\":7393:7411   */\n      add\n        /* \"#utility.yul\":7380:7412   */\n      calldataload\n        /* \"#utility.yul\":7370:7412   */\n      swap3\n      pop\n        /* \"#utility.yul\":7463:7465   */\n      0x60\n        /* \"#utility.yul\":7452:7461   */\n      dup7\n        /* \"#utility.yul\":7448:7466   */\n      add\n        /* \"#utility.yul\":7435:7467   */\n      calldataload\n        /* \"#utility.yul\":7490:7508   */\n      0xffffffffffffffff\n        /* \"#utility.yul\":7482:7488   */\n      dup2\n        /* \"#utility.yul\":7479:7509   */\n      gt\n        /* \"#utility.yul\":7476:7526   */\n      iszero\n      tag_468\n      jumpi\n        /* \"#utility.yul\":7522:7523   */\n      0x00\n        /* \"#utility.yul\":7519:7520   */\n      dup1\n        /* \"#utility.yul\":7512:7524   */\n      revert\n        /* \"#utility.yul\":7476:7526   */\n    tag_468:\n        /* \"#utility.yul\":7561:7619   */\n      tag_469\n        /* \"#utility.yul\":7611:7618   */\n      dup9\n        /* \"#utility.yul\":7602:7608   */\n      dup3\n        /* \"#utility.yul\":7591:7600   */\n      dup10\n        /* \"#utility.yul\":7587:7609   */\n      add\n        /* \"#utility.yul\":7561:7619   */\n      tag_386\n      jump\t// in\n    tag_469:\n        /* \"#utility.yul\":7057:7679   */\n      swap7\n      swap10\n      swap6\n      swap9\n      pop\n      swap4\n      swap7\n      pop\n        /* \"#utility.yul\":7638:7646   */\n      swap3\n      swap5\n        /* \"#utility.yul\":7535:7619   */\n      swap4\n        /* \"#utility.yul\":7057:7679   */\n      swap3\n      pop\n      pop\n      pop\n      jump\t// out\n        /* \"#utility.yul\":7684:7864   */\n    tag_147:\n        /* \"#utility.yul\":7743:7749   */\n      0x00\n        /* \"#utility.yul\":7796:7798   */\n      0x20\n        /* \"#utility.yul\":7784:7793   */\n      dup3\n        /* \"#utility.yul\":7775:7782   */\n      dup5\n        /* \"#utility.yul\":7771:7794   */\n      sub\n        /* \"#utility.yul\":7767:7799   */\n      slt\n        /* \"#utility.yul\":7764:7816   */\n      iszero\n      tag_471\n      jumpi\n        /* \"#utility.yul\":7812:7813   */\n      0x00\n        /* \"#utility.yul\":7809:7810   */\n      dup1\n        /* \"#utility.yul\":7802:7814   */\n      revert\n        /* \"#utility.yul\":7764:7816   */\n    tag_471:\n      pop\n        /* \"#utility.yul\":7835:7858   */\n      calldataload\n      swap2\n        /* \"#utility.yul\":7684:7864   */\n      swap1\n      pop\n      jump\t// out\n        /* \"#utility.yul\":7869:8257   */\n    tag_152:\n        /* \"#utility.yul\":7937:7943   */\n      0x00\n        /* \"#utility.yul\":7945:7951   */\n      dup1\n        /* \"#utility.yul\":7998:8000   */\n      0x40\n        /* \"#utility.yul\":7986:7995   */\n      dup4\n        /* \"#utility.yul\":7977:7984   */\n      dup6\n        /* \"#utility.yul\":7973:7996   */\n      sub\n        /* \"#utility.yul\":7969:8001   */\n      slt\n        /* \"#utility.yul\":7966:8018   */\n      iszero\n      tag_473\n      jumpi\n        /* \"#utility.yul\":8014:8015   */\n      0x00\n        /* \"#utility.yul\":8011:8012   */\n      dup1\n        /* \"#utility.yul\":8004:8016   */\n      revert\n        /* \"#utility.yul\":7966:8018   */\n    tag_473:\n        /* \"#utility.yul\":8053:8062   */\n      dup3\n        /* \"#utility.yul\":8040:8063   */\n      calldataload\n        /* \"#utility.yul\":8072:8103   */\n      tag_474\n        /* \"#utility.yul\":8097:8102   */\n      dup2\n        /* \"#utility.yul\":8072:8103   */\n      tag_389\n      jump\t// in\n    tag_474:\n        /* \"#utility.yul\":8122:8127   */\n      swap2\n      pop\n        /* \"#utility.yul\":8179:8181   */\n      0x20\n        /* \"#utility.yul\":8164:8182   */\n      dup4\n      add\n        /* \"#utility.yul\":8151:8183   */\n      calldataload\n        /* \"#utility.yul\":8192:8225   */\n      tag_475\n        /* \"#utility.yul\":8151:8183   */\n      dup2\n        /* \"#utility.yul\":8192:8225   */\n      tag_389\n      jump\t// in\n    tag_475:\n        /* \"#utility.yul\":8244:8251   */\n      dup1\n        /* \"#utility.yul\":8234:8251   */\n      swap2\n      pop\n      pop\n        /* \"#utility.yul\":7869:8257   */\n      swap3\n      pop\n      swap3\n      swap1\n      pop\n      jump\t// out\n        /* \"#utility.yul\":8262:8726   */\n    tag_158:\n        /* \"#utility.yul\":8346:8352   */\n      0x00\n        /* \"#utility.yul\":8354:8360   */\n      dup1\n        /* \"#utility.yul\":8362:8368   */\n      0x00\n        /* \"#utility.yul\":8415:8417   */\n      0x60\n        /* \"#utility.yul\":8403:8412   */\n      dup5\n        /* \"#utility.yul\":8394:8401   */\n      dup7\n        /* \"#utility.yul\":8390:8413   */\n      sub\n        /* \"#utility.yul\":8386:8418   */\n      slt\n        /* \"#utility.yul\":8383:8435   */\n      iszero\n      tag_477\n      jumpi\n        /* \"#utility.yul\":8431:8432   */\n      0x00\n        /* \"#utility.yul\":8428:8429   */\n      dup1\n        /* \"#utility.yul\":8421:8433   */\n      revert\n        /* \"#utility.yul\":8383:8435   */\n    tag_477:\n        /* \"#utility.yul\":8471:8480   */\n      dup4\n        /* \"#utility.yul\":8458:8481   */\n      calldataload\n        /* \"#utility.yul\":8504:8522   */\n      0xffffffffffffffff\n        /* \"#utility.yul\":8496:8502   */\n      dup2\n        /* \"#utility.yul\":8493:8523   */\n      gt\n        /* \"#utility.yul\":8490:8540   */\n      iszero\n      tag_478\n      jumpi\n        /* \"#utility.yul\":8536:8537   */\n      0x00\n        /* \"#utility.yul\":8533:8534   */\n      dup1\n        /* \"#utility.yul\":8526:8538   */\n      revert\n        /* \"#utility.yul\":8490:8540   */\n    tag_478:\n        /* \"#utility.yul\":8559:8608   */\n      tag_479\n        /* \"#utility.yul\":8600:8607   */\n      dup7\n        /* \"#utility.yul\":8591:8597   */\n      dup3\n        /* \"#utility.yul\":8580:8589   */\n      dup8\n        /* \"#utility.yul\":8576:8598   */\n      add\n        /* \"#utility.yul\":8559:8608   */\n      tag_391\n      jump\t// in\n    tag_479:\n        /* \"#utility.yul\":8549:8608   */\n      swap4\n      pop\n      pop\n        /* \"#utility.yul\":8627:8664   */\n      tag_480\n        /* \"#utility.yul\":8660:8662   */\n      0x20\n        /* \"#utility.yul\":8649:8658   */\n      dup6\n        /* \"#utility.yul\":8645:8663   */\n      add\n        /* \"#utility.yul\":8627:8664   */\n      tag_385\n      jump\t// in\n    tag_480:\n        /* \"#utility.yul\":8617:8664   */\n      swap2\n      pop\n        /* \"#utility.yul\":8683:8720   */\n      tag_481\n        /* \"#utility.yul\":8716:8718   */\n      0x40\n        /* \"#utility.yul\":8705:8714   */\n      dup6\n        /* \"#utility.yul\":8701:8719   */\n      add\n        /* \"#utility.yul\":8683:8720   */\n      tag_387\n      jump\t// in\n    tag_481:\n        /* \"#utility.yul\":8673:8720   */\n      swap1\n      pop\n        /* \"#utility.yul\":8262:8726   */\n      swap3\n      pop\n      swap3\n      pop\n      swap3\n      jump\t// out\n        /* \"#utility.yul\":8731:9123   */\n    tag_169:\n        /* \"#utility.yul\":8807:8813   */\n      0x00\n        /* \"#utility.yul\":8815:8821   */\n      dup1\n        /* \"#utility.yul\":8868:8870   */\n      0x40\n        /* \"#utility.yul\":8856:8865   */\n      dup4\n        /* \"#utility.yul\":8847:8854   */\n      dup6\n        /* \"#utility.yul\":8843:8866   */\n      sub\n        /* \"#utility.yul\":8839:8871   */\n      slt\n        /* \"#utility.yul\":8836:8888   */\n      iszero\n      tag_483\n      jumpi\n        /* \"#utility.yul\":8884:8885   */\n      0x00\n        /* \"#utility.yul\":8881:8882   */\n      dup1\n        /* \"#utility.yul\":8874:8886   */\n      revert\n        /* \"#utility.yul\":8836:8888   */\n    tag_483:\n        /* \"#utility.yul\":8907:8935   */\n      tag_484\n        /* \"#utility.yul\":8925:8934   */\n      dup4\n        /* \"#utility.yul\":8907:8935   */\n      tag_385\n      jump\t// in\n    tag_484:\n        /* \"#utility.yul\":8897:8935   */\n      swap2\n      pop\n        /* \"#utility.yul\":8986:8988   */\n      0x20\n        /* \"#utility.yul\":8975:8984   */\n      dup4\n        /* \"#utility.yul\":8971:8989   */\n      add\n        /* \"#utility.yul\":8958:8990   */\n      calldataload\n        /* \"#utility.yul\":9013:9031   */\n      0xffffffffffffffff\n        /* \"#utility.yul\":9005:9011   */\n      dup2\n        /* \"#utility.yul\":9002:9032   */\n      gt\n        /* \"#utility.yul\":8999:9049   */\n      iszero\n      tag_485\n      jumpi\n        /* \"#utility.yul\":9045:9046   */\n      0x00\n        /* \"#utility.yul\":9042:9043   */\n      dup1\n        /* \"#utility.yul\":9035:9047   */\n      revert\n        /* \"#utility.yul\":8999:9049   */\n    tag_485:\n        /* \"#utility.yul\":9068:9117   */\n      tag_486\n        /* \"#utility.yul\":9109:9116   */\n      dup6\n        /* \"#utility.yul\":9100:9106   */\n      dup3\n        /* \"#utility.yul\":9089:9098   */\n      dup7\n        /* \"#utility.yul\":9085:9107   */\n      add\n        /* \"#utility.yul\":9068:9117   */\n      tag_391\n      jump\t// in\n    tag_486:\n        /* \"#utility.yul\":9058:9117   */\n      swap2\n      pop\n      pop\n        /* \"#utility.yul\":8731:9123   */\n      swap3\n      pop\n      swap3\n      swap1\n      pop\n      jump\t// out\n        /* \"#utility.yul\":9484:9864   */\n    tag_181:\n        /* \"#utility.yul\":9563:9564   */\n      0x01\n        /* \"#utility.yul\":9559:9571   */\n      dup2\n      dup2\n      shr\n      swap1\n        /* \"#utility.yul\":9606:9618   */\n      dup3\n      and\n      dup1\n        /* \"#utility.yul\":9627:9688   */\n      tag_489\n      jumpi\n        /* \"#utility.yul\":9681:9685   */\n      0x7f\n        /* \"#utility.yul\":9673:9679   */\n      dup3\n        /* \"#utility.yul\":9669:9686   */\n      and\n        /* \"#utility.yul\":9659:9686   */\n      swap2\n      pop\n        /* \"#utility.yul\":9627:9688   */\n    tag_489:\n        /* \"#utility.yul\":9734:9736   */\n      0x20\n        /* \"#utility.yul\":9726:9732   */\n      dup3\n        /* \"#utility.yul\":9723:9737   */\n      lt\n        /* \"#utility.yul\":9703:9721   */\n      dup2\n        /* \"#utility.yul\":9700:9738   */\n      sub\n        /* \"#utility.yul\":9697:9858   */\n      tag_490\n      jumpi\n        /* \"#utility.yul\":9780:9790   */\n      0x4e487b71\n        /* \"#utility.yul\":9775:9778   */\n      0xe0\n        /* \"#utility.yul\":9771:9791   */\n      shl\n        /* \"#utility.yul\":9768:9769   */\n      0x00\n        /* \"#utility.yul\":9761:9792   */\n      mstore\n        /* \"#utility.yul\":9815:9819   */\n      0x22\n        /* \"#utility.yul\":9812:9813   */\n      0x04\n        /* \"#utility.yul\":9805:9820   */\n      mstore\n        /* \"#utility.yul\":9843:9847   */\n      0x24\n        /* \"#utility.yul\":9840:9841   */\n      0x00\n        /* \"#utility.yul\":9833:9848   */\n      revert\n        /* \"#utility.yul\":9697:9858   */\n    tag_490:\n      pop\n        /* \"#utility.yul\":9484:9864   */\n      swap2\n      swap1\n      pop\n      jump\t// out\n        /* \"#utility.yul\":10396:11237   */\n    tag_186:\n        /* \"#utility.yul\":10522:10525   */\n      0x00\n        /* \"#utility.yul\":10551:10552   */\n      dup1\n        /* \"#utility.yul\":10584:10590   */\n      dup4\n        /* \"#utility.yul\":10578:10591   */\n      sload\n        /* \"#utility.yul\":10614:10650   */\n      tag_494\n        /* \"#utility.yul\":10640:10649   */\n      dup2\n        /* \"#utility.yul\":10614:10650   */\n      tag_181\n      jump\t// in\n    tag_494:\n        /* \"#utility.yul\":10669:10670   */\n      0x01\n        /* \"#utility.yul\":10686:10703   */\n      dup3\n      dup2\n      and\n        /* \"#utility.yul\":10712:10845   */\n      dup1\n      iszero\n      tag_496\n      jumpi\n        /* \"#utility.yul\":10859:10860   */\n      0x01\n        /* \"#utility.yul\":10854:11212   */\n      dup2\n      eq\n      tag_497\n      jumpi\n        /* \"#utility.yul\":10679:11212   */\n      jump(tag_495)\n        /* \"#utility.yul\":10712:10845   */\n    tag_496:\n      not(0xff)\n        /* \"#utility.yul\":10745:10769   */\n      dup5\n      and\n        /* \"#utility.yul\":10733:10770   */\n      dup8\n      mstore\n        /* \"#utility.yul\":10818:10832   */\n      dup3\n      iszero\n        /* \"#utility.yul\":10811:10833   */\n      iszero\n        /* \"#utility.yul\":10799:10834   */\n      dup4\n      mul\n        /* \"#utility.yul\":10790:10835   */\n      dup8\n      add\n      swap5\n      pop\n        /* \"#utility.yul\":10712:10845   */\n      jump(tag_495)\n        /* \"#utility.yul\":10854:11212   */\n    tag_497:\n        /* \"#utility.yul\":10885:10891   */\n      dup8\n        /* \"#utility.yul\":10882:10883   */\n      0x00\n        /* \"#utility.yul\":10875:10892   */\n      mstore\n        /* \"#utility.yul\":10915:10919   */\n      0x20\n        /* \"#utility.yul\":10960:10964   */\n      dup1\n        /* \"#utility.yul\":10957:10958   */\n      0x00\n        /* \"#utility.yul\":10947:10965   */\n      keccak256\n        /* \"#utility.yul\":10987:10988   */\n      0x00\n        /* \"#utility.yul\":11001:11166   */\n    tag_498:\n        /* \"#utility.yul\":11015:11021   */\n      dup6\n        /* \"#utility.yul\":11012:11013   */\n      dup2\n        /* \"#utility.yul\":11009:11022   */\n      lt\n        /* \"#utility.yul\":11001:11166   */\n      iszero\n      tag_500\n      jumpi\n        /* \"#utility.yul\":11093:11107   */\n      dup2\n      sload\n        /* \"#utility.yul\":11080:11091   */\n      dup11\n      dup3\n      add\n        /* \"#utility.yul\":11073:11108   */\n      mstore\n        /* \"#utility.yul\":11136:11152   */\n      swap1\n      dup5\n      add\n      swap1\n        /* \"#utility.yul\":11030:11040   */\n      dup3\n      add\n        /* \"#utility.yul\":11001:11166   */\n      jump(tag_498)\n    tag_500:\n        /* \"#utility.yul\":11005:11008   */\n      pop\n      pop\n      pop\n        /* \"#utility.yul\":11195:11201   */\n      dup3\n        /* \"#utility.yul\":11190:11193   */\n      dup8\n        /* \"#utility.yul\":11186:11202   */\n      add\n        /* \"#utility.yul\":11179:11202   */\n      swap5\n      pop\n        /* \"#utility.yul\":10679:11212   */\n    tag_495:\n      pop\n        /* \"#utility.yul\":11228:11231   */\n      swap3\n      swap7\n        /* \"#utility.yul\":10396:11237   */\n      swap6\n      pop\n      pop\n      pop\n      pop\n      pop\n      pop\n      jump\t// out\n        /* \"#utility.yul\":11242:11513   */\n    tag_188:\n        /* \"#utility.yul\":11425:11431   */\n      dup2\n        /* \"#utility.yul\":11417:11423   */\n      dup4\n        /* \"#utility.yul\":11412:11415   */\n      dup3\n        /* \"#utility.yul\":11399:11432   */\n      calldatacopy\n        /* \"#utility.yul\":11381:11384   */\n      0x00\n        /* \"#utility.yul\":11451:11467   */\n      swap2\n      add\n        /* \"#utility.yul\":11476:11489   */\n      swap1\n      dup2\n      mstore\n        /* \"#utility.yul\":11451:11467   */\n      swap2\n        /* \"#utility.yul\":11242:11513   */\n      swap1\n      pop\n      jump\t// out\n        /* \"#utility.yul\":12223:12614   */\n    tag_198:\n        /* \"#utility.yul\":12308:12314   */\n      0x00\n        /* \"#utility.yul\":12316:12322   */\n      dup1\n        /* \"#utility.yul\":12324:12330   */\n      0x00\n        /* \"#utility.yul\":12377:12379   */\n      0x60\n        /* \"#utility.yul\":12365:12374   */\n      dup5\n        /* \"#utility.yul\":12356:12363   */\n      dup7\n        /* \"#utility.yul\":12352:12375   */\n      sub\n        /* \"#utility.yul\":12348:12380   */\n      slt\n        /* \"#utility.yul\":12345:12397   */\n      iszero\n      tag_505\n      jumpi\n        /* \"#utility.yul\":12393:12394   */\n      0x00\n        /* \"#utility.yul\":12390:12391   */\n      dup1\n        /* \"#utility.yul\":12383:12395   */\n      revert\n        /* \"#utility.yul\":12345:12397   */\n    tag_505:\n        /* \"#utility.yul\":12432:12441   */\n      dup4\n        /* \"#utility.yul\":12419:12442   */\n      calldataload\n        /* \"#utility.yul\":12451:12482   */\n      tag_506\n        /* \"#utility.yul\":12476:12481   */\n      dup2\n        /* \"#utility.yul\":12451:12482   */\n      tag_389\n      jump\t// in\n    tag_506:\n        /* \"#utility.yul\":12501:12506   */\n      swap6\n        /* \"#utility.yul\":12553:12555   */\n      0x20\n        /* \"#utility.yul\":12538:12556   */\n      dup6\n      add\n        /* \"#utility.yul\":12525:12557   */\n      calldataload\n      swap6\n      pop\n        /* \"#utility.yul\":12604:12606   */\n      0x40\n        /* \"#utility.yul\":12589:12607   */\n      swap1\n      swap5\n      add\n        /* \"#utility.yul\":12576:12608   */\n      calldataload\n      swap4\n        /* \"#utility.yul\":12223:12614   */\n      swap3\n      pop\n      pop\n      pop\n      jump\t// out\n        /* \"#utility.yul\":13054:13320   */\n    tag_394:\n        /* \"#utility.yul\":13142:13148   */\n      dup2\n        /* \"#utility.yul\":13137:13140   */\n      dup4\n        /* \"#utility.yul\":13130:13149   */\n      mstore\n        /* \"#utility.yul\":13194:13200   */\n      dup2\n        /* \"#utility.yul\":13187:13192   */\n      dup2\n        /* \"#utility.yul\":13180:13184   */\n      0x20\n        /* \"#utility.yul\":13175:13178   */\n      dup6\n        /* \"#utility.yul\":13171:13185   */\n      add\n        /* \"#utility.yul\":13158:13201   */\n      calldatacopy\n      pop\n        /* \"#utility.yul\":13246:13247   */\n      0x00\n        /* \"#utility.yul\":13221:13237   */\n      dup3\n      dup3\n      add\n        /* \"#utility.yul\":13239:13243   */\n      0x20\n        /* \"#utility.yul\":13217:13244   */\n      swap1\n      dup2\n      add\n        /* \"#utility.yul\":13210:13248   */\n      swap2\n      swap1\n      swap2\n      mstore\n        /* \"#utility.yul\":13302:13304   */\n      0x1f\n        /* \"#utility.yul\":13281:13296   */\n      swap1\n      swap2\n      add\n      not(0x1f)\n        /* \"#utility.yul\":13277:13306   */\n      and\n        /* \"#utility.yul\":13268:13307   */\n      swap1\n      swap2\n      add\n        /* \"#utility.yul\":13264:13314   */\n      add\n      swap1\n        /* \"#utility.yul\":13054:13320   */\n      jump\t// out\n        /* \"#utility.yul\":13325:13651   */\n    tag_241:\n        /* \"#utility.yul\":13520:13526   */\n      0xffff\n        /* \"#utility.yul\":13512:13518   */\n      dup5\n        /* \"#utility.yul\":13508:13527   */\n      and\n        /* \"#utility.yul\":13497:13506   */\n      dup2\n        /* \"#utility.yul\":13490:13528   */\n      mstore\n        /* \"#utility.yul\":13564:13566   */\n      0x40\n        /* \"#utility.yul\":13559:13561   */\n      0x20\n        /* \"#utility.yul\":13548:13557   */\n      dup3\n        /* \"#utility.yul\":13544:13562   */\n      add\n        /* \"#utility.yul\":13537:13567   */\n      mstore\n        /* \"#utility.yul\":13471:13475   */\n      0x00\n        /* \"#utility.yul\":13584:13645   */\n      tag_510\n        /* \"#utility.yul\":13641:13643   */\n      0x40\n        /* \"#utility.yul\":13630:13639   */\n      dup4\n        /* \"#utility.yul\":13626:13644   */\n      add\n        /* \"#utility.yul\":13618:13624   */\n      dup5\n        /* \"#utility.yul\":13610:13616   */\n      dup7\n        /* \"#utility.yul\":13584:13645   */\n      tag_394\n      jump\t// in\n    tag_510:\n        /* \"#utility.yul\":13576:13645   */\n      swap6\n        /* \"#utility.yul\":13325:13651   */\n      swap5\n      pop\n      pop\n      pop\n      pop\n      pop\n      jump\t// out\n        /* \"#utility.yul\":14369:14496   */\n    tag_395:\n        /* \"#utility.yul\":14430:14440   */\n      0x4e487b71\n        /* \"#utility.yul\":14425:14428   */\n      0xe0\n        /* \"#utility.yul\":14421:14441   */\n      shl\n        /* \"#utility.yul\":14418:14419   */\n      0x00\n        /* \"#utility.yul\":14411:14442   */\n      mstore\n        /* \"#utility.yul\":14461:14465   */\n      0x11\n        /* \"#utility.yul\":14458:14459   */\n      0x04\n        /* \"#utility.yul\":14451:14466   */\n      mstore\n        /* \"#utility.yul\":14485:14489   */\n      0x24\n        /* \"#utility.yul\":14482:14483   */\n      0x00\n        /* \"#utility.yul\":14475:14490   */\n      revert\n        /* \"#utility.yul\":14501:14629   */\n    tag_258:\n        /* \"#utility.yul\":14568:14577   */\n      dup2\n      dup2\n      sub\n        /* \"#utility.yul\":14589:14600   */\n      dup2\n      dup2\n      gt\n        /* \"#utility.yul\":14586:14623   */\n      iszero\n      tag_217\n      jumpi\n        /* \"#utility.yul\":14603:14621   */\n      tag_217\n      tag_395\n      jump\t// in\n        /* \"#utility.yul\":14982:15150   */\n    tag_263:\n        /* \"#utility.yul\":15055:15064   */\n      dup1\n      dup3\n      mul\n        /* \"#utility.yul\":15086:15095   */\n      dup2\n      iszero\n        /* \"#utility.yul\":15103:15118   */\n      dup3\n      dup3\n      div\n        /* \"#utility.yul\":15097:15119   */\n      dup5\n      eq\n        /* \"#utility.yul\":15083:15120   */\n      or\n        /* \"#utility.yul\":15073:15144   */\n      tag_217\n      jumpi\n        /* \"#utility.yul\":15124:15142   */\n      tag_217\n      tag_395\n      jump\t// in\n        /* \"#utility.yul\":15155:15372   */\n    tag_265:\n        /* \"#utility.yul\":15195:15196   */\n      0x00\n        /* \"#utility.yul\":15221:15222   */\n      dup3\n        /* \"#utility.yul\":15211:15343   */\n      tag_522\n      jumpi\n        /* \"#utility.yul\":15265:15275   */\n      0x4e487b71\n        /* \"#utility.yul\":15260:15263   */\n      0xe0\n        /* \"#utility.yul\":15256:15276   */\n      shl\n        /* \"#utility.yul\":15253:15254   */\n      0x00\n        /* \"#utility.yul\":15246:15277   */\n      mstore\n        /* \"#utility.yul\":15300:15304   */\n      0x12\n        /* \"#utility.yul\":15297:15298   */\n      0x04\n        /* \"#utility.yul\":15290:15305   */\n      mstore\n        /* \"#utility.yul\":15328:15332   */\n      0x24\n        /* \"#utility.yul\":15325:15326   */\n      0x00\n        /* \"#utility.yul\":15318:15333   */\n      revert\n        /* \"#utility.yul\":15211:15343   */\n    tag_522:\n      pop\n        /* \"#utility.yul\":15357:15366   */\n      div\n      swap1\n        /* \"#utility.yul\":15155:15372   */\n      jump\t// out\n        /* \"#utility.yul\":15377:15512   */\n    tag_268:\n        /* \"#utility.yul\":15416:15419   */\n      0x00\n        /* \"#utility.yul\":15437:15454   */\n      0x01\n      dup3\n      add\n        /* \"#utility.yul\":15434:15477   */\n      tag_525\n      jumpi\n        /* \"#utility.yul\":15457:15475   */\n      tag_525\n      tag_395\n      jump\t// in\n    tag_525:\n      pop\n        /* \"#utility.yul\":15504:15505   */\n      0x01\n        /* \"#utility.yul\":15493:15506   */\n      add\n      swap1\n        /* \"#utility.yul\":15377:15512   */\n      jump\t// out\n        /* \"#utility.yul\":15517:15862   */\n    tag_270:\n      sub(shl(0xa0, 0x01), 0x01)\n        /* \"#utility.yul\":15737:15769   */\n      swap4\n      swap1\n      swap4\n      and\n        /* \"#utility.yul\":15719:15770   */\n      dup4\n      mstore\n        /* \"#utility.yul\":15801:15803   */\n      0x20\n        /* \"#utility.yul\":15786:15804   */\n      dup4\n      add\n        /* \"#utility.yul\":15779:15813   */\n      swap2\n      swap1\n      swap2\n      mstore\n        /* \"#utility.yul\":15844:15846   */\n      0x40\n        /* \"#utility.yul\":15829:15847   */\n      dup3\n      add\n        /* \"#utility.yul\":15822:15856   */\n      mstore\n        /* \"#utility.yul\":15707:15709   */\n      0x60\n        /* \"#utility.yul\":15692:15710   */\n      add\n      swap1\n        /* \"#utility.yul\":15517:15862   */\n      jump\t// out\n        /* \"#utility.yul\":15867:17389   */\n    tag_272:\n        /* \"#utility.yul\":16213:16219   */\n      0xffff\n        /* \"#utility.yul\":16205:16211   */\n      dup8\n        /* \"#utility.yul\":16201:16220   */\n      and\n        /* \"#utility.yul\":16190:16199   */\n      dup2\n        /* \"#utility.yul\":16183:16221   */\n      mstore\n        /* \"#utility.yul\":16164:16168   */\n      0x00\n        /* \"#utility.yul\":16240:16242   */\n      0x20\n        /* \"#utility.yul\":16278:16281   */\n      0xc0\n        /* \"#utility.yul\":16273:16275   */\n      0x20\n        /* \"#utility.yul\":16262:16271   */\n      dup5\n        /* \"#utility.yul\":16258:16276   */\n      add\n        /* \"#utility.yul\":16251:16282   */\n      mstore\n        /* \"#utility.yul\":16302:16303   */\n      0x00\n        /* \"#utility.yul\":16335:16341   */\n      dup9\n        /* \"#utility.yul\":16329:16342   */\n      sload\n        /* \"#utility.yul\":16365:16401   */\n      tag_528\n        /* \"#utility.yul\":16391:16400   */\n      dup2\n        /* \"#utility.yul\":16365:16401   */\n      tag_181\n      jump\t// in\n    tag_528:\n        /* \"#utility.yul\":16438:16444   */\n      dup1\n        /* \"#utility.yul\":16432:16435   */\n      0xc0\n        /* \"#utility.yul\":16421:16430   */\n      dup8\n        /* \"#utility.yul\":16417:16436   */\n      add\n        /* \"#utility.yul\":16410:16445   */\n      mstore\n        /* \"#utility.yul\":16464:16467   */\n      0xe0\n        /* \"#utility.yul\":16486:16487   */\n      0x01\n        /* \"#utility.yul\":16518:16519   */\n      dup1\n        /* \"#utility.yul\":16507:16516   */\n      dup5\n        /* \"#utility.yul\":16503:16520   */\n      and\n        /* \"#utility.yul\":16534:16535   */\n      0x00\n        /* \"#utility.yul\":16529:16689   */\n      dup2\n      eq\n      tag_530\n      jumpi\n        /* \"#utility.yul\":16703:16704   */\n      0x01\n        /* \"#utility.yul\":16698:17053   */\n      dup2\n      eq\n      tag_531\n      jumpi\n        /* \"#utility.yul\":16496:17053   */\n      jump(tag_529)\n        /* \"#utility.yul\":16529:16689   */\n    tag_530:\n        /* \"#utility.yul\":16597:16600   */\n      0xff\n        /* \"#utility.yul\":16593:16601   */\n      not\n        /* \"#utility.yul\":16582:16591   */\n      dup6\n        /* \"#utility.yul\":16578:16602   */\n      and\n        /* \"#utility.yul\":16572:16575   */\n      0xe0\n        /* \"#utility.yul\":16561:16570   */\n      dup11\n        /* \"#utility.yul\":16557:16576   */\n      add\n        /* \"#utility.yul\":16550:16603   */\n      mstore\n        /* \"#utility.yul\":16675:16678   */\n      0xe0\n        /* \"#utility.yul\":16663:16669   */\n      dup5\n        /* \"#utility.yul\":16656:16670   */\n      iszero\n        /* \"#utility.yul\":16649:16671   */\n      iszero\n        /* \"#utility.yul\":16646:16647   */\n      0x05\n        /* \"#utility.yul\":16642:16672   */\n      shl\n        /* \"#utility.yul\":16631:16640   */\n      dup11\n        /* \"#utility.yul\":16627:16673   */\n      add\n        /* \"#utility.yul\":16623:16679   */\n      add\n        /* \"#utility.yul\":16616:16679   */\n      swap6\n      pop\n        /* \"#utility.yul\":16529:16689   */\n      jump(tag_529)\n        /* \"#utility.yul\":16698:17053   */\n    tag_531:\n        /* \"#utility.yul\":16729:16735   */\n      dup14\n        /* \"#utility.yul\":16726:16727   */\n      0x00\n        /* \"#utility.yul\":16719:16736   */\n      mstore\n        /* \"#utility.yul\":16777:16779   */\n      0x20\n        /* \"#utility.yul\":16774:16775   */\n      0x00\n        /* \"#utility.yul\":16764:16780   */\n      keccak256\n        /* \"#utility.yul\":16802:16803   */\n      0x00\n        /* \"#utility.yul\":16816:16996   */\n    tag_532:\n        /* \"#utility.yul\":16830:16836   */\n      dup6\n        /* \"#utility.yul\":16827:16828   */\n      dup2\n        /* \"#utility.yul\":16824:16837   */\n      lt\n        /* \"#utility.yul\":16816:16996   */\n      iszero\n      tag_534\n      jumpi\n        /* \"#utility.yul\":16923:16937   */\n      dup2\n      sload\n        /* \"#utility.yul\":16899:16916   */\n      dup12\n      dup3\n      add\n        /* \"#utility.yul\":16895:16921   */\n      dup7\n      add\n        /* \"#utility.yul\":16888:16938   */\n      mstore\n        /* \"#utility.yul\":16966:16982   */\n      swap1\n      dup4\n      add\n      swap1\n        /* \"#utility.yul\":16845:16855   */\n      dup9\n      add\n        /* \"#utility.yul\":16816:16996   */\n      jump(tag_532)\n    tag_534:\n        /* \"#utility.yul\":17020:17037   */\n      dup11\n      add\n        /* \"#utility.yul\":17039:17042   */\n      0xe0\n        /* \"#utility.yul\":17016:17043   */\n      add\n      swap7\n      pop\n      pop\n        /* \"#utility.yul\":16496:17053   */\n    tag_529:\n      pop\n      pop\n      pop\n      pop\n      pop\n        /* \"#utility.yul\":17098:17107   */\n      dup4\n        /* \"#utility.yul\":17093:17096   */\n      dup2\n        /* \"#utility.yul\":17089:17108   */\n      sub\n        /* \"#utility.yul\":17084:17086   */\n      0x40\n        /* \"#utility.yul\":17073:17082   */\n      dup6\n        /* \"#utility.yul\":17069:17087   */\n      add\n        /* \"#utility.yul\":17062:17109   */\n      mstore\n        /* \"#utility.yul\":17132:17162   */\n      tag_535\n        /* \"#utility.yul\":17158:17161   */\n      dup2\n        /* \"#utility.yul\":17150:17156   */\n      dup10\n        /* \"#utility.yul\":17132:17162   */\n      tag_388\n      jump\t// in\n    tag_535:\n        /* \"#utility.yul\":17118:17162   */\n      swap2\n      pop\n      pop\n        /* \"#utility.yul\":17171:17217   */\n      tag_536\n        /* \"#utility.yul\":17213:17215   */\n      0x60\n        /* \"#utility.yul\":17202:17211   */\n      dup5\n        /* \"#utility.yul\":17198:17216   */\n      add\n        /* \"#utility.yul\":17190:17196   */\n      dup8\n      sub(shl(0xa0, 0x01), 0x01)\n        /* \"#utility.yul\":6390:6421   */\n      and\n        /* \"#utility.yul\":6378:6422   */\n      swap1\n      mstore\n        /* \"#utility.yul\":6324:6428   */\n      jump\n        /* \"#utility.yul\":17171:17217   */\n    tag_536:\n      sub(shl(0xa0, 0x01), 0x01)\n        /* \"#utility.yul\":6390:6421   */\n      dup6\n      and\n        /* \"#utility.yul\":17268:17271   */\n      0x80\n        /* \"#utility.yul\":17253:17272   */\n      dup5\n      add\n        /* \"#utility.yul\":6378:6422   */\n      mstore\n        /* \"#utility.yul\":17322:17331   */\n      dup3\n        /* \"#utility.yul\":17314:17320   */\n      dup2\n        /* \"#utility.yul\":17310:17332   */\n      sub\n        /* \"#utility.yul\":17304:17307   */\n      0xa0\n        /* \"#utility.yul\":17293:17302   */\n      dup5\n        /* \"#utility.yul\":17289:17308   */\n      add\n        /* \"#utility.yul\":17282:17333   */\n      mstore\n        /* \"#utility.yul\":17350:17383   */\n      tag_538\n        /* \"#utility.yul\":17376:17382   */\n      dup2\n        /* \"#utility.yul\":17368:17374   */\n      dup6\n        /* \"#utility.yul\":17350:17383   */\n      tag_388\n      jump\t// in\n    tag_538:\n        /* \"#utility.yul\":17342:17383   */\n      swap10\n        /* \"#utility.yul\":15867:17389   */\n      swap9\n      pop\n      pop\n      pop\n      pop\n      pop\n      pop\n      pop\n      pop\n      pop\n      jump\t// out\n        /* \"#utility.yul\":17901:18399   */\n    tag_306:\n        /* \"#utility.yul\":18101:18105   */\n      0x00\n        /* \"#utility.yul\":18130:18136   */\n      0xffff\n        /* \"#utility.yul\":18175:18177   */\n      dup1\n        /* \"#utility.yul\":18167:18173   */\n      dup9\n        /* \"#utility.yul\":18163:18178   */\n      and\n        /* \"#utility.yul\":18152:18161   */\n      dup4\n        /* \"#utility.yul\":18145:18179   */\n      mstore\n        /* \"#utility.yul\":18227:18229   */\n      dup1\n        /* \"#utility.yul\":18219:18225   */\n      dup8\n        /* \"#utility.yul\":18215:18230   */\n      and\n        /* \"#utility.yul\":18210:18212   */\n      0x20\n        /* \"#utility.yul\":18199:18208   */\n      dup5\n        /* \"#utility.yul\":18195:18213   */\n      add\n        /* \"#utility.yul\":18188:18231   */\n      mstore\n      pop\n        /* \"#utility.yul\":18267:18273   */\n      dup5\n        /* \"#utility.yul\":18262:18264   */\n      0x40\n        /* \"#utility.yul\":18251:18260   */\n      dup4\n        /* \"#utility.yul\":18247:18265   */\n      add\n        /* \"#utility.yul\":18240:18274   */\n      mstore\n        /* \"#utility.yul\":18310:18313   */\n      0x80\n        /* \"#utility.yul\":18305:18307   */\n      0x60\n        /* \"#utility.yul\":18294:18303   */\n      dup4\n        /* \"#utility.yul\":18290:18308   */\n      add\n        /* \"#utility.yul\":18283:18314   */\n      mstore\n        /* \"#utility.yul\":18331:18393   */\n      tag_541\n        /* \"#utility.yul\":18388:18391   */\n      0x80\n        /* \"#utility.yul\":18377:18386   */\n      dup4\n        /* \"#utility.yul\":18373:18392   */\n      add\n        /* \"#utility.yul\":18365:18371   */\n      dup5\n        /* \"#utility.yul\":18357:18363   */\n      dup7\n        /* \"#utility.yul\":18331:18393   */\n      tag_394\n      jump\t// in\n    tag_541:\n        /* \"#utility.yul\":18323:18393   */\n      swap8\n        /* \"#utility.yul\":17901:18399   */\n      swap7\n      pop\n      pop\n      pop\n      pop\n      pop\n      pop\n      pop\n      jump\t// out\n        /* \"#utility.yul\":18657:19299   */\n    tag_319:\n        /* \"#utility.yul\":18938:18944   */\n      0xffff\n        /* \"#utility.yul\":18926:18945   */\n      dup7\n      and\n        /* \"#utility.yul\":18908:18946   */\n      dup2\n      mstore\n      sub(shl(0xa0, 0x01), 0x01)\n        /* \"#utility.yul\":18982:19014   */\n      dup6\n      and\n        /* \"#utility.yul\":18977:18979   */\n      0x20\n        /* \"#utility.yul\":18962:18980   */\n      dup3\n      add\n        /* \"#utility.yul\":18955:19015   */\n      mstore\n        /* \"#utility.yul\":19002:19005   */\n      0xa0\n        /* \"#utility.yul\":19046:19048   */\n      0x40\n        /* \"#utility.yul\":19031:19049   */\n      dup3\n      add\n        /* \"#utility.yul\":19024:19055   */\n      dup2\n      swap1\n      mstore\n      0x00\n      swap1\n        /* \"#utility.yul\":19078:19124   */\n      tag_544\n      swap1\n        /* \"#utility.yul\":19104:19123   */\n      dup4\n      add\n        /* \"#utility.yul\":19096:19102   */\n      dup7\n        /* \"#utility.yul\":19078:19124   */\n      tag_388\n      jump\t// in\n    tag_544:\n        /* \"#utility.yul\":19174:19180   */\n      dup5\n        /* \"#utility.yul\":19167:19181   */\n      iszero\n        /* \"#utility.yul\":19160:19182   */\n      iszero\n        /* \"#utility.yul\":19155:19157   */\n      0x60\n        /* \"#utility.yul\":19144:19153   */\n      dup5\n        /* \"#utility.yul\":19140:19158   */\n      add\n        /* \"#utility.yul\":19133:19183   */\n      mstore\n        /* \"#utility.yul\":19232:19241   */\n      dup3\n        /* \"#utility.yul\":19224:19230   */\n      dup2\n        /* \"#utility.yul\":19220:19242   */\n      sub\n        /* \"#utility.yul\":19214:19217   */\n      0x80\n        /* \"#utility.yul\":19203:19212   */\n      dup5\n        /* \"#utility.yul\":19199:19218   */\n      add\n        /* \"#utility.yul\":19192:19243   */\n      mstore\n        /* \"#utility.yul\":19260:19293   */\n      tag_545\n        /* \"#utility.yul\":19286:19292   */\n      dup2\n        /* \"#utility.yul\":19278:19284   */\n      dup6\n        /* \"#utility.yul\":19260:19293   */\n      tag_388\n      jump\t// in\n    tag_545:\n        /* \"#utility.yul\":19252:19293   */\n      swap9\n        /* \"#utility.yul\":18657:19299   */\n      swap8\n      pop\n      pop\n      pop\n      pop\n      pop\n      pop\n      pop\n      pop\n      jump\t// out\n        /* \"#utility.yul\":19304:19549   */\n    tag_323:\n        /* \"#utility.yul\":19383:19389   */\n      0x00\n        /* \"#utility.yul\":19391:19397   */\n      dup1\n        /* \"#utility.yul\":19444:19446   */\n      0x40\n        /* \"#utility.yul\":19432:19441   */\n      dup4\n        /* \"#utility.yul\":19423:19430   */\n      dup6\n        /* \"#utility.yul\":19419:19442   */\n      sub\n        /* \"#utility.yul\":19415:19447   */\n      slt\n        /* \"#utility.yul\":19412:19464   */\n      iszero\n      tag_547\n      jumpi\n        /* \"#utility.yul\":19460:19461   */\n      0x00\n        /* \"#utility.yul\":19457:19458   */\n      dup1\n        /* \"#utility.yul\":19450:19462   */\n      revert\n        /* \"#utility.yul\":19412:19464   */\n    tag_547:\n      pop\n      pop\n        /* \"#utility.yul\":19483:19499   */\n      dup1\n      mload\n        /* \"#utility.yul\":19539:19541   */\n      0x20\n        /* \"#utility.yul\":19524:19542   */\n      swap1\n      swap2\n      add\n        /* \"#utility.yul\":19518:19543   */\n      mload\n        /* \"#utility.yul\":19483:19499   */\n      swap1\n      swap3\n        /* \"#utility.yul\":19518:19543   */\n      swap1\n      swap2\n      pop\n        /* \"#utility.yul\":19304:19549   */\n      jump\t// out\n        /* \"#utility.yul\":19554:20071   */\n    tag_396:\n        /* \"#utility.yul\":19655:19657   */\n      0x1f\n        /* \"#utility.yul\":19650:19653   */\n      dup3\n        /* \"#utility.yul\":19647:19658   */\n      gt\n        /* \"#utility.yul\":19644:20065   */\n      iszero\n      tag_349\n      jumpi\n        /* \"#utility.yul\":19691:19696   */\n      dup1\n        /* \"#utility.yul\":19688:19689   */\n      0x00\n        /* \"#utility.yul\":19681:19697   */\n      mstore\n        /* \"#utility.yul\":19735:19739   */\n      0x20\n        /* \"#utility.yul\":19732:19733   */\n      0x00\n        /* \"#utility.yul\":19722:19740   */\n      keccak256\n        /* \"#utility.yul\":19805:19807   */\n      0x1f\n        /* \"#utility.yul\":19793:19803   */\n      dup5\n        /* \"#utility.yul\":19789:19808   */\n      add\n        /* \"#utility.yul\":19786:19787   */\n      0x05\n        /* \"#utility.yul\":19782:19809   */\n      shr\n        /* \"#utility.yul\":19776:19780   */\n      dup2\n        /* \"#utility.yul\":19772:19810   */\n      add\n        /* \"#utility.yul\":19841:19845   */\n      0x20\n        /* \"#utility.yul\":19829:19839   */\n      dup6\n        /* \"#utility.yul\":19826:19846   */\n      lt\n        /* \"#utility.yul\":19823:19870   */\n      iszero\n      tag_550\n      jumpi\n      pop\n        /* \"#utility.yul\":19864:19868   */\n      dup1\n        /* \"#utility.yul\":19823:19870   */\n    tag_550:\n        /* \"#utility.yul\":19919:19921   */\n      0x1f\n        /* \"#utility.yul\":19914:19917   */\n      dup5\n        /* \"#utility.yul\":19910:19922   */\n      add\n        /* \"#utility.yul\":19907:19908   */\n      0x05\n        /* \"#utility.yul\":19903:19923   */\n      shr\n        /* \"#utility.yul\":19897:19901   */\n      dup3\n        /* \"#utility.yul\":19893:19924   */\n      add\n        /* \"#utility.yul\":19883:19924   */\n      swap2\n      pop\n        /* \"#utility.yul\":19974:20055   */\n    tag_551:\n        /* \"#utility.yul\":19992:19994   */\n      dup2\n        /* \"#utility.yul\":19985:19990   */\n      dup2\n        /* \"#utility.yul\":19982:19995   */\n      lt\n        /* \"#utility.yul\":19974:20055   */\n      iszero\n      tag_216\n      jumpi\n        /* \"#utility.yul\":20051:20052   */\n      0x00\n        /* \"#utility.yul\":20037:20053   */\n      dup2\n      sstore\n        /* \"#utility.yul\":20018:20019   */\n      0x01\n        /* \"#utility.yul\":20007:20020   */\n      add\n        /* \"#utility.yul\":19974:20055   */\n      jump(tag_551)\n        /* \"#utility.yul\":20247:21588   */\n    tag_328:\n        /* \"#utility.yul\":20371:20374   */\n      dup2\n        /* \"#utility.yul\":20365:20375   */\n      mload\n        /* \"#utility.yul\":20398:20416   */\n      0xffffffffffffffff\n        /* \"#utility.yul\":20390:20396   */\n      dup2\n        /* \"#utility.yul\":20387:20417   */\n      gt\n        /* \"#utility.yul\":20384:20440   */\n      iszero\n      tag_557\n      jumpi\n        /* \"#utility.yul\":20420:20438   */\n      tag_557\n      tag_390\n      jump\t// in\n    tag_557:\n        /* \"#utility.yul\":20449:20545   */\n      tag_558\n        /* \"#utility.yul\":20538:20544   */\n      dup2\n        /* \"#utility.yul\":20498:20536   */\n      tag_559\n        /* \"#utility.yul\":20530:20534   */\n      dup5\n        /* \"#utility.yul\":20524:20535   */\n      sload\n        /* \"#utility.yul\":20498:20536   */\n      tag_181\n      jump\t// in\n    tag_559:\n        /* \"#utility.yul\":20492:20496   */\n      dup5\n        /* \"#utility.yul\":20449:20545   */\n      tag_396\n      jump\t// in\n    tag_558:\n        /* \"#utility.yul\":20600:20604   */\n      0x20\n      dup1\n        /* \"#utility.yul\":20657:20659   */\n      0x1f\n        /* \"#utility.yul\":20646:20660   */\n      dup4\n      gt\n        /* \"#utility.yul\":20674:20675   */\n      0x01\n        /* \"#utility.yul\":20669:21331   */\n      dup2\n      eq\n      tag_561\n      jumpi\n        /* \"#utility.yul\":21375:21376   */\n      0x00\n        /* \"#utility.yul\":21392:21398   */\n      dup5\n        /* \"#utility.yul\":21389:21478   */\n      iszero\n      tag_562\n      jumpi\n      pop\n        /* \"#utility.yul\":21444:21463   */\n      dup6\n      dup4\n      add\n        /* \"#utility.yul\":21438:21464   */\n      mload\n        /* \"#utility.yul\":21389:21478   */\n    tag_562:\n      not(0x00)\n        /* \"#utility.yul\":20204:20205   */\n      0x03\n        /* \"#utility.yul\":20200:20211   */\n      dup7\n      swap1\n      shl\n        /* \"#utility.yul\":20196:20220   */\n      shr\n        /* \"#utility.yul\":20192:20221   */\n      not\n        /* \"#utility.yul\":20182:20222   */\n      and\n        /* \"#utility.yul\":20228:20229   */\n      0x01\n        /* \"#utility.yul\":20224:20235   */\n      dup6\n      swap1\n      shl\n        /* \"#utility.yul\":20179:20236   */\n      or\n        /* \"#utility.yul\":21491:21572   */\n      dup6\n      sstore\n        /* \"#utility.yul\":20639:21582   */\n      jump(tag_560)\n        /* \"#utility.yul\":20669:21331   */\n    tag_561:\n        /* \"#utility.yul\":10343:10344   */\n      0x00\n        /* \"#utility.yul\":10336:10350   */\n      dup6\n      dup2\n      mstore\n        /* \"#utility.yul\":10380:10384   */\n      0x20\n        /* \"#utility.yul\":10367:10385   */\n      dup2\n      keccak256\n      not(0x1f)\n        /* \"#utility.yul\":20705:20725   */\n      dup7\n      and\n      swap2\n        /* \"#utility.yul\":20822:21058   */\n    tag_565:\n        /* \"#utility.yul\":20836:20843   */\n      dup3\n        /* \"#utility.yul\":20833:20834   */\n      dup2\n        /* \"#utility.yul\":20830:20844   */\n      lt\n        /* \"#utility.yul\":20822:21058   */\n      iszero\n      tag_567\n      jumpi\n        /* \"#utility.yul\":20925:20944   */\n      dup9\n      dup7\n      add\n        /* \"#utility.yul\":20919:20945   */\n      mload\n        /* \"#utility.yul\":20904:20946   */\n      dup3\n      sstore\n        /* \"#utility.yul\":21017:21044   */\n      swap5\n      dup5\n      add\n      swap5\n        /* \"#utility.yul\":20985:20986   */\n      0x01\n        /* \"#utility.yul\":20973:20987   */\n      swap1\n      swap2\n      add\n      swap1\n        /* \"#utility.yul\":20852:20871   */\n      dup5\n      add\n        /* \"#utility.yul\":20822:21058   */\n      jump(tag_565)\n    tag_567:\n        /* \"#utility.yul\":20826:20829   */\n      pop\n        /* \"#utility.yul\":21086:21092   */\n      dup6\n        /* \"#utility.yul\":21077:21084   */\n      dup3\n        /* \"#utility.yul\":21074:21093   */\n      lt\n        /* \"#utility.yul\":21071:21272   */\n      iszero\n      tag_568\n      jumpi\n        /* \"#utility.yul\":21147:21166   */\n      dup8\n      dup6\n      add\n        /* \"#utility.yul\":21141:21167   */\n      mload\n      not(0x00)\n        /* \"#utility.yul\":21230:21231   */\n      0x03\n        /* \"#utility.yul\":21226:21240   */\n      dup9\n      swap1\n      shl\n        /* \"#utility.yul\":21242:21245   */\n      0xf8\n        /* \"#utility.yul\":21222:21246   */\n      and\n        /* \"#utility.yul\":21218:21255   */\n      shr\n        /* \"#utility.yul\":21214:21256   */\n      not\n        /* \"#utility.yul\":21199:21257   */\n      and\n        /* \"#utility.yul\":21184:21258   */\n      dup2\n      sstore\n        /* \"#utility.yul\":21071:21272   */\n    tag_568:\n      pop\n      pop\n        /* \"#utility.yul\":21318:21319   */\n      0x01\n        /* \"#utility.yul\":21309:21315   */\n      dup5\n        /* \"#utility.yul\":21306:21307   */\n      0x01\n        /* \"#utility.yul\":21302:21316   */\n      shl\n        /* \"#utility.yul\":21298:21320   */\n      add\n        /* \"#utility.yul\":21292:21296   */\n      dup6\n        /* \"#utility.yul\":21285:21321   */\n      sstore\n        /* \"#utility.yul\":20639:21582   */\n    tag_560:\n      pop\n      pop\n      pop\n      pop\n        /* \"#utility.yul\":20247:21588   */\n      pop\n      pop\n      jump\t// out\n        /* \"#utility.yul\":21593:21718   */\n    tag_371:\n        /* \"#utility.yul\":21658:21667   */\n      dup1\n      dup3\n      add\n        /* \"#utility.yul\":21679:21689   */\n      dup1\n      dup3\n      gt\n        /* \"#utility.yul\":21676:21712   */\n      iszero\n      tag_217\n      jumpi\n        /* \"#utility.yul\":21692:21710   */\n      tag_217\n      tag_395\n      jump\t// in\n\n    auxdata: 0xa26469706673582212204ea93a3db801de47c905375c0690de66b119174565dac307c9c4ca6fe1af464564736f6c63430008170033\n}\n",
				"bytecode": {
					"linkReferences": {},
					"object": "60a06040526032600a5534801562000015575f80fd5b506040516200217538038062002175833981016040819052620000389162000201565b33828260036200004983826200032a565b5060046200005882826200032a565b5050506001600160a01b0381166200008957604051631e4fbdf760e01b81525f600482015260240160405180910390fd5b6200009481620000ef565b5061ffff8416608052600680546001600160a01b0319166001600160a01b0385169081179091556040515f907f241827194635b544bceb965d0e124305c0968051403ae83cb99d1ef86bd65f58908290a350505050620003f6565b600580546001600160a01b038381166001600160a01b0319831681179093556040519116919082907f8be0079c531659141344cd1fd0a4f28419497f9722a3daafe3b4186f6b6457e0905f90a35050565b634e487b7160e01b5f52604160045260245ffd5b5f82601f83011262000164575f80fd5b81516001600160401b038082111562000181576200018162000140565b604051601f8301601f19908116603f01168101908282118183101715620001ac57620001ac62000140565b8160405283815260209250866020858801011115620001c9575f80fd5b5f91505b83821015620001ec5785820183015181830184015290820190620001cd565b5f602085830101528094505050505092915050565b5f805f806080858703121562000215575f80fd5b845161ffff8116811462000227575f80fd5b60208601519094506001600160a01b038116811462000244575f80fd5b60408601519093506001600160401b038082111562000261575f80fd5b6200026f8883890162000154565b9350606087015191508082111562000285575f80fd5b50620002948782880162000154565b91505092959194509250565b600181811c90821680620002b557607f821691505b602082108103620002d457634e487b7160e01b5f52602260045260245ffd5b50919050565b601f8211156200032557805f5260205f20601f840160051c81016020851015620003015750805b601f840160051c820191505b8181101562000322575f81556001016200030d565b50505b505050565b81516001600160401b0381111562000346576200034662000140565b6200035e81620003578454620002a0565b84620002da565b602080601f83116001811462000394575f84156200037c5750858301515b5f19600386901b1c1916600185901b178555620003ee565b5f85815260208120601f198616915b82811015620003c457888601518255948401946001909101908401620003a3565b5085821015620003e257878501515f19600388901b60f8161c191681555b505060018460011b0185555b505050505050565b608051611d586200041d5f395f81816103b6015281816108110152610c950152611d585ff3fe6080604052600436106101ae575f3560e01c80638da5cb5b116100e7578063cbed8b9c11610087578063e38c680211610062578063e38c6802146104f3578063e776ac5e14610542578063eb8d72b714610561578063f2fde38b14610580575f80fd5b8063cbed8b9c14610471578063d26ed3e314610490578063dd62ed3e146104af575f80fd5b806395d89b41116100c257806395d89b4114610400578063a7170d4814610414578063a9059cbb14610433578063ac44794414610452575f80fd5b80638da5cb5b14610388578063935ec990146103a557806394544e64146103eb575f80fd5b8063313ce567116101525780636f0e74701161012d5780636f0e74701461031857806370a082311461032b578063715018a61461035f57806374f079b814610373575f80fd5b8063313ce567146102a757806342d65a8d146102c25780635e280f11146102e1575f80fd5b8063095ea7b31161018d578063095ea7b31461021c57806310ddb1371461024b57806318160ddd1461026a57806323b872dd14610288575f80fd5b80621d3567146101b257806306fdde03146101d357806307e0db17146101fd575b5f80fd5b3480156101bd575f80fd5b506101d16101cc366004611462565b61059f565b005b3480156101de575f80fd5b506101e7610886565b6040516101f49190611533565b60405180910390f35b348015610208575f80fd5b506101d161021736600461154c565b610916565b348015610227575f80fd5b5061023b610236366004611579565b61097e565b60405190151581526020016101f4565b348015610256575f80fd5b506101d161026536600461154c565b610997565b348015610275575f80fd5b506002545b6040519081526020016101f4565b348015610293575f80fd5b5061023b6102a23660046115a3565b6109d3565b3480156102b2575f80fd5b50604051601281526020016101f4565b3480156102cd575f80fd5b506101d16102dc3660046115e1565b6109f6565b3480156102ec575f80fd5b50600654610300906001600160a01b031681565b6040516001600160a01b0390911681526020016101f4565b6101d16103263660046116cd565b610a64565b348015610336575f80fd5b5061027a610345366004611733565b6001600160a01b03165f9081526020819052604090205490565b34801561036a575f80fd5b506101d1610d1a565b34801561037e575f80fd5b5061027a60085481565b348015610393575f80fd5b506005546001600160a01b0316610300565b3480156103b0575f80fd5b506103d87f000000000000000000000000000000000000000000000000000000000000000081565b60405161ffff90911681526020016101f4565b3480156103f6575f80fd5b5061027a600a5481565b34801561040b575f80fd5b506101e7610d2d565b34801561041f575f80fd5b506101d161042e366004611733565b610d3c565b34801561043e575f80fd5b5061023b61044d366004611579565b610d95565b34801561045d575f80fd5b506101e761046c36600461154c565b610da2565b34801561047c575f80fd5b506101d161048b36600461174e565b610e39565b34801561049b575f80fd5b506101d16104aa3660046117b8565b610ead565b3480156104ba575f80fd5b5061027a6104c93660046117cf565b6001600160a01b039182165f90815260016020908152604080832093909416825291909152205490565b3480156104fe575f80fd5b5061023b61050d366004611806565b825160208185018101805160098252928201958201959095209190945283525f91825260408083209093528152205460ff1681565b34801561054d575f80fd5b5061027a61055c3660046116cd565b610efa565b34801561056c575f80fd5b506101d161057b366004611860565b610fa8565b34801561058b575f80fd5b506101d161059a366004611733565b61100d565b6006546001600160a01b031633146105fe5760405162461bcd60e51b815260206004820152601b60248201527f777261707065722f63616c6c65722d6e6f742d656e64706f696e74000000000060448201526064015b60405180910390fd5b61ffff86165f908152600760205260409020805461061b906118ab565b851490506106755760405162461bcd60e51b815260206004820152602160248201527f777261707065722f696e76616c69642d7372632d73656e6465722d6c656e67746044820152600d60fb1b60648201526084016105f5565b61ffff86165f9081526007602052604090819020905161069591906118e3565b604051809103902085856040516106ad929190611955565b6040518091039020146107025760405162461bcd60e51b815260206004820152601a60248201527f777261707065722f696e76616c69642d7372632d73656e64657200000000000060448201526064016105f5565b60098585604051610714929190611955565b908152604080516020928190038301902061ffff89165f90815290835281812067ffffffffffffffff8716825290925290205460ff161561078f5760405162461bcd60e51b8152602060048201526015602482015274777261707065722f696e76616c69642d6e6f6e636560581b60448201526064016105f5565b6001600986866040516107a3929190611955565b908152604080516020928190038301902061ffff8a165f90815290835281812067ffffffffffffffff881682529092528120805460ff19169215159290921790915580806107f385850186611964565b925092509250610803838361104a565b6040805161ffff808c1682527f0000000000000000000000000000000000000000000000000000000000000000166020820152908101829052606081018390526001600160a01b038416907ff540e2fcb9906dcfcfd5aea0f902da16ba5630b30f63f3acf6abe376f9e476a89060800160405180910390a2505050505050505050565b606060038054610895906118ab565b80601f01602080910402602001604051908101604052809291908181526020018280546108c1906118ab565b801561090c5780601f106108e35761010080835404028352916020019161090c565b820191905f5260205f20905b8154815290600101906020018083116108ef57829003601f168201915b5050505050905090565b61091e611082565b6006546040516307e0db1760e01b815261ffff831660048201526001600160a01b03909116906307e0db17906024015b5f604051808303815f87803b158015610965575f80fd5b505af1158015610977573d5f803e3d5ffd5b5050505050565b5f3361098b8185856110af565b60019150505b92915050565b61099f611082565b6006546040516310ddb13760e01b815261ffff831660048201526001600160a01b03909116906310ddb1379060240161094e565b5f336109e08582856110c1565b6109eb858585611129565b506001949350505050565b6109fe611082565b6006546040516342d65a8d60e01b81526001600160a01b03909116906342d65a8d90610a32908690869086906004016119be565b5f604051808303815f87803b158015610a49575f80fd5b505af1158015610a5b573d5f803e3d5ffd5b50505050505050565b61ffff82165f9081526007602052604081208054610a81906118ab565b905011610ad05760405162461bcd60e51b815260206004820152601b60248201527f6272696467652f696e76616c69642d6473742d636861696e2d6964000000000060448201526064016105f5565b335f9081526020819052604090205483811015610b2f5760405162461bcd60e51b815260206004820152601c60248201527f777261707065722f696e73756666696369656e742d62616c616e63650000000060448201526064016105f5565b610b393385611186565b335f9081526020819052604090205484610b5382846119f8565b14610b965760405162461bcd60e51b81526020600482015260136024820152721ddc985c1c195c8bd89d5c9b8b59985a5b1959606a1b60448201526064016105f5565b5f612710600a5487610ba89190611a0b565b610bb29190611a22565b90505f610bbf82886119f8565b905060085f8154610bcf90611a41565b9190508190555060065f9054906101000a90046001600160a01b03166001600160a01b031663c5803100348860075f8b61ffff1661ffff1681526020019081526020015f208c86600854604051602001610c2b93929190611a59565b604051602081830303815290604052335f8c6040518863ffffffff1660e01b8152600401610c5e96959493929190611a7a565b5f604051808303818588803b158015610c75575f80fd5b505af1158015610c87573d5f803e3d5ffd5b50506008546040805161ffff7f0000000000000000000000000000000000000000000000000000000000000000811682528c1660208201529081019190915260608101859052608081018690526001600160a01b038c1693507fbd36451ab3b0e9fe414dea95544d2a3d68944d949c8af5b4a2bdfa0f269b02f0925060a001905060405180910390a25050505050505050565b610d22611082565b610d2b5f6111ba565b565b606060048054610895906118ab565b610d44611082565b600680546001600160a01b038381166001600160a01b0319831681179093556040519116919082907f241827194635b544bceb965d0e124305c0968051403ae83cb99d1ef86bd65f58905f90a35050565b5f3361098b818585611129565b60076020525f908152604090208054610dba906118ab565b80601f0160208091040260200160405190810160405280929190818152602001828054610de6906118ab565b8015610e315780601f10610e0857610100808354040283529160200191610e31565b820191905f5260205f20905b815481529060010190602001808311610e1457829003601f168201915b505050505081565b610e41611082565b6006546040516332fb62e760e21b81526001600160a01b039091169063cbed8b9c90610e799088908890889088908890600401611b5e565b5f604051808303815f87803b158015610e90575f80fd5b505af1158015610ea2573d5f803e3d5ffd5b505050505050505050565b610eb5611082565b600a80549082905560408051828152602081018490527f940334a9f5c76529ad9447ac490c2073b06d880209383a3d3e4b0ecab72a0d99910160405180910390a15050565b5f808585600854604051602001610f1393929190611a59565b60408051601f198184030181529082905260065463040a7bb160e41b83529092505f916001600160a01b03909116906340a7bb1090610f5e9088903090879087908b90600401611b96565b6040805180830381865afa158015610f78573d5f803e3d5ffd5b505050506040513d601f19601f82011682018060405250810190610f9c9190611be9565b50979650505050505050565b610fb0611082565b61ffff82165f908152600760205260409020610fcc8282611c4f565b508161ffff167f35450a645fc8b8dcb5150ad335b4577eb182ab7e57024b8777eed53677a9fc9d826040516110019190611533565b60405180910390a25050565b611015611082565b6001600160a01b03811661103e57604051631e4fbdf760e01b81525f60048201526024016105f5565b611047816111ba565b50565b6001600160a01b0382166110735760405163ec442f0560e01b81525f60048201526024016105f5565b61107e5f838361120b565b5050565b6005546001600160a01b03163314610d2b5760405163118cdaa760e01b81523360048201526024016105f5565b6110bc838383600161131e565b505050565b6001600160a01b038381165f908152600160209081526040808320938616835292905220545f198114611123578181101561111557828183604051637dc7a0d960e11b81526004016105f593929190611a59565b61112384848484035f61131e565b50505050565b6001600160a01b03831661115257604051634b637e8f60e11b81525f60048201526024016105f5565b6001600160a01b03821661117b5760405163ec442f0560e01b81525f60048201526024016105f5565b6110bc83838361120b565b6001600160a01b0382166111af57604051634b637e8f60e11b81525f60048201526024016105f5565b61107e825f8361120b565b600580546001600160a01b038381166001600160a01b0319831681179093556040519116919082907f8be0079c531659141344cd1fd0a4f28419497f9722a3daafe3b4186f6b6457e0905f90a35050565b6001600160a01b038316611235578060025f82825461122a9190611d0f565b909155506112929050565b6001600160a01b0383165f90815260208190526040902054818110156112745783818360405163391434e360e21b81526004016105f593929190611a59565b6001600160a01b0384165f9081526020819052604090209082900390555b6001600160a01b0382166112ae576002805482900390556112cc565b6001600160a01b0382165f9081526020819052604090208054820190555b816001600160a01b0316836001600160a01b03167fddf252ad1be2c89b69c2b068fc378daa952ba7f163c4a11628f55a4df523b3ef8360405161131191815260200190565b60405180910390a3505050565b6001600160a01b0384166113475760405163e602df0560e01b81525f60048201526024016105f5565b6001600160a01b03831661137057604051634a1406b160e11b81525f60048201526024016105f5565b6001600160a01b038085165f908152600160209081526040808320938716835292905220829055801561112357826001600160a01b0316846001600160a01b03167f8c5be1e5ebec7d5bd14f71427d1e84f3dd0314c0f7b2291e5b200ac8c7c3b925846040516113e291815260200190565b60405180910390a350505050565b803561ffff81168114611401575f80fd5b919050565b5f8083601f840112611416575f80fd5b50813567ffffffffffffffff81111561142d575f80fd5b602083019150836020828501011115611444575f80fd5b9250929050565b803567ffffffffffffffff81168114611401575f80fd5b5f805f805f8060808789031215611477575f80fd5b611480876113f0565b9550602087013567ffffffffffffffff8082111561149c575f80fd5b6114a88a838b01611406565b90975095508591506114bc60408a0161144b565b945060608901359150808211156114d1575f80fd5b506114de89828a01611406565b979a9699509497509295939492505050565b5f81518084525f5b81811015611514576020818501810151868301820152016114f8565b505f602082860101526020601f19601f83011685010191505092915050565b602081525f61154560208301846114f0565b9392505050565b5f6020828403121561155c575f80fd5b611545826113f0565b6001600160a01b0381168114611047575f80fd5b5f806040838503121561158a575f80fd5b823561159581611565565b946020939093013593505050565b5f805f606084860312156115b5575f80fd5b83356115c081611565565b925060208401356115d081611565565b929592945050506040919091013590565b5f805f604084860312156115f3575f80fd5b6115fc846113f0565b9250602084013567ffffffffffffffff811115611617575f80fd5b61162386828701611406565b9497909650939450505050565b634e487b7160e01b5f52604160045260245ffd5b5f82601f830112611653575f80fd5b813567ffffffffffffffff8082111561166e5761166e611630565b604051601f8301601f19908116603f0116810190828211818310171561169657611696611630565b816040528381528660208588010111156116ae575f80fd5b836020870160208301375f602085830101528094505050505092915050565b5f805f80608085870312156116e0575f80fd5b84356116eb81611565565b935060208501359250611700604086016113f0565b9150606085013567ffffffffffffffff81111561171b575f80fd5b61172787828801611644565b91505092959194509250565b5f60208284031215611743575f80fd5b813561154581611565565b5f805f805f60808688031215611762575f80fd5b61176b866113f0565b9450611779602087016113f0565b935060408601359250606086013567ffffffffffffffff81111561179b575f80fd5b6117a788828901611406565b969995985093965092949392505050565b5f602082840312156117c8575f80fd5b5035919050565b5f80604083850312156117e0575f80fd5b82356117eb81611565565b915060208301356117fb81611565565b809150509250929050565b5f805f60608486031215611818575f80fd5b833567ffffffffffffffff81111561182e575f80fd5b61183a86828701611644565b935050611849602085016113f0565b91506118576040850161144b565b90509250925092565b5f8060408385031215611871575f80fd5b61187a836113f0565b9150602083013567ffffffffffffffff811115611895575f80fd5b6118a185828601611644565b9150509250929050565b600181811c908216806118bf57607f821691505b6020821081036118dd57634e487b7160e01b5f52602260045260245ffd5b50919050565b5f8083546118f0816118ab565b60018281168015611908576001811461191d57611949565b60ff1984168752821515830287019450611949565b875f526020805f205f5b858110156119405781548a820152908401908201611927565b50505082870194505b50929695505050505050565b818382375f9101908152919050565b5f805f60608486031215611976575f80fd5b833561198181611565565b95602085013595506040909401359392505050565b81835281816020850137505f828201602090810191909152601f909101601f19169091010190565b61ffff84168152604060208201525f6119db604083018486611996565b95945050505050565b634e487b7160e01b5f52601160045260245ffd5b81810381811115610991576109916119e4565b8082028115828204841417610991576109916119e4565b5f82611a3c57634e487b7160e01b5f52601260045260245ffd5b500490565b5f60018201611a5257611a526119e4565b5060010190565b6001600160a01b039390931683526020830191909152604082015260600190565b61ffff871681525f602060c060208401525f8854611a97816118ab565b8060c087015260e060018084165f8114611ab85760018114611ad457611b01565b60ff19851660e08a015260e084151560051b8a01019550611b01565b8d5f5260205f205f5b85811015611af85781548b8201860152908301908801611add565b8a0160e0019650505b50505050508381036040850152611b1881896114f0565b915050611b3060608401876001600160a01b03169052565b6001600160a01b038516608084015282810360a0840152611b5181856114f0565b9998505050505050505050565b5f61ffff808816835280871660208401525084604083015260806060830152611b8b608083018486611996565b979650505050505050565b61ffff861681526001600160a01b038516602082015260a0604082018190525f90611bc3908301866114f0565b84151560608401528281036080840152611bdd81856114f0565b98975050505050505050565b5f8060408385031215611bfa575f80fd5b505080516020909101519092909150565b601f8211156110bc57805f5260205f20601f840160051c81016020851015611c305750805b601f840160051c820191505b81811015610977575f8155600101611c3c565b815167ffffffffffffffff811115611c6957611c69611630565b611c7d81611c7784546118ab565b84611c0b565b602080601f831160018114611cb0575f8415611c995750858301515b5f19600386901b1c1916600185901b178555611d07565b5f85815260208120601f198616915b82811015611cde57888601518255948401946001909101908401611cbf565b5085821015611cfb57878501515f19600388901b60f8161c191681555b505060018460011b0185555b505050505050565b80820180821115610991576109916119e456fea26469706673582212204ea93a3db801de47c905375c0690de66b119174565dac307c9c4ca6fe1af464564736f6c63430008170033",
					"opcodes": "PUSH1 0xA0 PUSH1 0x40 MSTORE PUSH1 0x32 PUSH1 0xA SSTORE CALLVALUE DUP1 ISZERO PUSH3 0x15 JUMPI PUSH0 DUP1 REVERT JUMPDEST POP PUSH1 0x40 MLOAD PUSH3 0x2175 CODESIZE SUB DUP1 PUSH3 0x2175 DUP4 CODECOPY DUP2 ADD PUSH1 0x40 DUP2 SWAP1 MSTORE PUSH3 0x38 SWAP2 PUSH3 0x201 JUMP JUMPDEST CALLER DUP3 DUP3 PUSH1 0x3 PUSH3 0x49 DUP4 DUP3 PUSH3 0x32A JUMP JUMPDEST POP PUSH1 0x4 PUSH3 0x58 DUP3 DUP3 PUSH3 0x32A JUMP JUMPDEST POP POP POP PUSH1 0x1 PUSH1 0x1 PUSH1 0xA0 SHL SUB DUP2 AND PUSH3 0x89 JUMPI PUSH1 0x40 MLOAD PUSH4 0x1E4FBDF7 PUSH1 0xE0 SHL DUP2 MSTORE PUSH0 PUSH1 0x4 DUP3 ADD MSTORE PUSH1 0x24 ADD PUSH1 0x40 MLOAD DUP1 SWAP2 SUB SWAP1 REVERT JUMPDEST PUSH3 0x94 DUP2 PUSH3 0xEF JUMP JUMPDEST POP PUSH2 0xFFFF DUP5 AND PUSH1 0x80 MSTORE PUSH1 0x6 DUP1 SLOAD PUSH1 0x1 PUSH1 0x1 PUSH1 0xA0 SHL SUB NOT AND PUSH1 0x1 PUSH1 0x1 PUSH1 0xA0 SHL SUB DUP6 AND SWAP1 DUP2 OR SWAP1 SWAP2 SSTORE PUSH1 0x40 MLOAD PUSH0 SWAP1 PUSH32 0x241827194635B544BCEB965D0E124305C0968051403AE83CB99D1EF86BD65F58 SWAP1 DUP3 SWAP1 LOG3 POP POP POP POP PUSH3 0x3F6 JUMP JUMPDEST PUSH1 0x5 DUP1 SLOAD PUSH1 0x1 PUSH1 0x1 PUSH1 0xA0 SHL SUB DUP4 DUP2 AND PUSH1 0x1 PUSH1 0x1 PUSH1 0xA0 SHL SUB NOT DUP4 AND DUP2 OR SWAP1 SWAP4 SSTORE PUSH1 0x40 MLOAD SWAP2 AND SWAP2 SWAP1 DUP3 SWAP1 PUSH32 0x8BE0079C531659141344CD1FD0A4F28419497F9722A3DAAFE3B4186F6B6457E0 SWAP1 PUSH0 SWAP1 LOG3 POP POP JUMP JUMPDEST PUSH4 0x4E487B71 PUSH1 0xE0 SHL PUSH0 MSTORE PUSH1 0x41 PUSH1 0x4 MSTORE PUSH1 0x24 PUSH0 REVERT JUMPDEST PUSH0 DUP3 PUSH1 0x1F DUP4 ADD SLT PUSH3 0x164 JUMPI PUSH0 DUP1 REVERT JUMPDEST DUP2 MLOAD PUSH1 0x1 PUSH1 0x1 PUSH1 0x40 SHL SUB DUP1 DUP3 GT ISZERO PUSH3 0x181 JUMPI PUSH3 0x181 PUSH3 0x140 JUMP JUMPDEST PUSH1 0x40 MLOAD PUSH1 0x1F DUP4 ADD PUSH1 0x1F NOT SWAP1 DUP2 AND PUSH1 0x3F ADD AND DUP2 ADD SWAP1 DUP3 DUP3 GT DUP2 DUP4 LT OR ISZERO PUSH3 0x1AC JUMPI PUSH3 0x1AC PUSH3 0x140 JUMP JUMPDEST DUP2 PUSH1 0x40 MSTORE DUP4 DUP2 MSTORE PUSH1 0x20 SWAP3 POP DUP7 PUSH1 0x20 DUP6 DUP9 ADD ADD GT ISZERO PUSH3 0x1C9 JUMPI PUSH0 DUP1 REVERT JUMPDEST PUSH0 SWAP2 POP JUMPDEST DUP4 DUP3 LT ISZERO PUSH3 0x1EC JUMPI DUP6 DUP3 ADD DUP4 ADD MLOAD DUP2 DUP4 ADD DUP5 ADD MSTORE SWAP1 DUP3 ADD SWAP1 PUSH3 0x1CD JUMP JUMPDEST PUSH0 PUSH1 0x20 DUP6 DUP4 ADD ADD MSTORE DUP1 SWAP5 POP POP POP POP POP SWAP3 SWAP2 POP POP JUMP JUMPDEST PUSH0 DUP1 PUSH0 DUP1 PUSH1 0x80 DUP6 DUP8 SUB SLT ISZERO PUSH3 0x215 JUMPI PUSH0 DUP1 REVERT JUMPDEST DUP5 MLOAD PUSH2 0xFFFF DUP2 AND DUP2 EQ PUSH3 0x227 JUMPI PUSH0 DUP1 REVERT JUMPDEST PUSH1 0x20 DUP7 ADD MLOAD SWAP1 SWAP5 POP PUSH1 0x1 PUSH1 0x1 PUSH1 0xA0 SHL SUB DUP2 AND DUP2 EQ PUSH3 0x244 JUMPI PUSH0 DUP1 REVERT JUMPDEST PUSH1 0x40 DUP7 ADD MLOAD SWAP1 SWAP4 POP PUSH1 0x1 PUSH1 0x1 PUSH1 0x40 SHL SUB DUP1 DUP3 GT ISZERO PUSH3 0x261 JUMPI PUSH0 DUP1 REVERT JUMPDEST PUSH3 0x26F DUP9 DUP4 DUP10 ADD PUSH3 0x154 JUMP JUMPDEST SWAP4 POP PUSH1 0x60 DUP8 ADD MLOAD SWAP2 POP DUP1 DUP3 GT ISZERO PUSH3 0x285 JUMPI PUSH0 DUP1 REVERT JUMPDEST POP PUSH3 0x294 DUP8 DUP3 DUP9 ADD PUSH3 0x154 JUMP JUMPDEST SWAP2 POP POP SWAP3 SWAP6 SWAP2 SWAP5 POP SWAP3 POP JUMP JUMPDEST PUSH1 0x1 DUP2 DUP2 SHR SWAP1 DUP3 AND DUP1 PUSH3 0x2B5 JUMPI PUSH1 0x7F DUP3 AND SWAP2 POP JUMPDEST PUSH1 0x20 DUP3 LT DUP2 SUB PUSH3 0x2D4 JUMPI PUSH4 0x4E487B71 PUSH1 0xE0 SHL PUSH0 MSTORE PUSH1 0x22 PUSH1 0x4 MSTORE PUSH1 0x24 PUSH0 REVERT JUMPDEST POP SWAP2 SWAP1 POP JUMP JUMPDEST PUSH1 0x1F DUP3 GT ISZERO PUSH3 0x325 JUMPI DUP1 PUSH0 MSTORE PUSH1 0x20 PUSH0 KECCAK256 PUSH1 0x1F DUP5 ADD PUSH1 0x5 SHR DUP2 ADD PUSH1 0x20 DUP6 LT ISZERO PUSH3 0x301 JUMPI POP DUP1 JUMPDEST PUSH1 0x1F DUP5 ADD PUSH1 0x5 SHR DUP3 ADD SWAP2 POP JUMPDEST DUP2 DUP2 LT ISZERO PUSH3 0x322 JUMPI PUSH0 DUP2 SSTORE PUSH1 0x1 ADD PUSH3 0x30D JUMP JUMPDEST POP POP JUMPDEST POP POP POP JUMP JUMPDEST DUP2 MLOAD PUSH1 0x1 PUSH1 0x1 PUSH1 0x40 SHL SUB DUP2 GT ISZERO PUSH3 0x346 JUMPI PUSH3 0x346 PUSH3 0x140 JUMP JUMPDEST PUSH3 0x35E DUP2 PUSH3 0x357 DUP5 SLOAD PUSH3 0x2A0 JUMP JUMPDEST DUP5 PUSH3 0x2DA JUMP JUMPDEST PUSH1 0x20 DUP1 PUSH1 0x1F DUP4 GT PUSH1 0x1 DUP2 EQ PUSH3 0x394 JUMPI PUSH0 DUP5 ISZERO PUSH3 0x37C JUMPI POP DUP6 DUP4 ADD MLOAD JUMPDEST PUSH0 NOT PUSH1 0x3 DUP7 SWAP1 SHL SHR NOT AND PUSH1 0x1 DUP6 SWAP1 SHL OR DUP6 SSTORE PUSH3 0x3EE JUMP JUMPDEST PUSH0 DUP6 DUP2 MSTORE PUSH1 0x20 DUP2 KECCAK256 PUSH1 0x1F NOT DUP7 AND SWAP2 JUMPDEST DUP3 DUP2 LT ISZERO PUSH3 0x3C4 JUMPI DUP9 DUP7 ADD MLOAD DUP3 SSTORE SWAP5 DUP5 ADD SWAP5 PUSH1 0x1 SWAP1 SWAP2 ADD SWAP1 DUP5 ADD PUSH3 0x3A3 JUMP JUMPDEST POP DUP6 DUP3 LT ISZERO PUSH3 0x3E2 JUMPI DUP8 DUP6 ADD MLOAD PUSH0 NOT PUSH1 0x3 DUP9 SWAP1 SHL PUSH1 0xF8 AND SHR NOT AND DUP2 SSTORE JUMPDEST POP POP PUSH1 0x1 DUP5 PUSH1 0x1 SHL ADD DUP6 SSTORE JUMPDEST POP POP POP POP POP POP JUMP JUMPDEST PUSH1 0x80 MLOAD PUSH2 0x1D58 PUSH3 0x41D PUSH0 CODECOPY PUSH0 DUP2 DUP2 PUSH2 0x3B6 ADD MSTORE DUP2 DUP2 PUSH2 0x811 ADD MSTORE PUSH2 0xC95 ADD MSTORE PUSH2 0x1D58 PUSH0 RETURN INVALID PUSH1 0x80 PUSH1 0x40 MSTORE PUSH1 0x4 CALLDATASIZE LT PUSH2 0x1AE JUMPI PUSH0 CALLDATALOAD PUSH1 0xE0 SHR DUP1 PUSH4 0x8DA5CB5B GT PUSH2 0xE7 JUMPI DUP1 PUSH4 0xCBED8B9C GT PUSH2 0x87 JUMPI DUP1 PUSH4 0xE38C6802 GT PUSH2 0x62 JUMPI DUP1 PUSH4 0xE38C6802 EQ PUSH2 0x4F3 JUMPI DUP1 PUSH4 0xE776AC5E EQ PUSH2 0x542 JUMPI DUP1 PUSH4 0xEB8D72B7 EQ PUSH2 0x561 JUMPI DUP1 PUSH4 0xF2FDE38B EQ PUSH2 0x580 JUMPI PUSH0 DUP1 REVERT JUMPDEST DUP1 PUSH4 0xCBED8B9C EQ PUSH2 0x471 JUMPI DUP1 PUSH4 0xD26ED3E3 EQ PUSH2 0x490 JUMPI DUP1 PUSH4 0xDD62ED3E EQ PUSH2 0x4AF JUMPI PUSH0 DUP1 REVERT JUMPDEST DUP1 PUSH4 0x95D89B41 GT PUSH2 0xC2 JUMPI DUP1 PUSH4 0x95D89B41 EQ PUSH2 0x400 JUMPI DUP1 PUSH4 0xA7170D48 EQ PUSH2 0x414 JUMPI DUP1 PUSH4 0xA9059CBB EQ PUSH2 0x433 JUMPI DUP1 PUSH4 0xAC447944 EQ PUSH2 0x452 JUMPI PUSH0 DUP1 REVERT JUMPDEST DUP1 PUSH4 0x8DA5CB5B EQ PUSH2 0x388 JUMPI DUP1 PUSH4 0x935EC990 EQ PUSH2 0x3A5 JUMPI DUP1 PUSH4 0x94544E64 EQ PUSH2 0x3EB JUMPI PUSH0 DUP1 REVERT JUMPDEST DUP1 PUSH4 0x313CE567 GT PUSH2 0x152 JUMPI DUP1 PUSH4 0x6F0E7470 GT PUSH2 0x12D JUMPI DUP1 PUSH4 0x6F0E7470 EQ PUSH2 0x318 JUMPI DUP1 PUSH4 0x70A08231 EQ PUSH2 0x32B JUMPI DUP1 PUSH4 0x715018A6 EQ PUSH2 0x35F JUMPI DUP1 PUSH4 0x74F079B8 EQ PUSH2 0x373 JUMPI PUSH0 DUP1 REVERT JUMPDEST DUP1 PUSH4 0x313CE567 EQ PUSH2 0x2A7 JUMPI DUP1 PUSH4 0x42D65A8D EQ PUSH2 0x2C2 JUMPI DUP1 PUSH4 0x5E280F11 EQ PUSH2 0x2E1 JUMPI PUSH0 DUP1 REVERT JUMPDEST DUP1 PUSH4 0x95EA7B3 GT PUSH2 0x18D JUMPI DUP1 PUSH4 0x95EA7B3 EQ PUSH2 0x21C JUMPI DUP1 PUSH4 0x10DDB137 EQ PUSH2 0x24B JUMPI DUP1 PUSH4 0x18160DDD EQ PUSH2 0x26A JUMPI DUP1 PUSH4 0x23B872DD EQ PUSH2 0x288 JUMPI PUSH0 DUP1 REVERT JUMPDEST DUP1 PUSH3 0x1D3567 EQ PUSH2 0x1B2 JUMPI DUP1 PUSH4 0x6FDDE03 EQ PUSH2 0x1D3 JUMPI DUP1 PUSH4 0x7E0DB17 EQ PUSH2 0x1FD JUMPI JUMPDEST PUSH0 DUP1 REVERT JUMPDEST CALLVALUE DUP1 ISZERO PUSH2 0x1BD JUMPI PUSH0 DUP1 REVERT JUMPDEST POP PUSH2 0x1D1 PUSH2 0x1CC CALLDATASIZE PUSH1 0x4 PUSH2 0x1462 JUMP JUMPDEST PUSH2 0x59F JUMP JUMPDEST STOP JUMPDEST CALLVALUE DUP1 ISZERO PUSH2 0x1DE JUMPI PUSH0 DUP1 REVERT JUMPDEST POP PUSH2 0x1E7 PUSH2 0x886 JUMP JUMPDEST PUSH1 0x40 MLOAD PUSH2 0x1F4 SWAP2 SWAP1 PUSH2 0x1533 JUMP JUMPDEST PUSH1 0x40 MLOAD DUP1 SWAP2 SUB SWAP1 RETURN JUMPDEST CALLVALUE DUP1 ISZERO PUSH2 0x208 JUMPI PUSH0 DUP1 REVERT JUMPDEST POP PUSH2 0x1D1 PUSH2 0x217 CALLDATASIZE PUSH1 0x4 PUSH2 0x154C JUMP JUMPDEST PUSH2 0x916 JUMP JUMPDEST CALLVALUE DUP1 ISZERO PUSH2 0x227 JUMPI PUSH0 DUP1 REVERT JUMPDEST POP PUSH2 0x23B PUSH2 0x236 CALLDATASIZE PUSH1 0x4 PUSH2 0x1579 JUMP JUMPDEST PUSH2 0x97E JUMP JUMPDEST PUSH1 0x40 MLOAD SWAP1 ISZERO ISZERO DUP2 MSTORE PUSH1 0x20 ADD PUSH2 0x1F4 JUMP JUMPDEST CALLVALUE DUP1 ISZERO PUSH2 0x256 JUMPI PUSH0 DUP1 REVERT JUMPDEST POP PUSH2 0x1D1 PUSH2 0x265 CALLDATASIZE PUSH1 0x4 PUSH2 0x154C JUMP JUMPDEST PUSH2 0x997 JUMP JUMPDEST CALLVALUE DUP1 ISZERO PUSH2 0x275 JUMPI PUSH0 DUP1 REVERT JUMPDEST POP PUSH1 0x2 SLOAD JUMPDEST PUSH1 0x40 MLOAD SWAP1 DUP2 MSTORE PUSH1 0x20 ADD PUSH2 0x1F4 JUMP JUMPDEST CALLVALUE DUP1 ISZERO PUSH2 0x293 JUMPI PUSH0 DUP1 REVERT JUMPDEST POP PUSH2 0x23B PUSH2 0x2A2 CALLDATASIZE PUSH1 0x4 PUSH2 0x15A3 JUMP JUMPDEST PUSH2 0x9D3 JUMP JUMPDEST CALLVALUE DUP1 ISZERO PUSH2 0x2B2 JUMPI PUSH0 DUP1 REVERT JUMPDEST POP PUSH1 0x40 MLOAD PUSH1 0x12 DUP2 MSTORE PUSH1 0x20 ADD PUSH2 0x1F4 JUMP JUMPDEST CALLVALUE DUP1 ISZERO PUSH2 0x2CD JUMPI PUSH0 DUP1 REVERT JUMPDEST POP PUSH2 0x1D1 PUSH2 0x2DC CALLDATASIZE PUSH1 0x4 PUSH2 0x15E1 JUMP JUMPDEST PUSH2 0x9F6 JUMP JUMPDEST CALLVALUE DUP1 ISZERO PUSH2 0x2EC JUMPI PUSH0 DUP1 REVERT JUMPDEST POP PUSH1 0x6 SLOAD PUSH2 0x300 SWAP1 PUSH1 0x1 PUSH1 0x1 PUSH1 0xA0 SHL SUB AND DUP2 JUMP JUMPDEST PUSH1 0x40 MLOAD PUSH1 0x1 PUSH1 0x1 PUSH1 0xA0 SHL SUB SWAP1 SWAP2 AND DUP2 MSTORE PUSH1 0x20 ADD PUSH2 0x1F4 JUMP JUMPDEST PUSH2 0x1D1 PUSH2 0x326 CALLDATASIZE PUSH1 0x4 PUSH2 0x16CD JUMP JUMPDEST PUSH2 0xA64 JUMP JUMPDEST CALLVALUE DUP1 ISZERO PUSH2 0x336 JUMPI PUSH0 DUP1 REVERT JUMPDEST POP PUSH2 0x27A PUSH2 0x345 CALLDATASIZE PUSH1 0x4 PUSH2 0x1733 JUMP JUMPDEST PUSH1 0x1 PUSH1 0x1 PUSH1 0xA0 SHL SUB AND PUSH0 SWAP1 DUP2 MSTORE PUSH1 0x20 DUP2 SWAP1 MSTORE PUSH1 0x40 SWAP1 KECCAK256 SLOAD SWAP1 JUMP JUMPDEST CALLVALUE DUP1 ISZERO PUSH2 0x36A JUMPI PUSH0 DUP1 REVERT JUMPDEST POP PUSH2 0x1D1 PUSH2 0xD1A JUMP JUMPDEST CALLVALUE DUP1 ISZERO PUSH2 0x37E JUMPI PUSH0 DUP1 REVERT JUMPDEST POP PUSH2 0x27A PUSH1 0x8 SLOAD DUP2 JUMP JUMPDEST CALLVALUE DUP1 ISZERO PUSH2 0x393 JUMPI PUSH0 DUP1 REVERT JUMPDEST POP PUSH1 0x5 SLOAD PUSH1 0x1 PUSH1 0x1 PUSH1 0xA0 SHL SUB AND PUSH2 0x300 JUMP JUMPDEST CALLVALUE DUP1 ISZERO PUSH2 0x3B0 JUMPI PUSH0 DUP1 REVERT JUMPDEST POP PUSH2 0x3D8 PUSH32 0x0 DUP2 JUMP JUMPDEST PUSH1 0x40 MLOAD PUSH2 0xFFFF SWAP1 SWAP2 AND DUP2 MSTORE PUSH1 0x20 ADD PUSH2 0x1F4 JUMP JUMPDEST CALLVALUE DUP1 ISZERO PUSH2 0x3F6 JUMPI PUSH0 DUP1 REVERT JUMPDEST POP PUSH2 0x27A PUSH1 0xA SLOAD DUP2 JUMP JUMPDEST CALLVALUE DUP1 ISZERO PUSH2 0x40B JUMPI PUSH0 DUP1 REVERT JUMPDEST POP PUSH2 0x1E7 PUSH2 0xD2D JUMP JUMPDEST CALLVALUE DUP1 ISZERO PUSH2 0x41F JUMPI PUSH0 DUP1 REVERT JUMPDEST POP PUSH2 0x1D1 PUSH2 0x42E CALLDATASIZE PUSH1 0x4 PUSH2 0x1733 JUMP JUMPDEST PUSH2 0xD3C JUMP JUMPDEST CALLVALUE DUP1 ISZERO PUSH2 0x43E JUMPI PUSH0 DUP1 REVERT JUMPDEST POP PUSH2 0x23B PUSH2 0x44D CALLDATASIZE PUSH1 0x4 PUSH2 0x1579 JUMP JUMPDEST PUSH2 0xD95 JUMP JUMPDEST CALLVALUE DUP1 ISZERO PUSH2 0x45D JUMPI PUSH0 DUP1 REVERT JUMPDEST POP PUSH2 0x1E7 PUSH2 0x46C CALLDATASIZE PUSH1 0x4 PUSH2 0x154C JUMP JUMPDEST PUSH2 0xDA2 JUMP JUMPDEST CALLVALUE DUP1 ISZERO PUSH2 0x47C JUMPI PUSH0 DUP1 REVERT JUMPDEST POP PUSH2 0x1D1 PUSH2 0x48B CALLDATASIZE PUSH1 0x4 PUSH2 0x174E JUMP JUMPDEST PUSH2 0xE39 JUMP JUMPDEST CALLVALUE DUP1 ISZERO PUSH2 0x49B JUMPI PUSH0 DUP1 REVERT JUMPDEST POP PUSH2 0x1D1 PUSH2 0x4AA CALLDATASIZE PUSH1 0x4 PUSH2 0x17B8 JUMP JUMPDEST PUSH2 0xEAD JUMP JUMPDEST CALLVALUE DUP1 ISZERO PUSH2 0x4BA JUMPI PUSH0 DUP1 REVERT JUMPDEST POP PUSH2 0x27A PUSH2 0x4C9 CALLDATASIZE PUSH1 0x4 PUSH2 0x17CF JUMP JUMPDEST PUSH1 0x1 PUSH1 0x1 PUSH1 0xA0 SHL SUB SWAP2 DUP3 AND PUSH0 SWAP1 DUP2 MSTORE PUSH1 0x1 PUSH1 0x20 SWAP1 DUP2 MSTORE PUSH1 0x40 DUP1 DUP4 KECCAK256 SWAP4 SWAP1 SWAP5 AND DUP3 MSTORE SWAP2 SWAP1 SWAP2 MSTORE KECCAK256 SLOAD SWAP1 JUMP JUMPDEST CALLVALUE DUP1 ISZERO PUSH2 0x4FE JUMPI PUSH0 DUP1 REVERT JUMPDEST POP PUSH2 0x23B PUSH2 0x50D CALLDATASIZE PUSH1 0x4 PUSH2 0x1806 JUMP JUMPDEST DUP3 MLOAD PUSH1 0x20 DUP2 DUP6 ADD DUP2 ADD DUP1 MLOAD PUSH1 0x9 DUP3 MSTORE SWAP3 DUP3 ADD SWAP6 DUP3 ADD SWAP6 SWAP1 SWAP6 KECCAK256 SWAP2 SWAP1 SWAP5 MSTORE DUP4 MSTORE PUSH0 SWAP2 DUP3 MSTORE PUSH1 0x40 DUP1 DUP4 KECCAK256 SWAP1 SWAP4 MSTORE DUP2 MSTORE KECCAK256 SLOAD PUSH1 0xFF AND DUP2 JUMP JUMPDEST CALLVALUE DUP1 ISZERO PUSH2 0x54D JUMPI PUSH0 DUP1 REVERT JUMPDEST POP PUSH2 0x27A PUSH2 0x55C CALLDATASIZE PUSH1 0x4 PUSH2 0x16CD JUMP JUMPDEST PUSH2 0xEFA JUMP JUMPDEST CALLVALUE DUP1 ISZERO PUSH2 0x56C JUMPI PUSH0 DUP1 REVERT JUMPDEST POP PUSH2 0x1D1 PUSH2 0x57B CALLDATASIZE PUSH1 0x4 PUSH2 0x1860 JUMP JUMPDEST PUSH2 0xFA8 JUMP JUMPDEST CALLVALUE DUP1 ISZERO PUSH2 0x58B JUMPI PUSH0 DUP1 REVERT JUMPDEST POP PUSH2 0x1D1 PUSH2 0x59A CALLDATASIZE PUSH1 0x4 PUSH2 0x1733 JUMP JUMPDEST PUSH2 0x100D JUMP JUMPDEST PUSH1 0x6 SLOAD PUSH1 0x1 PUSH1 0x1 PUSH1 0xA0 SHL SUB AND CALLER EQ PUSH2 0x5FE JUMPI PUSH1 0x40 MLOAD PUSH3 0x461BCD PUSH1 0xE5 SHL DUP2 MSTORE PUSH1 0x20 PUSH1 0x4 DUP3 ADD MSTORE PUSH1 0x1B PUSH1 0x24 DUP3 ADD MSTORE PUSH32 0x777261707065722F63616C6C65722D6E6F742D656E64706F696E740000000000 PUSH1 0x44 DUP3 ADD MSTORE PUSH1 0x64 ADD JUMPDEST PUSH1 0x40 MLOAD DUP1 SWAP2 SUB SWAP1 REVERT JUMPDEST PUSH2 0xFFFF DUP7 AND PUSH0 SWAP1 DUP2 MSTORE PUSH1 0x7 PUSH1 0x20 MSTORE PUSH1 0x40 SWAP1 KECCAK256 DUP1 SLOAD PUSH2 0x61B SWAP1 PUSH2 0x18AB JUMP JUMPDEST DUP6 EQ SWAP1 POP PUSH2 0x675 JUMPI PUSH1 0x40 MLOAD PUSH3 0x461BCD PUSH1 0xE5 SHL DUP2 MSTORE PUSH1 0x20 PUSH1 0x4 DUP3 ADD MSTORE PUSH1 0x21 PUSH1 0x24 DUP3 ADD MSTORE PUSH32 0x777261707065722F696E76616C69642D7372632D73656E6465722D6C656E6774 PUSH1 0x44 DUP3 ADD MSTORE PUSH1 0xD PUSH1 0xFB SHL PUSH1 0x64 DUP3 ADD MSTORE PUSH1 0x84 ADD PUSH2 0x5F5 JUMP JUMPDEST PUSH2 0xFFFF DUP7 AND PUSH0 SWAP1 DUP2 MSTORE PUSH1 0x7 PUSH1 0x20 MSTORE PUSH1 0x40 SWAP1 DUP2 SWAP1 KECCAK256 SWAP1 MLOAD PUSH2 0x695 SWAP2 SWAP1 PUSH2 0x18E3 JUMP JUMPDEST PUSH1 0x40 MLOAD DUP1 SWAP2 SUB SWAP1 KECCAK256 DUP6 DUP6 PUSH1 0x40 MLOAD PUSH2 0x6AD SWAP3 SWAP2 SWAP1 PUSH2 0x1955 JUMP JUMPDEST PUSH1 0x40 MLOAD DUP1 SWAP2 SUB SWAP1 KECCAK256 EQ PUSH2 0x702 JUMPI PUSH1 0x40 MLOAD PUSH3 0x461BCD PUSH1 0xE5 SHL DUP2 MSTORE PUSH1 0x20 PUSH1 0x4 DUP3 ADD MSTORE PUSH1 0x1A PUSH1 0x24 DUP3 ADD MSTORE PUSH32 0x777261707065722F696E76616C69642D7372632D73656E646572000000000000 PUSH1 0x44 DUP3 ADD MSTORE PUSH1 0x64 ADD PUSH2 0x5F5 JUMP JUMPDEST PUSH1 0x9 DUP6 DUP6 PUSH1 0x40 MLOAD PUSH2 0x714 SWAP3 SWAP2 SWAP1 PUSH2 0x1955 JUMP JUMPDEST SWAP1 DUP2 MSTORE PUSH1 0x40 DUP1 MLOAD PUSH1 0x20 SWAP3 DUP2 SWAP1 SUB DUP4 ADD SWAP1 KECCAK256 PUSH2 0xFFFF DUP10 AND PUSH0 SWAP1 DUP2 MSTORE SWAP1 DUP4 MSTORE DUP2 DUP2 KECCAK256 PUSH8 0xFFFFFFFFFFFFFFFF DUP8 AND DUP3 MSTORE SWAP1 SWAP3 MSTORE SWAP1 KECCAK256 SLOAD PUSH1 0xFF AND ISZERO PUSH2 0x78F JUMPI PUSH1 0x40 MLOAD PUSH3 0x461BCD PUSH1 0xE5 SHL DUP2 MSTORE PUSH1 0x20 PUSH1 0x4 DUP3 ADD MSTORE PUSH1 0x15 PUSH1 0x24 DUP3 ADD MSTORE PUSH21 0x777261707065722F696E76616C69642D6E6F6E6365 PUSH1 0x58 SHL PUSH1 0x44 DUP3 ADD MSTORE PUSH1 0x64 ADD PUSH2 0x5F5 JUMP JUMPDEST PUSH1 0x1 PUSH1 0x9 DUP7 DUP7 PUSH1 0x40 MLOAD PUSH2 0x7A3 SWAP3 SWAP2 SWAP1 PUSH2 0x1955 JUMP JUMPDEST SWAP1 DUP2 MSTORE PUSH1 0x40 DUP1 MLOAD PUSH1 0x20 SWAP3 DUP2 SWAP1 SUB DUP4 ADD SWAP1 KECCAK256 PUSH2 0xFFFF DUP11 AND PUSH0 SWAP1 DUP2 MSTORE SWAP1 DUP4 MSTORE DUP2 DUP2 KECCAK256 PUSH8 0xFFFFFFFFFFFFFFFF DUP9 AND DUP3 MSTORE SWAP1 SWAP3 MSTORE DUP2 KECCAK256 DUP1 SLOAD PUSH1 0xFF NOT AND SWAP3 ISZERO ISZERO SWAP3 SWAP1 SWAP3 OR SWAP1 SWAP2 SSTORE DUP1 DUP1 PUSH2 0x7F3 DUP6 DUP6 ADD DUP7 PUSH2 0x1964 JUMP JUMPDEST SWAP3 POP SWAP3 POP SWAP3 POP PUSH2 0x803 DUP4 DUP4 PUSH2 0x104A JUMP JUMPDEST PUSH1 0x40 DUP1 MLOAD PUSH2 0xFFFF DUP1 DUP13 AND DUP3 MSTORE PUSH32 0x0 AND PUSH1 0x20 DUP3 ADD MSTORE SWAP1 DUP2 ADD DUP3 SWAP1 MSTORE PUSH1 0x60 DUP2 ADD DUP4 SWAP1 MSTORE PUSH1 0x1 PUSH1 0x1 PUSH1 0xA0 SHL SUB DUP5 AND SWAP1 PUSH32 0xF540E2FCB9906DCFCFD5AEA0F902DA16BA5630B30F63F3ACF6ABE376F9E476A8 SWAP1 PUSH1 0x80 ADD PUSH1 0x40 MLOAD DUP1 SWAP2 SUB SWAP1 LOG2 POP POP POP POP POP POP POP POP POP JUMP JUMPDEST PUSH1 0x60 PUSH1 0x3 DUP1 SLOAD PUSH2 0x895 SWAP1 PUSH2 0x18AB JUMP JUMPDEST DUP1 PUSH1 0x1F ADD PUSH1 0x20 DUP1 SWAP2 DIV MUL PUSH1 0x20 ADD PUSH1 0x40 MLOAD SWAP1 DUP2 ADD PUSH1 0x40 MSTORE DUP1 SWAP3 SWAP2 SWAP1 DUP2 DUP2 MSTORE PUSH1 0x20 ADD DUP3 DUP1 SLOAD PUSH2 0x8C1 SWAP1 PUSH2 0x18AB JUMP JUMPDEST DUP1 ISZERO PUSH2 0x90C JUMPI DUP1 PUSH1 0x1F LT PUSH2 0x8E3 JUMPI PUSH2 0x100 DUP1 DUP4 SLOAD DIV MUL DUP4 MSTORE SWAP2 PUSH1 0x20 ADD SWAP2 PUSH2 0x90C JUMP JUMPDEST DUP3 ADD SWAP2 SWAP1 PUSH0 MSTORE PUSH1 0x20 PUSH0 KECCAK256 SWAP1 JUMPDEST DUP2 SLOAD DUP2 MSTORE SWAP1 PUSH1 0x1 ADD SWAP1 PUSH1 0x20 ADD DUP1 DUP4 GT PUSH2 0x8EF JUMPI DUP3 SWAP1 SUB PUSH1 0x1F AND DUP3 ADD SWAP2 JUMPDEST POP POP POP POP POP SWAP1 POP SWAP1 JUMP JUMPDEST PUSH2 0x91E PUSH2 0x1082 JUMP JUMPDEST PUSH1 0x6 SLOAD PUSH1 0x40 MLOAD PUSH4 0x7E0DB17 PUSH1 0xE0 SHL DUP2 MSTORE PUSH2 0xFFFF DUP4 AND PUSH1 0x4 DUP3 ADD MSTORE PUSH1 0x1 PUSH1 0x1 PUSH1 0xA0 SHL SUB SWAP1 SWAP2 AND SWAP1 PUSH4 0x7E0DB17 SWAP1 PUSH1 0x24 ADD JUMPDEST PUSH0 PUSH1 0x40 MLOAD DUP1 DUP4 SUB DUP2 PUSH0 DUP8 DUP1 EXTCODESIZE ISZERO DUP1 ISZERO PUSH2 0x965 JUMPI PUSH0 DUP1 REVERT JUMPDEST POP GAS CALL ISZERO DUP1 ISZERO PUSH2 0x977 JUMPI RETURNDATASIZE PUSH0 DUP1 RETURNDATACOPY RETURNDATASIZE PUSH0 REVERT JUMPDEST POP POP POP POP POP JUMP JUMPDEST PUSH0 CALLER PUSH2 0x98B DUP2 DUP6 DUP6 PUSH2 0x10AF JUMP JUMPDEST PUSH1 0x1 SWAP2 POP POP JUMPDEST SWAP3 SWAP2 POP POP JUMP JUMPDEST PUSH2 0x99F PUSH2 0x1082 JUMP JUMPDEST PUSH1 0x6 SLOAD PUSH1 0x40 MLOAD PUSH4 0x10DDB137 PUSH1 0xE0 SHL DUP2 MSTORE PUSH2 0xFFFF DUP4 AND PUSH1 0x4 DUP3 ADD MSTORE PUSH1 0x1 PUSH1 0x1 PUSH1 0xA0 SHL SUB SWAP1 SWAP2 AND SWAP1 PUSH4 0x10DDB137 SWAP1 PUSH1 0x24 ADD PUSH2 0x94E JUMP JUMPDEST PUSH0 CALLER PUSH2 0x9E0 DUP6 DUP3 DUP6 PUSH2 0x10C1 JUMP JUMPDEST PUSH2 0x9EB DUP6 DUP6 DUP6 PUSH2 0x1129 JUMP JUMPDEST POP PUSH1 0x1 SWAP5 SWAP4 POP POP POP POP JUMP JUMPDEST PUSH2 0x9FE PUSH2 0x1082 JUMP JUMPDEST PUSH1 0x6 SLOAD PUSH1 0x40 MLOAD PUSH4 0x42D65A8D PUSH1 0xE0 SHL DUP2 MSTORE PUSH1 0x1 PUSH1 0x1 PUSH1 0xA0 SHL SUB SWAP1 SWAP2 AND SWAP1 PUSH4 0x42D65A8D SWAP1 PUSH2 0xA32 SWAP1 DUP7 SWAP1 DUP7 SWAP1 DUP7 SWAP1 PUSH1 0x4 ADD PUSH2 0x19BE JUMP JUMPDEST PUSH0 PUSH1 0x40 MLOAD DUP1 DUP4 SUB DUP2 PUSH0 DUP8 DUP1 EXTCODESIZE ISZERO DUP1 ISZERO PUSH2 0xA49 JUMPI PUSH0 DUP1 REVERT JUMPDEST POP GAS CALL ISZERO DUP1 ISZERO PUSH2 0xA5B JUMPI RETURNDATASIZE PUSH0 DUP1 RETURNDATACOPY RETURNDATASIZE PUSH0 REVERT JUMPDEST POP POP POP POP POP POP POP JUMP JUMPDEST PUSH2 0xFFFF DUP3 AND PUSH0 SWAP1 DUP2 MSTORE PUSH1 0x7 PUSH1 0x20 MSTORE PUSH1 0x40 DUP2 KECCAK256 DUP1 SLOAD PUSH2 0xA81 SWAP1 PUSH2 0x18AB JUMP JUMPDEST SWAP1 POP GT PUSH2 0xAD0 JUMPI PUSH1 0x40 MLOAD PUSH3 0x461BCD PUSH1 0xE5 SHL DUP2 MSTORE PUSH1 0x20 PUSH1 0x4 DUP3 ADD MSTORE PUSH1 0x1B PUSH1 0x24 DUP3 ADD MSTORE PUSH32 0x6272696467652F696E76616C69642D6473742D636861696E2D69640000000000 PUSH1 0x44 DUP3 ADD MSTORE PUSH1 0x64 ADD PUSH2 0x5F5 JUMP JUMPDEST CALLER PUSH0 SWAP1 DUP2 MSTORE PUSH1 0x20 DUP2 SWAP1 MSTORE PUSH1 0x40 SWAP1 KECCAK256 SLOAD DUP4 DUP2 LT ISZERO PUSH2 0xB2F JUMPI PUSH1 0x40 MLOAD PUSH3 0x461BCD PUSH1 0xE5 SHL DUP2 MSTORE PUSH1 0x20 PUSH1 0x4 DUP3 ADD MSTORE PUSH1 0x1C PUSH1 0x24 DUP3 ADD MSTORE PUSH32 0x777261707065722F696E73756666696369656E742D62616C616E636500000000 PUSH1 0x44 DUP3 ADD MSTORE PUSH1 0x64 ADD PUSH2 0x5F5 JUMP JUMPDEST PUSH2 0xB39 CALLER DUP6 PUSH2 0x1186 JUMP JUMPDEST CALLER PUSH0 SWAP1 DUP2 MSTORE PUSH1 0x20 DUP2 SWAP1 MSTORE PUSH1 0x40 SWAP1 KECCAK256 SLOAD DUP5 PUSH2 0xB53 DUP3 DUP5 PUSH2 0x19F8 JUMP JUMPDEST EQ PUSH2 0xB96 JUMPI PUSH1 0x40 MLOAD PUSH3 0x461BCD PUSH1 0xE5 SHL DUP2 MSTORE PUSH1 0x20 PUSH1 0x4 DUP3 ADD MSTORE PUSH1 0x13 PUSH1 0x24 DUP3 ADD MSTORE PUSH19 0x1DDC985C1C195C8BD89D5C9B8B59985A5B1959 PUSH1 0x6A SHL PUSH1 0x44 DUP3 ADD MSTORE PUSH1 0x64 ADD PUSH2 0x5F5 JUMP JUMPDEST PUSH0 PUSH2 0x2710 PUSH1 0xA SLOAD DUP8 PUSH2 0xBA8 SWAP2 SWAP1 PUSH2 0x1A0B JUMP JUMPDEST PUSH2 0xBB2 SWAP2 SWAP1 PUSH2 0x1A22 JUMP JUMPDEST SWAP1 POP PUSH0 PUSH2 0xBBF DUP3 DUP9 PUSH2 0x19F8 JUMP JUMPDEST SWAP1 POP PUSH1 0x8 PUSH0 DUP2 SLOAD PUSH2 0xBCF SWAP1 PUSH2 0x1A41 JUMP JUMPDEST SWAP2 SWAP1 POP DUP2 SWAP1 SSTORE POP PUSH1 0x6 PUSH0 SWAP1 SLOAD SWAP1 PUSH2 0x100 EXP SWAP1 DIV PUSH1 0x1 PUSH1 0x1 PUSH1 0xA0 SHL SUB AND PUSH1 0x1 PUSH1 0x1 PUSH1 0xA0 SHL SUB AND PUSH4 0xC5803100 CALLVALUE DUP9 PUSH1 0x7 PUSH0 DUP12 PUSH2 0xFFFF AND PUSH2 0xFFFF AND DUP2 MSTORE PUSH1 0x20 ADD SWAP1 DUP2 MSTORE PUSH1 0x20 ADD PUSH0 KECCAK256 DUP13 DUP7 PUSH1 0x8 SLOAD PUSH1 0x40 MLOAD PUSH1 0x20 ADD PUSH2 0xC2B SWAP4 SWAP3 SWAP2 SWAP1 PUSH2 0x1A59 JUMP JUMPDEST PUSH1 0x40 MLOAD PUSH1 0x20 DUP2 DUP4 SUB SUB DUP2 MSTORE SWAP1 PUSH1 0x40 MSTORE CALLER PUSH0 DUP13 PUSH1 0x40 MLOAD DUP9 PUSH4 0xFFFFFFFF AND PUSH1 0xE0 SHL DUP2 MSTORE PUSH1 0x4 ADD PUSH2 0xC5E SWAP7 SWAP6 SWAP5 SWAP4 SWAP3 SWAP2 SWAP1 PUSH2 0x1A7A JUMP JUMPDEST PUSH0 PUSH1 0x40 MLOAD DUP1 DUP4 SUB DUP2 DUP6 DUP9 DUP1 EXTCODESIZE ISZERO DUP1 ISZERO PUSH2 0xC75 JUMPI PUSH0 DUP1 REVERT JUMPDEST POP GAS CALL ISZERO DUP1 ISZERO PUSH2 0xC87 JUMPI RETURNDATASIZE PUSH0 DUP1 RETURNDATACOPY RETURNDATASIZE PUSH0 REVERT JUMPDEST POP POP PUSH1 0x8 SLOAD PUSH1 0x40 DUP1 MLOAD PUSH2 0xFFFF PUSH32 0x0 DUP2 AND DUP3 MSTORE DUP13 AND PUSH1 0x20 DUP3 ADD MSTORE SWAP1 DUP2 ADD SWAP2 SWAP1 SWAP2 MSTORE PUSH1 0x60 DUP2 ADD DUP6 SWAP1 MSTORE PUSH1 0x80 DUP2 ADD DUP7 SWAP1 MSTORE PUSH1 0x1 PUSH1 0x1 PUSH1 0xA0 SHL SUB DUP13 AND SWAP4 POP PUSH32 0xBD36451AB3B0E9FE414DEA95544D2A3D68944D949C8AF5B4A2BDFA0F269B02F0 SWAP3 POP PUSH1 0xA0 ADD SWAP1 POP PUSH1 0x40 MLOAD DUP1 SWAP2 SUB SWAP1 LOG2 POP POP POP POP POP POP POP POP JUMP JUMPDEST PUSH2 0xD22 PUSH2 0x1082 JUMP JUMPDEST PUSH2 0xD2B PUSH0 PUSH2 0x11BA JUMP JUMPDEST JUMP JUMPDEST PUSH1 0x60 PUSH1 0x4 DUP1 SLOAD PUSH2 0x895 SWAP1 PUSH2 0x18AB JUMP JUMPDEST PUSH2 0xD44 PUSH2 0x1082 JUMP JUMPDEST PUSH1 0x6 DUP1 SLOAD PUSH1 0x1 PUSH1 0x1 PUSH1 0xA0 SHL SUB DUP4 DUP2 AND PUSH1 0x1 PUSH1 0x1 PUSH1 0xA0 SHL SUB NOT DUP4 AND DUP2 OR SWAP1 SWAP4 SSTORE PUSH1 0x40 MLOAD SWAP2 AND SWAP2 SWAP1 DUP3 SWAP1 PUSH32 0x241827194635B544BCEB965D0E124305C0968051403AE83CB99D1EF86BD65F58 SWAP1 PUSH0 SWAP1 LOG3 POP POP JUMP JUMPDEST PUSH0 CALLER PUSH2 0x98B DUP2 DUP6 DUP6 PUSH2 0x1129 JUMP JUMPDEST PUSH1 0x7 PUSH1 0x20 MSTORE PUSH0 SWAP1 DUP2 MSTORE PUSH1 0x40 SWAP1 KECCAK256 DUP1 SLOAD PUSH2 0xDBA SWAP1 PUSH2 0x18AB JUMP JUMPDEST DUP1 PUSH1 0x1F ADD PUSH1 0x20 DUP1 SWAP2 DIV MUL PUSH1 0x20 ADD PUSH1 0x40 MLOAD SWAP1 DUP2 ADD PUSH1 0x40 MSTORE DUP1 SWAP3 SWAP2 SWAP1 DUP2 DUP2 MSTORE PUSH1 0x20 ADD DUP3 DUP1 SLOAD PUSH2 0xDE6 SWAP1 PUSH2 0x18AB JUMP JUMPDEST DUP1 ISZERO PUSH2 0xE31 JUMPI DUP1 PUSH1 0x1F LT PUSH2 0xE08 JUMPI PUSH2 0x100 DUP1 DUP4 SLOAD DIV MUL DUP4 MSTORE SWAP2 PUSH1 0x20 ADD SWAP2 PUSH2 0xE31 JUMP JUMPDEST DUP3 ADD SWAP2 SWAP1 PUSH0 MSTORE PUSH1 0x20 PUSH0 KECCAK256 SWAP1 JUMPDEST DUP2 SLOAD DUP2 MSTORE SWAP1 PUSH1 0x1 ADD SWAP1 PUSH1 0x20 ADD DUP1 DUP4 GT PUSH2 0xE14 JUMPI DUP3 SWAP1 SUB PUSH1 0x1F AND DUP3 ADD SWAP2 JUMPDEST POP POP POP POP POP DUP2 JUMP JUMPDEST PUSH2 0xE41 PUSH2 0x1082 JUMP JUMPDEST PUSH1 0x6 SLOAD PUSH1 0x40 MLOAD PUSH4 0x32FB62E7 PUSH1 0xE2 SHL DUP2 MSTORE PUSH1 0x1 PUSH1 0x1 PUSH1 0xA0 SHL SUB SWAP1 SWAP2 AND SWAP1 PUSH4 0xCBED8B9C SWAP1 PUSH2 0xE79 SWAP1 DUP9 SWAP1 DUP9 SWAP1 DUP9 SWAP1 DUP9 SWAP1 DUP9 SWAP1 PUSH1 0x4 ADD PUSH2 0x1B5E JUMP JUMPDEST PUSH0 PUSH1 0x40 MLOAD DUP1 DUP4 SUB DUP2 PUSH0 DUP8 DUP1 EXTCODESIZE ISZERO DUP1 ISZERO PUSH2 0xE90 JUMPI PUSH0 DUP1 REVERT JUMPDEST POP GAS CALL ISZERO DUP1 ISZERO PUSH2 0xEA2 JUMPI RETURNDATASIZE PUSH0 DUP1 RETURNDATACOPY RETURNDATASIZE PUSH0 REVERT JUMPDEST POP POP POP POP POP POP POP POP POP JUMP JUMPDEST PUSH2 0xEB5 PUSH2 0x1082 JUMP JUMPDEST PUSH1 0xA DUP1 SLOAD SWAP1 DUP3 SWAP1 SSTORE PUSH1 0x40 DUP1 MLOAD DUP3 DUP2 MSTORE PUSH1 0x20 DUP2 ADD DUP5 SWAP1 MSTORE PUSH32 0x940334A9F5C76529AD9447AC490C2073B06D880209383A3D3E4B0ECAB72A0D99 SWAP2 ADD PUSH1 0x40 MLOAD DUP1 SWAP2 SUB SWAP1 LOG1 POP POP JUMP JUMPDEST PUSH0 DUP1 DUP6 DUP6 PUSH1 0x8 SLOAD PUSH1 0x40 MLOAD PUSH1 0x20 ADD PUSH2 0xF13 SWAP4 SWAP3 SWAP2 SWAP1 PUSH2 0x1A59 JUMP JUMPDEST PUSH1 0x40 DUP1 MLOAD PUSH1 0x1F NOT DUP2 DUP5 SUB ADD DUP2 MSTORE SWAP1 DUP3 SWAP1 MSTORE PUSH1 0x6 SLOAD PUSH4 0x40A7BB1 PUSH1 0xE4 SHL DUP4 MSTORE SWAP1 SWAP3 POP PUSH0 SWAP2 PUSH1 0x1 PUSH1 0x1 PUSH1 0xA0 SHL SUB SWAP1 SWAP2 AND SWAP1 PUSH4 0x40A7BB10 SWAP1 PUSH2 0xF5E SWAP1 DUP9 SWAP1 ADDRESS SWAP1 DUP8 SWAP1 DUP8 SWAP1 DUP12 SWAP1 PUSH1 0x4 ADD PUSH2 0x1B96 JUMP JUMPDEST PUSH1 0x40 DUP1 MLOAD DUP1 DUP4 SUB DUP2 DUP7 GAS STATICCALL ISZERO DUP1 ISZERO PUSH2 0xF78 JUMPI RETURNDATASIZE PUSH0 DUP1 RETURNDATACOPY RETURNDATASIZE PUSH0 REVERT JUMPDEST POP POP POP POP PUSH1 0x40 MLOAD RETURNDATASIZE PUSH1 0x1F NOT PUSH1 0x1F DUP3 ADD AND DUP3 ADD DUP1 PUSH1 0x40 MSTORE POP DUP2 ADD SWAP1 PUSH2 0xF9C SWAP2 SWAP1 PUSH2 0x1BE9 JUMP JUMPDEST POP SWAP8 SWAP7 POP POP POP POP POP POP POP JUMP JUMPDEST PUSH2 0xFB0 PUSH2 0x1082 JUMP JUMPDEST PUSH2 0xFFFF DUP3 AND PUSH0 SWAP1 DUP2 MSTORE PUSH1 0x7 PUSH1 0x20 MSTORE PUSH1 0x40 SWAP1 KECCAK256 PUSH2 0xFCC DUP3 DUP3 PUSH2 0x1C4F JUMP JUMPDEST POP DUP2 PUSH2 0xFFFF AND PUSH32 0x35450A645FC8B8DCB5150AD335B4577EB182AB7E57024B8777EED53677A9FC9D DUP3 PUSH1 0x40 MLOAD PUSH2 0x1001 SWAP2 SWAP1 PUSH2 0x1533 JUMP JUMPDEST PUSH1 0x40 MLOAD DUP1 SWAP2 SUB SWAP1 LOG2 POP POP JUMP JUMPDEST PUSH2 0x1015 PUSH2 0x1082 JUMP JUMPDEST PUSH1 0x1 PUSH1 0x1 PUSH1 0xA0 SHL SUB DUP2 AND PUSH2 0x103E JUMPI PUSH1 0x40 MLOAD PUSH4 0x1E4FBDF7 PUSH1 0xE0 SHL DUP2 MSTORE PUSH0 PUSH1 0x4 DUP3 ADD MSTORE PUSH1 0x24 ADD PUSH2 0x5F5 JUMP JUMPDEST PUSH2 0x1047 DUP2 PUSH2 0x11BA JUMP JUMPDEST POP JUMP JUMPDEST PUSH1 0x1 PUSH1 0x1 PUSH1 0xA0 SHL SUB DUP3 AND PUSH2 0x1073 JUMPI PUSH1 0x40 MLOAD PUSH4 0xEC442F05 PUSH1 0xE0 SHL DUP2 MSTORE PUSH0 PUSH1 0x4 DUP3 ADD MSTORE PUSH1 0x24 ADD PUSH2 0x5F5 JUMP JUMPDEST PUSH2 0x107E PUSH0 DUP4 DUP4 PUSH2 0x120B JUMP JUMPDEST POP POP JUMP JUMPDEST PUSH1 0x5 SLOAD PUSH1 0x1 PUSH1 0x1 PUSH1 0xA0 SHL SUB AND CALLER EQ PUSH2 0xD2B JUMPI PUSH1 0x40 MLOAD PUSH4 0x118CDAA7 PUSH1 0xE0 SHL DUP2 MSTORE CALLER PUSH1 0x4 DUP3 ADD MSTORE PUSH1 0x24 ADD PUSH2 0x5F5 JUMP JUMPDEST PUSH2 0x10BC DUP4 DUP4 DUP4 PUSH1 0x1 PUSH2 0x131E JUMP JUMPDEST POP POP POP JUMP JUMPDEST PUSH1 0x1 PUSH1 0x1 PUSH1 0xA0 SHL SUB DUP4 DUP2 AND PUSH0 SWAP1 DUP2 MSTORE PUSH1 0x1 PUSH1 0x20 SWAP1 DUP2 MSTORE PUSH1 0x40 DUP1 DUP4 KECCAK256 SWAP4 DUP7 AND DUP4 MSTORE SWAP3 SWAP1 MSTORE KECCAK256 SLOAD PUSH0 NOT DUP2 EQ PUSH2 0x1123 JUMPI DUP2 DUP2 LT ISZERO PUSH2 0x1115 JUMPI DUP3 DUP2 DUP4 PUSH1 0x40 MLOAD PUSH4 0x7DC7A0D9 PUSH1 0xE1 SHL DUP2 MSTORE PUSH1 0x4 ADD PUSH2 0x5F5 SWAP4 SWAP3 SWAP2 SWAP1 PUSH2 0x1A59 JUMP JUMPDEST PUSH2 0x1123 DUP5 DUP5 DUP5 DUP5 SUB PUSH0 PUSH2 0x131E JUMP JUMPDEST POP POP POP POP JUMP JUMPDEST PUSH1 0x1 PUSH1 0x1 PUSH1 0xA0 SHL SUB DUP4 AND PUSH2 0x1152 JUMPI PUSH1 0x40 MLOAD PUSH4 0x4B637E8F PUSH1 0xE1 SHL DUP2 MSTORE PUSH0 PUSH1 0x4 DUP3 ADD MSTORE PUSH1 0x24 ADD PUSH2 0x5F5 JUMP JUMPDEST PUSH1 0x1 PUSH1 0x1 PUSH1 0xA0 SHL SUB DUP3 AND PUSH2 0x117B JUMPI PUSH1 0x40 MLOAD PUSH4 0xEC442F05 PUSH1 0xE0 SHL DUP2 MSTORE PUSH0 PUSH1 0x4 DUP3 ADD MSTORE PUSH1 0x24 ADD PUSH2 0x5F5 JUMP JUMPDEST PUSH2 0x10BC DUP4 DUP4 DUP4 PUSH2 0x120B JUMP JUMPDEST PUSH1 0x1 PUSH1 0x1 PUSH1 0xA0 SHL SUB DUP3 AND PUSH2 0x11AF JUMPI PUSH1 0x40 MLOAD PUSH4 0x4B637E8F PUSH1 0xE1 SHL DUP2 MSTORE PUSH0 PUSH1 0x4 DUP3 ADD MSTORE PUSH1 0x24 ADD PUSH2 0x5F5 JUMP JUMPDEST PUSH2 0x107E DUP3 PUSH0 DUP4 PUSH2 0x120B JUMP JUMPDEST PUSH1 0x5 DUP1 SLOAD PUSH1 0x1 PUSH1 0x1 PUSH1 0xA0 SHL SUB DUP4 DUP2 AND PUSH1 0x1 PUSH1 0x1 PUSH1 0xA0 SHL SUB NOT DUP4 AND DUP2 OR SWAP1 SWAP4 SSTORE PUSH1 0x40 MLOAD SWAP2 AND SWAP2 SWAP1 DUP3 SWAP1 PUSH32 0x8BE0079C531659141344CD1FD0A4F28419497F9722A3DAAFE3B4186F6B6457E0 SWAP1 PUSH0 SWAP1 LOG3 POP POP JUMP JUMPDEST PUSH1 0x1 PUSH1 0x1 PUSH1 0xA0 SHL SUB DUP4 AND PUSH2 0x1235 JUMPI DUP1 PUSH1 0x2 PUSH0 DUP3 DUP3 SLOAD PUSH2 0x122A SWAP2 SWAP1 PUSH2 0x1D0F JUMP JUMPDEST SWAP1 SWAP2 SSTORE POP PUSH2 0x1292 SWAP1 POP JUMP JUMPDEST PUSH1 0x1 PUSH1 0x1 PUSH1 0xA0 SHL SUB DUP4 AND PUSH0 SWAP1 DUP2 MSTORE PUSH1 0x20 DUP2 SWAP1 MSTORE PUSH1 0x40 SWAP1 KECCAK256 SLOAD DUP2 DUP2 LT ISZERO PUSH2 0x1274 JUMPI DUP4 DUP2 DUP4 PUSH1 0x40 MLOAD PUSH4 0x391434E3 PUSH1 0xE2 SHL DUP2 MSTORE PUSH1 0x4 ADD PUSH2 0x5F5 SWAP4 SWAP3 SWAP2 SWAP1 PUSH2 0x1A59 JUMP JUMPDEST PUSH1 0x1 PUSH1 0x1 PUSH1 0xA0 SHL SUB DUP5 AND PUSH0 SWAP1 DUP2 MSTORE PUSH1 0x20 DUP2 SWAP1 MSTORE PUSH1 0x40 SWAP1 KECCAK256 SWAP1 DUP3 SWAP1 SUB SWAP1 SSTORE JUMPDEST PUSH1 0x1 PUSH1 0x1 PUSH1 0xA0 SHL SUB DUP3 AND PUSH2 0x12AE JUMPI PUSH1 0x2 DUP1 SLOAD DUP3 SWAP1 SUB SWAP1 SSTORE PUSH2 0x12CC JUMP JUMPDEST PUSH1 0x1 PUSH1 0x1 PUSH1 0xA0 SHL SUB DUP3 AND PUSH0 SWAP1 DUP2 MSTORE PUSH1 0x20 DUP2 SWAP1 MSTORE PUSH1 0x40 SWAP1 KECCAK256 DUP1 SLOAD DUP3 ADD SWAP1 SSTORE JUMPDEST DUP2 PUSH1 0x1 PUSH1 0x1 PUSH1 0xA0 SHL SUB AND DUP4 PUSH1 0x1 PUSH1 0x1 PUSH1 0xA0 SHL SUB AND PUSH32 0xDDF252AD1BE2C89B69C2B068FC378DAA952BA7F163C4A11628F55A4DF523B3EF DUP4 PUSH1 0x40 MLOAD PUSH2 0x1311 SWAP2 DUP2 MSTORE PUSH1 0x20 ADD SWAP1 JUMP JUMPDEST PUSH1 0x40 MLOAD DUP1 SWAP2 SUB SWAP1 LOG3 POP POP POP JUMP JUMPDEST PUSH1 0x1 PUSH1 0x1 PUSH1 0xA0 SHL SUB DUP5 AND PUSH2 0x1347 JUMPI PUSH1 0x40 MLOAD PUSH4 0xE602DF05 PUSH1 0xE0 SHL DUP2 MSTORE PUSH0 PUSH1 0x4 DUP3 ADD MSTORE PUSH1 0x24 ADD PUSH2 0x5F5 JUMP JUMPDEST PUSH1 0x1 PUSH1 0x1 PUSH1 0xA0 SHL SUB DUP4 AND PUSH2 0x1370 JUMPI PUSH1 0x40 MLOAD PUSH4 0x4A1406B1 PUSH1 0xE1 SHL DUP2 MSTORE PUSH0 PUSH1 0x4 DUP3 ADD MSTORE PUSH1 0x24 ADD PUSH2 0x5F5 JUMP JUMPDEST PUSH1 0x1 PUSH1 0x1 PUSH1 0xA0 SHL SUB DUP1 DUP6 AND PUSH0 SWAP1 DUP2 MSTORE PUSH1 0x1 PUSH1 0x20 SWAP1 DUP2 MSTORE PUSH1 0x40 DUP1 DUP4 KECCAK256 SWAP4 DUP8 AND DUP4 MSTORE SWAP3 SWAP1 MSTORE KECCAK256 DUP3 SWAP1 SSTORE DUP1 ISZERO PUSH2 0x1123 JUMPI DUP3 PUSH1 0x1 PUSH1 0x1 PUSH1 0xA0 SHL SUB AND DUP5 PUSH1 0x1 PUSH1 0x1 PUSH1 0xA0 SHL SUB AND PUSH32 0x8C5BE1E5EBEC7D5BD14F71427D1E84F3DD0314C0F7B2291E5B200AC8C7C3B925 DUP5 PUSH1 0x40 MLOAD PUSH2 0x13E2 SWAP2 DUP2 MSTORE PUSH1 0x20 ADD SWAP1 JUMP JUMPDEST PUSH1 0x40 MLOAD DUP1 SWAP2 SUB SWAP1 LOG3 POP POP POP POP JUMP JUMPDEST DUP1 CALLDATALOAD PUSH2 0xFFFF DUP2 AND DUP2 EQ PUSH2 0x1401 JUMPI PUSH0 DUP1 REVERT JUMPDEST SWAP2 SWAP1 POP JUMP JUMPDEST PUSH0 DUP1 DUP4 PUSH1 0x1F DUP5 ADD SLT PUSH2 0x1416 JUMPI PUSH0 DUP1 REVERT JUMPDEST POP DUP2 CALLDATALOAD PUSH8 0xFFFFFFFFFFFFFFFF DUP2 GT ISZERO PUSH2 0x142D JUMPI PUSH0 DUP1 REVERT JUMPDEST PUSH1 0x20 DUP4 ADD SWAP2 POP DUP4 PUSH1 0x20 DUP3 DUP6 ADD ADD GT ISZERO PUSH2 0x1444 JUMPI PUSH0 DUP1 REVERT JUMPDEST SWAP3 POP SWAP3 SWAP1 POP JUMP JUMPDEST DUP1 CALLDATALOAD PUSH8 0xFFFFFFFFFFFFFFFF DUP2 AND DUP2 EQ PUSH2 0x1401 JUMPI PUSH0 DUP1 REVERT JUMPDEST PUSH0 DUP1 PUSH0 DUP1 PUSH0 DUP1 PUSH1 0x80 DUP8 DUP10 SUB SLT ISZERO PUSH2 0x1477 JUMPI PUSH0 DUP1 REVERT JUMPDEST PUSH2 0x1480 DUP8 PUSH2 0x13F0 JUMP JUMPDEST SWAP6 POP PUSH1 0x20 DUP8 ADD CALLDATALOAD PUSH8 0xFFFFFFFFFFFFFFFF DUP1 DUP3 GT ISZERO PUSH2 0x149C JUMPI PUSH0 DUP1 REVERT JUMPDEST PUSH2 0x14A8 DUP11 DUP4 DUP12 ADD PUSH2 0x1406 JUMP JUMPDEST SWAP1 SWAP8 POP SWAP6 POP DUP6 SWAP2 POP PUSH2 0x14BC PUSH1 0x40 DUP11 ADD PUSH2 0x144B JUMP JUMPDEST SWAP5 POP PUSH1 0x60 DUP10 ADD CALLDATALOAD SWAP2 POP DUP1 DUP3 GT ISZERO PUSH2 0x14D1 JUMPI PUSH0 DUP1 REVERT JUMPDEST POP PUSH2 0x14DE DUP10 DUP3 DUP11 ADD PUSH2 0x1406 JUMP JUMPDEST SWAP8 SWAP11 SWAP7 SWAP10 POP SWAP5 SWAP8 POP SWAP3 SWAP6 SWAP4 SWAP5 SWAP3 POP POP POP JUMP JUMPDEST PUSH0 DUP2 MLOAD DUP1 DUP5 MSTORE PUSH0 JUMPDEST DUP2 DUP2 LT ISZERO PUSH2 0x1514 JUMPI PUSH1 0x20 DUP2 DUP6 ADD DUP2 ADD MLOAD DUP7 DUP4 ADD DUP3 ADD MSTORE ADD PUSH2 0x14F8 JUMP JUMPDEST POP PUSH0 PUSH1 0x20 DUP3 DUP7 ADD ADD MSTORE PUSH1 0x20 PUSH1 0x1F NOT PUSH1 0x1F DUP4 ADD AND DUP6 ADD ADD SWAP2 POP POP SWAP3 SWAP2 POP POP JUMP JUMPDEST PUSH1 0x20 DUP2 MSTORE PUSH0 PUSH2 0x1545 PUSH1 0x20 DUP4 ADD DUP5 PUSH2 0x14F0 JUMP JUMPDEST SWAP4 SWAP3 POP POP POP JUMP JUMPDEST PUSH0 PUSH1 0x20 DUP3 DUP5 SUB SLT ISZERO PUSH2 0x155C JUMPI PUSH0 DUP1 REVERT JUMPDEST PUSH2 0x1545 DUP3 PUSH2 0x13F0 JUMP JUMPDEST PUSH1 0x1 PUSH1 0x1 PUSH1 0xA0 SHL SUB DUP2 AND DUP2 EQ PUSH2 0x1047 JUMPI PUSH0 DUP1 REVERT JUMPDEST PUSH0 DUP1 PUSH1 0x40 DUP4 DUP6 SUB SLT ISZERO PUSH2 0x158A JUMPI PUSH0 DUP1 REVERT JUMPDEST DUP3 CALLDATALOAD PUSH2 0x1595 DUP2 PUSH2 0x1565 JUMP JUMPDEST SWAP5 PUSH1 0x20 SWAP4 SWAP1 SWAP4 ADD CALLDATALOAD SWAP4 POP POP POP JUMP JUMPDEST PUSH0 DUP1 PUSH0 PUSH1 0x60 DUP5 DUP7 SUB SLT ISZERO PUSH2 0x15B5 JUMPI PUSH0 DUP1 REVERT JUMPDEST DUP4 CALLDATALOAD PUSH2 0x15C0 DUP2 PUSH2 0x1565 JUMP JUMPDEST SWAP3 POP PUSH1 0x20 DUP5 ADD CALLDATALOAD PUSH2 0x15D0 DUP2 PUSH2 0x1565 JUMP JUMPDEST SWAP3 SWAP6 SWAP3 SWAP5 POP POP POP PUSH1 0x40 SWAP2 SWAP1 SWAP2 ADD CALLDATALOAD SWAP1 JUMP JUMPDEST PUSH0 DUP1 PUSH0 PUSH1 0x40 DUP5 DUP7 SUB SLT ISZERO PUSH2 0x15F3 JUMPI PUSH0 DUP1 REVERT JUMPDEST PUSH2 0x15FC DUP5 PUSH2 0x13F0 JUMP JUMPDEST SWAP3 POP PUSH1 0x20 DUP5 ADD CALLDATALOAD PUSH8 0xFFFFFFFFFFFFFFFF DUP2 GT ISZERO PUSH2 0x1617 JUMPI PUSH0 DUP1 REVERT JUMPDEST PUSH2 0x1623 DUP7 DUP3 DUP8 ADD PUSH2 0x1406 JUMP JUMPDEST SWAP5 SWAP8 SWAP1 SWAP7 POP SWAP4 SWAP5 POP POP POP POP JUMP JUMPDEST PUSH4 0x4E487B71 PUSH1 0xE0 SHL PUSH0 MSTORE PUSH1 0x41 PUSH1 0x4 MSTORE PUSH1 0x24 PUSH0 REVERT JUMPDEST PUSH0 DUP3 PUSH1 0x1F DUP4 ADD SLT PUSH2 0x1653 JUMPI PUSH0 DUP1 REVERT JUMPDEST DUP2 CALLDATALOAD PUSH8 0xFFFFFFFFFFFFFFFF DUP1 DUP3 GT ISZERO PUSH2 0x166E JUMPI PUSH2 0x166E PUSH2 0x1630 JUMP JUMPDEST PUSH1 0x40 MLOAD PUSH1 0x1F DUP4 ADD PUSH1 0x1F NOT SWAP1 DUP2 AND PUSH1 0x3F ADD AND DUP2 ADD SWAP1 DUP3 DUP3 GT DUP2 DUP4 LT OR ISZERO PUSH2 0x1696 JUMPI PUSH2 0x1696 PUSH2 0x1630 JUMP JUMPDEST DUP2 PUSH1 0x40 MSTORE DUP4 DUP2 MSTORE DUP7 PUSH1 0x20 DUP6 DUP9 ADD ADD GT ISZERO PUSH2 0x16AE JUMPI PUSH0 DUP1 REVERT JUMPDEST DUP4 PUSH1 0x20 DUP8 ADD PUSH1 0x20 DUP4 ADD CALLDATACOPY PUSH0 PUSH1 0x20 DUP6 DUP4 ADD ADD MSTORE DUP1 SWAP5 POP POP POP POP POP SWAP3 SWAP2 POP POP JUMP JUMPDEST PUSH0 DUP1 PUSH0 DUP1 PUSH1 0x80 DUP6 DUP8 SUB SLT ISZERO PUSH2 0x16E0 JUMPI PUSH0 DUP1 REVERT JUMPDEST DUP5 CALLDATALOAD PUSH2 0x16EB DUP2 PUSH2 0x1565 JUMP JUMPDEST SWAP4 POP PUSH1 0x20 DUP6 ADD CALLDATALOAD SWAP3 POP PUSH2 0x1700 PUSH1 0x40 DUP7 ADD PUSH2 0x13F0 JUMP JUMPDEST SWAP2 POP PUSH1 0x60 DUP6 ADD CALLDATALOAD PUSH8 0xFFFFFFFFFFFFFFFF DUP2 GT ISZERO PUSH2 0x171B JUMPI PUSH0 DUP1 REVERT JUMPDEST PUSH2 0x1727 DUP8 DUP3 DUP9 ADD PUSH2 0x1644 JUMP JUMPDEST SWAP2 POP POP SWAP3 SWAP6 SWAP2 SWAP5 POP SWAP3 POP JUMP JUMPDEST PUSH0 PUSH1 0x20 DUP3 DUP5 SUB SLT ISZERO PUSH2 0x1743 JUMPI PUSH0 DUP1 REVERT JUMPDEST DUP2 CALLDATALOAD PUSH2 0x1545 DUP2 PUSH2 0x1565 JUMP JUMPDEST PUSH0 DUP1 PUSH0 DUP1 PUSH0 PUSH1 0x80 DUP7 DUP9 SUB SLT ISZERO PUSH2 0x1762 JUMPI PUSH0 DUP1 REVERT JUMPDEST PUSH2 0x176B DUP7 PUSH2 0x13F0 JUMP JUMPDEST SWAP5 POP PUSH2 0x1779 PUSH1 0x20 DUP8 ADD PUSH2 0x13F0 JUMP JUMPDEST SWAP4 POP PUSH1 0x40 DUP7 ADD CALLDATALOAD SWAP3 POP PUSH1 0x60 DUP7 ADD CALLDATALOAD PUSH8 0xFFFFFFFFFFFFFFFF DUP2 GT ISZERO PUSH2 0x179B JUMPI PUSH0 DUP1 REVERT JUMPDEST PUSH2 0x17A7 DUP9 DUP3 DUP10 ADD PUSH2 0x1406 JUMP JUMPDEST SWAP7 SWAP10 SWAP6 SWAP9 POP SWAP4 SWAP7 POP SWAP3 SWAP5 SWAP4 SWAP3 POP POP POP JUMP JUMPDEST PUSH0 PUSH1 0x20 DUP3 DUP5 SUB SLT ISZERO PUSH2 0x17C8 JUMPI PUSH0 DUP1 REVERT JUMPDEST POP CALLDATALOAD SWAP2 SWAP1 POP JUMP JUMPDEST PUSH0 DUP1 PUSH1 0x40 DUP4 DUP6 SUB SLT ISZERO PUSH2 0x17E0 JUMPI PUSH0 DUP1 REVERT JUMPDEST DUP3 CALLDATALOAD PUSH2 0x17EB DUP2 PUSH2 0x1565 JUMP JUMPDEST SWAP2 POP PUSH1 0x20 DUP4 ADD CALLDATALOAD PUSH2 0x17FB DUP2 PUSH2 0x1565 JUMP JUMPDEST DUP1 SWAP2 POP POP SWAP3 POP SWAP3 SWAP1 POP JUMP JUMPDEST PUSH0 DUP1 PUSH0 PUSH1 0x60 DUP5 DUP7 SUB SLT ISZERO PUSH2 0x1818 JUMPI PUSH0 DUP1 REVERT JUMPDEST DUP4 CALLDATALOAD PUSH8 0xFFFFFFFFFFFFFFFF DUP2 GT ISZERO PUSH2 0x182E JUMPI PUSH0 DUP1 REVERT JUMPDEST PUSH2 0x183A DUP7 DUP3 DUP8 ADD PUSH2 0x1644 JUMP JUMPDEST SWAP4 POP POP PUSH2 0x1849 PUSH1 0x20 DUP6 ADD PUSH2 0x13F0 JUMP JUMPDEST SWAP2 POP PUSH2 0x1857 PUSH1 0x40 DUP6 ADD PUSH2 0x144B JUMP JUMPDEST SWAP1 POP SWAP3 POP SWAP3 POP SWAP3 JUMP JUMPDEST PUSH0 DUP1 PUSH1 0x40 DUP4 DUP6 SUB SLT ISZERO PUSH2 0x1871 JUMPI PUSH0 DUP1 REVERT JUMPDEST PUSH2 0x187A DUP4 PUSH2 0x13F0 JUMP JUMPDEST SWAP2 POP PUSH1 0x20 DUP4 ADD CALLDATALOAD PUSH8 0xFFFFFFFFFFFFFFFF DUP2 GT ISZERO PUSH2 0x1895 JUMPI PUSH0 DUP1 REVERT JUMPDEST PUSH2 0x18A1 DUP6 DUP3 DUP7 ADD PUSH2 0x1644 JUMP JUMPDEST SWAP2 POP POP SWAP3 POP SWAP3 SWAP1 POP JUMP JUMPDEST PUSH1 0x1 DUP2 DUP2 SHR SWAP1 DUP3 AND DUP1 PUSH2 0x18BF JUMPI PUSH1 0x7F DUP3 AND SWAP2 POP JUMPDEST PUSH1 0x20 DUP3 LT DUP2 SUB PUSH2 0x18DD JUMPI PUSH4 0x4E487B71 PUSH1 0xE0 SHL PUSH0 MSTORE PUSH1 0x22 PUSH1 0x4 MSTORE PUSH1 0x24 PUSH0 REVERT JUMPDEST POP SWAP2 SWAP1 POP JUMP JUMPDEST PUSH0 DUP1 DUP4 SLOAD PUSH2 0x18F0 DUP2 PUSH2 0x18AB JUMP JUMPDEST PUSH1 0x1 DUP3 DUP2 AND DUP1 ISZERO PUSH2 0x1908 JUMPI PUSH1 0x1 DUP2 EQ PUSH2 0x191D JUMPI PUSH2 0x1949 JUMP JUMPDEST PUSH1 0xFF NOT DUP5 AND DUP8 MSTORE DUP3 ISZERO ISZERO DUP4 MUL DUP8 ADD SWAP5 POP PUSH2 0x1949 JUMP JUMPDEST DUP8 PUSH0 MSTORE PUSH1 0x20 DUP1 PUSH0 KECCAK256 PUSH0 JUMPDEST DUP6 DUP2 LT ISZERO PUSH2 0x1940 JUMPI DUP2 SLOAD DUP11 DUP3 ADD MSTORE SWAP1 DUP5 ADD SWAP1 DUP3 ADD PUSH2 0x1927 JUMP JUMPDEST POP POP POP DUP3 DUP8 ADD SWAP5 POP JUMPDEST POP SWAP3 SWAP7 SWAP6 POP POP POP POP POP POP JUMP JUMPDEST DUP2 DUP4 DUP3 CALLDATACOPY PUSH0 SWAP2 ADD SWAP1 DUP2 MSTORE SWAP2 SWAP1 POP JUMP JUMPDEST PUSH0 DUP1 PUSH0 PUSH1 0x60 DUP5 DUP7 SUB SLT ISZERO PUSH2 0x1976 JUMPI PUSH0 DUP1 REVERT JUMPDEST DUP4 CALLDATALOAD PUSH2 0x1981 DUP2 PUSH2 0x1565 JUMP JUMPDEST SWAP6 PUSH1 0x20 DUP6 ADD CALLDATALOAD SWAP6 POP PUSH1 0x40 SWAP1 SWAP5 ADD CALLDATALOAD SWAP4 SWAP3 POP POP POP JUMP JUMPDEST DUP2 DUP4 MSTORE DUP2 DUP2 PUSH1 0x20 DUP6 ADD CALLDATACOPY POP PUSH0 DUP3 DUP3 ADD PUSH1 0x20 SWAP1 DUP2 ADD SWAP2 SWAP1 SWAP2 MSTORE PUSH1 0x1F SWAP1 SWAP2 ADD PUSH1 0x1F NOT AND SWAP1 SWAP2 ADD ADD SWAP1 JUMP JUMPDEST PUSH2 0xFFFF DUP5 AND DUP2 MSTORE PUSH1 0x40 PUSH1 0x20 DUP3 ADD MSTORE PUSH0 PUSH2 0x19DB PUSH1 0x40 DUP4 ADD DUP5 DUP7 PUSH2 0x1996 JUMP JUMPDEST SWAP6 SWAP5 POP POP POP POP POP JUMP JUMPDEST PUSH4 0x4E487B71 PUSH1 0xE0 SHL PUSH0 MSTORE PUSH1 0x11 PUSH1 0x4 MSTORE PUSH1 0x24 PUSH0 REVERT JUMPDEST DUP2 DUP2 SUB DUP2 DUP2 GT ISZERO PUSH2 0x991 JUMPI PUSH2 0x991 PUSH2 0x19E4 JUMP JUMPDEST DUP1 DUP3 MUL DUP2 ISZERO DUP3 DUP3 DIV DUP5 EQ OR PUSH2 0x991 JUMPI PUSH2 0x991 PUSH2 0x19E4 JUMP JUMPDEST PUSH0 DUP3 PUSH2 0x1A3C JUMPI PUSH4 0x4E487B71 PUSH1 0xE0 SHL PUSH0 MSTORE PUSH1 0x12 PUSH1 0x4 MSTORE PUSH1 0x24 PUSH0 REVERT JUMPDEST POP DIV SWAP1 JUMP JUMPDEST PUSH0 PUSH1 0x1 DUP3 ADD PUSH2 0x1A52 JUMPI PUSH2 0x1A52 PUSH2 0x19E4 JUMP JUMPDEST POP PUSH1 0x1 ADD SWAP1 JUMP JUMPDEST PUSH1 0x1 PUSH1 0x1 PUSH1 0xA0 SHL SUB SWAP4 SWAP1 SWAP4 AND DUP4 MSTORE PUSH1 0x20 DUP4 ADD SWAP2 SWAP1 SWAP2 MSTORE PUSH1 0x40 DUP3 ADD MSTORE PUSH1 0x60 ADD SWAP1 JUMP JUMPDEST PUSH2 0xFFFF DUP8 AND DUP2 MSTORE PUSH0 PUSH1 0x20 PUSH1 0xC0 PUSH1 0x20 DUP5 ADD MSTORE PUSH0 DUP9 SLOAD PUSH2 0x1A97 DUP2 PUSH2 0x18AB JUMP JUMPDEST DUP1 PUSH1 0xC0 DUP8 ADD MSTORE PUSH1 0xE0 PUSH1 0x1 DUP1 DUP5 AND PUSH0 DUP2 EQ PUSH2 0x1AB8 JUMPI PUSH1 0x1 DUP2 EQ PUSH2 0x1AD4 JUMPI PUSH2 0x1B01 JUMP JUMPDEST PUSH1 0xFF NOT DUP6 AND PUSH1 0xE0 DUP11 ADD MSTORE PUSH1 0xE0 DUP5 ISZERO ISZERO PUSH1 0x5 SHL DUP11 ADD ADD SWAP6 POP PUSH2 0x1B01 JUMP JUMPDEST DUP14 PUSH0 MSTORE PUSH1 0x20 PUSH0 KECCAK256 PUSH0 JUMPDEST DUP6 DUP2 LT ISZERO PUSH2 0x1AF8 JUMPI DUP2 SLOAD DUP12 DUP3 ADD DUP7 ADD MSTORE SWAP1 DUP4 ADD SWAP1 DUP9 ADD PUSH2 0x1ADD JUMP JUMPDEST DUP11 ADD PUSH1 0xE0 ADD SWAP7 POP POP JUMPDEST POP POP POP POP POP DUP4 DUP2 SUB PUSH1 0x40 DUP6 ADD MSTORE PUSH2 0x1B18 DUP2 DUP10 PUSH2 0x14F0 JUMP JUMPDEST SWAP2 POP POP PUSH2 0x1B30 PUSH1 0x60 DUP5 ADD DUP8 PUSH1 0x1 PUSH1 0x1 PUSH1 0xA0 SHL SUB AND SWAP1 MSTORE JUMP JUMPDEST PUSH1 0x1 PUSH1 0x1 PUSH1 0xA0 SHL SUB DUP6 AND PUSH1 0x80 DUP5 ADD MSTORE DUP3 DUP2 SUB PUSH1 0xA0 DUP5 ADD MSTORE PUSH2 0x1B51 DUP2 DUP6 PUSH2 0x14F0 JUMP JUMPDEST SWAP10 SWAP9 POP POP POP POP POP POP POP POP POP JUMP JUMPDEST PUSH0 PUSH2 0xFFFF DUP1 DUP9 AND DUP4 MSTORE DUP1 DUP8 AND PUSH1 0x20 DUP5 ADD MSTORE POP DUP5 PUSH1 0x40 DUP4 ADD MSTORE PUSH1 0x80 PUSH1 0x60 DUP4 ADD MSTORE PUSH2 0x1B8B PUSH1 0x80 DUP4 ADD DUP5 DUP7 PUSH2 0x1996 JUMP JUMPDEST SWAP8 SWAP7 POP POP POP POP POP POP POP JUMP JUMPDEST PUSH2 0xFFFF DUP7 AND DUP2 MSTORE PUSH1 0x1 PUSH1 0x1 PUSH1 0xA0 SHL SUB DUP6 AND PUSH1 0x20 DUP3 ADD MSTORE PUSH1 0xA0 PUSH1 0x40 DUP3 ADD DUP2 SWAP1 MSTORE PUSH0 SWAP1 PUSH2 0x1BC3 SWAP1 DUP4 ADD DUP7 PUSH2 0x14F0 JUMP JUMPDEST DUP5 ISZERO ISZERO PUSH1 0x60 DUP5 ADD MSTORE DUP3 DUP2 SUB PUSH1 0x80 DUP5 ADD MSTORE PUSH2 0x1BDD DUP2 DUP6 PUSH2 0x14F0 JUMP JUMPDEST SWAP9 SWAP8 POP POP POP POP POP POP POP POP JUMP JUMPDEST PUSH0 DUP1 PUSH1 0x40 DUP4 DUP6 SUB SLT ISZERO PUSH2 0x1BFA JUMPI PUSH0 DUP1 REVERT JUMPDEST POP POP DUP1 MLOAD PUSH1 0x20 SWAP1 SWAP2 ADD MLOAD SWAP1 SWAP3 SWAP1 SWAP2 POP JUMP JUMPDEST PUSH1 0x1F DUP3 GT ISZERO PUSH2 0x10BC JUMPI DUP1 PUSH0 MSTORE PUSH1 0x20 PUSH0 KECCAK256 PUSH1 0x1F DUP5 ADD PUSH1 0x5 SHR DUP2 ADD PUSH1 0x20 DUP6 LT ISZERO PUSH2 0x1C30 JUMPI POP DUP1 JUMPDEST PUSH1 0x1F DUP5 ADD PUSH1 0x5 SHR DUP3 ADD SWAP2 POP JUMPDEST DUP2 DUP2 LT ISZERO PUSH2 0x977 JUMPI PUSH0 DUP2 SSTORE PUSH1 0x1 ADD PUSH2 0x1C3C JUMP JUMPDEST DUP2 MLOAD PUSH8 0xFFFFFFFFFFFFFFFF DUP2 GT ISZERO PUSH2 0x1C69 JUMPI PUSH2 0x1C69 PUSH2 0x1630 JUMP JUMPDEST PUSH2 0x1C7D DUP2 PUSH2 0x1C77 DUP5 SLOAD PUSH2 0x18AB JUMP JUMPDEST DUP5 PUSH2 0x1C0B JUMP JUMPDEST PUSH1 0x20 DUP1 PUSH1 0x1F DUP4 GT PUSH1 0x1 DUP2 EQ PUSH2 0x1CB0 JUMPI PUSH0 DUP5 ISZERO PUSH2 0x1C99 JUMPI POP DUP6 DUP4 ADD MLOAD JUMPDEST PUSH0 NOT PUSH1 0x3 DUP7 SWAP1 SHL SHR NOT AND PUSH1 0x1 DUP6 SWAP1 SHL OR DUP6 SSTORE PUSH2 0x1D07 JUMP JUMPDEST PUSH0 DUP6 DUP2 MSTORE PUSH1 0x20 DUP2 KECCAK256 PUSH1 0x1F NOT DUP7 AND SWAP2 JUMPDEST DUP3 DUP2 LT ISZERO PUSH2 0x1CDE JUMPI DUP9 DUP7 ADD MLOAD DUP3 SSTORE SWAP5 DUP5 ADD SWAP5 PUSH1 0x1 SWAP1 SWAP2 ADD SWAP1 DUP5 ADD PUSH2 0x1CBF JUMP JUMPDEST POP DUP6 DUP3 LT ISZERO PUSH2 0x1CFB JUMPI DUP8 DUP6 ADD MLOAD PUSH0 NOT PUSH1 0x3 DUP9 SWAP1 SHL PUSH1 0xF8 AND SHR NOT AND DUP2 SSTORE JUMPDEST POP POP PUSH1 0x1 DUP5 PUSH1 0x1 SHL ADD DUP6 SSTORE JUMPDEST POP POP POP POP POP POP JUMP JUMPDEST DUP1 DUP3 ADD DUP1 DUP3 GT ISZERO PUSH2 0x991 JUMPI PUSH2 0x991 PUSH2 0x19E4 JUMP INVALID LOG2 PUSH5 0x6970667358 0x22 SLT KECCAK256 0x4E 0xA9 GASPRICE RETURNDATASIZE 0xB8 ADD 0xDE SELFBALANCE 0xC9 SDIV CALLDATACOPY 0x5C MOD SWAP1 0xDE PUSH7 0xB119174565DAC3 SMOD 0xC9 0xC4 0xCA PUSH16 0xE1AF464564736F6C6343000817003300 "
				},
				"gasEstimates": {
					"creation": {
						"codeDepositCost": "1502400",
						"executionCost": "infinite",
						"totalCost": "infinite"
					},
					"external": {
						"LZ_CHAIN_ID()": "infinite",
						"allowance(address,address)": "infinite",
						"approve(address,uint256)": "24752",
						"balanceOf(address)": "2598",
						"decimals()": "222",
						"endpoint()": "2426",
						"estimateFees(address,uint256,uint16,bytes)": "infinite",
						"forceResumeReceive(uint16,bytes)": "infinite",
						"lzReceive(uint16,bytes,uint64,bytes)": "infinite",
						"name()": "infinite",
						"nonceStatus(bytes,uint16,uint64)": "infinite",
						"owner()": "2376",
						"renounceOwnership()": "infinite",
						"setConfig(uint16,uint16,uint256,bytes)": "infinite",
						"setReceiveVersion(uint16)": "infinite",
						"setSendVersion(uint16)": "infinite",
						"setTransferFees(uint256)": "28003",
						"setTrustedRemote(uint16,bytes)": "infinite",
						"symbol()": "infinite",
						"totalSupply()": "2370",
						"transfer(address,uint256)": "51299",
						"transferFeePercent()": "2384",
						"transferFrom(address,address,uint256)": "infinite",
						"transferOwnership(address)": "infinite",
						"trustedRemote(uint16)": "infinite",
						"txCounter()": "2405",
						"updateEndpoint(address)": "28330",
						"xChainTransfer(address,uint256,uint16,bytes)": "infinite"
					}
				},
				"methodIdentifiers": {
					"LZ_CHAIN_ID()": "935ec990",
					"allowance(address,address)": "dd62ed3e",
					"approve(address,uint256)": "095ea7b3",
					"balanceOf(address)": "70a08231",
					"decimals()": "313ce567",
					"endpoint()": "5e280f11",
					"estimateFees(address,uint256,uint16,bytes)": "e776ac5e",
					"forceResumeReceive(uint16,bytes)": "42d65a8d",
					"lzReceive(uint16,bytes,uint64,bytes)": "001d3567",
					"name()": "06fdde03",
					"nonceStatus(bytes,uint16,uint64)": "e38c6802",
					"owner()": "8da5cb5b",
					"renounceOwnership()": "715018a6",
					"setConfig(uint16,uint16,uint256,bytes)": "cbed8b9c",
					"setReceiveVersion(uint16)": "10ddb137",
					"setSendVersion(uint16)": "07e0db17",
					"setTransferFees(uint256)": "d26ed3e3",
					"setTrustedRemote(uint16,bytes)": "eb8d72b7",
					"symbol()": "95d89b41",
					"totalSupply()": "18160ddd",
					"transfer(address,uint256)": "a9059cbb",
					"transferFeePercent()": "94544e64",
					"transferFrom(address,address,uint256)": "23b872dd",
					"transferOwnership(address)": "f2fde38b",
					"trustedRemote(uint16)": "ac447944",
					"txCounter()": "74f079b8",
					"updateEndpoint(address)": "a7170d48",
					"xChainTransfer(address,uint256,uint16,bytes)": "6f0e7470"
				}
			},
			"storageLayout": {
				"storage": [
					{
						"astId": 307,
						"contract": "WrappedAUC.sol:WrappedAUC",
						"label": "_balances",
						"offset": 0,
						"slot": "0",
						"type": "t_mapping(t_address,t_uint256)"
					},
					{
						"astId": 313,
						"contract": "WrappedAUC.sol:WrappedAUC",
						"label": "_allowances",
						"offset": 0,
						"slot": "1",
						"type": "t_mapping(t_address,t_mapping(t_address,t_uint256))"
					},
					{
						"astId": 315,
						"contract": "WrappedAUC.sol:WrappedAUC",
						"label": "_totalSupply",
						"offset": 0,
						"slot": "2",
						"type": "t_uint256"
					},
					{
						"astId": 317,
						"contract": "WrappedAUC.sol:WrappedAUC",
						"label": "_name",
						"offset": 0,
						"slot": "3",
						"type": "t_string_storage"
					},
					{
						"astId": 319,
						"contract": "WrappedAUC.sol:WrappedAUC",
						"label": "_symbol",
						"offset": 0,
						"slot": "4",
						"type": "t_string_storage"
					},
					{
						"astId": 8,
						"contract": "WrappedAUC.sol:WrappedAUC",
						"label": "_owner",
						"offset": 0,
						"slot": "5",
						"type": "t_address"
					},
					{
						"astId": 956,
						"contract": "WrappedAUC.sol:WrappedAUC",
						"label": "endpoint",
						"offset": 0,
						"slot": "6",
						"type": "t_contract(ILayerZeroEndpoint)1634"
					},
					{
						"astId": 961,
						"contract": "WrappedAUC.sol:WrappedAUC",
						"label": "trustedRemote",
						"offset": 0,
						"slot": "7",
						"type": "t_mapping(t_uint16,t_bytes_storage)"
					},
					{
						"astId": 964,
						"contract": "WrappedAUC.sol:WrappedAUC",
						"label": "txCounter",
						"offset": 0,
						"slot": "8",
						"type": "t_uint256"
					},
					{
						"astId": 973,
						"contract": "WrappedAUC.sol:WrappedAUC",
						"label": "nonceStatus",
						"offset": 0,
						"slot": "9",
						"type": "t_mapping(t_bytes_memory_ptr,t_mapping(t_uint16,t_mapping(t_uint64,t_bool)))"
					},
					{
						"astId": 977,
						"contract": "WrappedAUC.sol:WrappedAUC",
						"label": "transferFeePercent",
						"offset": 0,
						"slot": "10",
						"type": "t_uint256"
					}
				],
				"types": {
					"t_address": {
						"encoding": "inplace",
						"label": "address",
						"numberOfBytes": "20"
					},
					"t_bool": {
						"encoding": "inplace",
						"label": "bool",
						"numberOfBytes": "1"
					},
					"t_bytes_memory_ptr": {
						"encoding": "bytes",
						"label": "bytes",
						"numberOfBytes": "32"
					},
					"t_bytes_storage": {
						"encoding": "bytes",
						"label": "bytes",
						"numberOfBytes": "32"
					},
					"t_contract(ILayerZeroEndpoint)1634": {
						"encoding": "inplace",
						"label": "contract ILayerZeroEndpoint",
						"numberOfBytes": "20"
					},
					"t_mapping(t_address,t_mapping(t_address,t_uint256))": {
						"encoding": "mapping",
						"key": "t_address",
						"label": "mapping(address => mapping(address => uint256))",
						"numberOfBytes": "32",
						"value": "t_mapping(t_address,t_uint256)"
					},
					"t_mapping(t_address,t_uint256)": {
						"encoding": "mapping",
						"key": "t_address",
						"label": "mapping(address => uint256)",
						"numberOfBytes": "32",
						"value": "t_uint256"
					},
					"t_mapping(t_bytes_memory_ptr,t_mapping(t_uint16,t_mapping(t_uint64,t_bool)))": {
						"encoding": "mapping",
						"key": "t_bytes_memory_ptr",
						"label": "mapping(bytes => mapping(uint16 => mapping(uint64 => bool)))",
						"numberOfBytes": "32",
						"value": "t_mapping(t_uint16,t_mapping(t_uint64,t_bool))"
					},
					"t_mapping(t_uint16,t_bytes_storage)": {
						"encoding": "mapping",
						"key": "t_uint16",
						"label": "mapping(uint16 => bytes)",
						"numberOfBytes": "32",
						"value": "t_bytes_storage"
					},
					"t_mapping(t_uint16,t_mapping(t_uint64,t_bool))": {
						"encoding": "mapping",
						"key": "t_uint16",
						"label": "mapping(uint16 => mapping(uint64 => bool))",
						"numberOfBytes": "32",
						"value": "t_mapping(t_uint64,t_bool)"
					},
					"t_mapping(t_uint64,t_bool)": {
						"encoding": "mapping",
						"key": "t_uint64",
						"label": "mapping(uint64 => bool)",
						"numberOfBytes": "32",
						"value": "t_bool"
					},
					"t_string_storage": {
						"encoding": "bytes",
						"label": "string",
						"numberOfBytes": "32"
					},
					"t_uint16": {
						"encoding": "inplace",
						"label": "uint16",
						"numberOfBytes": "2"
					},
					"t_uint256": {
						"encoding": "inplace",
						"label": "uint256",
						"numberOfBytes": "32"
					},
					"t_uint64": {
						"encoding": "inplace",
						"label": "uint64",
						"numberOfBytes": "8"
					}
				}
			},
			"userdoc": {
				"kind": "user",
				"methods": {
					"lzReceive(uint16,bytes,uint64,bytes)": {
						"notice": "Handles the reception of tokens on the LayerZero chain."
					},
					"setTransferFees(uint256)": {
						"notice": "Sets the transfer fee per transaction"
					},
					"setTrustedRemote(uint16,bytes)": {
						"notice": "Sets a trusted remote address for a destination chain."
					},
					"updateEndpoint(address)": {
						"notice": "Updates the LayerZero endpoint contract address."
					},
					"xChainTransfer(address,uint256,uint16,bytes)": {
						"notice": "Initiates a cross-chain token transfer."
					}
				},
				"version": 1
			}
		}
	}
}